{
  "abi": [
    {
      "type": "function",
      "name": "UPGRADE_INTERFACE_VERSION",
      "inputs": [],
      "outputs": [
        {
          "name": "",
          "type": "string",
          "internalType": "string"
        }
      ],
      "stateMutability": "view"
    },
    {
      "type": "function",
      "name": "checkContractBalance",
      "inputs": [],
      "outputs": [
        {
          "name": "bal_",
          "type": "uint256",
          "internalType": "uint256"
        }
      ],
      "stateMutability": "view"
    },
    {
      "type": "function",
      "name": "checkUserBalance",
      "inputs": [
        {
          "name": "_addr",
          "type": "address",
          "internalType": "address"
        }
      ],
      "outputs": [
        {
          "name": "bal_",
          "type": "uint256",
          "internalType": "uint256"
        }
      ],
      "stateMutability": "view"
    },
    {
      "type": "function",
      "name": "createAccount",
      "inputs": [
        {
          "name": "_email",
          "type": "string",
          "internalType": "string"
        },
        {
          "name": "_addr",
          "type": "address",
          "internalType": "address"
        },
        {
          "name": "_avatar",
          "type": "string",
          "internalType": "string"
        }
      ],
      "outputs": [],
      "stateMutability": "nonpayable"
    },
    {
      "type": "function",
      "name": "createEvent",
      "inputs": [
        {
          "name": "_title",
          "type": "bytes32",
          "internalType": "bytes32"
        },
        {
          "name": "_imageUrl",
          "type": "string",
          "internalType": "string"
        },
        {
          "name": "_description",
          "type": "string",
          "internalType": "string"
        },
        {
          "name": "_location",
          "type": "string",
          "internalType": "string"
        },
        {
          "name": "_capacity",
          "type": "uint32",
          "internalType": "uint32"
        },
        {
          "name": "_regStartTime",
          "type": "uint256",
          "internalType": "uint256"
        },
        {
          "name": "_regEndTime",
          "type": "uint256",
          "internalType": "uint256"
        },
        {
          "name": "_eventStartTime",
          "type": "uint256",
          "internalType": "uint256"
        },
        {
          "name": "_eventEndTime",
          "type": "uint256",
          "internalType": "uint256"
        },
        {
          "name": "_ticketPrice",
          "type": "uint96",
          "internalType": "uint96"
        }
      ],
      "outputs": [],
      "stateMutability": "nonpayable"
    },
    {
      "type": "function",
      "name": "getAllEventGroups",
      "inputs": [],
      "outputs": [
        {
          "name": "group_",
          "type": "tuple[]",
          "internalType": "struct BlumaProtocol.EventGroup[]",
          "components": [
            {
              "name": "eventId",
              "type": "uint32",
              "internalType": "uint32"
            },
            {
              "name": "title",
              "type": "bytes32",
              "internalType": "bytes32"
            },
            {
              "name": "imageUrl",
              "type": "string",
              "internalType": "string"
            },
            {
              "name": "description",
              "type": "string",
              "internalType": "string"
            },
            {
              "name": "members",
              "type": "address[]",
              "internalType": "address[]"
            }
          ]
        }
      ],
      "stateMutability": "view"
    },
    {
      "type": "function",
      "name": "getAllEvents",
      "inputs": [],
      "outputs": [
        {
          "name": "events_",
          "type": "tuple[]",
          "internalType": "struct BlumaProtocol.Event[]",
          "components": [
            {
              "name": "eventId",
              "type": "uint32",
              "internalType": "uint32"
            },
            {
              "name": "title",
              "type": "bytes32",
              "internalType": "bytes32"
            },
            {
              "name": "imageUrl",
              "type": "string",
              "internalType": "string"
            },
            {
              "name": "location",
              "type": "string",
              "internalType": "string"
            },
            {
              "name": "description",
              "type": "string",
              "internalType": "string"
            },
            {
              "name": "creator",
              "type": "address",
              "internalType": "address"
            },
            {
              "name": "seats",
              "type": "uint32",
              "internalType": "uint32"
            },
            {
              "name": "capacity",
              "type": "uint32",
              "internalType": "uint32"
            },
            {
              "name": "regStartTime",
              "type": "uint256",
              "internalType": "uint256"
            },
            {
              "name": "regEndTime",
              "type": "uint256",
              "internalType": "uint256"
            },
            {
              "name": "regStatus",
              "type": "uint8",
              "internalType": "enum BlumaProtocol.RegStatus"
            },
            {
              "name": "eventStatus",
              "type": "uint8",
              "internalType": "enum BlumaProtocol.EventStatus"
            },
            {
              "name": "eventType",
              "type": "uint8",
              "internalType": "enum BlumaProtocol.EventType"
            },
            {
              "name": "eventStartTime",
              "type": "uint256",
              "internalType": "uint256"
            },
            {
              "name": "eventEndTime",
              "type": "uint256",
              "internalType": "uint256"
            },
            {
              "name": "ticketPrice",
              "type": "uint96",
              "internalType": "uint96"
            },
            {
              "name": "totalSales",
              "type": "uint256",
              "internalType": "uint256"
            },
            {
              "name": "createdAt",
              "type": "uint256",
              "internalType": "uint256"
            },
            {
              "name": "isCreatorPaid",
              "type": "bool",
              "internalType": "bool"
            }
          ]
        }
      ],
      "stateMutability": "view"
    },
    {
      "type": "function",
      "name": "getAllTickets",
      "inputs": [],
      "outputs": [
        {
          "name": "_tickets",
          "type": "tuple[]",
          "internalType": "struct BlumaProtocol.Ticket[]",
          "components": [
            {
              "name": "ticketId",
              "type": "uint32",
              "internalType": "uint32"
            },
            {
              "name": "eventId",
              "type": "uint32",
              "internalType": "uint32"
            },
            {
              "name": "owner",
              "type": "address",
              "internalType": "address"
            },
            {
              "name": "ticketCost",
              "type": "uint256",
              "internalType": "uint256"
            },
            {
              "name": "purchaseTime",
              "type": "uint256",
              "internalType": "uint256"
            },
            {
              "name": "numberOfTicket",
              "type": "uint32",
              "internalType": "uint32"
            }
          ]
        }
      ],
      "stateMutability": "view"
    },
    {
      "type": "function",
      "name": "getEvent",
      "inputs": [
        {
          "name": "_eventId",
          "type": "uint32",
          "internalType": "uint32"
        }
      ],
      "outputs": [
        {
          "name": "events_",
          "type": "tuple",
          "internalType": "struct BlumaProtocol.Event",
          "components": [
            {
              "name": "eventId",
              "type": "uint32",
              "internalType": "uint32"
            },
            {
              "name": "title",
              "type": "bytes32",
              "internalType": "bytes32"
            },
            {
              "name": "imageUrl",
              "type": "string",
              "internalType": "string"
            },
            {
              "name": "location",
              "type": "string",
              "internalType": "string"
            },
            {
              "name": "description",
              "type": "string",
              "internalType": "string"
            },
            {
              "name": "creator",
              "type": "address",
              "internalType": "address"
            },
            {
              "name": "seats",
              "type": "uint32",
              "internalType": "uint32"
            },
            {
              "name": "capacity",
              "type": "uint32",
              "internalType": "uint32"
            },
            {
              "name": "regStartTime",
              "type": "uint256",
              "internalType": "uint256"
            },
            {
              "name": "regEndTime",
              "type": "uint256",
              "internalType": "uint256"
            },
            {
              "name": "regStatus",
              "type": "uint8",
              "internalType": "enum BlumaProtocol.RegStatus"
            },
            {
              "name": "eventStatus",
              "type": "uint8",
              "internalType": "enum BlumaProtocol.EventStatus"
            },
            {
              "name": "eventType",
              "type": "uint8",
              "internalType": "enum BlumaProtocol.EventType"
            },
            {
              "name": "eventStartTime",
              "type": "uint256",
              "internalType": "uint256"
            },
            {
              "name": "eventEndTime",
              "type": "uint256",
              "internalType": "uint256"
            },
            {
              "name": "ticketPrice",
              "type": "uint96",
              "internalType": "uint96"
            },
            {
              "name": "totalSales",
              "type": "uint256",
              "internalType": "uint256"
            },
            {
              "name": "createdAt",
              "type": "uint256",
              "internalType": "uint256"
            },
            {
              "name": "isCreatorPaid",
              "type": "bool",
              "internalType": "bool"
            }
          ]
        }
      ],
      "stateMutability": "view"
    },
    {
      "type": "function",
      "name": "getEventGroup",
      "inputs": [
        {
          "name": "_groupId",
          "type": "uint32",
          "internalType": "uint32"
        }
      ],
      "outputs": [
        {
          "name": "group_",
          "type": "tuple",
          "internalType": "struct BlumaProtocol.EventGroup",
          "components": [
            {
              "name": "eventId",
              "type": "uint32",
              "internalType": "uint32"
            },
            {
              "name": "title",
              "type": "bytes32",
              "internalType": "bytes32"
            },
            {
              "name": "imageUrl",
              "type": "string",
              "internalType": "string"
            },
            {
              "name": "description",
              "type": "string",
              "internalType": "string"
            },
            {
              "name": "members",
              "type": "address[]",
              "internalType": "address[]"
            }
          ]
        }
      ],
      "stateMutability": "view"
    },
    {
      "type": "function",
      "name": "getGroupMembers",
      "inputs": [
        {
          "name": "_eventId",
          "type": "uint32",
          "internalType": "uint32"
        }
      ],
      "outputs": [
        {
          "name": "_members",
          "type": "address[]",
          "internalType": "address[]"
        }
      ],
      "stateMutability": "view"
    },
    {
      "type": "function",
      "name": "getTicket",
      "inputs": [
        {
          "name": "_addr",
          "type": "address",
          "internalType": "address"
        }
      ],
      "outputs": [
        {
          "name": "_ticket",
          "type": "tuple",
          "internalType": "struct BlumaProtocol.Ticket",
          "components": [
            {
              "name": "ticketId",
              "type": "uint32",
              "internalType": "uint32"
            },
            {
              "name": "eventId",
              "type": "uint32",
              "internalType": "uint32"
            },
            {
              "name": "owner",
              "type": "address",
              "internalType": "address"
            },
            {
              "name": "ticketCost",
              "type": "uint256",
              "internalType": "uint256"
            },
            {
              "name": "purchaseTime",
              "type": "uint256",
              "internalType": "uint256"
            },
            {
              "name": "numberOfTicket",
              "type": "uint32",
              "internalType": "uint32"
            }
          ]
        }
      ],
      "stateMutability": "view"
    },
    {
      "type": "function",
      "name": "getUser",
      "inputs": [
        {
          "name": "_addr",
          "type": "address",
          "internalType": "address"
        }
      ],
      "outputs": [
        {
          "name": "_user",
          "type": "tuple",
          "internalType": "struct BlumaProtocol.User",
          "components": [
            {
              "name": "email",
              "type": "string",
              "internalType": "string"
            },
            {
              "name": "userAddr",
              "type": "address",
              "internalType": "address"
            },
            {
              "name": "isRegistered",
              "type": "bool",
              "internalType": "bool"
            },
            {
              "name": "avatar",
              "type": "string",
              "internalType": "string"
            },
            {
              "name": "balance",
              "type": "uint256",
              "internalType": "uint256"
            }
          ]
        }
      ],
      "stateMutability": "view"
    },
    {
      "type": "function",
      "name": "initialize",
      "inputs": [
        {
          "name": "initialOwner",
          "type": "address",
          "internalType": "address"
        }
      ],
      "outputs": [],
      "stateMutability": "nonpayable"
    },
    {
      "type": "function",
      "name": "isRegistered",
      "inputs": [
        {
          "name": "_addr",
          "type": "address",
          "internalType": "address"
        }
      ],
      "outputs": [
        {
          "name": "",
          "type": "bool",
          "internalType": "bool"
        }
      ],
      "stateMutability": "view"
    },
    {
      "type": "function",
      "name": "owner",
      "inputs": [],
      "outputs": [
        {
          "name": "",
          "type": "address",
          "internalType": "address"
        }
      ],
      "stateMutability": "view"
    },
    {
      "type": "function",
      "name": "proxiableUUID",
      "inputs": [],
      "outputs": [
        {
          "name": "",
          "type": "bytes32",
          "internalType": "bytes32"
        }
      ],
      "stateMutability": "view"
    },
    {
      "type": "function",
      "name": "purchaseTicket",
      "inputs": [
        {
          "name": "_eventId",
          "type": "uint32",
          "internalType": "uint32"
        },
        {
          "name": "_numberOfTickets",
          "type": "uint32",
          "internalType": "uint32"
        }
      ],
      "outputs": [],
      "stateMutability": "nonpayable"
    },
    {
      "type": "function",
      "name": "refundFee",
      "inputs": [
        {
          "name": "_eventId",
          "type": "uint32",
          "internalType": "uint32"
        },
        {
          "name": "_numberOfTickets",
          "type": "uint32",
          "internalType": "uint32"
        }
      ],
      "outputs": [],
      "stateMutability": "nonpayable"
    },
    {
      "type": "function",
      "name": "renounceOwnership",
      "inputs": [],
      "outputs": [],
      "stateMutability": "nonpayable"
    },
    {
      "type": "function",
      "name": "transferOwnership",
      "inputs": [
        {
          "name": "newOwner",
          "type": "address",
          "internalType": "address"
        }
      ],
      "outputs": [],
      "stateMutability": "nonpayable"
    },
    {
      "type": "function",
      "name": "updateEventStatus",
      "inputs": [
        {
          "name": "_eventId",
          "type": "uint32",
          "internalType": "uint32"
        }
      ],
      "outputs": [],
      "stateMutability": "nonpayable"
    },
    {
      "type": "function",
      "name": "upgradeToAndCall",
      "inputs": [
        {
          "name": "newImplementation",
          "type": "address",
          "internalType": "address"
        },
        {
          "name": "data",
          "type": "bytes",
          "internalType": "bytes"
        }
      ],
      "outputs": [],
      "stateMutability": "payable"
    },
    {
      "type": "function",
      "name": "withdrawEventFee",
      "inputs": [
        {
          "name": "_eventId",
          "type": "uint32",
          "internalType": "uint32"
        }
      ],
      "outputs": [],
      "stateMutability": "nonpayable"
    },
    {
      "type": "event",
      "name": "EventClosed",
      "inputs": [
        {
          "name": "_eventId",
          "type": "uint32",
          "indexed": true,
          "internalType": "uint32"
        },
        {
          "name": "_currentTime",
          "type": "uint256",
          "indexed": true,
          "internalType": "uint256"
        }
      ],
      "anonymous": false
    },
    {
      "type": "event",
      "name": "EventCreated",
      "inputs": [
        {
          "name": "_totalEventsId",
          "type": "uint32",
          "indexed": true,
          "internalType": "uint32"
        },
        {
          "name": "_seatNumber",
          "type": "uint32",
          "indexed": true,
          "internalType": "uint32"
        },
        {
          "name": "_capacity",
          "type": "uint32",
          "indexed": true,
          "internalType": "uint32"
        }
      ],
      "anonymous": false
    },
    {
      "type": "event",
      "name": "GroupCreated",
      "inputs": [
        {
          "name": "_roomId",
          "type": "uint32",
          "indexed": true,
          "internalType": "uint32"
        },
        {
          "name": "imageUrl",
          "type": "string",
          "indexed": false,
          "internalType": "string"
        },
        {
          "name": "_title",
          "type": "bytes32",
          "indexed": false,
          "internalType": "bytes32"
        }
      ],
      "anonymous": false
    },
    {
      "type": "event",
      "name": "GroupJoinedSuccessfully",
      "inputs": [
        {
          "name": "_sender",
          "type": "address",
          "indexed": true,
          "internalType": "address"
        },
        {
          "name": "_eventId",
          "type": "uint32",
          "indexed": true,
          "internalType": "uint32"
        }
      ],
      "anonymous": false
    },
    {
      "type": "event",
      "name": "Initialized",
      "inputs": [
        {
          "name": "version",
          "type": "uint64",
          "indexed": false,
          "internalType": "uint64"
        }
      ],
      "anonymous": false
    },
    {
      "type": "event",
      "name": "OwnershipTransferred",
      "inputs": [
        {
          "name": "previousOwner",
          "type": "address",
          "indexed": true,
          "internalType": "address"
        },
        {
          "name": "newOwner",
          "type": "address",
          "indexed": true,
          "internalType": "address"
        }
      ],
      "anonymous": false
    },
    {
      "type": "event",
      "name": "RefundIssued",
      "inputs": [
        {
          "name": "buyer",
          "type": "address",
          "indexed": true,
          "internalType": "address"
        },
        {
          "name": "_ticketId",
          "type": "uint32",
          "indexed": true,
          "internalType": "uint32"
        },
        {
          "name": "_eventId",
          "type": "uint32",
          "indexed": true,
          "internalType": "uint32"
        },
        {
          "name": "amount",
          "type": "uint256",
          "indexed": false,
          "internalType": "uint256"
        }
      ],
      "anonymous": false
    },
    {
      "type": "event",
      "name": "RegistrationClose",
      "inputs": [
        {
          "name": "_currentTime",
          "type": "uint256",
          "indexed": true,
          "internalType": "uint256"
        },
        {
          "name": "_status",
          "type": "uint8",
          "indexed": true,
          "internalType": "uint8"
        }
      ],
      "anonymous": false
    },
    {
      "type": "event",
      "name": "TicketPurchased",
      "inputs": [
        {
          "name": "buyer",
          "type": "address",
          "indexed": true,
          "internalType": "address"
        },
        {
          "name": "_eventId",
          "type": "uint32",
          "indexed": true,
          "internalType": "uint32"
        },
        {
          "name": "numberOfTickets",
          "type": "uint32",
          "indexed": false,
          "internalType": "uint32"
        }
      ],
      "anonymous": false
    },
    {
      "type": "event",
      "name": "Upgraded",
      "inputs": [
        {
          "name": "implementation",
          "type": "address",
          "indexed": true,
          "internalType": "address"
        }
      ],
      "anonymous": false
    },
    {
      "type": "error",
      "name": "ALREADY_PAID",
      "inputs": []
    },
    {
      "type": "error",
      "name": "AddressEmptyCode",
      "inputs": [
        {
          "name": "target",
          "type": "address",
          "internalType": "address"
        }
      ]
    },
    {
      "type": "error",
      "name": "EMPTY_INPUT_FIELD",
      "inputs": []
    },
    {
      "type": "error",
      "name": "ERC1967InvalidImplementation",
      "inputs": [
        {
          "name": "implementation",
          "type": "address",
          "internalType": "address"
        }
      ]
    },
    {
      "type": "error",
      "name": "ERC1967NonPayable",
      "inputs": []
    },
    {
      "type": "error",
      "name": "EVENT_NOT_CLOSED",
      "inputs": []
    },
    {
      "type": "error",
      "name": "FailedInnerCall",
      "inputs": []
    },
    {
      "type": "error",
      "name": "GROUP_ALREADY_EXISTS",
      "inputs": []
    },
    {
      "type": "error",
      "name": "INSUFFICIENT_BALANCE",
      "inputs": []
    },
    {
      "type": "error",
      "name": "INSUFFICIENT_TICKET_PURCHASED",
      "inputs": []
    },
    {
      "type": "error",
      "name": "INVALID_EVENT_ID",
      "inputs": []
    },
    {
      "type": "error",
      "name": "INVALID_ID",
      "inputs": []
    },
    {
      "type": "error",
      "name": "INVALID_TIME_SET",
      "inputs": []
    },
    {
      "type": "error",
      "name": "InvalidInitialization",
      "inputs": []
    },
    {
      "type": "error",
      "name": "NOT_CREATOR",
      "inputs": []
    },
    {
      "type": "error",
      "name": "NOT_ENOUGH_AVAILABLE_SEAT",
      "inputs": []
    },
    {
      "type": "error",
      "name": "NOT_OWNER",
      "inputs": []
    },
    {
      "type": "error",
      "name": "NOT_PAID_EVENT",
      "inputs": []
    },
    {
      "type": "error",
      "name": "NO_ALLOWANCE",
      "inputs": []
    },
    {
      "type": "error",
      "name": "NotInitializing",
      "inputs": []
    },
    {
      "type": "error",
      "name": "OwnableInvalidOwner",
      "inputs": [
        {
          "name": "owner",
          "type": "address",
          "internalType": "address"
        }
      ]
    },
    {
      "type": "error",
      "name": "OwnableUnauthorizedAccount",
      "inputs": [
        {
          "name": "account",
          "type": "address",
          "internalType": "address"
        }
      ]
    },
    {
      "type": "error",
      "name": "REGISTRATION_CLOSE",
      "inputs": []
    },
    {
      "type": "error",
      "name": "REGISTRATION_NOT_OPEN",
      "inputs": []
    },
    {
      "type": "error",
      "name": "USER_NOT_REGISTERED",
      "inputs": []
    },
    {
      "type": "error",
      "name": "UUPSUnauthorizedCallContext",
      "inputs": []
    },
    {
      "type": "error",
      "name": "UUPSUnsupportedProxiableUUID",
      "inputs": [
        {
          "name": "slot",
          "type": "bytes32",
          "internalType": "bytes32"
        }
      ]
    }
  ],
  "bytecode": {
    "object": "0x60a0806040523461002a57306080526132349081610030823960805181818161098b0152610acd0152f35b600080fdfe6080604052600436101561001257600080fd5b60003560e01c806303e96fe3146123855780630a9bfef5146123485780630f9fcf4814612089578063301a9bb8146114bd578063331ef976146112905780633405741d14610d745780633809f6f514610d205780634717dea914610cac5780634f1ef28614610a7e57806350312c9e146109f557806352d1902d146109785780636f77926b1461087e578063715018a6146108145780638da5cb5b146107de578063909fdec9146106f4578063a87f86f9146106d3578063ad3cb1cc14610665578063b33f650e14610501578063c27a500d14610429578063c3c5a547146103e4578063c4d66de81461028b578063d88c8e98146101af578063ec976a0a146101545763f2fde38b1461012457600080fd5b3461014f57602036600319011261014f5761014d61014061249c565b6101486130c1565b612dac565b005b600080fd5b3461014f57602036600319011261014f5763ffffffff6101726124b2565b61017b81612e20565b1660005260046020526101ab6101976004604060002001612b2e565b604051918291602083526020830190612628565b0390f35b3461014f57602036600319011261014f5763ffffffff6101cd6124b2565b60006102406040516101de8161253b565b82815282602082015260606040820152606080820152606060808201528260a08201528260c08201528260e08201528261010082015282610120820152826101408201528261016082015282610180820152826101a0820152826101c0820152826101e08201528261020082015282610220820152015261025e81612e20565b1660005260026020526101ab6102776040600020612c83565b6040519182916020835260208301906126c8565b3461014f57602036600319011261014f576102a461249c565b7ff0c57e16840df040f15088dc2f81fe391c3923bec73e23a9662efc9c229c6a0090815460ff8160401c1615916001600160401b038216801590816103dc575b60011490816103d2575b1590816103c9575b506103b75767ffffffffffffffff19821660011784556103279183610398575b5061031f6130fa565b6101486130fa565b61032f6130fa565b600980546001600160a01b031916734cb6cef87d8cadf966b455e8bd58fff32aba49d117905561035b57005b68ff00000000000000001981541690557fc7f505b2f371ae2175ee4913f4499e1f2633a7b5936321eed1cdaeb6115181d2602060405160018152a1005b68ffffffffffffffffff19166801000000000000000117845584610316565b60405163f92ee8a960e01b8152600490fd5b905015856102f6565b303b1591506102ee565b8491506102e4565b3461014f57602036600319011261014f576001600160a01b0361040561249c565b166000526001602052602060ff60016040600020015460a01c166040519015158152f35b3461014f57600036600319011261014f57600654610446816127ef565b906104546040519283612557565b808252602090818301908160066000526000805160206131bf8339815191526000915b8383106104de5750505050604051918083019381845251809452604083019360408160051b85010192916000955b8287106104b25785850386f35b9091929382806104ce600193603f198a820301865288516126c8565b96019201960195929190926104a5565b600f866001926104f0859a999a612c83565b815201920192019190959495610477565b3461014f5760208060031936011261014f5761051b6124b2565b61052481612e20565b63ffffffff811660005260028252604060002090336000526001835261054e604060002091612bdf565b600160ff600884015460081c16610564816126be565b036106535760058201546001600160a01b0390339082160361064157600e83019081549060ff821661062f57600386946105ed946001600c6000990195898754975560ff1916179055016105b9838254612a52565b905560095460405163a9059cbb60e01b81523360048201526024810193909352919485939190921691839182906044820190565b03925af18015610623576105fd57005b8161014d92903d1061061c575b6106148183612557565b810190612892565b503d61060a565b6040513d6000823e3d90fd5b60405163d2e53ca760e01b8152600490fd5b604051632cff942760e01b8152600490fd5b604051631988a70d60e01b8152600490fd5b3461014f57600036600319011261014f5760405160408101908082106001600160401b038311176106bd576101ab9160405260058152640352e302e360dc1b60208201526040519182916020835260208301906125e8565b634e487b7160e01b600052604160045260246000fd5b3461014f57602036600319011261014f5761014d6106ef6124b2565b612bdf565b3461014f57600036600319011261014f57600754610711816127ef565b9061071f6040519283612557565b808252602090818301908160076000527fa66cc928b5edb82af9bd49922954155ab7b0942694bea4ce44661d9a8736c6886000915b8383106107bb5750505050604051918083019381845251809452604083019360408160051b85010192916000955b82871061078f5785850386f35b9091929382806107ab600193603f198a82030186528851612665565b9601920196019592919092610782565b6005866001926107cd859a999a612b88565b815201920192019190959495610754565b3461014f57600036600319011261014f5760008051602061319f833981519152546040516001600160a01b039091168152602090f35b3461014f57600036600319011261014f5761082d6130c1565b60008051602061319f83398151915280546001600160a01b031981169091556000906001600160a01b03167f8be0079c531659141344cd1fd0a4f28419497f9722a3daafe3b4186f6b6457e08280a3005b3461014f5760208060031936011261014f5760a09061089b61249c565b90600060806040516108ac81612520565b6060815282848201528260408201526060808201520152600180841b038092166000526001815261096d604060002092604051936108e985612520565b6108f281612a8b565b8552600181015484860192808216845260ff6040880192891c161515825261094b600361092160028601612a8b565b9460608a0195865201549660808901978852604051998a99828b5251918a015260c08901906125e8565b9351166040870152511515606086015251848203601f190160808601526125e8565b905160a08301520390f35b3461014f57600036600319011261014f577f00000000000000000000000000000000000000000000000000000000000000006001600160a01b031630036109e35760206040517f360894a13ba1a3210667c828492db98dca3e2076cc3735a920a3ca505d382bbc8152f35b60405163703e46dd60e11b8152600490fd5b3461014f57600036600319011261014f576009546040516370a0823160e01b815230600482015290602090829060249082906001600160a01b03165afa801561062357600090610a4b575b602090604051908152f35b506020813d602011610a76575b81610a6560209383612557565b8101031261014f5760209051610a40565b3d9150610a58565b604036600319011261014f57610a9261249c565b6024356001600160401b03811161014f573660238201121561014f57610ac2903690602481600401359101612593565b906001600160a01b037f00000000000000000000000000000000000000000000000000000000000000008116308114908115610c7e575b506109e357610b066130c1565b6040516352d1902d60e01b8152908216916020918281600481875afa60009181610c4f575b50610b4957604051634c9c8ce360e01b815260048101859052602490fd5b9284937f360894a13ba1a3210667c828492db98dca3e2076cc3735a920a3ca505d382bbc90818103610c375750823b15610c1e5780546001600160a01b03191682179055604051907fbc7cd75a20ee27fd9adebab32041f755214dbc6bffa90cc0225b39da2e5c2d3b600080a2835115610c045750600080848461014d96519101845af4903d15610bfb573d610bde81612578565b90610bec6040519283612557565b8152600081943d92013e61313b565b6060925061313b565b9250505034610c0f57005b63b398979f60e01b8152600490fd5b604051634c9c8ce360e01b815260048101839052602490fd5b60249060405190632a87526960e21b82526004820152fd5b9091508381813d8311610c77575b610c678183612557565b8101031261014f57519086610b2b565b503d610c5d565b9050817f360894a13ba1a3210667c828492db98dca3e2076cc3735a920a3ca505d382bbc5416141584610af9565b3461014f57602036600319011261014f57610cc561249c565b600060a0604051610cd581612505565b828152826020820152826040820152826060820152826080820152015260018060a01b0316600052600360205260c0610d116040600020612806565b610d1e6040518092612453565bf35b3461014f57602036600319011261014f5763ffffffff610d3e6124b2565b610d46612a5f565b501660005260046020526101ab610d606040600020612b88565b604051918291602083526020830190612665565b3461014f57604036600319011261014f57610d8d6124b2565b610d956124c5565b610d9e82612e20565b63ffffffff9182811692836000526020906002825260406000206008810160ff815416610dca816126be565b61127e576005820180548480610de58a828560a01c166128bf565b9260c01c1691161161126c5760005467ffffffff00000000610e0a8683891c166128aa565b871b169067ffffffff00000000191617600055336000526003855260406000209260ff6000935460101c16600281101561125657156110bc575b5080610e598886610e79945460a01c166128bf565b815463ffffffff60a01b191660a09190911b63ffffffff60a01b16179055565b6000548254600160401b600160e01b031991861c85169190911667ffffffff00000001600160e01b0319909116173360401b600160401b600160e01b031617825563ffffffff1990610ef7610ecc612e73565b9660028501978855849067ffffffff0000000082549160201b169067ffffffff000000001916179055565b610f0660018401918254612a52565b8155600383019283548386610f1d8b8285166128bf565b16911617845560085491600160401b8310156106bd5760018301806008558310156110a6577fc541e3defd92fd2d8306e9c91b36c15f096115c41c7a9a36ac548a487d8891aa97869360021b91827ff3f7a9fe364faab93b216da50a3214154f22a0a2b415b23a84c8169e8b636ee30193808503610fca575b8c8c8c8c89336000526005825260406000208560005282526040600020600160ff19825416179055604051931683523392a3005b80548554881690871617808655815467ffffffff0000000019909116908b1c871660201b67ffffffff00000000161785557ff3f7a9fe364faab93b216da50a3214154f22a0a2b415b23a84c8169e8b636ee69461104491548154600160401b600160e01b031916600160401b600160e01b03909116179055565b547ff3f7a9fe364faab93b216da50a3214154f22a0a2b415b23a84c8169e8b636ee4830155547ff3f7a9fe364faab93b216da50a3214154f22a0a2b415b23a84c8169e8b636ee582015501925416908254161790558580828180808080610f96565b634e487b7160e01b600052603260045260246000fd5b9091506001600160601b036110d981600b84015416868a1661285e565b169160018060a01b0360095416916040516370a0823160e01b81523360048201528781602481875afa8015610623578591600091611225575b501061121357604051636eb1769f60e11b81523360048201523060248201528781604481875afa80156106235785916000916111e2575b50106111d057866000936064604051809681936323b872dd60e01b83523360048401523060248401528960448401525af190811561062357610e7993600c926111b3575b500161119a848254612a52565b9055600184016111ab848254612a52565b905590610e44565b6111c990893d8b1161061c576106148183612557565b508b61118d565b60405163ea75ebd560e01b8152600490fd5b809250898092503d831161120c575b6111fb8183612557565b8101031261014f578490518c611149565b503d6111f1565b604051632858f9ab60e11b8152600490fd5b809250898092503d831161124f575b61123e8183612557565b8101031261014f578490518c611112565b503d611234565b634e487b7160e01b600052602160045260246000fd5b6040516374a227cd60e01b8152600490fd5b6040516305fb6d9960e41b8152600490fd5b3461014f57606036600319011261014f576001600160401b0360043581811161014f576112c19036906004016125ca565b906024356001600160a01b038116919082900361014f5760443581811161014f576112f09036906004016125ca565b916112fa84612e45565b61130383612e45565b806000526001936020918583526040600020918051908582116106bd576113348261132e86546128d7565b86612928565b8490601f831160011461145557918061136992600296959460009261144a575b50508160011b916000199060031b1c19161790565b82555b81870180546001600160a81b031916909117600160a01b1790558451910194909283116106bd576113a7836113a187546128d7565b87612928565b81601f84116001146113e657505081906113d7936000926113db5750508160011b916000199060031b1c19161790565b9055005b015190508480611354565b91909383601f1981168760005284600020946000905b888383106114305750505010611417575b505050811b019055005b015160001960f88460031b161c1916905583808061140d565b8587015188559096019594850194879350908101906113fc565b015190508a80611354565b9392918891601f1982169085600052876000209160005b898282106114a757505096836002981061148e575b505050811b01825561136c565b015160001960f88460031b161c19169055898080611481565b838a015185558d9690940193928301920161146c565b3461014f5761014036600319011261014f576024356001600160401b03811161014f576114ee9036906004016124d8565b906044356001600160401b03811161014f5761150e9036906004016124d8565b6064356001600160401b03811161014f5761152d9036906004016124d8565b92909463ffffffff608435166084350361014f576001600160601b036101243516610124350361014f5733600052600160205260ff60016040600020015460a01c161561207757611587611582368585612593565b612e45565b611595611582368388612593565b6115a3611582368689612593565b6115ae60a435612e50565b6115b960c435612e50565b6115c460e435612e50565b6115d061010435612e50565b6115e56001600160601b036101243516612e50565b600163ffffffff6084351610612065576116046101043560e435612e59565b61161260c43560a435612e59565b60005463ffffffff6116258183166128aa565b16809163ffffffff191617600055600052600260205260406000209460a43561164c612e73565b10156120545760088601805460ff191660021790555b610124356001600160601b031661201c57600b860180546bffffffffffffffffffffffff1916905560088601805462ff00001916620100001790555b63ffffffff6000541663ffffffff1987541617865560043560018701556001600160401b0382116106bd576116e3826116da60028901546128d7565b60028901612928565b600090601f8311600114611fab57611713929160009183611fa05750508160011b916000199060031b1c19161790565b60028501555b6001600160401b0382116106bd576117418261173860048701546128d7565b60048701612928565b600090601f8311600114611f2f57611771929160009183611f245750508160011b916000199060031b1c19161790565b60048301555b60058201805463ffffffff60a01b1933166001600160c01b03199091161760843560a01b63ffffffff60a01b161790556001600160401b0381116106bd576117cf816117c660038501546128d7565b60038501612928565b600092601f8211600114611eb55761180092938291600092611eaa5750508160011b916000199060031b1c19161790565b60038201555b60058101805463ffffffff60c01b191660843560c01b63ffffffff60c01b1617905560a435600682015560c435600782015560e435600982015561010435600a82015560088101805461ff001916610200179055611862612e73565b600d820155600654600160401b8110156106bd5760018101806006558110156110a657600660005281600f82026000805160206131bf8339815191520103611ae3575b5063ffffffff8154166118b781612e20565b80600052600460205263ffffffff60406000205416611ad15780600052600260205260406000206118e6612a5f565b908282526001810180546020840152600282019261190384612a8b565b6040820152611916600460609401612a8b565b6060820152846000526004602052611932816040600020612e93565b60075490600160401b8210156106bd5760018201806007558210156110a6576005611984926007600052027fa66cc928b5edb82af9bd49922954155ab7b0942694bea4ce44661d9a8736c68801612e93565b54604051926040845260009281549161199c836128d7565b92836040880152600181169081600014611a895750600114611a2d575b5050509180917f45881a834c1c2b1081ee9f2063da43f83e3d9f2ba737ca954a4098d94bce97d59360208301520390a263ffffffff6000541663ffffffff6005816084351693015460a01c16907fac3c2fbb08f906d92c1b4be6fa025f63708bafa70869110e931d718b9532c411600080a4005b600090815260208120939450925b828410611a7357505050820160600190807f45881a834c1c2b1081ee9f2063da43f83e3d9f2ba737ca954a4098d94bce97d5846119b9565b8054848701830152602090930192600101611a3b565b60ff191660608089019190915293151560051b870190930194508392507f45881a834c1c2b1081ee9f2063da43f83e3d9f2ba737ca954a4098d94bce97d591508590506119b9565b60405163e955b73b60e01b8152600490fd5b63ffffffff82541663ffffffff19600f83026000805160206131bf83398151915201541617600f82026000805160206131bf833981519152015560018201547ff652222313e28459528d920b65115c16c04f3efc82aaedc97be59f3f377c0d40600f83020155611b7b600283017ff652222313e28459528d920b65115c16c04f3efc82aaedc97be59f3f377c0d41600f84020161296f565b611bad600383017ff652222313e28459528d920b65115c16c04f3efc82aaedc97be59f3f377c0d42600f84020161296f565b611bdf600483017ff652222313e28459528d920b65115c16c04f3efc82aaedc97be59f3f377c0d43600f84020161296f565b6005820180547ff652222313e28459528d920b65115c16c04f3efc82aaedc97be59f3f377c0d44600f84020180546001600160a01b039092166001600160a01b0319831681178255925463ffffffff60a01b166001600160c01b0319909216909217178155611c69906005840154815463ffffffff60c01b191663ffffffff60c01b909116179055565b60068201547ff652222313e28459528d920b65115c16c04f3efc82aaedc97be59f3f377c0d45600f8302015560078201547ff652222313e28459528d920b65115c16c04f3efc82aaedc97be59f3f377c0d46600f8302015560ff600883015416611cd2816126be565b6000805160206131df833981519152600f83020154918160ff198416176000805160206131df833981519152600f83020155600884015492611d1960ff8560081c166126be565b61ff0084168361ffff19831617176000805160206131df833981519152600f84020155600885015493600260ff8660101c1610156112565761ff00600f9462ff00007ff652222313e28459528d920b65115c16c04f3efc82aaedc97be59f3f377c0d4d97169362ffffff191617911617176000805160206131df833981519152838302015560098401547ff652222313e28459528d920b65115c16c04f3efc82aaedc97be59f3f377c0d488383020155600a8401547ff652222313e28459528d920b65115c16c04f3efc82aaedc97be59f3f377c0d4983830201557ff652222313e28459528d920b65115c16c04f3efc82aaedc97be59f3f377c0d4a828202016001600160601b03600b860154166001600160601b0319825416179055600c8401547ff652222313e28459528d920b65115c16c04f3efc82aaedc97be59f3f377c0d4b8383020155600d8401547ff652222313e28459528d920b65115c16c04f3efc82aaedc97be59f3f377c0d4c8383020155020160ff600e83015416151560ff80198354169116179055816118a5565b013590508480611354565b600383016000526020600020906000945b601f1984168610611f0c57600194955083601f19811610611ef2575b505050811b016003820155611806565b0135600019600384901b60f8161c19169055838080611ee2565b91602060018192858501358155019301950194611ec6565b013590508680611354565b600485939293016000526020600020906000935b601f1984168510611f88576001945083601f19811610611f6e575b505050811b016004830155611777565b0135600019600384901b60f8161c19169055858080611f5e565b81810135835560209485019460019093019201611f43565b013590508880611354565b600287939293016000526020600020906000935b601f1984168510612004576001945083601f19811610611fea575b505050811b016002850155611719565b0135600019600384901b60f8161c19169055878080611fda565b81810135835560209485019460019093019201611fbf565b60088601805462ff000019169055600b860180546bffffffffffffffffffffffff1916610124356001600160601b031617905561169e565b60088601805460ff19169055611662565b604051631ee8943b60e21b8152600490fd5b604051633069384b60e21b8152600490fd5b3461014f57604036600319011261014f576120a26124b2565b6120aa6124c5565b906120b481612e20565b63ffffffff908181169283600052602092600284526120d7604060002093612e20565b846000526002845260406000206120ec612e73565b6007820154106122e8575b503360005260038452604060002091600884015460ff8160101c166002811015611256576122d65760ff1661212b816126be565b6122c45782546001600160a01b03919033604082901c8416036122b257838891881c16036122a057600384018381541684831680911061228e57600c906121816001600160601b039182600b8b0154169061285e565b169661219a60058201610e598689835460a01c1661287c565b018054908782039182116122785755836121b882549382851661287c565b16809263ffffffff191617905515612253575b60095460405163a9059cbb60e01b8152336004820152602481018690529391869185916044918391600091165af1928315610623577f4f6fb365c29f3632d91fcd919dbfdf50155c34cd0ea613bd43e7e76529fec43593612236575b505416926040519283523392a4005b61224c90863d881161061c576106148183612557565b5086612227565b33600052600585526040600020866000528552604060002060ff1981541690556121cb565b634e487b7160e01b600052601160045260246000fd5b60405163a2ed46e160e01b8152600490fd5b60405163b790ffed60e01b8152600490fd5b6040516338ebc58960e11b8152600490fd5b604051630738c50360e41b8152600490fd5b6040516380e4469160e01b8152600490fd5b6008018054600160ff82166122fc816126be565b03612308575b506120f7565b60019060ff1916179055600161231c612e73565b7f9c8ea6489f3baa31d321639e3a41ad67158fa673511a98870906b5a9eced0dd4600080a38580612302565b3461014f57602036600319011261014f576001600160a01b0361236961249c565b1660005260016020526020600360406000200154604051908152f35b3461014f57600036600319011261014f576008546123a2816127ef565b6123af6040519182612557565b81815260209060208101928360086000527ff3f7a9fe364faab93b216da50a3214154f22a0a2b415b23a84c8169e8b636ee36000915b83831061243657604080516020808252875190820181905289928201908960005b8281106124135784840385f35b9091928260c0826124276001948a51612453565b01960191019492919094612406565b60048660019261244585612806565b8152019201920191906123e5565b60a0908163ffffffff91828151168552826020820151166020860152600180831b0360408201511660408601526060810151606086015260808101516080860152015116910152565b600435906001600160a01b038216820361014f57565b6004359063ffffffff8216820361014f57565b6024359063ffffffff8216820361014f57565b9181601f8401121561014f578235916001600160401b03831161014f576020838186019501011161014f57565b60c081019081106001600160401b038211176106bd57604052565b60a081019081106001600160401b038211176106bd57604052565b61026081019081106001600160401b038211176106bd57604052565b90601f801991011681019081106001600160401b038211176106bd57604052565b6001600160401b0381116106bd57601f01601f191660200190565b92919261259f82612578565b916125ad6040519384612557565b82948184528183011161014f578281602093846000960137010152565b9080601f8301121561014f578160206125e593359101612593565b90565b919082519283825260005b848110612614575050826000602080949584010152601f8019910116010190565b6020818301810151848301820152016125f3565b90815180825260208080930193019160005b828110612648575050505090565b83516001600160a01b03168552938101939281019260010161263a565b6125e59163ffffffff82511681526020820151602082015260806126ad61269b604085015160a0604086015260a08501906125e8565b606085015184820360608601526125e8565b920151906080818403910152612628565b6003111561125657565b906102609161272461271261270063ffffffff95868551168652602085015160208701526040850151908060408801528601906125e8565b606084015185820360608701526125e8565b608083015184820360808601526125e8565b9260018060a01b0360a08301511660a08401528060c08301511660c084015260e08201511660e0830152610100808201519083015261012080820151908301526101408082015190612775826126be565b8301526101608082015190612789826126be565b83015261018080820151906002821015611256578301526101a080820151908301526101c080820151908301526101e06001600160601b038183015116908301526102008082015190830152610220808201519083015261024080910151151591015290565b6001600160401b0381116106bd5760051b60200190565b9060405161281381612505565b60a08193600381549163ffffffff928381168652838160201c166020870152600180861b039060401c1660408601526001810154606086015260028101546080860152015416910152565b9190916001600160601b038080941691160291821691820361227857565b63ffffffff918216908216039190821161227857565b9081602091031261014f5751801515810361014f5790565b90600163ffffffff8093160191821161227857565b91909163ffffffff8080941691160191821161227857565b90600182811c92168015612907575b60208310146128f157565b634e487b7160e01b600052602260045260246000fd5b91607f16916128e6565b81811061291c575050565b60008155600101612911565b9190601f811161293757505050565b612963926000526020600020906020601f840160051c83019310612965575b601f0160051c0190612911565b565b9091508190612956565b90808214612a4e5761298181546128d7565b906001600160401b0382116106bd576129a48261299e85546128d7565b85612928565b600090601f83116001146129e3576129d49291600091836129d85750508160011b916000199060031b1c19161790565b9055565b015490503880611354565b815260208082208483528183209291601f1985169083905b828210612a35575050908460019594939210612a1c575b505050811b019055565b015460001960f88460031b161c19169055388080612a12565b84958192958501548155600180910196019401906129fb565b5050565b9190820180921161227857565b60405190612a6c82612520565b6060608083600081526000602082015282604082015282808201520152565b90604051918260008254612a9e816128d7565b90818452602094600191600181169081600014612b0c5750600114612acd575b50505061296392500383612557565b600090815285812095935091905b818310612af45750506129639350820101388080612abe565b85548884018501529485019487945091830191612adb565b9250505061296394925060ff191682840152151560051b820101388080612abe565b90604051918281549182825260209260208301916000526020600020936000905b828210612b655750505061296392500383612557565b85546001600160a01b031684526001958601958895509381019390910190612b4f565b90604051612b9581612520565b6080612bda6004839563ffffffff815416855260018101546020860152612bbe60028201612a8b565b6040860152612bcf60038201612a8b565b606086015201612b2e565b910152565b63ffffffff90612bee81612e20565b168060005260026020526040600020612c05612e73565b6009820154111580612c6e575b15612c2657600801805461ff001916905550565b600a8101544211612c35575050565b600801805461ff00191661010017905542907f835839f42ff642197e82f2887491db41a51c32dc7004091799724e9e3d6f2489600080a3565b50612c77612e73565b600a8201541015612c12565b90604051612c908161253b565b809263ffffffff80825416835260018201546020840152612cb360028301612a8b565b6040840152612cc460038301612a8b565b6060840152612cd560048301612a8b565b6080840152600582015460018060a01b03811660a0850152818160a01c1660c085015260c01c1660e08301526006810154610100830152600781015461012083015260ff6008820154818116612d2a816126be565b610140850152818160081c16612d3f816126be565b61016085015260101c1690600282101561125657600e60ff916102409361018086015260098101546101a0860152600a8101546101c08601526001600160601b03600b820154166101e0860152600c810154610200860152600d8101546102208601520154161515910152565b6001600160a01b03908116908115612e075760008051602061319f83398151915280546001600160a01b031981168417909155167f8be0079c531659141344cd1fd0a4f28419497f9722a3daafe3b4186f6b6457e0600080a3565b604051631e4fbdf760e01b815260006004820152602490fd5b63ffffffff8060005416911611612e3357565b6040516316a7994d60e21b8152600490fd5b600190511061206557565b60011161206557565b1015612e6157565b60405163489eca6760e01b8152600490fd5b6103e8804202904282048114421517156122785781018091116122785790565b63ffffffff82511663ffffffff1982541617815560019160208082015184840155600283019260408301519384516001600160401b03958682116106bd57612edf8261299e85546128d7565b8490601f831160011461305f57612f0e929160009183612fe65750508160011b916000199060031b1c19161790565b90555b6003810160608401518051908682116106bd57612f328261299e85546128d7565b8490601f8311600114612ff157826080959360049593612f6893600092612fe65750508160011b916000199060031b1c19161790565b90555b0192015180519384116106bd57600160401b84116106bd5781908354858555808610612fc9575b500191600052806000209060005b848110612faf57505050505050565b83516001600160a01b031683820155928101928501612fa0565b612fe0908560005286846000209182019101612911565b38612f92565b015190503880611354565b889291601f1983169185600052876000209260005b898282106130495750509160809795939185600498969410613030575b505050811b019055612f6b565b015160001960f88460031b161c19169055388080613023565b8385015186558d97909501949384019301613006565b889291601f1983169185600052876000209260005b898282106130ab5750508411613092575b505050811b019055612f11565b015160001960f88460031b161c19169055388080613085565b8385015186558d97909501949384019301613074565b60008051602061319f833981519152546001600160a01b031633036130e257565b60405163118cdaa760e01b8152336004820152602490fd5b60ff7ff0c57e16840df040f15088dc2f81fe391c3923bec73e23a9662efc9c229c6a005460401c161561312957565b604051631afcd79f60e31b8152600490fd5b90613162575080511561315057805190602001fd5b604051630a12f52160e11b8152600490fd5b81511580613195575b613173575090565b604051639996b31560e01b81526001600160a01b039091166004820152602490fd5b50803b1561316b56fe9016d09d72d40fdae2fd8ceac6b6234c7706214fd39c1cd1e609a0528c199300f652222313e28459528d920b65115c16c04f3efc82aaedc97be59f3f377c0d3ff652222313e28459528d920b65115c16c04f3efc82aaedc97be59f3f377c0d47a2646970667358221220b97554f4e360970d838f2adf2f61cddf4df632555536bedcde92248e45a67a6264736f6c63430008180033",
    "linkReferences": {}
  },
  "methodIdentifiers": {
    "UPGRADE_INTERFACE_VERSION()": "ad3cb1cc",
    "checkContractBalance()": "50312c9e",
    "checkUserBalance(address)": "0a9bfef5",
    "createAccount(string,address,string)": "331ef976",
    "createEvent(bytes32,string,string,string,uint32,uint256,uint256,uint256,uint256,uint96)": "301a9bb8",
    "getAllEventGroups()": "909fdec9",
    "getAllEvents()": "c27a500d",
    "getAllTickets()": "03e96fe3",
    "getEvent(uint32)": "d88c8e98",
    "getEventGroup(uint32)": "3809f6f5",
    "getGroupMembers(uint32)": "ec976a0a",
    "getTicket(address)": "4717dea9",
    "getUser(address)": "6f77926b",
    "initialize(address)": "c4d66de8",
    "isRegistered(address)": "c3c5a547",
    "owner()": "8da5cb5b",
    "proxiableUUID()": "52d1902d",
    "purchaseTicket(uint32,uint32)": "3405741d",
    "refundFee(uint32,uint32)": "0f9fcf48",
    "renounceOwnership()": "715018a6",
    "transferOwnership(address)": "f2fde38b",
    "updateEventStatus(uint32)": "a87f86f9",
    "upgradeToAndCall(address,bytes)": "4f1ef286",
    "withdrawEventFee(uint32)": "b33f650e"
  },
  "id": 36
}