{
  "abi": [
    {
      "type": "function",
      "name": "UPGRADE_INTERFACE_VERSION",
      "inputs": [],
      "outputs": [
        {
          "name": "",
          "type": "string",
          "internalType": "string"
        }
      ],
      "stateMutability": "view"
    },
    {
      "type": "function",
      "name": "checkContractBalance",
      "inputs": [],
      "outputs": [
        {
          "name": "bal_",
          "type": "uint256",
          "internalType": "uint256"
        }
      ],
      "stateMutability": "view"
    },
    {
      "type": "function",
      "name": "checkUserBalance",
      "inputs": [
        {
          "name": "_addr",
          "type": "address",
          "internalType": "address"
        }
      ],
      "outputs": [
        {
          "name": "bal_",
          "type": "uint256",
          "internalType": "uint256"
        }
      ],
      "stateMutability": "view"
    },
    {
      "type": "function",
      "name": "createAccount",
      "inputs": [
        {
          "name": "_email",
          "type": "string",
          "internalType": "string"
        },
        {
          "name": "_addr",
          "type": "address",
          "internalType": "address"
        },
        {
          "name": "_avatar",
          "type": "string",
          "internalType": "string"
        }
      ],
      "outputs": [],
      "stateMutability": "nonpayable"
    },
    {
      "type": "function",
      "name": "createEvent",
      "inputs": [
        {
          "name": "_title",
          "type": "bytes32",
          "internalType": "bytes32"
        },
        {
          "name": "_imageUrl",
          "type": "string",
          "internalType": "string"
        },
        {
          "name": "_description",
          "type": "string",
          "internalType": "string"
        },
        {
          "name": "_location",
          "type": "string",
          "internalType": "string"
        },
        {
          "name": "_capacity",
          "type": "uint32",
          "internalType": "uint32"
        },
        {
          "name": "_regStartTime",
          "type": "uint256",
          "internalType": "uint256"
        },
        {
          "name": "_regEndTime",
          "type": "uint256",
          "internalType": "uint256"
        },
        {
          "name": "_eventStartTime",
          "type": "uint256",
          "internalType": "uint256"
        },
        {
          "name": "_eventEndTime",
          "type": "uint256",
          "internalType": "uint256"
        },
        {
          "name": "_ticketPrice",
          "type": "uint96",
          "internalType": "uint96"
        },
        {
          "name": "_isEventPaid",
          "type": "bool",
          "internalType": "bool"
        }
      ],
      "outputs": [],
      "stateMutability": "nonpayable"
    },
    {
      "type": "function",
      "name": "getAllEventGroups",
      "inputs": [],
      "outputs": [
        {
          "name": "group_",
          "type": "tuple[]",
          "internalType": "struct BlumaProtocol.EventGroup[]",
          "components": [
            {
              "name": "eventId",
              "type": "uint32",
              "internalType": "uint32"
            },
            {
              "name": "title",
              "type": "bytes32",
              "internalType": "bytes32"
            },
            {
              "name": "imageUrl",
              "type": "string",
              "internalType": "string"
            },
            {
              "name": "description",
              "type": "string",
              "internalType": "string"
            },
            {
              "name": "members",
              "type": "tuple[]",
              "internalType": "struct BlumaProtocol.Member[]",
              "components": [
                {
                  "name": "user",
                  "type": "address",
                  "internalType": "address"
                },
                {
                  "name": "joinTime",
                  "type": "uint256",
                  "internalType": "uint256"
                }
              ]
            },
            {
              "name": "messages",
              "type": "tuple[]",
              "internalType": "struct BlumaProtocol.Message[]",
              "components": [
                {
                  "name": "sender",
                  "type": "address",
                  "internalType": "address"
                },
                {
                  "name": "email",
                  "type": "string",
                  "internalType": "string"
                },
                {
                  "name": "text",
                  "type": "string",
                  "internalType": "string"
                },
                {
                  "name": "timestamp",
                  "type": "uint256",
                  "internalType": "uint256"
                }
              ]
            }
          ]
        }
      ],
      "stateMutability": "view"
    },
    {
      "type": "function",
      "name": "getAllEvents",
      "inputs": [],
      "outputs": [
        {
          "name": "",
          "type": "tuple[]",
          "internalType": "struct BlumaProtocol.Event[]",
          "components": [
            {
              "name": "eventId",
              "type": "uint32",
              "internalType": "uint32"
            },
            {
              "name": "title",
              "type": "bytes32",
              "internalType": "bytes32"
            },
            {
              "name": "imageUrl",
              "type": "string",
              "internalType": "string"
            },
            {
              "name": "location",
              "type": "string",
              "internalType": "string"
            },
            {
              "name": "description",
              "type": "string",
              "internalType": "string"
            },
            {
              "name": "creator",
              "type": "address",
              "internalType": "address"
            },
            {
              "name": "seats",
              "type": "uint32",
              "internalType": "uint32"
            },
            {
              "name": "capacity",
              "type": "uint32",
              "internalType": "uint32"
            },
            {
              "name": "regStartTime",
              "type": "uint256",
              "internalType": "uint256"
            },
            {
              "name": "regEndTime",
              "type": "uint256",
              "internalType": "uint256"
            },
            {
              "name": "regStatus",
              "type": "uint8",
              "internalType": "enum BlumaProtocol.RegStatus"
            },
            {
              "name": "eventStatus",
              "type": "uint8",
              "internalType": "enum BlumaProtocol.EventStatus"
            },
            {
              "name": "eventType",
              "type": "uint8",
              "internalType": "enum BlumaProtocol.EventType"
            },
            {
              "name": "eventStartTime",
              "type": "uint256",
              "internalType": "uint256"
            },
            {
              "name": "eventEndTime",
              "type": "uint256",
              "internalType": "uint256"
            },
            {
              "name": "ticketPrice",
              "type": "uint96",
              "internalType": "uint96"
            },
            {
              "name": "totalSales",
              "type": "uint256",
              "internalType": "uint256"
            },
            {
              "name": "createdAt",
              "type": "uint256",
              "internalType": "uint256"
            },
            {
              "name": "isCreatorPaid",
              "type": "bool",
              "internalType": "bool"
            }
          ]
        }
      ],
      "stateMutability": "view"
    },
    {
      "type": "function",
      "name": "getAllGroupMessages",
      "inputs": [
        {
          "name": "_groupId",
          "type": "uint32",
          "internalType": "uint32"
        }
      ],
      "outputs": [
        {
          "name": "",
          "type": "tuple[]",
          "internalType": "struct BlumaProtocol.Message[]",
          "components": [
            {
              "name": "sender",
              "type": "address",
              "internalType": "address"
            },
            {
              "name": "email",
              "type": "string",
              "internalType": "string"
            },
            {
              "name": "text",
              "type": "string",
              "internalType": "string"
            },
            {
              "name": "timestamp",
              "type": "uint256",
              "internalType": "uint256"
            }
          ]
        }
      ],
      "stateMutability": "view"
    },
    {
      "type": "function",
      "name": "getAllTickets",
      "inputs": [],
      "outputs": [
        {
          "name": "_tickets",
          "type": "tuple[]",
          "internalType": "struct BlumaProtocol.Ticket[]",
          "components": [
            {
              "name": "ticketId",
              "type": "uint32",
              "internalType": "uint32"
            },
            {
              "name": "eventId",
              "type": "uint32",
              "internalType": "uint32"
            },
            {
              "name": "owner",
              "type": "address",
              "internalType": "address"
            },
            {
              "name": "ticketCost",
              "type": "uint256",
              "internalType": "uint256"
            },
            {
              "name": "purchaseTime",
              "type": "uint256",
              "internalType": "uint256"
            },
            {
              "name": "numberOfTicket",
              "type": "uint32",
              "internalType": "uint32"
            }
          ]
        }
      ],
      "stateMutability": "view"
    },
    {
      "type": "function",
      "name": "getAllUser",
      "inputs": [],
      "outputs": [
        {
          "name": "",
          "type": "tuple[]",
          "internalType": "struct BlumaProtocol.User[]",
          "components": [
            {
              "name": "email",
              "type": "string",
              "internalType": "string"
            },
            {
              "name": "userAddr",
              "type": "address",
              "internalType": "address"
            },
            {
              "name": "isRegistered",
              "type": "bool",
              "internalType": "bool"
            },
            {
              "name": "avatar",
              "type": "string",
              "internalType": "string"
            },
            {
              "name": "balance",
              "type": "uint256",
              "internalType": "uint256"
            }
          ]
        }
      ],
      "stateMutability": "view"
    },
    {
      "type": "function",
      "name": "getEventById",
      "inputs": [
        {
          "name": "_eventId",
          "type": "uint32",
          "internalType": "uint32"
        }
      ],
      "outputs": [
        {
          "name": "events_",
          "type": "tuple",
          "internalType": "struct BlumaProtocol.Event",
          "components": [
            {
              "name": "eventId",
              "type": "uint32",
              "internalType": "uint32"
            },
            {
              "name": "title",
              "type": "bytes32",
              "internalType": "bytes32"
            },
            {
              "name": "imageUrl",
              "type": "string",
              "internalType": "string"
            },
            {
              "name": "location",
              "type": "string",
              "internalType": "string"
            },
            {
              "name": "description",
              "type": "string",
              "internalType": "string"
            },
            {
              "name": "creator",
              "type": "address",
              "internalType": "address"
            },
            {
              "name": "seats",
              "type": "uint32",
              "internalType": "uint32"
            },
            {
              "name": "capacity",
              "type": "uint32",
              "internalType": "uint32"
            },
            {
              "name": "regStartTime",
              "type": "uint256",
              "internalType": "uint256"
            },
            {
              "name": "regEndTime",
              "type": "uint256",
              "internalType": "uint256"
            },
            {
              "name": "regStatus",
              "type": "uint8",
              "internalType": "enum BlumaProtocol.RegStatus"
            },
            {
              "name": "eventStatus",
              "type": "uint8",
              "internalType": "enum BlumaProtocol.EventStatus"
            },
            {
              "name": "eventType",
              "type": "uint8",
              "internalType": "enum BlumaProtocol.EventType"
            },
            {
              "name": "eventStartTime",
              "type": "uint256",
              "internalType": "uint256"
            },
            {
              "name": "eventEndTime",
              "type": "uint256",
              "internalType": "uint256"
            },
            {
              "name": "ticketPrice",
              "type": "uint96",
              "internalType": "uint96"
            },
            {
              "name": "totalSales",
              "type": "uint256",
              "internalType": "uint256"
            },
            {
              "name": "createdAt",
              "type": "uint256",
              "internalType": "uint256"
            },
            {
              "name": "isCreatorPaid",
              "type": "bool",
              "internalType": "bool"
            }
          ]
        }
      ],
      "stateMutability": "view"
    },
    {
      "type": "function",
      "name": "getEventGroup",
      "inputs": [
        {
          "name": "_groupId",
          "type": "uint32",
          "internalType": "uint32"
        }
      ],
      "outputs": [
        {
          "name": "group_",
          "type": "tuple",
          "internalType": "struct BlumaProtocol.EventGroup",
          "components": [
            {
              "name": "eventId",
              "type": "uint32",
              "internalType": "uint32"
            },
            {
              "name": "title",
              "type": "bytes32",
              "internalType": "bytes32"
            },
            {
              "name": "imageUrl",
              "type": "string",
              "internalType": "string"
            },
            {
              "name": "description",
              "type": "string",
              "internalType": "string"
            },
            {
              "name": "members",
              "type": "tuple[]",
              "internalType": "struct BlumaProtocol.Member[]",
              "components": [
                {
                  "name": "user",
                  "type": "address",
                  "internalType": "address"
                },
                {
                  "name": "joinTime",
                  "type": "uint256",
                  "internalType": "uint256"
                }
              ]
            },
            {
              "name": "messages",
              "type": "tuple[]",
              "internalType": "struct BlumaProtocol.Message[]",
              "components": [
                {
                  "name": "sender",
                  "type": "address",
                  "internalType": "address"
                },
                {
                  "name": "email",
                  "type": "string",
                  "internalType": "string"
                },
                {
                  "name": "text",
                  "type": "string",
                  "internalType": "string"
                },
                {
                  "name": "timestamp",
                  "type": "uint256",
                  "internalType": "uint256"
                }
              ]
            }
          ]
        }
      ],
      "stateMutability": "view"
    },
    {
      "type": "function",
      "name": "getGroupMember",
      "inputs": [
        {
          "name": "_groupId",
          "type": "uint32",
          "internalType": "uint32"
        },
        {
          "name": "_index",
          "type": "uint256",
          "internalType": "uint256"
        }
      ],
      "outputs": [
        {
          "name": "",
          "type": "tuple",
          "internalType": "struct BlumaProtocol.Member",
          "components": [
            {
              "name": "user",
              "type": "address",
              "internalType": "address"
            },
            {
              "name": "joinTime",
              "type": "uint256",
              "internalType": "uint256"
            }
          ]
        }
      ],
      "stateMutability": "view"
    },
    {
      "type": "function",
      "name": "getGroupMembers",
      "inputs": [
        {
          "name": "_eventId",
          "type": "uint32",
          "internalType": "uint32"
        }
      ],
      "outputs": [
        {
          "name": "_members",
          "type": "tuple[]",
          "internalType": "struct BlumaProtocol.Member[]",
          "components": [
            {
              "name": "user",
              "type": "address",
              "internalType": "address"
            },
            {
              "name": "joinTime",
              "type": "uint256",
              "internalType": "uint256"
            }
          ]
        }
      ],
      "stateMutability": "view"
    },
    {
      "type": "function",
      "name": "getTicket",
      "inputs": [
        {
          "name": "_addr",
          "type": "address",
          "internalType": "address"
        }
      ],
      "outputs": [
        {
          "name": "_ticket",
          "type": "tuple",
          "internalType": "struct BlumaProtocol.Ticket",
          "components": [
            {
              "name": "ticketId",
              "type": "uint32",
              "internalType": "uint32"
            },
            {
              "name": "eventId",
              "type": "uint32",
              "internalType": "uint32"
            },
            {
              "name": "owner",
              "type": "address",
              "internalType": "address"
            },
            {
              "name": "ticketCost",
              "type": "uint256",
              "internalType": "uint256"
            },
            {
              "name": "purchaseTime",
              "type": "uint256",
              "internalType": "uint256"
            },
            {
              "name": "numberOfTicket",
              "type": "uint32",
              "internalType": "uint32"
            }
          ]
        }
      ],
      "stateMutability": "view"
    },
    {
      "type": "function",
      "name": "getUser",
      "inputs": [
        {
          "name": "_addr",
          "type": "address",
          "internalType": "address"
        }
      ],
      "outputs": [
        {
          "name": "_user",
          "type": "tuple",
          "internalType": "struct BlumaProtocol.User",
          "components": [
            {
              "name": "email",
              "type": "string",
              "internalType": "string"
            },
            {
              "name": "userAddr",
              "type": "address",
              "internalType": "address"
            },
            {
              "name": "isRegistered",
              "type": "bool",
              "internalType": "bool"
            },
            {
              "name": "avatar",
              "type": "string",
              "internalType": "string"
            },
            {
              "name": "balance",
              "type": "uint256",
              "internalType": "uint256"
            }
          ]
        }
      ],
      "stateMutability": "view"
    },
    {
      "type": "function",
      "name": "groupChat",
      "inputs": [
        {
          "name": "_groupId",
          "type": "uint32",
          "internalType": "uint32"
        },
        {
          "name": "_text",
          "type": "string",
          "internalType": "string"
        }
      ],
      "outputs": [],
      "stateMutability": "nonpayable"
    },
    {
      "type": "function",
      "name": "initialize",
      "inputs": [
        {
          "name": "initialOwner",
          "type": "address",
          "internalType": "address"
        }
      ],
      "outputs": [],
      "stateMutability": "nonpayable"
    },
    {
      "type": "function",
      "name": "isRegistered",
      "inputs": [
        {
          "name": "_addr",
          "type": "address",
          "internalType": "address"
        }
      ],
      "outputs": [
        {
          "name": "",
          "type": "bool",
          "internalType": "bool"
        }
      ],
      "stateMutability": "view"
    },
    {
      "type": "function",
      "name": "joinGroup",
      "inputs": [
        {
          "name": "_eventId",
          "type": "uint32",
          "internalType": "uint32"
        }
      ],
      "outputs": [],
      "stateMutability": "nonpayable"
    },
    {
      "type": "function",
      "name": "owner",
      "inputs": [],
      "outputs": [
        {
          "name": "",
          "type": "address",
          "internalType": "address"
        }
      ],
      "stateMutability": "view"
    },
    {
      "type": "function",
      "name": "proxiableUUID",
      "inputs": [],
      "outputs": [
        {
          "name": "",
          "type": "bytes32",
          "internalType": "bytes32"
        }
      ],
      "stateMutability": "view"
    },
    {
      "type": "function",
      "name": "purchaseTicket",
      "inputs": [
        {
          "name": "_eventId",
          "type": "uint32",
          "internalType": "uint32"
        },
        {
          "name": "_numberOfTickets",
          "type": "uint32",
          "internalType": "uint32"
        }
      ],
      "outputs": [],
      "stateMutability": "nonpayable"
    },
    {
      "type": "function",
      "name": "refundFee",
      "inputs": [
        {
          "name": "_eventId",
          "type": "uint32",
          "internalType": "uint32"
        },
        {
          "name": "_numberOfTickets",
          "type": "uint32",
          "internalType": "uint32"
        }
      ],
      "outputs": [],
      "stateMutability": "nonpayable"
    },
    {
      "type": "function",
      "name": "renounceOwnership",
      "inputs": [],
      "outputs": [],
      "stateMutability": "nonpayable"
    },
    {
      "type": "function",
      "name": "transferOwnership",
      "inputs": [
        {
          "name": "newOwner",
          "type": "address",
          "internalType": "address"
        }
      ],
      "outputs": [],
      "stateMutability": "nonpayable"
    },
    {
      "type": "function",
      "name": "updateEventStatus",
      "inputs": [
        {
          "name": "_eventId",
          "type": "uint32",
          "internalType": "uint32"
        }
      ],
      "outputs": [],
      "stateMutability": "nonpayable"
    },
    {
      "type": "function",
      "name": "upgradeToAndCall",
      "inputs": [
        {
          "name": "newImplementation",
          "type": "address",
          "internalType": "address"
        },
        {
          "name": "data",
          "type": "bytes",
          "internalType": "bytes"
        }
      ],
      "outputs": [],
      "stateMutability": "payable"
    },
    {
      "type": "function",
      "name": "withdrawEventFee",
      "inputs": [
        {
          "name": "_eventId",
          "type": "uint32",
          "internalType": "uint32"
        }
      ],
      "outputs": [],
      "stateMutability": "nonpayable"
    },
    {
      "type": "event",
      "name": "EventClosed",
      "inputs": [
        {
          "name": "_eventId",
          "type": "uint32",
          "indexed": true,
          "internalType": "uint32"
        },
        {
          "name": "_currentTime",
          "type": "uint256",
          "indexed": true,
          "internalType": "uint256"
        }
      ],
      "anonymous": false
    },
    {
      "type": "event",
      "name": "EventCreated",
      "inputs": [
        {
          "name": "_totalEventsId",
          "type": "uint32",
          "indexed": true,
          "internalType": "uint32"
        },
        {
          "name": "_seatNumber",
          "type": "uint32",
          "indexed": true,
          "internalType": "uint32"
        },
        {
          "name": "_capacity",
          "type": "uint32",
          "indexed": true,
          "internalType": "uint32"
        }
      ],
      "anonymous": false
    },
    {
      "type": "event",
      "name": "GroupCreated",
      "inputs": [
        {
          "name": "_roomId",
          "type": "uint32",
          "indexed": true,
          "internalType": "uint32"
        },
        {
          "name": "imageUrl",
          "type": "string",
          "indexed": false,
          "internalType": "string"
        },
        {
          "name": "_title",
          "type": "bytes32",
          "indexed": false,
          "internalType": "bytes32"
        }
      ],
      "anonymous": false
    },
    {
      "type": "event",
      "name": "GroupJoinedSuccessfully",
      "inputs": [
        {
          "name": "_sender",
          "type": "address",
          "indexed": true,
          "internalType": "address"
        },
        {
          "name": "_eventId",
          "type": "uint32",
          "indexed": true,
          "internalType": "uint32"
        },
        {
          "name": "_joinedTimw",
          "type": "uint256",
          "indexed": true,
          "internalType": "uint256"
        }
      ],
      "anonymous": false
    },
    {
      "type": "event",
      "name": "Initialized",
      "inputs": [
        {
          "name": "version",
          "type": "uint64",
          "indexed": false,
          "internalType": "uint64"
        }
      ],
      "anonymous": false
    },
    {
      "type": "event",
      "name": "MessageSent",
      "inputs": [
        {
          "name": "sender",
          "type": "address",
          "indexed": true,
          "internalType": "address"
        },
        {
          "name": "groupId",
          "type": "uint32",
          "indexed": true,
          "internalType": "uint32"
        },
        {
          "name": "text",
          "type": "string",
          "indexed": false,
          "internalType": "string"
        },
        {
          "name": "timestamp",
          "type": "uint256",
          "indexed": false,
          "internalType": "uint256"
        }
      ],
      "anonymous": false
    },
    {
      "type": "event",
      "name": "OwnershipTransferred",
      "inputs": [
        {
          "name": "previousOwner",
          "type": "address",
          "indexed": true,
          "internalType": "address"
        },
        {
          "name": "newOwner",
          "type": "address",
          "indexed": true,
          "internalType": "address"
        }
      ],
      "anonymous": false
    },
    {
      "type": "event",
      "name": "RefundIssued",
      "inputs": [
        {
          "name": "buyer",
          "type": "address",
          "indexed": true,
          "internalType": "address"
        },
        {
          "name": "_ticketId",
          "type": "uint32",
          "indexed": true,
          "internalType": "uint32"
        },
        {
          "name": "_eventId",
          "type": "uint32",
          "indexed": true,
          "internalType": "uint32"
        },
        {
          "name": "amount",
          "type": "uint256",
          "indexed": false,
          "internalType": "uint256"
        }
      ],
      "anonymous": false
    },
    {
      "type": "event",
      "name": "RegistrationClose",
      "inputs": [
        {
          "name": "_currentTime",
          "type": "uint256",
          "indexed": true,
          "internalType": "uint256"
        },
        {
          "name": "_status",
          "type": "uint8",
          "indexed": true,
          "internalType": "uint8"
        }
      ],
      "anonymous": false
    },
    {
      "type": "event",
      "name": "TicketPurchased",
      "inputs": [
        {
          "name": "buyer",
          "type": "address",
          "indexed": true,
          "internalType": "address"
        },
        {
          "name": "_eventId",
          "type": "uint32",
          "indexed": true,
          "internalType": "uint32"
        },
        {
          "name": "numberOfTickets",
          "type": "uint32",
          "indexed": false,
          "internalType": "uint32"
        }
      ],
      "anonymous": false
    },
    {
      "type": "event",
      "name": "Upgraded",
      "inputs": [
        {
          "name": "implementation",
          "type": "address",
          "indexed": true,
          "internalType": "address"
        }
      ],
      "anonymous": false
    },
    {
      "type": "error",
      "name": "ALREADY_A_MEMBER",
      "inputs": []
    },
    {
      "type": "error",
      "name": "ALREADY_PAID",
      "inputs": []
    },
    {
      "type": "error",
      "name": "AddressEmptyCode",
      "inputs": [
        {
          "name": "target",
          "type": "address",
          "internalType": "address"
        }
      ]
    },
    {
      "type": "error",
      "name": "EMPTY_INPUT_FIELD",
      "inputs": []
    },
    {
      "type": "error",
      "name": "ERC1967InvalidImplementation",
      "inputs": [
        {
          "name": "implementation",
          "type": "address",
          "internalType": "address"
        }
      ]
    },
    {
      "type": "error",
      "name": "ERC1967NonPayable",
      "inputs": []
    },
    {
      "type": "error",
      "name": "EVENT_NOT_CLOSED",
      "inputs": []
    },
    {
      "type": "error",
      "name": "FailedInnerCall",
      "inputs": []
    },
    {
      "type": "error",
      "name": "GROUP_ALREADY_EXISTS",
      "inputs": []
    },
    {
      "type": "error",
      "name": "INSUFFICIENT_BALANCE",
      "inputs": []
    },
    {
      "type": "error",
      "name": "INSUFFICIENT_TICKET_PURCHASED",
      "inputs": []
    },
    {
      "type": "error",
      "name": "INVALID_EVENT_ID",
      "inputs": []
    },
    {
      "type": "error",
      "name": "INVALID_ID",
      "inputs": []
    },
    {
      "type": "error",
      "name": "INVALID_NOT_AUTHORIZED",
      "inputs": []
    },
    {
      "type": "error",
      "name": "INVALID_TIME_SET",
      "inputs": []
    },
    {
      "type": "error",
      "name": "InvalidInitialization",
      "inputs": []
    },
    {
      "type": "error",
      "name": "NOT_CREATOR",
      "inputs": []
    },
    {
      "type": "error",
      "name": "NOT_ENOUGH_AVAILABLE_SEAT",
      "inputs": []
    },
    {
      "type": "error",
      "name": "NOT_OWNER",
      "inputs": []
    },
    {
      "type": "error",
      "name": "NOT_PAID_EVENT",
      "inputs": []
    },
    {
      "type": "error",
      "name": "NO_ALLOWANCE",
      "inputs": []
    },
    {
      "type": "error",
      "name": "NotInitializing",
      "inputs": []
    },
    {
      "type": "error",
      "name": "OwnableInvalidOwner",
      "inputs": [
        {
          "name": "owner",
          "type": "address",
          "internalType": "address"
        }
      ]
    },
    {
      "type": "error",
      "name": "OwnableUnauthorizedAccount",
      "inputs": [
        {
          "name": "account",
          "type": "address",
          "internalType": "address"
        }
      ]
    },
    {
      "type": "error",
      "name": "REGISTRATION_CLOSE",
      "inputs": []
    },
    {
      "type": "error",
      "name": "REGISTRATION_NOT_OPEN",
      "inputs": []
    },
    {
      "type": "error",
      "name": "USER_NOT_REGISTERED",
      "inputs": []
    },
    {
      "type": "error",
      "name": "UUPSUnauthorizedCallContext",
      "inputs": []
    },
    {
      "type": "error",
      "name": "UUPSUnsupportedProxiableUUID",
      "inputs": [
        {
          "name": "slot",
          "type": "bytes32",
          "internalType": "bytes32"
        }
      ]
    }
  ],
  "bytecode": {
    "object": "0x60a0806040523461002a5730608052613af2908161003082396080518181816118c50152611a070152f35b600080fdfe6080604052600436101561001257600080fd5b60e060003560e01c90816303e96fe3146129be5781630a9bfef5146129815781630f9fcf48146126a25781631755b97a146125c9578163331ef976146122985781633405741d14611dbb5781633809f6f514611d425781634717dea914611cd057816347531df814611be65781634f1ef286146119b857816350312c9e1461192f57816352d1902d146118b25781636f77926b1461183d578163715018a6146117d357816385a646c9146117315781638da5cb5b146116fb578163909fdec914611611578163a87f86f9146115f0578163ad3cb1cc146115aa578163b33f650e14611446578163be7fb5d7146110bc578163c27a500d14610e4c57508063c3c5a54714610e07578063c4d66de814610cae578063cd71ed3514610b01578063dbc96e99146102c0578063ec976a0a14610265578063eec932f71461018f5763f2fde38b1461015f57600080fd5b3461018a57602036600319011261018a5761018861017b612ad5565b610183613761565b6136af565b005b600080fd5b3461018a57602036600319011261018a5763ffffffff6101ad612aeb565b6101b681613723565b168060005260046020526040600020600460009101908154905b81811061023057836101ff846101e4613741565b90604051916101f283612b87565b338352602083015261364b565b610207613741565b90337ff11404c60069f7d8b6ecebb855f6ac5080f851b85152f4cb855640c49a30c2dd600080a4005b61023a8184613477565b50546001600160a01b03163314610253576001016101d0565b60405163cea6102760e01b8152600490fd5b3461018a57602036600319011261018a5763ffffffff610283612aeb565b61028c81613723565b1660005260046020526102bc6102a86004604060002001613340565b604051918291602083526020830190612c6a565b0390f35b3461018a5761016036600319011261018a576024356001600160401b03811161018a576102f1903690600401612e16565b906044356001600160401b03811161018a57610311903690600401612e16565b6064356001600160401b03811161018a57610330903690600401612e16565b92909463ffffffff608435166084350361018a5761012435946001600160601b038616860361018a576101443595861515870361018a5733600052600160205260ff60016040600020015460a01c1615610aef57610397610392368787612c15565b613736565b6103a5610392368585612c15565b6103b361039236888b612c15565b6103be60a43561379a565b6103c960c43561379a565b6103d460e43561379a565b6103e06101043561379a565b6103f26001600160601b03821661379a565b600163ffffffff6084351610610add576104116101043560e4356137a3565b61041f60c43560a4356137a3565b60005463ffffffff6104328183166132df565b16809163ffffffff1916176000556000526002602052600160406000209760a43561045b613741565b1015610acc5760088901805460ff191660021790555b151503610a9c576008870162ff00001981541690556001600160601b03600b880191166001600160601b03198254161790555b63ffffffff6000541663ffffffff1987541617865560043560018701556001600160401b038211610902576104e9826104e0600289015461302f565b600289016131bb565b600090601f8311600114610a2b5761051a929160009183610a20575b50508160011b916000199060031b1c19161790565b60028501555b6001600160401b038211610902576105488261053f600487015461302f565b600487016131bb565b600090601f83116001146109af576105789291600091836109a45750508160011b916000199060031b1c19161790565b60048301555b6005820180546001600160a01b031916331790556001600160401b038111610902576105ba816105b1600385015461302f565b600385016131bb565b600092601f8211600114610935576105eb9293829160009261092a5750508160011b916000199060031b1c19161790565b60038201555b60058101805463ffffffff60c01b191660843560c01b63ffffffff60c01b1617905560a435600682015560c435600782015560e435600982015561010435600a82015560088101805461ff00191661020017905561064d613741565b600d82015563ffffffff81541661066381613723565b80600052600460205263ffffffff60406000205416610918578060005260026020526040600020600460205260406000208263ffffffff19825416178155600182015460018201556106bb6002830160028301613202565b60038101916106cd6004820184613202565b6005810154600483019390610707906001600160a01b03166106ed613741565b604051916106fa83612b87565b825260208201528561364b565b60075492600160401b8410156109025760018401806007558410156108ec577f45881a834c1c2b1081ee9f2063da43f83e3d9f2ba737ca954a4098d94bce97d59460066107a29560076000520291827fa66cc928b5edb82af9bd49922954155ab7b0942694bea4ce44661d9a8736c68801908082036107ef575b50505050506001810154604051928392604084526002604085019101613069565b9060208301520390a263ffffffff6000541663ffffffff6005816084351693015460a01c16907fac3c2fbb08f906d92c1b4be6fa025f63708bafa70869110e931d718b9532c411600080a4005b6108da7fa66cc928b5edb82af9bd49922954155ab7b0942694bea4ce44661d9a8736c68d936108b26108e29760059563ffffffff86541663ffffffff1982541617905560018501547fa66cc928b5edb82af9bd49922954155ab7b0942694bea4ce44661d9a8736c68989015561088a600286017fa66cc928b5edb82af9bd49922954155ab7b0942694bea4ce44661d9a8736c68a8a01613202565b7fa66cc928b5edb82af9bd49922954155ab7b0942694bea4ce44661d9a8736c68b8801613202565b7fa66cc928b5edb82af9bd49922954155ab7b0942694bea4ce44661d9a8736c68c86016137bd565b0191016138e3565b8580808080610781565b634e487b7160e01b600052603260045260246000fd5b634e487b7160e01b600052604160045260246000fd5b60405163e955b73b60e01b8152600490fd5b013590508480610505565b600383016000526020600020906000945b601f198416861061098c57600194955083601f19811610610972575b505050811b0160038201556105f1565b0135600019600384901b60f8161c19169055838080610962565b91602060018192858501358155019301950194610946565b013590508680610505565b600485939293016000526020600020906000935b601f1984168510610a08576001945083601f198116106109ee575b505050811b01600483015561057e565b0135600019600384901b60f8161c191690558580806109de565b818101358355602094850194600190930192016109c3565b013590508880610505565b600287939293016000526020600020906000935b601f1984168510610a84576001945083601f19811610610a6a575b505050811b016002850155610520565b0135600019600384901b60f8161c19169055878080610a5a565b81810135835560209485019460019093019201610a3f565b50600b860180546bffffffffffffffffffffffff1916905560088601805462ff00001916620100001790556104a4565b60088901805460ff19169055610471565b604051631ee8943b60e21b8152600490fd5b604051633069384b60e21b8152600490fd5b3461018a57602036600319011261018a57610b1a612aeb565b610b22613545565b50610b2c81613723565b63ffffffff809116600052600260205260406000209060405190610b4f82612bbd565b80835416825260018301546020830152604051610b7a81610b738160028801613069565b0382612bd9565b6040830152604051610b9381610b738160038801613069565b6060830152604051610bac81610b738160048801613069565b6080830152600583015460018060a01b03811660a0840152818160a01c1660c084015260c01c1660e08201526006820154610100820152600782015461012082015260ff6008830154818116610c0181612e43565b610140840152818160081c16610c1681612e43565b61016084015260101c16916002831015610c9857600e60ff916102bc9461018085015260098101546101a0850152600a8101546101c08501526001600160601b03600b820154166101e0850152600c810154610200850152600d8101546102208501520154161515610240820152604051918291602083526020830190612e4d565b634e487b7160e01b600052602160045260246000fd5b3461018a57602036600319011261018a57610cc7612ad5565b7ff0c57e16840df040f15088dc2f81fe391c3923bec73e23a9662efc9c229c6a0090815460ff8160401c1615916001600160401b03821680159081610dff575b6001149081610df5575b159081610dec575b50610dda5767ffffffffffffffff1982166001178455610d4a9183610dbb575b50610d426139f8565b6101836139f8565b610d526139f8565b600a80546001600160a01b031916734cb6cef87d8cadf966b455e8bd58fff32aba49d1179055610d7e57005b68ff00000000000000001981541690557fc7f505b2f371ae2175ee4913f4499e1f2633a7b5936321eed1cdaeb6115181d2602060405160018152a1005b68ffffffffffffffffff19166801000000000000000117845584610d39565b60405163f92ee8a960e01b8152600490fd5b90501585610d19565b303b159150610d11565b849150610d07565b3461018a57602036600319011261018a576001600160a01b03610e28612ad5565b166000526001602052602060ff60016040600020015460a01c166040519015158152f35b3461018a57600036600319011261018a5763ffffffff90816000541690610e72826135d2565b9060009060015b8581168581116110145760005260026020908082526040600020888154169283610eb0575b50505050610eab90613622565b610e79565b60405194969293610ec086612bbd565b8552600182015490850152604051610ede81610b7381878601613069565b6040850152604051610ef781610b738160038601613069565b6060850152604051610f1081610b738160048601613069565b608085015288600582015460a060018060a01b03821681880152828260c0921c16818801521c16858501526006810154610100850152600781015461012085015260089384820154948560ff8181989382809516610f6d81612e43565b6101408701521c16610f7e81612e43565b61016084015260101c1693841015610c9857610eab94600e6110049361100a9661018085015260098101546101a0850152600a8101546101c08501526001600160601b03600b820154166101e0850152600c810154610200850152600d810154610220850152015416151561024082015289831690610ffd828a613637565b5287613637565b50613622565b9290878080610e9e565b8387168786611022836135d2565b9260005b8381168281101561105d5784916110558261104360019488613637565b5161104e828b613637565b5288613637565b500116611026565b6040805160208082528851818301819052600093600582901b8401810192808c01929185015b8287106110905785850386f35b9091929382806110ac600193603f198a82030186528851612e4d565b9601920196019592919092611083565b3461018a57604036600319011261018a576110d5612aeb565b6001600160401b039060243582811161018a576110fb63ffffffff913690600401612e16565b91909261110781613723565b611115610392368587612c15565b169182600052602093600485526040600020600080600483018054915b828110611415575b50505015611403576040519061114f82612ba2565b600082528682019060609384835260408401918583528585019360008552336000526005600192838d52610b73611190604060002060405192838092613069565b83523388526111a0368c8c612c15565b86526111aa613741565b875201805490600160401b821015610902578382018082558210156108ec576000528b6000209060021b019560018060a01b039051166001600160601b0360a01b87541617865581860190518051848111610902576112138161120d855461302f565b856131bb565b8c8d601f831160011461139f57508190611243936000926113945750508160011b916000199060031b1c19161790565b90555b60028501925180519283116109025761126983611263865461302f565b866131bb565b8a91601f84116001146113085750827fd643c4cb96915f246339ac52f899dfc112f2ccf8254cca6b9cb9d0b8f0276e10999a9b959360039795936112c3936000926112fd5750508160011b916000199060031b1c19161790565b90555b5192839101558560405194604086528160408701528486013760008487018401528301523393601f01601f191682018290030190a3005b015190508d80610505565b9291601f19831691856000528c6000209260005b81811061137f5750917fd643c4cb96915f246339ac52f899dfc112f2ccf8254cca6b9cb9d0b8f0276e109b9c9d979593918560039a98969410611367575b505050811b0190556112c6565b0151600019838a1b60f8161c191690558c808061135a565b82840151855593860193928e01928e0161131c565b015190508e80610505565b908593601f1984168660005283600020936000905b8282106113ea57505084116113d1575b505050811b019055611246565b015160001960f88460031b161c191690558d80806113c4565b84840151865589979095019493840193908101906113b4565b60405163082e385d60e01b8152600490fd5b61141f8183613477565b50546001600160a01b0316331461143857600101611132565b50505050600187808061113a565b3461018a5760208060031936011261018a57611460612aeb565b61146981613723565b63ffffffff8116600052600282526040600020903360005260018352611493604060002091613493565b600160ff600884015460081c166114a981612e43565b036115985760058201546001600160a01b0390339082160361158657600e83019081549060ff82166115745760038694611532946001600c6000990195898754975560ff1916179055016114fe83825461330c565b9055600a5460405163a9059cbb60e01b81523360048201526024810193909352919485939190921691839182906044820190565b03925af180156115685761154257005b8161018892903d10611561575b6115598183612bd9565b810190613017565b503d61154f565b6040513d6000823e3d90fd5b60405163d2e53ca760e01b8152600490fd5b604051632cff942760e01b8152600490fd5b604051631988a70d60e01b8152600490fd5b3461018a57600036600319011261018a576102bc6040516115ca81612b87565b60058152640352e302e360dc1b6020820152604051918291602083526020830190612b11565b3461018a57602036600319011261018a5761018861160c612aeb565b613493565b3461018a57600036600319011261018a5760075461162e81612f74565b9061163c6040519283612bd9565b808252602090818301908160076000527fa66cc928b5edb82af9bd49922954155ab7b0942694bea4ce44661d9a8736c6886000915b8383106116d85750505050604051918083019381845251809452604083019360408160051b85010192916000955b8287106116ac5785850386f35b9091929382806116c8600193603f198a82030186528851612cbd565b960192019601959291909261169f565b6006866001926116ea859a999a613396565b815201920192019190959495611671565b3461018a57600036600319011261018a57600080516020613a9d833981519152546040516001600160a01b039091168152602090f35b3461018a57604036600319011261018a5761174a612aeb565b63ffffffff602435916000602060405161176381612b87565b828152015261177181613723565b16600052600460205260046040600020019081548110156117c15761179b6117a191604093613477565b50613319565b815181516001600160a01b0316815260209182015191810191909152f35bf35b6040516316a7994d60e21b8152600490fd5b3461018a57600036600319011261018a576117ec613761565b600080516020613a9d83398151915280546001600160a01b031981169091556000906001600160a01b03167f8be0079c531659141344cd1fd0a4f28419497f9722a3daafe3b4186f6b6457e08280a3005b3461018a57602036600319011261018a57611856612ad5565b6000608060405161186681612b6c565b60608152826020820152826040820152606080820152015260018060a01b031660005260016020526102bc61189e604060002061340e565b604051918291602083526020830190612dc3565b3461018a57600036600319011261018a577f00000000000000000000000000000000000000000000000000000000000000006001600160a01b0316300361191d5760206040517f360894a13ba1a3210667c828492db98dca3e2076cc3735a920a3ca505d382bbc8152f35b60405163703e46dd60e11b8152600490fd5b3461018a57600036600319011261018a57600a546040516370a0823160e01b815230600482015290602090829060249082906001600160a01b03165afa801561156857600090611985575b602090604051908152f35b506020813d6020116119b0575b8161199f60209383612bd9565b8101031261018a576020905161197a565b3d9150611992565b604036600319011261018a576119cc612ad5565b6024356001600160401b03811161018a573660238201121561018a576119fc903690602481600401359101612c15565b906001600160a01b037f00000000000000000000000000000000000000000000000000000000000000008116308114908115611bb8575b5061191d57611a40613761565b6040516352d1902d60e01b8152908216916020918281600481875afa60009181611b89575b50611a8357604051634c9c8ce360e01b815260048101859052602490fd5b9284937f360894a13ba1a3210667c828492db98dca3e2076cc3735a920a3ca505d382bbc90818103611b715750823b15611b585780546001600160a01b03191682179055604051907fbc7cd75a20ee27fd9adebab32041f755214dbc6bffa90cc0225b39da2e5c2d3b600080a2835115611b3e5750600080848461018896519101845af4903d15611b35573d611b1881612bfa565b90611b266040519283612bd9565b8152600081943d92013e613a39565b60609250613a39565b9250505034611b4957005b63b398979f60e01b8152600490fd5b604051634c9c8ce360e01b815260048101839052602490fd5b60249060405190632a87526960e21b82526004820152fd5b9091508381813d8311611bb1575b611ba18183612bd9565b8101031261018a57519086611a65565b503d611b97565b9050817f360894a13ba1a3210667c828492db98dca3e2076cc3735a920a3ca505d382bbc5416141584611a33565b3461018a57600036600319011261018a57600954611c0381612f74565b90611c116040519283612bd9565b808252602090818301908160096000527f6e1540171b6c0c960b71a7020d9f60077f6af931a8bbf590da0223dacf75c7af6000915b838310611cad5750505050604051918083019381845251809452604083019360408160051b85010192916000955b828710611c815785850386f35b909192938280611c9d600193603f198a82030186528851612dc3565b9601920196019592919092611c74565b600486600192611cbf859a999a61340e565b815201920192019190959495611c46565b3461018a57602036600319011261018a57611ce9612ad5565b600060a0604051611cf981612b51565b828152826020820152826040820152826060820152826080820152015260018060a01b0316600052600360205260c0611d356040600020612f8b565b6117bf6040518092612a8c565b3461018a57602036600319011261018a5763ffffffff611d60612aeb565b606060a0604051611d7081612b51565b6000815260006020820152826040820152828082015282608082015201521660005260046020526102bc611da76040600020613396565b604051918291602083526020830190612cbd565b3461018a57604036600319011261018a57611dd4612aeb565b611ddc612afe565b611de582613723565b63ffffffff9182811692836000526020906002825260406000206008810160ff815416611e1181612e43565b6122865760058201611e4c611e2c8886845460a01c166132f4565b825463ffffffff60a01b191660a09190911b63ffffffff60a01b16178255565b5483808260c01c169160a01c16116122745760005467ffffffff00000000611e778583881c166132df565b861b169067ffffffff00000000191617600055336000526003845260406000209160ff6000925460101c166002811015610c9857156120df575b506000548254600160401b600160e01b031991861c85169190911667ffffffff00000001600160e01b0319909116173360401b600160401b600160e01b031617825563ffffffff1990611f30611f05613741565b9660028501978855849067ffffffff0000000082549160201b169067ffffffff000000001916179055565b611f3f6001840191825461330c565b8155600383019283548386611f568b8285166132f4565b16911617845560085491600160401b8310156109025760018301806008558310156108ec577fc541e3defd92fd2d8306e9c91b36c15f096115c41c7a9a36ac548a487d8891aa97869360021b91827ff3f7a9fe364faab93b216da50a3214154f22a0a2b415b23a84c8169e8b636ee30193808503612003575b8c8c8c8c89336000526005825260406000208560005282526040600020600160ff19825416179055604051931683523392a3005b80548554881690871617808655815467ffffffff0000000019909116908b1c871660201b67ffffffff00000000161785557ff3f7a9fe364faab93b216da50a3214154f22a0a2b415b23a84c8169e8b636ee69461207d91548154600160401b600160e01b031916600160401b600160e01b03909116179055565b547ff3f7a9fe364faab93b216da50a3214154f22a0a2b415b23a84c8169e8b636ee4830155547ff3f7a9fe364faab93b216da50a3214154f22a0a2b415b23a84c8169e8b636ee582015501925416908254161790558580828180808080611fcf565b90506001600160601b036120fb81600b84015416858916612fe3565b169060018060a01b03600a5416906040516370a0823160e01b81523360048201528681602481865afa8015611568578491600091612243575b501061223157604051636eb1769f60e11b81523360048201523060248201528681604481865afa8015611568578491600091612200575b50106121ee57856000926064604051809581936323b872dd60e01b83523360048401523060248401528860448401525af191821561156857600c926121d1575b50016121b882825461330c565b9055600182016121c982825461330c565b905587611eb1565b6121e790873d8911611561576115598183612bd9565b50896121ab565b60405163ea75ebd560e01b8152600490fd5b809250888092503d831161222a575b6122198183612bd9565b8101031261018a578390518b61216b565b503d61220f565b604051632858f9ab60e11b8152600490fd5b809250888092503d831161226d575b61225c8183612bd9565b8101031261018a578390518b612134565b503d612252565b6040516374a227cd60e01b8152600490fd5b6040516305fb6d9960e41b8152600490fd5b3461018a57606036600319011261018a576001600160401b0360043581811161018a576122c9903690600401612c4c565b6001600160a01b039190602435838116919082900361018a5760443583811161018a576122fa903690600401612c4c565b9361230482613736565b61230d85613736565b8260005260016020958187526040600020938051908782116109025761233d82612337885461302f565b886131bb565b8890601f83116001146125675761236c92916000918361255c5750508160011b916000199060031b1c19161790565b84555b818401956affffffffffffffffffffff60a81b95600160a01b90878954161717875560028501978251918211610902576123b3826123ad8b5461302f565b8b6131bb565b80601f83116001146124f8575081906123e2936000926124ed5750508160011b916000199060031b1c19161790565b86555b60095490600160401b821015610902578101806009558110156108ec57600960005260021b94857f6e1540171b6c0c960b71a7020d9f60077f6af931a8bbf590da0223dacf75c7af019183830361243857005b7f6e1540171b6c0c960b71a7020d9f60077f6af931a8bbf590da0223dacf75c7b29560039561246a866124e696613202565b7f6e1540171b6c0c960b71a7020d9f60077f6af931a8bbf590da0223dacf75c7b089019282541690835492826001600160601b0360a01b851617855560ff8060a01b915460a01c16151560a01b169216171790557f6e1540171b6c0c960b71a7020d9f60077f6af931a8bbf590da0223dacf75c7b18601613202565b0154910155005b015190508980610505565b908493601f1984168b60005283600020936000905b828210612543575050841161252a575b505050811b0186556123e5565b015160001960f88460031b161c1916905588808061251d565b848401518655889790950194938401939081019061250d565b015190508a80610505565b849291601f19831691886000528b6000209260005b8d8282106125b3575050841161259a575b505050811b01845561236f565b015160001960f88460031b161c1916905589808061258d565b838501518655899790950194938401930161257c565b3461018a5760208060031936011261018a5763ffffffff6125e8612aeb565b6125f181613723565b166000526004815261260960056040600020016130ff565b6040519082820192808352815180945260408301938160408260051b8601019301916000955b82871061263c5785850386f35b909192938280600192603f198982030185528751906126886126766080878060a01b03855116845285850151908087860152840190612b11565b60408401518382036040850152612b11565b91606080910151910152960192019601959291909261262f565b3461018a57604036600319011261018a576126bb612aeb565b6126c3612afe565b906126cd81613723565b63ffffffff908181169283600052602092600284526126f0604060002093613723565b84600052600284526040600020612705613741565b600782015410612921575b503360005260038452604060002091600884015460ff8160101c166002811015610c985761290f5760ff1661274481612e43565b6128fd5782546001600160a01b03919033604082901c8416036128eb57838891881c16036128d95760038401838154168483168091106128c757600c9061279a6001600160601b039182600b8b01541690612fe3565b16966127d3600582016127b38689835460a01c16613001565b815463ffffffff60a01b191660a09190911b63ffffffff60a01b16179055565b018054908782039182116128b15755836127f1825493828516613001565b16809263ffffffff19161790551561288c575b600a5460405163a9059cbb60e01b8152336004820152602481018690529391869185916044918391600091165af1928315611568577f4f6fb365c29f3632d91fcd919dbfdf50155c34cd0ea613bd43e7e76529fec4359361286f575b505416926040519283523392a4005b61288590863d8811611561576115598183612bd9565b5086612860565b33600052600585526040600020866000528552604060002060ff198154169055612804565b634e487b7160e01b600052601160045260246000fd5b60405163a2ed46e160e01b8152600490fd5b60405163b790ffed60e01b8152600490fd5b6040516338ebc58960e11b8152600490fd5b604051630738c50360e41b8152600490fd5b6040516380e4469160e01b8152600490fd5b6008018054600160ff821661293581612e43565b03612941575b50612710565b60019060ff19161790556001612955613741565b7f9c8ea6489f3baa31d321639e3a41ad67158fa673511a98870906b5a9eced0dd4600080a3858061293b565b3461018a57602036600319011261018a576001600160a01b036129a2612ad5565b1660005260016020526020600360406000200154604051908152f35b3461018a57600036600319011261018a576008546129db81612f74565b6129e86040519182612bd9565b81815260209060208101928360086000527ff3f7a9fe364faab93b216da50a3214154f22a0a2b415b23a84c8169e8b636ee36000915b838310612a6f57604080516020808252875190820181905289928201908960005b828110612a4c5784840385f35b9091928260c082612a606001948a51612a8c565b01960191019492919094612a3f565b600486600192612a7e85612f8b565b815201920192019190612a1e565b60a0908163ffffffff91828151168552826020820151166020860152600180831b0360408201511660408601526060810151606086015260808101516080860152015116910152565b600435906001600160a01b038216820361018a57565b6004359063ffffffff8216820361018a57565b6024359063ffffffff8216820361018a57565b919082519283825260005b848110612b3d575050826000602080949584010152601f8019910116010190565b602081830181015184830182015201612b1c565b60c081019081106001600160401b0382111761090257604052565b60a081019081106001600160401b0382111761090257604052565b604081019081106001600160401b0382111761090257604052565b608081019081106001600160401b0382111761090257604052565b61026081019081106001600160401b0382111761090257604052565b90601f801991011681019081106001600160401b0382111761090257604052565b6001600160401b03811161090257601f01601f191660200190565b929192612c2182612bfa565b91612c2f6040519384612bd9565b82948184528183011161018a578281602093846000960137010152565b9080601f8301121561018a57816020612c6793359101612c15565b90565b90815180825260208080930193019160005b828110612c8a575050505090565b9091929382604082612cb160019489516020809160018060a01b0381511684520151910152565b01950193929101612c7c565b63ffffffff81511682526020908181015182840152604091612cee604083015160c0604087015260c0860190612b11565b91612d0760609360608301518782036060890152612b11565b9260a0612d22608095608085015189820360808b0152612c6a565b9201519560a08184039101528551938483528383019184808760051b8601019801966000945b878610612d5b5750505050505050505090565b9091929394959697988780600192601f198582030189528c5190848060a01b0382511681528780612daa612d9a868601518d888701528d860190612b11565b8a8601518582038c870152612b11565b9301519101529b01960196019497969593929190612d48565b90608080612e0d612ddd855160a0865260a0860190612b11565b60018060a01b03602087015116602086015260408601511515604086015260608601518582036060870152612b11565b93015191015290565b9181601f8401121561018a578235916001600160401b03831161018a576020838186019501011161018a57565b60031115610c9857565b9061026091612ea9612e97612e8563ffffffff9586855116865260208501516020870152604085015190806040880152860190612b11565b60608401518582036060870152612b11565b60808301518482036080860152612b11565b9260018060a01b0360a08301511660a08401528060c08301511660c084015260e08201511660e0830152610100808201519083015261012080820151908301526101408082015190612efa82612e43565b8301526101608082015190612f0e82612e43565b83015261018080820151906002821015610c98578301526101a080820151908301526101c080820151908301526101e06001600160601b038183015116908301526102008082015190830152610220808201519083015261024080910151151591015290565b6001600160401b0381116109025760051b60200190565b90604051612f9881612b51565b60a08193600381549163ffffffff928381168652838160201c166020870152600180861b039060401c1660408601526001810154606086015260028101546080860152015416910152565b9190916001600160601b03808094169116029182169182036128b157565b63ffffffff91821690821603919082116128b157565b9081602091031261018a5751801515810361018a5790565b90600182811c9216801561305f575b602083101461304957565b634e487b7160e01b600052602260045260246000fd5b91607f169161303e565b8054600093926130788261302f565b918282526020936001916001811690816000146130e0575060011461309f575b5050505050565b90939495506000929192528360002092846000945b8386106130cc57505050500101903880808080613098565b8054858701830152940193859082016130b4565b60ff19168685015250505090151560051b010191503880808080613098565b90815461310b81612f74565b9260409361311c6040519182612bd9565b82815280946020809201926000526020600020906000935b85851061314357505050505050565b600484600192845161315481612ba2565b848060a01b038754168152855161317181610b7381898c01613069565b83820152855161318881610b738160028c01613069565b8682015260038701546060820152815201930194019391613134565b8181106131af575050565b600081556001016131a4565b9190601f81116131ca57505050565b6131f6926000526020600020906020601f840160051c830193106131f8575b601f0160051c01906131a4565b565b90915081906131e9565b908082146132db57613214815461302f565b906001600160401b038211610902576132318261120d855461302f565b600090601f8311600114613270576132619291600091836132655750508160011b916000199060031b1c19161790565b9055565b015490503880610505565b815260208082208483528183209291601f1985169083905b8282106132c25750509084600195949392106132a9575b505050811b019055565b015460001960f88460031b161c1916905538808061329f565b8495819295850154815560018091019601940190613288565b5050565b90600163ffffffff809316019182116128b157565b91909163ffffffff808094169116019182116128b157565b919082018092116128b157565b9060405161332681612b87565b82546001600160a01b031681526001909201546020830152565b90815461334c81612f74565b9261335a6040519485612bd9565b818452600090815260208082208186015b848410613379575050505050565b60028360019261338885613319565b81520192019301929061336b565b906040516133a381612b51565b60a06134096005839563ffffffff8154168552600181015460208601526040516133d481610b738160028601613069565b60408601526040516133ed81610b738160038601613069565b60608601526133fe60048201613340565b6080860152016130ff565b910152565b9060405161341b81612b6c565b60806003829460405161343281610b738185613069565b845260018101546001600160a01b038116602086015260a01c60ff1615156040808601919091525161346b81610b738160028601613069565b60608501520154910152565b80548210156108ec5760005260206000209060011b0190600090565b63ffffffff906134a281613723565b1680600052600260205260406000206134b9613741565b6009820154111580613530575b156134da57600801805461ff001916905550565b6134e2613741565b600a820154106134f0575050565b600801805461ff001916610100179055613508613741565b907f835839f42ff642197e82f2887491db41a51c32dc7004091799724e9e3d6f2489600080a3565b50613539613741565b600a82015410156134c6565b6040519061355282612bbd565b8161024060009182815282602082015260606040820152606080820152606060808201528260a08201528260c08201528260e08201528261010082015282610120820152826101408201528261016082015282610180820152826101a0820152826101c0820152826101e082015282610200820152826102208201520152565b906135dc82612f74565b6135e96040519182612bd9565b82815280926135fa601f1991612f74565b019060005b82811061360b57505050565b602090613616613545565b828285010152016135ff565b63ffffffff8091169081146128b15760010190565b80518210156108ec5760209160051b010190565b8054600160401b8110156109025761366891600182018155613477565b91909161369957805182546001600160a01b0319166001600160a01b03919091161782556020015160019190910155565b634e487b7160e01b600052600060045260246000fd5b6001600160a01b0390811690811561370a57600080516020613a9d83398151915280546001600160a01b031981168417909155167f8be0079c531659141344cd1fd0a4f28419497f9722a3daafe3b4186f6b6457e0600080a3565b604051631e4fbdf760e01b815260006004820152602490fd5b63ffffffff80600054169116116117c157565b6001905110610add57565b6103e8804202904282048114421517156128b15781018091116128b15790565b600080516020613a9d833981519152546001600160a01b0316330361378257565b60405163118cdaa760e01b8152336004820152602490fd5b600111610add57565b10156137ab57565b60405163489eca6760e01b8152600490fd5b8181146132db57815491600160401b8311610902578154838355808410613846575b506000526020600020906000526020600020906000905b8382106138035750505050565b80600191840361381e575b60028091019301910190916137f6565b818060a01b038154166001600160601b0360a01b85541617845581808201549085015561380e565b60016001600160ff1b0382811683036128b157851685036128b1576000908460005260206000209260011b8301928660011b015b838110613889575050506137df565b80836002925583838201550161387a565b6138a4815461302f565b90816138ae575050565b81601f600093116001146138c0575055565b9080839182526138df601f60208420940160051c8401600185016131a4565b5555565b8181146132db57815491600160401b831161090257815483835580841061398c575b506000526020600020906000526020600020906000905b8382106139295750505050565b806001918403613944575b600480910193019101909161391c565b818060a01b038154166001600160601b0360a01b85541617845561396d82808301908601613202565b61397d6002808301908601613202565b60038082015490850155613934565b60026001600160fe1b0382811683036128b157851685036128b1576000908460005260206000209260021b8301928660021b015b8381106139cf57505050613905565b8083600492556139e16001820161389a565b6139ec83820161389a565b836003820155016139c0565b60ff7ff0c57e16840df040f15088dc2f81fe391c3923bec73e23a9662efc9c229c6a005460401c1615613a2757565b604051631afcd79f60e31b8152600490fd5b90613a605750805115613a4e57805190602001fd5b604051630a12f52160e11b8152600490fd5b81511580613a93575b613a71575090565b604051639996b31560e01b81526001600160a01b039091166004820152602490fd5b50803b15613a6956fe9016d09d72d40fdae2fd8ceac6b6234c7706214fd39c1cd1e609a0528c199300a2646970667358221220347030be2844cad174fefbb7ac2c2d19012edf1e59ec7032fe31a9c72d167de364736f6c63430008180033",
    "linkReferences": {}
  },
  "methodIdentifiers": {
    "UPGRADE_INTERFACE_VERSION()": "ad3cb1cc",
    "checkContractBalance()": "50312c9e",
    "checkUserBalance(address)": "0a9bfef5",
    "createAccount(string,address,string)": "331ef976",
    "createEvent(bytes32,string,string,string,uint32,uint256,uint256,uint256,uint256,uint96,bool)": "dbc96e99",
    "getAllEventGroups()": "909fdec9",
    "getAllEvents()": "c27a500d",
    "getAllGroupMessages(uint32)": "1755b97a",
    "getAllTickets()": "03e96fe3",
    "getAllUser()": "47531df8",
    "getEventById(uint32)": "cd71ed35",
    "getEventGroup(uint32)": "3809f6f5",
    "getGroupMember(uint32,uint256)": "85a646c9",
    "getGroupMembers(uint32)": "ec976a0a",
    "getTicket(address)": "4717dea9",
    "getUser(address)": "6f77926b",
    "groupChat(uint32,string)": "be7fb5d7",
    "initialize(address)": "c4d66de8",
    "isRegistered(address)": "c3c5a547",
    "joinGroup(uint32)": "eec932f7",
    "owner()": "8da5cb5b",
    "proxiableUUID()": "52d1902d",
    "purchaseTicket(uint32,uint32)": "3405741d",
    "refundFee(uint32,uint32)": "0f9fcf48",
    "renounceOwnership()": "715018a6",
    "transferOwnership(address)": "f2fde38b",
    "updateEventStatus(uint32)": "a87f86f9",
    "upgradeToAndCall(address,bytes)": "4f1ef286",
    "withdrawEventFee(uint32)": "b33f650e"
  },
  "id": 36
}