{
  "abi": [
    {
      "type": "function",
      "name": "UPGRADE_INTERFACE_VERSION",
      "inputs": [],
      "outputs": [
        {
          "name": "",
          "type": "string",
          "internalType": "string"
        }
      ],
      "stateMutability": "view"
    },
    {
      "type": "function",
      "name": "checkContractBalance",
      "inputs": [],
      "outputs": [
        {
          "name": "bal_",
          "type": "uint256",
          "internalType": "uint256"
        }
      ],
      "stateMutability": "view"
    },
    {
      "type": "function",
      "name": "checkUserBalance",
      "inputs": [
        {
          "name": "_addr",
          "type": "address",
          "internalType": "address"
        }
      ],
      "outputs": [
        {
          "name": "bal_",
          "type": "uint256",
          "internalType": "uint256"
        }
      ],
      "stateMutability": "view"
    },
    {
      "type": "function",
      "name": "createAccount",
      "inputs": [
        {
          "name": "_email",
          "type": "string",
          "internalType": "string"
        },
        {
          "name": "_addr",
          "type": "address",
          "internalType": "address"
        },
        {
          "name": "_avatar",
          "type": "string",
          "internalType": "string"
        }
      ],
      "outputs": [],
      "stateMutability": "nonpayable"
    },
    {
      "type": "function",
      "name": "createEvent",
      "inputs": [
        {
          "name": "_title",
          "type": "bytes32",
          "internalType": "bytes32"
        },
        {
          "name": "_imageUrl",
          "type": "string",
          "internalType": "string"
        },
        {
          "name": "_description",
          "type": "string",
          "internalType": "string"
        },
        {
          "name": "_capacity",
          "type": "uint32",
          "internalType": "uint32"
        },
        {
          "name": "_regStartTime",
          "type": "uint256",
          "internalType": "uint256"
        },
        {
          "name": "_regEndTime",
          "type": "uint256",
          "internalType": "uint256"
        },
        {
          "name": "_eventStartTime",
          "type": "uint256",
          "internalType": "uint256"
        },
        {
          "name": "_eventEndTime",
          "type": "uint256",
          "internalType": "uint256"
        },
        {
          "name": "_ticketPrice",
          "type": "uint96",
          "internalType": "uint96"
        },
        {
          "name": "_eventType",
          "type": "uint8",
          "internalType": "enum BlumaProtocol.EventType"
        }
      ],
      "outputs": [],
      "stateMutability": "nonpayable"
    },
    {
      "type": "function",
      "name": "getAllEventGroups",
      "inputs": [],
      "outputs": [
        {
          "name": "group_",
          "type": "tuple[]",
          "internalType": "struct BlumaProtocol.EventGroup[]",
          "components": [
            {
              "name": "eventId",
              "type": "uint32",
              "internalType": "uint32"
            },
            {
              "name": "title",
              "type": "bytes32",
              "internalType": "bytes32"
            },
            {
              "name": "imageUrl",
              "type": "string",
              "internalType": "string"
            },
            {
              "name": "description",
              "type": "string",
              "internalType": "string"
            },
            {
              "name": "members",
              "type": "address[]",
              "internalType": "address[]"
            }
          ]
        }
      ],
      "stateMutability": "view"
    },
    {
      "type": "function",
      "name": "getAllEvents",
      "inputs": [],
      "outputs": [
        {
          "name": "events_",
          "type": "tuple[]",
          "internalType": "struct BlumaProtocol.Event[]",
          "components": [
            {
              "name": "eventId",
              "type": "uint32",
              "internalType": "uint32"
            },
            {
              "name": "title",
              "type": "bytes32",
              "internalType": "bytes32"
            },
            {
              "name": "imageUrl",
              "type": "string",
              "internalType": "string"
            },
            {
              "name": "description",
              "type": "string",
              "internalType": "string"
            },
            {
              "name": "creator",
              "type": "address",
              "internalType": "address"
            },
            {
              "name": "seats",
              "type": "uint32",
              "internalType": "uint32"
            },
            {
              "name": "capacity",
              "type": "uint32",
              "internalType": "uint32"
            },
            {
              "name": "regStartTime",
              "type": "uint256",
              "internalType": "uint256"
            },
            {
              "name": "regEndTime",
              "type": "uint256",
              "internalType": "uint256"
            },
            {
              "name": "regStatus",
              "type": "uint8",
              "internalType": "enum BlumaProtocol.RegStatus"
            },
            {
              "name": "eventStatus",
              "type": "uint8",
              "internalType": "enum BlumaProtocol.EventStatus"
            },
            {
              "name": "eventType",
              "type": "uint8",
              "internalType": "enum BlumaProtocol.EventType"
            },
            {
              "name": "eventStartTime",
              "type": "uint256",
              "internalType": "uint256"
            },
            {
              "name": "eventEndTime",
              "type": "uint256",
              "internalType": "uint256"
            },
            {
              "name": "ticketPrice",
              "type": "uint96",
              "internalType": "uint96"
            },
            {
              "name": "totalSales",
              "type": "uint256",
              "internalType": "uint256"
            },
            {
              "name": "createdAt",
              "type": "uint256",
              "internalType": "uint256"
            },
            {
              "name": "isCreatorPaid",
              "type": "bool",
              "internalType": "bool"
            }
          ]
        }
      ],
      "stateMutability": "view"
    },
    {
      "type": "function",
      "name": "getAllTickets",
      "inputs": [],
      "outputs": [
        {
          "name": "_tickets",
          "type": "tuple[]",
          "internalType": "struct BlumaProtocol.Ticket[]",
          "components": [
            {
              "name": "ticketId",
              "type": "uint32",
              "internalType": "uint32"
            },
            {
              "name": "eventId",
              "type": "uint32",
              "internalType": "uint32"
            },
            {
              "name": "owner",
              "type": "address",
              "internalType": "address"
            },
            {
              "name": "ticketCost",
              "type": "uint256",
              "internalType": "uint256"
            },
            {
              "name": "purchaseTime",
              "type": "uint256",
              "internalType": "uint256"
            },
            {
              "name": "numberOfTicket",
              "type": "uint32",
              "internalType": "uint32"
            }
          ]
        }
      ],
      "stateMutability": "view"
    },
    {
      "type": "function",
      "name": "getEvent",
      "inputs": [
        {
          "name": "_eventId",
          "type": "uint32",
          "internalType": "uint32"
        }
      ],
      "outputs": [
        {
          "name": "events_",
          "type": "tuple",
          "internalType": "struct BlumaProtocol.Event",
          "components": [
            {
              "name": "eventId",
              "type": "uint32",
              "internalType": "uint32"
            },
            {
              "name": "title",
              "type": "bytes32",
              "internalType": "bytes32"
            },
            {
              "name": "imageUrl",
              "type": "string",
              "internalType": "string"
            },
            {
              "name": "description",
              "type": "string",
              "internalType": "string"
            },
            {
              "name": "creator",
              "type": "address",
              "internalType": "address"
            },
            {
              "name": "seats",
              "type": "uint32",
              "internalType": "uint32"
            },
            {
              "name": "capacity",
              "type": "uint32",
              "internalType": "uint32"
            },
            {
              "name": "regStartTime",
              "type": "uint256",
              "internalType": "uint256"
            },
            {
              "name": "regEndTime",
              "type": "uint256",
              "internalType": "uint256"
            },
            {
              "name": "regStatus",
              "type": "uint8",
              "internalType": "enum BlumaProtocol.RegStatus"
            },
            {
              "name": "eventStatus",
              "type": "uint8",
              "internalType": "enum BlumaProtocol.EventStatus"
            },
            {
              "name": "eventType",
              "type": "uint8",
              "internalType": "enum BlumaProtocol.EventType"
            },
            {
              "name": "eventStartTime",
              "type": "uint256",
              "internalType": "uint256"
            },
            {
              "name": "eventEndTime",
              "type": "uint256",
              "internalType": "uint256"
            },
            {
              "name": "ticketPrice",
              "type": "uint96",
              "internalType": "uint96"
            },
            {
              "name": "totalSales",
              "type": "uint256",
              "internalType": "uint256"
            },
            {
              "name": "createdAt",
              "type": "uint256",
              "internalType": "uint256"
            },
            {
              "name": "isCreatorPaid",
              "type": "bool",
              "internalType": "bool"
            }
          ]
        }
      ],
      "stateMutability": "view"
    },
    {
      "type": "function",
      "name": "getEventGroup",
      "inputs": [
        {
          "name": "_groupId",
          "type": "uint32",
          "internalType": "uint32"
        }
      ],
      "outputs": [
        {
          "name": "group_",
          "type": "tuple",
          "internalType": "struct BlumaProtocol.EventGroup",
          "components": [
            {
              "name": "eventId",
              "type": "uint32",
              "internalType": "uint32"
            },
            {
              "name": "title",
              "type": "bytes32",
              "internalType": "bytes32"
            },
            {
              "name": "imageUrl",
              "type": "string",
              "internalType": "string"
            },
            {
              "name": "description",
              "type": "string",
              "internalType": "string"
            },
            {
              "name": "members",
              "type": "address[]",
              "internalType": "address[]"
            }
          ]
        }
      ],
      "stateMutability": "view"
    },
    {
      "type": "function",
      "name": "getGroupMembers",
      "inputs": [
        {
          "name": "_eventId",
          "type": "uint32",
          "internalType": "uint32"
        }
      ],
      "outputs": [
        {
          "name": "_members",
          "type": "address[]",
          "internalType": "address[]"
        }
      ],
      "stateMutability": "view"
    },
    {
      "type": "function",
      "name": "getTicket",
      "inputs": [
        {
          "name": "_addr",
          "type": "address",
          "internalType": "address"
        }
      ],
      "outputs": [
        {
          "name": "_ticket",
          "type": "tuple",
          "internalType": "struct BlumaProtocol.Ticket",
          "components": [
            {
              "name": "ticketId",
              "type": "uint32",
              "internalType": "uint32"
            },
            {
              "name": "eventId",
              "type": "uint32",
              "internalType": "uint32"
            },
            {
              "name": "owner",
              "type": "address",
              "internalType": "address"
            },
            {
              "name": "ticketCost",
              "type": "uint256",
              "internalType": "uint256"
            },
            {
              "name": "purchaseTime",
              "type": "uint256",
              "internalType": "uint256"
            },
            {
              "name": "numberOfTicket",
              "type": "uint32",
              "internalType": "uint32"
            }
          ]
        }
      ],
      "stateMutability": "view"
    },
    {
      "type": "function",
      "name": "getUser",
      "inputs": [
        {
          "name": "_addr",
          "type": "address",
          "internalType": "address"
        }
      ],
      "outputs": [
        {
          "name": "_user",
          "type": "tuple",
          "internalType": "struct BlumaProtocol.User",
          "components": [
            {
              "name": "email",
              "type": "string",
              "internalType": "string"
            },
            {
              "name": "userAddr",
              "type": "address",
              "internalType": "address"
            },
            {
              "name": "isRegistered",
              "type": "bool",
              "internalType": "bool"
            },
            {
              "name": "avatar",
              "type": "string",
              "internalType": "string"
            },
            {
              "name": "balance",
              "type": "uint256",
              "internalType": "uint256"
            }
          ]
        }
      ],
      "stateMutability": "view"
    },
    {
      "type": "function",
      "name": "initialize",
      "inputs": [
        {
          "name": "initialOwner",
          "type": "address",
          "internalType": "address"
        }
      ],
      "outputs": [],
      "stateMutability": "nonpayable"
    },
    {
      "type": "function",
      "name": "isRegistered",
      "inputs": [
        {
          "name": "_addr",
          "type": "address",
          "internalType": "address"
        }
      ],
      "outputs": [
        {
          "name": "",
          "type": "bool",
          "internalType": "bool"
        }
      ],
      "stateMutability": "view"
    },
    {
      "type": "function",
      "name": "owner",
      "inputs": [],
      "outputs": [
        {
          "name": "",
          "type": "address",
          "internalType": "address"
        }
      ],
      "stateMutability": "view"
    },
    {
      "type": "function",
      "name": "proxiableUUID",
      "inputs": [],
      "outputs": [
        {
          "name": "",
          "type": "bytes32",
          "internalType": "bytes32"
        }
      ],
      "stateMutability": "view"
    },
    {
      "type": "function",
      "name": "purchaseTicket",
      "inputs": [
        {
          "name": "_eventId",
          "type": "uint32",
          "internalType": "uint32"
        },
        {
          "name": "_numberOfTickets",
          "type": "uint32",
          "internalType": "uint32"
        }
      ],
      "outputs": [],
      "stateMutability": "nonpayable"
    },
    {
      "type": "function",
      "name": "refundFee",
      "inputs": [
        {
          "name": "_eventId",
          "type": "uint32",
          "internalType": "uint32"
        },
        {
          "name": "_numberOfTickets",
          "type": "uint32",
          "internalType": "uint32"
        }
      ],
      "outputs": [],
      "stateMutability": "nonpayable"
    },
    {
      "type": "function",
      "name": "renounceOwnership",
      "inputs": [],
      "outputs": [],
      "stateMutability": "nonpayable"
    },
    {
      "type": "function",
      "name": "transferOwnership",
      "inputs": [
        {
          "name": "newOwner",
          "type": "address",
          "internalType": "address"
        }
      ],
      "outputs": [],
      "stateMutability": "nonpayable"
    },
    {
      "type": "function",
      "name": "updateEventStatus",
      "inputs": [
        {
          "name": "_eventId",
          "type": "uint32",
          "internalType": "uint32"
        }
      ],
      "outputs": [],
      "stateMutability": "nonpayable"
    },
    {
      "type": "function",
      "name": "upgradeToAndCall",
      "inputs": [
        {
          "name": "newImplementation",
          "type": "address",
          "internalType": "address"
        },
        {
          "name": "data",
          "type": "bytes",
          "internalType": "bytes"
        }
      ],
      "outputs": [],
      "stateMutability": "payable"
    },
    {
      "type": "function",
      "name": "withdrawEventFee",
      "inputs": [
        {
          "name": "_eventId",
          "type": "uint32",
          "internalType": "uint32"
        }
      ],
      "outputs": [],
      "stateMutability": "nonpayable"
    },
    {
      "type": "event",
      "name": "EventClosed",
      "inputs": [
        {
          "name": "_eventId",
          "type": "uint32",
          "indexed": true,
          "internalType": "uint32"
        },
        {
          "name": "_currentTime",
          "type": "uint256",
          "indexed": true,
          "internalType": "uint256"
        }
      ],
      "anonymous": false
    },
    {
      "type": "event",
      "name": "EventCreated",
      "inputs": [
        {
          "name": "_totalEventsId",
          "type": "uint32",
          "indexed": true,
          "internalType": "uint32"
        },
        {
          "name": "_seatNumber",
          "type": "uint32",
          "indexed": true,
          "internalType": "uint32"
        },
        {
          "name": "_capacity",
          "type": "uint32",
          "indexed": true,
          "internalType": "uint32"
        }
      ],
      "anonymous": false
    },
    {
      "type": "event",
      "name": "GroupCreated",
      "inputs": [
        {
          "name": "_roomId",
          "type": "uint32",
          "indexed": true,
          "internalType": "uint32"
        },
        {
          "name": "imageUrl",
          "type": "string",
          "indexed": false,
          "internalType": "string"
        },
        {
          "name": "_title",
          "type": "bytes32",
          "indexed": false,
          "internalType": "bytes32"
        }
      ],
      "anonymous": false
    },
    {
      "type": "event",
      "name": "GroupJoinedSuccessfully",
      "inputs": [
        {
          "name": "_sender",
          "type": "address",
          "indexed": true,
          "internalType": "address"
        },
        {
          "name": "_eventId",
          "type": "uint32",
          "indexed": true,
          "internalType": "uint32"
        }
      ],
      "anonymous": false
    },
    {
      "type": "event",
      "name": "Initialized",
      "inputs": [
        {
          "name": "version",
          "type": "uint64",
          "indexed": false,
          "internalType": "uint64"
        }
      ],
      "anonymous": false
    },
    {
      "type": "event",
      "name": "OwnershipTransferred",
      "inputs": [
        {
          "name": "previousOwner",
          "type": "address",
          "indexed": true,
          "internalType": "address"
        },
        {
          "name": "newOwner",
          "type": "address",
          "indexed": true,
          "internalType": "address"
        }
      ],
      "anonymous": false
    },
    {
      "type": "event",
      "name": "RefundIssued",
      "inputs": [
        {
          "name": "buyer",
          "type": "address",
          "indexed": true,
          "internalType": "address"
        },
        {
          "name": "_ticketId",
          "type": "uint32",
          "indexed": true,
          "internalType": "uint32"
        },
        {
          "name": "_eventId",
          "type": "uint32",
          "indexed": true,
          "internalType": "uint32"
        },
        {
          "name": "amount",
          "type": "uint256",
          "indexed": false,
          "internalType": "uint256"
        }
      ],
      "anonymous": false
    },
    {
      "type": "event",
      "name": "RegistrationClose",
      "inputs": [
        {
          "name": "_currentTime",
          "type": "uint256",
          "indexed": true,
          "internalType": "uint256"
        },
        {
          "name": "_status",
          "type": "uint8",
          "indexed": true,
          "internalType": "uint8"
        }
      ],
      "anonymous": false
    },
    {
      "type": "event",
      "name": "TicketPurchased",
      "inputs": [
        {
          "name": "buyer",
          "type": "address",
          "indexed": true,
          "internalType": "address"
        },
        {
          "name": "_eventId",
          "type": "uint32",
          "indexed": true,
          "internalType": "uint32"
        },
        {
          "name": "numberOfTickets",
          "type": "uint32",
          "indexed": false,
          "internalType": "uint32"
        }
      ],
      "anonymous": false
    },
    {
      "type": "event",
      "name": "Upgraded",
      "inputs": [
        {
          "name": "implementation",
          "type": "address",
          "indexed": true,
          "internalType": "address"
        }
      ],
      "anonymous": false
    },
    {
      "type": "error",
      "name": "ALREADY_PAID",
      "inputs": []
    },
    {
      "type": "error",
      "name": "AddressEmptyCode",
      "inputs": [
        {
          "name": "target",
          "type": "address",
          "internalType": "address"
        }
      ]
    },
    {
      "type": "error",
      "name": "EMPTY_INPUT_FIELD",
      "inputs": []
    },
    {
      "type": "error",
      "name": "ERC1967InvalidImplementation",
      "inputs": [
        {
          "name": "implementation",
          "type": "address",
          "internalType": "address"
        }
      ]
    },
    {
      "type": "error",
      "name": "ERC1967NonPayable",
      "inputs": []
    },
    {
      "type": "error",
      "name": "EVENT_NOT_CLOSED",
      "inputs": []
    },
    {
      "type": "error",
      "name": "FailedInnerCall",
      "inputs": []
    },
    {
      "type": "error",
      "name": "GROUP_ALREADY_EXISTS",
      "inputs": []
    },
    {
      "type": "error",
      "name": "INSUFFICIENT_BALANCE",
      "inputs": []
    },
    {
      "type": "error",
      "name": "INSUFFICIENT_TICKET_PURCHASED",
      "inputs": []
    },
    {
      "type": "error",
      "name": "INVALID_EVENT_ID",
      "inputs": []
    },
    {
      "type": "error",
      "name": "INVALID_ID",
      "inputs": []
    },
    {
      "type": "error",
      "name": "INVALID_TIME_SET",
      "inputs": []
    },
    {
      "type": "error",
      "name": "InvalidInitialization",
      "inputs": []
    },
    {
      "type": "error",
      "name": "NOT_CREATOR",
      "inputs": []
    },
    {
      "type": "error",
      "name": "NOT_ENOUGH_AVAILABLE_SEAT",
      "inputs": []
    },
    {
      "type": "error",
      "name": "NOT_OWNER",
      "inputs": []
    },
    {
      "type": "error",
      "name": "NOT_PAID_EVENT",
      "inputs": []
    },
    {
      "type": "error",
      "name": "NO_ALLOWANCE",
      "inputs": []
    },
    {
      "type": "error",
      "name": "NotInitializing",
      "inputs": []
    },
    {
      "type": "error",
      "name": "OwnableInvalidOwner",
      "inputs": [
        {
          "name": "owner",
          "type": "address",
          "internalType": "address"
        }
      ]
    },
    {
      "type": "error",
      "name": "OwnableUnauthorizedAccount",
      "inputs": [
        {
          "name": "account",
          "type": "address",
          "internalType": "address"
        }
      ]
    },
    {
      "type": "error",
      "name": "REGISTRATION_CLOSE",
      "inputs": []
    },
    {
      "type": "error",
      "name": "REGISTRATION_NOT_OPEN",
      "inputs": []
    },
    {
      "type": "error",
      "name": "USER_NOT_REGISTERED",
      "inputs": []
    },
    {
      "type": "error",
      "name": "UUPSUnauthorizedCallContext",
      "inputs": []
    },
    {
      "type": "error",
      "name": "UUPSUnsupportedProxiableUUID",
      "inputs": [
        {
          "name": "slot",
          "type": "bytes32",
          "internalType": "bytes32"
        }
      ]
    }
  ],
  "bytecode": {
    "object": "0x60a0806040523461002a5730608052612fba9081610030823960805181818161139901526114db0152f35b600080fdfe6080604052600436101561001257600080fd5b60003560e01c806303e96fe3146121715780630a9bfef5146121345780630f9fcf4814611e83578063331ef97614611c575780633405741d146117825780633809f6f51461172e5780634717dea9146116ba5780634f1ef2861461148c57806350312c9e1461140357806352d1902d146113865780636f77926b14611275578063715018a61461120b5780638da5cb5b146111d5578063909fdec9146110eb578063a87f86f9146110ca578063ad3cb1cc14611072578063b33f650e14610f0e578063c27a500d14610e36578063c3c5a54714610df1578063c4d66de814610c98578063d88c8e9814610bc4578063ec976a0a14610b69578063f2fde38b14610b3e5763fe3a31501461012457600080fd5b34610b3957610140366003190112610b39576024356001600160401b038111610b3957610155903690600401612598565b906044356001600160401b038111610b3957610175903690600401612598565b909263ffffffff6064351660643503610b395761010435926001600160601b0384168403610b39576002610124351015610b395733600052600160205260ff60016040600020015460a01c1615610b27576101d96101d4368588612352565b612c0b565b6101e76101d4368484612352565b6101f2608435612c4f565b6101fd60a435612c4f565b61020860c435612c4f565b61021360e435612c4f565b6102256001600160601b038516612c4f565b600163ffffffff6064351610610b155761024360e43560c435612c58565b61025160a435608435612c58565b60005463ffffffff610264818316612718565b16809163ffffffff19161760005560005260026020526040600020936084354210600014610b045760078501805460ff191660021790555b61012435610adc576001600160601b03600a860191166001600160601b03198254161790555b63ffffffff6000541663ffffffff1985541617845560043560018501556001600160401b0382116105f857610307826102fe6002870154612680565b600287016126d1565b600090601f8311600114610a6b576103389291600091836109f1575b50508160011b916000199060031b1c19161790565b60028301555b6001600160401b0381116105f8576103668161035d6003850154612680565b600385016126d1565b600092601f82116001146109fc57610397929382916000926109f15750508160011b916000199060031b1c19161790565b60038201555b60048101805463ffffffff60a01b1933166001600160c01b03199091161760643560a01b63ffffffff60a01b1617905560048101805463ffffffff60c01b191660643560c01b63ffffffff60c01b16179055608435600582015560a435600682015560c435600882015560e435600982015561020061ff001960078301541617600782015542600c820155600654600160401b8110156105f85760018101806006558110156105e257600660005281600e8202600080516020612f658339815191520103610620575b5063ffffffff81541661047881612be6565b80600052600460205263ffffffff6040600020541661060e5780600052600260205260406000206104a7612752565b82815260018201918254602083015260036104ed60028301926040516104d8816104d1818861277e565b0382612316565b60408601526104d1604051809481930161277e565b6060830152836000526004602052610509826040600020612c72565b60075492600160401b8410156105f85760018401806007558410156105e2576105806105959360057f45881a834c1c2b1081ee9f2063da43f83e3d9f2ba737ca954a4098d94bce97d5966007600052027fa66cc928b5edb82af9bd49922954155ab7b0942694bea4ce44661d9a8736c68801612c72565b5460405192839260408452604084019061277e565b9060208301520390a263ffffffff6000541663ffffffff6004816064351693015460a01c16907fac3c2fbb08f906d92c1b4be6fa025f63708bafa70869110e931d718b9532c411600080a4005b634e487b7160e01b600052603260045260246000fd5b634e487b7160e01b600052604160045260246000fd5b60405163e955b73b60e01b8152600490fd5b63ffffffff82541663ffffffff19600e8302600080516020612f6583398151915201541617600e8202600080516020612f65833981519152015560018201547ff652222313e28459528d920b65115c16c04f3efc82aaedc97be59f3f377c0d40600e830201556106b8600283017ff652222313e28459528d920b65115c16c04f3efc82aaedc97be59f3f377c0d41600e840201612b07565b6106ea600383017ff652222313e28459528d920b65115c16c04f3efc82aaedc97be59f3f377c0d42600e840201612b07565b6004820180547ff652222313e28459528d920b65115c16c04f3efc82aaedc97be59f3f377c0d43600e84020180546001600160a01b039092166001600160a01b0319831681178255925463ffffffff60a01b166001600160c01b0319909216909217178155610774906004840154815463ffffffff60c01b191663ffffffff60c01b909116179055565b60058201547ff652222313e28459528d920b65115c16c04f3efc82aaedc97be59f3f377c0d44600e8302015560068201547ff652222313e28459528d920b65115c16c04f3efc82aaedc97be59f3f377c0d45600e8302015560ff6007830154166107dd8161247d565b600e82027ff652222313e28459528d920b65115c16c04f3efc82aaedc97be59f3f377c0d4601805460ff198116831790915560078401549290610826600885901c60ff1661247d565b61ff0084168361ffff19831617177ff652222313e28459528d920b65115c16c04f3efc82aaedc97be59f3f377c0d46600e84020155600785015493600260ff8660101c1610156109db5761ff00600e9462ff00007ff652222313e28459528d920b65115c16c04f3efc82aaedc97be59f3f377c0d4c97169362ffffff191617911617177ff652222313e28459528d920b65115c16c04f3efc82aaedc97be59f3f377c0d46838302015560088401547ff652222313e28459528d920b65115c16c04f3efc82aaedc97be59f3f377c0d47838302015560098401547ff652222313e28459528d920b65115c16c04f3efc82aaedc97be59f3f377c0d4883830201557ff652222313e28459528d920b65115c16c04f3efc82aaedc97be59f3f377c0d49828202016001600160601b03600a860154166001600160601b0319825416179055600b8401547ff652222313e28459528d920b65115c16c04f3efc82aaedc97be59f3f377c0d4a8383020155600c8401547ff652222313e28459528d920b65115c16c04f3efc82aaedc97be59f3f377c0d4b8383020155020160ff600d83015416151560ff8019835416911617905538610466565b634e487b7160e01b600052602160045260246000fd5b013590503880610323565b600383016000526020600020906000945b601f1984168610610a5357600194955083601f19811610610a39575b505050811b01600382015561039d565b0135600019600384901b60f8161c19169055388080610a29565b91602060018192858501358155019301950194610a0d565b600285939293016000526020600020906000935b601f1984168510610ac4576001945083601f19811610610aaa575b505050811b01600283015561033e565b0135600019600384901b60f8161c19169055388080610a9a565b81810135835560209485019460019093019201610a7f565b50600161012435036102c257600a840180546bffffffffffffffffffffffff191690556102c2565b60078501805460ff1916905561029c565b604051631ee8943b60e21b8152600490fd5b604051633069384b60e21b8152600490fd5b600080fd5b34610b39576020366003190112610b3957610b67610b5a612288565b610b62612c16565b612a93565b005b34610b39576020366003190112610b395763ffffffff610b8761229e565b610b9081612be6565b166000526004602052610bc0610bac6004604060002001612814565b6040519182916020835260208301906123e7565b0390f35b34610b39576020366003190112610b395763ffffffff610be261229e565b6000610220604051610bf3816122fa565b828152826020820152606060408201526060808201528260808201528260a08201528260c08201528260e08201528261010082015282610120820152826101408201528261016082015282610180820152826101a0820152826101c0820152826101e0820152826102008201520152610c6b81612be6565b166000526002602052610bc0610c84604060002061296c565b604051918291602083526020830190612487565b34610b39576020366003190112610b3957610cb1612288565b7ff0c57e16840df040f15088dc2f81fe391c3923bec73e23a9662efc9c229c6a0090815460ff8160401c1615916001600160401b03821680159081610de9575b6001149081610ddf575b159081610dd6575b50610dc45767ffffffffffffffff1982166001178455610d349183610da5575b50610d2c612ea0565b610b62612ea0565b610d3c612ea0565b600980546001600160a01b031916734cb6cef87d8cadf966b455e8bd58fff32aba49d1179055610d6857005b68ff00000000000000001981541690557fc7f505b2f371ae2175ee4913f4499e1f2633a7b5936321eed1cdaeb6115181d2602060405160018152a1005b68ffffffffffffffffff19166801000000000000000117845584610d23565b60405163f92ee8a960e01b8152600490fd5b90501585610d03565b303b159150610cfb565b849150610cf1565b34610b39576020366003190112610b39576001600160a01b03610e12612288565b166000526001602052602060ff60016040600020015460a01c166040519015158152f35b34610b39576000366003190112610b3957600654610e53816125c5565b90610e616040519283612316565b80825260209081830190816006600052600080516020612f658339815191526000915b838310610eeb5750505050604051918083019381845251809452604083019360408160051b85010192916000955b828710610ebf5785850386f35b909192938280610edb600193603f198a82030186528851612487565b9601920196019592919092610eb2565b600e86600192610efd859a999a61296c565b815201920192019190959495610e84565b34610b3957602080600319360112610b3957610f2861229e565b610f3181612be6565b63ffffffff8116600052600282526040600020903360005260018352610f5b6040600020916128d5565b600160ff600784015460081c16610f718161247d565b036110605760048201546001600160a01b0390339082160361104e57600d83019081549060ff821661103c5760038694610ffa946001600b6000990195898754975560ff191617905501610fc6838254612745565b905560095460405163a9059cbb60e01b81523360048201526024810193909352919485939190921691839182906044820190565b03925af180156110305761100a57005b81610b6792903d10611029575b6110218183612316565b810190612668565b503d611017565b6040513d6000823e3d90fd5b60405163d2e53ca760e01b8152600490fd5b604051632cff942760e01b8152600490fd5b604051631988a70d60e01b8152600490fd5b34610b39576000366003190112610b395760405160408101908082106001600160401b038311176105f857610bc09160405260058152640352e302e360dc1b60208201526040519182916020835260208301906123a7565b34610b39576020366003190112610b3957610b676110e661229e565b6128d5565b34610b39576000366003190112610b3957600754611108816125c5565b906111166040519283612316565b808252602090818301908160076000527fa66cc928b5edb82af9bd49922954155ab7b0942694bea4ce44661d9a8736c6886000915b8383106111b25750505050604051918083019381845251809452604083019360408160051b85010192916000955b8287106111865785850386f35b9091929382806111a2600193603f198a82030186528851612424565b9601920196019592919092611179565b6005866001926111c4859a999a61286e565b81520192019201919095949561114b565b34610b39576000366003190112610b3957600080516020612f45833981519152546040516001600160a01b039091168152602090f35b34610b39576000366003190112610b3957611224612c16565b600080516020612f4583398151915280546001600160a01b031981169091556000906001600160a01b03167f8be0079c531659141344cd1fd0a4f28419497f9722a3daafe3b4186f6b6457e08280a3005b34610b3957602080600319360112610b395760a090611292612288565b90600060806040516112a3816122df565b6060815282848201528260408201526060808201520152600180841b038092166000526001815261137b604060002092604051936112e0856122df565b6040516112f1816104d1818561277e565b8552600181015484860192808216845260ff6040880192891c161515825261135960036040519461133086611329816002850161277e565b0387612316565b60608a0195865201549660808901978852604051998a99828b5251918a015260c08901906123a7565b9351166040870152511515606086015251848203601f190160808601526123a7565b905160a08301520390f35b34610b39576000366003190112610b39577f00000000000000000000000000000000000000000000000000000000000000006001600160a01b031630036113f15760206040517f360894a13ba1a3210667c828492db98dca3e2076cc3735a920a3ca505d382bbc8152f35b60405163703e46dd60e11b8152600490fd5b34610b39576000366003190112610b39576009546040516370a0823160e01b815230600482015290602090829060249082906001600160a01b03165afa801561103057600090611459575b602090604051908152f35b506020813d602011611484575b8161147360209383612316565b81010312610b39576020905161144e565b3d9150611466565b6040366003190112610b39576114a0612288565b6024356001600160401b038111610b395736602382011215610b39576114d0903690602481600401359101612352565b906001600160a01b037f0000000000000000000000000000000000000000000000000000000000000000811630811490811561168c575b506113f157611514612c16565b6040516352d1902d60e01b8152908216916020918281600481875afa6000918161165d575b5061155757604051634c9c8ce360e01b815260048101859052602490fd5b9284937f360894a13ba1a3210667c828492db98dca3e2076cc3735a920a3ca505d382bbc908181036116455750823b1561162c5780546001600160a01b03191682179055604051907fbc7cd75a20ee27fd9adebab32041f755214dbc6bffa90cc0225b39da2e5c2d3b600080a283511561161257506000808484610b6796519101845af4903d15611609573d6115ec81612337565b906115fa6040519283612316565b8152600081943d92013e612ee1565b60609250612ee1565b925050503461161d57005b63b398979f60e01b8152600490fd5b604051634c9c8ce360e01b815260048101839052602490fd5b60249060405190632a87526960e21b82526004820152fd5b9091508381813d8311611685575b6116758183612316565b81010312610b3957519086611539565b503d61166b565b9050817f360894a13ba1a3210667c828492db98dca3e2076cc3735a920a3ca505d382bbc5416141584611507565b34610b39576020366003190112610b39576116d3612288565b600060a06040516116e3816122c4565b828152826020820152826040820152826060820152826080820152015260018060a01b0316600052600360205260c061171f60406000206125dc565b61172c604051809261223f565bf35b34610b39576020366003190112610b395763ffffffff61174c61229e565b611754612752565b50166000526004602052610bc061176e604060002061286e565b604051918291602083526020830190612424565b34610b39576040366003190112610b395761179b61229e565b6117a36122b1565b6117ac82612be6565b63ffffffff9182811692836000526020906002825260406000206007810160ff8154166117d88161247d565b611c455760048201805484806117f38a828560a01c1661272d565b9260c01c16911611611c335760005467ffffffff000000006118188683891c16612718565b871b169067ffffffff00000000191617600055336000526003855260406000209260ff6000935460101c1660028110156109db5715611a99575b50806118678886611887945460a01c1661272d565b815463ffffffff60a01b191660a09190911b63ffffffff60a01b16179055565b60005482544260028501908155640100000000600160e01b031992871c8616929092166001600160e01b031990911617600160401b600160e01b033360401b161760209690961b67ffffffff000000001695909517825563ffffffff19906118f460018401918254612745565b815560038301928354838661190b8b82851661272d565b16911617845560085491600160401b8310156105f85760018301806008558310156105e2577fc541e3defd92fd2d8306e9c91b36c15f096115c41c7a9a36ac548a487d8891aa97869360021b91827ff3f7a9fe364faab93b216da50a3214154f22a0a2b415b23a84c8169e8b636ee301938085036119b8575b8c8c8c8c89336000526005825260406000208560005282526040600020600160ff19825416179055604051931683523392a3005b80548554881690871617808655815467ffffffff0000000019909116908b1c871660201b67ffffffff00000000161785557ff3f7a9fe364faab93b216da50a3214154f22a0a2b415b23a84c8169e8b636ee694611a379154815468010000000000000000600160e01b031916600160401b600160e01b03909116179055565b547ff3f7a9fe364faab93b216da50a3214154f22a0a2b415b23a84c8169e8b636ee4830155547ff3f7a9fe364faab93b216da50a3214154f22a0a2b415b23a84c8169e8b636ee582015501925416908254161790558580828180808080611984565b9091506001600160601b03611ab681600a84015416868a16612634565b169160018060a01b0360095416916040516370a0823160e01b81523360048201528781602481875afa8015611030578591600091611c02575b5010611bf057604051636eb1769f60e11b81523360048201523060248201528781604481875afa8015611030578591600091611bbf575b5010611bad57866000936064604051809681936323b872dd60e01b83523360048401523060248401528960448401525af19081156110305761188793600b92611b90575b5001611b77848254612745565b905560018401611b88848254612745565b905590611852565b611ba690893d8b11611029576110218183612316565b508b611b6a565b60405163ea75ebd560e01b8152600490fd5b809250898092503d8311611be9575b611bd88183612316565b81010312610b39578490518c611b26565b503d611bce565b604051632858f9ab60e11b8152600490fd5b809250898092503d8311611c2c575b611c1b8183612316565b81010312610b39578490518c611aef565b503d611c11565b6040516374a227cd60e01b8152600490fd5b6040516305fb6d9960e41b8152600490fd5b34610b39576060366003190112610b39576001600160401b03600435818111610b3957611c88903690600401612389565b906024356001600160a01b0381169190829003610b3957604435818111610b3957611cb7903690600401612389565b91611cc184612c0b565b611cca83612c0b565b806000526001936020918583526040600020918051908582116105f857611cfb82611cf58654612680565b866126d1565b8490601f8311600114611e1b579180611d2f926002969594600092611e105750508160011b916000199060031b1c19161790565b82555b81870180546001600160a81b031916909117600160a01b1790558451910194909283116105f857611d6d83611d678754612680565b876126d1565b81601f8411600114611dac5750508190611d9d93600092611da15750508160011b916000199060031b1c19161790565b9055005b015190508480610323565b91909383601f1981168760005284600020946000905b88838310611df65750505010611ddd575b505050811b019055005b015160001960f88460031b161c19169055838080611dd3565b858701518855909601959485019487935090810190611dc2565b015190508a80610323565b9392918891601f1982169085600052876000209160005b89828210611e6d575050968360029810611e54575b505050811b018255611d32565b015160001960f88460031b161c19169055898080611e47565b838a015185558d96909401939283019201611e32565b34610b39576040366003190112610b3957611e9c61229e565b611ea46122b1565b90611eae81612be6565b63ffffffff90818116928360005260209260028452611ed1604060002093612be6565b84600052600284526040600020600681015442116120db575b503360005260038452604060002091600784015460ff8160101c1660028110156109db576120c95760ff16611f1e8161247d565b6120b75782546001600160a01b03919033604082901c8416036120a557838891881c160361209357600384018381541684831680911061208157600b90611f746001600160601b039182600a8b01541690612634565b1696611f8d600482016118678689835460a01c16612652565b0180549087820391821161206b575583611fab825493828516612652565b16809263ffffffff191617905515612046575b60095460405163a9059cbb60e01b8152336004820152602481018690529391869185916044918391600091165af1928315611030577f4f6fb365c29f3632d91fcd919dbfdf50155c34cd0ea613bd43e7e76529fec43593612029575b505416926040519283523392a4005b61203f90863d8811611029576110218183612316565b508661201a565b33600052600585526040600020866000528552604060002060ff198154169055611fbe565b634e487b7160e01b600052601160045260246000fd5b60405163a2ed46e160e01b8152600490fd5b60405163b790ffed60e01b8152600490fd5b6040516338ebc58960e11b8152600490fd5b604051630738c50360e41b8152600490fd5b6040516380e4469160e01b8152600490fd5b6007018054600160ff82166120ef8161247d565b036120fb575b50611eea565b60019060ff19161790556001427f9c8ea6489f3baa31d321639e3a41ad67158fa673511a98870906b5a9eced0dd4600080a385806120f5565b34610b39576020366003190112610b39576001600160a01b03612155612288565b1660005260016020526020600360406000200154604051908152f35b34610b39576000366003190112610b395760085461218e816125c5565b61219b6040519182612316565b81815260209060208101928360086000527ff3f7a9fe364faab93b216da50a3214154f22a0a2b415b23a84c8169e8b636ee36000915b83831061222257604080516020808252875190820181905289928201908960005b8281106121ff5784840385f35b9091928260c0826122136001948a5161223f565b019601910194929190946121f2565b600486600192612231856125dc565b8152019201920191906121d1565b60a0908163ffffffff91828151168552826020820151166020860152600180831b0360408201511660408601526060810151606086015260808101516080860152015116910152565b600435906001600160a01b0382168203610b3957565b6004359063ffffffff82168203610b3957565b6024359063ffffffff82168203610b3957565b60c081019081106001600160401b038211176105f857604052565b60a081019081106001600160401b038211176105f857604052565b61024081019081106001600160401b038211176105f857604052565b90601f801991011681019081106001600160401b038211176105f857604052565b6001600160401b0381116105f857601f01601f191660200190565b92919261235e82612337565b9161236c6040519384612316565b829481845281830111610b39578281602093846000960137010152565b9080601f83011215610b39578160206123a493359101612352565b90565b919082519283825260005b8481106123d3575050826000602080949584010152601f8019910116010190565b6020818301810151848301820152016123b2565b90815180825260208080930193019160005b828110612407575050505090565b83516001600160a01b0316855293810193928101926001016123f9565b6123a49163ffffffff825116815260208201516020820152608061246c61245a604085015160a0604086015260a08501906123a7565b606085015184820360608601526123a7565b9201519060808184039101526123e7565b600311156109db57565b90610240916124ce6124bc63ffffffff94858451168552602084015160208601526040840151908060408701528501906123a7565b606083015184820360608601526123a7565b9260018060a01b0360808301511660808401528060a08301511660a084015260c08201511660c083015260e081015160e08301526101008082015190830152610120808201519061251e8261247d565b83015261014080820151906125328261247d565b830152610160808201519060028210156109db5783015261018080820151908301526101a080820151908301526101c06001600160601b038183015116908301526101e08082015190830152610200808201519083015261022080910151151591015290565b9181601f84011215610b39578235916001600160401b038311610b395760208381860195010111610b3957565b6001600160401b0381116105f85760051b60200190565b906040516125e9816122c4565b60a08193600381549163ffffffff928381168652838160201c166020870152600180861b039060401c1660408601526001810154606086015260028101546080860152015416910152565b9190916001600160601b038080941691160291821691820361206b57565b63ffffffff918216908216039190821161206b57565b90816020910312610b3957518015158103610b395790565b90600182811c921680156126b0575b602083101461269a57565b634e487b7160e01b600052602260045260246000fd5b91607f169161268f565b8181106126c5575050565b600081556001016126ba565b9190601f81116126e057505050565b61270c926000526020600020906020601f840160051c8301931061270e575b601f0160051c01906126ba565b565b90915081906126ff565b90600163ffffffff8093160191821161206b57565b91909163ffffffff8080941691160191821161206b57565b9190820180921161206b57565b6040519061275f826122df565b6060608083600081526000602082015282604082015282808201520152565b80546000939261278d82612680565b918282526020936001916001811690816000146127f557506001146127b4575b5050505050565b90939495506000929192528360002092846000945b8386106127e1575050505001019038808080806127ad565b8054858701830152940193859082016127c9565b60ff19168685015250505090151560051b0101915038808080806127ad565b90604051918281549182825260209260208301916000526020600020936000905b82821061284b5750505061270c92500383612316565b85546001600160a01b031684526001958601958895509381019390910190612835565b9060405161287b816122df565b60806128d06004839563ffffffff8154168552600181015460208601526040516128ac816104d1816002860161277e565b60408601526040516128c5816104d1816003860161277e565b606086015201612814565b910152565b63ffffffff906128e481612be6565b16806000526002602052604060002060088101544210158061295e575b1561291557600701805461ff001916905550565b60098101544211612925575b5050565b600701805461ff00191661010017905542907f835839f42ff642197e82f2887491db41a51c32dc7004091799724e9e3d6f2489600080a3565b506009810154421115612901565b90604051612979816122fa565b809263ffffffff808254168352600182015460208401526040516129a4816104d1816002870161277e565b60408401526040516129bd816104d1816003870161277e565b6060840152600482015460018060a01b0381166080850152818160a01c1660a085015260c01c1660c0830152600581015460e0830152600681015461010083015260ff6007820154818116612a118161247d565b610120850152818160081c16612a268161247d565b61014085015260101c169060028210156109db57600d60ff9161022093610160860152600881015461018086015260098101546101a08601526001600160601b03600a820154166101c0860152600b8101546101e0860152600c8101546102008601520154161515910152565b6001600160a01b03908116908115612aee57600080516020612f4583398151915280546001600160a01b031981168417909155167f8be0079c531659141344cd1fd0a4f28419497f9722a3daafe3b4186f6b6457e0600080a3565b604051631e4fbdf760e01b815260006004820152602490fd5b9080821461292157612b198154612680565b906001600160401b0382116105f857612b3c82612b368554612680565b856126d1565b600090601f8311600114612b7b57612b6c929160009183612b705750508160011b916000199060031b1c19161790565b9055565b015490503880610323565b815260208082208483528183209291601f1985169083905b828210612bcd575050908460019594939210612bb4575b505050811b019055565b015460001960f88460031b161c19169055388080612baa565b8495819295850154815560018091019601940190612b93565b63ffffffff8060005416911611612bf957565b6040516316a7994d60e21b8152600490fd5b6001905110610b1557565b600080516020612f45833981519152546001600160a01b03163303612c3757565b60405163118cdaa760e01b8152336004820152602490fd5b600111610b1557565b1015612c6057565b60405163489eca6760e01b8152600490fd5b63ffffffff82511663ffffffff1982541617815560019160208082015184840155600283019260408301519384516001600160401b03958682116105f857612cbe82612b368554612680565b8490601f8311600114612e3e57612ced929160009183612dc55750508160011b916000199060031b1c19161790565b90555b6003810160608401518051908682116105f857612d1182612b368554612680565b8490601f8311600114612dd057826080959360049593612d4793600092612dc55750508160011b916000199060031b1c19161790565b90555b0192015180519384116105f857600160401b84116105f85781908354858555808610612da8575b500191600052806000209060005b848110612d8e57505050505050565b83516001600160a01b031683820155928101928501612d7f565b612dbf9085600052868460002091820191016126ba565b38612d71565b015190503880610323565b889291601f1983169185600052876000209260005b89828210612e285750509160809795939185600498969410612e0f575b505050811b019055612d4a565b015160001960f88460031b161c19169055388080612e02565b8385015186558d97909501949384019301612de5565b889291601f1983169185600052876000209260005b89828210612e8a5750508411612e71575b505050811b019055612cf0565b015160001960f88460031b161c19169055388080612e64565b8385015186558d97909501949384019301612e53565b60ff7ff0c57e16840df040f15088dc2f81fe391c3923bec73e23a9662efc9c229c6a005460401c1615612ecf57565b604051631afcd79f60e31b8152600490fd5b90612f085750805115612ef657805190602001fd5b604051630a12f52160e11b8152600490fd5b81511580612f3b575b612f19575090565b604051639996b31560e01b81526001600160a01b039091166004820152602490fd5b50803b15612f1156fe9016d09d72d40fdae2fd8ceac6b6234c7706214fd39c1cd1e609a0528c199300f652222313e28459528d920b65115c16c04f3efc82aaedc97be59f3f377c0d3fa264697066735822122096f3c4755b14258afad047de023f93e46998da04098e1542f96eea715ec2cacb64736f6c63430008180033",
    "linkReferences": {}
  },
  "methodIdentifiers": {
    "UPGRADE_INTERFACE_VERSION()": "ad3cb1cc",
    "checkContractBalance()": "50312c9e",
    "checkUserBalance(address)": "0a9bfef5",
    "createAccount(string,address,string)": "331ef976",
    "createEvent(bytes32,string,string,uint32,uint256,uint256,uint256,uint256,uint96,uint8)": "fe3a3150",
    "getAllEventGroups()": "909fdec9",
    "getAllEvents()": "c27a500d",
    "getAllTickets()": "03e96fe3",
    "getEvent(uint32)": "d88c8e98",
    "getEventGroup(uint32)": "3809f6f5",
    "getGroupMembers(uint32)": "ec976a0a",
    "getTicket(address)": "4717dea9",
    "getUser(address)": "6f77926b",
    "initialize(address)": "c4d66de8",
    "isRegistered(address)": "c3c5a547",
    "owner()": "8da5cb5b",
    "proxiableUUID()": "52d1902d",
    "purchaseTicket(uint32,uint32)": "3405741d",
    "refundFee(uint32,uint32)": "0f9fcf48",
    "renounceOwnership()": "715018a6",
    "transferOwnership(address)": "f2fde38b",
    "updateEventStatus(uint32)": "a87f86f9",
    "upgradeToAndCall(address,bytes)": "4f1ef286",
    "withdrawEventFee(uint32)": "b33f650e"
  },
  "id": 36
}