{"abi":[{"type":"function","name":"UPGRADE_INTERFACE_VERSION","inputs":[],"outputs":[{"name":"","type":"string","internalType":"string"}],"stateMutability":"view"},{"type":"function","name":"checkContractBalance","inputs":[],"outputs":[{"name":"bal_","type":"uint256","internalType":"uint256"}],"stateMutability":"view"},{"type":"function","name":"checkUserBalance","inputs":[{"name":"_addr","type":"address","internalType":"address"}],"outputs":[{"name":"bal_","type":"uint256","internalType":"uint256"}],"stateMutability":"view"},{"type":"function","name":"createAccount","inputs":[{"name":"_email","type":"string","internalType":"string"},{"name":"_addr","type":"address","internalType":"address"},{"name":"_avatar","type":"string","internalType":"string"}],"outputs":[],"stateMutability":"nonpayable"},{"type":"function","name":"createEvent","inputs":[{"name":"_title","type":"bytes32","internalType":"bytes32"},{"name":"_imageUrl","type":"string","internalType":"string"},{"name":"_description","type":"string","internalType":"string"},{"name":"_location","type":"bytes32","internalType":"bytes32"},{"name":"_capacity","type":"uint32","internalType":"uint32"},{"name":"_regStartTime","type":"uint256","internalType":"uint256"},{"name":"_regEndTime","type":"uint256","internalType":"uint256"},{"name":"_eventStartTime","type":"uint256","internalType":"uint256"},{"name":"_eventEndTime","type":"uint256","internalType":"uint256"},{"name":"_ticketPrice","type":"uint96","internalType":"uint96"},{"name":"_isEventPaid","type":"bool","internalType":"bool"},{"name":"_nftUrl","type":"string","internalType":"string"}],"outputs":[],"stateMutability":"nonpayable"},{"type":"function","name":"getAllEventGroups","inputs":[],"outputs":[{"name":"","type":"tuple[]","internalType":"struct BlumaProtocol.EventGroup[]","components":[{"name":"eventId","type":"uint32","internalType":"uint32"},{"name":"title","type":"bytes32","internalType":"bytes32"},{"name":"imageUrl","type":"string","internalType":"string"},{"name":"description","type":"string","internalType":"string"},{"name":"members","type":"tuple[]","internalType":"struct BlumaProtocol.Member[]","components":[{"name":"user","type":"address","internalType":"address"},{"name":"joinTime","type":"uint256","internalType":"uint256"}]},{"name":"messages","type":"tuple[]","internalType":"struct BlumaProtocol.Message[]","components":[{"name":"sender","type":"address","internalType":"address"},{"name":"email","type":"string","internalType":"string"},{"name":"text","type":"string","internalType":"string"},{"name":"timestamp","type":"uint256","internalType":"uint256"}]}]}],"stateMutability":"view"},{"type":"function","name":"getAllEvents","inputs":[],"outputs":[{"name":"","type":"tuple[]","internalType":"struct BlumaProtocol.Event[]","components":[{"name":"eventId","type":"uint32","internalType":"uint32"},{"name":"title","type":"bytes32","internalType":"bytes32"},{"name":"imageUrl","type":"string","internalType":"string"},{"name":"location","type":"bytes32","internalType":"bytes32"},{"name":"description","type":"string","internalType":"string"},{"name":"creator","type":"address","internalType":"address"},{"name":"seats","type":"uint32","internalType":"uint32"},{"name":"capacity","type":"uint32","internalType":"uint32"},{"name":"regStartTime","type":"uint256","internalType":"uint256"},{"name":"regEndTime","type":"uint256","internalType":"uint256"},{"name":"regStatus","type":"uint8","internalType":"enum BlumaProtocol.RegStatus"},{"name":"eventStatus","type":"uint8","internalType":"enum BlumaProtocol.EventStatus"},{"name":"eventType","type":"uint8","internalType":"enum BlumaProtocol.EventType"},{"name":"groups","type":"tuple","internalType":"struct BlumaProtocol.EventGroup","components":[{"name":"eventId","type":"uint32","internalType":"uint32"},{"name":"title","type":"bytes32","internalType":"bytes32"},{"name":"imageUrl","type":"string","internalType":"string"},{"name":"description","type":"string","internalType":"string"},{"name":"members","type":"tuple[]","internalType":"struct BlumaProtocol.Member[]","components":[{"name":"user","type":"address","internalType":"address"},{"name":"joinTime","type":"uint256","internalType":"uint256"}]},{"name":"messages","type":"tuple[]","internalType":"struct BlumaProtocol.Message[]","components":[{"name":"sender","type":"address","internalType":"address"},{"name":"email","type":"string","internalType":"string"},{"name":"text","type":"string","internalType":"string"},{"name":"timestamp","type":"uint256","internalType":"uint256"}]}]},{"name":"nftUrl","type":"string","internalType":"string"},{"name":"eventStartTime","type":"uint256","internalType":"uint256"},{"name":"eventEndTime","type":"uint256","internalType":"uint256"},{"name":"ticketPrice","type":"uint96","internalType":"uint96"},{"name":"totalSales","type":"uint256","internalType":"uint256"},{"name":"createdAt","type":"uint256","internalType":"uint256"},{"name":"isCreatorPaid","type":"bool","internalType":"bool"},{"name":"hasMinted","type":"bool","internalType":"bool"}]}],"stateMutability":"view"},{"type":"function","name":"getAllGroupMessages","inputs":[{"name":"_eventId","type":"uint32","internalType":"uint32"}],"outputs":[{"name":"","type":"tuple[]","internalType":"struct BlumaProtocol.Message[]","components":[{"name":"sender","type":"address","internalType":"address"},{"name":"email","type":"string","internalType":"string"},{"name":"text","type":"string","internalType":"string"},{"name":"timestamp","type":"uint256","internalType":"uint256"}]}],"stateMutability":"view"},{"type":"function","name":"getAllTickets","inputs":[],"outputs":[{"name":"_tickets","type":"tuple[]","internalType":"struct BlumaProtocol.Ticket[]","components":[{"name":"ticketId","type":"uint32","internalType":"uint32"},{"name":"eventId","type":"uint32","internalType":"uint32"},{"name":"owner","type":"address","internalType":"address"},{"name":"ticketCost","type":"uint256","internalType":"uint256"},{"name":"purchaseTime","type":"uint256","internalType":"uint256"},{"name":"numberOfTicket","type":"uint32","internalType":"uint32"}]}],"stateMutability":"view"},{"type":"function","name":"getAllUser","inputs":[],"outputs":[{"name":"","type":"tuple[]","internalType":"struct BlumaProtocol.User[]","components":[{"name":"email","type":"string","internalType":"string"},{"name":"userAddr","type":"address","internalType":"address"},{"name":"isRegistered","type":"bool","internalType":"bool"},{"name":"avatar","type":"string","internalType":"string"},{"name":"balance","type":"uint256","internalType":"uint256"}]}],"stateMutability":"view"},{"type":"function","name":"getEventById","inputs":[{"name":"_eventId","type":"uint32","internalType":"uint32"}],"outputs":[{"name":"events_","type":"tuple","internalType":"struct BlumaProtocol.Event","components":[{"name":"eventId","type":"uint32","internalType":"uint32"},{"name":"title","type":"bytes32","internalType":"bytes32"},{"name":"imageUrl","type":"string","internalType":"string"},{"name":"location","type":"bytes32","internalType":"bytes32"},{"name":"description","type":"string","internalType":"string"},{"name":"creator","type":"address","internalType":"address"},{"name":"seats","type":"uint32","internalType":"uint32"},{"name":"capacity","type":"uint32","internalType":"uint32"},{"name":"regStartTime","type":"uint256","internalType":"uint256"},{"name":"regEndTime","type":"uint256","internalType":"uint256"},{"name":"regStatus","type":"uint8","internalType":"enum BlumaProtocol.RegStatus"},{"name":"eventStatus","type":"uint8","internalType":"enum BlumaProtocol.EventStatus"},{"name":"eventType","type":"uint8","internalType":"enum BlumaProtocol.EventType"},{"name":"groups","type":"tuple","internalType":"struct BlumaProtocol.EventGroup","components":[{"name":"eventId","type":"uint32","internalType":"uint32"},{"name":"title","type":"bytes32","internalType":"bytes32"},{"name":"imageUrl","type":"string","internalType":"string"},{"name":"description","type":"string","internalType":"string"},{"name":"members","type":"tuple[]","internalType":"struct BlumaProtocol.Member[]","components":[{"name":"user","type":"address","internalType":"address"},{"name":"joinTime","type":"uint256","internalType":"uint256"}]},{"name":"messages","type":"tuple[]","internalType":"struct BlumaProtocol.Message[]","components":[{"name":"sender","type":"address","internalType":"address"},{"name":"email","type":"string","internalType":"string"},{"name":"text","type":"string","internalType":"string"},{"name":"timestamp","type":"uint256","internalType":"uint256"}]}]},{"name":"nftUrl","type":"string","internalType":"string"},{"name":"eventStartTime","type":"uint256","internalType":"uint256"},{"name":"eventEndTime","type":"uint256","internalType":"uint256"},{"name":"ticketPrice","type":"uint96","internalType":"uint96"},{"name":"totalSales","type":"uint256","internalType":"uint256"},{"name":"createdAt","type":"uint256","internalType":"uint256"},{"name":"isCreatorPaid","type":"bool","internalType":"bool"},{"name":"hasMinted","type":"bool","internalType":"bool"}]}],"stateMutability":"view"},{"type":"function","name":"getEventGroup","inputs":[{"name":"_eventId","type":"uint32","internalType":"uint32"}],"outputs":[{"name":"","type":"tuple","internalType":"struct BlumaProtocol.EventGroup","components":[{"name":"eventId","type":"uint32","internalType":"uint32"},{"name":"title","type":"bytes32","internalType":"bytes32"},{"name":"imageUrl","type":"string","internalType":"string"},{"name":"description","type":"string","internalType":"string"},{"name":"members","type":"tuple[]","internalType":"struct BlumaProtocol.Member[]","components":[{"name":"user","type":"address","internalType":"address"},{"name":"joinTime","type":"uint256","internalType":"uint256"}]},{"name":"messages","type":"tuple[]","internalType":"struct BlumaProtocol.Message[]","components":[{"name":"sender","type":"address","internalType":"address"},{"name":"email","type":"string","internalType":"string"},{"name":"text","type":"string","internalType":"string"},{"name":"timestamp","type":"uint256","internalType":"uint256"}]}]}],"stateMutability":"view"},{"type":"function","name":"getEventNFTs","inputs":[{"name":"_eventId","type":"uint32","internalType":"uint32"}],"outputs":[{"name":"","type":"uint256[]","internalType":"uint256[]"}],"stateMutability":"view"},{"type":"function","name":"getGroupMember","inputs":[{"name":"_groupId","type":"uint32","internalType":"uint32"},{"name":"_index","type":"uint256","internalType":"uint256"}],"outputs":[{"name":"","type":"tuple","internalType":"struct BlumaProtocol.Member","components":[{"name":"user","type":"address","internalType":"address"},{"name":"joinTime","type":"uint256","internalType":"uint256"}]}],"stateMutability":"view"},{"type":"function","name":"getGroupMembers","inputs":[{"name":"_eventId","type":"uint32","internalType":"uint32"}],"outputs":[{"name":"","type":"tuple[]","internalType":"struct BlumaProtocol.Member[]","components":[{"name":"user","type":"address","internalType":"address"},{"name":"joinTime","type":"uint256","internalType":"uint256"}]}],"stateMutability":"view"},{"type":"function","name":"getTicket","inputs":[{"name":"_addr","type":"address","internalType":"address"}],"outputs":[{"name":"_ticket","type":"tuple","internalType":"struct BlumaProtocol.Ticket","components":[{"name":"ticketId","type":"uint32","internalType":"uint32"},{"name":"eventId","type":"uint32","internalType":"uint32"},{"name":"owner","type":"address","internalType":"address"},{"name":"ticketCost","type":"uint256","internalType":"uint256"},{"name":"purchaseTime","type":"uint256","internalType":"uint256"},{"name":"numberOfTicket","type":"uint32","internalType":"uint32"}]}],"stateMutability":"view"},{"type":"function","name":"getUser","inputs":[{"name":"_addr","type":"address","internalType":"address"}],"outputs":[{"name":"_user","type":"tuple","internalType":"struct BlumaProtocol.User","components":[{"name":"email","type":"string","internalType":"string"},{"name":"userAddr","type":"address","internalType":"address"},{"name":"isRegistered","type":"bool","internalType":"bool"},{"name":"avatar","type":"string","internalType":"string"},{"name":"balance","type":"uint256","internalType":"uint256"}]}],"stateMutability":"view"},{"type":"function","name":"getUserNFTs_","inputs":[{"name":"_user","type":"address","internalType":"address"}],"outputs":[{"name":"","type":"uint256[]","internalType":"uint256[]"}],"stateMutability":"view"},{"type":"function","name":"groupChat","inputs":[{"name":"_eventId","type":"uint32","internalType":"uint32"},{"name":"_text","type":"string","internalType":"string"}],"outputs":[],"stateMutability":"nonpayable"},{"type":"function","name":"hasPurchasedTicket","inputs":[{"name":"_user","type":"address","internalType":"address"},{"name":"_eventId","type":"uint32","internalType":"uint32"}],"outputs":[{"name":"","type":"bool","internalType":"bool"}],"stateMutability":"view"},{"type":"function","name":"initialize","inputs":[{"name":"initialOwner","type":"address","internalType":"address"},{"name":"_blumaToken","type":"address","internalType":"address"},{"name":"_blumaNFT","type":"address","internalType":"address"}],"outputs":[],"stateMutability":"nonpayable"},{"type":"function","name":"isRegistered","inputs":[{"name":"_addr","type":"address","internalType":"address"}],"outputs":[{"name":"","type":"bool","internalType":"bool"}],"stateMutability":"view"},{"type":"function","name":"joinGroup","inputs":[{"name":"_eventId","type":"uint32","internalType":"uint32"}],"outputs":[],"stateMutability":"nonpayable"},{"type":"function","name":"mintNFTsForAttendees","inputs":[{"name":"_eventId","type":"uint32","internalType":"uint32"}],"outputs":[],"stateMutability":"nonpayable"},{"type":"function","name":"owner","inputs":[],"outputs":[{"name":"","type":"address","internalType":"address"}],"stateMutability":"view"},{"type":"function","name":"proxiableUUID","inputs":[],"outputs":[{"name":"","type":"bytes32","internalType":"bytes32"}],"stateMutability":"view"},{"type":"function","name":"purchaseTicket","inputs":[{"name":"_eventId","type":"uint32","internalType":"uint32"},{"name":"_numberOfTickets","type":"uint32","internalType":"uint32"}],"outputs":[],"stateMutability":"nonpayable"},{"type":"function","name":"refundFee","inputs":[{"name":"_eventId","type":"uint32","internalType":"uint32"},{"name":"_numberOfTickets","type":"uint32","internalType":"uint32"}],"outputs":[],"stateMutability":"nonpayable"},{"type":"function","name":"renounceOwnership","inputs":[],"outputs":[],"stateMutability":"nonpayable"},{"type":"function","name":"transferOwnership","inputs":[{"name":"newOwner","type":"address","internalType":"address"}],"outputs":[],"stateMutability":"nonpayable"},{"type":"function","name":"updateEventStatus","inputs":[{"name":"_eventId","type":"uint32","internalType":"uint32"}],"outputs":[],"stateMutability":"nonpayable"},{"type":"function","name":"upgradeToAndCall","inputs":[{"name":"newImplementation","type":"address","internalType":"address"},{"name":"data","type":"bytes","internalType":"bytes"}],"outputs":[],"stateMutability":"payable"},{"type":"function","name":"withdrawEventFee","inputs":[{"name":"_eventId","type":"uint32","internalType":"uint32"}],"outputs":[],"stateMutability":"nonpayable"},{"type":"event","name":"AttendeesNFTMinted","inputs":[{"name":"owner","type":"address","indexed":true,"internalType":"address"},{"name":"eventId","type":"uint32","indexed":true,"internalType":"uint32"},{"name":"numberOfTickets","type":"uint32","indexed":false,"internalType":"uint32"},{"name":"tokenId","type":"uint256","indexed":true,"internalType":"uint256"}],"anonymous":false},{"type":"event","name":"EventClosed","inputs":[{"name":"_eventId","type":"uint32","indexed":true,"internalType":"uint32"},{"name":"_currentTime","type":"uint256","indexed":true,"internalType":"uint256"}],"anonymous":false},{"type":"event","name":"EventCreated","inputs":[{"name":"_totalEventsId","type":"uint32","indexed":true,"internalType":"uint32"},{"name":"_seatNumber","type":"uint32","indexed":true,"internalType":"uint32"},{"name":"_capacity","type":"uint32","indexed":true,"internalType":"uint32"}],"anonymous":false},{"type":"event","name":"GroupCreated","inputs":[{"name":"_roomId","type":"uint32","indexed":true,"internalType":"uint32"},{"name":"imageUrl","type":"string","indexed":false,"internalType":"string"},{"name":"_title","type":"bytes32","indexed":false,"internalType":"bytes32"}],"anonymous":false},{"type":"event","name":"GroupJoinedSuccessfully","inputs":[{"name":"_sender","type":"address","indexed":true,"internalType":"address"},{"name":"_eventId","type":"uint32","indexed":true,"internalType":"uint32"},{"name":"_joinedTimw","type":"uint256","indexed":true,"internalType":"uint256"}],"anonymous":false},{"type":"event","name":"Initialized","inputs":[{"name":"version","type":"uint64","indexed":false,"internalType":"uint64"}],"anonymous":false},{"type":"event","name":"MessageSent","inputs":[{"name":"sender","type":"address","indexed":true,"internalType":"address"},{"name":"groupId","type":"uint32","indexed":true,"internalType":"uint32"},{"name":"text","type":"string","indexed":false,"internalType":"string"},{"name":"timestamp","type":"uint256","indexed":false,"internalType":"uint256"}],"anonymous":false},{"type":"event","name":"OwnershipTransferred","inputs":[{"name":"previousOwner","type":"address","indexed":true,"internalType":"address"},{"name":"newOwner","type":"address","indexed":true,"internalType":"address"}],"anonymous":false},{"type":"event","name":"RefundIssued","inputs":[{"name":"buyer","type":"address","indexed":true,"internalType":"address"},{"name":"_ticketId","type":"uint32","indexed":true,"internalType":"uint32"},{"name":"_eventId","type":"uint32","indexed":true,"internalType":"uint32"},{"name":"amount","type":"uint256","indexed":false,"internalType":"uint256"}],"anonymous":false},{"type":"event","name":"RegistrationClose","inputs":[{"name":"_currentTime","type":"uint256","indexed":true,"internalType":"uint256"},{"name":"_status","type":"uint8","indexed":true,"internalType":"uint8"}],"anonymous":false},{"type":"event","name":"TicketPurchased","inputs":[{"name":"buyer","type":"address","indexed":true,"internalType":"address"},{"name":"_eventId","type":"uint32","indexed":true,"internalType":"uint32"},{"name":"numberOfTickets","type":"uint32","indexed":false,"internalType":"uint32"}],"anonymous":false},{"type":"event","name":"Upgraded","inputs":[{"name":"implementation","type":"address","indexed":true,"internalType":"address"}],"anonymous":false},{"type":"error","name":"ALREADY_A_MEMBER","inputs":[]},{"type":"error","name":"ALREADY_PAID","inputs":[]},{"type":"error","name":"AddressEmptyCode","inputs":[{"name":"target","type":"address","internalType":"address"}]},{"type":"error","name":"EMPTY_INPUT_FIELD","inputs":[]},{"type":"error","name":"ERC1967InvalidImplementation","inputs":[{"name":"implementation","type":"address","internalType":"address"}]},{"type":"error","name":"ERC1967NonPayable","inputs":[]},{"type":"error","name":"EVENT_NOT_CLOSED","inputs":[]},{"type":"error","name":"FailedInnerCall","inputs":[]},{"type":"error","name":"GROUP_ALREADY_EXISTS","inputs":[]},{"type":"error","name":"INSUFFICIENT_BALANCE","inputs":[]},{"type":"error","name":"INSUFFICIENT_TICKET_PURCHASED","inputs":[]},{"type":"error","name":"INVALID_EVENT_ID","inputs":[]},{"type":"error","name":"INVALID_ID","inputs":[]},{"type":"error","name":"INVALID_NOT_AUTHORIZED","inputs":[]},{"type":"error","name":"INVALID_TIME_SET","inputs":[]},{"type":"error","name":"InvalidInitialization","inputs":[]},{"type":"error","name":"NFT_ALREADY_MINTED","inputs":[]},{"type":"error","name":"NOT_CREATOR","inputs":[]},{"type":"error","name":"NOT_ENOUGH_AVAILABLE_SEAT","inputs":[]},{"type":"error","name":"NOT_OWNER","inputs":[]},{"type":"error","name":"NOT_PAID_EVENT","inputs":[]},{"type":"error","name":"NO_ALLOWANCE","inputs":[]},{"type":"error","name":"NotInitializing","inputs":[]},{"type":"error","name":"OwnableInvalidOwner","inputs":[{"name":"owner","type":"address","internalType":"address"}]},{"type":"error","name":"OwnableUnauthorizedAccount","inputs":[{"name":"account","type":"address","internalType":"address"}]},{"type":"error","name":"REGISTRATION_CLOSE","inputs":[]},{"type":"error","name":"REGISTRATION_NOT_CLOSED","inputs":[]},{"type":"error","name":"REGISTRATION_NOT_OPEN","inputs":[]},{"type":"error","name":"USER_NOT_REGISTERED","inputs":[]},{"type":"error","name":"UUPSUnauthorizedCallContext","inputs":[]},{"type":"error","name":"UUPSUnsupportedProxiableUUID","inputs":[{"name":"slot","type":"bytes32","internalType":"bytes32"}]}],"bytecode":{"object":"0x60a0806040523461002a573060805261436a9081610030823960805181818161120601526113540152f35b600080fdfe6080604052600436101561001257600080fd5b600060e0813560e01c90816303e96fe3146130225781630a9bfef514612fe55781630f9fcf4814612d1a5781631755b97a14612c4257816317f69df614612bec5781631e2cb13114612b6a578163277ec3d4146129dc5781633294af1114612102578163331ef97614611dc75781633405741d146119295781633809f6f5146118c75781634717dea91461185957816347531df814611772578163488628571461153a5781634f1ef2861461130557816350312c9e1461127057816352d1902d146111f35781636f77926b14611182578163715018a61461111757816385a646c91461108b5781638da5cb5b14611055578163909fdec914610f6e578163a87f86f914610f4c578163ad3cb1cc14610f06578163b33f650e14610d9e578163be7fb5d714610977578163c0c53b8b146107fc578163c27a500d1461055157508063c3c5a5471461050c578063cd71ed3514610336578063ec976a0a146102be578063eec932f7146101bb5763f2fde38b1461018c57600080fd5b346101b85760203660031901126101b8576101b56101a8613142565b6101b0614237565b614162565b80f35b80fd5b50346101b8576020806003193601126102ba576101d661316e565b906101e0826141d6565b63ffffffff80921691828452600282526040842090815416156102a857338452600682526040842083600052825260ff604060002054166102965761024490600d610229614217565b91604051926102378461323d565b3384528584015201613a67565b33835260068152604083209082600052526040600020600160ff1982541617905561026d614217565b90337ff11404c60069f7d8b6ecebb855f6ac5080f851b85152f4cb855640c49a30c2dd8480a480f35b60405163cea6102760e01b8152600490fd5b6040516316a7994d60e21b8152600490fd5b5080fd5b50346101b85760203660031901126101b85760406102da61316e565b916102e4836141d6565b63ffffffff809316815260026020522090815416156103245761030c600d6103209201613e6a565b60405191829160208352602083019061337f565b0390f35b60405163e955b73b60e01b8152600490fd5b50346101b85760203660031901126101b85761035061316e565b610358614053565b50610362816141d6565b63ffffffff80911682526002602052604082209160405191610383836132d2565b808454168352600184015460208401526040516103ae816103a781600289016137af565b03826132ee565b6040840152600384015460608401526040516103d1816103a781600489016137af565b6080840152600584015460018060a01b03811660a0850152818160a01c1660c085015260c01c1660e08301526006830154610100830152600783015461012083015260ff60088401548181166104268161352b565b610140850152818160081c1661043b8161352b565b61016085015260101c169060028210156104f8575060156103209360ff9261018085015261046b60098201613ec0565b6101a0850152604051610485816103a781600f86016137af565b6101c085015260108101546101e085015260118101546102008501526001600160601b03601282015416610220850152601381015461024085015260148101546102608501520154818116151561028084015260081c1615156102a082015260405191829160208352602083019061354b565b634e487b7160e01b81526021600452602490fd5b50346101b85760203660031901126101b85760209060ff906001906040906001600160a01b0361053a613142565b16815282855220015460a01c166040519015158152f35b9050346102ba57816003193601126102ba5763ffffffff908183541691610577836140fd565b908460015b8281168681116107555782526002602090808252604084208581541692836105b1575b505050506105ac9061414d565b61057c565b60409a949a51936105c1856132d2565b84526001820154908401526040516105df816103a7818686016137af565b604084015260038101546060840152604051610602816103a781600486016137af565b608084015285600582015460a060018060a01b03821681870152828260c0921c16818701521c1688840152600681015461010084015260078101546101208401526008908181015460ff938482166106598161352b565b6101408701528482851c1661066d8161352b565b61016087015284601092831c16908110156107415792601586936105ac989693610731966101806107379a01526106a660098301613ec0565b6101a08701526040516106c0816103a781600f87016137af565b6101c08701528101546101e086015260118101546102008601526001600160601b036012820154166102208601526013810154610240860152601481015461026086015201549082821615156102808501521c1615156102a08201528683169061072a828a6139ac565b52876139ac565b5061414d565b969038808061059f565b634e487b7160e01b88526021600452602488fd5b505085821683610764826140fd565b90835b8581168481101561079e57869161079682610784600194876139ac565b5161078f82896139ac565b52866139ac565b500116610767565b60408051602080825286518183018190528993600582901b8401810192808a01929185015b8287106107d05785850386f35b9091929382806107ec600193603f198a8203018652885161354b565b96019201960195929190926107c3565b82346101b85760603660031901126101b857610816613142565b61081e613158565b6001600160a01b0391906044358381169190829003610972577ff0c57e16840df040f15088dc2f81fe391c3923bec73e23a9662efc9c229c6a0093845460ff8160401c1615946001600160401b0382168015908161096a575b6001149081610960575b159081610957575b506109455767ffffffffffffffff19821660011787556108ba9186610926575b506108b2614270565b6101b0614270565b6108c2614270565b6001600160601b0360a01b911681600b541617600b55600c541617600c556108e8575080f35b68ff00000000000000001981541690557fc7f505b2f371ae2175ee4913f4499e1f2633a7b5936321eed1cdaeb6115181d2602060405160018152a180f35b68ffffffffffffffffff191668010000000000000001178755886108a9565b60405163f92ee8a960e01b8152600490fd5b90501589610889565b303b159150610881565b879150610877565b600080fd5b82346101b85760403660031901126101b85761099161316e565b6024356001600160401b038111610d9a576109b0903690600401613210565b6109bb8392936141d6565b6109ce6109c936838661332a565b6141e9565b63ffffffff8092169283855260026020526040852092835416156102a85760058301546001600160a01b03939084163314610d72575b3386526006602052604086208560005260205260ff6040600020541615610d6057604051610a31816132b7565b868152600e6020820192606084526060604084015288606084015233895260016020526103a7610a6a60408b20604051928380926137af565b8452338352610a7a36878761332a565b6040840152610a87614217565b60608401520191825492600160401b841015610d365760018401808255841015610d4a576000526020600020958251166001600160601b0360a01b8460021b88015416178360021b870155518051906001600160401b038211610d3657610b0882610afa60018760021b8b010154613775565b60018760021b8b0101613a04565b602090601f8311600114610cbd57610b3892918a9183610cb2575b50508160011b916000199060031b1c19161790565b60018360021b870101555b600282811b86010160408201518051906001600160401b038211610c9e57610b7582610b6f8554613775565b85613a04565b6020908a601f8411600114610c0d5793610bd3846003956060957fd643c4cb96915f246339ac52f899dfc112f2ccf8254cca6b9cb9d0b8f0276e109c9b9995610bf39b9992610c025750508160011b916000199060031b1c19161790565b90555b015196879260021b01015560405192604084526040840191613de3565b9260208201528033930390a380f35b015190508f80610b23565b50838b5260208b209190601f1984168c5b818110610c865750846060947fd643c4cb96915f246339ac52f899dfc112f2ccf8254cca6b9cb9d0b8f0276e109b9a9894610bf39a989460039860019510610c6e575b505050811b019055610bd6565b015160001983891b60f8161c191690558e8080610c61565b92936020600181928786015181550195019301610c1e565b634e487b7160e01b8a52604160045260248afd5b015190508a80610b23565b919060018560021b8901018a5260208a20908a935b601f1984168510610d1b576001945083601f19811610610d02575b505050811b0160018360021b87010155610b43565b015160001960f88460031b161c19169055898080610ced565b81810151835560209485019460019093019290910190610cd2565b634e487b7160e01b89526041600452602489fd5b634e487b7160e01b600052603260045260246000fd5b60405163082e385d60e01b8152600490fd5b338652600660205260408620856000526020526040600020600160ff19825416179055610a04565b8280fd5b82346101b8576020806003193601126102ba57610db961316e565b610dc2816141d6565b63ffffffff8116835260028252604083209033845260018352610de86040852091613fa1565b600160ff600884015460081c16610dfe8161352b565b03610ef45760058201546001600160a01b03903390821603610ee257601583019081549060ff8216610ed05760038694610e8694600160138b990195898754975560ff191617905501610e52838254613e04565b9055600b5460405163a9059cbb60e01b81523360048201526024810193909352919485939190921691839182906044820190565b03925af18015610ec557610e98578280f35b81610eb792903d10610ebe575b610eaf81836132ee565b81019061375d565b5081808280f35b503d610ea5565b6040513d85823e3d90fd5b60405163d2e53ca760e01b8152600490fd5b604051632cff942760e01b8152600490fd5b604051631988a70d60e01b8152600490fd5b82346101b857806003193601126101b857610320604051610f268161323d565b60058152640352e302e360dc1b6020820152604051918291602083526020830190613194565b82346101b85760203660031901126101b8576101b5610f6961316e565b613fa1565b82346101b857806003193601126101b857600854610f8b816136a4565b90610f9960405192836132ee565b8082526008835260209283830191817ff3f7a9fe364faab93b216da50a3214154f22a0a2b415b23a84c8169e8b636ee3845b8383106110305750505050604051928484019085855251809152604084019460408260051b8601019392955b8287106110045785850386f35b909192938280611020600193603f198a820301865288516133d2565b9601920196019592919092610ff7565b600688600192611043859b9a989b613ec0565b81520192019201919096939596610fcb565b82346101b857806003193601126101b857600080516020614315833981519152546040516001600160a01b039091168152602090f35b82346101b85760403660031901126101b857600460406110a961316e565b9263ffffffff6024359482602085516110c18161323d565b82815201526110cf816141d6565b1681528260205220019081548110156102a8576110f16110f791604093613a4b565b50613e43565b815181516001600160a01b0316815260209182015191810191909152f35bf35b82346101b857806003193601126101b857611130614237565b60008051602061431583398151915280546001600160a01b031981169091556000906001600160a01b03167f8be0079c531659141344cd1fd0a4f28419497f9722a3daafe3b4186f6b6457e08280a380f35b82346101b85760203660031901126101b8576111df6040610320926111a5613142565b81608084516111b38161329c565b606081528260208201528286820152606080820152015260018060a01b03168152600160205220613f38565b6040519182916020835260208301906134d8565b82346101b857806003193601126101b8577f00000000000000000000000000000000000000000000000000000000000000006001600160a01b0316300361125e5760206040517f360894a13ba1a3210667c828492db98dca3e2076cc3735a920a3ca505d382bbc8152f35b60405163703e46dd60e11b8152600490fd5b82346101b857806003193601126101b857600b546040516370a0823160e01b81523060048201529190602090839060249082906001600160a01b03165afa9081156112f957906112c6575b602090604051908152f35b506020813d6020116112f1575b816112e0602093836132ee565b8101031261097257602090516112bb565b3d91506112d3565b604051903d90823e3d90fd5b8260403660031901126101b85761131a613142565b6024356001600160401b038111610d9a5736602382011215610d9a5761134a90369060248160040135910161332a565b6001600160a01b037f0000000000000000000000000000000000000000000000000000000000000000811630811490811561150c575b5061125e5761138d614237565b6040516352d1902d60e01b8152908316926020918281600481885afa8691816114d9575b506113cf57604051634c9c8ce360e01b815260048101869052602490fd5b9385947f360894a13ba1a3210667c828492db98dca3e2076cc3735a920a3ca505d382bbc908181036114c15750823b156114a85780546001600160a01b0319168217905560405185917fbc7cd75a20ee27fd9adebab32041f755214dbc6bffa90cc0225b39da2e5c2d3b8380a284511561148b575080848461147e96519101845af4903d15611482573d6114628161330f565b9061147060405192836132ee565b81528581943d92013e6142b1565b5080f35b606092506142b1565b935050505034611499575080f35b63b398979f60e01b8152600490fd5b604051634c9c8ce360e01b815260048101839052602490fd5b60249060405190632a87526960e21b82526004820152fd5b9091508381813d8311611505575b6114f181836132ee565b81010312611501575190876113b1565b8680fd5b503d6114e7565b9050817f360894a13ba1a3210667c828492db98dca3e2076cc3735a920a3ca505d382bbc5416141585611380565b82346101b857602090816003193601126101b85763ffffffff8061155c61316e565b1680835260028452604083209180835416156117605761157a614217565b60078401541161174e57601583019360ff855460081c1661173c57805b60095481101561172b5783836115ac83613963565b5054891c16148061170c575b6115c5575b600101611597565b600c546040516365507c9560e11b8152906001600160a01b039081168983600481845afa9283156116ce5785936116dd575b508161160285613963565b505460401c16813b156116d9578861164392879283604051809681958294636902622f60e11b8452600484015260406024840152600f6044840191016137af565b03925af180156116ce57918791869594936116ad575b506001945061166784613963565b505460401c167f66555f994e1af4e5e9289ab0b1a3dd45aa678a9d41cba0aa1f064e78f5d039828b88600361169b88613963565b50015416604051908152a490506115bd565b6116bb91939495925061326e565b6116ca5790858493928b611659565b8380fd5b6040513d87823e3d90fd5b8580fd5b9092508981813d8311611705575b6116f581836132ee565b810103126109725751918a6115f7565b503d6116eb565b5061171681613963565b505460401c6001600160a01b031615156115b8565b50845461ff00191661010017855580f35b60405163c1d7938360e01b8152600490fd5b604051630f036da960e21b8152600490fd5b60405163b790ffed60e01b8152600490fd5b82346101b857806003193601126101b857600a5461178f816136a4565b9061179d60405192836132ee565b808252600a835260209283830191817fc65a7bb8d6351c1cf70c95a316cc6a92839c986682d98bc35f958f4883f9d2a8845b8383106118345750505050604051928484019085855251809152604084019460408260051b8601019392955b8287106118085785850386f35b909192938280611824600193603f198a820301865288516134d8565b96019201960195929190926117fb565b600488600192611847859b9a989b613f38565b815201920192019190969395966117cf565b82346101b85760203660031901126101b8576118ba604060c09261187b613142565b8160a0845161188981613281565b8281528260208201528286820152826060820152826080820152015260018060a01b031681526003602052206136bb565b61111560405180926130f9565b82346101b85760203660031901126101b85760406118e361316e565b916118ec613e11565b5063ffffffff809316815260026020522090815416156103245761191560096103209201613ec0565b6040519182916020835260208301906133d2565b82346101b85760403660031901126101b85761194361316e565b9061194c613181565b611955836141d6565b63ffffffff90818416918284526020906002825260408520956008870160ff8154166119808161352b565b611db557600588016119bb61199b8786845460a01c166139d5565b825463ffffffff60a01b191660a09190911b63ffffffff60a01b16178255565b5483808260c01c169160a01c1611611da357865467ffffffff000000006119e58583881c166139c0565b861b169067ffffffff00000000191617875533875260038452604087209760ff88925460101c166002811015611d8f5715611be3575b5086548854600160401b600160e01b031991861c85169190911667ffffffff00000001600160e01b0319909116173360401b600160401b600160e01b031617885563ffffffff1990611a99611a6e614217565b9360028b019485558a9067ffffffff0000000082549160201b169067ffffffff000000001916179055565b611aa860018a01918254613e04565b8155600389019283548386611abf8a8285166139d5565b169116178455600954600160401b811015610c9e57806001611ae49201600955613963565b929092611bcf57918a9186937fc541e3defd92fd2d8306e9c91b36c15f096115c41c7a9a36ac548a487d8891aa999a9b9c8303611b51575b5050505050505033865260058252604086208560005282526040600020600160ff19825416179055604051931683523392a380f35b83548354871690861617808455845467ffffffff0000000019909116908a1c861660201b67ffffffff0000000016178355600393611bac90548454600160401b600160e01b031916600160401b600160e01b03909116178455565b546001830155546002820155019254169082541617905586808281808080611b1c565b634e487b7160e01b8a5260048a905260248afd5b90506001600160601b03611bff81601284015416858816613713565b169060018060a01b03600b54166040516370a0823160e01b81523360048201528681602481855afa908115611d41579084918b91611d5e575b5010611d4c57604051636eb1769f60e11b81523360048201523060248201528681604481855afa908115611d41579084918b91611d10575b5010611cfe578589916064604051809481936323b872dd60e01b83523360048401523060248401528860448401525af18015611cf3579060139291611cd6575b5001611cbd828254613e04565b905560018801611cce828254613e04565b905588611a1b565b611cec90873d8911610ebe57610eaf81836132ee565b508a611cb0565b6040513d8b823e3d90fd5b60405163ea75ebd560e01b8152600490fd5b809250888092503d8311611d3a575b611d2981836132ee565b81010312610972578390518c611c70565b503d611d1f565b6040513d8c823e3d90fd5b604051632858f9ab60e11b8152600490fd5b809250888092503d8311611d88575b611d7781836132ee565b81010312610972578390518c611c38565b503d611d6d565b634e487b7160e01b89526021600452602489fd5b6040516374a227cd60e01b8152600490fd5b6040516305fb6d9960e41b8152600490fd5b82346101b85760603660031901126101b8576001600160401b03600435818111610d9a57611df9903690600401613361565b90611e02613158565b6044358281116120fe57611e1a903690600401613361565b92611e24816141e9565b611e2d846141e9565b60018060a01b038092169182865260016020958187526040882093805190878211610c9e57611e6682611e608854613775565b88613a04565b8890601f831160011461209f57611e9492918b91836120945750508160011b916000199060031b1c19161790565b84555b818401956affffffffffffffffffffff60a81b95600160a01b90878954161717875560028501978251918211610c9e57611edb82611ed58b54613775565b8b613a04565b80601f831160011461203357508190611f09938b92610cb25750508160011b916000199060031b1c19161790565b86555b600a5490600160401b82101561201f57810180600a55811015610d4a57600a60005260021b94857fc65a7bb8d6351c1cf70c95a316cc6a92839c986682d98bc35f958f4883f9d2a80191838303611f61578780f35b7fc65a7bb8d6351c1cf70c95a316cc6a92839c986682d98bc35f958f4883f9d2ab95600395611f938661200f96613acb565b7fc65a7bb8d6351c1cf70c95a316cc6a92839c986682d98bc35f958f4883f9d2a989019282541690835492826001600160601b0360a01b851617855560ff8060a01b915460a01c16151560a01b169216171790557fc65a7bb8d6351c1cf70c95a316cc6a92839c986682d98bc35f958f4883f9d2aa8601613acb565b0154910155818080808080808780f35b634e487b7160e01b88526041600452602488fd5b908493601f1984168b8d52838d20938d905b82821061207b5750508411612062575b505050811b018655611f0c565b015160001960f88460031b161c19169055898080612055565b8484015186558897909501949384019390810190612045565b015190508b80610b23565b868b52898b208593929091601f1984168d5b8d8282106120e857505084116120cf575b505050811b018455611e97565b015160001960f88460031b161c191690558a80806120c2565b83850151865589979095019493840193016120b1565b8480fd5b82346101b8576101803660031901126101b8576024356001600160401b0381116102ba57612134903690600401613210565b6044929192356001600160401b038111610d9a57612156903690600401613210565b909163ffffffff60843516608435036116ca576001600160601b03610124351661012435036116ca57610144359485151586036120fe57610164356001600160401b0381116116d9576121ad903690600401613210565b939094338752600160205260ff600160408920015460a01c16156129ca576121d96109c936848461332a565b6121e76109c936878961332a565b6121f56109c936868661332a565b61220060a4356141f4565b61220b60c4356141f4565b61221660e4356141f4565b612222610104356141f4565b6122376001600160601b0361012435166141f4565b600163ffffffff60843516106129b8576122566101043560e4356141fd565b61226460c43560a4356141fd565b865463ffffffff6122768183166139c0565b16809163ffffffff1916178855875260026020526001604088209860a43561229c614217565b10156129a75760088a01805460ff191660021790555b1515036129785760088801805462ff0000191690556012880180546bffffffffffffffffffffffff1916610124356001600160601b03161790555b63ffffffff87541663ffffffff1989541617885560043560018901556001600160401b0384116128ef576123318461232860028b0154613775565b60028b01613a04565b8684601f811160011461290e578061235e928a91612903575b508160011b916000199060031b1c19161790565b60028901555b6001600160401b0382116128ef5761238c8261238360048b0154613775565b60048b01613a04565b8690601f8311600114612881576123ba92918891836128765750508160011b916000199060031b1c19161790565b60048701555b6005860180546064356003890155600167ffffffff0000000160a01b0319163363ffffffff60c01b19161760843560c01b63ffffffff60c01b1617905560a435600687015560c435600787015560e435601087015561010435601187015560088601805461ff001916610200179055612437614217565b60148701556001600160401b038311612862576124648361245b600f890154613775565b600f8901613a04565b8483601f81116001146127f857806124909288916127ed57508160011b916000199060031b1c19161790565b600f8701555b63ffffffff85541663ffffffff19600988015416176009870155600435600a8701556124d2826124c9600b890154613775565b600b8901613a04565b8490601f831160011461277f5761250092918691836127745750508160011b916000199060031b1c19161790565b600b8501555b600584015461253d906001600160a01b0316612520614217565b6040519161252d8361323d565b82526020820152600d8601613a67565b600854600160401b81101561276057600181018060085581101561274c576006906008855202807ff3f7a9fe364faab93b216da50a3214154f22a0a2b415b23a84c8169e8b636ee30190600986018203612648575b5050600c546001600160a01b031690813b156116ca579183916125da9383604051809681958294636902622f60e11b8452336004850152604060248501526044840191613de3565b03925af1801561263d5761262e575b509063ffffffff82541663ffffffff6005816084351693015460a01c16907fac3c2fbb08f906d92c1b4be6fa025f63708bafa70869110e931d718b9532c4118480a480f35b6126379061326e565b826125e9565b6040513d84823e3d90fd5b6127459163ffffffff60098801541663ffffffff19825416179055600a8601547ff3f7a9fe364faab93b216da50a3214154f22a0a2b415b23a84c8169e8b636ee48201556126bb600b87017ff3f7a9fe364faab93b216da50a3214154f22a0a2b415b23a84c8169e8b636ee58301613acb565b6126ea600c87017ff3f7a9fe364faab93b216da50a3214154f22a0a2b415b23a84c8169e8b636ee68301613acb565b612719600d87017ff3f7a9fe364faab93b216da50a3214154f22a0a2b415b23a84c8169e8b636ee78301613ba8565b7ff3f7a9fe364faab93b216da50a3214154f22a0a2b415b23a84c8169e8b636ee8600e87019101613cce565b8480612592565b634e487b7160e01b84526032600452602484fd5b634e487b7160e01b84526041600452602484fd5b013590508780610b23565b600b87939293018652602086209086935b601f19841685106127d5576001945083601f198116106127bb575b505050811b01600b850155612506565b0135600019600384901b60f8161c191690558680806127ab565b81810135835560209485019460019093019201612790565b90508601358961234a565b50600f870186526020862090865b601f198616811061284a575084601f19811610612830575b5050600183811b01600f870155612496565b850135600019600386901b60f8161c19169055868061281e565b9091602060018192858a013581550193019101612806565b634e487b7160e01b85526041600452602485fd5b013590508980610b23565b600489939293018852602088209088935b601f19841685106128d7576001945083601f198116106128bd575b505050811b0160048701556123c0565b0135600019600384901b60f8161c191690558880806128ad565b81810135835560209485019460019093019201612892565b634e487b7160e01b87526041600452602487fd5b90508501358b61234a565b506002890188526020882090885b601f1987168110612960575085601f19811610612946575b5050600184811b016002890155612364565b840135600019600387901b60f8161c191690558880612934565b9091602060018192858901358155019301910161291c565b6012880180546bffffffffffffffffffffffff1916905560088801805462ff00001916620100001790556122ed565b60088a01805460ff191690556122b2565b604051631ee8943b60e21b8152600490fd5b604051633069384b60e21b8152600490fd5b82346101b8576020806003193601126102ba576129f761316e565b8291836009549263ffffffff809116915b848110612b385750612a19856136a4565b94612a2760405196876132ee565b808652612a36601f19916136a4565b013660208701378592865b858110612a56576040518061032089826131d4565b8383612a6183613963565b5054841c1614612a74575b600101612a41565b9490939691959260018060a01b03968388600c541698612a9389613963565b505460401c166024604051809b8193632118854760e21b835260048301525afa978815612b2d578498612b09575b5083985b88518a1015612af757612aef600191612ade8c8c6139ac565b51612ae9828a6139ac565b5261399d565b990198612ac5565b93985093965090949193909291612a6c565b612b269198503d8086833e612b1e81836132ee565b8101906138ea565b9689612ac1565b6040513d86823e3d90fd5b8282612b4383613963565b5054861c1614612b56575b600101612a08565b94612b6260019161399d565b959050612b4e565b82346101b85760203660031901126101b857612b84613142565b600c54604051632118854760e21b81526001600160a01b03928316600482015291839183916024918391165afa90811561263d57826103209392612bd1575b5050604051918291826131d4565b612be592503d8091833e612b1e81836132ee565b8280612bc3565b82346101b85760403660031901126101b85760ff6040602092612c0d613142565b612c15613181565b6001600160a01b0390911682526005855282822063ffffffff909116825284522054604051911615158152f35b82346101b8576020806003193601126102ba5763ffffffff80612c6361316e565b1683526002825260408320908154161561032457612c84600e849201613845565b60405191838301848452825180915260408401948060408360051b870101940192955b828710612cb45785850386f35b909192938280600192603f19898203018552875190612d00612cee6080878060a01b03855116845285850151908087860152840190613194565b60408401518382036040850152613194565b916060809101519101529601920196019592919092612ca7565b82346101b85760403660031901126101b857612d3461316e565b612d3c613181565b90612d46816141d6565b63ffffffff908181169283855260209260028452612d6760408720936141d6565b8486526002845260408620612d7a614217565b600782015410612f86575b50338652600384526040862091600884015460ff8160101c166002811015611d8f57612f745760ff16612db78161352b565b612f625782546001600160a01b03919033604082901c841603612f5057838891881c1603611760576003840183815416848316809110612f3e57601390612e0d6001600160601b03918260128b01541690613713565b1696612e4660058201612e268689835460a01c16613747565b815463ffffffff60a01b191660a09190911b63ffffffff60a01b16179055565b01805490878203918211612f2a575583612e64825493828516613747565b16809263ffffffff191617905515612f0a575b600b5460405163a9059cbb60e01b81523360048201526024810186905293918691859160449183918c91165af1928315612eff577f4f6fb365c29f3632d91fcd919dbfdf50155c34cd0ea613bd43e7e76529fec43593612ee2575b505416926040519283523392a480f35b612ef890863d8811610ebe57610eaf81836132ee565b5087612ed2565b6040513d89823e3d90fd5b33875260058552604080882087895286528720805460ff19169055612e77565b634e487b7160e01b8b52601160045260248bfd5b60405163a2ed46e160e01b8152600490fd5b6040516338ebc58960e11b8152600490fd5b604051630738c50360e41b8152600490fd5b6040516380e4469160e01b8152600490fd5b6008018054600160ff8216612f9a8161352b565b03612fa6575b50612d85565b60019060ff19161790556001612fba614217565b7f9c8ea6489f3baa31d321639e3a41ad67158fa673511a98870906b5a9eced0dd48880a38680612fa0565b82346101b85760203660031901126101b8576020906003906040906001600160a01b03613010613142565b16815260018452200154604051908152f35b82346101b857806003193601126101b85760095461303f816136a4565b9061304d60405192836132ee565b8082526009835260209182810191847f6e1540171b6c0c960b71a7020d9f60077f6af931a8bbf590da0223dacf75c7af845b8383106130d2575050505060405192602084019160208552518092526040840192945b8281106130af5784840385f35b9091928260c0826130c36001948a516130f9565b019601910194929190946130a2565b6004876001926130e6859b9a98999b6136bb565b815201920192019190969493959661307f565b60a0908163ffffffff91828151168552826020820151166020860152600180831b0360408201511660408601526060810151606086015260808101516080860152015116910152565b600435906001600160a01b038216820361097257565b602435906001600160a01b038216820361097257565b6004359063ffffffff8216820361097257565b6024359063ffffffff8216820361097257565b919082519283825260005b8481106131c0575050826000602080949584010152601f8019910116010190565b60208183018101518483018201520161319f565b602090602060408183019282815285518094520193019160005b8281106131fc575050505090565b8351855293810193928101926001016131ee565b9181601f84011215610972578235916001600160401b038311610972576020838186019501011161097257565b604081019081106001600160401b0382111761325857604052565b634e487b7160e01b600052604160045260246000fd5b6001600160401b03811161325857604052565b60c081019081106001600160401b0382111761325857604052565b60a081019081106001600160401b0382111761325857604052565b608081019081106001600160401b0382111761325857604052565b6102c081019081106001600160401b0382111761325857604052565b90601f801991011681019081106001600160401b0382111761325857604052565b6001600160401b03811161325857601f01601f191660200190565b9291926133368261330f565b9161334460405193846132ee565b829481845281830111610972578281602093846000960137010152565b9080601f830112156109725781602061337c9335910161332a565b90565b90815180825260208080930193019160005b82811061339f575050505090565b90919293826040826133c660019489516020809160018060a01b0381511684520151910152565b01950193929101613391565b63ffffffff81511682526020908181015182840152604091613403604083015160c0604087015260c0860190613194565b9161341c60609360608301518782036060890152613194565b9260a0613437608095608085015189820360808b015261337f565b9201519560a08184039101528551938483528383019184808760051b8601019801966000945b8786106134705750505050505050505090565b9091929394959697988780600192601f198582030189528c5190848060a01b03825116815287806134bf6134af868601518d888701528d860190613194565b8a8601518582038c870152613194565b9301519101529b0196019601949796959392919061345d565b906080806135226134f2855160a0865260a0860190613194565b60018060a01b03602087015116602086015260408601511515604086015260608601518582036060870152613194565b93015191015290565b6003111561353557565b634e487b7160e01b600052602160045260246000fd5b906102c061359b61357f63ffffffff9283865116855260208601516020860152604086015190806040870152850190613194565b6060850151606085015260808501518482036080860152613194565b9060018060a01b0360a08501511660a08401528060c08501511660c084015260e08401511660e08301526101008084015190830152610120808401519083015261014080840151906135ec8261352b565b83015261016080840151906136008261352b565b830152610180808401519160028310156135355761364792613633928501526101a08086015190858303908601526133d2565b6101c0808501519084830390850152613194565b916101e0808201519083015261020080820151908301526102206001600160601b0381830151169083015261024080820151908301526102608082015190830152610280808201511515908301526102a080910151151591015290565b6001600160401b0381116132585760051b60200190565b906040516136c881613281565b60a08193600381549163ffffffff928381168652838160201c166020870152600180861b039060401c1660408601526001810154606086015260028101546080860152015416910152565b9190916001600160601b038080941691160291821691820361373157565b634e487b7160e01b600052601160045260246000fd5b63ffffffff918216908216039190821161373157565b90816020910312610972575180151581036109725790565b90600182811c921680156137a5575b602083101461378f57565b634e487b7160e01b600052602260045260246000fd5b91607f1691613784565b8054600093926137be82613775565b9182825260209360019160018116908160001461382657506001146137e5575b5050505050565b90939495506000929192528360002092846000945b838610613812575050505001019038808080806137de565b8054858701830152940193859082016137fa565b60ff19168685015250505090151560051b0101915038808080806137de565b908154613851816136a4565b9260409361386260405191826132ee565b82815280946020809201926000526020600020906000935b85851061388957505050505050565b600484600192845161389a816132b7565b848060a01b03875416815285516138b7816103a781898c016137af565b8382015285516138ce816103a78160028c016137af565b868201526003870154606082015281520193019401939161387a565b6020908181840312610972578051906001600160401b03821161097257019180601f8401121561097257825161391f816136a4565b9361392d60405195866132ee565b818552838086019260051b820101928311610972578301905b828210613954575050505090565b81518152908301908301613946565b600954811015610d4a57600960005260021b7f6e1540171b6c0c960b71a7020d9f60077f6af931a8bbf590da0223dacf75c7af0190600090565b60001981146137315760010190565b8051821015610d4a5760209160051b010190565b90600163ffffffff8093160191821161373157565b91909163ffffffff8080941691160191821161373157565b8181106139f8575050565b600081556001016139ed565b9190601f8111613a1357505050565b613a3f926000526020600020906020601f840160051c83019310613a41575b601f0160051c01906139ed565b565b9091508190613a32565b8054821015610d4a5760005260206000209060011b0190600090565b8054600160401b81101561325857613a8491600182018155613a4b565b919091613ab557805182546001600160a01b0319166001600160a01b03919091161782556020015160019190910155565b634e487b7160e01b600052600060045260246000fd5b90808214613ba457613add8154613775565b906001600160401b03821161325857613afa82610b6f8554613775565b600090601f8311600114613b3957613b2a929160009183613b2e5750508160011b916000199060031b1c19161790565b9055565b015490503880610b23565b815260208082208483528183209291601f1985169083905b828210613b8b575050908460019594939210613b72575b505050811b019055565b015460001960f88460031b161c19169055388080613b68565b8495819295850154815560018091019601940190613b51565b5050565b818114613ba457815491600160401b8311613258578154838355808410613c31575b506000526020600020906000526020600020906000905b838210613bee5750505050565b806001918403613c09575b6002809101930191019091613be1565b818060a01b038154166001600160601b0360a01b855416178455818082015490850155613bf9565b60016001600160ff1b0382811683036137315785168503613731576000908460005260206000209260011b8301928660011b015b838110613c7457505050613bca565b808360029255838382015501613c65565b613c8f8154613775565b9081613c99575050565b81601f60009311600114613cab575055565b908083918252613cca601f60208420940160051c8401600185016139ed565b5555565b818114613ba457815491600160401b8311613258578154838355808410613d77575b506000526020600020906000526020600020906000905b838210613d145750505050565b806001918403613d2f575b6004809101930191019091613d07565b818060a01b038154166001600160601b0360a01b855416178455613d5882808301908601613acb565b613d686002808301908601613acb565b60038082015490850155613d1f565b60026001600160fe1b0382811683036137315785168503613731576000908460005260206000209260021b8301928660021b015b838110613dba57505050613cf0565b808360049255613dcc60018201613c85565b613dd7838201613c85565b83600382015501613dab565b908060209392818452848401376000828201840152601f01601f1916010190565b9190820180921161373157565b60405190613e1e82613281565b606060a083600081526000602082015282604082015282808201528260808201520152565b90604051613e508161323d565b82546001600160a01b031681526001909201546020830152565b908154613e76816136a4565b92613e8460405194856132ee565b818452600090815260208082208186015b848410613ea3575050505050565b600283600192613eb285613e43565b815201920193019290613e95565b90604051613ecd81613281565b60a0613f336005839563ffffffff815416855260018101546020860152604051613efe816103a781600286016137af565b6040860152604051613f17816103a781600386016137af565b6060860152613f2860048201613e6a565b608086015201613845565b910152565b90604051613f458161329c565b608060038294604051613f5c816103a781856137af565b845260018101546001600160a01b038116602086015260a01c60ff16151560408086019190915251613f95816103a781600286016137af565b60608501520154910152565b63ffffffff90613fb0816141d6565b168060005260026020526040600020613fc7614217565b601082015411158061403e575b15613fe857600801805461ff001916905550565b613ff0614217565b601182015410613ffe575050565b600801805461ff001916610100179055614016614217565b907f835839f42ff642197e82f2887491db41a51c32dc7004091799724e9e3d6f2489600080a3565b50614047614217565b60118201541015613fd4565b60405190614060826132d2565b816102a060009182815282602082015260606040820152826060820152606060808201528260a08201528260c08201528260e082015282610100820152826101208201528261014082015282610160820152826101808201526140c1613e11565b6101a082015260606101c0820152826101e082015282610200820152826102208201528261024082015282610260820152826102808201520152565b90614107826136a4565b61411460405191826132ee565b8281528092614125601f19916136a4565b019060005b82811061413657505050565b602090614141614053565b8282850101520161412a565b63ffffffff8091169081146137315760010190565b6001600160a01b039081169081156141bd5760008051602061431583398151915280546001600160a01b031981168417909155167f8be0079c531659141344cd1fd0a4f28419497f9722a3daafe3b4186f6b6457e0600080a3565b604051631e4fbdf760e01b815260006004820152602490fd5b63ffffffff80600054169116116102a857565b60019051106129b857565b6001116129b857565b101561420557565b60405163489eca6760e01b8152600490fd5b6103e8804202904282048114421517156137315781018091116137315790565b600080516020614315833981519152546001600160a01b0316330361425857565b60405163118cdaa760e01b8152336004820152602490fd5b60ff7ff0c57e16840df040f15088dc2f81fe391c3923bec73e23a9662efc9c229c6a005460401c161561429f57565b604051631afcd79f60e31b8152600490fd5b906142d857508051156142c657805190602001fd5b604051630a12f52160e11b8152600490fd5b8151158061430b575b6142e9575090565b604051639996b31560e01b81526001600160a01b039091166004820152602490fd5b50803b156142e156fe9016d09d72d40fdae2fd8ceac6b6234c7706214fd39c1cd1e609a0528c199300a2646970667358221220fe678625b60ba3d6cd197e3a735e63e2536b2932c11affafe4413d0f62f007fe64736f6c63430008180033","linkReferences":{}},"methodIdentifiers":{"UPGRADE_INTERFACE_VERSION()":"ad3cb1cc","checkContractBalance()":"50312c9e","checkUserBalance(address)":"0a9bfef5","createAccount(string,address,string)":"331ef976","createEvent(bytes32,string,string,bytes32,uint32,uint256,uint256,uint256,uint256,uint96,bool,string)":"3294af11","getAllEventGroups()":"909fdec9","getAllEvents()":"c27a500d","getAllGroupMessages(uint32)":"1755b97a","getAllTickets()":"03e96fe3","getAllUser()":"47531df8","getEventById(uint32)":"cd71ed35","getEventGroup(uint32)":"3809f6f5","getEventNFTs(uint32)":"277ec3d4","getGroupMember(uint32,uint256)":"85a646c9","getGroupMembers(uint32)":"ec976a0a","getTicket(address)":"4717dea9","getUser(address)":"6f77926b","getUserNFTs_(address)":"1e2cb131","groupChat(uint32,string)":"be7fb5d7","hasPurchasedTicket(address,uint32)":"17f69df6","initialize(address,address,address)":"c0c53b8b","isRegistered(address)":"c3c5a547","joinGroup(uint32)":"eec932f7","mintNFTsForAttendees(uint32)":"48862857","owner()":"8da5cb5b","proxiableUUID()":"52d1902d","purchaseTicket(uint32,uint32)":"3405741d","refundFee(uint32,uint32)":"0f9fcf48","renounceOwnership()":"715018a6","transferOwnership(address)":"f2fde38b","updateEventStatus(uint32)":"a87f86f9","upgradeToAndCall(address,bytes)":"4f1ef286","withdrawEventFee(uint32)":"b33f650e"},"id":58}