{
  "abi": [
    {
      "type": "function",
      "name": "UPGRADE_INTERFACE_VERSION",
      "inputs": [],
      "outputs": [
        {
          "name": "",
          "type": "string",
          "internalType": "string"
        }
      ],
      "stateMutability": "view"
    },
    {
      "type": "function",
      "name": "checkContractBalance",
      "inputs": [],
      "outputs": [
        {
          "name": "bal_",
          "type": "uint256",
          "internalType": "uint256"
        }
      ],
      "stateMutability": "view"
    },
    {
      "type": "function",
      "name": "checkUserBalance",
      "inputs": [
        {
          "name": "_addr",
          "type": "address",
          "internalType": "address"
        }
      ],
      "outputs": [
        {
          "name": "bal_",
          "type": "uint256",
          "internalType": "uint256"
        }
      ],
      "stateMutability": "view"
    },
    {
      "type": "function",
      "name": "createAccount",
      "inputs": [
        {
          "name": "_email",
          "type": "string",
          "internalType": "string"
        },
        {
          "name": "_addr",
          "type": "address",
          "internalType": "address"
        },
        {
          "name": "_avatar",
          "type": "string",
          "internalType": "string"
        }
      ],
      "outputs": [],
      "stateMutability": "nonpayable"
    },
    {
      "type": "function",
      "name": "createEvent",
      "inputs": [
        {
          "name": "_title",
          "type": "string",
          "internalType": "string"
        },
        {
          "name": "_imageUrl",
          "type": "string",
          "internalType": "string"
        },
        {
          "name": "_description",
          "type": "string",
          "internalType": "string"
        },
        {
          "name": "_location",
          "type": "string",
          "internalType": "string"
        },
        {
          "name": "_capacity",
          "type": "uint32",
          "internalType": "uint32"
        },
        {
          "name": "_regStartTime",
          "type": "uint256",
          "internalType": "uint256"
        },
        {
          "name": "_regEndTime",
          "type": "uint256",
          "internalType": "uint256"
        },
        {
          "name": "_eventStartTime",
          "type": "uint256",
          "internalType": "uint256"
        },
        {
          "name": "_eventEndTime",
          "type": "uint256",
          "internalType": "uint256"
        },
        {
          "name": "_ticketPrice",
          "type": "uint96",
          "internalType": "uint96"
        },
        {
          "name": "_isEventPaid",
          "type": "bool",
          "internalType": "bool"
        }
      ],
      "outputs": [],
      "stateMutability": "nonpayable"
    },
    {
      "type": "function",
      "name": "createGroup",
      "inputs": [
        {
          "name": "_eventId",
          "type": "uint32",
          "internalType": "uint32"
        }
      ],
      "outputs": [],
      "stateMutability": "nonpayable"
    },
    {
      "type": "function",
      "name": "getAllEventGroups",
      "inputs": [],
      "outputs": [
        {
          "name": "",
          "type": "tuple[]",
          "internalType": "struct BlumaProtocol.EventGroup[]",
          "components": [
            {
              "name": "eventId",
              "type": "uint32",
              "internalType": "uint32"
            },
            {
              "name": "title",
              "type": "string",
              "internalType": "string"
            },
            {
              "name": "imageUrl",
              "type": "string",
              "internalType": "string"
            },
            {
              "name": "description",
              "type": "string",
              "internalType": "string"
            },
            {
              "name": "members",
              "type": "tuple[]",
              "internalType": "struct BlumaProtocol.Member[]",
              "components": [
                {
                  "name": "user",
                  "type": "address",
                  "internalType": "address"
                },
                {
                  "name": "joinTime",
                  "type": "uint256",
                  "internalType": "uint256"
                }
              ]
            },
            {
              "name": "messages",
              "type": "tuple[]",
              "internalType": "struct BlumaProtocol.Message[]",
              "components": [
                {
                  "name": "sender",
                  "type": "address",
                  "internalType": "address"
                },
                {
                  "name": "email",
                  "type": "string",
                  "internalType": "string"
                },
                {
                  "name": "text",
                  "type": "string",
                  "internalType": "string"
                },
                {
                  "name": "timestamp",
                  "type": "uint256",
                  "internalType": "uint256"
                }
              ]
            }
          ]
        }
      ],
      "stateMutability": "view"
    },
    {
      "type": "function",
      "name": "getAllEvents",
      "inputs": [],
      "outputs": [
        {
          "name": "",
          "type": "tuple[]",
          "internalType": "struct BlumaProtocol.Event[]",
          "components": [
            {
              "name": "eventId",
              "type": "uint32",
              "internalType": "uint32"
            },
            {
              "name": "title",
              "type": "string",
              "internalType": "string"
            },
            {
              "name": "imageUrl",
              "type": "string",
              "internalType": "string"
            },
            {
              "name": "location",
              "type": "string",
              "internalType": "string"
            },
            {
              "name": "description",
              "type": "string",
              "internalType": "string"
            },
            {
              "name": "creator",
              "type": "address",
              "internalType": "address"
            },
            {
              "name": "seats",
              "type": "uint32",
              "internalType": "uint32"
            },
            {
              "name": "capacity",
              "type": "uint32",
              "internalType": "uint32"
            },
            {
              "name": "regStartTime",
              "type": "uint256",
              "internalType": "uint256"
            },
            {
              "name": "regEndTime",
              "type": "uint256",
              "internalType": "uint256"
            },
            {
              "name": "groups",
              "type": "tuple",
              "internalType": "struct BlumaProtocol.EventGroup",
              "components": [
                {
                  "name": "eventId",
                  "type": "uint32",
                  "internalType": "uint32"
                },
                {
                  "name": "title",
                  "type": "string",
                  "internalType": "string"
                },
                {
                  "name": "imageUrl",
                  "type": "string",
                  "internalType": "string"
                },
                {
                  "name": "description",
                  "type": "string",
                  "internalType": "string"
                },
                {
                  "name": "members",
                  "type": "tuple[]",
                  "internalType": "struct BlumaProtocol.Member[]",
                  "components": [
                    {
                      "name": "user",
                      "type": "address",
                      "internalType": "address"
                    },
                    {
                      "name": "joinTime",
                      "type": "uint256",
                      "internalType": "uint256"
                    }
                  ]
                },
                {
                  "name": "messages",
                  "type": "tuple[]",
                  "internalType": "struct BlumaProtocol.Message[]",
                  "components": [
                    {
                      "name": "sender",
                      "type": "address",
                      "internalType": "address"
                    },
                    {
                      "name": "email",
                      "type": "string",
                      "internalType": "string"
                    },
                    {
                      "name": "text",
                      "type": "string",
                      "internalType": "string"
                    },
                    {
                      "name": "timestamp",
                      "type": "uint256",
                      "internalType": "uint256"
                    }
                  ]
                }
              ]
            },
            {
              "name": "regStatus",
              "type": "uint8",
              "internalType": "enum BlumaProtocol.RegStatus"
            },
            {
              "name": "eventStatus",
              "type": "uint8",
              "internalType": "enum BlumaProtocol.EventStatus"
            },
            {
              "name": "eventType",
              "type": "uint8",
              "internalType": "enum BlumaProtocol.EventType"
            },
            {
              "name": "nftUrl",
              "type": "string",
              "internalType": "string"
            },
            {
              "name": "eventStartTime",
              "type": "uint256",
              "internalType": "uint256"
            },
            {
              "name": "eventEndTime",
              "type": "uint256",
              "internalType": "uint256"
            },
            {
              "name": "ticketPrice",
              "type": "uint96",
              "internalType": "uint96"
            },
            {
              "name": "totalSales",
              "type": "uint256",
              "internalType": "uint256"
            },
            {
              "name": "createdAt",
              "type": "uint256",
              "internalType": "uint256"
            },
            {
              "name": "isCreatorPaid",
              "type": "bool",
              "internalType": "bool"
            },
            {
              "name": "hasMinted",
              "type": "bool",
              "internalType": "bool"
            }
          ]
        }
      ],
      "stateMutability": "view"
    },
    {
      "type": "function",
      "name": "getAllGroupMessages",
      "inputs": [
        {
          "name": "_eventId",
          "type": "uint32",
          "internalType": "uint32"
        }
      ],
      "outputs": [
        {
          "name": "",
          "type": "tuple[]",
          "internalType": "struct BlumaProtocol.Message[]",
          "components": [
            {
              "name": "sender",
              "type": "address",
              "internalType": "address"
            },
            {
              "name": "email",
              "type": "string",
              "internalType": "string"
            },
            {
              "name": "text",
              "type": "string",
              "internalType": "string"
            },
            {
              "name": "timestamp",
              "type": "uint256",
              "internalType": "uint256"
            }
          ]
        }
      ],
      "stateMutability": "view"
    },
    {
      "type": "function",
      "name": "getAllTickets",
      "inputs": [],
      "outputs": [
        {
          "name": "_tickets",
          "type": "tuple[]",
          "internalType": "struct BlumaProtocol.Ticket[]",
          "components": [
            {
              "name": "ticketId",
              "type": "uint32",
              "internalType": "uint32"
            },
            {
              "name": "eventId",
              "type": "uint32",
              "internalType": "uint32"
            },
            {
              "name": "owner",
              "type": "address",
              "internalType": "address"
            },
            {
              "name": "ticketCost",
              "type": "uint256",
              "internalType": "uint256"
            },
            {
              "name": "purchaseTime",
              "type": "uint256",
              "internalType": "uint256"
            },
            {
              "name": "numberOfTicket",
              "type": "uint32",
              "internalType": "uint32"
            }
          ]
        }
      ],
      "stateMutability": "view"
    },
    {
      "type": "function",
      "name": "getAllUser",
      "inputs": [],
      "outputs": [
        {
          "name": "",
          "type": "tuple[]",
          "internalType": "struct BlumaProtocol.User[]",
          "components": [
            {
              "name": "email",
              "type": "string",
              "internalType": "string"
            },
            {
              "name": "userAddr",
              "type": "address",
              "internalType": "address"
            },
            {
              "name": "isRegistered",
              "type": "bool",
              "internalType": "bool"
            },
            {
              "name": "avatar",
              "type": "string",
              "internalType": "string"
            },
            {
              "name": "balance",
              "type": "uint256",
              "internalType": "uint256"
            }
          ]
        }
      ],
      "stateMutability": "view"
    },
    {
      "type": "function",
      "name": "getEventById",
      "inputs": [
        {
          "name": "_eventId",
          "type": "uint32",
          "internalType": "uint32"
        }
      ],
      "outputs": [
        {
          "name": "events_",
          "type": "tuple",
          "internalType": "struct BlumaProtocol.Event",
          "components": [
            {
              "name": "eventId",
              "type": "uint32",
              "internalType": "uint32"
            },
            {
              "name": "title",
              "type": "string",
              "internalType": "string"
            },
            {
              "name": "imageUrl",
              "type": "string",
              "internalType": "string"
            },
            {
              "name": "location",
              "type": "string",
              "internalType": "string"
            },
            {
              "name": "description",
              "type": "string",
              "internalType": "string"
            },
            {
              "name": "creator",
              "type": "address",
              "internalType": "address"
            },
            {
              "name": "seats",
              "type": "uint32",
              "internalType": "uint32"
            },
            {
              "name": "capacity",
              "type": "uint32",
              "internalType": "uint32"
            },
            {
              "name": "regStartTime",
              "type": "uint256",
              "internalType": "uint256"
            },
            {
              "name": "regEndTime",
              "type": "uint256",
              "internalType": "uint256"
            },
            {
              "name": "groups",
              "type": "tuple",
              "internalType": "struct BlumaProtocol.EventGroup",
              "components": [
                {
                  "name": "eventId",
                  "type": "uint32",
                  "internalType": "uint32"
                },
                {
                  "name": "title",
                  "type": "string",
                  "internalType": "string"
                },
                {
                  "name": "imageUrl",
                  "type": "string",
                  "internalType": "string"
                },
                {
                  "name": "description",
                  "type": "string",
                  "internalType": "string"
                },
                {
                  "name": "members",
                  "type": "tuple[]",
                  "internalType": "struct BlumaProtocol.Member[]",
                  "components": [
                    {
                      "name": "user",
                      "type": "address",
                      "internalType": "address"
                    },
                    {
                      "name": "joinTime",
                      "type": "uint256",
                      "internalType": "uint256"
                    }
                  ]
                },
                {
                  "name": "messages",
                  "type": "tuple[]",
                  "internalType": "struct BlumaProtocol.Message[]",
                  "components": [
                    {
                      "name": "sender",
                      "type": "address",
                      "internalType": "address"
                    },
                    {
                      "name": "email",
                      "type": "string",
                      "internalType": "string"
                    },
                    {
                      "name": "text",
                      "type": "string",
                      "internalType": "string"
                    },
                    {
                      "name": "timestamp",
                      "type": "uint256",
                      "internalType": "uint256"
                    }
                  ]
                }
              ]
            },
            {
              "name": "regStatus",
              "type": "uint8",
              "internalType": "enum BlumaProtocol.RegStatus"
            },
            {
              "name": "eventStatus",
              "type": "uint8",
              "internalType": "enum BlumaProtocol.EventStatus"
            },
            {
              "name": "eventType",
              "type": "uint8",
              "internalType": "enum BlumaProtocol.EventType"
            },
            {
              "name": "nftUrl",
              "type": "string",
              "internalType": "string"
            },
            {
              "name": "eventStartTime",
              "type": "uint256",
              "internalType": "uint256"
            },
            {
              "name": "eventEndTime",
              "type": "uint256",
              "internalType": "uint256"
            },
            {
              "name": "ticketPrice",
              "type": "uint96",
              "internalType": "uint96"
            },
            {
              "name": "totalSales",
              "type": "uint256",
              "internalType": "uint256"
            },
            {
              "name": "createdAt",
              "type": "uint256",
              "internalType": "uint256"
            },
            {
              "name": "isCreatorPaid",
              "type": "bool",
              "internalType": "bool"
            },
            {
              "name": "hasMinted",
              "type": "bool",
              "internalType": "bool"
            }
          ]
        }
      ],
      "stateMutability": "view"
    },
    {
      "type": "function",
      "name": "getEventGroup",
      "inputs": [
        {
          "name": "_eventId",
          "type": "uint32",
          "internalType": "uint32"
        }
      ],
      "outputs": [
        {
          "name": "",
          "type": "tuple",
          "internalType": "struct BlumaProtocol.EventGroup",
          "components": [
            {
              "name": "eventId",
              "type": "uint32",
              "internalType": "uint32"
            },
            {
              "name": "title",
              "type": "string",
              "internalType": "string"
            },
            {
              "name": "imageUrl",
              "type": "string",
              "internalType": "string"
            },
            {
              "name": "description",
              "type": "string",
              "internalType": "string"
            },
            {
              "name": "members",
              "type": "tuple[]",
              "internalType": "struct BlumaProtocol.Member[]",
              "components": [
                {
                  "name": "user",
                  "type": "address",
                  "internalType": "address"
                },
                {
                  "name": "joinTime",
                  "type": "uint256",
                  "internalType": "uint256"
                }
              ]
            },
            {
              "name": "messages",
              "type": "tuple[]",
              "internalType": "struct BlumaProtocol.Message[]",
              "components": [
                {
                  "name": "sender",
                  "type": "address",
                  "internalType": "address"
                },
                {
                  "name": "email",
                  "type": "string",
                  "internalType": "string"
                },
                {
                  "name": "text",
                  "type": "string",
                  "internalType": "string"
                },
                {
                  "name": "timestamp",
                  "type": "uint256",
                  "internalType": "uint256"
                }
              ]
            }
          ]
        }
      ],
      "stateMutability": "view"
    },
    {
      "type": "function",
      "name": "getGroupMember",
      "inputs": [
        {
          "name": "_groupId",
          "type": "uint32",
          "internalType": "uint32"
        },
        {
          "name": "_index",
          "type": "uint256",
          "internalType": "uint256"
        }
      ],
      "outputs": [
        {
          "name": "",
          "type": "tuple",
          "internalType": "struct BlumaProtocol.Member",
          "components": [
            {
              "name": "user",
              "type": "address",
              "internalType": "address"
            },
            {
              "name": "joinTime",
              "type": "uint256",
              "internalType": "uint256"
            }
          ]
        }
      ],
      "stateMutability": "view"
    },
    {
      "type": "function",
      "name": "getGroupMembers",
      "inputs": [
        {
          "name": "_eventId",
          "type": "uint32",
          "internalType": "uint32"
        }
      ],
      "outputs": [
        {
          "name": "",
          "type": "tuple[]",
          "internalType": "struct BlumaProtocol.Member[]",
          "components": [
            {
              "name": "user",
              "type": "address",
              "internalType": "address"
            },
            {
              "name": "joinTime",
              "type": "uint256",
              "internalType": "uint256"
            }
          ]
        }
      ],
      "stateMutability": "view"
    },
    {
      "type": "function",
      "name": "getNfts",
      "inputs": [
        {
          "name": "_user",
          "type": "address",
          "internalType": "address"
        }
      ],
      "outputs": [
        {
          "name": "",
          "type": "tuple",
          "internalType": "struct BlumaProtocol.NFT",
          "components": [
            {
              "name": "eventId",
              "type": "uint32",
              "internalType": "uint32"
            },
            {
              "name": "title",
              "type": "string",
              "internalType": "string"
            },
            {
              "name": "owner",
              "type": "address",
              "internalType": "address"
            },
            {
              "name": "nftUrl",
              "type": "string",
              "internalType": "string"
            }
          ]
        }
      ],
      "stateMutability": "view"
    },
    {
      "type": "function",
      "name": "getTicket",
      "inputs": [
        {
          "name": "_addr",
          "type": "address",
          "internalType": "address"
        }
      ],
      "outputs": [
        {
          "name": "_ticket",
          "type": "tuple",
          "internalType": "struct BlumaProtocol.Ticket",
          "components": [
            {
              "name": "ticketId",
              "type": "uint32",
              "internalType": "uint32"
            },
            {
              "name": "eventId",
              "type": "uint32",
              "internalType": "uint32"
            },
            {
              "name": "owner",
              "type": "address",
              "internalType": "address"
            },
            {
              "name": "ticketCost",
              "type": "uint256",
              "internalType": "uint256"
            },
            {
              "name": "purchaseTime",
              "type": "uint256",
              "internalType": "uint256"
            },
            {
              "name": "numberOfTicket",
              "type": "uint32",
              "internalType": "uint32"
            }
          ]
        }
      ],
      "stateMutability": "view"
    },
    {
      "type": "function",
      "name": "getUser",
      "inputs": [
        {
          "name": "_addr",
          "type": "address",
          "internalType": "address"
        }
      ],
      "outputs": [
        {
          "name": "_user",
          "type": "tuple",
          "internalType": "struct BlumaProtocol.User",
          "components": [
            {
              "name": "email",
              "type": "string",
              "internalType": "string"
            },
            {
              "name": "userAddr",
              "type": "address",
              "internalType": "address"
            },
            {
              "name": "isRegistered",
              "type": "bool",
              "internalType": "bool"
            },
            {
              "name": "avatar",
              "type": "string",
              "internalType": "string"
            },
            {
              "name": "balance",
              "type": "uint256",
              "internalType": "uint256"
            }
          ]
        }
      ],
      "stateMutability": "view"
    },
    {
      "type": "function",
      "name": "groupChat",
      "inputs": [
        {
          "name": "_eventId",
          "type": "uint32",
          "internalType": "uint32"
        },
        {
          "name": "_text",
          "type": "string",
          "internalType": "string"
        }
      ],
      "outputs": [],
      "stateMutability": "nonpayable"
    },
    {
      "type": "function",
      "name": "hasPurchasedTicket",
      "inputs": [
        {
          "name": "_user",
          "type": "address",
          "internalType": "address"
        },
        {
          "name": "_eventId",
          "type": "uint32",
          "internalType": "uint32"
        }
      ],
      "outputs": [
        {
          "name": "",
          "type": "bool",
          "internalType": "bool"
        }
      ],
      "stateMutability": "view"
    },
    {
      "type": "function",
      "name": "initialize",
      "inputs": [
        {
          "name": "initialOwner",
          "type": "address",
          "internalType": "address"
        },
        {
          "name": "_blumaToken",
          "type": "address",
          "internalType": "address"
        },
        {
          "name": "_blumaNFT",
          "type": "address",
          "internalType": "address"
        }
      ],
      "outputs": [],
      "stateMutability": "nonpayable"
    },
    {
      "type": "function",
      "name": "isRegistered",
      "inputs": [
        {
          "name": "_addr",
          "type": "address",
          "internalType": "address"
        }
      ],
      "outputs": [
        {
          "name": "",
          "type": "bool",
          "internalType": "bool"
        }
      ],
      "stateMutability": "view"
    },
    {
      "type": "function",
      "name": "joinGroup",
      "inputs": [
        {
          "name": "_eventId",
          "type": "uint32",
          "internalType": "uint32"
        }
      ],
      "outputs": [],
      "stateMutability": "nonpayable"
    },
    {
      "type": "function",
      "name": "mintNFTsForAttendees",
      "inputs": [
        {
          "name": "_eventId",
          "type": "uint32",
          "internalType": "uint32"
        }
      ],
      "outputs": [],
      "stateMutability": "nonpayable"
    },
    {
      "type": "function",
      "name": "mintNft",
      "inputs": [
        {
          "name": "_eventId",
          "type": "uint32",
          "internalType": "uint32"
        },
        {
          "name": "_nftUrl",
          "type": "string",
          "internalType": "string"
        }
      ],
      "outputs": [],
      "stateMutability": "nonpayable"
    },
    {
      "type": "function",
      "name": "owner",
      "inputs": [],
      "outputs": [
        {
          "name": "",
          "type": "address",
          "internalType": "address"
        }
      ],
      "stateMutability": "view"
    },
    {
      "type": "function",
      "name": "proxiableUUID",
      "inputs": [],
      "outputs": [
        {
          "name": "",
          "type": "bytes32",
          "internalType": "bytes32"
        }
      ],
      "stateMutability": "view"
    },
    {
      "type": "function",
      "name": "purchaseTicket",
      "inputs": [
        {
          "name": "_eventId",
          "type": "uint32",
          "internalType": "uint32"
        },
        {
          "name": "_numberOfTickets",
          "type": "uint32",
          "internalType": "uint32"
        }
      ],
      "outputs": [],
      "stateMutability": "nonpayable"
    },
    {
      "type": "function",
      "name": "refundFee",
      "inputs": [
        {
          "name": "_eventId",
          "type": "uint32",
          "internalType": "uint32"
        }
      ],
      "outputs": [],
      "stateMutability": "nonpayable"
    },
    {
      "type": "function",
      "name": "renounceOwnership",
      "inputs": [],
      "outputs": [],
      "stateMutability": "nonpayable"
    },
    {
      "type": "function",
      "name": "transferOwnership",
      "inputs": [
        {
          "name": "newOwner",
          "type": "address",
          "internalType": "address"
        }
      ],
      "outputs": [],
      "stateMutability": "nonpayable"
    },
    {
      "type": "function",
      "name": "updateEventStatus",
      "inputs": [
        {
          "name": "_eventId",
          "type": "uint32",
          "internalType": "uint32"
        }
      ],
      "outputs": [],
      "stateMutability": "nonpayable"
    },
    {
      "type": "function",
      "name": "updateRegStatus",
      "inputs": [
        {
          "name": "_eventId",
          "type": "uint32",
          "internalType": "uint32"
        }
      ],
      "outputs": [],
      "stateMutability": "nonpayable"
    },
    {
      "type": "function",
      "name": "upgradeToAndCall",
      "inputs": [
        {
          "name": "newImplementation",
          "type": "address",
          "internalType": "address"
        },
        {
          "name": "data",
          "type": "bytes",
          "internalType": "bytes"
        }
      ],
      "outputs": [],
      "stateMutability": "payable"
    },
    {
      "type": "function",
      "name": "withdrawEventFee",
      "inputs": [
        {
          "name": "_eventId",
          "type": "uint32",
          "internalType": "uint32"
        }
      ],
      "outputs": [],
      "stateMutability": "nonpayable"
    },
    {
      "type": "event",
      "name": "AttendeesNFTMinted",
      "inputs": [
        {
          "name": "owner",
          "type": "address",
          "indexed": true,
          "internalType": "address"
        },
        {
          "name": "eventId",
          "type": "uint32",
          "indexed": true,
          "internalType": "uint32"
        },
        {
          "name": "numberOfTickets",
          "type": "uint32",
          "indexed": false,
          "internalType": "uint32"
        },
        {
          "name": "tokenId",
          "type": "uint256",
          "indexed": true,
          "internalType": "uint256"
        }
      ],
      "anonymous": false
    },
    {
      "type": "event",
      "name": "EventClosed",
      "inputs": [
        {
          "name": "_eventId",
          "type": "uint32",
          "indexed": true,
          "internalType": "uint32"
        },
        {
          "name": "_currentTime",
          "type": "uint256",
          "indexed": true,
          "internalType": "uint256"
        }
      ],
      "anonymous": false
    },
    {
      "type": "event",
      "name": "EventCreated",
      "inputs": [
        {
          "name": "_totalEventsId",
          "type": "uint32",
          "indexed": true,
          "internalType": "uint32"
        },
        {
          "name": "_seatNumber",
          "type": "uint32",
          "indexed": true,
          "internalType": "uint32"
        },
        {
          "name": "_capacity",
          "type": "uint32",
          "indexed": true,
          "internalType": "uint32"
        }
      ],
      "anonymous": false
    },
    {
      "type": "event",
      "name": "GroupCreated",
      "inputs": [
        {
          "name": "_roomId",
          "type": "uint32",
          "indexed": true,
          "internalType": "uint32"
        },
        {
          "name": "imageUrl",
          "type": "string",
          "indexed": false,
          "internalType": "string"
        },
        {
          "name": "_title",
          "type": "string",
          "indexed": false,
          "internalType": "string"
        }
      ],
      "anonymous": false
    },
    {
      "type": "event",
      "name": "GroupJoinedSuccessfully",
      "inputs": [
        {
          "name": "_sender",
          "type": "address",
          "indexed": true,
          "internalType": "address"
        },
        {
          "name": "_eventId",
          "type": "uint32",
          "indexed": true,
          "internalType": "uint32"
        },
        {
          "name": "_joinedTimw",
          "type": "uint256",
          "indexed": true,
          "internalType": "uint256"
        }
      ],
      "anonymous": false
    },
    {
      "type": "event",
      "name": "Initialized",
      "inputs": [
        {
          "name": "version",
          "type": "uint64",
          "indexed": false,
          "internalType": "uint64"
        }
      ],
      "anonymous": false
    },
    {
      "type": "event",
      "name": "MessageSent",
      "inputs": [
        {
          "name": "sender",
          "type": "address",
          "indexed": true,
          "internalType": "address"
        },
        {
          "name": "groupId",
          "type": "uint32",
          "indexed": true,
          "internalType": "uint32"
        },
        {
          "name": "text",
          "type": "string",
          "indexed": false,
          "internalType": "string"
        },
        {
          "name": "timestamp",
          "type": "uint256",
          "indexed": false,
          "internalType": "uint256"
        }
      ],
      "anonymous": false
    },
    {
      "type": "event",
      "name": "NftMintedSuccessful",
      "inputs": [
        {
          "name": "sender",
          "type": "address",
          "indexed": true,
          "internalType": "address"
        },
        {
          "name": "nftUrl",
          "type": "string",
          "indexed": true,
          "internalType": "string"
        },
        {
          "name": "eventId",
          "type": "uint32",
          "indexed": true,
          "internalType": "uint32"
        },
        {
          "name": "title",
          "type": "string",
          "indexed": false,
          "internalType": "string"
        }
      ],
      "anonymous": false
    },
    {
      "type": "event",
      "name": "OwnershipTransferred",
      "inputs": [
        {
          "name": "previousOwner",
          "type": "address",
          "indexed": true,
          "internalType": "address"
        },
        {
          "name": "newOwner",
          "type": "address",
          "indexed": true,
          "internalType": "address"
        }
      ],
      "anonymous": false
    },
    {
      "type": "event",
      "name": "RefundIssued",
      "inputs": [
        {
          "name": "buyer",
          "type": "address",
          "indexed": true,
          "internalType": "address"
        },
        {
          "name": "_ticketId",
          "type": "uint32",
          "indexed": true,
          "internalType": "uint32"
        },
        {
          "name": "_eventId",
          "type": "uint32",
          "indexed": true,
          "internalType": "uint32"
        },
        {
          "name": "amount",
          "type": "uint256",
          "indexed": false,
          "internalType": "uint256"
        }
      ],
      "anonymous": false
    },
    {
      "type": "event",
      "name": "RegistrationClose",
      "inputs": [
        {
          "name": "_currentTime",
          "type": "uint256",
          "indexed": true,
          "internalType": "uint256"
        },
        {
          "name": "_status",
          "type": "uint8",
          "indexed": true,
          "internalType": "uint8"
        }
      ],
      "anonymous": false
    },
    {
      "type": "event",
      "name": "TicketPurchased",
      "inputs": [
        {
          "name": "buyer",
          "type": "address",
          "indexed": true,
          "internalType": "address"
        },
        {
          "name": "_eventId",
          "type": "uint32",
          "indexed": true,
          "internalType": "uint32"
        },
        {
          "name": "numberOfTickets",
          "type": "uint32",
          "indexed": false,
          "internalType": "uint32"
        }
      ],
      "anonymous": false
    },
    {
      "type": "event",
      "name": "Upgraded",
      "inputs": [
        {
          "name": "implementation",
          "type": "address",
          "indexed": true,
          "internalType": "address"
        }
      ],
      "anonymous": false
    },
    {
      "type": "error",
      "name": "ALREADY_A_MEMBER",
      "inputs": []
    },
    {
      "type": "error",
      "name": "ALREADY_PAID",
      "inputs": []
    },
    {
      "type": "error",
      "name": "AddressEmptyCode",
      "inputs": [
        {
          "name": "target",
          "type": "address",
          "internalType": "address"
        }
      ]
    },
    {
      "type": "error",
      "name": "EMPTY_INPUT_FIELD",
      "inputs": []
    },
    {
      "type": "error",
      "name": "ERC1967InvalidImplementation",
      "inputs": [
        {
          "name": "implementation",
          "type": "address",
          "internalType": "address"
        }
      ]
    },
    {
      "type": "error",
      "name": "ERC1967NonPayable",
      "inputs": []
    },
    {
      "type": "error",
      "name": "EVENT_NOT_CLOSED",
      "inputs": []
    },
    {
      "type": "error",
      "name": "FailedInnerCall",
      "inputs": []
    },
    {
      "type": "error",
      "name": "GROUP_ALREADY_EXISTS",
      "inputs": []
    },
    {
      "type": "error",
      "name": "INSUFFICIENT_BALANCE",
      "inputs": []
    },
    {
      "type": "error",
      "name": "INSUFFICIENT_TICKET_PURCHASED",
      "inputs": []
    },
    {
      "type": "error",
      "name": "INVALID_EVENT_ID",
      "inputs": []
    },
    {
      "type": "error",
      "name": "INVALID_ID",
      "inputs": []
    },
    {
      "type": "error",
      "name": "INVALID_NOT_AUTHORIZED",
      "inputs": []
    },
    {
      "type": "error",
      "name": "InvalidInitialization",
      "inputs": []
    },
    {
      "type": "error",
      "name": "NFT_ALREADY_MINTED",
      "inputs": []
    },
    {
      "type": "error",
      "name": "NOT_CREATOR",
      "inputs": []
    },
    {
      "type": "error",
      "name": "NOT_ENOUGH_AVAILABLE_SEAT",
      "inputs": []
    },
    {
      "type": "error",
      "name": "NOT_OWNER",
      "inputs": []
    },
    {
      "type": "error",
      "name": "NOT_PAID_EVENT",
      "inputs": []
    },
    {
      "type": "error",
      "name": "NO_ALLOWANCE",
      "inputs": []
    },
    {
      "type": "error",
      "name": "NotInitializing",
      "inputs": []
    },
    {
      "type": "error",
      "name": "OwnableInvalidOwner",
      "inputs": [
        {
          "name": "owner",
          "type": "address",
          "internalType": "address"
        }
      ]
    },
    {
      "type": "error",
      "name": "OwnableUnauthorizedAccount",
      "inputs": [
        {
          "name": "account",
          "type": "address",
          "internalType": "address"
        }
      ]
    },
    {
      "type": "error",
      "name": "REGISTRATION_CLOSE",
      "inputs": []
    },
    {
      "type": "error",
      "name": "REGISTRATION_NOT_CLOSED",
      "inputs": []
    },
    {
      "type": "error",
      "name": "REGISTRATION_NOT_OPEN",
      "inputs": []
    },
    {
      "type": "error",
      "name": "UUPSUnauthorizedCallContext",
      "inputs": []
    },
    {
      "type": "error",
      "name": "UUPSUnsupportedProxiableUUID",
      "inputs": [
        {
          "name": "slot",
          "type": "bytes32",
          "internalType": "bytes32"
        }
      ]
    }
  ],
  "bytecode": {
    "object": "0x60a0806040523461002a57306080526149d89081610030823960805181818161175301526118950152f35b600080fdfe6080604052600436101561001257600080fd5b60e060003560e01c90816303e96fe3146135325781630a9bfef5146134f55781631755b97a1461341a57816317f69df6146133c157816325f3724b146126c4578163331ef9761461239e5781633405741d14611f2b5781633809f6f514611ec857816344cc2afe14611dd05781634717dea914611d5e57816347531df814611c745781634886285714611a745781634f1ef2861461184657816350312c9e146117bd57816352d1902d14611740578163654a3c6d146114cc5781636f77926b14611457578163715018a6146113ed57816385a646c91461135d5781638da5cb5b146113275781638fd9baca1461106b578163909fdec914610f81578163a87f86f914610f60578163ad3cb1cc14610f1a578163b33f650e14610dd2578163bce888fb14610db1578163bdacb17a14610b78578163be7fb5d71461099d578163c0c53b8b1461082b578163c27a500d1461056c57508063c3c5a54714610527578063cd71ed351461034e578063ec976a0a146102d5578063eec932f7146101d15763f2fde38b146101a157600080fd5b346101cc5760203660031901126101cc576101ca6101bd613649565b6101c56148a5565b6147fe565b005b600080fd5b346101cc576020806003193601126101cc576101eb613675565b906101f582614892565b63ffffffff809216918260005260028252604060002090815416156102c3573360005260068252604060002083600052825260ff604060002054166102b15761025d90600c610242614872565b916040519261025084613724565b33845285840152016144c7565b336000526006815260406000209082600052526040600020600160ff19825416179055610288614872565b90337ff11404c60069f7d8b6ecebb855f6ac5080f851b85152f4cb855640c49a30c2dd600080a4005b60405163cea6102760e01b8152600490fd5b6040516316a7994d60e21b8152600490fd5b346101cc5760203660031901126101cc576102ee613675565b6102f781614892565b63ffffffff80911660005260026020526040600020908154161561033c57610324600c6103389201614365565b604051918291602083526020830190613807565b0390f35b60405163e955b73b60e01b8152600490fd5b346101cc5760203660031901126101cc5761033861036a613675565b610372613dd3565b5061037c81614892565b63ffffffff809116600052600260205260ff60156040600020604051936103a28561375a565b8082541685526040516103c3816103bc8160018701613c39565b0382613776565b60208601526040516103dc816103bc8160028701613c39565b60408601526040516103f5816103bc8160038701613c39565b606086015260405161040e816103bc8160048701613c39565b6080860152600582015460018060a01b03811660a0870152818160a01c1660c087015260c01c1660e08501526006810154610100850152600781015461012085015261045c600882016143bb565b6101408501526104a083600e83015481811661047781613a18565b610160880152818160081c1661048c81613a18565b61018088015260101c166101a08601613e7a565b6040516104b4816103bc81600f8601613c39565b6101c085015260108101546101e085015260118101546102008501526001600160601b03601282015416610220850152601381015461024085015260148101546102608501520154818116151561028084015260081c1615156102a0820152604051918291602083526020830190613a22565b346101cc5760203660031901126101cc576001600160a01b03610548613649565b166000526001602052602060ff60016040600020015460a01c166040519015158152f35b346101cc5760003660031901126101cc5763ffffffff9081600054169161059283614785565b9060009060015b8181168681116107825760005260026020908082526040600020908482541692836105d1575b505050506105cc906147d5565b610599565b926105cc9496926103bc6106226107729461077897604051956105f38761375a565b8652604051906106118261060a8160018a01613c39565b0383613776565b860152604051928380928601613c39565b604083015260405161063b816103bc8160038601613c39565b6060830152604051610654816103bc8160048601613c39565b608083015286600582015460a060018060a01b03821681860152828260c0921c16818601521c168a8301526006810154610100830152600781015461012083015260086106a28183016143bb565b6101408401526015600e8301549260ff938481166106bf81613a18565b6101608701528481851c166106d381613a18565b6101808701526106ed85601092831c166101a08801613e7a565b604051610701816103bc81600f8701613c39565b6101c08701528101546101e086015260118101546102008601526001600160601b036012820154166102208601526013810154610240860152601481015461026086015201549082821615156102808501521c1615156102a08201528583169061076b828a6147ea565b52876147ea565b506147d5565b92908780806105bf565b50508091169161079183614785565b9260005b838116828110156107cc5784916107c4826107b2600194886147ea565b516107bd828b6147ea565b52886147ea565b500116610795565b6040805160208082528851818301819052600093600582901b8401810192808c01929185015b8287106107ff5785850386f35b90919293828061081b600193603f198a82030186528851613a22565b96019201960195929190926107f2565b346101cc5760603660031901126101cc57610844613649565b61084c61365f565b6001600160a01b03919060443583811691908290036101cc577ff0c57e16840df040f15088dc2f81fe391c3923bec73e23a9662efc9c229c6a0093845460ff8160401c1615946001600160401b03821680159081610995575b600114908161098b575b159081610982575b506109705767ffffffffffffffff19821660011787556108e89186610951575b506108e06148de565b6101c56148de565b6108f06148de565b6001600160601b0360a01b911681600c541617600c55600d541617600d5561091457005b68ff00000000000000001981541690557fc7f505b2f371ae2175ee4913f4499e1f2633a7b5936321eed1cdaeb6115181d2602060405160018152a1005b68ffffffffffffffffff191668010000000000000001178755876108d7565b60405163f92ee8a960e01b8152600490fd5b905015886108b7565b303b1591506108af565b8791506108a5565b346101cc576109ab366139bf565b916109b581614892565b60016109c23685856137b2565b5110610b665763ffffffff809116928360005260209260028452604060002092835416156102c35760058301546001600160a01b03163314610b3e575b3360005260068452604060002085600052845260ff6040600020541615610b2c5760405192610a2d846136db565b60008452600d8585019160608352604086016060815261060a6060880194600086523360005260018a52610a6b604060002060405193848092613c39565b52338752610a7a3687876137b2565b9052610a84614872565b83520190815491600160401b831015610b165760018301808255831015610b00577fd643c4cb96915f246339ac52f899dfc112f2ccf8254cca6b9cb9d0b8f0276e1095610af493610ae092600052886000209060021b0161401f565b519160405193604085526040850191614628565b938201528033930390a3005b634e487b7160e01b600052603260045260246000fd5b634e487b7160e01b600052604160045260246000fd5b60405163082e385d60e01b8152600490fd5b336000526006845260406000208560005284526040600020600160ff198254161790556109ff565b604051631ee8943b60e21b8152600490fd5b346101cc576020806003193601126101cc57610b92613675565b90610b9c82614892565b63ffffffff91828116928360005260028352610bbc6040600020926146fb565b3360005260038352604060002090600e83015460ff8160101c166002811015610d9b57610d895760ff16610bef81613a18565b610d775781546001600160a01b039033604082901c831603610d6557828791871c1603610d53578160038401541660018110610d41576001600160601b03610c3d81601288015416836142fb565b1694600581019184835460a01c160391848311610d2b57805463ffffffff60a01b191660a09390931b63ffffffff60a01b1692909217909155601301805490858203918211610d2b5755600c5460405163a9059cbb60e01b8152336004820152602481018690529391869185916044918391600091165af1928315610d1f577f4f6fb365c29f3632d91fcd919dbfdf50155c34cd0ea613bd43e7e76529fec43593610cf2575b505416926040519283523392a4005b610d1190863d8811610d18575b610d098183613776565b810190614319565b5086610ce3565b503d610cff565b6040513d6000823e3d90fd5b634e487b7160e01b600052601160045260246000fd5b60405163a2ed46e160e01b8152600490fd5b60405163b790ffed60e01b8152600490fd5b6040516338ebc58960e11b8152600490fd5b604051630738c50360e41b8152600490fd5b6040516380e4469160e01b8152600490fd5b634e487b7160e01b600052602160045260246000fd5b346101cc5760203660031901126101cc576101ca610dcd613675565b6146fb565b346101cc576020806003193601126101cc57610dec613675565b610df581614892565b63ffffffff8116600052600282526040600020903360005260018352610e1f604060002091614649565b600160ff600e84015460081c16610e3581613a18565b03610f085760058201546001600160a01b03903390821603610ef657601583019081549060ff8216610ee45760038694610ebe94600160136000990195898754975560ff191617905501610e8a838254614331565b9055600c5460405163a9059cbb60e01b81523360048201526024810193909352919485939190921691839182906044820190565b03925af18015610d1f57610ece57005b816101ca92903d10610d1857610d098183613776565b60405163d2e53ca760e01b8152600490fd5b604051632cff942760e01b8152600490fd5b604051631988a70d60e01b8152600490fd5b346101cc5760003660031901126101cc57610338604051610f3a81613724565b60058152640352e302e360dc1b602082015260405191829160208352602083019061369b565b346101cc5760203660031901126101cc576101ca610f7c613675565b614649565b346101cc5760003660031901126101cc57600954610f9e81613b90565b90610fac6040519283613776565b808252602090818301908160096000527f6e1540171b6c0c960b71a7020d9f60077f6af931a8bbf590da0223dacf75c7af6000915b8383106110485750505050604051918083019381845251809452604083019360408160051b85010192916000955b82871061101c5785850386f35b909192938280611038600193603f198a8203018652885161385a565b960192019601959291909261100f565b60068660019261105a859a999a6143bb565b815201920192019190959495610fe1565b346101cc57611079366139bf565b919082156112ec5763ffffffff809216600052602090600282526040600020928084541680156102c35760058501546001600160a01b03939084163303610b2c57336000526007855260406000209163ffffffff1983541617825560028201336001600160601b0360a01b8254161790556001966110fc8880850198018861421e565b60038301946001600160401b038211610b16576111238261111d8854613bff565b88613e9d565b600082601f8111600114611284578061115292600091611279575b508160011b916000199060031b1c19161790565b86555b600d541691823b156101cc576111939260009283604051809681958294636902622f60e11b8452336004850152604060248501526044840191614628565b03925af18015610d1f5761126a575b50541693604051916000918154916111b983613bff565b9282811690811561124f5750600114611213575b505050817f8c6653ecb56f1604fdb19b4dd01ceb99a9e9fb9699223449f110cbb5accd38d89261120e92039020936040519182918583523395830190613c39565b0390a4005b909192506000528360002090846000925b84841061123d575050509082019050818061120e6111cd565b80548685015292019185908201611224565b60ff191686525050508015150282019050818061120e6111cd565b61127390613711565b866111a2565b90508501358c61113e565b50601f19831690876000528389600020928c8b6000915b8383106112d357505050106112b9575b50508882811b018655611155565b840135600019600385901b60f8161c1916905589806112ab565b858a013587559095019493840193879350018b8e61129b565b60405162461bcd60e51b81526020600482015260136024820152724e46542063616e6e6f7420626520656d70747960681b6044820152606490fd5b346101cc5760003660031901126101cc57600080516020614983833981519152546040516001600160a01b039091168152602090f35b346101cc5760403660031901126101cc57611376613675565b63ffffffff602435916000602060405161138f81613724565b828152015261139d81614892565b16600052600460205260046040600020019081548110156102c3576113c76113cd916040936144ab565b5061433e565b815181516001600160a01b0316815260209182015191810191909152f35bf35b346101cc5760003660031901126101cc576114066148a5565b60008051602061498383398151915280546001600160a01b031981169091556000906001600160a01b03167f8be0079c531659141344cd1fd0a4f28419497f9722a3daafe3b4186f6b6457e08280a3005b346101cc5760203660031901126101cc57611470613649565b600060806040516114808161373f565b60608152826020820152826040820152606080820152015260018060a01b031660005260016020526103386114b86040600020614442565b60405191829160208352602083019061396c565b346101cc5760203660031901126101cc5763ffffffff806114eb613675565b1660005260026020526040600020818154169081156102c35760058101805490926001600160a01b0392909183163303610b2c57600881019463ffffffff1992838754161786556009820195611544600184018861421e565b600a830193611556600285018661421e565b611594600b85019661156b600487018961421e565b600c860198541661157a614872565b6040519161158783613724565b82526020820152886144c7565b60095496600160401b881015610b16576001880180600955881015610b0057886116369761164496859460067ffc11613b01ba3b178277748ad3ec5529ed312225618063459881a4d1dad390689c6009600052029488867f6e1540171b6c0c960b71a7020d9f60077f6af931a8bbf590da0223dacf75c7af0194888603611649575b505050505050505050541694604051938493604085526040850190613c39565b908382036020850152613c39565b0390a2005b6116ae7f6e1540171b6c0c960b71a7020d9f60077f6af931a8bbf590da0223dacf75c7b497600d9761172a96611702956117329d5416908254161790557f6e1540171b6c0c960b71a7020d9f60077f6af931a8bbf590da0223dacf75c7b08a0161421e565b6116da8d7f6e1540171b6c0c960b71a7020d9f60077f6af931a8bbf590da0223dacf75c7b18a0161421e565b7f6e1540171b6c0c960b71a7020d9f60077f6af931a8bbf590da0223dacf75c7b2880161421e565b7f6e1540171b6c0c960b71a7020d9f60077f6af931a8bbf590da0223dacf75c7b38601614514565b01910161458e565b808888818080808881611616565b346101cc5760003660031901126101cc577f00000000000000000000000000000000000000000000000000000000000000006001600160a01b031630036117ab5760206040517f360894a13ba1a3210667c828492db98dca3e2076cc3735a920a3ca505d382bbc8152f35b60405163703e46dd60e11b8152600490fd5b346101cc5760003660031901126101cc57600c546040516370a0823160e01b815230600482015290602090829060249082906001600160a01b03165afa8015610d1f57600090611813575b602090604051908152f35b506020813d60201161183e575b8161182d60209383613776565b810103126101cc5760209051611808565b3d9150611820565b60403660031901126101cc5761185a613649565b6024356001600160401b0381116101cc57366023820112156101cc5761188a9036906024816004013591016137b2565b906001600160a01b037f00000000000000000000000000000000000000000000000000000000000000008116308114908115611a46575b506117ab576118ce6148a5565b6040516352d1902d60e01b8152908216916020918281600481875afa60009181611a17575b5061191157604051634c9c8ce360e01b815260048101859052602490fd5b9284937f360894a13ba1a3210667c828492db98dca3e2076cc3735a920a3ca505d382bbc908181036119ff5750823b156119e65780546001600160a01b03191682179055604051907fbc7cd75a20ee27fd9adebab32041f755214dbc6bffa90cc0225b39da2e5c2d3b600080a28351156119cc575060008084846101ca96519101845af4903d156119c3573d6119a681613797565b906119b46040519283613776565b8152600081943d92013e61491f565b6060925061491f565b92505050346119d757005b63b398979f60e01b8152600490fd5b604051634c9c8ce360e01b815260048101839052602490fd5b60249060405190632a87526960e21b82526004820152fd5b9091508381813d8311611a3f575b611a2f8183613776565b810103126101cc575190866118f3565b503d611a25565b9050817f360894a13ba1a3210667c828492db98dca3e2076cc3735a920a3ca505d382bbc54161415846118c1565b346101cc576020806003193601126101cc5763ffffffff80611a94613675565b1680600052600283526040600020908282541615610d5357611ab4614872565b600783015411611c6257601582019260ff845460081c16611c505760005b600a54811015611c41578282611ae7836141e4565b5054881c161480611c22575b611b00575b600101611ad2565b600d546040516365507c9560e11b81526001600160a01b0391821692918882600481875afa918215610d1f57600092611bf3575b5080611b3f846141e4565b505460401c16843b156101cc57600090604051958691636902622f60e11b8352600483015260406024830152818381611b7f8d600f604484019101613c39565b03925af1908115610d1f576001948792611be4575b50611b9e846141e4565b505460401c167f66555f994e1af4e5e9289ab0b1a3dd45aa678a9d41cba0aa1f064e78f5d039828a876003611bd2886141e4565b50015416604051908152a49050611af8565b611bed90613711565b8a611b94565b9091508881813d8311611c1b575b611c0b8183613776565b810103126101cc57519089611b34565b503d611c01565b50611c2c816141e4565b505460401c6001600160a01b03161515611af3565b845461ff001916610100178555005b60405163c1d7938360e01b8152600490fd5b604051630f036da960e21b8152600490fd5b346101cc5760003660031901126101cc57600b54611c9181613b90565b90611c9f6040519283613776565b8082526020908183019081600b6000527f0175b7a638427703f0dbe7bb9bbf987a2551717b34e79f33b5b1008d1fa01db96000915b838310611d3b5750505050604051918083019381845251809452604083019360408160051b85010192916000955b828710611d0f5785850386f35b909192938280611d2b600193603f198a8203018652885161396c565b9601920196019592919092611d02565b600486600192611d4d859a999a614442565b815201920192019190959495611cd4565b346101cc5760203660031901126101cc57611d77613649565b600060a0604051611d87816136f6565b828152826020820152826040820152826060820152826080820152015260018060a01b0316600052600360205260c0611dc36040600020613ba7565b6113eb6040518092613600565b346101cc576020806003193601126101cc57611dea613649565b606080604051611df9816136db565b60008152818582015260006040820152015260018060a01b03809116600052600782526103386040600020600360405193611e33856136db565b611eae63ffffffff9687855416875260405190611e578261060a8160018a01613c39565b808801918252611e86846002880154169660408a01978852611e7f6040518098819301613c39565b0386613776565b60608801948552604051988998828a52511690880152516080604088015260a087019061369b565b925116606085015251838203601f1901608085015261369b565b346101cc5760203660031901126101cc57611ee1613675565b611ee9613da1565b5063ffffffff80911660005260026020526040600020908154161561033c57611f17600861033892016143bb565b60405191829160208352602083019061385a565b346101cc5760403660031901126101cc57611f44613675565b611f4c613688565b611f5582614892565b63ffffffff918281169283600052602090600282526040600020600e810160ff815416611f8181613a18565b61238c5760058201611fbc611f9c8886845460a01c16613d89565b825463ffffffff60a01b191660a09190911b63ffffffff60a01b16178255565b5483808260c01c169160a01c161161237a5760005467ffffffff00000000611fe78583881c16613d74565b861b169067ffffffff00000000191617600055336000526003845260406000209160ff6000925460101c166002811015610d9b57156121e5575b506000548254600160401b600160e01b031991861c85169190911667ffffffff00000001600160e01b0319909116173360401b600160401b600160e01b031617825563ffffffff19906120a0612075614872565b9660028501978855849067ffffffff0000000082549160201b169067ffffffff000000001916179055565b6120af60018401918254614331565b81556003830192835483866120c68b828516613d89565b169116178455600a54600160401b811015610b16578060016120eb9201600a556141e4565b6121cf577fc541e3defd92fd2d8306e9c91b36c15f096115c41c7a9a36ac548a487d8891aa978693838303612151575b50505050505050336000526005825260406000208560005282526040600020600160ff19825416179055604051931683523392a3005b83548354871690861617808455845467ffffffff0000000019909116908a1c861660201b67ffffffff00000000161783556003936121ac90548454600160401b600160e01b031916600160401b600160e01b03909116178455565b54600183015554600282015501925416908254161790558580828180808061211b565b634e487b7160e01b600052600060045260246000fd5b90506001600160601b03612201816012840154168589166142fb565b169060018060a01b03600c5416906040516370a0823160e01b81523360048201528681602481865afa8015610d1f578491600091612349575b501061233757604051636eb1769f60e11b81523360048201523060248201528681604481865afa8015610d1f578491600091612306575b50106122f457856000926064604051809581936323b872dd60e01b83523360048401523060248401528860448401525af1918215610d1f576013926122d7575b50016122be828254614331565b9055600182016122cf828254614331565b905587612021565b6122ed90873d8911610d1857610d098183613776565b50896122b1565b60405163ea75ebd560e01b8152600490fd5b809250888092503d8311612330575b61231f8183613776565b810103126101cc578390518b612271565b503d612315565b604051632858f9ab60e11b8152600490fd5b809250888092503d8311612373575b6123628183613776565b810103126101cc578390518b61223a565b503d612358565b6040516374a227cd60e01b8152600490fd5b6040516305fb6d9960e41b8152600490fd5b346101cc5760603660031901126101cc576001600160401b036004358181116101cc576123cf9036906004016137e9565b906123d861365f565b6044358281116101cc576123f09036906004016137e9565b9260019182825110610b665782855110610b665760018060a01b038091169283600052602095818752604060002093805190878211610b16576124378261111d8854613bff565b8890601f831160011461266257612467929160009183612657575b50508160011b916000199060031b1c19161790565b84555b818401956affffffffffffffffffffff60a81b95600160a01b90878954161717875560028501978251918211610b16576124ae826124a88b54613bff565b8b613e9d565b80601f83116001146125f3575081906124dd936000926125e85750508160011b916000199060031b1c19161790565b86555b600b5490600160401b821015610b1657810180600b55811015610b0057600b60005260021b94857f0175b7a638427703f0dbe7bb9bbf987a2551717b34e79f33b5b1008d1fa01db9019183830361253357005b7f0175b7a638427703f0dbe7bb9bbf987a2551717b34e79f33b5b1008d1fa01dbc95600395612565866125e19661421e565b7f0175b7a638427703f0dbe7bb9bbf987a2551717b34e79f33b5b1008d1fa01dba89019282541690835492826001600160601b0360a01b851617855560ff8060a01b915460a01c16151560a01b169216171790557f0175b7a638427703f0dbe7bb9bbf987a2551717b34e79f33b5b1008d1fa01dbb860161421e565b0154910155005b015190508980612452565b908493601f1984168b60005283600020936000905b82821061263e5750508411612625575b505050811b0186556124e0565b015160001960f88460031b161c19169055888080612618565b8484015186558897909501949384019390810190612608565b015190508a80612452565b849291601f19831691886000528b6000209260005b8d8282106126ae5750508411612695575b505050811b01845561246a565b015160001960f88460031b161c19169055898080612688565b8385015186558997909501949384019301612677565b346101cc576101603660031901126101cc576004356001600160401b0381116101cc576126f59036906004016137e9565b6024356001600160401b0381116101cc576127149036906004016137e9565b60449182356001600160401b0381116101cc576127359036906004016137e9565b9160649283356001600160401b0381116101cc576127579036906004016137e9565b916084359563ffffffff871687036101cc5761012435956001600160601b03871687036101cc5761014435151561014435036101cc578551156133875782511561334557835115613303578451156132c15760c43560a43511613266576101043560e435116132125750506000549363ffffffff6127d6818716613d74565b16809563ffffffff1916176000556127ec613dd3565b9560a4356127f8614872565b10156132055760026101608801525b61014435156131ef5760006101a08801526001600160601b03166102208701525b8486526020860152604085015260808401523360a0840152606083015263ffffffff831660e083015260a43561010083015260c43561012083015260e4356101e0830152610104356102008301526002610180830152612886614872565b610260830152600052600260205260406000209063ffffffff81511663ffffffff1983541617825560208101519283516001600160401b038111610b16576128de816128d56001870154613bff565b60018701613e9d565b6020601f8211600114613180578190612910939495966000926130285750508160011b916000199060031b1c19161790565b60018401555b60408201519283516001600160401b038111610b16576129468161293d6002850154613bff565b60028501613e9d565b6020601f8211600114613111578190612978939495966000926130285750508160011b916000199060031b1c19161790565b60028201555b60608301519283516001600160401b038111610b16576129ae816129a56003860154613bff565b60038601613e9d565b6020601f82116001146130a25781906129e0939495966000926130285750508160011b916000199060031b1c19161790565b60038301555b60808101519283516001600160401b038111610b1657612a1681612a0d6004870154613bff565b60048701613e9d565b6020601f8211600114613033578190612a48939495966000926130285750508160011b916000199060031b1c19161790565b60048401555b60a08281015160058501805460c08087015160e088015163ffffffff60c01b921b91909116941b63ffffffff60a01b166001600160a01b039093166001600160e01b0319909116179190911791909117905561010082015160068401556101208201516007840155610140820151805160088501805463ffffffff90921663ffffffff1990921691909117905560208101518051906001600160401b038211610b1657612b0b82612b026009890154613bff565b60098901613e9d565b602090601f8311600114612fb657612b3b929160009183612df85750508160011b916000199060031b1c19161790565b60098501555b60408101518051906001600160401b038211610b1657612b7182612b68600a890154613bff565b600a8901613e9d565b602090601f8311600114612f4457612ba1929160009183612df85750508160011b916000199060031b1c19161790565b600a8501555b60608101518051906001600160401b038211610b1657612bd782612bce600b890154613bff565b600b8901613e9d565b602090601f8311600114612ed257612c07929160009183612df85750508160011b916000199060031b1c19161790565b600b8501555b60808101516020815191612c2483600c8901613ee4565b01600c860160005260206000206000915b838310612e92575050505060a0600d8501910151906020825192612c598484613f9a565b019060005260206000206000915b838310612e745750505050610160820151612c8181613a18565b612c8a81613a18565b600e84015461018084015190612c9f82613a18565b612ca882613a18565b6101a0850151906002821015610d9b5760ff62ff000061ff009360101b1694169062ffffff1916179160081b161717600e8401556101c08201519283516001600160401b038111610b1657612d0d81612d04600f850154613bff565b600f8501613e9d565b6020601f8211600114612e03579080612d41926015959697600092612df85750508160011b916000199060031b1c19161790565b600f8201555b6101e084015160108201556102008401516011820155601281016001600160601b03610220860151166001600160601b031982541617905561024084015160138201556102608401516014820155016102808301511515815460ff61ff006102a0870151151560081b1692169061ffff19161717905563ffffffff60c0818060005416931693015116907fac3c2fbb08f906d92c1b4be6fa025f63708bafa70869110e931d718b9532c411600080a4005b015190508780612452565b601f19821695600f840160005260206000209660005b818110612e5c575091601595969791846001959410612e43575b505050811b01600f820155612d47565b015160001960f88460031b161c19169055868080612e33565b83830151895560019098019760209384019301612e19565b6004602082612e86600194518661401f565b01920192019190612c67565b6002602082612ec66001945186906020600191828060a01b038151166001600160601b0360a01b8554161784550151910155565b01920192019190612c35565b9190600b87016000526020600020906000935b601f1984168510612f29576001945083601f19811610612f10575b505050811b01600b850155612c0d565b015160001960f88460031b161c19169055868080612f00565b81810151835560209485019460019093019290910190612ee5565b9190600a87016000526020600020906000935b601f1984168510612f9b576001945083601f19811610612f82575b505050811b01600a850155612ba7565b015160001960f88460031b161c19169055868080612f72565b81810151835560209485019460019093019290910190612f57565b9190600987016000526020600020906000935b601f198416851061300d576001945083601f19811610612ff4575b505050811b016009850155612b41565b015160001960f88460031b161c19169055868080612fe4565b81810151835560209485019460019093019290910190612fc9565b015190508680612452565b6004850160005260206000209060005b601f198416811061308a575060019394959683601f19811610613071575b505050811b016004840155612a4e565b015160001960f88460031b161c19169055858080613061565b9091602060018192858b015181550193019101613043565b6003840160005260206000209060005b601f19841681106130f9575060019394959683601f198116106130e0575b505050811b0160038301556129e6565b015160001960f88460031b161c191690558580806130d0565b9091602060018192858b0151815501930191016130b2565b6002830160005260206000209060005b601f1984168110613168575060019394959683601f1981161061314f575b505050811b01600282015561297e565b015160001960f88460031b161c1916905585808061313f565b9091602060018192858b015181550193019101613121565b6001850160005260206000209060005b601f19841681106131d7575060019394959683601f198116106131be575b505050811b016001840155612916565b015160001960f88460031b161c191690558580806131ae565b9091602060018192858b015181550193019101613190565b50600061022087015260016101a0870152612828565b6000610160880152612807565b9067656e642074696d6560c01b6084927f4576656e742073746172742074696d65206d757374206265206265666f7265206040519362461bcd60e51b85526020600486015260286024860152840152820152fd5b906e6265666f726520656e642074696d6560881b6084927f526567697374726174696f6e2073746172742074696d65206d757374206265206040519362461bcd60e51b855260206004860152602f6024860152840152820152fd5b907f4c6f636174696f6e2063616e6e6f7420626520656d70747900000000000000006040519162461bcd60e51b83526020600484015260186024840152820152fd5b907f4465736372697074696f6e2063616e6e6f7420626520656d70747900000000006040519162461bcd60e51b835260206004840152601b6024840152820152fd5b907f496d6167652055524c2063616e6e6f7420626520656d707479000000000000006040519162461bcd60e51b83526020600484015260196024840152820152fd5b90745469746c652063616e6e6f7420626520656d70747960581b6040519162461bcd60e51b83526020600484015260156024840152820152fd5b346101cc5760403660031901126101cc576133da613649565b6133e2613688565b9060018060a01b0316600052600560205263ffffffff60406000209116600052602052602060ff604060002054166040519015158152f35b346101cc576020806003193601126101cc5763ffffffff8061343a613675565b16600052600282526040600020908154161561033c57600d61345c9101613ccf565b6040519082820192808352815180945260408301938160408260051b8601019301916000955b82871061348f5785850386f35b909192938280600192603f198982030185528751906134db6134c96080878060a01b0385511684528585015190808786015284019061369b565b6040840151838203604085015261369b565b916060809101519101529601920196019592919092613482565b346101cc5760203660031901126101cc576001600160a01b03613516613649565b1660005260016020526020600360406000200154604051908152f35b346101cc5760003660031901126101cc57600a5461354f81613b90565b61355c6040519182613776565b818152602090602081019283600a6000527fc65a7bb8d6351c1cf70c95a316cc6a92839c986682d98bc35f958f4883f9d2a86000915b8383106135e357604080516020808252875190820181905289928201908960005b8281106135c05784840385f35b9091928260c0826135d46001948a51613600565b019601910194929190946135b3565b6004866001926135f285613ba7565b815201920192019190613592565b60a0908163ffffffff91828151168552826020820151166020860152600180831b0360408201511660408601526060810151606086015260808101516080860152015116910152565b600435906001600160a01b03821682036101cc57565b602435906001600160a01b03821682036101cc57565b6004359063ffffffff821682036101cc57565b6024359063ffffffff821682036101cc57565b919082519283825260005b8481106136c7575050826000602080949584010152601f8019910116010190565b6020818301810151848301820152016136a6565b608081019081106001600160401b03821117610b1657604052565b60c081019081106001600160401b03821117610b1657604052565b6001600160401b038111610b1657604052565b604081019081106001600160401b03821117610b1657604052565b60a081019081106001600160401b03821117610b1657604052565b6102c081019081106001600160401b03821117610b1657604052565b90601f801991011681019081106001600160401b03821117610b1657604052565b6001600160401b038111610b1657601f01601f191660200190565b9291926137be82613797565b916137cc6040519384613776565b8294818452818301116101cc578281602093846000960137010152565b9080601f830112156101cc57816020613804933591016137b2565b90565b90815180825260208080930193019160005b828110613827575050505090565b909192938260408261384e60019489516020809160018060a01b0381511684520151910152565b01950193929101613819565b63ffffffff815116825260209061387e8282015160c08486015260c085019061369b565b916138976040936040840151868203604088015261369b565b916138b06060936060830151878203606089015261369b565b9260a06138cb608095608085015189820360808b0152613807565b9201519560a08184039101528551938483528383019184808760051b8601019801966000945b8786106139045750505050505050505090565b9091929394959697988780600192601f198582030189528c5190848060a01b0382511681528780613953613943868601518d888701528d86019061369b565b8a8601518582038c87015261369b565b9301519101529b019601960194979695939291906138f1565b906080806139b6613986855160a0865260a086019061369b565b60018060a01b0360208701511660208601526040860151151560408601526060860151858203606087015261369b565b93015191015290565b60406003198201126101cc5760043563ffffffff811681036101cc57916024356001600160401b03928382116101cc57806023830112156101cc5781600401359384116101cc57602484830101116101cc576024019190565b60031115610d9b57565b90613adf6102c0613a8b613a79613a67613a5563ffffffff948589511688526020890151908060208a015288019061369b565b6040880151878203604089015261369b565b6060870151868203606088015261369b565b6080860151858203608087015261369b565b9060018060a01b0360a08601511660a08501528060c08601511660c085015260e08501511660e08401526101008085015190840152610120808501519084015261014080850151908483039085015261385a565b6101608084015190613af082613a18565b8301526101808084015190613b0482613a18565b8301526101a090818401516002811015610d9b57613b33928401526101c080850151908483039085015261369b565b916101e0808201519083015261020080820151908301526102206001600160601b0381830151169083015261024080820151908301526102608082015190830152610280808201511515908301526102a080910151151591015290565b6001600160401b038111610b165760051b60200190565b90604051613bb4816136f6565b60a08193600381549163ffffffff928381168652838160201c166020870152600180861b039060401c1660408601526001810154606086015260028101546080860152015416910152565b90600182811c92168015613c2f575b6020831014613c1957565b634e487b7160e01b600052602260045260246000fd5b91607f1691613c0e565b805460009392613c4882613bff565b91828252602093600191600181169081600014613cb05750600114613c6f575b5050505050565b90939495506000929192528360002092846000945b838610613c9c57505050500101903880808080613c68565b805485870183015294019385908201613c84565b60ff19168685015250505090151560051b010191503880808080613c68565b908154613cdb81613b90565b92604093613cec6040519182613776565b82815280946020809201926000526020600020906000935b858510613d1357505050505050565b6004846001928451613d24816136db565b848060a01b0387541681528551613d41816103bc81898c01613c39565b838201528551613d58816103bc8160028c01613c39565b8682015260038701546060820152815201930194019391613d04565b90600163ffffffff80931601918211610d2b57565b91909163ffffffff80809416911601918211610d2b57565b60405190613dae826136f6565b816000815260a060609182602082015282604082015282808201528260808201520152565b60405190613de08261375a565b816102a0600091828152606080602083015280604083015280808301528060808301528360a08301528360c08301528360e08301528361010083015283610120830152613e2b613da1565b6101408301528361016083015283610180830152836101a08301526101c0820152826101e082015282610200820152826102208201528261024082015282610260820152826102808201520152565b6002821015610d9b5752565b818110613e91575050565b60008155600101613e86565b9190601f8111613eac57505050565b613ed8926000526020600020906020601f840160051c83019310613eda575b601f0160051c0190613e86565b565b9091508190613ecb565b600160401b8211610b16578054828255808310613f0057505050565b6001906001600160ff1b038082168203610d2b5784168403610d2b5760009260005260206000209060011b81019360011b015b838110613f405750505050565b808360029255838382015501613f33565b613f5b8154613bff565b9081613f65575050565b81601f60009311600114613f77575055565b908083918252613f96601f60208420940160051c840160018501613e86565b5555565b600160401b8211610b16578054828255808310613fb657505050565b6002906001600160fe1b038082168203610d2b5784168403610d2b5760009260005260206000209060021b81019360021b015b838110613ff65750505050565b80836004925561400860018201613f51565b614013838201613f51565b83600382015501613fe9565b9060018060a01b038151166001600160601b0360a01b83541617825560018083016020808401519182516001600160401b0393848211610b165761406d826140678554613bff565b85613e9d565b8390601f83116001146141825761409c9291600091836141085750508160011b916000199060031b1c19161790565b90555b60028501926040850151908151938411610b16576140c7846140c18754613bff565b87613e9d565b82601f85116001146141135750508260039593606095936140fe936000926141085750508160011b916000199060031b1c19161790565b90555b0151910155565b015190503880612452565b91601f949391941984168660005283600020936000905b82821061416b5750509160039795939185606098969410614153575b505050811b019055614101565b015160001983891b60f8161c19169055388080614146565b80888697829497870151815501960194019061412a565b869291601f1983169185600052866000209260005b888282106141ce57505084116141b5575b505050811b01905561409f565b015160001960f88460031b161c191690553880806141a8565b8385015186558b97909501949384019301614197565b600a54811015610b0057600a60005260021b7fc65a7bb8d6351c1cf70c95a316cc6a92839c986682d98bc35f958f4883f9d2a80190600090565b908082146142f7576142308154613bff565b906001600160401b038211610b165761424d826140678554613bff565b600090601f831160011461428c5761427d9291600091836142815750508160011b916000199060031b1c19161790565b9055565b015490503880612452565b815260208082208483528183209291601f1985169083905b8282106142de5750509084600195949392106142c5575b505050811b019055565b015460001960f88460031b161c191690553880806142bb565b84958192958501548155600180910196019401906142a4565b5050565b9190916001600160601b0380809416911602918216918203610d2b57565b908160209103126101cc575180151581036101cc5790565b91908201809211610d2b57565b9060405161434b81613724565b82546001600160a01b031681526001909201546020830152565b90815461437181613b90565b9261437f6040519485613776565b818452600090815260208082208186015b84841061439e575050505050565b6002836001926143ad8561433e565b815201920193019290614390565b906040516143c8816136f6565b60a061443d6005839563ffffffff81541685526040516143ef816103bc8160018601613c39565b6020860152604051614408816103bc8160028601613c39565b6040860152604051614421816103bc8160038601613c39565b606086015261443260048201614365565b608086015201613ccf565b910152565b9060405161444f8161373f565b608060038294604051614466816103bc8185613c39565b845260018101546001600160a01b038116602086015260a01c60ff1615156040808601919091525161449f816103bc8160028601613c39565b60608501520154910152565b8054821015610b005760005260206000209060011b0190600090565b8054600160401b811015610b16576144e4916001820181556144ab565b9190916121cf57805182546001600160a01b0319166001600160a01b039190911617825560200151600190910155565b8181146142f7578154916145288383613ee4565b6000526020600020906000526020600020906000905b83821061454b5750505050565b806001918403614566575b600280910193019101909161453e565b818060a01b038154166001600160601b0360a01b855416178455818082015490850155614556565b8181146142f7578154916145a28383613f9a565b6000526020600020906000526020600020906000905b8382106145c55750505050565b8060019184036145e0575b60048091019301910190916145b8565b818060a01b038154166001600160601b0360a01b8554161784556146098280830190860161421e565b614619600280830190860161421e565b600380820154908501556145d0565b908060209392818452848401376000828201840152601f01601f1916010190565b63ffffffff9061465881614892565b16806000526002602052604060002061466f614872565b60108201541115806146e6575b1561469057600e01805461ff001916905550565b614698614872565b6011820154106146a6575050565b600e01805461ff0019166101001790556146be614872565b907f835839f42ff642197e82f2887491db41a51c32dc7004091799724e9e3d6f2489600080a3565b506146ef614872565b6011820154101561467c565b63ffffffff9061470a81614892565b1660005260026020526040600020614720614872565b60078201541061472d5750565b600e018054600160ff821661474181613a18565b0361474a575050565b60019060ff1916179055600161475e614872565b7f9c8ea6489f3baa31d321639e3a41ad67158fa673511a98870906b5a9eced0dd4600080a3565b9061478f82613b90565b61479c6040519182613776565b82815280926147ad601f1991613b90565b019060005b8281106147be57505050565b6020906147c9613dd3565b828285010152016147b2565b63ffffffff809116908114610d2b5760010190565b8051821015610b005760209160051b010190565b6001600160a01b039081169081156148595760008051602061498383398151915280546001600160a01b031981168417909155167f8be0079c531659141344cd1fd0a4f28419497f9722a3daafe3b4186f6b6457e0600080a3565b604051631e4fbdf760e01b815260006004820152602490fd5b6103e880420290428204811442151715610d2b578101809111610d2b5790565b63ffffffff80600054169116116102c357565b600080516020614983833981519152546001600160a01b031633036148c657565b60405163118cdaa760e01b8152336004820152602490fd5b60ff7ff0c57e16840df040f15088dc2f81fe391c3923bec73e23a9662efc9c229c6a005460401c161561490d57565b604051631afcd79f60e31b8152600490fd5b90614946575080511561493457805190602001fd5b604051630a12f52160e11b8152600490fd5b81511580614979575b614957575090565b604051639996b31560e01b81526001600160a01b039091166004820152602490fd5b50803b1561494f56fe9016d09d72d40fdae2fd8ceac6b6234c7706214fd39c1cd1e609a0528c199300a2646970667358221220ac0ca02194db84ea2f07b2d8bbc07b4f7c9b51c7b499715038277708bd49c2f764736f6c63430008180033",
    "linkReferences": {}
  },
  "methodIdentifiers": {
    "UPGRADE_INTERFACE_VERSION()": "ad3cb1cc",
    "checkContractBalance()": "50312c9e",
    "checkUserBalance(address)": "0a9bfef5",
    "createAccount(string,address,string)": "331ef976",
    "createEvent(string,string,string,string,uint32,uint256,uint256,uint256,uint256,uint96,bool)": "25f3724b",
    "createGroup(uint32)": "654a3c6d",
    "getAllEventGroups()": "909fdec9",
    "getAllEvents()": "c27a500d",
    "getAllGroupMessages(uint32)": "1755b97a",
    "getAllTickets()": "03e96fe3",
    "getAllUser()": "47531df8",
    "getEventById(uint32)": "cd71ed35",
    "getEventGroup(uint32)": "3809f6f5",
    "getGroupMember(uint32,uint256)": "85a646c9",
    "getGroupMembers(uint32)": "ec976a0a",
    "getNfts(address)": "44cc2afe",
    "getTicket(address)": "4717dea9",
    "getUser(address)": "6f77926b",
    "groupChat(uint32,string)": "be7fb5d7",
    "hasPurchasedTicket(address,uint32)": "17f69df6",
    "initialize(address,address,address)": "c0c53b8b",
    "isRegistered(address)": "c3c5a547",
    "joinGroup(uint32)": "eec932f7",
    "mintNFTsForAttendees(uint32)": "48862857",
    "mintNft(uint32,string)": "8fd9baca",
    "owner()": "8da5cb5b",
    "proxiableUUID()": "52d1902d",
    "purchaseTicket(uint32,uint32)": "3405741d",
    "refundFee(uint32)": "bdacb17a",
    "renounceOwnership()": "715018a6",
    "transferOwnership(address)": "f2fde38b",
    "updateEventStatus(uint32)": "a87f86f9",
    "updateRegStatus(uint32)": "bce888fb",
    "upgradeToAndCall(address,bytes)": "4f1ef286",
    "withdrawEventFee(uint32)": "b33f650e"
  },
  "id": 53
}