{
  "abi": [
    {
      "type": "function",
      "name": "UPGRADE_INTERFACE_VERSION",
      "inputs": [],
      "outputs": [
        {
          "name": "",
          "type": "string",
          "internalType": "string"
        }
      ],
      "stateMutability": "view"
    },
    {
      "type": "function",
      "name": "checkContractBalance",
      "inputs": [],
      "outputs": [
        {
          "name": "bal_",
          "type": "uint256",
          "internalType": "uint256"
        }
      ],
      "stateMutability": "view"
    },
    {
      "type": "function",
      "name": "checkUserBalance",
      "inputs": [
        {
          "name": "_addr",
          "type": "address",
          "internalType": "address"
        }
      ],
      "outputs": [
        {
          "name": "bal_",
          "type": "uint256",
          "internalType": "uint256"
        }
      ],
      "stateMutability": "view"
    },
    {
      "type": "function",
      "name": "createAccount",
      "inputs": [
        {
          "name": "_email",
          "type": "string",
          "internalType": "string"
        },
        {
          "name": "_addr",
          "type": "address",
          "internalType": "address"
        },
        {
          "name": "_avatar",
          "type": "string",
          "internalType": "string"
        }
      ],
      "outputs": [],
      "stateMutability": "nonpayable"
    },
    {
      "type": "function",
      "name": "createEvent",
      "inputs": [
        {
          "name": "_title",
          "type": "bytes32",
          "internalType": "bytes32"
        },
        {
          "name": "_imageUrl",
          "type": "string",
          "internalType": "string"
        },
        {
          "name": "_description",
          "type": "string",
          "internalType": "string"
        },
        {
          "name": "_location",
          "type": "string",
          "internalType": "string"
        },
        {
          "name": "_capacity",
          "type": "uint32",
          "internalType": "uint32"
        },
        {
          "name": "_regStartTime",
          "type": "uint256",
          "internalType": "uint256"
        },
        {
          "name": "_regEndTime",
          "type": "uint256",
          "internalType": "uint256"
        },
        {
          "name": "_eventStartTime",
          "type": "uint256",
          "internalType": "uint256"
        },
        {
          "name": "_eventEndTime",
          "type": "uint256",
          "internalType": "uint256"
        },
        {
          "name": "_ticketPrice",
          "type": "uint96",
          "internalType": "uint96"
        },
        {
          "name": "_isEventPaid",
          "type": "bool",
          "internalType": "bool"
        }
      ],
      "outputs": [],
      "stateMutability": "nonpayable"
    },
    {
      "type": "function",
      "name": "getAllEventGroups",
      "inputs": [],
      "outputs": [
        {
          "name": "group_",
          "type": "tuple[]",
          "internalType": "struct BlumaProtocol.EventGroup[]",
          "components": [
            {
              "name": "eventId",
              "type": "uint32",
              "internalType": "uint32"
            },
            {
              "name": "title",
              "type": "bytes32",
              "internalType": "bytes32"
            },
            {
              "name": "imageUrl",
              "type": "string",
              "internalType": "string"
            },
            {
              "name": "description",
              "type": "string",
              "internalType": "string"
            },
            {
              "name": "members",
              "type": "address[]",
              "internalType": "address[]"
            }
          ]
        }
      ],
      "stateMutability": "view"
    },
    {
      "type": "function",
      "name": "getAllEvents",
      "inputs": [],
      "outputs": [
        {
          "name": "events_",
          "type": "tuple[]",
          "internalType": "struct BlumaProtocol.Event[]",
          "components": [
            {
              "name": "eventId",
              "type": "uint32",
              "internalType": "uint32"
            },
            {
              "name": "title",
              "type": "bytes32",
              "internalType": "bytes32"
            },
            {
              "name": "imageUrl",
              "type": "string",
              "internalType": "string"
            },
            {
              "name": "location",
              "type": "string",
              "internalType": "string"
            },
            {
              "name": "description",
              "type": "string",
              "internalType": "string"
            },
            {
              "name": "creator",
              "type": "address",
              "internalType": "address"
            },
            {
              "name": "seats",
              "type": "uint32",
              "internalType": "uint32"
            },
            {
              "name": "capacity",
              "type": "uint32",
              "internalType": "uint32"
            },
            {
              "name": "regStartTime",
              "type": "uint256",
              "internalType": "uint256"
            },
            {
              "name": "regEndTime",
              "type": "uint256",
              "internalType": "uint256"
            },
            {
              "name": "regStatus",
              "type": "uint8",
              "internalType": "enum BlumaProtocol.RegStatus"
            },
            {
              "name": "eventStatus",
              "type": "uint8",
              "internalType": "enum BlumaProtocol.EventStatus"
            },
            {
              "name": "eventType",
              "type": "uint8",
              "internalType": "enum BlumaProtocol.EventType"
            },
            {
              "name": "eventStartTime",
              "type": "uint256",
              "internalType": "uint256"
            },
            {
              "name": "eventEndTime",
              "type": "uint256",
              "internalType": "uint256"
            },
            {
              "name": "ticketPrice",
              "type": "uint96",
              "internalType": "uint96"
            },
            {
              "name": "totalSales",
              "type": "uint256",
              "internalType": "uint256"
            },
            {
              "name": "createdAt",
              "type": "uint256",
              "internalType": "uint256"
            },
            {
              "name": "isCreatorPaid",
              "type": "bool",
              "internalType": "bool"
            }
          ]
        }
      ],
      "stateMutability": "view"
    },
    {
      "type": "function",
      "name": "getAllTickets",
      "inputs": [],
      "outputs": [
        {
          "name": "_tickets",
          "type": "tuple[]",
          "internalType": "struct BlumaProtocol.Ticket[]",
          "components": [
            {
              "name": "ticketId",
              "type": "uint32",
              "internalType": "uint32"
            },
            {
              "name": "eventId",
              "type": "uint32",
              "internalType": "uint32"
            },
            {
              "name": "owner",
              "type": "address",
              "internalType": "address"
            },
            {
              "name": "ticketCost",
              "type": "uint256",
              "internalType": "uint256"
            },
            {
              "name": "purchaseTime",
              "type": "uint256",
              "internalType": "uint256"
            },
            {
              "name": "numberOfTicket",
              "type": "uint32",
              "internalType": "uint32"
            }
          ]
        }
      ],
      "stateMutability": "view"
    },
    {
      "type": "function",
      "name": "getEventById",
      "inputs": [
        {
          "name": "_eventId",
          "type": "uint32",
          "internalType": "uint32"
        }
      ],
      "outputs": [
        {
          "name": "events_",
          "type": "tuple",
          "internalType": "struct BlumaProtocol.Event",
          "components": [
            {
              "name": "eventId",
              "type": "uint32",
              "internalType": "uint32"
            },
            {
              "name": "title",
              "type": "bytes32",
              "internalType": "bytes32"
            },
            {
              "name": "imageUrl",
              "type": "string",
              "internalType": "string"
            },
            {
              "name": "location",
              "type": "string",
              "internalType": "string"
            },
            {
              "name": "description",
              "type": "string",
              "internalType": "string"
            },
            {
              "name": "creator",
              "type": "address",
              "internalType": "address"
            },
            {
              "name": "seats",
              "type": "uint32",
              "internalType": "uint32"
            },
            {
              "name": "capacity",
              "type": "uint32",
              "internalType": "uint32"
            },
            {
              "name": "regStartTime",
              "type": "uint256",
              "internalType": "uint256"
            },
            {
              "name": "regEndTime",
              "type": "uint256",
              "internalType": "uint256"
            },
            {
              "name": "regStatus",
              "type": "uint8",
              "internalType": "enum BlumaProtocol.RegStatus"
            },
            {
              "name": "eventStatus",
              "type": "uint8",
              "internalType": "enum BlumaProtocol.EventStatus"
            },
            {
              "name": "eventType",
              "type": "uint8",
              "internalType": "enum BlumaProtocol.EventType"
            },
            {
              "name": "eventStartTime",
              "type": "uint256",
              "internalType": "uint256"
            },
            {
              "name": "eventEndTime",
              "type": "uint256",
              "internalType": "uint256"
            },
            {
              "name": "ticketPrice",
              "type": "uint96",
              "internalType": "uint96"
            },
            {
              "name": "totalSales",
              "type": "uint256",
              "internalType": "uint256"
            },
            {
              "name": "createdAt",
              "type": "uint256",
              "internalType": "uint256"
            },
            {
              "name": "isCreatorPaid",
              "type": "bool",
              "internalType": "bool"
            }
          ]
        }
      ],
      "stateMutability": "view"
    },
    {
      "type": "function",
      "name": "getEventGroup",
      "inputs": [
        {
          "name": "_groupId",
          "type": "uint32",
          "internalType": "uint32"
        }
      ],
      "outputs": [
        {
          "name": "group_",
          "type": "tuple",
          "internalType": "struct BlumaProtocol.EventGroup",
          "components": [
            {
              "name": "eventId",
              "type": "uint32",
              "internalType": "uint32"
            },
            {
              "name": "title",
              "type": "bytes32",
              "internalType": "bytes32"
            },
            {
              "name": "imageUrl",
              "type": "string",
              "internalType": "string"
            },
            {
              "name": "description",
              "type": "string",
              "internalType": "string"
            },
            {
              "name": "members",
              "type": "address[]",
              "internalType": "address[]"
            }
          ]
        }
      ],
      "stateMutability": "view"
    },
    {
      "type": "function",
      "name": "getGroupMembers",
      "inputs": [
        {
          "name": "_eventId",
          "type": "uint32",
          "internalType": "uint32"
        }
      ],
      "outputs": [
        {
          "name": "_members",
          "type": "address[]",
          "internalType": "address[]"
        }
      ],
      "stateMutability": "view"
    },
    {
      "type": "function",
      "name": "getTicket",
      "inputs": [
        {
          "name": "_addr",
          "type": "address",
          "internalType": "address"
        }
      ],
      "outputs": [
        {
          "name": "_ticket",
          "type": "tuple",
          "internalType": "struct BlumaProtocol.Ticket",
          "components": [
            {
              "name": "ticketId",
              "type": "uint32",
              "internalType": "uint32"
            },
            {
              "name": "eventId",
              "type": "uint32",
              "internalType": "uint32"
            },
            {
              "name": "owner",
              "type": "address",
              "internalType": "address"
            },
            {
              "name": "ticketCost",
              "type": "uint256",
              "internalType": "uint256"
            },
            {
              "name": "purchaseTime",
              "type": "uint256",
              "internalType": "uint256"
            },
            {
              "name": "numberOfTicket",
              "type": "uint32",
              "internalType": "uint32"
            }
          ]
        }
      ],
      "stateMutability": "view"
    },
    {
      "type": "function",
      "name": "getUser",
      "inputs": [
        {
          "name": "_addr",
          "type": "address",
          "internalType": "address"
        }
      ],
      "outputs": [
        {
          "name": "_user",
          "type": "tuple",
          "internalType": "struct BlumaProtocol.User",
          "components": [
            {
              "name": "email",
              "type": "string",
              "internalType": "string"
            },
            {
              "name": "userAddr",
              "type": "address",
              "internalType": "address"
            },
            {
              "name": "isRegistered",
              "type": "bool",
              "internalType": "bool"
            },
            {
              "name": "avatar",
              "type": "string",
              "internalType": "string"
            },
            {
              "name": "balance",
              "type": "uint256",
              "internalType": "uint256"
            }
          ]
        }
      ],
      "stateMutability": "view"
    },
    {
      "type": "function",
      "name": "initialize",
      "inputs": [
        {
          "name": "initialOwner",
          "type": "address",
          "internalType": "address"
        }
      ],
      "outputs": [],
      "stateMutability": "nonpayable"
    },
    {
      "type": "function",
      "name": "isRegistered",
      "inputs": [
        {
          "name": "_addr",
          "type": "address",
          "internalType": "address"
        }
      ],
      "outputs": [
        {
          "name": "",
          "type": "bool",
          "internalType": "bool"
        }
      ],
      "stateMutability": "view"
    },
    {
      "type": "function",
      "name": "owner",
      "inputs": [],
      "outputs": [
        {
          "name": "",
          "type": "address",
          "internalType": "address"
        }
      ],
      "stateMutability": "view"
    },
    {
      "type": "function",
      "name": "proxiableUUID",
      "inputs": [],
      "outputs": [
        {
          "name": "",
          "type": "bytes32",
          "internalType": "bytes32"
        }
      ],
      "stateMutability": "view"
    },
    {
      "type": "function",
      "name": "purchaseTicket",
      "inputs": [
        {
          "name": "_eventId",
          "type": "uint32",
          "internalType": "uint32"
        },
        {
          "name": "_numberOfTickets",
          "type": "uint32",
          "internalType": "uint32"
        }
      ],
      "outputs": [],
      "stateMutability": "nonpayable"
    },
    {
      "type": "function",
      "name": "refundFee",
      "inputs": [
        {
          "name": "_eventId",
          "type": "uint32",
          "internalType": "uint32"
        },
        {
          "name": "_numberOfTickets",
          "type": "uint32",
          "internalType": "uint32"
        }
      ],
      "outputs": [],
      "stateMutability": "nonpayable"
    },
    {
      "type": "function",
      "name": "renounceOwnership",
      "inputs": [],
      "outputs": [],
      "stateMutability": "nonpayable"
    },
    {
      "type": "function",
      "name": "transferOwnership",
      "inputs": [
        {
          "name": "newOwner",
          "type": "address",
          "internalType": "address"
        }
      ],
      "outputs": [],
      "stateMutability": "nonpayable"
    },
    {
      "type": "function",
      "name": "updateEventStatus",
      "inputs": [
        {
          "name": "_eventId",
          "type": "uint32",
          "internalType": "uint32"
        }
      ],
      "outputs": [],
      "stateMutability": "nonpayable"
    },
    {
      "type": "function",
      "name": "upgradeToAndCall",
      "inputs": [
        {
          "name": "newImplementation",
          "type": "address",
          "internalType": "address"
        },
        {
          "name": "data",
          "type": "bytes",
          "internalType": "bytes"
        }
      ],
      "outputs": [],
      "stateMutability": "payable"
    },
    {
      "type": "function",
      "name": "withdrawEventFee",
      "inputs": [
        {
          "name": "_eventId",
          "type": "uint32",
          "internalType": "uint32"
        }
      ],
      "outputs": [],
      "stateMutability": "nonpayable"
    },
    {
      "type": "event",
      "name": "EventClosed",
      "inputs": [
        {
          "name": "_eventId",
          "type": "uint32",
          "indexed": true,
          "internalType": "uint32"
        },
        {
          "name": "_currentTime",
          "type": "uint256",
          "indexed": true,
          "internalType": "uint256"
        }
      ],
      "anonymous": false
    },
    {
      "type": "event",
      "name": "EventCreated",
      "inputs": [
        {
          "name": "_totalEventsId",
          "type": "uint32",
          "indexed": true,
          "internalType": "uint32"
        },
        {
          "name": "_seatNumber",
          "type": "uint32",
          "indexed": true,
          "internalType": "uint32"
        },
        {
          "name": "_capacity",
          "type": "uint32",
          "indexed": true,
          "internalType": "uint32"
        }
      ],
      "anonymous": false
    },
    {
      "type": "event",
      "name": "GroupCreated",
      "inputs": [
        {
          "name": "_roomId",
          "type": "uint32",
          "indexed": true,
          "internalType": "uint32"
        },
        {
          "name": "imageUrl",
          "type": "string",
          "indexed": false,
          "internalType": "string"
        },
        {
          "name": "_title",
          "type": "bytes32",
          "indexed": false,
          "internalType": "bytes32"
        }
      ],
      "anonymous": false
    },
    {
      "type": "event",
      "name": "GroupJoinedSuccessfully",
      "inputs": [
        {
          "name": "_sender",
          "type": "address",
          "indexed": true,
          "internalType": "address"
        },
        {
          "name": "_eventId",
          "type": "uint32",
          "indexed": true,
          "internalType": "uint32"
        }
      ],
      "anonymous": false
    },
    {
      "type": "event",
      "name": "Initialized",
      "inputs": [
        {
          "name": "version",
          "type": "uint64",
          "indexed": false,
          "internalType": "uint64"
        }
      ],
      "anonymous": false
    },
    {
      "type": "event",
      "name": "OwnershipTransferred",
      "inputs": [
        {
          "name": "previousOwner",
          "type": "address",
          "indexed": true,
          "internalType": "address"
        },
        {
          "name": "newOwner",
          "type": "address",
          "indexed": true,
          "internalType": "address"
        }
      ],
      "anonymous": false
    },
    {
      "type": "event",
      "name": "RefundIssued",
      "inputs": [
        {
          "name": "buyer",
          "type": "address",
          "indexed": true,
          "internalType": "address"
        },
        {
          "name": "_ticketId",
          "type": "uint32",
          "indexed": true,
          "internalType": "uint32"
        },
        {
          "name": "_eventId",
          "type": "uint32",
          "indexed": true,
          "internalType": "uint32"
        },
        {
          "name": "amount",
          "type": "uint256",
          "indexed": false,
          "internalType": "uint256"
        }
      ],
      "anonymous": false
    },
    {
      "type": "event",
      "name": "RegistrationClose",
      "inputs": [
        {
          "name": "_currentTime",
          "type": "uint256",
          "indexed": true,
          "internalType": "uint256"
        },
        {
          "name": "_status",
          "type": "uint8",
          "indexed": true,
          "internalType": "uint8"
        }
      ],
      "anonymous": false
    },
    {
      "type": "event",
      "name": "TicketPurchased",
      "inputs": [
        {
          "name": "buyer",
          "type": "address",
          "indexed": true,
          "internalType": "address"
        },
        {
          "name": "_eventId",
          "type": "uint32",
          "indexed": true,
          "internalType": "uint32"
        },
        {
          "name": "numberOfTickets",
          "type": "uint32",
          "indexed": false,
          "internalType": "uint32"
        }
      ],
      "anonymous": false
    },
    {
      "type": "event",
      "name": "Upgraded",
      "inputs": [
        {
          "name": "implementation",
          "type": "address",
          "indexed": true,
          "internalType": "address"
        }
      ],
      "anonymous": false
    },
    {
      "type": "error",
      "name": "ALREADY_PAID",
      "inputs": []
    },
    {
      "type": "error",
      "name": "AddressEmptyCode",
      "inputs": [
        {
          "name": "target",
          "type": "address",
          "internalType": "address"
        }
      ]
    },
    {
      "type": "error",
      "name": "EMPTY_INPUT_FIELD",
      "inputs": []
    },
    {
      "type": "error",
      "name": "ERC1967InvalidImplementation",
      "inputs": [
        {
          "name": "implementation",
          "type": "address",
          "internalType": "address"
        }
      ]
    },
    {
      "type": "error",
      "name": "ERC1967NonPayable",
      "inputs": []
    },
    {
      "type": "error",
      "name": "EVENT_NOT_CLOSED",
      "inputs": []
    },
    {
      "type": "error",
      "name": "FailedInnerCall",
      "inputs": []
    },
    {
      "type": "error",
      "name": "GROUP_ALREADY_EXISTS",
      "inputs": []
    },
    {
      "type": "error",
      "name": "INSUFFICIENT_BALANCE",
      "inputs": []
    },
    {
      "type": "error",
      "name": "INSUFFICIENT_TICKET_PURCHASED",
      "inputs": []
    },
    {
      "type": "error",
      "name": "INVALID_EVENT_ID",
      "inputs": []
    },
    {
      "type": "error",
      "name": "INVALID_ID",
      "inputs": []
    },
    {
      "type": "error",
      "name": "INVALID_TIME_SET",
      "inputs": []
    },
    {
      "type": "error",
      "name": "InvalidInitialization",
      "inputs": []
    },
    {
      "type": "error",
      "name": "NOT_CREATOR",
      "inputs": []
    },
    {
      "type": "error",
      "name": "NOT_ENOUGH_AVAILABLE_SEAT",
      "inputs": []
    },
    {
      "type": "error",
      "name": "NOT_OWNER",
      "inputs": []
    },
    {
      "type": "error",
      "name": "NOT_PAID_EVENT",
      "inputs": []
    },
    {
      "type": "error",
      "name": "NO_ALLOWANCE",
      "inputs": []
    },
    {
      "type": "error",
      "name": "NotInitializing",
      "inputs": []
    },
    {
      "type": "error",
      "name": "OwnableInvalidOwner",
      "inputs": [
        {
          "name": "owner",
          "type": "address",
          "internalType": "address"
        }
      ]
    },
    {
      "type": "error",
      "name": "OwnableUnauthorizedAccount",
      "inputs": [
        {
          "name": "account",
          "type": "address",
          "internalType": "address"
        }
      ]
    },
    {
      "type": "error",
      "name": "REGISTRATION_CLOSE",
      "inputs": []
    },
    {
      "type": "error",
      "name": "REGISTRATION_NOT_OPEN",
      "inputs": []
    },
    {
      "type": "error",
      "name": "USER_NOT_REGISTERED",
      "inputs": []
    },
    {
      "type": "error",
      "name": "UUPSUnauthorizedCallContext",
      "inputs": []
    },
    {
      "type": "error",
      "name": "UUPSUnsupportedProxiableUUID",
      "inputs": [
        {
          "name": "slot",
          "type": "bytes32",
          "internalType": "bytes32"
        }
      ]
    }
  ],
  "bytecode": {
    "object": "0x60a0806040523461002a57306080526131c7908161003082396080518181816114ca015261160c0152f35b600080fdfe6080604052600436101561001257600080fd5b60003560e01c806303e96fe3146122f25780630a9bfef5146122b55780630f9fcf4814611ff6578063331ef97614611dca5780633405741d146118b35780633809f6f51461185f5780634717dea9146117eb5780634f1ef286146115bd57806350312c9e1461153457806352d1902d146114b75780636f77926b146113a6578063715018a61461133c5780638da5cb5b14611306578063909fdec91461121c578063a87f86f9146111fb578063ad3cb1cc146111a3578063b33f650e1461103f578063c27a500d14610f67578063c3c5a54714610f22578063c4d66de814610dc9578063cd71ed3514610ced578063dbc96e99146101af578063ec976a0a146101545763f2fde38b1461012457600080fd5b3461014f57602036600319011261014f5761014d610140612409565b610148612e03565b612d3f565b005b600080fd5b3461014f57602036600319011261014f5763ffffffff61017261241f565b61017b81612db3565b1660005260046020526101ab61019760046040600020016129ab565b604051918291602083526020830190612568565b0390f35b3461014f5761016036600319011261014f576024356001600160401b03811161014f576101e090369060040161272f565b906044356001600160401b03811161014f5761020090369060040161272f565b6064356001600160401b03811161014f5761021f90369060040161272f565b92909463ffffffff608435166084350361014f5761012435946001600160601b038616860361014f576101443595861515870361014f5733600052600160205260ff60016040600020015460a01c1615610cdb576102866102813687876124d3565b612dd8565b6102946102813685856124d3565b6102a261028136888b6124d3565b6102ad60a435612e3c565b6102b860c435612e3c565b6102c360e435612e3c565b6102cf61010435612e3c565b6102e16001600160601b038216612e3c565b600163ffffffff6084351610610cc9576103006101043560e435612e45565b61030e60c43560a435612e45565b60005463ffffffff6103218183166128af565b16809163ffffffff1916176000556000526002602052600160406000209760a43561034a612de3565b1015610cb85760088901805460ff191660021790555b151503610c88576008870162ff00001981541690556001600160601b03600b880191166001600160601b03198254161790555b63ffffffff6000541663ffffffff1987541617865560043560018701556001600160401b038211610711576103d8826103cf6002890154612817565b60028901612868565b600090601f8311600114610c1757610409929160009183610c0c575b50508160011b916000199060031b1c19161790565b60028501555b6001600160401b038211610711576104378261042e6004870154612817565b60048701612868565b600090601f8311600114610b9b57610467929160009183610b905750508160011b916000199060031b1c19161790565b60048301555b6005820180546001600160a01b031916331790556001600160401b038111610711576104a9816104a06003850154612817565b60038501612868565b600092601f8211600114610b21576104da92938291600092610b165750508160011b916000199060031b1c19161790565b60038201555b60058101805463ffffffff60c01b191660843560c01b63ffffffff60c01b1617905560a435600682015560c435600782015560e435600982015561010435600a82015560088101805461ff00191661020017905561053c612de3565b600d820155600654600160401b8110156107115760018101806006558110156106fb57600660005281600f82026000805160206131528339815191520103610739575b5063ffffffff81541661059181612db3565b80600052600460205263ffffffff604060002054166107275780600052600260205260406000206105c06128e9565b828152600182019182546020830152600461060660028301926040516105f1816105ea8188612915565b0382612497565b60408601526105ea6040518094819301612915565b6060830152836000526004602052610622826040600020612e5f565b60075492600160401b8410156107115760018401806007558410156106fb576106996106ae9360057f45881a834c1c2b1081ee9f2063da43f83e3d9f2ba737ca954a4098d94bce97d5966007600052027fa66cc928b5edb82af9bd49922954155ab7b0942694bea4ce44661d9a8736c68801612e5f565b54604051928392604084526040840190612915565b9060208301520390a263ffffffff6000541663ffffffff6005816084351693015460a01c16907fac3c2fbb08f906d92c1b4be6fa025f63708bafa70869110e931d718b9532c411600080a4005b634e487b7160e01b600052603260045260246000fd5b634e487b7160e01b600052604160045260246000fd5b60405163e955b73b60e01b8152600490fd5b63ffffffff82541663ffffffff19600f830260008051602061315283398151915201541617600f8202600080516020613152833981519152015560018201547ff652222313e28459528d920b65115c16c04f3efc82aaedc97be59f3f377c0d40600f830201556107d1600283017ff652222313e28459528d920b65115c16c04f3efc82aaedc97be59f3f377c0d41600f840201612c60565b610803600383017ff652222313e28459528d920b65115c16c04f3efc82aaedc97be59f3f377c0d42600f840201612c60565b610835600483017ff652222313e28459528d920b65115c16c04f3efc82aaedc97be59f3f377c0d43600f840201612c60565b6005820180547ff652222313e28459528d920b65115c16c04f3efc82aaedc97be59f3f377c0d44600f84020180546001600160a01b039092166001600160a01b0319831681178255925463ffffffff60a01b166001600160c01b03199092169092171781556108bf906005840154815463ffffffff60c01b191663ffffffff60c01b909116179055565b60068201547ff652222313e28459528d920b65115c16c04f3efc82aaedc97be59f3f377c0d45600f8302015560078201547ff652222313e28459528d920b65115c16c04f3efc82aaedc97be59f3f377c0d46600f8302015560ff600883015416610928816125fe565b600080516020613172833981519152600f83020154918160ff19841617600080516020613172833981519152600f8302015560088401549261096f60ff8560081c166125fe565b61ff0084168361ffff1983161717600080516020613172833981519152600f84020155600885015493600260ff8660101c161015610b005761ff00600f9462ff00007ff652222313e28459528d920b65115c16c04f3efc82aaedc97be59f3f377c0d4d97169362ffffff19161791161717600080516020613172833981519152838302015560098401547ff652222313e28459528d920b65115c16c04f3efc82aaedc97be59f3f377c0d488383020155600a8401547ff652222313e28459528d920b65115c16c04f3efc82aaedc97be59f3f377c0d4983830201557ff652222313e28459528d920b65115c16c04f3efc82aaedc97be59f3f377c0d4a828202016001600160601b03600b860154166001600160601b0319825416179055600c8401547ff652222313e28459528d920b65115c16c04f3efc82aaedc97be59f3f377c0d4b8383020155600d8401547ff652222313e28459528d920b65115c16c04f3efc82aaedc97be59f3f377c0d4c8383020155020160ff600e83015416151560ff801983541691161790558161057f565b634e487b7160e01b600052602160045260246000fd5b0135905084806103f4565b600383016000526020600020906000945b601f1984168610610b7857600194955083601f19811610610b5e575b505050811b0160038201556104e0565b0135600019600384901b60f8161c19169055838080610b4e565b91602060018192858501358155019301950194610b32565b0135905086806103f4565b600485939293016000526020600020906000935b601f1984168510610bf4576001945083601f19811610610bda575b505050811b01600483015561046d565b0135600019600384901b60f8161c19169055858080610bca565b81810135835560209485019460019093019201610baf565b0135905088806103f4565b600287939293016000526020600020906000935b601f1984168510610c70576001945083601f19811610610c56575b505050811b01600285015561040f565b0135600019600384901b60f8161c19169055878080610c46565b81810135835560209485019460019093019201610c2b565b50600b860180546bffffffffffffffffffffffff1916905560088601805462ff0000191662010000179055610393565b60088901805460ff19169055610360565b604051631ee8943b60e21b8152600490fd5b604051633069384b60e21b8152600490fd5b3461014f57602036600319011261014f5763ffffffff610d0b61241f565b6000610240604051610d1c8161247b565b82815282602082015260606040820152606080820152606060808201528260a08201528260c08201528260e08201528261010082015282610120820152826101408201528261016082015282610180820152826101a0820152826101c0820152826101e082015282610200820152826102208201520152610d9c81612db3565b1660005260026020526101ab610db56040600020612b1f565b604051918291602083526020830190612608565b3461014f57602036600319011261014f57610de2612409565b7ff0c57e16840df040f15088dc2f81fe391c3923bec73e23a9662efc9c229c6a0090815460ff8160401c1615916001600160401b03821680159081610f1a575b6001149081610f10575b159081610f07575b50610ef55767ffffffffffffffff1982166001178455610e659183610ed6575b50610e5d61308d565b61014861308d565b610e6d61308d565b600980546001600160a01b031916734cb6cef87d8cadf966b455e8bd58fff32aba49d1179055610e9957005b68ff00000000000000001981541690557fc7f505b2f371ae2175ee4913f4499e1f2633a7b5936321eed1cdaeb6115181d2602060405160018152a1005b68ffffffffffffffffff19166801000000000000000117845584610e54565b60405163f92ee8a960e01b8152600490fd5b90501585610e34565b303b159150610e2c565b849150610e22565b3461014f57602036600319011261014f576001600160a01b03610f43612409565b166000526001602052602060ff60016040600020015460a01c166040519015158152f35b3461014f57600036600319011261014f57600654610f848161275c565b90610f926040519283612497565b808252602090818301908160066000526000805160206131528339815191526000915b83831061101c5750505050604051918083019381845251809452604083019360408160051b85010192916000955b828710610ff05785850386f35b90919293828061100c600193603f198a82030186528851612608565b9601920196019592919092610fe3565b600f8660019261102e859a999a612b1f565b815201920192019190959495610fb5565b3461014f5760208060031936011261014f5761105961241f565b61106281612db3565b63ffffffff811660005260028252604060002090336000526001835261108c604060002091612a6c565b600160ff600884015460081c166110a2816125fe565b036111915760058201546001600160a01b0390339082160361117f57600e83019081549060ff821661116d576003869461112b946001600c6000990195898754975560ff1916179055016110f78382546128dc565b905560095460405163a9059cbb60e01b81523360048201526024810193909352919485939190921691839182906044820190565b03925af180156111615761113b57005b8161014d92903d1061115a575b6111528183612497565b8101906127ff565b503d611148565b6040513d6000823e3d90fd5b60405163d2e53ca760e01b8152600490fd5b604051632cff942760e01b8152600490fd5b604051631988a70d60e01b8152600490fd5b3461014f57600036600319011261014f5760405160408101908082106001600160401b03831117610711576101ab9160405260058152640352e302e360dc1b6020820152604051918291602083526020830190612528565b3461014f57602036600319011261014f5761014d61121761241f565b612a6c565b3461014f57600036600319011261014f576007546112398161275c565b906112476040519283612497565b808252602090818301908160076000527fa66cc928b5edb82af9bd49922954155ab7b0942694bea4ce44661d9a8736c6886000915b8383106112e35750505050604051918083019381845251809452604083019360408160051b85010192916000955b8287106112b75785850386f35b9091929382806112d3600193603f198a820301865288516125a5565b96019201960195929190926112aa565b6005866001926112f5859a999a612a05565b81520192019201919095949561127c565b3461014f57600036600319011261014f57600080516020613132833981519152546040516001600160a01b039091168152602090f35b3461014f57600036600319011261014f57611355612e03565b60008051602061313283398151915280546001600160a01b031981169091556000906001600160a01b03167f8be0079c531659141344cd1fd0a4f28419497f9722a3daafe3b4186f6b6457e08280a3005b3461014f5760208060031936011261014f5760a0906113c3612409565b90600060806040516113d481612460565b6060815282848201528260408201526060808201520152600180841b03809216600052600181526114ac6040600020926040519361141185612460565b604051611422816105ea8185612915565b8552600181015484860192808216845260ff6040880192891c161515825261148a6003604051946114618661145a8160028501612915565b0387612497565b60608a0195865201549660808901978852604051998a99828b5251918a015260c0890190612528565b9351166040870152511515606086015251848203601f19016080860152612528565b905160a08301520390f35b3461014f57600036600319011261014f577f00000000000000000000000000000000000000000000000000000000000000006001600160a01b031630036115225760206040517f360894a13ba1a3210667c828492db98dca3e2076cc3735a920a3ca505d382bbc8152f35b60405163703e46dd60e11b8152600490fd5b3461014f57600036600319011261014f576009546040516370a0823160e01b815230600482015290602090829060249082906001600160a01b03165afa80156111615760009061158a575b602090604051908152f35b506020813d6020116115b5575b816115a460209383612497565b8101031261014f576020905161157f565b3d9150611597565b604036600319011261014f576115d1612409565b6024356001600160401b03811161014f573660238201121561014f576116019036906024816004013591016124d3565b906001600160a01b037f000000000000000000000000000000000000000000000000000000000000000081163081149081156117bd575b5061152257611645612e03565b6040516352d1902d60e01b8152908216916020918281600481875afa6000918161178e575b5061168857604051634c9c8ce360e01b815260048101859052602490fd5b9284937f360894a13ba1a3210667c828492db98dca3e2076cc3735a920a3ca505d382bbc908181036117765750823b1561175d5780546001600160a01b03191682179055604051907fbc7cd75a20ee27fd9adebab32041f755214dbc6bffa90cc0225b39da2e5c2d3b600080a28351156117435750600080848461014d96519101845af4903d1561173a573d61171d816124b8565b9061172b6040519283612497565b8152600081943d92013e6130ce565b606092506130ce565b925050503461174e57005b63b398979f60e01b8152600490fd5b604051634c9c8ce360e01b815260048101839052602490fd5b60249060405190632a87526960e21b82526004820152fd5b9091508381813d83116117b6575b6117a68183612497565b8101031261014f5751908661166a565b503d61179c565b9050817f360894a13ba1a3210667c828492db98dca3e2076cc3735a920a3ca505d382bbc5416141584611638565b3461014f57602036600319011261014f57611804612409565b600060a060405161181481612445565b828152826020820152826040820152826060820152826080820152015260018060a01b0316600052600360205260c06118506040600020612773565b61185d60405180926123c0565bf35b3461014f57602036600319011261014f5763ffffffff61187d61241f565b6118856128e9565b501660005260046020526101ab61189f6040600020612a05565b6040519182916020835260208301906125a5565b3461014f57604036600319011261014f576118cc61241f565b6118d4612432565b6118dd82612db3565b63ffffffff9182811692836000526020906002825260406000206008810160ff815416611909816125fe565b611db857600582016119446119248886845460a01c166128c4565b825463ffffffff60a01b191660a09190911b63ffffffff60a01b16178255565b805484808260c01c169160a01c1611611da65760005467ffffffff000000006119708683891c166128af565b871b169067ffffffff00000000191617600055336000526003855260406000209260ff6000935460101c166002811015610b005715611c0c575b50806119bf88866119df945460a01c166128c4565b815463ffffffff60a01b191660a09190911b63ffffffff60a01b16179055565b6000548254600160401b600160e01b031991861c85169190911667ffffffff00000001600160e01b0319909116173360401b600160401b600160e01b031617825563ffffffff1990611a5d611a32612de3565b9660028501978855849067ffffffff0000000082549160201b169067ffffffff000000001916179055565b611a6c600184019182546128dc565b8155600383019283548386611a838b8285166128c4565b16911617845560085491600160401b8310156107115760018301806008558310156106fb577fc541e3defd92fd2d8306e9c91b36c15f096115c41c7a9a36ac548a487d8891aa97869360021b91827ff3f7a9fe364faab93b216da50a3214154f22a0a2b415b23a84c8169e8b636ee30193808503611b30575b8c8c8c8c89336000526005825260406000208560005282526040600020600160ff19825416179055604051931683523392a3005b80548554881690871617808655815467ffffffff0000000019909116908b1c871660201b67ffffffff00000000161785557ff3f7a9fe364faab93b216da50a3214154f22a0a2b415b23a84c8169e8b636ee694611baa91548154600160401b600160e01b031916600160401b600160e01b03909116179055565b547ff3f7a9fe364faab93b216da50a3214154f22a0a2b415b23a84c8169e8b636ee4830155547ff3f7a9fe364faab93b216da50a3214154f22a0a2b415b23a84c8169e8b636ee582015501925416908254161790558580828180808080611afc565b9091506001600160601b03611c2981600b84015416868a166127cb565b169160018060a01b0360095416916040516370a0823160e01b81523360048201528781602481875afa8015611161578591600091611d75575b5010611d6357604051636eb1769f60e11b81523360048201523060248201528781604481875afa8015611161578591600091611d32575b5010611d2057866000936064604051809681936323b872dd60e01b83523360048401523060248401528960448401525af1908115611161576119df93600c92611d03575b5001611cea8482546128dc565b905560018401611cfb8482546128dc565b9055906119aa565b611d1990893d8b1161115a576111528183612497565b508b611cdd565b60405163ea75ebd560e01b8152600490fd5b809250898092503d8311611d5c575b611d4b8183612497565b8101031261014f578490518c611c99565b503d611d41565b604051632858f9ab60e11b8152600490fd5b809250898092503d8311611d9f575b611d8e8183612497565b8101031261014f578490518c611c62565b503d611d84565b6040516374a227cd60e01b8152600490fd5b6040516305fb6d9960e41b8152600490fd5b3461014f57606036600319011261014f576001600160401b0360043581811161014f57611dfb90369060040161250a565b906024356001600160a01b038116919082900361014f5760443581811161014f57611e2a90369060040161250a565b91611e3484612dd8565b611e3d83612dd8565b8060005260019360209185835260406000209180519085821161071157611e6e82611e688654612817565b86612868565b8490601f8311600114611f8e579180611ea2926002969594600092611f835750508160011b916000199060031b1c19161790565b82555b81870180546001600160a81b031916909117600160a01b17905584519101949092831161071157611ee083611eda8754612817565b87612868565b81601f8411600114611f1f5750508190611f1093600092611f145750508160011b916000199060031b1c19161790565b9055005b0151905084806103f4565b91909383601f1981168760005284600020946000905b88838310611f695750505010611f50575b505050811b019055005b015160001960f88460031b161c19169055838080611f46565b858701518855909601959485019487935090810190611f35565b015190508a806103f4565b9392918891601f1982169085600052876000209160005b89828210611fe0575050968360029810611fc7575b505050811b018255611ea5565b015160001960f88460031b161c19169055898080611fba565b838a015185558d96909401939283019201611fa5565b3461014f57604036600319011261014f5761200f61241f565b612017612432565b9061202181612db3565b63ffffffff90818116928360005260209260028452612044604060002093612db3565b84600052600284526040600020612059612de3565b600782015410612255575b503360005260038452604060002091600884015460ff8160101c166002811015610b00576122435760ff16612098816125fe565b6122315782546001600160a01b03919033604082901c84160361221f57838891881c160361220d5760038401838154168483168091106121fb57600c906120ee6001600160601b039182600b8b015416906127cb565b1696612107600582016119bf8689835460a01c166127e9565b018054908782039182116121e55755836121258254938285166127e9565b16809263ffffffff1916179055156121c0575b60095460405163a9059cbb60e01b8152336004820152602481018690529391869185916044918391600091165af1928315611161577f4f6fb365c29f3632d91fcd919dbfdf50155c34cd0ea613bd43e7e76529fec435936121a3575b505416926040519283523392a4005b6121b990863d881161115a576111528183612497565b5086612194565b33600052600585526040600020866000528552604060002060ff198154169055612138565b634e487b7160e01b600052601160045260246000fd5b60405163a2ed46e160e01b8152600490fd5b60405163b790ffed60e01b8152600490fd5b6040516338ebc58960e11b8152600490fd5b604051630738c50360e41b8152600490fd5b6040516380e4469160e01b8152600490fd5b6008018054600160ff8216612269816125fe565b03612275575b50612064565b60019060ff19161790556001612289612de3565b7f9c8ea6489f3baa31d321639e3a41ad67158fa673511a98870906b5a9eced0dd4600080a3858061226f565b3461014f57602036600319011261014f576001600160a01b036122d6612409565b1660005260016020526020600360406000200154604051908152f35b3461014f57600036600319011261014f5760085461230f8161275c565b61231c6040519182612497565b81815260209060208101928360086000527ff3f7a9fe364faab93b216da50a3214154f22a0a2b415b23a84c8169e8b636ee36000915b8383106123a357604080516020808252875190820181905289928201908960005b8281106123805784840385f35b9091928260c0826123946001948a516123c0565b01960191019492919094612373565b6004866001926123b285612773565b815201920192019190612352565b60a0908163ffffffff91828151168552826020820151166020860152600180831b0360408201511660408601526060810151606086015260808101516080860152015116910152565b600435906001600160a01b038216820361014f57565b6004359063ffffffff8216820361014f57565b6024359063ffffffff8216820361014f57565b60c081019081106001600160401b0382111761071157604052565b60a081019081106001600160401b0382111761071157604052565b61026081019081106001600160401b0382111761071157604052565b90601f801991011681019081106001600160401b0382111761071157604052565b6001600160401b03811161071157601f01601f191660200190565b9291926124df826124b8565b916124ed6040519384612497565b82948184528183011161014f578281602093846000960137010152565b9080601f8301121561014f57816020612525933591016124d3565b90565b919082519283825260005b848110612554575050826000602080949584010152601f8019910116010190565b602081830181015184830182015201612533565b90815180825260208080930193019160005b828110612588575050505090565b83516001600160a01b03168552938101939281019260010161257a565b6125259163ffffffff82511681526020820151602082015260806125ed6125db604085015160a0604086015260a0850190612528565b60608501518482036060860152612528565b920151906080818403910152612568565b60031115610b0057565b906102609161266461265261264063ffffffff9586855116865260208501516020870152604085015190806040880152860190612528565b60608401518582036060870152612528565b60808301518482036080860152612528565b9260018060a01b0360a08301511660a08401528060c08301511660c084015260e08201511660e08301526101008082015190830152610120808201519083015261014080820151906126b5826125fe565b83015261016080820151906126c9826125fe565b83015261018080820151906002821015610b00578301526101a080820151908301526101c080820151908301526101e06001600160601b038183015116908301526102008082015190830152610220808201519083015261024080910151151591015290565b9181601f8401121561014f578235916001600160401b03831161014f576020838186019501011161014f57565b6001600160401b0381116107115760051b60200190565b9060405161278081612445565b60a08193600381549163ffffffff928381168652838160201c166020870152600180861b039060401c1660408601526001810154606086015260028101546080860152015416910152565b9190916001600160601b03808094169116029182169182036121e557565b63ffffffff91821690821603919082116121e557565b9081602091031261014f5751801515810361014f5790565b90600182811c92168015612847575b602083101461283157565b634e487b7160e01b600052602260045260246000fd5b91607f1691612826565b81811061285c575050565b60008155600101612851565b9190601f811161287757505050565b6128a3926000526020600020906020601f840160051c830193106128a5575b601f0160051c0190612851565b565b9091508190612896565b90600163ffffffff809316019182116121e557565b91909163ffffffff808094169116019182116121e557565b919082018092116121e557565b604051906128f682612460565b6060608083600081526000602082015282604082015282808201520152565b80546000939261292482612817565b9182825260209360019160018116908160001461298c575060011461294b575b5050505050565b90939495506000929192528360002092846000945b83861061297857505050500101903880808080612944565b805485870183015294019385908201612960565b60ff19168685015250505090151560051b010191503880808080612944565b90604051918281549182825260209260208301916000526020600020936000905b8282106129e2575050506128a392500383612497565b85546001600160a01b0316845260019586019588955093810193909101906129cc565b90604051612a1281612460565b6080612a676004839563ffffffff815416855260018101546020860152604051612a43816105ea8160028601612915565b6040860152604051612a5c816105ea8160038601612915565b6060860152016129ab565b910152565b63ffffffff90612a7b81612db3565b168060005260026020526040600020612a92612de3565b6009820154111580612b0a575b15612ab357600801805461ff001916905550565b612abb612de3565b600a82015410612aca575b5050565b600801805461ff001916610100179055612ae2612de3565b907f835839f42ff642197e82f2887491db41a51c32dc7004091799724e9e3d6f2489600080a3565b50612b13612de3565b600a8201541015612a9f565b90604051612b2c8161247b565b809263ffffffff80825416835260018201546020840152604051612b57816105ea8160028701612915565b6040840152604051612b70816105ea8160038701612915565b6060840152604051612b89816105ea8160048701612915565b6080840152600582015460018060a01b03811660a0850152818160a01c1660c085015260c01c1660e08301526006810154610100830152600781015461012083015260ff6008820154818116612bde816125fe565b610140850152818160081c16612bf3816125fe565b61016085015260101c16906002821015610b0057600e60ff916102409361018086015260098101546101a0860152600a8101546101c08601526001600160601b03600b820154166101e0860152600c810154610200860152600d8101546102208601520154161515910152565b90808214612ac657612c728154612817565b906001600160401b03821161071157612c9582612c8f8554612817565b85612868565b600090601f8311600114612cd457612cc5929160009183612cc95750508160011b916000199060031b1c19161790565b9055565b0154905038806103f4565b815260208082208483528183209291601f1985169083905b828210612d26575050908460019594939210612d0d575b505050811b019055565b015460001960f88460031b161c19169055388080612d03565b8495819295850154815560018091019601940190612cec565b6001600160a01b03908116908115612d9a5760008051602061313283398151915280546001600160a01b031981168417909155167f8be0079c531659141344cd1fd0a4f28419497f9722a3daafe3b4186f6b6457e0600080a3565b604051631e4fbdf760e01b815260006004820152602490fd5b63ffffffff8060005416911611612dc657565b6040516316a7994d60e21b8152600490fd5b6001905110610cc957565b6103e8804202904282048114421517156121e55781018091116121e55790565b600080516020613132833981519152546001600160a01b03163303612e2457565b60405163118cdaa760e01b8152336004820152602490fd5b600111610cc957565b1015612e4d57565b60405163489eca6760e01b8152600490fd5b63ffffffff82511663ffffffff1982541617815560019160208082015184840155600283019260408301519384516001600160401b039586821161071157612eab82612c8f8554612817565b8490601f831160011461302b57612eda929160009183612fb25750508160011b916000199060031b1c19161790565b90555b60038101606084015180519086821161071157612efe82612c8f8554612817565b8490601f8311600114612fbd57826080959360049593612f3493600092612fb25750508160011b916000199060031b1c19161790565b90555b01920151805193841161071157600160401b84116107115781908354858555808610612f95575b500191600052806000209060005b848110612f7b57505050505050565b83516001600160a01b031683820155928101928501612f6c565b612fac908560005286846000209182019101612851565b38612f5e565b0151905038806103f4565b889291601f1983169185600052876000209260005b898282106130155750509160809795939185600498969410612ffc575b505050811b019055612f37565b015160001960f88460031b161c19169055388080612fef565b8385015186558d97909501949384019301612fd2565b889291601f1983169185600052876000209260005b89828210613077575050841161305e575b505050811b019055612edd565b015160001960f88460031b161c19169055388080613051565b8385015186558d97909501949384019301613040565b60ff7ff0c57e16840df040f15088dc2f81fe391c3923bec73e23a9662efc9c229c6a005460401c16156130bc57565b604051631afcd79f60e31b8152600490fd5b906130f557508051156130e357805190602001fd5b604051630a12f52160e11b8152600490fd5b81511580613128575b613106575090565b604051639996b31560e01b81526001600160a01b039091166004820152602490fd5b50803b156130fe56fe9016d09d72d40fdae2fd8ceac6b6234c7706214fd39c1cd1e609a0528c199300f652222313e28459528d920b65115c16c04f3efc82aaedc97be59f3f377c0d3ff652222313e28459528d920b65115c16c04f3efc82aaedc97be59f3f377c0d47a264697066735822122000e16eb44e80acf3c6820d2ad029adf5ee44c05b2e9ead18dd91c24463ddcaa364736f6c63430008180033",
    "linkReferences": {}
  },
  "methodIdentifiers": {
    "UPGRADE_INTERFACE_VERSION()": "ad3cb1cc",
    "checkContractBalance()": "50312c9e",
    "checkUserBalance(address)": "0a9bfef5",
    "createAccount(string,address,string)": "331ef976",
    "createEvent(bytes32,string,string,string,uint32,uint256,uint256,uint256,uint256,uint96,bool)": "dbc96e99",
    "getAllEventGroups()": "909fdec9",
    "getAllEvents()": "c27a500d",
    "getAllTickets()": "03e96fe3",
    "getEventById(uint32)": "cd71ed35",
    "getEventGroup(uint32)": "3809f6f5",
    "getGroupMembers(uint32)": "ec976a0a",
    "getTicket(address)": "4717dea9",
    "getUser(address)": "6f77926b",
    "initialize(address)": "c4d66de8",
    "isRegistered(address)": "c3c5a547",
    "owner()": "8da5cb5b",
    "proxiableUUID()": "52d1902d",
    "purchaseTicket(uint32,uint32)": "3405741d",
    "refundFee(uint32,uint32)": "0f9fcf48",
    "renounceOwnership()": "715018a6",
    "transferOwnership(address)": "f2fde38b",
    "updateEventStatus(uint32)": "a87f86f9",
    "upgradeToAndCall(address,bytes)": "4f1ef286",
    "withdrawEventFee(uint32)": "b33f650e"
  },
  "id": 36
}