{
  "abi": [
    {
      "type": "function",
      "name": "UPGRADE_INTERFACE_VERSION",
      "inputs": [],
      "outputs": [
        {
          "name": "",
          "type": "string",
          "internalType": "string"
        }
      ],
      "stateMutability": "view"
    },
    {
      "type": "function",
      "name": "checkContractBalance",
      "inputs": [],
      "outputs": [
        {
          "name": "bal_",
          "type": "uint256",
          "internalType": "uint256"
        }
      ],
      "stateMutability": "view"
    },
    {
      "type": "function",
      "name": "checkUserBalance",
      "inputs": [
        {
          "name": "_addr",
          "type": "address",
          "internalType": "address"
        }
      ],
      "outputs": [
        {
          "name": "bal_",
          "type": "uint256",
          "internalType": "uint256"
        }
      ],
      "stateMutability": "view"
    },
    {
      "type": "function",
      "name": "createAccount",
      "inputs": [
        {
          "name": "_email",
          "type": "string",
          "internalType": "string"
        },
        {
          "name": "_addr",
          "type": "address",
          "internalType": "address"
        },
        {
          "name": "_avatar",
          "type": "string",
          "internalType": "string"
        }
      ],
      "outputs": [],
      "stateMutability": "nonpayable"
    },
    {
      "type": "function",
      "name": "createEvent",
      "inputs": [
        {
          "name": "_title",
          "type": "bytes32",
          "internalType": "bytes32"
        },
        {
          "name": "_imageUrl",
          "type": "bytes32",
          "internalType": "bytes32"
        },
        {
          "name": "_description",
          "type": "string",
          "internalType": "string"
        },
        {
          "name": "_capacity",
          "type": "uint32",
          "internalType": "uint32"
        },
        {
          "name": "_regStartTime",
          "type": "uint256",
          "internalType": "uint256"
        },
        {
          "name": "_regEndTime",
          "type": "uint256",
          "internalType": "uint256"
        },
        {
          "name": "_eventStartTime",
          "type": "uint256",
          "internalType": "uint256"
        },
        {
          "name": "_eventEndTime",
          "type": "uint256",
          "internalType": "uint256"
        },
        {
          "name": "_ticketPrice",
          "type": "uint96",
          "internalType": "uint96"
        },
        {
          "name": "_eventType",
          "type": "uint8",
          "internalType": "enum BlumaProtocol.EventType"
        }
      ],
      "outputs": [],
      "stateMutability": "nonpayable"
    },
    {
      "type": "function",
      "name": "getAllEvents",
      "inputs": [],
      "outputs": [
        {
          "name": "_events",
          "type": "tuple[]",
          "internalType": "struct BlumaProtocol.Event[]",
          "components": [
            {
              "name": "eventId",
              "type": "uint32",
              "internalType": "uint32"
            },
            {
              "name": "title",
              "type": "bytes32",
              "internalType": "bytes32"
            },
            {
              "name": "imageUrl",
              "type": "bytes32",
              "internalType": "bytes32"
            },
            {
              "name": "description",
              "type": "string",
              "internalType": "string"
            },
            {
              "name": "creator",
              "type": "address",
              "internalType": "address"
            },
            {
              "name": "seats",
              "type": "uint32",
              "internalType": "uint32"
            },
            {
              "name": "capacity",
              "type": "uint32",
              "internalType": "uint32"
            },
            {
              "name": "regStartTime",
              "type": "uint256",
              "internalType": "uint256"
            },
            {
              "name": "regEndTime",
              "type": "uint256",
              "internalType": "uint256"
            },
            {
              "name": "regStatus",
              "type": "uint8",
              "internalType": "enum BlumaProtocol.RegStatus"
            },
            {
              "name": "eventStatus",
              "type": "uint8",
              "internalType": "enum BlumaProtocol.EventStatus"
            },
            {
              "name": "eventType",
              "type": "uint8",
              "internalType": "enum BlumaProtocol.EventType"
            },
            {
              "name": "eventStartTime",
              "type": "uint256",
              "internalType": "uint256"
            },
            {
              "name": "eventEndTime",
              "type": "uint256",
              "internalType": "uint256"
            },
            {
              "name": "ticketPrice",
              "type": "uint96",
              "internalType": "uint96"
            },
            {
              "name": "totalSales",
              "type": "uint256",
              "internalType": "uint256"
            },
            {
              "name": "createdAt",
              "type": "uint256",
              "internalType": "uint256"
            },
            {
              "name": "isCreatorPaid",
              "type": "bool",
              "internalType": "bool"
            }
          ]
        }
      ],
      "stateMutability": "view"
    },
    {
      "type": "function",
      "name": "getAllTickets",
      "inputs": [],
      "outputs": [
        {
          "name": "_tickets",
          "type": "tuple[]",
          "internalType": "struct BlumaProtocol.Ticket[]",
          "components": [
            {
              "name": "ticketId",
              "type": "uint32",
              "internalType": "uint32"
            },
            {
              "name": "eventId",
              "type": "uint32",
              "internalType": "uint32"
            },
            {
              "name": "owner",
              "type": "address",
              "internalType": "address"
            },
            {
              "name": "ticketCost",
              "type": "uint256",
              "internalType": "uint256"
            },
            {
              "name": "purchaseTime",
              "type": "uint256",
              "internalType": "uint256"
            },
            {
              "name": "numberOfTicket",
              "type": "uint32",
              "internalType": "uint32"
            }
          ]
        }
      ],
      "stateMutability": "view"
    },
    {
      "type": "function",
      "name": "getEvent",
      "inputs": [
        {
          "name": "_eventId",
          "type": "uint32",
          "internalType": "uint32"
        }
      ],
      "outputs": [
        {
          "name": "_events",
          "type": "tuple",
          "internalType": "struct BlumaProtocol.Event",
          "components": [
            {
              "name": "eventId",
              "type": "uint32",
              "internalType": "uint32"
            },
            {
              "name": "title",
              "type": "bytes32",
              "internalType": "bytes32"
            },
            {
              "name": "imageUrl",
              "type": "bytes32",
              "internalType": "bytes32"
            },
            {
              "name": "description",
              "type": "string",
              "internalType": "string"
            },
            {
              "name": "creator",
              "type": "address",
              "internalType": "address"
            },
            {
              "name": "seats",
              "type": "uint32",
              "internalType": "uint32"
            },
            {
              "name": "capacity",
              "type": "uint32",
              "internalType": "uint32"
            },
            {
              "name": "regStartTime",
              "type": "uint256",
              "internalType": "uint256"
            },
            {
              "name": "regEndTime",
              "type": "uint256",
              "internalType": "uint256"
            },
            {
              "name": "regStatus",
              "type": "uint8",
              "internalType": "enum BlumaProtocol.RegStatus"
            },
            {
              "name": "eventStatus",
              "type": "uint8",
              "internalType": "enum BlumaProtocol.EventStatus"
            },
            {
              "name": "eventType",
              "type": "uint8",
              "internalType": "enum BlumaProtocol.EventType"
            },
            {
              "name": "eventStartTime",
              "type": "uint256",
              "internalType": "uint256"
            },
            {
              "name": "eventEndTime",
              "type": "uint256",
              "internalType": "uint256"
            },
            {
              "name": "ticketPrice",
              "type": "uint96",
              "internalType": "uint96"
            },
            {
              "name": "totalSales",
              "type": "uint256",
              "internalType": "uint256"
            },
            {
              "name": "createdAt",
              "type": "uint256",
              "internalType": "uint256"
            },
            {
              "name": "isCreatorPaid",
              "type": "bool",
              "internalType": "bool"
            }
          ]
        }
      ],
      "stateMutability": "view"
    },
    {
      "type": "function",
      "name": "getGroupMembers",
      "inputs": [
        {
          "name": "_eventId",
          "type": "uint32",
          "internalType": "uint32"
        }
      ],
      "outputs": [
        {
          "name": "_members",
          "type": "address[]",
          "internalType": "address[]"
        }
      ],
      "stateMutability": "view"
    },
    {
      "type": "function",
      "name": "getTicket",
      "inputs": [
        {
          "name": "_addr",
          "type": "address",
          "internalType": "address"
        }
      ],
      "outputs": [
        {
          "name": "_ticket",
          "type": "tuple",
          "internalType": "struct BlumaProtocol.Ticket",
          "components": [
            {
              "name": "ticketId",
              "type": "uint32",
              "internalType": "uint32"
            },
            {
              "name": "eventId",
              "type": "uint32",
              "internalType": "uint32"
            },
            {
              "name": "owner",
              "type": "address",
              "internalType": "address"
            },
            {
              "name": "ticketCost",
              "type": "uint256",
              "internalType": "uint256"
            },
            {
              "name": "purchaseTime",
              "type": "uint256",
              "internalType": "uint256"
            },
            {
              "name": "numberOfTicket",
              "type": "uint32",
              "internalType": "uint32"
            }
          ]
        }
      ],
      "stateMutability": "view"
    },
    {
      "type": "function",
      "name": "getUser",
      "inputs": [
        {
          "name": "_addr",
          "type": "address",
          "internalType": "address"
        }
      ],
      "outputs": [
        {
          "name": "_user",
          "type": "tuple",
          "internalType": "struct BlumaProtocol.User",
          "components": [
            {
              "name": "email",
              "type": "string",
              "internalType": "string"
            },
            {
              "name": "userAddr",
              "type": "address",
              "internalType": "address"
            },
            {
              "name": "isRegistered",
              "type": "bool",
              "internalType": "bool"
            },
            {
              "name": "avatar",
              "type": "string",
              "internalType": "string"
            },
            {
              "name": "balance",
              "type": "uint256",
              "internalType": "uint256"
            }
          ]
        }
      ],
      "stateMutability": "view"
    },
    {
      "type": "function",
      "name": "initialize",
      "inputs": [
        {
          "name": "initialOwner",
          "type": "address",
          "internalType": "address"
        }
      ],
      "outputs": [],
      "stateMutability": "nonpayable"
    },
    {
      "type": "function",
      "name": "isRegistered",
      "inputs": [
        {
          "name": "_addr",
          "type": "address",
          "internalType": "address"
        }
      ],
      "outputs": [
        {
          "name": "",
          "type": "bool",
          "internalType": "bool"
        }
      ],
      "stateMutability": "view"
    },
    {
      "type": "function",
      "name": "owner",
      "inputs": [],
      "outputs": [
        {
          "name": "",
          "type": "address",
          "internalType": "address"
        }
      ],
      "stateMutability": "view"
    },
    {
      "type": "function",
      "name": "proxiableUUID",
      "inputs": [],
      "outputs": [
        {
          "name": "",
          "type": "bytes32",
          "internalType": "bytes32"
        }
      ],
      "stateMutability": "view"
    },
    {
      "type": "function",
      "name": "purchaseTicket",
      "inputs": [
        {
          "name": "_eventId",
          "type": "uint32",
          "internalType": "uint32"
        },
        {
          "name": "_numberOfTickets",
          "type": "uint32",
          "internalType": "uint32"
        }
      ],
      "outputs": [],
      "stateMutability": "nonpayable"
    },
    {
      "type": "function",
      "name": "refundFee",
      "inputs": [
        {
          "name": "_eventId",
          "type": "uint32",
          "internalType": "uint32"
        },
        {
          "name": "_numberOfTickets",
          "type": "uint32",
          "internalType": "uint32"
        }
      ],
      "outputs": [],
      "stateMutability": "nonpayable"
    },
    {
      "type": "function",
      "name": "renounceOwnership",
      "inputs": [],
      "outputs": [],
      "stateMutability": "nonpayable"
    },
    {
      "type": "function",
      "name": "transferOwnership",
      "inputs": [
        {
          "name": "newOwner",
          "type": "address",
          "internalType": "address"
        }
      ],
      "outputs": [],
      "stateMutability": "nonpayable"
    },
    {
      "type": "function",
      "name": "updateEventStatus",
      "inputs": [
        {
          "name": "_eventId",
          "type": "uint32",
          "internalType": "uint32"
        }
      ],
      "outputs": [],
      "stateMutability": "nonpayable"
    },
    {
      "type": "function",
      "name": "upgradeToAndCall",
      "inputs": [
        {
          "name": "newImplementation",
          "type": "address",
          "internalType": "address"
        },
        {
          "name": "data",
          "type": "bytes",
          "internalType": "bytes"
        }
      ],
      "outputs": [],
      "stateMutability": "payable"
    },
    {
      "type": "function",
      "name": "withdrawEventFee",
      "inputs": [
        {
          "name": "_eventId",
          "type": "uint32",
          "internalType": "uint32"
        }
      ],
      "outputs": [],
      "stateMutability": "nonpayable"
    },
    {
      "type": "event",
      "name": "EventClosed",
      "inputs": [
        {
          "name": "_eventId",
          "type": "uint32",
          "indexed": true,
          "internalType": "uint32"
        },
        {
          "name": "_currentTime",
          "type": "uint256",
          "indexed": true,
          "internalType": "uint256"
        }
      ],
      "anonymous": false
    },
    {
      "type": "event",
      "name": "EventCreated",
      "inputs": [
        {
          "name": "_totalEventsId",
          "type": "uint32",
          "indexed": true,
          "internalType": "uint32"
        },
        {
          "name": "_seatNumber",
          "type": "uint32",
          "indexed": true,
          "internalType": "uint32"
        },
        {
          "name": "_capacity",
          "type": "uint32",
          "indexed": true,
          "internalType": "uint32"
        }
      ],
      "anonymous": false
    },
    {
      "type": "event",
      "name": "GroupCreated",
      "inputs": [
        {
          "name": "_roomId",
          "type": "uint32",
          "indexed": true,
          "internalType": "uint32"
        },
        {
          "name": "imageUrl",
          "type": "bytes32",
          "indexed": false,
          "internalType": "bytes32"
        },
        {
          "name": "_title",
          "type": "bytes32",
          "indexed": false,
          "internalType": "bytes32"
        }
      ],
      "anonymous": false
    },
    {
      "type": "event",
      "name": "GroupJoinedSuccessfully",
      "inputs": [
        {
          "name": "_sender",
          "type": "address",
          "indexed": true,
          "internalType": "address"
        },
        {
          "name": "_eventId",
          "type": "uint32",
          "indexed": true,
          "internalType": "uint32"
        }
      ],
      "anonymous": false
    },
    {
      "type": "event",
      "name": "Initialized",
      "inputs": [
        {
          "name": "version",
          "type": "uint64",
          "indexed": false,
          "internalType": "uint64"
        }
      ],
      "anonymous": false
    },
    {
      "type": "event",
      "name": "OwnershipTransferred",
      "inputs": [
        {
          "name": "previousOwner",
          "type": "address",
          "indexed": true,
          "internalType": "address"
        },
        {
          "name": "newOwner",
          "type": "address",
          "indexed": true,
          "internalType": "address"
        }
      ],
      "anonymous": false
    },
    {
      "type": "event",
      "name": "RefundIssued",
      "inputs": [
        {
          "name": "buyer",
          "type": "address",
          "indexed": true,
          "internalType": "address"
        },
        {
          "name": "_ticketId",
          "type": "uint32",
          "indexed": true,
          "internalType": "uint32"
        },
        {
          "name": "_eventId",
          "type": "uint32",
          "indexed": true,
          "internalType": "uint32"
        },
        {
          "name": "amount",
          "type": "uint256",
          "indexed": false,
          "internalType": "uint256"
        }
      ],
      "anonymous": false
    },
    {
      "type": "event",
      "name": "RegistrationClose",
      "inputs": [
        {
          "name": "_currentTime",
          "type": "uint256",
          "indexed": true,
          "internalType": "uint256"
        },
        {
          "name": "_status",
          "type": "uint8",
          "indexed": true,
          "internalType": "uint8"
        }
      ],
      "anonymous": false
    },
    {
      "type": "event",
      "name": "TicketPurchased",
      "inputs": [
        {
          "name": "buyer",
          "type": "address",
          "indexed": true,
          "internalType": "address"
        },
        {
          "name": "_eventId",
          "type": "uint32",
          "indexed": true,
          "internalType": "uint32"
        },
        {
          "name": "numberOfTickets",
          "type": "uint32",
          "indexed": false,
          "internalType": "uint32"
        }
      ],
      "anonymous": false
    },
    {
      "type": "event",
      "name": "Upgraded",
      "inputs": [
        {
          "name": "implementation",
          "type": "address",
          "indexed": true,
          "internalType": "address"
        }
      ],
      "anonymous": false
    },
    {
      "type": "error",
      "name": "ALREADY_PAID",
      "inputs": []
    },
    {
      "type": "error",
      "name": "AddressEmptyCode",
      "inputs": [
        {
          "name": "target",
          "type": "address",
          "internalType": "address"
        }
      ]
    },
    {
      "type": "error",
      "name": "EMPTY_INPUT_FIELD",
      "inputs": []
    },
    {
      "type": "error",
      "name": "ERC1967InvalidImplementation",
      "inputs": [
        {
          "name": "implementation",
          "type": "address",
          "internalType": "address"
        }
      ]
    },
    {
      "type": "error",
      "name": "ERC1967NonPayable",
      "inputs": []
    },
    {
      "type": "error",
      "name": "EVENT_NOT_CLOSED",
      "inputs": []
    },
    {
      "type": "error",
      "name": "FailedInnerCall",
      "inputs": []
    },
    {
      "type": "error",
      "name": "GROUP_ALREADY_EXISTS",
      "inputs": []
    },
    {
      "type": "error",
      "name": "INSUFFICIENT_BALANCE",
      "inputs": []
    },
    {
      "type": "error",
      "name": "INSUFFICIENT_TICKET_PURCHASED",
      "inputs": []
    },
    {
      "type": "error",
      "name": "INVALID_EVENT_ID",
      "inputs": []
    },
    {
      "type": "error",
      "name": "INVALID_ID",
      "inputs": []
    },
    {
      "type": "error",
      "name": "INVALID_TIME_SET",
      "inputs": []
    },
    {
      "type": "error",
      "name": "InvalidInitialization",
      "inputs": []
    },
    {
      "type": "error",
      "name": "NOT_CREATOR",
      "inputs": []
    },
    {
      "type": "error",
      "name": "NOT_ENOUGH_AVAILABLE_SEAT",
      "inputs": []
    },
    {
      "type": "error",
      "name": "NOT_OWNER",
      "inputs": []
    },
    {
      "type": "error",
      "name": "NOT_PAID_EVENT",
      "inputs": []
    },
    {
      "type": "error",
      "name": "NO_ALLOWANCE",
      "inputs": []
    },
    {
      "type": "error",
      "name": "NotInitializing",
      "inputs": []
    },
    {
      "type": "error",
      "name": "OwnableInvalidOwner",
      "inputs": [
        {
          "name": "owner",
          "type": "address",
          "internalType": "address"
        }
      ]
    },
    {
      "type": "error",
      "name": "OwnableUnauthorizedAccount",
      "inputs": [
        {
          "name": "account",
          "type": "address",
          "internalType": "address"
        }
      ]
    },
    {
      "type": "error",
      "name": "REGISTRATION_CLOSE",
      "inputs": []
    },
    {
      "type": "error",
      "name": "REGISTRATION_NOT_OPEN",
      "inputs": []
    },
    {
      "type": "error",
      "name": "UUPSUnauthorizedCallContext",
      "inputs": []
    },
    {
      "type": "error",
      "name": "UUPSUnsupportedProxiableUUID",
      "inputs": [
        {
          "name": "slot",
          "type": "bytes32",
          "internalType": "bytes32"
        }
      ]
    }
  ],
  "bytecode": {
    "object": "0x60a0806040523461002a5730608052612b62908161003082396080518181816108fa0152610a3c0152f35b600080fdfe6080604052600436101561001257600080fd5b60003560e01c806303e96fe314611f865780630a9bfef514611f495780630f9fcf4814611c98578063331ef97614611a6b5780633405741d146115965780633665107214610c8f5780634717dea914610c1b5780634f1ef286146109ed57806350312c9e1461096457806352d1902d146108e75780636f77926b146107ed578063715018a6146107835780638da5cb5b1461074d578063a87f86f91461072c578063ad3cb1cc146106be578063b33f650e1461055a578063c27a500d14610482578063c3c5a5471461043d578063c4d66de8146102e4578063d88c8e981461020d578063ec976a0a1461013e5763f2fde38b1461010e57600080fd5b346101395760203660031901126101395761013761012a61209d565b610132612a0f565b6127c5565b005b600080fd5b34610139576020806003193601126101395763ffffffff61015d6120b3565b61016681612839565b1660005260048152600460406000200160405190818382549182815201908192600052846000209060005b868282106101f05786866101a78288038361212b565b604051928392818401908285525180915260408401929160005b8281106101d057505050500390f35b83516001600160a01b0316855286955093810193928101926001016101c1565b83546001600160a01b031685529093019260019283019201610191565b346101395760203660031901126101395763ffffffff61022b6120b3565b600061022060405161023c8161210f565b8281528260208201528260408201526060808201528260808201528260a08201528260c08201528260e08201528261010082015282610120820152826101408201528261016082015282610180820152826101a0820152826101c0820152826101e08201528261020082015201526102b381612839565b1660005260026020526102e06102cc60406000206126b5565b604051918291602083526020830190612206565b0390f35b34610139576020366003190112610139576102fd61209d565b7ff0c57e16840df040f15088dc2f81fe391c3923bec73e23a9662efc9c229c6a0090815460ff8160401c1615916001600160401b03821680159081610435575b600114908161042b575b159081610422575b506104105767ffffffffffffffff198216600117845561038091836103f1575b50610378612a48565b610132612a48565b610388612a48565b600980546001600160a01b031916734cb6cef87d8cadf966b455e8bd58fff32aba49d11790556103b457005b68ff00000000000000001981541690557fc7f505b2f371ae2175ee4913f4499e1f2633a7b5936321eed1cdaeb6115181d2602060405160018152a1005b68ffffffffffffffffff1916680100000000000000011784558461036f565b60405163f92ee8a960e01b8152600490fd5b9050158561034f565b303b159150610347565b84915061033d565b34610139576020366003190112610139576001600160a01b0361045e61209d565b166000526001602052602060ff60016040600020015460a01c166040519015158152f35b346101395760003660031901126101395760065461049f8161230c565b906104ad604051928361212b565b80825260209081830190816006600052600080516020612b0d8339815191526000915b8383106105375750505050604051918083019381845251809452604083019360408160051b85010192916000955b82871061050b5785850386f35b909192938280610527600193603f198a82030186528851612206565b96019201960195929190926104fe565b600e86600192610549859a999a6126b5565b8152019201920191909594956104d0565b3461013957602080600319360112610139576105746120b3565b61057d81612839565b63ffffffff81166000526002825260406000209033600052600183526105a760406000209161261f565b600160ff600784015460081c166105bd816121fc565b036106ac5760048201546001600160a01b0390339082160361069a57600d83019081549060ff82166106885760038694610646946001600b6000990195898754975560ff19161790550161061283825461248c565b905560095460405163a9059cbb60e01b81523360048201526024810193909352919485939190921691839182906044820190565b03925af1801561067c5761065657005b8161013792903d10610675575b61066d818361212b565b8101906123af565b503d610663565b6040513d6000823e3d90fd5b60405163d2e53ca760e01b8152600490fd5b604051632cff942760e01b8152600490fd5b604051631988a70d60e01b8152600490fd5b346101395760003660031901126101395760405160408101908082106001600160401b03831117610716576102e09160405260058152640352e302e360dc1b60208201526040519182916020835260208301906121bc565b634e487b7160e01b600052604160045260246000fd5b34610139576020366003190112610139576101376107486120b3565b61261f565b3461013957600036600319011261013957600080516020612aed833981519152546040516001600160a01b039091168152602090f35b346101395760003660031901126101395761079c612a0f565b600080516020612aed83398151915280546001600160a01b031981169091556000906001600160a01b03167f8be0079c531659141344cd1fd0a4f28419497f9722a3daafe3b4186f6b6457e08280a3005b34610139576020806003193601126101395760a09061080a61209d565b906000608060405161081b816120d9565b6060815282848201528260408201526060808201520152600180841b03809216600052600181526108dc60406000209260405193610858856120d9565b6108618161257c565b8552600181015484860192808216845260ff6040880192891c16151582526108ba60036108906002860161257c565b9460608a0195865201549660808901978852604051998a99828b5251918a015260c08901906121bc565b9351166040870152511515606086015251848203601f190160808601526121bc565b905160a08301520390f35b34610139576000366003190112610139577f00000000000000000000000000000000000000000000000000000000000000006001600160a01b031630036109525760206040517f360894a13ba1a3210667c828492db98dca3e2076cc3735a920a3ca505d382bbc8152f35b60405163703e46dd60e11b8152600490fd5b34610139576000366003190112610139576009546040516370a0823160e01b815230600482015290602090829060249082906001600160a01b03165afa801561067c576000906109ba575b602090604051908152f35b506020813d6020116109e5575b816109d46020938361212b565b8101031261013957602090516109af565b3d91506109c7565b604036600319011261013957610a0161209d565b6024356001600160401b038111610139573660238201121561013957610a31903690602481600401359101612167565b906001600160a01b037f00000000000000000000000000000000000000000000000000000000000000008116308114908115610bed575b5061095257610a75612a0f565b6040516352d1902d60e01b8152908216916020918281600481875afa60009181610bbe575b50610ab857604051634c9c8ce360e01b815260048101859052602490fd5b9284937f360894a13ba1a3210667c828492db98dca3e2076cc3735a920a3ca505d382bbc90818103610ba65750823b15610b8d5780546001600160a01b03191682179055604051907fbc7cd75a20ee27fd9adebab32041f755214dbc6bffa90cc0225b39da2e5c2d3b600080a2835115610b735750600080848461013796519101845af4903d15610b6a573d610b4d8161214c565b90610b5b604051928361212b565b8152600081943d92013e612a89565b60609250612a89565b9250505034610b7e57005b63b398979f60e01b8152600490fd5b604051634c9c8ce360e01b815260048101839052602490fd5b60249060405190632a87526960e21b82526004820152fd5b9091508381813d8311610be6575b610bd6818361212b565b8101031261013957519086610a9a565b503d610bcc565b9050817f360894a13ba1a3210667c828492db98dca3e2076cc3735a920a3ca505d382bbc5416141584610a68565b3461013957602036600319011261013957610c3461209d565b600060a0604051610c44816120f4565b828152826020820152826040820152826060820152826080820152015260018060a01b0316600052600360205260c0610c806040600020612323565b610c8d6040518092612054565bf35b3461013957610140366003190112610139576001600160401b0380604435116101395736602360443501121561013957604435600401351161013957366024604435600401356044350101116101395763ffffffff606435166064350361013957610104356001600160601b038116810361013957600261012435101561013957610d2e610d293660443560040135602460443501612167565b61285e565b610d39608435612869565b610d4460a435612869565b610d4f60c435612869565b610d5a60e435612869565b610d6c6001600160601b038216612869565b600163ffffffff606435161061158457610d8a60e43560c435612872565b610d9860a435608435612872565b60005463ffffffff610dab81831661245f565b16809163ffffffff191617600055600052600260205260406000209060843542106000146115735760078201805460ff191660021790555b6101243561154b576001600160601b03600a830191166001600160601b03198254161790555b63ffffffff6000541663ffffffff1982541617815560043560018201556024356002820155610e4e60443560040135610e4560038401546123c7565b60038401612418565b6000601f60443560040135116001146114bd57610e9090600090604435600401356114ad575b5060443560040135908160011b916000199060031b1c19161790565b60038201555b60048101805463ffffffff60a01b1933166001600160c01b03199091161760643560a01b63ffffffff60a01b1617905560048101805463ffffffff60c01b191660643560c01b63ffffffff60c01b16179055608435600582015560a435600682015560c435600882015560e435600982015561020061ff001960078301541617600782015542600c820155600654600160401b8110156107165760018101806006558110156110ba57600660005281600e8202600080516020612b0d83398151915201036110e2575b5063ffffffff815416610f7181612839565b80600052600460205263ffffffff604060002054166110d0578060005260026020526040600020604051610fa4816120d9565b606081016060815260606080830152838252600183019081546020840152610fd960036002860195865460408701520161257c565b9052836000526004602052610ff282604060002061288c565b60075492600160401b8410156107165760018401806007558410156110ba5761106860409360057f13775bca12691f71071dc38ebb2942e638039a3f317c8436d8b7574cdce1162c966007600052027fa66cc928b5edb82af9bd49922954155ab7b0942694bea4ce44661d9a8736c6880161288c565b54905482519182526020820152a263ffffffff6000541663ffffffff6004816064351693015460a01c16907fac3c2fbb08f906d92c1b4be6fa025f63708bafa70869110e931d718b9532c411600080a4005b634e487b7160e01b600052603260045260246000fd5b60405163e955b73b60e01b8152600490fd5b63ffffffff82541663ffffffff19600e8302600080516020612b0d83398151915201541617600e8202600080516020612b0d833981519152015560018201547ff652222313e28459528d920b65115c16c04f3efc82aaedc97be59f3f377c0d40600e8302015560028201547ff652222313e28459528d920b65115c16c04f3efc82aaedc97be59f3f377c0d41600e830201556111a6600383017ff652222313e28459528d920b65115c16c04f3efc82aaedc97be59f3f377c0d42600e840201612499565b6004820180547ff652222313e28459528d920b65115c16c04f3efc82aaedc97be59f3f377c0d43600e84020180546001600160a01b039092166001600160a01b0319831681178255925463ffffffff60a01b166001600160c01b0319909216909217178155611230906004840154815463ffffffff60c01b191663ffffffff60c01b909116179055565b60058201547ff652222313e28459528d920b65115c16c04f3efc82aaedc97be59f3f377c0d44600e8302015560068201547ff652222313e28459528d920b65115c16c04f3efc82aaedc97be59f3f377c0d45600e8302015560ff600783015416611299816121fc565b600e82027ff652222313e28459528d920b65115c16c04f3efc82aaedc97be59f3f377c0d4601805460ff1981168317909155600784015492906112e2600885901c60ff166121fc565b61ff0084168361ffff19831617177ff652222313e28459528d920b65115c16c04f3efc82aaedc97be59f3f377c0d46600e84020155600785015493600260ff8660101c1610156114975761ff00600e9462ff00007ff652222313e28459528d920b65115c16c04f3efc82aaedc97be59f3f377c0d4c97169362ffffff191617911617177ff652222313e28459528d920b65115c16c04f3efc82aaedc97be59f3f377c0d46838302015560088401547ff652222313e28459528d920b65115c16c04f3efc82aaedc97be59f3f377c0d47838302015560098401547ff652222313e28459528d920b65115c16c04f3efc82aaedc97be59f3f377c0d4883830201557ff652222313e28459528d920b65115c16c04f3efc82aaedc97be59f3f377c0d49828202016001600160601b03600a860154166001600160601b0319825416179055600b8401547ff652222313e28459528d920b65115c16c04f3efc82aaedc97be59f3f377c0d4a8383020155600c8401547ff652222313e28459528d920b65115c16c04f3efc82aaedc97be59f3f377c0d4b8383020155020160ff600d83015416151560ff8019835416911617905581610f5f565b634e487b7160e01b600052602160045260246000fd5b6024915060443501013583610e74565b6003820160005260206000209060005b60046044350135601f1916811061152e575060046044350135601f19811610611509575b5050600160443560040135811b016003820155610e96565b602460001960f86044356004013560031b161c199160443501013516905581806114f1565b9091602060018192602486604435010135815501930191016114cd565b5060016101243503610e0957600a810180546bffffffffffffffffffffffff19169055610e09565b60078201805460ff19169055610de3565b604051631ee8943b60e21b8152600490fd5b34610139576040366003190112610139576115af6120b3565b6115b76120c6565b6115c082612839565b63ffffffff9182811692836000526020906002825260406000206007810160ff8154166115ec816121fc565b611a595760048201805484806116078a828560a01c16612474565b9260c01c16911611611a475760005467ffffffff0000000061162c8683891c1661245f565b871b169067ffffffff00000000191617600055336000526003855260406000209260ff6000935460101c16600281101561149757156118ad575b508061167b888661169b945460a01c16612474565b815463ffffffff60a01b191660a09190911b63ffffffff60a01b16179055565b60005482544260028501908155640100000000600160e01b031992871c8616929092166001600160e01b031990911617600160401b600160e01b033360401b161760209690961b67ffffffff000000001695909517825563ffffffff19906117086001840191825461248c565b815560038301928354838661171f8b828516612474565b16911617845560085491600160401b8310156107165760018301806008558310156110ba577fc541e3defd92fd2d8306e9c91b36c15f096115c41c7a9a36ac548a487d8891aa97869360021b91827ff3f7a9fe364faab93b216da50a3214154f22a0a2b415b23a84c8169e8b636ee301938085036117cc575b8c8c8c8c89336000526005825260406000208560005282526040600020600160ff19825416179055604051931683523392a3005b80548554881690871617808655815467ffffffff0000000019909116908b1c871660201b67ffffffff00000000161785557ff3f7a9fe364faab93b216da50a3214154f22a0a2b415b23a84c8169e8b636ee69461184b9154815468010000000000000000600160e01b031916600160401b600160e01b03909116179055565b547ff3f7a9fe364faab93b216da50a3214154f22a0a2b415b23a84c8169e8b636ee4830155547ff3f7a9fe364faab93b216da50a3214154f22a0a2b415b23a84c8169e8b636ee582015501925416908254161790558580828180808080611798565b9091506001600160601b036118ca81600a84015416868a1661237b565b169160018060a01b0360095416916040516370a0823160e01b81523360048201528781602481875afa801561067c578591600091611a16575b5010611a0457604051636eb1769f60e11b81523360048201523060248201528781604481875afa801561067c5785916000916119d3575b50106119c157866000936064604051809681936323b872dd60e01b83523360048401523060248401528960448401525af190811561067c5761169b93600b926119a4575b500161198b84825461248c565b90556001840161199c84825461248c565b905590611666565b6119ba90893d8b116106755761066d818361212b565b508b61197e565b60405163ea75ebd560e01b8152600490fd5b809250898092503d83116119fd575b6119ec818361212b565b81010312610139578490518c61193a565b503d6119e2565b604051632858f9ab60e11b8152600490fd5b809250898092503d8311611a40575b611a2f818361212b565b81010312610139578490518c611903565b503d611a25565b6040516374a227cd60e01b8152600490fd5b6040516305fb6d9960e41b8152600490fd5b34610139576060366003190112610139576001600160401b0360043581811161013957611a9c90369060040161219e565b906024356001600160a01b03811691908290036101395760443581811161013957611acb90369060040161219e565b91611ad58461285e565b611ade8361285e565b8060005260019360209185835260406000209180519085821161071657611b0f82611b0986546123c7565b86612418565b8490601f8311600114611c30579180611b44926002969594600092611c25575b50508160011b916000199060031b1c19161790565b82555b81870180546001600160a81b031916909117600160a01b17905584519101949092831161071657611b8283611b7c87546123c7565b87612418565b81601f8411600114611bc15750508190611bb293600092611bb65750508160011b916000199060031b1c19161790565b9055005b015190508480611b2f565b91909383601f1981168760005284600020946000905b88838310611c0b5750505010611bf2575b505050811b019055005b015160001960f88460031b161c19169055838080611be8565b858701518855909601959485019487935090810190611bd7565b015190508a80611b2f565b9392918891601f1982169085600052876000209160005b89828210611c82575050968360029810611c69575b505050811b018255611b47565b015160001960f88460031b161c19169055898080611c5c565b838a015185558d96909401939283019201611c47565b3461013957604036600319011261013957611cb16120b3565b611cb96120c6565b90611cc381612839565b63ffffffff90818116928360005260209260028452611ce6604060002093612839565b8460005260028452604060002060068101544211611ef0575b503360005260038452604060002091600784015460ff8160101c16600281101561149757611ede5760ff16611d33816121fc565b611ecc5782546001600160a01b03919033604082901c841603611eba57838891881c1603611ea8576003840183815416848316809110611e9657600b90611d896001600160601b039182600a8b0154169061237b565b1696611da26004820161167b8689835460a01c16612399565b01805490878203918211611e80575583611dc0825493828516612399565b16809263ffffffff191617905515611e5b575b60095460405163a9059cbb60e01b8152336004820152602481018690529391869185916044918391600091165af192831561067c577f4f6fb365c29f3632d91fcd919dbfdf50155c34cd0ea613bd43e7e76529fec43593611e3e575b505416926040519283523392a4005b611e5490863d88116106755761066d818361212b565b5086611e2f565b33600052600585526040600020866000528552604060002060ff198154169055611dd3565b634e487b7160e01b600052601160045260246000fd5b60405163a2ed46e160e01b8152600490fd5b60405163b790ffed60e01b8152600490fd5b6040516338ebc58960e11b8152600490fd5b604051630738c50360e41b8152600490fd5b6040516380e4469160e01b8152600490fd5b6007018054600160ff8216611f04816121fc565b03611f10575b50611cff565b60019060ff19161790556001427f9c8ea6489f3baa31d321639e3a41ad67158fa673511a98870906b5a9eced0dd4600080a38580611f0a565b34610139576020366003190112610139576001600160a01b03611f6a61209d565b1660005260016020526020600360406000200154604051908152f35b3461013957600036600319011261013957600854611fa38161230c565b611fb0604051918261212b565b81815260209060208101928360086000527ff3f7a9fe364faab93b216da50a3214154f22a0a2b415b23a84c8169e8b636ee36000915b83831061203757604080516020808252875190820181905289928201908960005b8281106120145784840385f35b9091928260c0826120286001948a51612054565b01960191019492919094612007565b60048660019261204685612323565b815201920192019190611fe6565b60a0908163ffffffff91828151168552826020820151166020860152600180831b0360408201511660408601526060810151606086015260808101516080860152015116910152565b600435906001600160a01b038216820361013957565b6004359063ffffffff8216820361013957565b6024359063ffffffff8216820361013957565b60a081019081106001600160401b0382111761071657604052565b60c081019081106001600160401b0382111761071657604052565b61024081019081106001600160401b0382111761071657604052565b90601f801991011681019081106001600160401b0382111761071657604052565b6001600160401b03811161071657601f01601f191660200190565b9291926121738261214c565b91612181604051938461212b565b829481845281830111610139578281602093846000960137010152565b9080601f83011215610139578160206121b993359101612167565b90565b919082519283825260005b8481106121e8575050826000602080949584010152601f8019910116010190565b6020818301810151848301820152016121c7565b6003111561149757565b906102409161224263ffffffff9384835116845260208301516020850152604083015160408501526060830151908060608601528401906121bc565b9260018060a01b0360808301511660808401528060a08301511660a084015260c08201511660c083015260e081015160e083015261010080820151908301526101208082015190612292826121fc565b83015261014080820151906122a6826121fc565b830152610160808201519060028210156114975783015261018080820151908301526101a080820151908301526101c06001600160601b038183015116908301526101e08082015190830152610200808201519083015261022080910151151591015290565b6001600160401b0381116107165760051b60200190565b90604051612330816120f4565b60a08193600381549163ffffffff928381168652838160201c166020870152600180861b039060401c1660408601526001810154606086015260028101546080860152015416910152565b9190916001600160601b0380809416911602918216918203611e8057565b63ffffffff9182169082160391908211611e8057565b90816020910312610139575180151581036101395790565b90600182811c921680156123f7575b60208310146123e157565b634e487b7160e01b600052602260045260246000fd5b91607f16916123d6565b81811061240c575050565b60008155600101612401565b9190601f811161242757505050565b612453926000526020600020906020601f840160051c83019310612455575b601f0160051c0190612401565b565b9091508190612446565b90600163ffffffff80931601918211611e8057565b91909163ffffffff80809416911601918211611e8057565b91908201809211611e8057565b90808214612578576124ab81546123c7565b906001600160401b038211610716576124ce826124c885546123c7565b85612418565b600090601f831160011461250d576124fe9291600091836125025750508160011b916000199060031b1c19161790565b9055565b015490503880611b2f565b815260208082208483528183209291601f1985169083905b82821061255f575050908460019594939210612546575b505050811b019055565b015460001960f88460031b161c1916905538808061253c565b8495819295850154815560018091019601940190612525565b5050565b9060405191826000825461258f816123c7565b908184526020946001916001811690816000146125fd57506001146125be575b5050506124539250038361212b565b600090815285812095935091905b8183106125e557505061245393508201013880806125af565b855488840185015294850194879450918301916125cc565b9250505061245394925060ff191682840152151560051b8201013880806125af565b63ffffffff9061262e81612839565b1680600052600260205260406000206008810154421015806126a7575b1561265f57600701805461ff001916905550565b6009810154421161266e575050565b600701805461ff00191661010017905542907f835839f42ff642197e82f2887491db41a51c32dc7004091799724e9e3d6f2489600080a3565b50600981015442111561264b565b906040516126c28161210f565b809263ffffffff80825416835260018201546020840152600282015460408401526126ef6003830161257c565b6060840152600482015460018060a01b0381166080850152818160a01c1660a085015260c01c1660c0830152600581015460e0830152600681015461010083015260ff6007820154818116612743816121fc565b610120850152818160081c16612758816121fc565b61014085015260101c1690600282101561149757600d60ff9161022093610160860152600881015461018086015260098101546101a08601526001600160601b03600a820154166101c0860152600b8101546101e0860152600c8101546102008601520154161515910152565b6001600160a01b0390811690811561282057600080516020612aed83398151915280546001600160a01b031981168417909155167f8be0079c531659141344cd1fd0a4f28419497f9722a3daafe3b4186f6b6457e0600080a3565b604051631e4fbdf760e01b815260006004820152602490fd5b63ffffffff806000541691161161284c57565b6040516316a7994d60e21b8152600490fd5b600190511061158457565b60011161158457565b101561287a57565b60405163489eca6760e01b8152600490fd5b63ffffffff82511663ffffffff19825416178155600191602080820151600184015560408201516002840155600383019260608301519384516001600160401b0395868211610716576128e3826124c885546123c7565b8490601f83116001146129a257826080959360049593612919936000926129975750508160011b916000199060031b1c19161790565b90555b01920151805193841161071657600160401b8411610716578190835485855580861061297a575b500191600052806000209060005b84811061296057505050505050565b83516001600160a01b031683820155928101928501612951565b612991908560005286846000209182019101612401565b38612943565b015190503880611b2f565b90601f1983169184600052866000209260005b888c8383106129fb575050509260019285926080989660049896106129e2575b505050811b01905561291c565b015160001960f88460031b161c191690553880806129d5565b8596829396860151815501950193016129b5565b600080516020612aed833981519152546001600160a01b03163303612a3057565b60405163118cdaa760e01b8152336004820152602490fd5b60ff7ff0c57e16840df040f15088dc2f81fe391c3923bec73e23a9662efc9c229c6a005460401c1615612a7757565b604051631afcd79f60e31b8152600490fd5b90612ab05750805115612a9e57805190602001fd5b604051630a12f52160e11b8152600490fd5b81511580612ae3575b612ac1575090565b604051639996b31560e01b81526001600160a01b039091166004820152602490fd5b50803b15612ab956fe9016d09d72d40fdae2fd8ceac6b6234c7706214fd39c1cd1e609a0528c199300f652222313e28459528d920b65115c16c04f3efc82aaedc97be59f3f377c0d3fa26469706673582212208bb55351452739633e62b683825591174a104cfbcb0dad891ce157c0de28951964736f6c63430008180033",
    "linkReferences": {}
  },
  "methodIdentifiers": {
    "UPGRADE_INTERFACE_VERSION()": "ad3cb1cc",
    "checkContractBalance()": "50312c9e",
    "checkUserBalance(address)": "0a9bfef5",
    "createAccount(string,address,string)": "331ef976",
    "createEvent(bytes32,bytes32,string,uint32,uint256,uint256,uint256,uint256,uint96,uint8)": "36651072",
    "getAllEvents()": "c27a500d",
    "getAllTickets()": "03e96fe3",
    "getEvent(uint32)": "d88c8e98",
    "getGroupMembers(uint32)": "ec976a0a",
    "getTicket(address)": "4717dea9",
    "getUser(address)": "6f77926b",
    "initialize(address)": "c4d66de8",
    "isRegistered(address)": "c3c5a547",
    "owner()": "8da5cb5b",
    "proxiableUUID()": "52d1902d",
    "purchaseTicket(uint32,uint32)": "3405741d",
    "refundFee(uint32,uint32)": "0f9fcf48",
    "renounceOwnership()": "715018a6",
    "transferOwnership(address)": "f2fde38b",
    "updateEventStatus(uint32)": "a87f86f9",
    "upgradeToAndCall(address,bytes)": "4f1ef286",
    "withdrawEventFee(uint32)": "b33f650e"
  },
  "id": 31
}