{
  "abi": [
    {
      "type": "function",
      "name": "UPGRADE_INTERFACE_VERSION",
      "inputs": [],
      "outputs": [
        {
          "name": "",
          "type": "string",
          "internalType": "string"
        }
      ],
      "stateMutability": "view"
    },
    {
      "type": "function",
      "name": "checkContractBalance",
      "inputs": [],
      "outputs": [
        {
          "name": "bal_",
          "type": "uint256",
          "internalType": "uint256"
        }
      ],
      "stateMutability": "view"
    },
    {
      "type": "function",
      "name": "checkUserBalance",
      "inputs": [
        {
          "name": "_addr",
          "type": "address",
          "internalType": "address"
        }
      ],
      "outputs": [
        {
          "name": "bal_",
          "type": "uint256",
          "internalType": "uint256"
        }
      ],
      "stateMutability": "view"
    },
    {
      "type": "function",
      "name": "createAccount",
      "inputs": [
        {
          "name": "_email",
          "type": "string",
          "internalType": "string"
        },
        {
          "name": "_addr",
          "type": "address",
          "internalType": "address"
        },
        {
          "name": "_avatar",
          "type": "string",
          "internalType": "string"
        }
      ],
      "outputs": [],
      "stateMutability": "nonpayable"
    },
    {
      "type": "function",
      "name": "createEvent",
      "inputs": [
        {
          "name": "_title",
          "type": "bytes32",
          "internalType": "bytes32"
        },
        {
          "name": "_imageUrl",
          "type": "string",
          "internalType": "string"
        },
        {
          "name": "_description",
          "type": "string",
          "internalType": "string"
        },
        {
          "name": "_location",
          "type": "string",
          "internalType": "string"
        },
        {
          "name": "_capacity",
          "type": "uint32",
          "internalType": "uint32"
        },
        {
          "name": "_regStartTime",
          "type": "uint256",
          "internalType": "uint256"
        },
        {
          "name": "_regEndTime",
          "type": "uint256",
          "internalType": "uint256"
        },
        {
          "name": "_eventStartTime",
          "type": "uint256",
          "internalType": "uint256"
        },
        {
          "name": "_eventEndTime",
          "type": "uint256",
          "internalType": "uint256"
        },
        {
          "name": "_ticketPrice",
          "type": "uint96",
          "internalType": "uint96"
        },
        {
          "name": "_isEventPaid",
          "type": "bool",
          "internalType": "bool"
        }
      ],
      "outputs": [],
      "stateMutability": "nonpayable"
    },
    {
      "type": "function",
      "name": "getAllEventGroups",
      "inputs": [],
      "outputs": [
        {
          "name": "group_",
          "type": "tuple[]",
          "internalType": "struct BlumaProtocol.EventGroup[]",
          "components": [
            {
              "name": "eventId",
              "type": "uint32",
              "internalType": "uint32"
            },
            {
              "name": "title",
              "type": "bytes32",
              "internalType": "bytes32"
            },
            {
              "name": "imageUrl",
              "type": "string",
              "internalType": "string"
            },
            {
              "name": "description",
              "type": "string",
              "internalType": "string"
            },
            {
              "name": "members",
              "type": "tuple[]",
              "internalType": "struct BlumaProtocol.Member[]",
              "components": [
                {
                  "name": "user",
                  "type": "address",
                  "internalType": "address"
                },
                {
                  "name": "joinTime",
                  "type": "uint256",
                  "internalType": "uint256"
                }
              ]
            },
            {
              "name": "messages",
              "type": "tuple[]",
              "internalType": "struct BlumaProtocol.Message[]",
              "components": [
                {
                  "name": "sender",
                  "type": "address",
                  "internalType": "address"
                },
                {
                  "name": "email",
                  "type": "string",
                  "internalType": "string"
                },
                {
                  "name": "text",
                  "type": "string",
                  "internalType": "string"
                },
                {
                  "name": "timestamp",
                  "type": "uint256",
                  "internalType": "uint256"
                }
              ]
            }
          ]
        }
      ],
      "stateMutability": "view"
    },
    {
      "type": "function",
      "name": "getAllEvents",
      "inputs": [],
      "outputs": [
        {
          "name": "events_",
          "type": "tuple[]",
          "internalType": "struct BlumaProtocol.Event[]",
          "components": [
            {
              "name": "eventId",
              "type": "uint32",
              "internalType": "uint32"
            },
            {
              "name": "title",
              "type": "bytes32",
              "internalType": "bytes32"
            },
            {
              "name": "imageUrl",
              "type": "string",
              "internalType": "string"
            },
            {
              "name": "location",
              "type": "string",
              "internalType": "string"
            },
            {
              "name": "description",
              "type": "string",
              "internalType": "string"
            },
            {
              "name": "creator",
              "type": "address",
              "internalType": "address"
            },
            {
              "name": "seats",
              "type": "uint32",
              "internalType": "uint32"
            },
            {
              "name": "capacity",
              "type": "uint32",
              "internalType": "uint32"
            },
            {
              "name": "regStartTime",
              "type": "uint256",
              "internalType": "uint256"
            },
            {
              "name": "regEndTime",
              "type": "uint256",
              "internalType": "uint256"
            },
            {
              "name": "regStatus",
              "type": "uint8",
              "internalType": "enum BlumaProtocol.RegStatus"
            },
            {
              "name": "eventStatus",
              "type": "uint8",
              "internalType": "enum BlumaProtocol.EventStatus"
            },
            {
              "name": "eventType",
              "type": "uint8",
              "internalType": "enum BlumaProtocol.EventType"
            },
            {
              "name": "eventStartTime",
              "type": "uint256",
              "internalType": "uint256"
            },
            {
              "name": "eventEndTime",
              "type": "uint256",
              "internalType": "uint256"
            },
            {
              "name": "ticketPrice",
              "type": "uint96",
              "internalType": "uint96"
            },
            {
              "name": "totalSales",
              "type": "uint256",
              "internalType": "uint256"
            },
            {
              "name": "createdAt",
              "type": "uint256",
              "internalType": "uint256"
            },
            {
              "name": "isCreatorPaid",
              "type": "bool",
              "internalType": "bool"
            }
          ]
        }
      ],
      "stateMutability": "view"
    },
    {
      "type": "function",
      "name": "getAllTickets",
      "inputs": [],
      "outputs": [
        {
          "name": "_tickets",
          "type": "tuple[]",
          "internalType": "struct BlumaProtocol.Ticket[]",
          "components": [
            {
              "name": "ticketId",
              "type": "uint32",
              "internalType": "uint32"
            },
            {
              "name": "eventId",
              "type": "uint32",
              "internalType": "uint32"
            },
            {
              "name": "owner",
              "type": "address",
              "internalType": "address"
            },
            {
              "name": "ticketCost",
              "type": "uint256",
              "internalType": "uint256"
            },
            {
              "name": "purchaseTime",
              "type": "uint256",
              "internalType": "uint256"
            },
            {
              "name": "numberOfTicket",
              "type": "uint32",
              "internalType": "uint32"
            }
          ]
        }
      ],
      "stateMutability": "view"
    },
    {
      "type": "function",
      "name": "getEventById",
      "inputs": [
        {
          "name": "_eventId",
          "type": "uint32",
          "internalType": "uint32"
        }
      ],
      "outputs": [
        {
          "name": "events_",
          "type": "tuple",
          "internalType": "struct BlumaProtocol.Event",
          "components": [
            {
              "name": "eventId",
              "type": "uint32",
              "internalType": "uint32"
            },
            {
              "name": "title",
              "type": "bytes32",
              "internalType": "bytes32"
            },
            {
              "name": "imageUrl",
              "type": "string",
              "internalType": "string"
            },
            {
              "name": "location",
              "type": "string",
              "internalType": "string"
            },
            {
              "name": "description",
              "type": "string",
              "internalType": "string"
            },
            {
              "name": "creator",
              "type": "address",
              "internalType": "address"
            },
            {
              "name": "seats",
              "type": "uint32",
              "internalType": "uint32"
            },
            {
              "name": "capacity",
              "type": "uint32",
              "internalType": "uint32"
            },
            {
              "name": "regStartTime",
              "type": "uint256",
              "internalType": "uint256"
            },
            {
              "name": "regEndTime",
              "type": "uint256",
              "internalType": "uint256"
            },
            {
              "name": "regStatus",
              "type": "uint8",
              "internalType": "enum BlumaProtocol.RegStatus"
            },
            {
              "name": "eventStatus",
              "type": "uint8",
              "internalType": "enum BlumaProtocol.EventStatus"
            },
            {
              "name": "eventType",
              "type": "uint8",
              "internalType": "enum BlumaProtocol.EventType"
            },
            {
              "name": "eventStartTime",
              "type": "uint256",
              "internalType": "uint256"
            },
            {
              "name": "eventEndTime",
              "type": "uint256",
              "internalType": "uint256"
            },
            {
              "name": "ticketPrice",
              "type": "uint96",
              "internalType": "uint96"
            },
            {
              "name": "totalSales",
              "type": "uint256",
              "internalType": "uint256"
            },
            {
              "name": "createdAt",
              "type": "uint256",
              "internalType": "uint256"
            },
            {
              "name": "isCreatorPaid",
              "type": "bool",
              "internalType": "bool"
            }
          ]
        }
      ],
      "stateMutability": "view"
    },
    {
      "type": "function",
      "name": "getEventGroup",
      "inputs": [
        {
          "name": "_groupId",
          "type": "uint32",
          "internalType": "uint32"
        }
      ],
      "outputs": [
        {
          "name": "group_",
          "type": "tuple",
          "internalType": "struct BlumaProtocol.EventGroup",
          "components": [
            {
              "name": "eventId",
              "type": "uint32",
              "internalType": "uint32"
            },
            {
              "name": "title",
              "type": "bytes32",
              "internalType": "bytes32"
            },
            {
              "name": "imageUrl",
              "type": "string",
              "internalType": "string"
            },
            {
              "name": "description",
              "type": "string",
              "internalType": "string"
            },
            {
              "name": "members",
              "type": "tuple[]",
              "internalType": "struct BlumaProtocol.Member[]",
              "components": [
                {
                  "name": "user",
                  "type": "address",
                  "internalType": "address"
                },
                {
                  "name": "joinTime",
                  "type": "uint256",
                  "internalType": "uint256"
                }
              ]
            },
            {
              "name": "messages",
              "type": "tuple[]",
              "internalType": "struct BlumaProtocol.Message[]",
              "components": [
                {
                  "name": "sender",
                  "type": "address",
                  "internalType": "address"
                },
                {
                  "name": "email",
                  "type": "string",
                  "internalType": "string"
                },
                {
                  "name": "text",
                  "type": "string",
                  "internalType": "string"
                },
                {
                  "name": "timestamp",
                  "type": "uint256",
                  "internalType": "uint256"
                }
              ]
            }
          ]
        }
      ],
      "stateMutability": "view"
    },
    {
      "type": "function",
      "name": "getGroupMembers",
      "inputs": [
        {
          "name": "_eventId",
          "type": "uint32",
          "internalType": "uint32"
        }
      ],
      "outputs": [
        {
          "name": "_members",
          "type": "tuple[]",
          "internalType": "struct BlumaProtocol.Member[]",
          "components": [
            {
              "name": "user",
              "type": "address",
              "internalType": "address"
            },
            {
              "name": "joinTime",
              "type": "uint256",
              "internalType": "uint256"
            }
          ]
        }
      ],
      "stateMutability": "view"
    },
    {
      "type": "function",
      "name": "getGroupMessages",
      "inputs": [
        {
          "name": "_groupId",
          "type": "uint32",
          "internalType": "uint32"
        }
      ],
      "outputs": [
        {
          "name": "",
          "type": "tuple[]",
          "internalType": "struct BlumaProtocol.Message[]",
          "components": [
            {
              "name": "sender",
              "type": "address",
              "internalType": "address"
            },
            {
              "name": "email",
              "type": "string",
              "internalType": "string"
            },
            {
              "name": "text",
              "type": "string",
              "internalType": "string"
            },
            {
              "name": "timestamp",
              "type": "uint256",
              "internalType": "uint256"
            }
          ]
        }
      ],
      "stateMutability": "view"
    },
    {
      "type": "function",
      "name": "getTicket",
      "inputs": [
        {
          "name": "_addr",
          "type": "address",
          "internalType": "address"
        }
      ],
      "outputs": [
        {
          "name": "_ticket",
          "type": "tuple",
          "internalType": "struct BlumaProtocol.Ticket",
          "components": [
            {
              "name": "ticketId",
              "type": "uint32",
              "internalType": "uint32"
            },
            {
              "name": "eventId",
              "type": "uint32",
              "internalType": "uint32"
            },
            {
              "name": "owner",
              "type": "address",
              "internalType": "address"
            },
            {
              "name": "ticketCost",
              "type": "uint256",
              "internalType": "uint256"
            },
            {
              "name": "purchaseTime",
              "type": "uint256",
              "internalType": "uint256"
            },
            {
              "name": "numberOfTicket",
              "type": "uint32",
              "internalType": "uint32"
            }
          ]
        }
      ],
      "stateMutability": "view"
    },
    {
      "type": "function",
      "name": "getUser",
      "inputs": [
        {
          "name": "_addr",
          "type": "address",
          "internalType": "address"
        }
      ],
      "outputs": [
        {
          "name": "_user",
          "type": "tuple",
          "internalType": "struct BlumaProtocol.User",
          "components": [
            {
              "name": "email",
              "type": "string",
              "internalType": "string"
            },
            {
              "name": "userAddr",
              "type": "address",
              "internalType": "address"
            },
            {
              "name": "isRegistered",
              "type": "bool",
              "internalType": "bool"
            },
            {
              "name": "avatar",
              "type": "string",
              "internalType": "string"
            },
            {
              "name": "balance",
              "type": "uint256",
              "internalType": "uint256"
            }
          ]
        }
      ],
      "stateMutability": "view"
    },
    {
      "type": "function",
      "name": "groupChat",
      "inputs": [
        {
          "name": "_groupId",
          "type": "uint32",
          "internalType": "uint32"
        },
        {
          "name": "_text",
          "type": "string",
          "internalType": "string"
        }
      ],
      "outputs": [],
      "stateMutability": "nonpayable"
    },
    {
      "type": "function",
      "name": "initialize",
      "inputs": [
        {
          "name": "initialOwner",
          "type": "address",
          "internalType": "address"
        }
      ],
      "outputs": [],
      "stateMutability": "nonpayable"
    },
    {
      "type": "function",
      "name": "isRegistered",
      "inputs": [
        {
          "name": "_addr",
          "type": "address",
          "internalType": "address"
        }
      ],
      "outputs": [
        {
          "name": "",
          "type": "bool",
          "internalType": "bool"
        }
      ],
      "stateMutability": "view"
    },
    {
      "type": "function",
      "name": "joinGroup",
      "inputs": [
        {
          "name": "_eventId",
          "type": "uint32",
          "internalType": "uint32"
        }
      ],
      "outputs": [],
      "stateMutability": "nonpayable"
    },
    {
      "type": "function",
      "name": "owner",
      "inputs": [],
      "outputs": [
        {
          "name": "",
          "type": "address",
          "internalType": "address"
        }
      ],
      "stateMutability": "view"
    },
    {
      "type": "function",
      "name": "proxiableUUID",
      "inputs": [],
      "outputs": [
        {
          "name": "",
          "type": "bytes32",
          "internalType": "bytes32"
        }
      ],
      "stateMutability": "view"
    },
    {
      "type": "function",
      "name": "purchaseTicket",
      "inputs": [
        {
          "name": "_eventId",
          "type": "uint32",
          "internalType": "uint32"
        },
        {
          "name": "_numberOfTickets",
          "type": "uint32",
          "internalType": "uint32"
        }
      ],
      "outputs": [],
      "stateMutability": "nonpayable"
    },
    {
      "type": "function",
      "name": "refundFee",
      "inputs": [
        {
          "name": "_eventId",
          "type": "uint32",
          "internalType": "uint32"
        },
        {
          "name": "_numberOfTickets",
          "type": "uint32",
          "internalType": "uint32"
        }
      ],
      "outputs": [],
      "stateMutability": "nonpayable"
    },
    {
      "type": "function",
      "name": "renounceOwnership",
      "inputs": [],
      "outputs": [],
      "stateMutability": "nonpayable"
    },
    {
      "type": "function",
      "name": "transferOwnership",
      "inputs": [
        {
          "name": "newOwner",
          "type": "address",
          "internalType": "address"
        }
      ],
      "outputs": [],
      "stateMutability": "nonpayable"
    },
    {
      "type": "function",
      "name": "updateEventStatus",
      "inputs": [
        {
          "name": "_eventId",
          "type": "uint32",
          "internalType": "uint32"
        }
      ],
      "outputs": [],
      "stateMutability": "nonpayable"
    },
    {
      "type": "function",
      "name": "upgradeToAndCall",
      "inputs": [
        {
          "name": "newImplementation",
          "type": "address",
          "internalType": "address"
        },
        {
          "name": "data",
          "type": "bytes",
          "internalType": "bytes"
        }
      ],
      "outputs": [],
      "stateMutability": "payable"
    },
    {
      "type": "function",
      "name": "withdrawEventFee",
      "inputs": [
        {
          "name": "_eventId",
          "type": "uint32",
          "internalType": "uint32"
        }
      ],
      "outputs": [],
      "stateMutability": "nonpayable"
    },
    {
      "type": "event",
      "name": "EventClosed",
      "inputs": [
        {
          "name": "_eventId",
          "type": "uint32",
          "indexed": true,
          "internalType": "uint32"
        },
        {
          "name": "_currentTime",
          "type": "uint256",
          "indexed": true,
          "internalType": "uint256"
        }
      ],
      "anonymous": false
    },
    {
      "type": "event",
      "name": "EventCreated",
      "inputs": [
        {
          "name": "_totalEventsId",
          "type": "uint32",
          "indexed": true,
          "internalType": "uint32"
        },
        {
          "name": "_seatNumber",
          "type": "uint32",
          "indexed": true,
          "internalType": "uint32"
        },
        {
          "name": "_capacity",
          "type": "uint32",
          "indexed": true,
          "internalType": "uint32"
        }
      ],
      "anonymous": false
    },
    {
      "type": "event",
      "name": "GroupCreated",
      "inputs": [
        {
          "name": "_roomId",
          "type": "uint32",
          "indexed": true,
          "internalType": "uint32"
        },
        {
          "name": "imageUrl",
          "type": "string",
          "indexed": false,
          "internalType": "string"
        },
        {
          "name": "_title",
          "type": "bytes32",
          "indexed": false,
          "internalType": "bytes32"
        }
      ],
      "anonymous": false
    },
    {
      "type": "event",
      "name": "GroupJoinedSuccessfully",
      "inputs": [
        {
          "name": "_sender",
          "type": "address",
          "indexed": true,
          "internalType": "address"
        },
        {
          "name": "_eventId",
          "type": "uint32",
          "indexed": true,
          "internalType": "uint32"
        }
      ],
      "anonymous": false
    },
    {
      "type": "event",
      "name": "Initialized",
      "inputs": [
        {
          "name": "version",
          "type": "uint64",
          "indexed": false,
          "internalType": "uint64"
        }
      ],
      "anonymous": false
    },
    {
      "type": "event",
      "name": "MessageSent",
      "inputs": [
        {
          "name": "sender",
          "type": "address",
          "indexed": true,
          "internalType": "address"
        },
        {
          "name": "groupId",
          "type": "uint32",
          "indexed": true,
          "internalType": "uint32"
        },
        {
          "name": "text",
          "type": "string",
          "indexed": false,
          "internalType": "string"
        },
        {
          "name": "timestamp",
          "type": "uint256",
          "indexed": false,
          "internalType": "uint256"
        }
      ],
      "anonymous": false
    },
    {
      "type": "event",
      "name": "OwnershipTransferred",
      "inputs": [
        {
          "name": "previousOwner",
          "type": "address",
          "indexed": true,
          "internalType": "address"
        },
        {
          "name": "newOwner",
          "type": "address",
          "indexed": true,
          "internalType": "address"
        }
      ],
      "anonymous": false
    },
    {
      "type": "event",
      "name": "RefundIssued",
      "inputs": [
        {
          "name": "buyer",
          "type": "address",
          "indexed": true,
          "internalType": "address"
        },
        {
          "name": "_ticketId",
          "type": "uint32",
          "indexed": true,
          "internalType": "uint32"
        },
        {
          "name": "_eventId",
          "type": "uint32",
          "indexed": true,
          "internalType": "uint32"
        },
        {
          "name": "amount",
          "type": "uint256",
          "indexed": false,
          "internalType": "uint256"
        }
      ],
      "anonymous": false
    },
    {
      "type": "event",
      "name": "RegistrationClose",
      "inputs": [
        {
          "name": "_currentTime",
          "type": "uint256",
          "indexed": true,
          "internalType": "uint256"
        },
        {
          "name": "_status",
          "type": "uint8",
          "indexed": true,
          "internalType": "uint8"
        }
      ],
      "anonymous": false
    },
    {
      "type": "event",
      "name": "TicketPurchased",
      "inputs": [
        {
          "name": "buyer",
          "type": "address",
          "indexed": true,
          "internalType": "address"
        },
        {
          "name": "_eventId",
          "type": "uint32",
          "indexed": true,
          "internalType": "uint32"
        },
        {
          "name": "numberOfTickets",
          "type": "uint32",
          "indexed": false,
          "internalType": "uint32"
        }
      ],
      "anonymous": false
    },
    {
      "type": "event",
      "name": "Upgraded",
      "inputs": [
        {
          "name": "implementation",
          "type": "address",
          "indexed": true,
          "internalType": "address"
        }
      ],
      "anonymous": false
    },
    {
      "type": "error",
      "name": "ALREADY_PAID",
      "inputs": []
    },
    {
      "type": "error",
      "name": "AddressEmptyCode",
      "inputs": [
        {
          "name": "target",
          "type": "address",
          "internalType": "address"
        }
      ]
    },
    {
      "type": "error",
      "name": "EMPTY_INPUT_FIELD",
      "inputs": []
    },
    {
      "type": "error",
      "name": "ERC1967InvalidImplementation",
      "inputs": [
        {
          "name": "implementation",
          "type": "address",
          "internalType": "address"
        }
      ]
    },
    {
      "type": "error",
      "name": "ERC1967NonPayable",
      "inputs": []
    },
    {
      "type": "error",
      "name": "EVENT_NOT_CLOSED",
      "inputs": []
    },
    {
      "type": "error",
      "name": "FailedInnerCall",
      "inputs": []
    },
    {
      "type": "error",
      "name": "GROUP_ALREADY_EXISTS",
      "inputs": []
    },
    {
      "type": "error",
      "name": "INSUFFICIENT_BALANCE",
      "inputs": []
    },
    {
      "type": "error",
      "name": "INSUFFICIENT_TICKET_PURCHASED",
      "inputs": []
    },
    {
      "type": "error",
      "name": "INVALID_EVENT_ID",
      "inputs": []
    },
    {
      "type": "error",
      "name": "INVALID_ID",
      "inputs": []
    },
    {
      "type": "error",
      "name": "INVALID_NOT_AUTHORIZED",
      "inputs": []
    },
    {
      "type": "error",
      "name": "INVALID_TIME_SET",
      "inputs": []
    },
    {
      "type": "error",
      "name": "InvalidInitialization",
      "inputs": []
    },
    {
      "type": "error",
      "name": "NOT_CREATOR",
      "inputs": []
    },
    {
      "type": "error",
      "name": "NOT_ENOUGH_AVAILABLE_SEAT",
      "inputs": []
    },
    {
      "type": "error",
      "name": "NOT_OWNER",
      "inputs": []
    },
    {
      "type": "error",
      "name": "NOT_PAID_EVENT",
      "inputs": []
    },
    {
      "type": "error",
      "name": "NO_ALLOWANCE",
      "inputs": []
    },
    {
      "type": "error",
      "name": "NotInitializing",
      "inputs": []
    },
    {
      "type": "error",
      "name": "OwnableInvalidOwner",
      "inputs": [
        {
          "name": "owner",
          "type": "address",
          "internalType": "address"
        }
      ]
    },
    {
      "type": "error",
      "name": "OwnableUnauthorizedAccount",
      "inputs": [
        {
          "name": "account",
          "type": "address",
          "internalType": "address"
        }
      ]
    },
    {
      "type": "error",
      "name": "REGISTRATION_CLOSE",
      "inputs": []
    },
    {
      "type": "error",
      "name": "REGISTRATION_NOT_OPEN",
      "inputs": []
    },
    {
      "type": "error",
      "name": "USER_NOT_REGISTERED",
      "inputs": []
    },
    {
      "type": "error",
      "name": "UUPSUnauthorizedCallContext",
      "inputs": []
    },
    {
      "type": "error",
      "name": "UUPSUnsupportedProxiableUUID",
      "inputs": [
        {
          "name": "slot",
          "type": "bytes32",
          "internalType": "bytes32"
        }
      ]
    }
  ],
  "bytecode": {
    "object": "0x60a0806040523461002a5730608052613a6a908161003082396080518181816117eb015261192d0152f35b600080fdfe6080604052600436101561001257600080fd5b60003560e01c806303e96fe3146126135780630a9bfef5146125d65780630f9fcf4814612317578063331ef976146120eb5780633405741d14611bd45780633809f6f514611b805780634717dea914611b0c5780634f1ef286146118de57806350312c9e1461185557806352d1902d146117d85780636f77926b146116c7578063715018a61461165d5780638da5cb5b14611627578063909fdec91461153d578063a87f86f91461151c578063a881b837146114c5578063ad3cb1cc1461147f578063b33f650e1461131b578063be7fb5d71461116f578063c27a500d14611097578063c3c5a54714611052578063c4d66de814610ef9578063cd71ed3514610e1d578063dbc96e99146102f5578063ec976a0a1461029a578063eec932f7146101755763f2fde38b1461014557600080fd5b346101705760203660031901126101705761016e61016161272a565b6101696134be565b6133fa565b005b600080fd5b346101705760203660031901126101705761018e612740565b6101978161346e565b33600052600560205263ffffffff60406000209116908160005260205260ff6040600020541615610288578060005260046020526004604060002001604051906101e0826127d3565b3382524260208301528054600160401b8110156102725761020691600182018155613005565b91909161025c57805182546001600160a01b0319166001600160a01b039190911617825560200151600190910155337fa561b729b4c664dd582560292652da26d6beb30dc7596fb4311845f8ec644b7b600080a3005b634e487b7160e01b600052600060045260246000fd5b634e487b7160e01b600052604160045260246000fd5b60405163082e385d60e01b8152600490fd5b346101705760203660031901126101705763ffffffff6102b8612740565b6102c18161346e565b1660005260046020526102f16102dd6004604060002001612dbf565b6040519182916020835260208301906128bf565b0390f35b3461017057610160366003190112610170576024356001600160401b03811161017057610326903690600401612a0c565b906044356001600160401b03811161017057610346903690600401612a0c565b6064356001600160401b03811161017057610365903690600401612a0c565b92909463ffffffff60843516608435036101705761012435946001600160601b038616860361017057610144359586151587036101705733600052600160205260ff60016040600020015460a01c1615610e0b576103cc6103c736878761282a565b613493565b6103da6103c736858561282a565b6103e86103c736888b61282a565b6103f360a4356134f7565b6103fe60c4356134f7565b61040960e4356134f7565b610415610104356134f7565b6104276001600160601b0382166134f7565b600163ffffffff6084351610610df9576104466101043560e435613500565b61045460c43560a435613500565b60005463ffffffff610467818316612cbd565b16809163ffffffff1916176000556000526002602052600160406000209760a43561049061349e565b1015610de85760088901805460ff191660021790555b151503610db8576008870162ff00001981541690556001600160601b03600b880191166001600160601b03198254161790555b63ffffffff6000541663ffffffff1987541617865560043560018701556001600160401b0382116102725761051e826105156002890154612c25565b60028901612c76565b600090601f8311600114610d475761054f929160009183610d3c575b50508160011b916000199060031b1c19161790565b60028501555b6001600160401b0382116102725761057d826105746004870154612c25565b60048701612c76565b600090601f8311600114610ccb576105ad929160009183610cc05750508160011b916000199060031b1c19161790565b60048301555b6005820180546001600160a01b031916331790556001600160401b038111610272576105ef816105e66003850154612c25565b60038501612c76565b600092601f8211600114610c515761062092938291600092610c465750508160011b916000199060031b1c19161790565b60038201555b60058101805463ffffffff60c01b191660843560c01b63ffffffff60c01b1617905560a435600682015560c435600782015560e435600982015561010435600a82015560088101805461ff00191661020017905561068261349e565b600d820155600654600160401b81101561027257600181018060065581101561084157600660005281600f82026000805160206139f58339815191520103610869575b5063ffffffff8154166106d78161346e565b80600052600460205263ffffffff60406000205416610857578060005260026020526040600020610706612cf7565b828152600182019182546020830152600461074c6002830192604051610737816107308188612d29565b03826127ee565b60408601526107306040518094819301612d29565b6060830152836000526004602052610768826040600020613563565b60075492600160401b841015610272576001840180600755841015610841576107df6107f49360067f45881a834c1c2b1081ee9f2063da43f83e3d9f2ba737ca954a4098d94bce97d5966007600052027fa66cc928b5edb82af9bd49922954155ab7b0942694bea4ce44661d9a8736c68801613563565b54604051928392604084526040840190612d29565b9060208301520390a263ffffffff6000541663ffffffff6005816084351693015460a01c16907fac3c2fbb08f906d92c1b4be6fa025f63708bafa70869110e931d718b9532c411600080a4005b634e487b7160e01b600052603260045260246000fd5b60405163e955b73b60e01b8152600490fd5b63ffffffff82541663ffffffff19600f83026000805160206139f583398151915201541617600f82026000805160206139f5833981519152015560018201547ff652222313e28459528d920b65115c16c04f3efc82aaedc97be59f3f377c0d40600f83020155610901600283017ff652222313e28459528d920b65115c16c04f3efc82aaedc97be59f3f377c0d41600f840201613321565b610933600383017ff652222313e28459528d920b65115c16c04f3efc82aaedc97be59f3f377c0d42600f840201613321565b610965600483017ff652222313e28459528d920b65115c16c04f3efc82aaedc97be59f3f377c0d43600f840201613321565b6005820180547ff652222313e28459528d920b65115c16c04f3efc82aaedc97be59f3f377c0d44600f84020180546001600160a01b039092166001600160a01b0319831681178255925463ffffffff60a01b166001600160c01b03199092169092171781556109ef906005840154815463ffffffff60c01b191663ffffffff60c01b909116179055565b60068201547ff652222313e28459528d920b65115c16c04f3efc82aaedc97be59f3f377c0d45600f8302015560078201547ff652222313e28459528d920b65115c16c04f3efc82aaedc97be59f3f377c0d46600f8302015560ff600883015416610a5881612a39565b600080516020613a15833981519152600f83020154918160ff19841617600080516020613a15833981519152600f83020155600884015492610a9f60ff8560081c16612a39565b61ff0084168361ffff1983161717600080516020613a15833981519152600f84020155600885015493600260ff8660101c161015610c305761ff00600f9462ff00007ff652222313e28459528d920b65115c16c04f3efc82aaedc97be59f3f377c0d4d97169362ffffff19161791161717600080516020613a15833981519152838302015560098401547ff652222313e28459528d920b65115c16c04f3efc82aaedc97be59f3f377c0d488383020155600a8401547ff652222313e28459528d920b65115c16c04f3efc82aaedc97be59f3f377c0d4983830201557ff652222313e28459528d920b65115c16c04f3efc82aaedc97be59f3f377c0d4a828202016001600160601b03600b860154166001600160601b0319825416179055600c8401547ff652222313e28459528d920b65115c16c04f3efc82aaedc97be59f3f377c0d4b8383020155600d8401547ff652222313e28459528d920b65115c16c04f3efc82aaedc97be59f3f377c0d4c8383020155020160ff600e83015416151560ff80198354169116179055816106c5565b634e487b7160e01b600052602160045260246000fd5b01359050848061053a565b600383016000526020600020906000945b601f1984168610610ca857600194955083601f19811610610c8e575b505050811b016003820155610626565b0135600019600384901b60f8161c19169055838080610c7e565b91602060018192858501358155019301950194610c62565b01359050868061053a565b600485939293016000526020600020906000935b601f1984168510610d24576001945083601f19811610610d0a575b505050811b0160048301556105b3565b0135600019600384901b60f8161c19169055858080610cfa565b81810135835560209485019460019093019201610cdf565b01359050888061053a565b600287939293016000526020600020906000935b601f1984168510610da0576001945083601f19811610610d86575b505050811b016002850155610555565b0135600019600384901b60f8161c19169055878080610d76565b81810135835560209485019460019093019201610d5b565b50600b860180546bffffffffffffffffffffffff1916905560088601805462ff00001916620100001790556104d9565b60088901805460ff191690556104a6565b604051631ee8943b60e21b8152600490fd5b604051633069384b60e21b8152600490fd5b346101705760203660031901126101705763ffffffff610e3b612740565b6000610240604051610e4c816127b7565b82815282602082015260606040820152606080820152606060808201528260a08201528260c08201528260e08201528261010082015282610120820152826101408201528261016082015282610180820152826101a0820152826101c0820152826101e082015282610200820152826102208201520152610ecc8161346e565b1660005260026020526102f1610ee560406000206131e0565b604051918291602083526020830190612a43565b3461017057602036600319011261017057610f1261272a565b7ff0c57e16840df040f15088dc2f81fe391c3923bec73e23a9662efc9c229c6a0090815460ff8160401c1615916001600160401b0382168015908161104a575b6001149081611040575b159081611037575b506110255767ffffffffffffffff1982166001178455610f959183611006575b50610f8d613930565b610169613930565b610f9d613930565b600980546001600160a01b031916734cb6cef87d8cadf966b455e8bd58fff32aba49d1179055610fc957005b68ff00000000000000001981541690557fc7f505b2f371ae2175ee4913f4499e1f2633a7b5936321eed1cdaeb6115181d2602060405160018152a1005b68ffffffffffffffffff19166801000000000000000117845584610f84565b60405163f92ee8a960e01b8152600490fd5b90501585610f64565b303b159150610f5c565b849150610f52565b34610170576020366003190112610170576001600160a01b0361107361272a565b166000526001602052602060ff60016040600020015460a01c166040519015158152f35b34610170576000366003190112610170576006546110b481612b6a565b906110c260405192836127ee565b808252602090818301908160066000526000805160206139f58339815191526000915b83831061114c5750505050604051918083019381845251809452604083019360408160051b85010192916000955b8287106111205785850386f35b90919293828061113c600193603f198a82030186528851612a43565b9601920196019592919092611113565b600f8660019261115e859a999a6131e0565b8152019201920191909594956110e5565b3461017057604036600319011261017057611188612740565b6024356001600160401b038111610170576111ac63ffffffff913690600401612a0c565b9190926111b88161346e565b6111c66103c736858761282a565b1691826000526004602052604060002090600080600484018054915b8281106112ea575b5050501561028857604051916111ff8361279c565b600083526020830160056060928383526040860184815261123e8588019460008652336000526001602052611245604060002060405193848092612d29565b03836127ee565b5233875261125436898861282a565b905261125e61349e565b835201805494600160401b8610156102725760018601808355861015610841577fd643c4cb96915f246339ac52f899dfc112f2ccf8254cca6b9cb9d0b8f0276e10956112b69260005260206000209060021b01613021565b5184604051936040855281604086015283850137600083860183015260208301523393601f01601f191682018290030190a3005b6112f48183613005565b50546001600160a01b0316331461130d576001016111e2565b5050505060018580806111ea565b346101705760208060031936011261017057611335612740565b61133e8161346e565b63ffffffff8116600052600282526040600020903360005260018352611368604060002091612f52565b600160ff600884015460081c1661137e81612a39565b0361146d5760058201546001600160a01b0390339082160361145b57600e83019081549060ff82166114495760038694611407946001600c6000990195898754975560ff1916179055016113d3838254612cea565b905560095460405163a9059cbb60e01b81523360048201526024810193909352919485939190921691839182906044820190565b03925af1801561143d5761141757005b8161016e92903d10611436575b61142e81836127ee565b810190612c0d565b503d611424565b6040513d6000823e3d90fd5b60405163d2e53ca760e01b8152600490fd5b604051632cff942760e01b8152600490fd5b604051631988a70d60e01b8152600490fd5b34610170576000366003190112610170576102f160405161149f816127d3565b60058152640352e302e360dc1b602082015260405191829160208352602083019061287f565b346101705760203660031901126101705763ffffffff6114e3612740565b6114ec8161346e565b1660005260046020526102f16115086005604060002001612e35565b604051918291602083526020830190612907565b346101705760203660031901126101705761016e611538612740565b612f52565b346101705760003660031901126101705760075461155a81612b6a565b9061156860405192836127ee565b808252602090818301908160076000527fa66cc928b5edb82af9bd49922954155ab7b0942694bea4ce44661d9a8736c6886000915b8383106116045750505050604051918083019381845251809452604083019360408160051b85010192916000955b8287106115d85785850386f35b9091929382806115f4600193603f198a8203018652885161299e565b96019201960195929190926115cb565b600686600192611616859a999a612eda565b81520192019201919095949561159d565b34610170576000366003190112610170576000805160206139d5833981519152546040516001600160a01b039091168152602090f35b34610170576000366003190112610170576116766134be565b6000805160206139d583398151915280546001600160a01b031981169091556000906001600160a01b03167f8be0079c531659141344cd1fd0a4f28419497f9722a3daafe3b4186f6b6457e08280a3005b34610170576020806003193601126101705760a0906116e461272a565b90600060806040516116f581612781565b6060815282848201528260408201526060808201520152600180841b03809216600052600181526117cd6040600020926040519361173285612781565b604051611743816107308185612d29565b8552600181015484860192808216845260ff6040880192891c16151582526117ab6003604051946117828661177b8160028501612d29565b03876127ee565b60608a0195865201549660808901978852604051998a99828b5251918a015260c089019061287f565b9351166040870152511515606086015251848203601f1901608086015261287f565b905160a08301520390f35b34610170576000366003190112610170577f00000000000000000000000000000000000000000000000000000000000000006001600160a01b031630036118435760206040517f360894a13ba1a3210667c828492db98dca3e2076cc3735a920a3ca505d382bbc8152f35b60405163703e46dd60e11b8152600490fd5b34610170576000366003190112610170576009546040516370a0823160e01b815230600482015290602090829060249082906001600160a01b03165afa801561143d576000906118ab575b602090604051908152f35b506020813d6020116118d6575b816118c5602093836127ee565b8101031261017057602090516118a0565b3d91506118b8565b6040366003190112610170576118f261272a565b6024356001600160401b03811161017057366023820112156101705761192290369060248160040135910161282a565b906001600160a01b037f00000000000000000000000000000000000000000000000000000000000000008116308114908115611ade575b50611843576119666134be565b6040516352d1902d60e01b8152908216916020918281600481875afa60009181611aaf575b506119a957604051634c9c8ce360e01b815260048101859052602490fd5b9284937f360894a13ba1a3210667c828492db98dca3e2076cc3735a920a3ca505d382bbc90818103611a975750823b15611a7e5780546001600160a01b03191682179055604051907fbc7cd75a20ee27fd9adebab32041f755214dbc6bffa90cc0225b39da2e5c2d3b600080a2835115611a645750600080848461016e96519101845af4903d15611a5b573d611a3e8161280f565b90611a4c60405192836127ee565b8152600081943d92013e613971565b60609250613971565b9250505034611a6f57005b63b398979f60e01b8152600490fd5b604051634c9c8ce360e01b815260048101839052602490fd5b60249060405190632a87526960e21b82526004820152fd5b9091508381813d8311611ad7575b611ac781836127ee565b810103126101705751908661198b565b503d611abd565b9050817f360894a13ba1a3210667c828492db98dca3e2076cc3735a920a3ca505d382bbc5416141584611959565b3461017057602036600319011261017057611b2561272a565b600060a0604051611b3581612766565b828152826020820152826040820152826060820152826080820152015260018060a01b0316600052600360205260c0611b716040600020612b81565b611b7e60405180926126e1565bf35b346101705760203660031901126101705763ffffffff611b9e612740565b611ba6612cf7565b501660005260046020526102f1611bc06040600020612eda565b60405191829160208352602083019061299e565b3461017057604036600319011261017057611bed612740565b611bf5612753565b611bfe8261346e565b63ffffffff9182811692836000526020906002825260406000206008810160ff815416611c2a81612a39565b6120d95760058201611c65611c458886845460a01c16612cd2565b825463ffffffff60a01b191660a09190911b63ffffffff60a01b16178255565b805484808260c01c169160a01c16116120c75760005467ffffffff00000000611c918683891c16612cbd565b871b169067ffffffff00000000191617600055336000526003855260406000209260ff6000935460101c166002811015610c305715611f2d575b5080611ce08886611d00945460a01c16612cd2565b815463ffffffff60a01b191660a09190911b63ffffffff60a01b16179055565b6000548254600160401b600160e01b031991861c85169190911667ffffffff00000001600160e01b0319909116173360401b600160401b600160e01b031617825563ffffffff1990611d7e611d5361349e565b9660028501978855849067ffffffff0000000082549160201b169067ffffffff000000001916179055565b611d8d60018401918254612cea565b8155600383019283548386611da48b828516612cd2565b16911617845560085491600160401b831015610272576001830180600855831015610841577fc541e3defd92fd2d8306e9c91b36c15f096115c41c7a9a36ac548a487d8891aa97869360021b91827ff3f7a9fe364faab93b216da50a3214154f22a0a2b415b23a84c8169e8b636ee30193808503611e51575b8c8c8c8c89336000526005825260406000208560005282526040600020600160ff19825416179055604051931683523392a3005b80548554881690871617808655815467ffffffff0000000019909116908b1c871660201b67ffffffff00000000161785557ff3f7a9fe364faab93b216da50a3214154f22a0a2b415b23a84c8169e8b636ee694611ecb91548154600160401b600160e01b031916600160401b600160e01b03909116179055565b547ff3f7a9fe364faab93b216da50a3214154f22a0a2b415b23a84c8169e8b636ee4830155547ff3f7a9fe364faab93b216da50a3214154f22a0a2b415b23a84c8169e8b636ee582015501925416908254161790558580828180808080611e1d565b9091506001600160601b03611f4a81600b84015416868a16612bd9565b169160018060a01b0360095416916040516370a0823160e01b81523360048201528781602481875afa801561143d578591600091612096575b501061208457604051636eb1769f60e11b81523360048201523060248201528781604481875afa801561143d578591600091612053575b501061204157866000936064604051809681936323b872dd60e01b83523360048401523060248401528960448401525af190811561143d57611d0093600c92612024575b500161200b848254612cea565b90556001840161201c848254612cea565b905590611ccb565b61203a90893d8b116114365761142e81836127ee565b508b611ffe565b60405163ea75ebd560e01b8152600490fd5b809250898092503d831161207d575b61206c81836127ee565b81010312610170578490518c611fba565b503d612062565b604051632858f9ab60e11b8152600490fd5b809250898092503d83116120c0575b6120af81836127ee565b81010312610170578490518c611f83565b503d6120a5565b6040516374a227cd60e01b8152600490fd5b6040516305fb6d9960e41b8152600490fd5b34610170576060366003190112610170576001600160401b036004358181116101705761211c903690600401612861565b906024356001600160a01b0381169190829003610170576044358181116101705761214b903690600401612861565b9161215584613493565b61215e83613493565b806000526001936020918583526040600020918051908582116102725761218f826121898654612c25565b86612c76565b8490601f83116001146122af5791806121c39260029695946000926122a45750508160011b916000199060031b1c19161790565b82555b81870180546001600160a81b031916909117600160a01b17905584519101949092831161027257612201836121fb8754612c25565b87612c76565b81601f84116001146122405750508190612231936000926122355750508160011b916000199060031b1c19161790565b9055005b01519050848061053a565b91909383601f1981168760005284600020946000905b8883831061228a5750505010612271575b505050811b019055005b015160001960f88460031b161c19169055838080612267565b858701518855909601959485019487935090810190612256565b015190508a8061053a565b9392918891601f1982169085600052876000209160005b898282106123015750509683600298106122e8575b505050811b0182556121c6565b015160001960f88460031b161c191690558980806122db565b838a015185558d969094019392830192016122c6565b3461017057604036600319011261017057612330612740565b612338612753565b906123428161346e565b63ffffffff9081811692836000526020926002845261236560406000209361346e565b8460005260028452604060002061237a61349e565b600782015410612576575b503360005260038452604060002091600884015460ff8160101c166002811015610c30576125645760ff166123b981612a39565b6125525782546001600160a01b03919033604082901c84160361254057838891881c160361252e57600384018381541684831680911061251c57600c9061240f6001600160601b039182600b8b01541690612bd9565b169661242860058201611ce08689835460a01c16612bf7565b01805490878203918211612506575583612446825493828516612bf7565b16809263ffffffff1916179055156124e1575b60095460405163a9059cbb60e01b8152336004820152602481018690529391869185916044918391600091165af192831561143d577f4f6fb365c29f3632d91fcd919dbfdf50155c34cd0ea613bd43e7e76529fec435936124c4575b505416926040519283523392a4005b6124da90863d88116114365761142e81836127ee565b50866124b5565b33600052600585526040600020866000528552604060002060ff198154169055612459565b634e487b7160e01b600052601160045260246000fd5b60405163a2ed46e160e01b8152600490fd5b60405163b790ffed60e01b8152600490fd5b6040516338ebc58960e11b8152600490fd5b604051630738c50360e41b8152600490fd5b6040516380e4469160e01b8152600490fd5b6008018054600160ff821661258a81612a39565b03612596575b50612385565b60019060ff191617905560016125aa61349e565b7f9c8ea6489f3baa31d321639e3a41ad67158fa673511a98870906b5a9eced0dd4600080a38580612590565b34610170576020366003190112610170576001600160a01b036125f761272a565b1660005260016020526020600360406000200154604051908152f35b346101705760003660031901126101705760085461263081612b6a565b61263d60405191826127ee565b81815260209060208101928360086000527ff3f7a9fe364faab93b216da50a3214154f22a0a2b415b23a84c8169e8b636ee36000915b8383106126c457604080516020808252875190820181905289928201908960005b8281106126a15784840385f35b9091928260c0826126b56001948a516126e1565b01960191019492919094612694565b6004866001926126d385612b81565b815201920192019190612673565b60a0908163ffffffff91828151168552826020820151166020860152600180831b0360408201511660408601526060810151606086015260808101516080860152015116910152565b600435906001600160a01b038216820361017057565b6004359063ffffffff8216820361017057565b6024359063ffffffff8216820361017057565b60c081019081106001600160401b0382111761027257604052565b60a081019081106001600160401b0382111761027257604052565b608081019081106001600160401b0382111761027257604052565b61026081019081106001600160401b0382111761027257604052565b604081019081106001600160401b0382111761027257604052565b90601f801991011681019081106001600160401b0382111761027257604052565b6001600160401b03811161027257601f01601f191660200190565b9291926128368261280f565b9161284460405193846127ee565b829481845281830111610170578281602093846000960137010152565b9080601f830112156101705781602061287c9335910161282a565b90565b919082519283825260005b8481106128ab575050826000602080949584010152601f8019910116010190565b60208183018101518483018201520161288a565b90815180825260208080930193019160005b8281106128df575050505090565b835180516001600160a01b0316865282015185830152604090940193928101926001016128d1565b908082519081815260208091019281808460051b8301019501936000915b8483106129355750505050505090565b9091929394958480600192601f198582030186528951906129846129716080878060a01b0385511684528585015190808786015284019061287f565b604080850151908483039085015261287f565b916060809101519101529801930193019194939290612925565b61287c9163ffffffff82511681526020820151602082015260a06129fb6129e96129d7604086015160c0604087015260c086019061287f565b6060860151858203606087015261287f565b608085015184820360808601526128bf565b9201519060a0818403910152612907565b9181601f84011215610170578235916001600160401b038311610170576020838186019501011161017057565b60031115610c3057565b9061026091612a9f612a8d612a7b63ffffffff958685511686526020850151602087015260408501519080604088015286019061287f565b6060840151858203606087015261287f565b6080830151848203608086015261287f565b9260018060a01b0360a08301511660a08401528060c08301511660c084015260e08201511660e0830152610100808201519083015261012080820151908301526101408082015190612af082612a39565b8301526101608082015190612b0482612a39565b83015261018080820151906002821015610c30578301526101a080820151908301526101c080820151908301526101e06001600160601b038183015116908301526102008082015190830152610220808201519083015261024080910151151591015290565b6001600160401b0381116102725760051b60200190565b90604051612b8e81612766565b60a08193600381549163ffffffff928381168652838160201c166020870152600180861b039060401c1660408601526001810154606086015260028101546080860152015416910152565b9190916001600160601b038080941691160291821691820361250657565b63ffffffff918216908216039190821161250657565b90816020910312610170575180151581036101705790565b90600182811c92168015612c55575b6020831014612c3f57565b634e487b7160e01b600052602260045260246000fd5b91607f1691612c34565b818110612c6a575050565b60008155600101612c5f565b9190601f8111612c8557505050565b612cb1926000526020600020906020601f840160051c83019310612cb3575b601f0160051c0190612c5f565b565b9091508190612ca4565b90600163ffffffff8093160191821161250657565b91909163ffffffff8080941691160191821161250657565b9190820180921161250657565b60405190612d0482612766565b606060a083600081526000602082015282604082015282808201528260808201520152565b805460009392612d3882612c25565b91828252602093600191600181169081600014612da05750600114612d5f575b5050505050565b90939495506000929192528360002092846000945b838610612d8c57505050500101903880808080612d58565b805485870183015294019385908201612d74565b60ff19168685015250505090151560051b010191503880808080612d58565b908154612dcb81612b6a565b92604093612ddc60405191826127ee565b82815280946020809201926000526020600020906000935b858510612e0357505050505050565b6002846001928451612e14816127d3565b848060a01b0387541681528487015483820152815201930194019391612df4565b908154612e4181612b6a565b92604093612e5260405191826127ee565b82815280946020809201926000526020600020906000935b858510612e7957505050505050565b6004846001928451612e8a8161279c565b848060a01b0387541681528551612ea78161073081898c01612d29565b838201528551612ebe816107308160028c01612d29565b8682015260038701546060820152815201930194019391612e6a565b90604051612ee781612766565b60a0612f4d6005839563ffffffff815416855260018101546020860152604051612f18816107308160028601612d29565b6040860152604051612f31816107308160038601612d29565b6060860152612f4260048201612dbf565b608086015201612e35565b910152565b63ffffffff90612f618161346e565b168060005260026020526040600020612f7861349e565b6009820154111580612ff0575b15612f9957600801805461ff001916905550565b612fa161349e565b600a82015410612fb0575b5050565b600801805461ff001916610100179055612fc861349e565b907f835839f42ff642197e82f2887491db41a51c32dc7004091799724e9e3d6f2489600080a3565b50612ff961349e565b600a8201541015612f85565b80548210156108415760005260206000209060011b0190600090565b9060018060a01b038151166001600160601b0360a01b83541617825560018083016020808401519182516001600160401b03938482116102725761306f826130698554612c25565b85612c76565b8390601f831160011461317e5761309e9291600091836131045750508160011b916000199060031b1c19161790565b90555b60028501926040850151908151938411610272576130c3846121fb8754612c25565b82601f851160011461310f5750508260039593606095936130fa936000926131045750508160011b916000199060031b1c19161790565b90555b0151910155565b01519050388061053a565b91601f949391941984168660005283600020936000905b828210613167575050916003979593918560609896941061314f575b505050811b0190556130fd565b015160001983891b60f8161c19169055388080613142565b808886978294978701518155019601940190613126565b869291601f1983169185600052866000209260005b888282106131ca57505084116131b1575b505050811b0190556130a1565b015160001960f88460031b161c191690553880806131a4565b8385015186558b97909501949384019301613193565b906040516131ed816127b7565b809263ffffffff80825416835260018201546020840152604051613218816107308160028701612d29565b6040840152604051613231816107308160038701612d29565b606084015260405161324a816107308160048701612d29565b6080840152600582015460018060a01b03811660a0850152818160a01c1660c085015260c01c1660e08301526006810154610100830152600781015461012083015260ff600882015481811661329f81612a39565b610140850152818160081c166132b481612a39565b61016085015260101c16906002821015610c3057600e60ff916102409361018086015260098101546101a0860152600a8101546101c08601526001600160601b03600b820154166101e0860152600c810154610200860152600d8101546102208601520154161515910152565b90808214612fac576133338154612c25565b906001600160401b03821161027257613350826130698554612c25565b600090601f831160011461338f576133809291600091836133845750508160011b916000199060031b1c19161790565b9055565b01549050388061053a565b815260208082208483528183209291601f1985169083905b8282106133e15750509084600195949392106133c8575b505050811b019055565b015460001960f88460031b161c191690553880806133be565b84958192958501548155600180910196019401906133a7565b6001600160a01b03908116908115613455576000805160206139d583398151915280546001600160a01b031981168417909155167f8be0079c531659141344cd1fd0a4f28419497f9722a3daafe3b4186f6b6457e0600080a3565b604051631e4fbdf760e01b815260006004820152602490fd5b63ffffffff806000541691161161348157565b6040516316a7994d60e21b8152600490fd5b6001905110610df957565b6103e8804202904282048114421517156125065781018091116125065790565b6000805160206139d5833981519152546001600160a01b031633036134df57565b60405163118cdaa760e01b8152336004820152602490fd5b600111610df957565b101561350857565b60405163489eca6760e01b8152600490fd5b6135248154612c25565b908161352e575050565b81601f60009311600114613540575055565b90808391825261355f601f60208420940160051c840160018501612c5f565b5555565b63ffffffff82511663ffffffff19825416178155600191602090818101518484015560029182840160408301519081516001600160401b0392838211610272576135b1826130698554612c25565b8490601f83116001146138ce576135e09291600091836131045750508160011b916000199060031b1c19161790565b90555b60039060038601906060850151805191821161027257613607826130698554612c25565b8490601f831160011461386c576136369291600091836131045750508160011b916000199060031b1c19161790565b90555b60049384860195608085015196875190600160401b9889831161385757869082548484558085106137d4575b500190600052856000208a85886000945b86861061379c5750505050505050600560a0910194015191825196871161378757908392918554918887558289106136e4575b5050500191600052806000206000925b8584106136c95750505050505050565b8483826136d88a945186613021565b019201930192906136b9565b92935090916001600160fe1b038084168403613772578816880361375d57908493929186600052878560002093821b8401938a831b015b8481106137295750506136a9565b909192939495506000815561373f8b820161351a565b61374a83820161351a565b600084820155019087869594939261371b565b601187634e487b7160e01b6000525260246000fd5b601188634e487b7160e01b6000525260246000fd5b604186634e487b7160e01b6000525260246000fd5b8051805186546001600160a01b0319166001600160a01b03919091161786556020015160018601550192019201919085888d92613676565b9091506001600160ff1b038082168203613842578416840361382d5790879183600052868d8460002092811b83019287821b01905b83821061381857505050613665565b6000808355908201558a94508891018e613809565b60118a634e487b7160e01b6000525260246000fd5b60118b634e487b7160e01b6000525260246000fd5b604189634e487b7160e01b6000525260246000fd5b899291601f1983169185600052876000209260005b898282106138b8575050841161389f575b505050811b019055613639565b015160001960f88460031b161c19169055388080613892565b8385015186558e97909501949384019301613881565b899291601f1983169185600052876000209260005b8982821061391a5750508411613901575b505050811b0190556135e3565b015160001960f88460031b161c191690553880806138f4565b8385015186558e979095019493840193016138e3565b60ff7ff0c57e16840df040f15088dc2f81fe391c3923bec73e23a9662efc9c229c6a005460401c161561395f57565b604051631afcd79f60e31b8152600490fd5b90613998575080511561398657805190602001fd5b604051630a12f52160e11b8152600490fd5b815115806139cb575b6139a9575090565b604051639996b31560e01b81526001600160a01b039091166004820152602490fd5b50803b156139a156fe9016d09d72d40fdae2fd8ceac6b6234c7706214fd39c1cd1e609a0528c199300f652222313e28459528d920b65115c16c04f3efc82aaedc97be59f3f377c0d3ff652222313e28459528d920b65115c16c04f3efc82aaedc97be59f3f377c0d47a264697066735822122093d481ca885bf6526771a03d07c89f21cac7b93be4832c8758ce869c50d9aecc64736f6c63430008180033",
    "linkReferences": {}
  },
  "methodIdentifiers": {
    "UPGRADE_INTERFACE_VERSION()": "ad3cb1cc",
    "checkContractBalance()": "50312c9e",
    "checkUserBalance(address)": "0a9bfef5",
    "createAccount(string,address,string)": "331ef976",
    "createEvent(bytes32,string,string,string,uint32,uint256,uint256,uint256,uint256,uint96,bool)": "dbc96e99",
    "getAllEventGroups()": "909fdec9",
    "getAllEvents()": "c27a500d",
    "getAllTickets()": "03e96fe3",
    "getEventById(uint32)": "cd71ed35",
    "getEventGroup(uint32)": "3809f6f5",
    "getGroupMembers(uint32)": "ec976a0a",
    "getGroupMessages(uint32)": "a881b837",
    "getTicket(address)": "4717dea9",
    "getUser(address)": "6f77926b",
    "groupChat(uint32,string)": "be7fb5d7",
    "initialize(address)": "c4d66de8",
    "isRegistered(address)": "c3c5a547",
    "joinGroup(uint32)": "eec932f7",
    "owner()": "8da5cb5b",
    "proxiableUUID()": "52d1902d",
    "purchaseTicket(uint32,uint32)": "3405741d",
    "refundFee(uint32,uint32)": "0f9fcf48",
    "renounceOwnership()": "715018a6",
    "transferOwnership(address)": "f2fde38b",
    "updateEventStatus(uint32)": "a87f86f9",
    "upgradeToAndCall(address,bytes)": "4f1ef286",
    "withdrawEventFee(uint32)": "b33f650e"
  },
  "id": 36
}