{
  "abi": [
    {
      "type": "function",
      "name": "UPGRADE_INTERFACE_VERSION",
      "inputs": [],
      "outputs": [
        {
          "name": "",
          "type": "string",
          "internalType": "string"
        }
      ],
      "stateMutability": "view"
    },
    {
      "type": "function",
      "name": "checkContractBalance",
      "inputs": [],
      "outputs": [
        {
          "name": "bal_",
          "type": "uint256",
          "internalType": "uint256"
        }
      ],
      "stateMutability": "view"
    },
    {
      "type": "function",
      "name": "checkUserBalance",
      "inputs": [
        {
          "name": "_addr",
          "type": "address",
          "internalType": "address"
        }
      ],
      "outputs": [
        {
          "name": "bal_",
          "type": "uint256",
          "internalType": "uint256"
        }
      ],
      "stateMutability": "view"
    },
    {
      "type": "function",
      "name": "createAccount",
      "inputs": [
        {
          "name": "_email",
          "type": "string",
          "internalType": "string"
        },
        {
          "name": "_addr",
          "type": "address",
          "internalType": "address"
        },
        {
          "name": "_avatar",
          "type": "string",
          "internalType": "string"
        }
      ],
      "outputs": [],
      "stateMutability": "nonpayable"
    },
    {
      "type": "function",
      "name": "createEvent",
      "inputs": [
        {
          "name": "_title",
          "type": "string",
          "internalType": "string"
        },
        {
          "name": "_imageUrl",
          "type": "string",
          "internalType": "string"
        },
        {
          "name": "_description",
          "type": "string",
          "internalType": "string"
        },
        {
          "name": "_location",
          "type": "string",
          "internalType": "string"
        },
        {
          "name": "_capacity",
          "type": "uint32",
          "internalType": "uint32"
        },
        {
          "name": "_regStartTime",
          "type": "uint256",
          "internalType": "uint256"
        },
        {
          "name": "_regEndTime",
          "type": "uint256",
          "internalType": "uint256"
        },
        {
          "name": "_eventStartTime",
          "type": "uint256",
          "internalType": "uint256"
        },
        {
          "name": "_eventEndTime",
          "type": "uint256",
          "internalType": "uint256"
        },
        {
          "name": "_ticketPrice",
          "type": "uint96",
          "internalType": "uint96"
        },
        {
          "name": "_isEventPaid",
          "type": "bool",
          "internalType": "bool"
        }
      ],
      "outputs": [],
      "stateMutability": "nonpayable"
    },
    {
      "type": "function",
      "name": "createGroup",
      "inputs": [
        {
          "name": "_eventId",
          "type": "uint32",
          "internalType": "uint32"
        }
      ],
      "outputs": [],
      "stateMutability": "nonpayable"
    },
    {
      "type": "function",
      "name": "getAllEventGroups",
      "inputs": [],
      "outputs": [
        {
          "name": "",
          "type": "tuple[]",
          "internalType": "struct BlumaProtocol.EventGroup[]",
          "components": [
            {
              "name": "eventId",
              "type": "uint32",
              "internalType": "uint32"
            },
            {
              "name": "title",
              "type": "string",
              "internalType": "string"
            },
            {
              "name": "imageUrl",
              "type": "string",
              "internalType": "string"
            },
            {
              "name": "description",
              "type": "string",
              "internalType": "string"
            },
            {
              "name": "members",
              "type": "tuple[]",
              "internalType": "struct BlumaProtocol.Member[]",
              "components": [
                {
                  "name": "user",
                  "type": "address",
                  "internalType": "address"
                },
                {
                  "name": "joinTime",
                  "type": "uint256",
                  "internalType": "uint256"
                }
              ]
            },
            {
              "name": "messages",
              "type": "tuple[]",
              "internalType": "struct BlumaProtocol.Message[]",
              "components": [
                {
                  "name": "sender",
                  "type": "address",
                  "internalType": "address"
                },
                {
                  "name": "email",
                  "type": "string",
                  "internalType": "string"
                },
                {
                  "name": "text",
                  "type": "string",
                  "internalType": "string"
                },
                {
                  "name": "timestamp",
                  "type": "uint256",
                  "internalType": "uint256"
                }
              ]
            }
          ]
        }
      ],
      "stateMutability": "view"
    },
    {
      "type": "function",
      "name": "getAllEvents",
      "inputs": [],
      "outputs": [
        {
          "name": "",
          "type": "tuple[]",
          "internalType": "struct BlumaProtocol.Event[]",
          "components": [
            {
              "name": "eventId",
              "type": "uint32",
              "internalType": "uint32"
            },
            {
              "name": "title",
              "type": "string",
              "internalType": "string"
            },
            {
              "name": "imageUrl",
              "type": "string",
              "internalType": "string"
            },
            {
              "name": "location",
              "type": "string",
              "internalType": "string"
            },
            {
              "name": "description",
              "type": "string",
              "internalType": "string"
            },
            {
              "name": "creator",
              "type": "address",
              "internalType": "address"
            },
            {
              "name": "seats",
              "type": "uint32",
              "internalType": "uint32"
            },
            {
              "name": "capacity",
              "type": "uint32",
              "internalType": "uint32"
            },
            {
              "name": "regStartTime",
              "type": "uint256",
              "internalType": "uint256"
            },
            {
              "name": "regEndTime",
              "type": "uint256",
              "internalType": "uint256"
            },
            {
              "name": "groups",
              "type": "tuple",
              "internalType": "struct BlumaProtocol.EventGroup",
              "components": [
                {
                  "name": "eventId",
                  "type": "uint32",
                  "internalType": "uint32"
                },
                {
                  "name": "title",
                  "type": "string",
                  "internalType": "string"
                },
                {
                  "name": "imageUrl",
                  "type": "string",
                  "internalType": "string"
                },
                {
                  "name": "description",
                  "type": "string",
                  "internalType": "string"
                },
                {
                  "name": "members",
                  "type": "tuple[]",
                  "internalType": "struct BlumaProtocol.Member[]",
                  "components": [
                    {
                      "name": "user",
                      "type": "address",
                      "internalType": "address"
                    },
                    {
                      "name": "joinTime",
                      "type": "uint256",
                      "internalType": "uint256"
                    }
                  ]
                },
                {
                  "name": "messages",
                  "type": "tuple[]",
                  "internalType": "struct BlumaProtocol.Message[]",
                  "components": [
                    {
                      "name": "sender",
                      "type": "address",
                      "internalType": "address"
                    },
                    {
                      "name": "email",
                      "type": "string",
                      "internalType": "string"
                    },
                    {
                      "name": "text",
                      "type": "string",
                      "internalType": "string"
                    },
                    {
                      "name": "timestamp",
                      "type": "uint256",
                      "internalType": "uint256"
                    }
                  ]
                }
              ]
            },
            {
              "name": "regStatus",
              "type": "uint8",
              "internalType": "enum BlumaProtocol.RegStatus"
            },
            {
              "name": "eventStatus",
              "type": "uint8",
              "internalType": "enum BlumaProtocol.EventStatus"
            },
            {
              "name": "eventType",
              "type": "uint8",
              "internalType": "enum BlumaProtocol.EventType"
            },
            {
              "name": "nftUrl",
              "type": "string",
              "internalType": "string"
            },
            {
              "name": "eventStartTime",
              "type": "uint256",
              "internalType": "uint256"
            },
            {
              "name": "eventEndTime",
              "type": "uint256",
              "internalType": "uint256"
            },
            {
              "name": "ticketPrice",
              "type": "uint96",
              "internalType": "uint96"
            },
            {
              "name": "totalSales",
              "type": "uint256",
              "internalType": "uint256"
            },
            {
              "name": "createdAt",
              "type": "uint256",
              "internalType": "uint256"
            },
            {
              "name": "isCreatorPaid",
              "type": "bool",
              "internalType": "bool"
            },
            {
              "name": "hasMinted",
              "type": "bool",
              "internalType": "bool"
            }
          ]
        }
      ],
      "stateMutability": "view"
    },
    {
      "type": "function",
      "name": "getAllGroupMessages",
      "inputs": [
        {
          "name": "_eventId",
          "type": "uint32",
          "internalType": "uint32"
        }
      ],
      "outputs": [
        {
          "name": "",
          "type": "tuple[]",
          "internalType": "struct BlumaProtocol.Message[]",
          "components": [
            {
              "name": "sender",
              "type": "address",
              "internalType": "address"
            },
            {
              "name": "email",
              "type": "string",
              "internalType": "string"
            },
            {
              "name": "text",
              "type": "string",
              "internalType": "string"
            },
            {
              "name": "timestamp",
              "type": "uint256",
              "internalType": "uint256"
            }
          ]
        }
      ],
      "stateMutability": "view"
    },
    {
      "type": "function",
      "name": "getAllTickets",
      "inputs": [],
      "outputs": [
        {
          "name": "_tickets",
          "type": "tuple[]",
          "internalType": "struct BlumaProtocol.Ticket[]",
          "components": [
            {
              "name": "ticketId",
              "type": "uint32",
              "internalType": "uint32"
            },
            {
              "name": "eventId",
              "type": "uint32",
              "internalType": "uint32"
            },
            {
              "name": "owner",
              "type": "address",
              "internalType": "address"
            },
            {
              "name": "ticketCost",
              "type": "uint256",
              "internalType": "uint256"
            },
            {
              "name": "purchaseTime",
              "type": "uint256",
              "internalType": "uint256"
            },
            {
              "name": "numberOfTicket",
              "type": "uint32",
              "internalType": "uint32"
            }
          ]
        }
      ],
      "stateMutability": "view"
    },
    {
      "type": "function",
      "name": "getAllUser",
      "inputs": [],
      "outputs": [
        {
          "name": "",
          "type": "tuple[]",
          "internalType": "struct BlumaProtocol.User[]",
          "components": [
            {
              "name": "email",
              "type": "string",
              "internalType": "string"
            },
            {
              "name": "userAddr",
              "type": "address",
              "internalType": "address"
            },
            {
              "name": "isRegistered",
              "type": "bool",
              "internalType": "bool"
            },
            {
              "name": "avatar",
              "type": "string",
              "internalType": "string"
            },
            {
              "name": "balance",
              "type": "uint256",
              "internalType": "uint256"
            }
          ]
        }
      ],
      "stateMutability": "view"
    },
    {
      "type": "function",
      "name": "getEventById",
      "inputs": [
        {
          "name": "_eventId",
          "type": "uint32",
          "internalType": "uint32"
        }
      ],
      "outputs": [
        {
          "name": "events_",
          "type": "tuple",
          "internalType": "struct BlumaProtocol.Event",
          "components": [
            {
              "name": "eventId",
              "type": "uint32",
              "internalType": "uint32"
            },
            {
              "name": "title",
              "type": "string",
              "internalType": "string"
            },
            {
              "name": "imageUrl",
              "type": "string",
              "internalType": "string"
            },
            {
              "name": "location",
              "type": "string",
              "internalType": "string"
            },
            {
              "name": "description",
              "type": "string",
              "internalType": "string"
            },
            {
              "name": "creator",
              "type": "address",
              "internalType": "address"
            },
            {
              "name": "seats",
              "type": "uint32",
              "internalType": "uint32"
            },
            {
              "name": "capacity",
              "type": "uint32",
              "internalType": "uint32"
            },
            {
              "name": "regStartTime",
              "type": "uint256",
              "internalType": "uint256"
            },
            {
              "name": "regEndTime",
              "type": "uint256",
              "internalType": "uint256"
            },
            {
              "name": "groups",
              "type": "tuple",
              "internalType": "struct BlumaProtocol.EventGroup",
              "components": [
                {
                  "name": "eventId",
                  "type": "uint32",
                  "internalType": "uint32"
                },
                {
                  "name": "title",
                  "type": "string",
                  "internalType": "string"
                },
                {
                  "name": "imageUrl",
                  "type": "string",
                  "internalType": "string"
                },
                {
                  "name": "description",
                  "type": "string",
                  "internalType": "string"
                },
                {
                  "name": "members",
                  "type": "tuple[]",
                  "internalType": "struct BlumaProtocol.Member[]",
                  "components": [
                    {
                      "name": "user",
                      "type": "address",
                      "internalType": "address"
                    },
                    {
                      "name": "joinTime",
                      "type": "uint256",
                      "internalType": "uint256"
                    }
                  ]
                },
                {
                  "name": "messages",
                  "type": "tuple[]",
                  "internalType": "struct BlumaProtocol.Message[]",
                  "components": [
                    {
                      "name": "sender",
                      "type": "address",
                      "internalType": "address"
                    },
                    {
                      "name": "email",
                      "type": "string",
                      "internalType": "string"
                    },
                    {
                      "name": "text",
                      "type": "string",
                      "internalType": "string"
                    },
                    {
                      "name": "timestamp",
                      "type": "uint256",
                      "internalType": "uint256"
                    }
                  ]
                }
              ]
            },
            {
              "name": "regStatus",
              "type": "uint8",
              "internalType": "enum BlumaProtocol.RegStatus"
            },
            {
              "name": "eventStatus",
              "type": "uint8",
              "internalType": "enum BlumaProtocol.EventStatus"
            },
            {
              "name": "eventType",
              "type": "uint8",
              "internalType": "enum BlumaProtocol.EventType"
            },
            {
              "name": "nftUrl",
              "type": "string",
              "internalType": "string"
            },
            {
              "name": "eventStartTime",
              "type": "uint256",
              "internalType": "uint256"
            },
            {
              "name": "eventEndTime",
              "type": "uint256",
              "internalType": "uint256"
            },
            {
              "name": "ticketPrice",
              "type": "uint96",
              "internalType": "uint96"
            },
            {
              "name": "totalSales",
              "type": "uint256",
              "internalType": "uint256"
            },
            {
              "name": "createdAt",
              "type": "uint256",
              "internalType": "uint256"
            },
            {
              "name": "isCreatorPaid",
              "type": "bool",
              "internalType": "bool"
            },
            {
              "name": "hasMinted",
              "type": "bool",
              "internalType": "bool"
            }
          ]
        }
      ],
      "stateMutability": "view"
    },
    {
      "type": "function",
      "name": "getEventGroup",
      "inputs": [
        {
          "name": "_eventId",
          "type": "uint32",
          "internalType": "uint32"
        }
      ],
      "outputs": [
        {
          "name": "",
          "type": "tuple",
          "internalType": "struct BlumaProtocol.EventGroup",
          "components": [
            {
              "name": "eventId",
              "type": "uint32",
              "internalType": "uint32"
            },
            {
              "name": "title",
              "type": "string",
              "internalType": "string"
            },
            {
              "name": "imageUrl",
              "type": "string",
              "internalType": "string"
            },
            {
              "name": "description",
              "type": "string",
              "internalType": "string"
            },
            {
              "name": "members",
              "type": "tuple[]",
              "internalType": "struct BlumaProtocol.Member[]",
              "components": [
                {
                  "name": "user",
                  "type": "address",
                  "internalType": "address"
                },
                {
                  "name": "joinTime",
                  "type": "uint256",
                  "internalType": "uint256"
                }
              ]
            },
            {
              "name": "messages",
              "type": "tuple[]",
              "internalType": "struct BlumaProtocol.Message[]",
              "components": [
                {
                  "name": "sender",
                  "type": "address",
                  "internalType": "address"
                },
                {
                  "name": "email",
                  "type": "string",
                  "internalType": "string"
                },
                {
                  "name": "text",
                  "type": "string",
                  "internalType": "string"
                },
                {
                  "name": "timestamp",
                  "type": "uint256",
                  "internalType": "uint256"
                }
              ]
            }
          ]
        }
      ],
      "stateMutability": "view"
    },
    {
      "type": "function",
      "name": "getGroupMember",
      "inputs": [
        {
          "name": "_groupId",
          "type": "uint32",
          "internalType": "uint32"
        },
        {
          "name": "_index",
          "type": "uint256",
          "internalType": "uint256"
        }
      ],
      "outputs": [
        {
          "name": "",
          "type": "tuple",
          "internalType": "struct BlumaProtocol.Member",
          "components": [
            {
              "name": "user",
              "type": "address",
              "internalType": "address"
            },
            {
              "name": "joinTime",
              "type": "uint256",
              "internalType": "uint256"
            }
          ]
        }
      ],
      "stateMutability": "view"
    },
    {
      "type": "function",
      "name": "getGroupMembers",
      "inputs": [
        {
          "name": "_eventId",
          "type": "uint32",
          "internalType": "uint32"
        }
      ],
      "outputs": [
        {
          "name": "",
          "type": "tuple[]",
          "internalType": "struct BlumaProtocol.Member[]",
          "components": [
            {
              "name": "user",
              "type": "address",
              "internalType": "address"
            },
            {
              "name": "joinTime",
              "type": "uint256",
              "internalType": "uint256"
            }
          ]
        }
      ],
      "stateMutability": "view"
    },
    {
      "type": "function",
      "name": "getNfts",
      "inputs": [
        {
          "name": "_user",
          "type": "address",
          "internalType": "address"
        }
      ],
      "outputs": [
        {
          "name": "",
          "type": "tuple",
          "internalType": "struct BlumaProtocol.NFT",
          "components": [
            {
              "name": "eventId",
              "type": "uint32",
              "internalType": "uint32"
            },
            {
              "name": "title",
              "type": "string",
              "internalType": "string"
            },
            {
              "name": "owner",
              "type": "address",
              "internalType": "address"
            },
            {
              "name": "nftUrl",
              "type": "string",
              "internalType": "string"
            }
          ]
        }
      ],
      "stateMutability": "view"
    },
    {
      "type": "function",
      "name": "getTicket",
      "inputs": [
        {
          "name": "_addr",
          "type": "address",
          "internalType": "address"
        }
      ],
      "outputs": [
        {
          "name": "_ticket",
          "type": "tuple",
          "internalType": "struct BlumaProtocol.Ticket",
          "components": [
            {
              "name": "ticketId",
              "type": "uint32",
              "internalType": "uint32"
            },
            {
              "name": "eventId",
              "type": "uint32",
              "internalType": "uint32"
            },
            {
              "name": "owner",
              "type": "address",
              "internalType": "address"
            },
            {
              "name": "ticketCost",
              "type": "uint256",
              "internalType": "uint256"
            },
            {
              "name": "purchaseTime",
              "type": "uint256",
              "internalType": "uint256"
            },
            {
              "name": "numberOfTicket",
              "type": "uint32",
              "internalType": "uint32"
            }
          ]
        }
      ],
      "stateMutability": "view"
    },
    {
      "type": "function",
      "name": "getUser",
      "inputs": [
        {
          "name": "_addr",
          "type": "address",
          "internalType": "address"
        }
      ],
      "outputs": [
        {
          "name": "_user",
          "type": "tuple",
          "internalType": "struct BlumaProtocol.User",
          "components": [
            {
              "name": "email",
              "type": "string",
              "internalType": "string"
            },
            {
              "name": "userAddr",
              "type": "address",
              "internalType": "address"
            },
            {
              "name": "isRegistered",
              "type": "bool",
              "internalType": "bool"
            },
            {
              "name": "avatar",
              "type": "string",
              "internalType": "string"
            },
            {
              "name": "balance",
              "type": "uint256",
              "internalType": "uint256"
            }
          ]
        }
      ],
      "stateMutability": "view"
    },
    {
      "type": "function",
      "name": "groupChat",
      "inputs": [
        {
          "name": "_eventId",
          "type": "uint32",
          "internalType": "uint32"
        },
        {
          "name": "_text",
          "type": "string",
          "internalType": "string"
        }
      ],
      "outputs": [],
      "stateMutability": "nonpayable"
    },
    {
      "type": "function",
      "name": "hasPurchasedTicket",
      "inputs": [
        {
          "name": "_user",
          "type": "address",
          "internalType": "address"
        },
        {
          "name": "_eventId",
          "type": "uint32",
          "internalType": "uint32"
        }
      ],
      "outputs": [
        {
          "name": "",
          "type": "bool",
          "internalType": "bool"
        }
      ],
      "stateMutability": "view"
    },
    {
      "type": "function",
      "name": "initialize",
      "inputs": [
        {
          "name": "initialOwner",
          "type": "address",
          "internalType": "address"
        },
        {
          "name": "_blumaToken",
          "type": "address",
          "internalType": "address"
        },
        {
          "name": "_blumaNFT",
          "type": "address",
          "internalType": "address"
        }
      ],
      "outputs": [],
      "stateMutability": "nonpayable"
    },
    {
      "type": "function",
      "name": "isRegistered",
      "inputs": [
        {
          "name": "_addr",
          "type": "address",
          "internalType": "address"
        }
      ],
      "outputs": [
        {
          "name": "",
          "type": "bool",
          "internalType": "bool"
        }
      ],
      "stateMutability": "view"
    },
    {
      "type": "function",
      "name": "joinGroup",
      "inputs": [
        {
          "name": "_eventId",
          "type": "uint32",
          "internalType": "uint32"
        }
      ],
      "outputs": [],
      "stateMutability": "nonpayable"
    },
    {
      "type": "function",
      "name": "mintNFTsForAttendees",
      "inputs": [
        {
          "name": "_eventId",
          "type": "uint32",
          "internalType": "uint32"
        }
      ],
      "outputs": [],
      "stateMutability": "nonpayable"
    },
    {
      "type": "function",
      "name": "mintNft",
      "inputs": [
        {
          "name": "_eventId",
          "type": "uint32",
          "internalType": "uint32"
        },
        {
          "name": "_nftUrl",
          "type": "string",
          "internalType": "string"
        }
      ],
      "outputs": [],
      "stateMutability": "nonpayable"
    },
    {
      "type": "function",
      "name": "owner",
      "inputs": [],
      "outputs": [
        {
          "name": "",
          "type": "address",
          "internalType": "address"
        }
      ],
      "stateMutability": "view"
    },
    {
      "type": "function",
      "name": "proxiableUUID",
      "inputs": [],
      "outputs": [
        {
          "name": "",
          "type": "bytes32",
          "internalType": "bytes32"
        }
      ],
      "stateMutability": "view"
    },
    {
      "type": "function",
      "name": "purchaseTicket",
      "inputs": [
        {
          "name": "_eventId",
          "type": "uint32",
          "internalType": "uint32"
        },
        {
          "name": "_numberOfTickets",
          "type": "uint32",
          "internalType": "uint32"
        }
      ],
      "outputs": [],
      "stateMutability": "nonpayable"
    },
    {
      "type": "function",
      "name": "refundFee",
      "inputs": [
        {
          "name": "_eventId",
          "type": "uint32",
          "internalType": "uint32"
        }
      ],
      "outputs": [],
      "stateMutability": "nonpayable"
    },
    {
      "type": "function",
      "name": "renounceOwnership",
      "inputs": [],
      "outputs": [],
      "stateMutability": "nonpayable"
    },
    {
      "type": "function",
      "name": "transferOwnership",
      "inputs": [
        {
          "name": "newOwner",
          "type": "address",
          "internalType": "address"
        }
      ],
      "outputs": [],
      "stateMutability": "nonpayable"
    },
    {
      "type": "function",
      "name": "updateEventStatus",
      "inputs": [
        {
          "name": "_eventId",
          "type": "uint32",
          "internalType": "uint32"
        }
      ],
      "outputs": [],
      "stateMutability": "nonpayable"
    },
    {
      "type": "function",
      "name": "updateRegStatus",
      "inputs": [
        {
          "name": "_eventId",
          "type": "uint32",
          "internalType": "uint32"
        }
      ],
      "outputs": [],
      "stateMutability": "nonpayable"
    },
    {
      "type": "function",
      "name": "upgradeToAndCall",
      "inputs": [
        {
          "name": "newImplementation",
          "type": "address",
          "internalType": "address"
        },
        {
          "name": "data",
          "type": "bytes",
          "internalType": "bytes"
        }
      ],
      "outputs": [],
      "stateMutability": "payable"
    },
    {
      "type": "function",
      "name": "withdrawEventFee",
      "inputs": [
        {
          "name": "_eventId",
          "type": "uint32",
          "internalType": "uint32"
        }
      ],
      "outputs": [],
      "stateMutability": "nonpayable"
    },
    {
      "type": "event",
      "name": "AttendeesNFTMinted",
      "inputs": [
        {
          "name": "owner",
          "type": "address",
          "indexed": true,
          "internalType": "address"
        },
        {
          "name": "eventId",
          "type": "uint32",
          "indexed": true,
          "internalType": "uint32"
        },
        {
          "name": "numberOfTickets",
          "type": "uint32",
          "indexed": false,
          "internalType": "uint32"
        },
        {
          "name": "tokenId",
          "type": "uint256",
          "indexed": true,
          "internalType": "uint256"
        }
      ],
      "anonymous": false
    },
    {
      "type": "event",
      "name": "EventClosed",
      "inputs": [
        {
          "name": "_eventId",
          "type": "uint32",
          "indexed": true,
          "internalType": "uint32"
        },
        {
          "name": "_currentTime",
          "type": "uint256",
          "indexed": true,
          "internalType": "uint256"
        }
      ],
      "anonymous": false
    },
    {
      "type": "event",
      "name": "EventCreated",
      "inputs": [
        {
          "name": "_totalEventsId",
          "type": "uint32",
          "indexed": true,
          "internalType": "uint32"
        },
        {
          "name": "_seatNumber",
          "type": "uint32",
          "indexed": true,
          "internalType": "uint32"
        },
        {
          "name": "_capacity",
          "type": "uint32",
          "indexed": true,
          "internalType": "uint32"
        }
      ],
      "anonymous": false
    },
    {
      "type": "event",
      "name": "GroupCreated",
      "inputs": [
        {
          "name": "_roomId",
          "type": "uint32",
          "indexed": true,
          "internalType": "uint32"
        },
        {
          "name": "imageUrl",
          "type": "string",
          "indexed": false,
          "internalType": "string"
        },
        {
          "name": "_title",
          "type": "string",
          "indexed": false,
          "internalType": "string"
        }
      ],
      "anonymous": false
    },
    {
      "type": "event",
      "name": "GroupJoinedSuccessfully",
      "inputs": [
        {
          "name": "_sender",
          "type": "address",
          "indexed": true,
          "internalType": "address"
        },
        {
          "name": "_eventId",
          "type": "uint32",
          "indexed": true,
          "internalType": "uint32"
        },
        {
          "name": "_joinedTimw",
          "type": "uint256",
          "indexed": true,
          "internalType": "uint256"
        }
      ],
      "anonymous": false
    },
    {
      "type": "event",
      "name": "Initialized",
      "inputs": [
        {
          "name": "version",
          "type": "uint64",
          "indexed": false,
          "internalType": "uint64"
        }
      ],
      "anonymous": false
    },
    {
      "type": "event",
      "name": "MessageSent",
      "inputs": [
        {
          "name": "sender",
          "type": "address",
          "indexed": true,
          "internalType": "address"
        },
        {
          "name": "groupId",
          "type": "uint32",
          "indexed": true,
          "internalType": "uint32"
        },
        {
          "name": "text",
          "type": "string",
          "indexed": false,
          "internalType": "string"
        },
        {
          "name": "timestamp",
          "type": "uint256",
          "indexed": false,
          "internalType": "uint256"
        }
      ],
      "anonymous": false
    },
    {
      "type": "event",
      "name": "NftMintedSuccessful",
      "inputs": [
        {
          "name": "sender",
          "type": "address",
          "indexed": true,
          "internalType": "address"
        },
        {
          "name": "nftUrl",
          "type": "string",
          "indexed": true,
          "internalType": "string"
        },
        {
          "name": "eventId",
          "type": "uint32",
          "indexed": true,
          "internalType": "uint32"
        },
        {
          "name": "title",
          "type": "string",
          "indexed": false,
          "internalType": "string"
        }
      ],
      "anonymous": false
    },
    {
      "type": "event",
      "name": "OwnershipTransferred",
      "inputs": [
        {
          "name": "previousOwner",
          "type": "address",
          "indexed": true,
          "internalType": "address"
        },
        {
          "name": "newOwner",
          "type": "address",
          "indexed": true,
          "internalType": "address"
        }
      ],
      "anonymous": false
    },
    {
      "type": "event",
      "name": "RefundIssued",
      "inputs": [
        {
          "name": "buyer",
          "type": "address",
          "indexed": true,
          "internalType": "address"
        },
        {
          "name": "_ticketId",
          "type": "uint32",
          "indexed": true,
          "internalType": "uint32"
        },
        {
          "name": "_eventId",
          "type": "uint32",
          "indexed": true,
          "internalType": "uint32"
        },
        {
          "name": "amount",
          "type": "uint256",
          "indexed": false,
          "internalType": "uint256"
        }
      ],
      "anonymous": false
    },
    {
      "type": "event",
      "name": "RegistrationClose",
      "inputs": [
        {
          "name": "_currentTime",
          "type": "uint256",
          "indexed": true,
          "internalType": "uint256"
        },
        {
          "name": "_status",
          "type": "uint8",
          "indexed": true,
          "internalType": "uint8"
        }
      ],
      "anonymous": false
    },
    {
      "type": "event",
      "name": "TicketPurchased",
      "inputs": [
        {
          "name": "buyer",
          "type": "address",
          "indexed": true,
          "internalType": "address"
        },
        {
          "name": "_eventId",
          "type": "uint32",
          "indexed": true,
          "internalType": "uint32"
        },
        {
          "name": "numberOfTickets",
          "type": "uint32",
          "indexed": false,
          "internalType": "uint32"
        }
      ],
      "anonymous": false
    },
    {
      "type": "event",
      "name": "Upgraded",
      "inputs": [
        {
          "name": "implementation",
          "type": "address",
          "indexed": true,
          "internalType": "address"
        }
      ],
      "anonymous": false
    },
    {
      "type": "error",
      "name": "ALREADY_A_MEMBER",
      "inputs": []
    },
    {
      "type": "error",
      "name": "ALREADY_PAID",
      "inputs": []
    },
    {
      "type": "error",
      "name": "AddressEmptyCode",
      "inputs": [
        {
          "name": "target",
          "type": "address",
          "internalType": "address"
        }
      ]
    },
    {
      "type": "error",
      "name": "EMPTY_INPUT_FIELD",
      "inputs": []
    },
    {
      "type": "error",
      "name": "ERC1967InvalidImplementation",
      "inputs": [
        {
          "name": "implementation",
          "type": "address",
          "internalType": "address"
        }
      ]
    },
    {
      "type": "error",
      "name": "ERC1967NonPayable",
      "inputs": []
    },
    {
      "type": "error",
      "name": "EVENT_NOT_CLOSED",
      "inputs": []
    },
    {
      "type": "error",
      "name": "FailedInnerCall",
      "inputs": []
    },
    {
      "type": "error",
      "name": "GROUP_ALREADY_EXISTS",
      "inputs": []
    },
    {
      "type": "error",
      "name": "INSUFFICIENT_BALANCE",
      "inputs": []
    },
    {
      "type": "error",
      "name": "INSUFFICIENT_TICKET_PURCHASED",
      "inputs": []
    },
    {
      "type": "error",
      "name": "INVALID_EVENT_ID",
      "inputs": []
    },
    {
      "type": "error",
      "name": "INVALID_ID",
      "inputs": []
    },
    {
      "type": "error",
      "name": "INVALID_NOT_AUTHORIZED",
      "inputs": []
    },
    {
      "type": "error",
      "name": "InvalidInitialization",
      "inputs": []
    },
    {
      "type": "error",
      "name": "NFT_ALREADY_MINTED",
      "inputs": []
    },
    {
      "type": "error",
      "name": "NOT_CREATOR",
      "inputs": []
    },
    {
      "type": "error",
      "name": "NOT_ENOUGH_AVAILABLE_SEAT",
      "inputs": []
    },
    {
      "type": "error",
      "name": "NOT_OWNER",
      "inputs": []
    },
    {
      "type": "error",
      "name": "NOT_PAID_EVENT",
      "inputs": []
    },
    {
      "type": "error",
      "name": "NO_ALLOWANCE",
      "inputs": []
    },
    {
      "type": "error",
      "name": "NotInitializing",
      "inputs": []
    },
    {
      "type": "error",
      "name": "OwnableInvalidOwner",
      "inputs": [
        {
          "name": "owner",
          "type": "address",
          "internalType": "address"
        }
      ]
    },
    {
      "type": "error",
      "name": "OwnableUnauthorizedAccount",
      "inputs": [
        {
          "name": "account",
          "type": "address",
          "internalType": "address"
        }
      ]
    },
    {
      "type": "error",
      "name": "REGISTRATION_CLOSE",
      "inputs": []
    },
    {
      "type": "error",
      "name": "REGISTRATION_NOT_CLOSED",
      "inputs": []
    },
    {
      "type": "error",
      "name": "REGISTRATION_NOT_OPEN",
      "inputs": []
    },
    {
      "type": "error",
      "name": "UUPSUnauthorizedCallContext",
      "inputs": []
    },
    {
      "type": "error",
      "name": "UUPSUnsupportedProxiableUUID",
      "inputs": [
        {
          "name": "slot",
          "type": "bytes32",
          "internalType": "bytes32"
        }
      ]
    }
  ],
  "bytecode": {
    "object": "0x60a0806040523461002a57306080526148e39081610030823960805181818161172501526118670152f35b600080fdfe6080604052600436101561001257600080fd5b60e060003560e01c90816303e96fe31461340a5781630a9bfef5146133cd5781631755b97a146132f257816317f69df61461329957816325f3724b14612697578163331ef976146123705781633405741d14611efd5781633809f6f514611e9a57816344cc2afe14611da25781634717dea914611d3057816347531df814611c465781634886285714611a465781634f1ef2861461181857816350312c9e1461178f57816352d1902d14611712578163654a3c6d1461149e5781636f77926b14611429578163715018a6146113bf57816385a646c91461132f5781638da5cb5b146112f95781638fd9baca1461106b578163909fdec914610f81578163a87f86f914610f60578163ad3cb1cc14610f1a578163b33f650e14610dd2578163bce888fb14610db1578163bdacb17a14610b78578163be7fb5d71461099d578163c0c53b8b1461082b578163c27a500d1461056c57508063c3c5a54714610527578063cd71ed351461034e578063ec976a0a146102d5578063eec932f7146101d15763f2fde38b146101a157600080fd5b346101cc5760203660031901126101cc576101ca6101bd613521565b6101c56147b0565b6146d6565b005b600080fd5b346101cc576020806003193601126101cc576101eb61354d565b906101f58261479d565b63ffffffff809216918260005260028252604060002090815416156102c3573360005260068252604060002083600052825260ff604060002054166102b15761025d90600c61024261477d565b9160405192610250846135fc565b338452858401520161439f565b336000526006815260406000209082600052526040600020600160ff1982541617905561028861477d565b90337ff11404c60069f7d8b6ecebb855f6ac5080f851b85152f4cb855640c49a30c2dd600080a4005b60405163cea6102760e01b8152600490fd5b6040516316a7994d60e21b8152600490fd5b346101cc5760203660031901126101cc576102ee61354d565b6102f78161479d565b63ffffffff80911660005260026020526040600020908154161561033c57610324600c610338920161423d565b6040519182916020835260208301906136df565b0390f35b60405163e955b73b60e01b8152600490fd5b346101cc5760203660031901126101cc5761033861036a61354d565b610372613cab565b5061037c8161479d565b63ffffffff809116600052600260205260ff60156040600020604051936103a285613632565b8082541685526040516103c3816103bc8160018701613b11565b038261364e565b60208601526040516103dc816103bc8160028701613b11565b60408601526040516103f5816103bc8160038701613b11565b606086015260405161040e816103bc8160048701613b11565b6080860152600582015460018060a01b03811660a0870152818160a01c1660c087015260c01c1660e08501526006810154610100850152600781015461012085015261045c60088201614293565b6101408501526104a083600e830154818116610477816138f0565b610160880152818160081c1661048c816138f0565b61018088015260101c166101a08601613d52565b6040516104b4816103bc81600f8601613b11565b6101c085015260108101546101e085015260118101546102008501526001600160601b03601282015416610220850152601381015461024085015260148101546102608501520154818116151561028084015260081c1615156102a08201526040519182916020835260208301906138fa565b346101cc5760203660031901126101cc576001600160a01b03610548613521565b166000526001602052602060ff60016040600020015460a01c166040519015158152f35b346101cc5760003660031901126101cc5763ffffffff908160005416916105928361465d565b9060009060015b8181168681116107825760005260026020908082526040600020908482541692836105d1575b505050506105cc906146ad565b610599565b926105cc9496926103bc6106226107729461077897604051956105f387613632565b8652604051906106118261060a8160018a01613b11565b038361364e565b860152604051928380928601613b11565b604083015260405161063b816103bc8160038601613b11565b6060830152604051610654816103bc8160048601613b11565b608083015286600582015460a060018060a01b03821681860152828260c0921c16818601521c168a8301526006810154610100830152600781015461012083015260086106a2818301614293565b6101408401526015600e8301549260ff938481166106bf816138f0565b6101608701528481851c166106d3816138f0565b6101808701526106ed85601092831c166101a08801613d52565b604051610701816103bc81600f8701613b11565b6101c08701528101546101e086015260118101546102008601526001600160601b036012820154166102208601526013810154610240860152601481015461026086015201549082821615156102808501521c1615156102a08201528583169061076b828a6146c2565b52876146c2565b506146ad565b92908780806105bf565b5050809116916107918361465d565b9260005b838116828110156107cc5784916107c4826107b2600194886146c2565b516107bd828b6146c2565b52886146c2565b500116610795565b6040805160208082528851818301819052600093600582901b8401810192808c01929185015b8287106107ff5785850386f35b90919293828061081b600193603f198a820301865288516138fa565b96019201960195929190926107f2565b346101cc5760603660031901126101cc57610844613521565b61084c613537565b6001600160a01b03919060443583811691908290036101cc577ff0c57e16840df040f15088dc2f81fe391c3923bec73e23a9662efc9c229c6a0093845460ff8160401c1615946001600160401b03821680159081610995575b600114908161098b575b159081610982575b506109705767ffffffffffffffff19821660011787556108e89186610951575b506108e06147e9565b6101c56147e9565b6108f06147e9565b6001600160601b0360a01b911681600c541617600c55600d541617600d5561091457005b68ff00000000000000001981541690557fc7f505b2f371ae2175ee4913f4499e1f2633a7b5936321eed1cdaeb6115181d2602060405160018152a1005b68ffffffffffffffffff191668010000000000000001178755876108d7565b60405163f92ee8a960e01b8152600490fd5b905015886108b7565b303b1591506108af565b8791506108a5565b346101cc576109ab36613897565b916109b58161479d565b60016109c236858561368a565b5110610b665763ffffffff809116928360005260209260028452604060002092835416156102c35760058301546001600160a01b03163314610b3e575b3360005260068452604060002085600052845260ff6040600020541615610b2c5760405192610a2d846135b3565b60008452600d8585019160608352604086016060815261060a6060880194600086523360005260018a52610a6b604060002060405193848092613b11565b52338752610a7a36878761368a565b9052610a8461477d565b83520190815491600160401b831015610b165760018301808255831015610b00577fd643c4cb96915f246339ac52f899dfc112f2ccf8254cca6b9cb9d0b8f0276e1095610af493610ae092600052886000209060021b01613ef7565b519160405193604085526040850191614500565b938201528033930390a3005b634e487b7160e01b600052603260045260246000fd5b634e487b7160e01b600052604160045260246000fd5b60405163082e385d60e01b8152600490fd5b336000526006845260406000208560005284526040600020600160ff198254161790556109ff565b604051631ee8943b60e21b8152600490fd5b346101cc576020806003193601126101cc57610b9261354d565b90610b9c8261479d565b63ffffffff91828116928360005260028352610bbc6040600020926145d3565b3360005260038352604060002090600e83015460ff8160101c166002811015610d9b57610d895760ff16610bef816138f0565b610d775781546001600160a01b039033604082901c831603610d6557828791871c1603610d53578160038401541660018110610d41576001600160601b03610c3d81601288015416836141d3565b1694600581019184835460a01c160391848311610d2b57805463ffffffff60a01b191660a09390931b63ffffffff60a01b1692909217909155601301805490858203918211610d2b5755600c5460405163a9059cbb60e01b8152336004820152602481018690529391869185916044918391600091165af1928315610d1f577f4f6fb365c29f3632d91fcd919dbfdf50155c34cd0ea613bd43e7e76529fec43593610cf2575b505416926040519283523392a4005b610d1190863d8811610d18575b610d09818361364e565b8101906141f1565b5086610ce3565b503d610cff565b6040513d6000823e3d90fd5b634e487b7160e01b600052601160045260246000fd5b60405163a2ed46e160e01b8152600490fd5b60405163b790ffed60e01b8152600490fd5b6040516338ebc58960e11b8152600490fd5b604051630738c50360e41b8152600490fd5b6040516380e4469160e01b8152600490fd5b634e487b7160e01b600052602160045260246000fd5b346101cc5760203660031901126101cc576101ca610dcd61354d565b6145d3565b346101cc576020806003193601126101cc57610dec61354d565b610df58161479d565b63ffffffff8116600052600282526040600020903360005260018352610e1f604060002091614521565b600160ff600e84015460081c16610e35816138f0565b03610f085760058201546001600160a01b03903390821603610ef657601583019081549060ff8216610ee45760038694610ebe94600160136000990195898754975560ff191617905501610e8a838254614209565b9055600c5460405163a9059cbb60e01b81523360048201526024810193909352919485939190921691839182906044820190565b03925af18015610d1f57610ece57005b816101ca92903d10610d1857610d09818361364e565b60405163d2e53ca760e01b8152600490fd5b604051632cff942760e01b8152600490fd5b604051631988a70d60e01b8152600490fd5b346101cc5760003660031901126101cc57610338604051610f3a816135fc565b60058152640352e302e360dc1b6020820152604051918291602083526020830190613573565b346101cc5760203660031901126101cc576101ca610f7c61354d565b614521565b346101cc5760003660031901126101cc57600954610f9e81613a68565b90610fac604051928361364e565b808252602090818301908160096000527f6e1540171b6c0c960b71a7020d9f60077f6af931a8bbf590da0223dacf75c7af6000915b8383106110485750505050604051918083019381845251809452604083019360408160051b85010192916000955b82871061101c5785850386f35b909192938280611038600193603f198a82030186528851613732565b960192019601959291909261100f565b60068660019261105a859a999a614293565b815201920192019190959495610fe1565b346101cc5761107936613897565b919061108e61108936858461368a565b61474a565b63ffffffff809216600052602090600282526040600020928084541680156102c35760058501546001600160a01b03939084163303610b2c57336000526007855260406000209163ffffffff1983541617825560028201336001600160601b0360a01b825416179055600196611109888085019801886140f6565b60038301946001600160401b038211610b16576111308261112a8854613ad7565b88613d75565b600082601f8111600114611291578061115f92600091611286575b508160011b916000199060031b1c19161790565b86555b600d541691823b156101cc576111a09260009283604051809681958294636902622f60e11b8452336004850152604060248501526044840191614500565b03925af18015610d1f57611277575b50541693604051916000918154916111c683613ad7565b9282811690811561125c5750600114611220575b505050817f8c6653ecb56f1604fdb19b4dd01ceb99a9e9fb9699223449f110cbb5accd38d89261121b92039020936040519182918583523395830190613b11565b0390a4005b909192506000528360002090846000925b84841061124a575050509082019050818061121b6111da565b80548685015292019185908201611231565b60ff191686525050508015150282019050818061121b6111da565b611280906135e9565b866111af565b90508501358c61114b565b50601f19831690876000528389600020928c8b6000915b8383106112e057505050106112c6575b50508882811b018655611162565b840135600019600385901b60f8161c1916905589806112b8565b858a013587559095019493840193879350018b8e6112a8565b346101cc5760003660031901126101cc5760008051602061488e833981519152546040516001600160a01b039091168152602090f35b346101cc5760403660031901126101cc5761134861354d565b63ffffffff6024359160006020604051611361816135fc565b828152015261136f8161479d565b16600052600460205260046040600020019081548110156102c35761139961139f91604093614383565b50614216565b815181516001600160a01b0316815260209182015191810191909152f35bf35b346101cc5760003660031901126101cc576113d86147b0565b60008051602061488e83398151915280546001600160a01b031981169091556000906001600160a01b03167f8be0079c531659141344cd1fd0a4f28419497f9722a3daafe3b4186f6b6457e08280a3005b346101cc5760203660031901126101cc57611442613521565b6000608060405161145281613617565b60608152826020820152826040820152606080820152015260018060a01b0316600052600160205261033861148a604060002061431a565b604051918291602083526020830190613844565b346101cc5760203660031901126101cc5763ffffffff806114bd61354d565b1660005260026020526040600020818154169081156102c35760058101805490926001600160a01b0392909183163303610b2c57600881019463ffffffff199283875416178655600982019561151660018401886140f6565b600a83019361152860028501866140f6565b611566600b85019661153d60048701896140f6565b600c860198541661154c61477d565b60405191611559836135fc565b825260208201528861439f565b60095496600160401b881015610b16576001880180600955881015610b0057886116089761161696859460067ffc11613b01ba3b178277748ad3ec5529ed312225618063459881a4d1dad390689c6009600052029488867f6e1540171b6c0c960b71a7020d9f60077f6af931a8bbf590da0223dacf75c7af019488860361161b575b505050505050505050541694604051938493604085526040850190613b11565b908382036020850152613b11565b0390a2005b6116807f6e1540171b6c0c960b71a7020d9f60077f6af931a8bbf590da0223dacf75c7b497600d976116fc966116d4956117049d5416908254161790557f6e1540171b6c0c960b71a7020d9f60077f6af931a8bbf590da0223dacf75c7b08a016140f6565b6116ac8d7f6e1540171b6c0c960b71a7020d9f60077f6af931a8bbf590da0223dacf75c7b18a016140f6565b7f6e1540171b6c0c960b71a7020d9f60077f6af931a8bbf590da0223dacf75c7b288016140f6565b7f6e1540171b6c0c960b71a7020d9f60077f6af931a8bbf590da0223dacf75c7b386016143ec565b019101614466565b8088888180808088816115e8565b346101cc5760003660031901126101cc577f00000000000000000000000000000000000000000000000000000000000000006001600160a01b0316300361177d5760206040517f360894a13ba1a3210667c828492db98dca3e2076cc3735a920a3ca505d382bbc8152f35b60405163703e46dd60e11b8152600490fd5b346101cc5760003660031901126101cc57600c546040516370a0823160e01b815230600482015290602090829060249082906001600160a01b03165afa8015610d1f576000906117e5575b602090604051908152f35b506020813d602011611810575b816117ff6020938361364e565b810103126101cc57602090516117da565b3d91506117f2565b60403660031901126101cc5761182c613521565b6024356001600160401b0381116101cc57366023820112156101cc5761185c90369060248160040135910161368a565b906001600160a01b037f00000000000000000000000000000000000000000000000000000000000000008116308114908115611a18575b5061177d576118a06147b0565b6040516352d1902d60e01b8152908216916020918281600481875afa600091816119e9575b506118e357604051634c9c8ce360e01b815260048101859052602490fd5b9284937f360894a13ba1a3210667c828492db98dca3e2076cc3735a920a3ca505d382bbc908181036119d15750823b156119b85780546001600160a01b03191682179055604051907fbc7cd75a20ee27fd9adebab32041f755214dbc6bffa90cc0225b39da2e5c2d3b600080a283511561199e575060008084846101ca96519101845af4903d15611995573d6119788161366f565b90611986604051928361364e565b8152600081943d92013e61482a565b6060925061482a565b92505050346119a957005b63b398979f60e01b8152600490fd5b604051634c9c8ce360e01b815260048101839052602490fd5b60249060405190632a87526960e21b82526004820152fd5b9091508381813d8311611a11575b611a01818361364e565b810103126101cc575190866118c5565b503d6119f7565b9050817f360894a13ba1a3210667c828492db98dca3e2076cc3735a920a3ca505d382bbc5416141584611893565b346101cc576020806003193601126101cc5763ffffffff80611a6661354d565b1680600052600283526040600020908282541615610d5357611a8661477d565b600783015411611c3457601582019260ff845460081c16611c225760005b600a54811015611c13578282611ab9836140bc565b5054881c161480611bf4575b611ad2575b600101611aa4565b600d546040516365507c9560e11b81526001600160a01b0391821692918882600481875afa918215610d1f57600092611bc5575b5080611b11846140bc565b505460401c16843b156101cc57600090604051958691636902622f60e11b8352600483015260406024830152818381611b518d600f604484019101613b11565b03925af1908115610d1f576001948792611bb6575b50611b70846140bc565b505460401c167f66555f994e1af4e5e9289ab0b1a3dd45aa678a9d41cba0aa1f064e78f5d039828a876003611ba4886140bc565b50015416604051908152a49050611aca565b611bbf906135e9565b8a611b66565b9091508881813d8311611bed575b611bdd818361364e565b810103126101cc57519089611b06565b503d611bd3565b50611bfe816140bc565b505460401c6001600160a01b03161515611ac5565b845461ff001916610100178555005b60405163c1d7938360e01b8152600490fd5b604051630f036da960e21b8152600490fd5b346101cc5760003660031901126101cc57600b54611c6381613a68565b90611c71604051928361364e565b8082526020908183019081600b6000527f0175b7a638427703f0dbe7bb9bbf987a2551717b34e79f33b5b1008d1fa01db96000915b838310611d0d5750505050604051918083019381845251809452604083019360408160051b85010192916000955b828710611ce15785850386f35b909192938280611cfd600193603f198a82030186528851613844565b9601920196019592919092611cd4565b600486600192611d1f859a999a61431a565b815201920192019190959495611ca6565b346101cc5760203660031901126101cc57611d49613521565b600060a0604051611d59816135ce565b828152826020820152826040820152826060820152826080820152015260018060a01b0316600052600360205260c0611d956040600020613a7f565b6113bd60405180926134d8565b346101cc576020806003193601126101cc57611dbc613521565b606080604051611dcb816135b3565b60008152818582015260006040820152015260018060a01b03809116600052600782526103386040600020600360405193611e05856135b3565b611e8063ffffffff9687855416875260405190611e298261060a8160018a01613b11565b808801918252611e58846002880154169660408a01978852611e516040518098819301613b11565b038661364e565b60608801948552604051988998828a52511690880152516080604088015260a0870190613573565b925116606085015251838203601f19016080850152613573565b346101cc5760203660031901126101cc57611eb361354d565b611ebb613c79565b5063ffffffff80911660005260026020526040600020908154161561033c57611ee960086103389201614293565b604051918291602083526020830190613732565b346101cc5760403660031901126101cc57611f1661354d565b611f1e613560565b611f278261479d565b63ffffffff918281169283600052602090600282526040600020600e810160ff815416611f53816138f0565b61235e5760058201611f8e611f6e8886845460a01c16613c61565b825463ffffffff60a01b191660a09190911b63ffffffff60a01b16178255565b5483808260c01c169160a01c161161234c5760005467ffffffff00000000611fb98583881c16613c4c565b861b169067ffffffff00000000191617600055336000526003845260406000209160ff6000925460101c166002811015610d9b57156121b7575b506000548254600160401b600160e01b031991861c85169190911667ffffffff00000001600160e01b0319909116173360401b600160401b600160e01b031617825563ffffffff199061207261204761477d565b9660028501978855849067ffffffff0000000082549160201b169067ffffffff000000001916179055565b61208160018401918254614209565b81556003830192835483866120988b828516613c61565b169116178455600a54600160401b811015610b16578060016120bd9201600a556140bc565b6121a1577fc541e3defd92fd2d8306e9c91b36c15f096115c41c7a9a36ac548a487d8891aa978693838303612123575b50505050505050336000526005825260406000208560005282526040600020600160ff19825416179055604051931683523392a3005b83548354871690861617808455845467ffffffff0000000019909116908a1c861660201b67ffffffff000000001617835560039361217e90548454600160401b600160e01b031916600160401b600160e01b03909116178455565b5460018301555460028201550192541690825416179055858082818080806120ed565b634e487b7160e01b600052600060045260246000fd5b90506001600160601b036121d3816012840154168589166141d3565b169060018060a01b03600c5416906040516370a0823160e01b81523360048201528681602481865afa8015610d1f57849160009161231b575b501061230957604051636eb1769f60e11b81523360048201523060248201528681604481865afa8015610d1f5784916000916122d8575b50106122c657856000926064604051809581936323b872dd60e01b83523360048401523060248401528860448401525af1918215610d1f576013926122a9575b5001612290828254614209565b9055600182016122a1828254614209565b905587611ff3565b6122bf90873d8911610d1857610d09818361364e565b5089612283565b60405163ea75ebd560e01b8152600490fd5b809250888092503d8311612302575b6122f1818361364e565b810103126101cc578390518b612243565b503d6122e7565b604051632858f9ab60e11b8152600490fd5b809250888092503d8311612345575b612334818361364e565b810103126101cc578390518b61220c565b503d61232a565b6040516374a227cd60e01b8152600490fd5b6040516305fb6d9960e41b8152600490fd5b346101cc5760603660031901126101cc576001600160401b036004358181116101cc576123a19036906004016136c1565b906123aa613537565b6044358281116101cc576123c29036906004016136c1565b926123cc8161474a565b6123d58461474a565b60018060a01b0380921691826000526001602095818752604060002093805190878211610b165761240a8261112a8854613ad7565b8890601f83116001146126355761243a92916000918361262a575b50508160011b916000199060031b1c19161790565b84555b818401956affffffffffffffffffffff60a81b95600160a01b90878954161717875560028501978251918211610b16576124818261247b8b54613ad7565b8b613d75565b80601f83116001146125c6575081906124b0936000926125bb5750508160011b916000199060031b1c19161790565b86555b600b5490600160401b821015610b1657810180600b55811015610b0057600b60005260021b94857f0175b7a638427703f0dbe7bb9bbf987a2551717b34e79f33b5b1008d1fa01db9019183830361250657005b7f0175b7a638427703f0dbe7bb9bbf987a2551717b34e79f33b5b1008d1fa01dbc95600395612538866125b4966140f6565b7f0175b7a638427703f0dbe7bb9bbf987a2551717b34e79f33b5b1008d1fa01dba89019282541690835492826001600160601b0360a01b851617855560ff8060a01b915460a01c16151560a01b169216171790557f0175b7a638427703f0dbe7bb9bbf987a2551717b34e79f33b5b1008d1fa01dbb86016140f6565b0154910155005b015190508980612425565b908493601f1984168b60005283600020936000905b82821061261157505084116125f8575b505050811b0186556124b3565b015160001960f88460031b161c191690558880806125eb565b84840151865588979095019493840193908101906125db565b015190508a80612425565b849291601f19831691886000528b6000209260005b8d8282106126815750508411612668575b505050811b01845561243d565b015160001960f88460031b161c1916905589808061265b565b838501518655899790950194938401930161264a565b346101cc576101603660031901126101cc576004356001600160401b0381116101cc576126c89036906004016136c1565b6024356001600160401b0381116101cc576126e79036906004016136c1565b6044356001600160401b0381116101cc576127069036906004016136c1565b916064356001600160401b0381116101cc576127269036906004016136c1565b6084359363ffffffff851685036101cc5761012435936001600160601b03851685036101cc5761014435151561014435036101cc576127648461474a565b61276d8161474a565b6127768261474a565b61277f8361474a565b60c43560a4351161323c576101043560e435116131e6576000549363ffffffff6127aa818716613c4c565b16809563ffffffff1916176000556127c0613cab565b9560a4356127cc61477d565b10156131d95760026101608801525b61014435156131c35760006101a08801526001600160601b03166102208701525b8486526020860152604085015260808401523360a0840152606083015263ffffffff831660e083015260a43561010083015260c43561012083015260e4356101e083015261010435610200830152600261018083015261285a61477d565b610260830152600052600260205260406000209063ffffffff81511663ffffffff1983541617825560208101519283516001600160401b038111610b16576128b2816128a96001870154613ad7565b60018701613d75565b6020601f82116001146131545781906128e493949596600092612ffc5750508160011b916000199060031b1c19161790565b60018401555b60408201519283516001600160401b038111610b165761291a816129116002850154613ad7565b60028501613d75565b6020601f82116001146130e557819061294c93949596600092612ffc5750508160011b916000199060031b1c19161790565b60028201555b60608301519283516001600160401b038111610b1657612982816129796003860154613ad7565b60038601613d75565b6020601f82116001146130765781906129b493949596600092612ffc5750508160011b916000199060031b1c19161790565b60038301555b60808101519283516001600160401b038111610b16576129ea816129e16004870154613ad7565b60048701613d75565b6020601f8211600114613007578190612a1c93949596600092612ffc5750508160011b916000199060031b1c19161790565b60048401555b60a08281015160058501805460c08087015160e088015163ffffffff60c01b921b91909116941b63ffffffff60a01b166001600160a01b039093166001600160e01b0319909116179190911791909117905561010082015160068401556101208201516007840155610140820151805160088501805463ffffffff90921663ffffffff1990921691909117905560208101518051906001600160401b038211610b1657612adf82612ad66009890154613ad7565b60098901613d75565b602090601f8311600114612f8a57612b0f929160009183612dcc5750508160011b916000199060031b1c19161790565b60098501555b60408101518051906001600160401b038211610b1657612b4582612b3c600a890154613ad7565b600a8901613d75565b602090601f8311600114612f1857612b75929160009183612dcc5750508160011b916000199060031b1c19161790565b600a8501555b60608101518051906001600160401b038211610b1657612bab82612ba2600b890154613ad7565b600b8901613d75565b602090601f8311600114612ea657612bdb929160009183612dcc5750508160011b916000199060031b1c19161790565b600b8501555b60808101516020815191612bf883600c8901613dbc565b01600c860160005260206000206000915b838310612e66575050505060a0600d8501910151906020825192612c2d8484613e72565b019060005260206000206000915b838310612e485750505050610160820151612c55816138f0565b612c5e816138f0565b600e84015461018084015190612c73826138f0565b612c7c826138f0565b6101a0850151906002821015610d9b5760ff62ff000061ff009360101b1694169062ffffff1916179160081b161717600e8401556101c08201519283516001600160401b038111610b1657612ce181612cd8600f850154613ad7565b600f8501613d75565b6020601f8211600114612dd7579080612d15926015959697600092612dcc5750508160011b916000199060031b1c19161790565b600f8201555b6101e084015160108201556102008401516011820155601281016001600160601b03610220860151166001600160601b031982541617905561024084015160138201556102608401516014820155016102808301511515815460ff61ff006102a0870151151560081b1692169061ffff19161717905563ffffffff60c0818060005416931693015116907fac3c2fbb08f906d92c1b4be6fa025f63708bafa70869110e931d718b9532c411600080a4005b015190508780612425565b601f19821695600f840160005260206000209660005b818110612e30575091601595969791846001959410612e17575b505050811b01600f820155612d1b565b015160001960f88460031b161c19169055868080612e07565b83830151895560019098019760209384019301612ded565b6004602082612e5a6001945186613ef7565b01920192019190612c3b565b6002602082612e9a6001945186906020600191828060a01b038151166001600160601b0360a01b8554161784550151910155565b01920192019190612c09565b9190600b87016000526020600020906000935b601f1984168510612efd576001945083601f19811610612ee4575b505050811b01600b850155612be1565b015160001960f88460031b161c19169055868080612ed4565b81810151835560209485019460019093019290910190612eb9565b9190600a87016000526020600020906000935b601f1984168510612f6f576001945083601f19811610612f56575b505050811b01600a850155612b7b565b015160001960f88460031b161c19169055868080612f46565b81810151835560209485019460019093019290910190612f2b565b9190600987016000526020600020906000935b601f1984168510612fe1576001945083601f19811610612fc8575b505050811b016009850155612b15565b015160001960f88460031b161c19169055868080612fb8565b81810151835560209485019460019093019290910190612f9d565b015190508680612425565b6004850160005260206000209060005b601f198416811061305e575060019394959683601f19811610613045575b505050811b016004840155612a22565b015160001960f88460031b161c19169055858080613035565b9091602060018192858b015181550193019101613017565b6003840160005260206000209060005b601f19841681106130cd575060019394959683601f198116106130b4575b505050811b0160038301556129ba565b015160001960f88460031b161c191690558580806130a4565b9091602060018192858b015181550193019101613086565b6002830160005260206000209060005b601f198416811061313c575060019394959683601f19811610613123575b505050811b016002820155612952565b015160001960f88460031b161c19169055858080613113565b9091602060018192858b0151815501930191016130f5565b6001850160005260206000209060005b601f19841681106131ab575060019394959683601f19811610613192575b505050811b0160018401556128ea565b015160001960f88460031b161c19169055858080613182565b9091602060018192858b015181550193019101613164565b50600061022087015260016101a08701526127fc565b60006101608801526127db565b60405162461bcd60e51b815260206004820152602860248201527f4576656e742073746172742074696d65206d757374206265206265666f726520604482015267656e642074696d6560c01b6064820152608490fd5b60405162461bcd60e51b815260206004820152602f60248201527f526567697374726174696f6e2073746172742074696d65206d7573742062652060448201526e6265666f726520656e642074696d6560881b6064820152608490fd5b346101cc5760403660031901126101cc576132b2613521565b6132ba613560565b9060018060a01b0316600052600560205263ffffffff60406000209116600052602052602060ff604060002054166040519015158152f35b346101cc576020806003193601126101cc5763ffffffff8061331261354d565b16600052600282526040600020908154161561033c57600d6133349101613ba7565b6040519082820192808352815180945260408301938160408260051b8601019301916000955b8287106133675785850386f35b909192938280600192603f198982030185528751906133b36133a16080878060a01b03855116845285850151908087860152840190613573565b60408401518382036040850152613573565b91606080910151910152960192019601959291909261335a565b346101cc5760203660031901126101cc576001600160a01b036133ee613521565b1660005260016020526020600360406000200154604051908152f35b346101cc5760003660031901126101cc57600a5461342781613a68565b613434604051918261364e565b818152602090602081019283600a6000527fc65a7bb8d6351c1cf70c95a316cc6a92839c986682d98bc35f958f4883f9d2a86000915b8383106134bb57604080516020808252875190820181905289928201908960005b8281106134985784840385f35b9091928260c0826134ac6001948a516134d8565b0196019101949291909461348b565b6004866001926134ca85613a7f565b81520192019201919061346a565b60a0908163ffffffff91828151168552826020820151166020860152600180831b0360408201511660408601526060810151606086015260808101516080860152015116910152565b600435906001600160a01b03821682036101cc57565b602435906001600160a01b03821682036101cc57565b6004359063ffffffff821682036101cc57565b6024359063ffffffff821682036101cc57565b919082519283825260005b84811061359f575050826000602080949584010152601f8019910116010190565b60208183018101518483018201520161357e565b608081019081106001600160401b03821117610b1657604052565b60c081019081106001600160401b03821117610b1657604052565b6001600160401b038111610b1657604052565b604081019081106001600160401b03821117610b1657604052565b60a081019081106001600160401b03821117610b1657604052565b6102c081019081106001600160401b03821117610b1657604052565b90601f801991011681019081106001600160401b03821117610b1657604052565b6001600160401b038111610b1657601f01601f191660200190565b9291926136968261366f565b916136a4604051938461364e565b8294818452818301116101cc578281602093846000960137010152565b9080601f830112156101cc578160206136dc9335910161368a565b90565b90815180825260208080930193019160005b8281106136ff575050505090565b909192938260408261372660019489516020809160018060a01b0381511684520151910152565b019501939291016136f1565b63ffffffff81511682526020906137568282015160c08486015260c0850190613573565b9161376f60409360408401518682036040880152613573565b9161378860609360608301518782036060890152613573565b9260a06137a3608095608085015189820360808b01526136df565b9201519560a08184039101528551938483528383019184808760051b8601019801966000945b8786106137dc5750505050505050505090565b9091929394959697988780600192601f198582030189528c5190848060a01b038251168152878061382b61381b868601518d888701528d860190613573565b8a8601518582038c870152613573565b9301519101529b019601960194979695939291906137c9565b9060808061388e61385e855160a0865260a0860190613573565b60018060a01b03602087015116602086015260408601511515604086015260608601518582036060870152613573565b93015191015290565b60406003198201126101cc5760043563ffffffff811681036101cc57916024356001600160401b03928382116101cc57806023830112156101cc5781600401359384116101cc57602484830101116101cc576024019190565b60031115610d9b57565b906139b76102c061396361395161393f61392d63ffffffff948589511688526020890151908060208a0152880190613573565b60408801518782036040890152613573565b60608701518682036060880152613573565b60808601518582036080870152613573565b9060018060a01b0360a08601511660a08501528060c08601511660c085015260e08501511660e084015261010080850151908401526101208085015190840152610140808501519084830390850152613732565b61016080840151906139c8826138f0565b83015261018080840151906139dc826138f0565b8301526101a090818401516002811015610d9b57613a0b928401526101c0808501519084830390850152613573565b916101e0808201519083015261020080820151908301526102206001600160601b0381830151169083015261024080820151908301526102608082015190830152610280808201511515908301526102a080910151151591015290565b6001600160401b038111610b165760051b60200190565b90604051613a8c816135ce565b60a08193600381549163ffffffff928381168652838160201c166020870152600180861b039060401c1660408601526001810154606086015260028101546080860152015416910152565b90600182811c92168015613b07575b6020831014613af157565b634e487b7160e01b600052602260045260246000fd5b91607f1691613ae6565b805460009392613b2082613ad7565b91828252602093600191600181169081600014613b885750600114613b47575b5050505050565b90939495506000929192528360002092846000945b838610613b7457505050500101903880808080613b40565b805485870183015294019385908201613b5c565b60ff19168685015250505090151560051b010191503880808080613b40565b908154613bb381613a68565b92604093613bc4604051918261364e565b82815280946020809201926000526020600020906000935b858510613beb57505050505050565b6004846001928451613bfc816135b3565b848060a01b0387541681528551613c19816103bc81898c01613b11565b838201528551613c30816103bc8160028c01613b11565b8682015260038701546060820152815201930194019391613bdc565b90600163ffffffff80931601918211610d2b57565b91909163ffffffff80809416911601918211610d2b57565b60405190613c86826135ce565b816000815260a060609182602082015282604082015282808201528260808201520152565b60405190613cb882613632565b816102a0600091828152606080602083015280604083015280808301528060808301528360a08301528360c08301528360e08301528361010083015283610120830152613d03613c79565b6101408301528361016083015283610180830152836101a08301526101c0820152826101e082015282610200820152826102208201528261024082015282610260820152826102808201520152565b6002821015610d9b5752565b818110613d69575050565b60008155600101613d5e565b9190601f8111613d8457505050565b613db0926000526020600020906020601f840160051c83019310613db2575b601f0160051c0190613d5e565b565b9091508190613da3565b600160401b8211610b16578054828255808310613dd857505050565b6001906001600160ff1b038082168203610d2b5784168403610d2b5760009260005260206000209060011b81019360011b015b838110613e185750505050565b808360029255838382015501613e0b565b613e338154613ad7565b9081613e3d575050565b81601f60009311600114613e4f575055565b908083918252613e6e601f60208420940160051c840160018501613d5e565b5555565b600160401b8211610b16578054828255808310613e8e57505050565b6002906001600160fe1b038082168203610d2b5784168403610d2b5760009260005260206000209060021b81019360021b015b838110613ece5750505050565b808360049255613ee060018201613e29565b613eeb838201613e29565b83600382015501613ec1565b9060018060a01b038151166001600160601b0360a01b83541617825560018083016020808401519182516001600160401b0393848211610b1657613f4582613f3f8554613ad7565b85613d75565b8390601f831160011461405a57613f74929160009183613fe05750508160011b916000199060031b1c19161790565b90555b60028501926040850151908151938411610b1657613f9f84613f998754613ad7565b87613d75565b82601f8511600114613feb575050826003959360609593613fd693600092613fe05750508160011b916000199060031b1c19161790565b90555b0151910155565b015190503880612425565b91601f949391941984168660005283600020936000905b828210614043575050916003979593918560609896941061402b575b505050811b019055613fd9565b015160001983891b60f8161c1916905538808061401e565b808886978294978701518155019601940190614002565b869291601f1983169185600052866000209260005b888282106140a6575050841161408d575b505050811b019055613f77565b015160001960f88460031b161c19169055388080614080565b8385015186558b9790950194938401930161406f565b600a54811015610b0057600a60005260021b7fc65a7bb8d6351c1cf70c95a316cc6a92839c986682d98bc35f958f4883f9d2a80190600090565b908082146141cf576141088154613ad7565b906001600160401b038211610b165761412582613f3f8554613ad7565b600090601f8311600114614164576141559291600091836141595750508160011b916000199060031b1c19161790565b9055565b015490503880612425565b815260208082208483528183209291601f1985169083905b8282106141b657505090846001959493921061419d575b505050811b019055565b015460001960f88460031b161c19169055388080614193565b849581929585015481556001809101960194019061417c565b5050565b9190916001600160601b0380809416911602918216918203610d2b57565b908160209103126101cc575180151581036101cc5790565b91908201809211610d2b57565b90604051614223816135fc565b82546001600160a01b031681526001909201546020830152565b90815461424981613a68565b92614257604051948561364e565b818452600090815260208082208186015b848410614276575050505050565b60028360019261428585614216565b815201920193019290614268565b906040516142a0816135ce565b60a06143156005839563ffffffff81541685526040516142c7816103bc8160018601613b11565b60208601526040516142e0816103bc8160028601613b11565b60408601526040516142f9816103bc8160038601613b11565b606086015261430a6004820161423d565b608086015201613ba7565b910152565b9060405161432781613617565b60806003829460405161433e816103bc8185613b11565b845260018101546001600160a01b038116602086015260a01c60ff16151560408086019190915251614377816103bc8160028601613b11565b60608501520154910152565b8054821015610b005760005260206000209060011b0190600090565b8054600160401b811015610b16576143bc91600182018155614383565b9190916121a157805182546001600160a01b0319166001600160a01b039190911617825560200151600190910155565b8181146141cf578154916144008383613dbc565b6000526020600020906000526020600020906000905b8382106144235750505050565b80600191840361443e575b6002809101930191019091614416565b818060a01b038154166001600160601b0360a01b85541617845581808201549085015561442e565b8181146141cf5781549161447a8383613e72565b6000526020600020906000526020600020906000905b83821061449d5750505050565b8060019184036144b8575b6004809101930191019091614490565b818060a01b038154166001600160601b0360a01b8554161784556144e1828083019086016140f6565b6144f160028083019086016140f6565b600380820154908501556144a8565b908060209392818452848401376000828201840152601f01601f1916010190565b63ffffffff906145308161479d565b16806000526002602052604060002061454761477d565b60108201541115806145be575b1561456857600e01805461ff001916905550565b61457061477d565b60118201541061457e575050565b600e01805461ff00191661010017905561459661477d565b907f835839f42ff642197e82f2887491db41a51c32dc7004091799724e9e3d6f2489600080a3565b506145c761477d565b60118201541015614554565b63ffffffff906145e28161479d565b16600052600260205260406000206145f861477d565b6007820154106146055750565b600e018054600160ff8216614619816138f0565b03614622575050565b60019060ff1916179055600161463661477d565b7f9c8ea6489f3baa31d321639e3a41ad67158fa673511a98870906b5a9eced0dd4600080a3565b9061466782613a68565b614674604051918261364e565b8281528092614685601f1991613a68565b019060005b82811061469657505050565b6020906146a1613cab565b8282850101520161468a565b63ffffffff809116908114610d2b5760010190565b8051821015610b005760209160051b010190565b6001600160a01b039081169081156147315760008051602061488e83398151915280546001600160a01b031981168417909155167f8be0079c531659141344cd1fd0a4f28419497f9722a3daafe3b4186f6b6457e0600080a3565b604051631e4fbdf760e01b815260006004820152602490fd5b6020815191012060405160208101908082106001600160401b03831117610b1657600091604052526000802014610b6657565b6103e880420290428204811442151715610d2b578101809111610d2b5790565b63ffffffff80600054169116116102c357565b60008051602061488e833981519152546001600160a01b031633036147d157565b60405163118cdaa760e01b8152336004820152602490fd5b60ff7ff0c57e16840df040f15088dc2f81fe391c3923bec73e23a9662efc9c229c6a005460401c161561481857565b604051631afcd79f60e31b8152600490fd5b90614851575080511561483f57805190602001fd5b604051630a12f52160e11b8152600490fd5b81511580614884575b614862575090565b604051639996b31560e01b81526001600160a01b039091166004820152602490fd5b50803b1561485a56fe9016d09d72d40fdae2fd8ceac6b6234c7706214fd39c1cd1e609a0528c199300a2646970667358221220222c52814d0984b905e4ee341179c943b4e48d43e577045087f09685c3a374f264736f6c63430008180033",
    "linkReferences": {}
  },
  "methodIdentifiers": {
    "UPGRADE_INTERFACE_VERSION()": "ad3cb1cc",
    "checkContractBalance()": "50312c9e",
    "checkUserBalance(address)": "0a9bfef5",
    "createAccount(string,address,string)": "331ef976",
    "createEvent(string,string,string,string,uint32,uint256,uint256,uint256,uint256,uint96,bool)": "25f3724b",
    "createGroup(uint32)": "654a3c6d",
    "getAllEventGroups()": "909fdec9",
    "getAllEvents()": "c27a500d",
    "getAllGroupMessages(uint32)": "1755b97a",
    "getAllTickets()": "03e96fe3",
    "getAllUser()": "47531df8",
    "getEventById(uint32)": "cd71ed35",
    "getEventGroup(uint32)": "3809f6f5",
    "getGroupMember(uint32,uint256)": "85a646c9",
    "getGroupMembers(uint32)": "ec976a0a",
    "getNfts(address)": "44cc2afe",
    "getTicket(address)": "4717dea9",
    "getUser(address)": "6f77926b",
    "groupChat(uint32,string)": "be7fb5d7",
    "hasPurchasedTicket(address,uint32)": "17f69df6",
    "initialize(address,address,address)": "c0c53b8b",
    "isRegistered(address)": "c3c5a547",
    "joinGroup(uint32)": "eec932f7",
    "mintNFTsForAttendees(uint32)": "48862857",
    "mintNft(uint32,string)": "8fd9baca",
    "owner()": "8da5cb5b",
    "proxiableUUID()": "52d1902d",
    "purchaseTicket(uint32,uint32)": "3405741d",
    "refundFee(uint32)": "bdacb17a",
    "renounceOwnership()": "715018a6",
    "transferOwnership(address)": "f2fde38b",
    "updateEventStatus(uint32)": "a87f86f9",
    "updateRegStatus(uint32)": "bce888fb",
    "upgradeToAndCall(address,bytes)": "4f1ef286",
    "withdrawEventFee(uint32)": "b33f650e"
  },
  "id": 53
}