{
  "abi": [
    {
      "type": "function",
      "name": "UPGRADE_INTERFACE_VERSION",
      "inputs": [],
      "outputs": [
        {
          "name": "",
          "type": "string",
          "internalType": "string"
        }
      ],
      "stateMutability": "view"
    },
    {
      "type": "function",
      "name": "checkContractBalance",
      "inputs": [],
      "outputs": [
        {
          "name": "bal_",
          "type": "uint256",
          "internalType": "uint256"
        }
      ],
      "stateMutability": "view"
    },
    {
      "type": "function",
      "name": "checkUserBalance",
      "inputs": [
        {
          "name": "_addr",
          "type": "address",
          "internalType": "address"
        }
      ],
      "outputs": [
        {
          "name": "bal_",
          "type": "uint256",
          "internalType": "uint256"
        }
      ],
      "stateMutability": "view"
    },
    {
      "type": "function",
      "name": "createAccount",
      "inputs": [
        {
          "name": "_email",
          "type": "string",
          "internalType": "string"
        },
        {
          "name": "_addr",
          "type": "address",
          "internalType": "address"
        },
        {
          "name": "_avatar",
          "type": "string",
          "internalType": "string"
        }
      ],
      "outputs": [],
      "stateMutability": "nonpayable"
    },
    {
      "type": "function",
      "name": "createEvent",
      "inputs": [
        {
          "name": "_title",
          "type": "string",
          "internalType": "string"
        },
        {
          "name": "_imageUrl",
          "type": "string",
          "internalType": "string"
        },
        {
          "name": "_description",
          "type": "string",
          "internalType": "string"
        },
        {
          "name": "_location",
          "type": "string",
          "internalType": "string"
        },
        {
          "name": "_capacity",
          "type": "uint32",
          "internalType": "uint32"
        },
        {
          "name": "_regStartTime",
          "type": "uint256",
          "internalType": "uint256"
        },
        {
          "name": "_regEndTime",
          "type": "uint256",
          "internalType": "uint256"
        },
        {
          "name": "_eventStartTime",
          "type": "uint256",
          "internalType": "uint256"
        },
        {
          "name": "_eventEndTime",
          "type": "uint256",
          "internalType": "uint256"
        },
        {
          "name": "_ticketPrice",
          "type": "uint96",
          "internalType": "uint96"
        },
        {
          "name": "_isEventPaid",
          "type": "bool",
          "internalType": "bool"
        },
        {
          "name": "_nftUrl",
          "type": "string",
          "internalType": "string"
        }
      ],
      "outputs": [],
      "stateMutability": "nonpayable"
    },
    {
      "type": "function",
      "name": "createGroup",
      "inputs": [
        {
          "name": "_eventId",
          "type": "uint32",
          "internalType": "uint32"
        }
      ],
      "outputs": [],
      "stateMutability": "nonpayable"
    },
    {
      "type": "function",
      "name": "getAllEventGroups",
      "inputs": [],
      "outputs": [
        {
          "name": "",
          "type": "tuple[]",
          "internalType": "struct BlumaProtocol.EventGroup[]",
          "components": [
            {
              "name": "eventId",
              "type": "uint32",
              "internalType": "uint32"
            },
            {
              "name": "title",
              "type": "string",
              "internalType": "string"
            },
            {
              "name": "imageUrl",
              "type": "string",
              "internalType": "string"
            },
            {
              "name": "description",
              "type": "string",
              "internalType": "string"
            },
            {
              "name": "members",
              "type": "tuple[]",
              "internalType": "struct BlumaProtocol.Member[]",
              "components": [
                {
                  "name": "user",
                  "type": "address",
                  "internalType": "address"
                },
                {
                  "name": "joinTime",
                  "type": "uint256",
                  "internalType": "uint256"
                }
              ]
            },
            {
              "name": "messages",
              "type": "tuple[]",
              "internalType": "struct BlumaProtocol.Message[]",
              "components": [
                {
                  "name": "sender",
                  "type": "address",
                  "internalType": "address"
                },
                {
                  "name": "email",
                  "type": "string",
                  "internalType": "string"
                },
                {
                  "name": "text",
                  "type": "string",
                  "internalType": "string"
                },
                {
                  "name": "timestamp",
                  "type": "uint256",
                  "internalType": "uint256"
                }
              ]
            }
          ]
        }
      ],
      "stateMutability": "view"
    },
    {
      "type": "function",
      "name": "getAllEvents",
      "inputs": [],
      "outputs": [
        {
          "name": "",
          "type": "tuple[]",
          "internalType": "struct BlumaProtocol.Event[]",
          "components": [
            {
              "name": "eventId",
              "type": "uint32",
              "internalType": "uint32"
            },
            {
              "name": "title",
              "type": "string",
              "internalType": "string"
            },
            {
              "name": "imageUrl",
              "type": "string",
              "internalType": "string"
            },
            {
              "name": "location",
              "type": "string",
              "internalType": "string"
            },
            {
              "name": "description",
              "type": "string",
              "internalType": "string"
            },
            {
              "name": "creator",
              "type": "address",
              "internalType": "address"
            },
            {
              "name": "seats",
              "type": "uint32",
              "internalType": "uint32"
            },
            {
              "name": "capacity",
              "type": "uint32",
              "internalType": "uint32"
            },
            {
              "name": "regStartTime",
              "type": "uint256",
              "internalType": "uint256"
            },
            {
              "name": "regEndTime",
              "type": "uint256",
              "internalType": "uint256"
            },
            {
              "name": "regStatus",
              "type": "uint8",
              "internalType": "enum BlumaProtocol.RegStatus"
            },
            {
              "name": "eventStatus",
              "type": "uint8",
              "internalType": "enum BlumaProtocol.EventStatus"
            },
            {
              "name": "eventType",
              "type": "uint8",
              "internalType": "enum BlumaProtocol.EventType"
            },
            {
              "name": "groups",
              "type": "tuple",
              "internalType": "struct BlumaProtocol.EventGroup",
              "components": [
                {
                  "name": "eventId",
                  "type": "uint32",
                  "internalType": "uint32"
                },
                {
                  "name": "title",
                  "type": "string",
                  "internalType": "string"
                },
                {
                  "name": "imageUrl",
                  "type": "string",
                  "internalType": "string"
                },
                {
                  "name": "description",
                  "type": "string",
                  "internalType": "string"
                },
                {
                  "name": "members",
                  "type": "tuple[]",
                  "internalType": "struct BlumaProtocol.Member[]",
                  "components": [
                    {
                      "name": "user",
                      "type": "address",
                      "internalType": "address"
                    },
                    {
                      "name": "joinTime",
                      "type": "uint256",
                      "internalType": "uint256"
                    }
                  ]
                },
                {
                  "name": "messages",
                  "type": "tuple[]",
                  "internalType": "struct BlumaProtocol.Message[]",
                  "components": [
                    {
                      "name": "sender",
                      "type": "address",
                      "internalType": "address"
                    },
                    {
                      "name": "email",
                      "type": "string",
                      "internalType": "string"
                    },
                    {
                      "name": "text",
                      "type": "string",
                      "internalType": "string"
                    },
                    {
                      "name": "timestamp",
                      "type": "uint256",
                      "internalType": "uint256"
                    }
                  ]
                }
              ]
            },
            {
              "name": "nftUrl",
              "type": "string",
              "internalType": "string"
            },
            {
              "name": "eventStartTime",
              "type": "uint256",
              "internalType": "uint256"
            },
            {
              "name": "eventEndTime",
              "type": "uint256",
              "internalType": "uint256"
            },
            {
              "name": "ticketPrice",
              "type": "uint96",
              "internalType": "uint96"
            },
            {
              "name": "totalSales",
              "type": "uint256",
              "internalType": "uint256"
            },
            {
              "name": "createdAt",
              "type": "uint256",
              "internalType": "uint256"
            },
            {
              "name": "isCreatorPaid",
              "type": "bool",
              "internalType": "bool"
            },
            {
              "name": "creatorHasJoin",
              "type": "bool",
              "internalType": "bool"
            },
            {
              "name": "hasMinted",
              "type": "bool",
              "internalType": "bool"
            }
          ]
        }
      ],
      "stateMutability": "view"
    },
    {
      "type": "function",
      "name": "getAllGroupMessages",
      "inputs": [
        {
          "name": "_eventId",
          "type": "uint32",
          "internalType": "uint32"
        }
      ],
      "outputs": [
        {
          "name": "",
          "type": "tuple[]",
          "internalType": "struct BlumaProtocol.Message[]",
          "components": [
            {
              "name": "sender",
              "type": "address",
              "internalType": "address"
            },
            {
              "name": "email",
              "type": "string",
              "internalType": "string"
            },
            {
              "name": "text",
              "type": "string",
              "internalType": "string"
            },
            {
              "name": "timestamp",
              "type": "uint256",
              "internalType": "uint256"
            }
          ]
        }
      ],
      "stateMutability": "view"
    },
    {
      "type": "function",
      "name": "getAllTickets",
      "inputs": [],
      "outputs": [
        {
          "name": "_tickets",
          "type": "tuple[]",
          "internalType": "struct BlumaProtocol.Ticket[]",
          "components": [
            {
              "name": "ticketId",
              "type": "uint32",
              "internalType": "uint32"
            },
            {
              "name": "eventId",
              "type": "uint32",
              "internalType": "uint32"
            },
            {
              "name": "owner",
              "type": "address",
              "internalType": "address"
            },
            {
              "name": "ticketCost",
              "type": "uint256",
              "internalType": "uint256"
            },
            {
              "name": "purchaseTime",
              "type": "uint256",
              "internalType": "uint256"
            },
            {
              "name": "numberOfTicket",
              "type": "uint32",
              "internalType": "uint32"
            }
          ]
        }
      ],
      "stateMutability": "view"
    },
    {
      "type": "function",
      "name": "getAllUser",
      "inputs": [],
      "outputs": [
        {
          "name": "",
          "type": "tuple[]",
          "internalType": "struct BlumaProtocol.User[]",
          "components": [
            {
              "name": "email",
              "type": "string",
              "internalType": "string"
            },
            {
              "name": "userAddr",
              "type": "address",
              "internalType": "address"
            },
            {
              "name": "isRegistered",
              "type": "bool",
              "internalType": "bool"
            },
            {
              "name": "avatar",
              "type": "string",
              "internalType": "string"
            },
            {
              "name": "balance",
              "type": "uint256",
              "internalType": "uint256"
            }
          ]
        }
      ],
      "stateMutability": "view"
    },
    {
      "type": "function",
      "name": "getEventById",
      "inputs": [
        {
          "name": "_eventId",
          "type": "uint32",
          "internalType": "uint32"
        }
      ],
      "outputs": [
        {
          "name": "events_",
          "type": "tuple",
          "internalType": "struct BlumaProtocol.Event",
          "components": [
            {
              "name": "eventId",
              "type": "uint32",
              "internalType": "uint32"
            },
            {
              "name": "title",
              "type": "string",
              "internalType": "string"
            },
            {
              "name": "imageUrl",
              "type": "string",
              "internalType": "string"
            },
            {
              "name": "location",
              "type": "string",
              "internalType": "string"
            },
            {
              "name": "description",
              "type": "string",
              "internalType": "string"
            },
            {
              "name": "creator",
              "type": "address",
              "internalType": "address"
            },
            {
              "name": "seats",
              "type": "uint32",
              "internalType": "uint32"
            },
            {
              "name": "capacity",
              "type": "uint32",
              "internalType": "uint32"
            },
            {
              "name": "regStartTime",
              "type": "uint256",
              "internalType": "uint256"
            },
            {
              "name": "regEndTime",
              "type": "uint256",
              "internalType": "uint256"
            },
            {
              "name": "regStatus",
              "type": "uint8",
              "internalType": "enum BlumaProtocol.RegStatus"
            },
            {
              "name": "eventStatus",
              "type": "uint8",
              "internalType": "enum BlumaProtocol.EventStatus"
            },
            {
              "name": "eventType",
              "type": "uint8",
              "internalType": "enum BlumaProtocol.EventType"
            },
            {
              "name": "groups",
              "type": "tuple",
              "internalType": "struct BlumaProtocol.EventGroup",
              "components": [
                {
                  "name": "eventId",
                  "type": "uint32",
                  "internalType": "uint32"
                },
                {
                  "name": "title",
                  "type": "string",
                  "internalType": "string"
                },
                {
                  "name": "imageUrl",
                  "type": "string",
                  "internalType": "string"
                },
                {
                  "name": "description",
                  "type": "string",
                  "internalType": "string"
                },
                {
                  "name": "members",
                  "type": "tuple[]",
                  "internalType": "struct BlumaProtocol.Member[]",
                  "components": [
                    {
                      "name": "user",
                      "type": "address",
                      "internalType": "address"
                    },
                    {
                      "name": "joinTime",
                      "type": "uint256",
                      "internalType": "uint256"
                    }
                  ]
                },
                {
                  "name": "messages",
                  "type": "tuple[]",
                  "internalType": "struct BlumaProtocol.Message[]",
                  "components": [
                    {
                      "name": "sender",
                      "type": "address",
                      "internalType": "address"
                    },
                    {
                      "name": "email",
                      "type": "string",
                      "internalType": "string"
                    },
                    {
                      "name": "text",
                      "type": "string",
                      "internalType": "string"
                    },
                    {
                      "name": "timestamp",
                      "type": "uint256",
                      "internalType": "uint256"
                    }
                  ]
                }
              ]
            },
            {
              "name": "nftUrl",
              "type": "string",
              "internalType": "string"
            },
            {
              "name": "eventStartTime",
              "type": "uint256",
              "internalType": "uint256"
            },
            {
              "name": "eventEndTime",
              "type": "uint256",
              "internalType": "uint256"
            },
            {
              "name": "ticketPrice",
              "type": "uint96",
              "internalType": "uint96"
            },
            {
              "name": "totalSales",
              "type": "uint256",
              "internalType": "uint256"
            },
            {
              "name": "createdAt",
              "type": "uint256",
              "internalType": "uint256"
            },
            {
              "name": "isCreatorPaid",
              "type": "bool",
              "internalType": "bool"
            },
            {
              "name": "creatorHasJoin",
              "type": "bool",
              "internalType": "bool"
            },
            {
              "name": "hasMinted",
              "type": "bool",
              "internalType": "bool"
            }
          ]
        }
      ],
      "stateMutability": "view"
    },
    {
      "type": "function",
      "name": "getEventGroup",
      "inputs": [
        {
          "name": "_eventId",
          "type": "uint32",
          "internalType": "uint32"
        }
      ],
      "outputs": [
        {
          "name": "",
          "type": "tuple",
          "internalType": "struct BlumaProtocol.EventGroup",
          "components": [
            {
              "name": "eventId",
              "type": "uint32",
              "internalType": "uint32"
            },
            {
              "name": "title",
              "type": "string",
              "internalType": "string"
            },
            {
              "name": "imageUrl",
              "type": "string",
              "internalType": "string"
            },
            {
              "name": "description",
              "type": "string",
              "internalType": "string"
            },
            {
              "name": "members",
              "type": "tuple[]",
              "internalType": "struct BlumaProtocol.Member[]",
              "components": [
                {
                  "name": "user",
                  "type": "address",
                  "internalType": "address"
                },
                {
                  "name": "joinTime",
                  "type": "uint256",
                  "internalType": "uint256"
                }
              ]
            },
            {
              "name": "messages",
              "type": "tuple[]",
              "internalType": "struct BlumaProtocol.Message[]",
              "components": [
                {
                  "name": "sender",
                  "type": "address",
                  "internalType": "address"
                },
                {
                  "name": "email",
                  "type": "string",
                  "internalType": "string"
                },
                {
                  "name": "text",
                  "type": "string",
                  "internalType": "string"
                },
                {
                  "name": "timestamp",
                  "type": "uint256",
                  "internalType": "uint256"
                }
              ]
            }
          ]
        }
      ],
      "stateMutability": "view"
    },
    {
      "type": "function",
      "name": "getEventNFTs",
      "inputs": [
        {
          "name": "_eventId",
          "type": "uint32",
          "internalType": "uint32"
        }
      ],
      "outputs": [
        {
          "name": "",
          "type": "uint256[]",
          "internalType": "uint256[]"
        }
      ],
      "stateMutability": "view"
    },
    {
      "type": "function",
      "name": "getGroupMember",
      "inputs": [
        {
          "name": "_groupId",
          "type": "uint32",
          "internalType": "uint32"
        },
        {
          "name": "_index",
          "type": "uint256",
          "internalType": "uint256"
        }
      ],
      "outputs": [
        {
          "name": "",
          "type": "tuple",
          "internalType": "struct BlumaProtocol.Member",
          "components": [
            {
              "name": "user",
              "type": "address",
              "internalType": "address"
            },
            {
              "name": "joinTime",
              "type": "uint256",
              "internalType": "uint256"
            }
          ]
        }
      ],
      "stateMutability": "view"
    },
    {
      "type": "function",
      "name": "getGroupMembers",
      "inputs": [
        {
          "name": "_eventId",
          "type": "uint32",
          "internalType": "uint32"
        }
      ],
      "outputs": [
        {
          "name": "",
          "type": "tuple[]",
          "internalType": "struct BlumaProtocol.Member[]",
          "components": [
            {
              "name": "user",
              "type": "address",
              "internalType": "address"
            },
            {
              "name": "joinTime",
              "type": "uint256",
              "internalType": "uint256"
            }
          ]
        }
      ],
      "stateMutability": "view"
    },
    {
      "type": "function",
      "name": "getTicket",
      "inputs": [
        {
          "name": "_addr",
          "type": "address",
          "internalType": "address"
        }
      ],
      "outputs": [
        {
          "name": "_ticket",
          "type": "tuple",
          "internalType": "struct BlumaProtocol.Ticket",
          "components": [
            {
              "name": "ticketId",
              "type": "uint32",
              "internalType": "uint32"
            },
            {
              "name": "eventId",
              "type": "uint32",
              "internalType": "uint32"
            },
            {
              "name": "owner",
              "type": "address",
              "internalType": "address"
            },
            {
              "name": "ticketCost",
              "type": "uint256",
              "internalType": "uint256"
            },
            {
              "name": "purchaseTime",
              "type": "uint256",
              "internalType": "uint256"
            },
            {
              "name": "numberOfTicket",
              "type": "uint32",
              "internalType": "uint32"
            }
          ]
        }
      ],
      "stateMutability": "view"
    },
    {
      "type": "function",
      "name": "getUser",
      "inputs": [
        {
          "name": "_addr",
          "type": "address",
          "internalType": "address"
        }
      ],
      "outputs": [
        {
          "name": "_user",
          "type": "tuple",
          "internalType": "struct BlumaProtocol.User",
          "components": [
            {
              "name": "email",
              "type": "string",
              "internalType": "string"
            },
            {
              "name": "userAddr",
              "type": "address",
              "internalType": "address"
            },
            {
              "name": "isRegistered",
              "type": "bool",
              "internalType": "bool"
            },
            {
              "name": "avatar",
              "type": "string",
              "internalType": "string"
            },
            {
              "name": "balance",
              "type": "uint256",
              "internalType": "uint256"
            }
          ]
        }
      ],
      "stateMutability": "view"
    },
    {
      "type": "function",
      "name": "getUserNFTs_",
      "inputs": [
        {
          "name": "_user",
          "type": "address",
          "internalType": "address"
        }
      ],
      "outputs": [
        {
          "name": "",
          "type": "uint256[]",
          "internalType": "uint256[]"
        }
      ],
      "stateMutability": "view"
    },
    {
      "type": "function",
      "name": "groupChat",
      "inputs": [
        {
          "name": "_eventId",
          "type": "uint32",
          "internalType": "uint32"
        },
        {
          "name": "_text",
          "type": "string",
          "internalType": "string"
        }
      ],
      "outputs": [],
      "stateMutability": "nonpayable"
    },
    {
      "type": "function",
      "name": "hasPurchasedTicket",
      "inputs": [
        {
          "name": "_user",
          "type": "address",
          "internalType": "address"
        },
        {
          "name": "_eventId",
          "type": "uint32",
          "internalType": "uint32"
        }
      ],
      "outputs": [
        {
          "name": "",
          "type": "bool",
          "internalType": "bool"
        }
      ],
      "stateMutability": "view"
    },
    {
      "type": "function",
      "name": "initialize",
      "inputs": [
        {
          "name": "initialOwner",
          "type": "address",
          "internalType": "address"
        },
        {
          "name": "_blumaToken",
          "type": "address",
          "internalType": "address"
        },
        {
          "name": "_blumaNFT",
          "type": "address",
          "internalType": "address"
        }
      ],
      "outputs": [],
      "stateMutability": "nonpayable"
    },
    {
      "type": "function",
      "name": "isRegistered",
      "inputs": [
        {
          "name": "_addr",
          "type": "address",
          "internalType": "address"
        }
      ],
      "outputs": [
        {
          "name": "",
          "type": "bool",
          "internalType": "bool"
        }
      ],
      "stateMutability": "view"
    },
    {
      "type": "function",
      "name": "joinGroup",
      "inputs": [
        {
          "name": "_eventId",
          "type": "uint32",
          "internalType": "uint32"
        }
      ],
      "outputs": [],
      "stateMutability": "nonpayable"
    },
    {
      "type": "function",
      "name": "mintNFTsForAttendees",
      "inputs": [
        {
          "name": "_eventId",
          "type": "uint32",
          "internalType": "uint32"
        }
      ],
      "outputs": [],
      "stateMutability": "nonpayable"
    },
    {
      "type": "function",
      "name": "owner",
      "inputs": [],
      "outputs": [
        {
          "name": "",
          "type": "address",
          "internalType": "address"
        }
      ],
      "stateMutability": "view"
    },
    {
      "type": "function",
      "name": "proxiableUUID",
      "inputs": [],
      "outputs": [
        {
          "name": "",
          "type": "bytes32",
          "internalType": "bytes32"
        }
      ],
      "stateMutability": "view"
    },
    {
      "type": "function",
      "name": "purchaseTicket",
      "inputs": [
        {
          "name": "_eventId",
          "type": "uint32",
          "internalType": "uint32"
        },
        {
          "name": "_numberOfTickets",
          "type": "uint32",
          "internalType": "uint32"
        }
      ],
      "outputs": [],
      "stateMutability": "nonpayable"
    },
    {
      "type": "function",
      "name": "refundFee",
      "inputs": [
        {
          "name": "_eventId",
          "type": "uint32",
          "internalType": "uint32"
        },
        {
          "name": "_numberOfTickets",
          "type": "uint32",
          "internalType": "uint32"
        }
      ],
      "outputs": [],
      "stateMutability": "nonpayable"
    },
    {
      "type": "function",
      "name": "renounceOwnership",
      "inputs": [],
      "outputs": [],
      "stateMutability": "nonpayable"
    },
    {
      "type": "function",
      "name": "transferOwnership",
      "inputs": [
        {
          "name": "newOwner",
          "type": "address",
          "internalType": "address"
        }
      ],
      "outputs": [],
      "stateMutability": "nonpayable"
    },
    {
      "type": "function",
      "name": "updateEventStatus",
      "inputs": [
        {
          "name": "_eventId",
          "type": "uint32",
          "internalType": "uint32"
        }
      ],
      "outputs": [],
      "stateMutability": "nonpayable"
    },
    {
      "type": "function",
      "name": "upgradeToAndCall",
      "inputs": [
        {
          "name": "newImplementation",
          "type": "address",
          "internalType": "address"
        },
        {
          "name": "data",
          "type": "bytes",
          "internalType": "bytes"
        }
      ],
      "outputs": [],
      "stateMutability": "payable"
    },
    {
      "type": "function",
      "name": "withdrawEventFee",
      "inputs": [
        {
          "name": "_eventId",
          "type": "uint32",
          "internalType": "uint32"
        }
      ],
      "outputs": [],
      "stateMutability": "nonpayable"
    },
    {
      "type": "event",
      "name": "AttendeesNFTMinted",
      "inputs": [
        {
          "name": "owner",
          "type": "address",
          "indexed": true,
          "internalType": "address"
        },
        {
          "name": "eventId",
          "type": "uint32",
          "indexed": true,
          "internalType": "uint32"
        },
        {
          "name": "numberOfTickets",
          "type": "uint32",
          "indexed": false,
          "internalType": "uint32"
        },
        {
          "name": "tokenId",
          "type": "uint256",
          "indexed": true,
          "internalType": "uint256"
        }
      ],
      "anonymous": false
    },
    {
      "type": "event",
      "name": "EventClosed",
      "inputs": [
        {
          "name": "_eventId",
          "type": "uint32",
          "indexed": true,
          "internalType": "uint32"
        },
        {
          "name": "_currentTime",
          "type": "uint256",
          "indexed": true,
          "internalType": "uint256"
        }
      ],
      "anonymous": false
    },
    {
      "type": "event",
      "name": "EventCreated",
      "inputs": [
        {
          "name": "_totalEventsId",
          "type": "uint32",
          "indexed": true,
          "internalType": "uint32"
        },
        {
          "name": "_seatNumber",
          "type": "uint32",
          "indexed": true,
          "internalType": "uint32"
        },
        {
          "name": "_capacity",
          "type": "uint32",
          "indexed": true,
          "internalType": "uint32"
        }
      ],
      "anonymous": false
    },
    {
      "type": "event",
      "name": "GroupCreated",
      "inputs": [
        {
          "name": "_roomId",
          "type": "uint32",
          "indexed": true,
          "internalType": "uint32"
        },
        {
          "name": "imageUrl",
          "type": "string",
          "indexed": false,
          "internalType": "string"
        },
        {
          "name": "_title",
          "type": "bytes32",
          "indexed": false,
          "internalType": "bytes32"
        }
      ],
      "anonymous": false
    },
    {
      "type": "event",
      "name": "GroupJoinedSuccessfully",
      "inputs": [
        {
          "name": "_sender",
          "type": "address",
          "indexed": true,
          "internalType": "address"
        },
        {
          "name": "_eventId",
          "type": "uint32",
          "indexed": true,
          "internalType": "uint32"
        },
        {
          "name": "_joinedTimw",
          "type": "uint256",
          "indexed": true,
          "internalType": "uint256"
        }
      ],
      "anonymous": false
    },
    {
      "type": "event",
      "name": "Initialized",
      "inputs": [
        {
          "name": "version",
          "type": "uint64",
          "indexed": false,
          "internalType": "uint64"
        }
      ],
      "anonymous": false
    },
    {
      "type": "event",
      "name": "MessageSent",
      "inputs": [
        {
          "name": "sender",
          "type": "address",
          "indexed": true,
          "internalType": "address"
        },
        {
          "name": "groupId",
          "type": "uint32",
          "indexed": true,
          "internalType": "uint32"
        },
        {
          "name": "text",
          "type": "string",
          "indexed": false,
          "internalType": "string"
        },
        {
          "name": "timestamp",
          "type": "uint256",
          "indexed": false,
          "internalType": "uint256"
        }
      ],
      "anonymous": false
    },
    {
      "type": "event",
      "name": "OwnershipTransferred",
      "inputs": [
        {
          "name": "previousOwner",
          "type": "address",
          "indexed": true,
          "internalType": "address"
        },
        {
          "name": "newOwner",
          "type": "address",
          "indexed": true,
          "internalType": "address"
        }
      ],
      "anonymous": false
    },
    {
      "type": "event",
      "name": "RefundIssued",
      "inputs": [
        {
          "name": "buyer",
          "type": "address",
          "indexed": true,
          "internalType": "address"
        },
        {
          "name": "_ticketId",
          "type": "uint32",
          "indexed": true,
          "internalType": "uint32"
        },
        {
          "name": "_eventId",
          "type": "uint32",
          "indexed": true,
          "internalType": "uint32"
        },
        {
          "name": "amount",
          "type": "uint256",
          "indexed": false,
          "internalType": "uint256"
        }
      ],
      "anonymous": false
    },
    {
      "type": "event",
      "name": "RegistrationClose",
      "inputs": [
        {
          "name": "_currentTime",
          "type": "uint256",
          "indexed": true,
          "internalType": "uint256"
        },
        {
          "name": "_status",
          "type": "uint8",
          "indexed": true,
          "internalType": "uint8"
        }
      ],
      "anonymous": false
    },
    {
      "type": "event",
      "name": "TicketPurchased",
      "inputs": [
        {
          "name": "buyer",
          "type": "address",
          "indexed": true,
          "internalType": "address"
        },
        {
          "name": "_eventId",
          "type": "uint32",
          "indexed": true,
          "internalType": "uint32"
        },
        {
          "name": "numberOfTickets",
          "type": "uint32",
          "indexed": false,
          "internalType": "uint32"
        }
      ],
      "anonymous": false
    },
    {
      "type": "event",
      "name": "Upgraded",
      "inputs": [
        {
          "name": "implementation",
          "type": "address",
          "indexed": true,
          "internalType": "address"
        }
      ],
      "anonymous": false
    },
    {
      "type": "error",
      "name": "ALREADY_A_MEMBER",
      "inputs": []
    },
    {
      "type": "error",
      "name": "ALREADY_PAID",
      "inputs": []
    },
    {
      "type": "error",
      "name": "AddressEmptyCode",
      "inputs": [
        {
          "name": "target",
          "type": "address",
          "internalType": "address"
        }
      ]
    },
    {
      "type": "error",
      "name": "EMPTY_INPUT_FIELD",
      "inputs": []
    },
    {
      "type": "error",
      "name": "ERC1967InvalidImplementation",
      "inputs": [
        {
          "name": "implementation",
          "type": "address",
          "internalType": "address"
        }
      ]
    },
    {
      "type": "error",
      "name": "ERC1967NonPayable",
      "inputs": []
    },
    {
      "type": "error",
      "name": "EVENT_NOT_CLOSED",
      "inputs": []
    },
    {
      "type": "error",
      "name": "FailedInnerCall",
      "inputs": []
    },
    {
      "type": "error",
      "name": "GROUP_ALREADY_EXISTS",
      "inputs": []
    },
    {
      "type": "error",
      "name": "INSUFFICIENT_BALANCE",
      "inputs": []
    },
    {
      "type": "error",
      "name": "INSUFFICIENT_TICKET_PURCHASED",
      "inputs": []
    },
    {
      "type": "error",
      "name": "INVALID_EVENT_ID",
      "inputs": []
    },
    {
      "type": "error",
      "name": "INVALID_ID",
      "inputs": []
    },
    {
      "type": "error",
      "name": "INVALID_NOT_AUTHORIZED",
      "inputs": []
    },
    {
      "type": "error",
      "name": "INVALID_TIME_SET",
      "inputs": []
    },
    {
      "type": "error",
      "name": "InvalidInitialization",
      "inputs": []
    },
    {
      "type": "error",
      "name": "NFT_ALREADY_MINTED",
      "inputs": []
    },
    {
      "type": "error",
      "name": "NOT_CREATOR",
      "inputs": []
    },
    {
      "type": "error",
      "name": "NOT_ENOUGH_AVAILABLE_SEAT",
      "inputs": []
    },
    {
      "type": "error",
      "name": "NOT_OWNER",
      "inputs": []
    },
    {
      "type": "error",
      "name": "NOT_PAID_EVENT",
      "inputs": []
    },
    {
      "type": "error",
      "name": "NO_ALLOWANCE",
      "inputs": []
    },
    {
      "type": "error",
      "name": "NotInitializing",
      "inputs": []
    },
    {
      "type": "error",
      "name": "OwnableInvalidOwner",
      "inputs": [
        {
          "name": "owner",
          "type": "address",
          "internalType": "address"
        }
      ]
    },
    {
      "type": "error",
      "name": "OwnableUnauthorizedAccount",
      "inputs": [
        {
          "name": "account",
          "type": "address",
          "internalType": "address"
        }
      ]
    },
    {
      "type": "error",
      "name": "REGISTRATION_CLOSE",
      "inputs": []
    },
    {
      "type": "error",
      "name": "REGISTRATION_NOT_CLOSED",
      "inputs": []
    },
    {
      "type": "error",
      "name": "REGISTRATION_NOT_OPEN",
      "inputs": []
    },
    {
      "type": "error",
      "name": "USER_NOT_REGISTERED",
      "inputs": []
    },
    {
      "type": "error",
      "name": "UUPSUnauthorizedCallContext",
      "inputs": []
    },
    {
      "type": "error",
      "name": "UUPSUnsupportedProxiableUUID",
      "inputs": [
        {
          "name": "slot",
          "type": "bytes32",
          "internalType": "bytes32"
        }
      ]
    }
  ],
  "bytecode": {
    "object": "0x60a0806040523461002a5730608052614546908161003082396080518181816114c801526116160152f35b600080fdfe6080604052600436101561001257600080fd5b600060e0813560e01c90816303e96fe3146131ea5781630a9bfef5146131ad5781630f9fcf4814612ee25781631755b97a14612e0a57816317f69df614612db45781631e2cb13114612d3257816322136b6c14612553578163277ec3d4146123c5578163331ef9761461208b5781633405741d14611bed5781633809f6f514611b8b5781634717dea914611b1d57816347531df814611a3657816348862857146117fc5781634f1ef286146115c757816350312c9e1461153257816352d1902d146114b5578163654a3c6d1461127f5781636f77926b1461120e578163715018a6146111a357816385a646c9146111175781638da5cb5b146110e1578163909fdec914610ffa578163a87f86f914610fd8578163ad3cb1cc14610f92578163b33f650e14610e2a578163be7fb5d7146109f1578163c0c53b8b14610876578163c27a500d1461059857508063c3c5a54714610553578063cd71ed3514610350578063ec976a0a146102d8578063eec932f7146101c65763f2fde38b1461019757600080fd5b346101c35760203660031901126101c3576101c06101b361330a565b6101bb614413565b61436c565b80f35b80fd5b50346101c3576020806003193601126102d4576101e1613336565b906101eb826143e0565b63ffffffff80921691828452600282526040842090815416156102c25760ff601582015460081c166102b057338452600682526040842083600052825260ff604060002054166102b05761025e90600d6102436143f3565b916040519261025184613449565b3384528584015201613f08565b33835260068152604083209082600052526040600020600160ff198254161790556102876143f3565b90337ff11404c60069f7d8b6ecebb855f6ac5080f851b85152f4cb855640c49a30c2dd8480a480f35b60405163cea6102760e01b8152600490fd5b6040516316a7994d60e21b8152600490fd5b5080fd5b50346101c35760203660031901126101c35760406102f4613336565b916102fe836143e0565b63ffffffff8093168152600260205220908154161561033e57610326600d61033a9201613da6565b604051918291602083526020830190613547565b0390f35b60405163e955b73b60e01b8152600490fd5b50346101c35760203660031901126101c35761036a613336565b610372614259565b5061037c816143e0565b63ffffffff8091168252600260205260408220916040519161039d8361349a565b8084541683526040516103be816103b781600189016139a6565b03826134b6565b60208401526040516103d7816103b781600289016139a6565b60408401526040516103f0816103b781600389016139a6565b6060840152604051610409816103b781600489016139a6565b6080840152600584015460018060a01b03811660a0850152818160a01c1660c085015260c01c1660e08301526006830154610100830152600783015461012083015260088301549060ff8281809416610461816136ff565b610140860152818160081c16610476816136ff565b61016086015260101c1690600282101561053f575061033a936015916101808501526104a460098201613dfc565b6101a08501526040516104be816103b781600f86016139a6565b6101c085015260108101546101e085015260118101546102008501526001600160601b036012820154166102208501526013810154610240850152601481015461026085015201548181161515610280840152818160081c1615156102a084015260101c1615156102c082015260405191829160208352602083019061371f565b634e487b7160e01b81526021600452602490fd5b50346101c35760203660031901126101c35760209060ff906001906040906001600160a01b0361058161330a565b16815282855220015460a01c166040519015158152f35b9050346102d457816003193601126102d45763ffffffff9081835416916105be83614307565b908460015b8281168681116107cf5782526002602090808252604084208581541692836105f8575b505050506105f390614357565b6105c3565b60409a949a51936106088561349a565b8452604051906106268261061f81600187016139a6565b03836134b6565b84015260405161063c816103b7818686016139a6565b6040840152604051610655816103b781600386016139a6565b606084015260405161066e816103b781600486016139a6565b608084015285600582015460a060018060a01b03821681870152828260c0921c16818701521c168884015260068101546101008401526007810154610120840152600890818101549060ff938483166106c6816136ff565b6101408701528483851c166106da816136ff565b61016087015284601093841c16908110156107bb579285928560156105f39997946107ab976101806107b19b015261071460098201613dfc565b6101a088015260405161072e816103b781600f86016139a6565b6101c0880152838101546101e088015260118101546102008801526001600160601b03601282015416610220880152601381015461024088015260148101546102608801520154809382821615156102808801521c1615156102a08501521c1615156102c0820152868316906107a4828a613c4f565b5287613c4f565b50614357565b96903880806105e6565b634e487b7160e01b88526021600452602488fd5b5050858216836107de82614307565b90835b85811684811015610818578691610810826107fe60019487613c4f565b516108098289613c4f565b5286613c4f565b5001166107e1565b60408051602080825286518183018190528993600582901b8401810192808a01929185015b82871061084a5785850386f35b909192938280610866600193603f198a8203018652885161371f565b960192019601959291909261083d565b82346101c35760603660031901126101c35761089061330a565b610898613320565b6001600160a01b03919060443583811691908290036109ec577ff0c57e16840df040f15088dc2f81fe391c3923bec73e23a9662efc9c229c6a0093845460ff8160401c1615946001600160401b038216801590816109e4575b60011490816109da575b1590816109d1575b506109bf5767ffffffffffffffff198216600117875561093491866109a0575b5061092c61444c565b6101bb61444c565b61093c61444c565b6001600160601b0360a01b911681600b541617600b55600c541617600c55610962575080f35b68ff00000000000000001981541690557fc7f505b2f371ae2175ee4913f4499e1f2633a7b5936321eed1cdaeb6115181d2602060405160018152a180f35b68ffffffffffffffffff19166801000000000000000117875588610923565b60405163f92ee8a960e01b8152600490fd5b90501589610903565b303b1591506108fb565b8791506108f1565b600080fd5b82346101c35760403660031901126101c357610a0b613336565b6024356001600160401b038111610e2657610a2a9036906004016133d8565b610a358392936143e0565b6001610a423683866134f2565b5110610e145763ffffffff8092169283855260026020526040852092835416156102c25760058301546001600160a01b03939084163314610dec575b3386526006602052604086208560005260205260ff6040600020541615610dda57604051610aab8161347f565b868152600e6020820192606084526060604084015288606084015233895260016020526103b7610ae460408b20604051928380926139a6565b8452338352610af43687876134f2565b6040840152610b016143f3565b60608401520191825492600160401b841015610db05760018401808255841015610dc4576000526020600020958251166001600160601b0360a01b8460021b88015416178360021b870155518051906001600160401b038211610db057610b8282610b7460018760021b8b01015461396c565b60018760021b8b0101613b9e565b602090601f8311600114610d3757610bb292918a9183610d2c575b50508160011b916000199060031b1c19161790565b60018360021b870101555b600282811b86010160408201518051906001600160401b038211610d1857610bef82610be9855461396c565b85613b9e565b6020908a601f8411600114610c875793610c4d846003956060957fd643c4cb96915f246339ac52f899dfc112f2ccf8254cca6b9cb9d0b8f0276e109c9b9995610c6d9b9992610c7c5750508160011b916000199060031b1c19161790565b90555b015196879260021b01015560405192604084526040840191613be5565b9260208201528033930390a380f35b015190508f80610b9d565b50838b5260208b209190601f1984168c5b818110610d005750846060947fd643c4cb96915f246339ac52f899dfc112f2ccf8254cca6b9cb9d0b8f0276e109b9a9894610c6d9a989460039860019510610ce8575b505050811b019055610c50565b015160001983891b60f8161c191690558e8080610cdb565b92936020600181928786015181550195019301610c98565b634e487b7160e01b8a52604160045260248afd5b015190508a80610b9d565b919060018560021b8901018a5260208a20908a935b601f1984168510610d95576001945083601f19811610610d7c575b505050811b0160018360021b87010155610bbd565b015160001960f88460031b161c19169055898080610d67565b81810151835560209485019460019093019290910190610d4c565b634e487b7160e01b89526041600452602489fd5b634e487b7160e01b600052603260045260246000fd5b60405163082e385d60e01b8152600490fd5b338652600660205260408620856000526020526040600020600160ff19825416179055610a7e565b604051631ee8943b60e21b8152600490fd5b8280fd5b82346101c3576020806003193601126102d457610e45613336565b610e4e816143e0565b63ffffffff8116835260028252604083209033845260018352610e7460408520916141a7565b600160ff600884015460081c16610e8a816136ff565b03610f805760058201546001600160a01b03903390821603610f6e57601583019081549060ff8216610f5c5760038694610f1294600160138b990195898754975560ff191617905501610ede838254613d40565b9055600b5460405163a9059cbb60e01b81523360048201526024810193909352919485939190921691839182906044820190565b03925af18015610f5157610f24578280f35b81610f4392903d10610f4a575b610f3b81836134b6565b810190613954565b5081808280f35b503d610f31565b6040513d85823e3d90fd5b60405163d2e53ca760e01b8152600490fd5b604051632cff942760e01b8152600490fd5b604051631988a70d60e01b8152600490fd5b82346101c357806003193601126101c35761033a604051610fb281613449565b60058152640352e302e360dc1b602082015260405191829160208352602083019061335c565b82346101c35760203660031901126101c3576101c0610ff5613336565b6141a7565b82346101c357806003193601126101c3576008546110178161389b565b9061102560405192836134b6565b8082526008835260209283830191817ff3f7a9fe364faab93b216da50a3214154f22a0a2b415b23a84c8169e8b636ee3845b8383106110bc5750505050604051928484019085855251809152604084019460408260051b8601019392955b8287106110905785850386f35b9091929382806110ac600193603f198a8203018652885161359a565b9601920196019592919092611083565b6006886001926110cf859b9a989b613dfc565b81520192019201919096939596611057565b82346101c357806003193601126101c3576000805160206144f1833981519152546040516001600160a01b039091168152602090f35b82346101c35760403660031901126101c35760046040611135613336565b9263ffffffff60243594826020855161114d81613449565b828152015261115b816143e0565b1681528260205220019081548110156102c25761117d61118391604093613eec565b50613d7f565b815181516001600160a01b0316815260209182015191810191909152f35bf35b82346101c357806003193601126101c3576111bc614413565b6000805160206144f183398151915280546001600160a01b031981169091556000906001600160a01b03167f8be0079c531659141344cd1fd0a4f28419497f9722a3daafe3b4186f6b6457e08280a380f35b82346101c35760203660031901126101c35761126b604061033a9261123161330a565b816080845161123f81613464565b606081528260208201528286820152606080820152015260018060a01b03168152600160205220613e83565b6040519182916020835260208301906136ac565b82346101c35760203660031901126101c35763ffffffff8061129f613336565b1682526002602052604082208181541691821561033e576005820180546001600160a01b03939084163303610dda57600981019263ffffffff199586855416178455600a8201926112f36001840185613c63565b600b8301966113056002850189613c63565b611354600c85019761131a600487018a613c63565b6015860161010061ff0019825416179055600d860193541661133a6143f3565b6040519161134783613449565b8252602082015283613f08565b600854600160401b811015610d185760018101806008558110156114a15760069060088b520296877ff3f7a9fe364faab93b216da50a3214154f22a0a2b415b23a84c8169e8b636ee301938785036113aa578a80f35b61149399611413600e9861148b976114639661143b957ff3f7a9fe364faab93b216da50a3214154f22a0a2b415b23a84c8169e8b636ee89d5416908254161790557ff3f7a9fe364faab93b216da50a3214154f22a0a2b415b23a84c8169e8b636ee48c01613c63565b7ff3f7a9fe364faab93b216da50a3214154f22a0a2b415b23a84c8169e8b636ee58a01613c63565b7ff3f7a9fe364faab93b216da50a3214154f22a0a2b415b23a84c8169e8b636ee68801613c63565b7ff3f7a9fe364faab93b216da50a3214154f22a0a2b415b23a84c8169e8b636ee78601613f6c565b019101614092565b818080808080808080808a80f35b634e487b7160e01b8a52603260045260248afd5b82346101c357806003193601126101c3577f00000000000000000000000000000000000000000000000000000000000000006001600160a01b031630036115205760206040517f360894a13ba1a3210667c828492db98dca3e2076cc3735a920a3ca505d382bbc8152f35b60405163703e46dd60e11b8152600490fd5b82346101c357806003193601126101c357600b546040516370a0823160e01b81523060048201529190602090839060249082906001600160a01b03165afa9081156115bb5790611588575b602090604051908152f35b506020813d6020116115b3575b816115a2602093836134b6565b810103126109ec576020905161157d565b3d9150611595565b604051903d90823e3d90fd5b8260403660031901126101c3576115dc61330a565b6024356001600160401b038111610e265736602382011215610e265761160c9036906024816004013591016134f2565b6001600160a01b037f000000000000000000000000000000000000000000000000000000000000000081163081149081156117ce575b506115205761164f614413565b6040516352d1902d60e01b8152908316926020918281600481885afa86918161179b575b5061169157604051634c9c8ce360e01b815260048101869052602490fd5b9385947f360894a13ba1a3210667c828492db98dca3e2076cc3735a920a3ca505d382bbc908181036117835750823b1561176a5780546001600160a01b0319168217905560405185917fbc7cd75a20ee27fd9adebab32041f755214dbc6bffa90cc0225b39da2e5c2d3b8380a284511561174d575080848461174096519101845af4903d15611744573d611724816134d7565b9061173260405192836134b6565b81528581943d92013e61448d565b5080f35b6060925061448d565b93505050503461175b575080f35b63b398979f60e01b8152600490fd5b604051634c9c8ce360e01b815260048101839052602490fd5b60249060405190632a87526960e21b82526004820152fd5b9091508381813d83116117c7575b6117b381836134b6565b810103126117c357519087611673565b8680fd5b503d6117a9565b9050817f360894a13ba1a3210667c828492db98dca3e2076cc3735a920a3ca505d382bbc5416141585611642565b82346101c357602090816003193601126101c35763ffffffff8061181e613336565b168083526002845260408320918083541615611a245761183c6143f3565b600784015411611a1257601583019360ff855460101c16611a0057805b6009548110156119ed57838361186e83613c06565b5054891c1614806119ce575b611887575b600101611859565b600c546040516365507c9560e11b8152906001600160a01b039081168983600481845afa92831561199057859361199f575b50816118c485613c06565b505460401c16813b1561199b578861190592879283604051809681958294636902622f60e11b8452600484015260406024840152600f6044840191016139a6565b03925af18015611990579187918695949361196f575b506001945061192984613c06565b505460401c167f66555f994e1af4e5e9289ab0b1a3dd45aa678a9d41cba0aa1f064e78f5d039828b88600361195d88613c06565b50015416604051908152a4905061187f565b61197d919394959250613405565b61198c5790858493928b61191b565b8380fd5b6040513d87823e3d90fd5b8580fd5b9092508981813d83116119c7575b6119b781836134b6565b810103126109ec5751918a6118b9565b503d6119ad565b506119d881613c06565b505460401c6001600160a01b0316151561187a565b50845462ff000019166201000017855580f35b60405163c1d7938360e01b8152600490fd5b604051630f036da960e21b8152600490fd5b60405163b790ffed60e01b8152600490fd5b82346101c357806003193601126101c357600a54611a538161389b565b90611a6160405192836134b6565b808252600a835260209283830191817fc65a7bb8d6351c1cf70c95a316cc6a92839c986682d98bc35f958f4883f9d2a8845b838310611af85750505050604051928484019085855251809152604084019460408260051b8601019392955b828710611acc5785850386f35b909192938280611ae8600193603f198a820301865288516136ac565b9601920196019592919092611abf565b600488600192611b0b859b9a989b613e83565b81520192019201919096939596611a93565b82346101c35760203660031901126101c357611b7e604060c092611b3f61330a565b8160a08451611b4d8161342e565b8281528260208201528286820152826060820152826080820152015260018060a01b031681526003602052206138b2565b6111a160405180926132c1565b82346101c35760203660031901126101c3576040611ba7613336565b91611bb0613d4d565b5063ffffffff8093168152600260205220908154161561033e57611bd9600961033a9201613dfc565b60405191829160208352602083019061359a565b82346101c35760403660031901126101c357611c07613336565b90611c10613349565b611c19836143e0565b63ffffffff90818416918284526020906002825260408520956008870160ff815416611c44816136ff565b6120795760058801611c7f611c5f8786845460a01c16613b6f565b825463ffffffff60a01b191660a09190911b63ffffffff60a01b16178255565b5483808260c01c169160a01c161161206757865467ffffffff00000000611ca98583881c16613b5a565b861b169067ffffffff00000000191617875533875260038452604087209760ff88925460101c1660028110156120535715611ea7575b5086548854600160401b600160e01b031991861c85169190911667ffffffff00000001600160e01b0319909116173360401b600160401b600160e01b031617885563ffffffff1990611d5d611d326143f3565b9360028b019485558a9067ffffffff0000000082549160201b169067ffffffff000000001916179055565b611d6c60018a01918254613d40565b8155600389019283548386611d838a828516613b6f565b169116178455600954600160401b811015610d1857806001611da89201600955613c06565b929092611e9357918a9186937fc541e3defd92fd2d8306e9c91b36c15f096115c41c7a9a36ac548a487d8891aa999a9b9c8303611e15575b5050505050505033865260058252604086208560005282526040600020600160ff19825416179055604051931683523392a380f35b83548354871690861617808455845467ffffffff0000000019909116908a1c861660201b67ffffffff0000000016178355600393611e7090548454600160401b600160e01b031916600160401b600160e01b03909116178455565b546001830155546002820155019254169082541617905586808281808080611de0565b634e487b7160e01b8a5260048a905260248afd5b90506001600160601b03611ec38160128401541685881661390a565b169060018060a01b03600b54166040516370a0823160e01b81523360048201528681602481855afa908115612005579084918b91612022575b501061201057604051636eb1769f60e11b81523360048201523060248201528681604481855afa908115612005579084918b91611fd4575b5010611fc2578589916064604051809481936323b872dd60e01b83523360048401523060248401528860448401525af18015611fb7579060139291611f9a575b5001611f81828254613d40565b905560018801611f92828254613d40565b905588611cdf565b611fb090873d8911610f4a57610f3b81836134b6565b508a611f74565b6040513d8b823e3d90fd5b60405163ea75ebd560e01b8152600490fd5b809250888092503d8311611ffe575b611fed81836134b6565b810103126109ec578390518c611f34565b503d611fe3565b6040513d8c823e3d90fd5b604051632858f9ab60e11b8152600490fd5b809250888092503d831161204c575b61203b81836134b6565b810103126109ec578390518c611efc565b503d612031565b634e487b7160e01b89526021600452602489fd5b6040516374a227cd60e01b8152600490fd5b6040516305fb6d9960e41b8152600490fd5b82346101c35760603660031901126101c3576001600160401b03600435818111610e26576120bd903690600401613529565b906120c6613320565b6044358281116123c1576120de903690600401613529565b9260019182825110610e145782855110610e145760018060a01b03809116928387526020958187526040882093805190878211610d185761212982612123885461396c565b88613b9e565b8890601f83116001146123625761215792918b91836123575750508160011b916000199060031b1c19161790565b84555b818401956affffffffffffffffffffff60a81b95600160a01b90878954161717875560028501978251918211610d185761219e826121988b5461396c565b8b613b9e565b80601f83116001146122f6575081906121cc938b92610d2c5750508160011b916000199060031b1c19161790565b86555b600a5490600160401b8210156122e257810180600a55811015610dc457600a60005260021b94857fc65a7bb8d6351c1cf70c95a316cc6a92839c986682d98bc35f958f4883f9d2a80191838303612224578780f35b7fc65a7bb8d6351c1cf70c95a316cc6a92839c986682d98bc35f958f4883f9d2ab95600395612256866122d296613c63565b7fc65a7bb8d6351c1cf70c95a316cc6a92839c986682d98bc35f958f4883f9d2a989019282541690835492826001600160601b0360a01b851617855560ff8060a01b915460a01c16151560a01b169216171790557fc65a7bb8d6351c1cf70c95a316cc6a92839c986682d98bc35f958f4883f9d2aa8601613c63565b0154910155818080808080808780f35b634e487b7160e01b88526041600452602488fd5b908493601f1984168b8d52838d20938d905b82821061233e5750508411612325575b505050811b0186556121cf565b015160001960f88460031b161c19169055898080612318565b8484015186558897909501949384019390810190612308565b015190508b80610b9d565b868b52898b208593929091601f1984168d5b8d8282106123ab5750508411612392575b505050811b01845561215a565b015160001960f88460031b161c191690558a8080612385565b8385015186558997909501949384019301612374565b8480fd5b82346101c3576020806003193601126102d4576123e0613336565b8291836009549263ffffffff809116915b84811061252157506124028561389b565b9461241060405196876134b6565b80865261241f601f199161389b565b013660208701378592865b85811061243f576040518061033a898261339c565b838361244a83613c06565b5054841c161461245d575b60010161242a565b9490939691959260018060a01b03968388600c54169861247c89613c06565b505460401c166024604051809b8193632118854760e21b835260048301525afa9788156125165784986124f2575b5083985b88518a10156124e0576124d86001916124c78c8c613c4f565b516124d2828a613c4f565b52613c40565b9901986124ae565b93985093965090949193909291612455565b61250f9198503d8086833e61250781836134b6565b810190613ae1565b96896124aa565b6040513d86823e3d90fd5b828261252c83613c06565b5054861c161461253f575b6001016123f1565b9461254b600191613c40565b959050612537565b82346101c3576101803660031901126101c3576004356001600160401b0381116102d4576125859036906004016133d8565b91906024356001600160401b038111610e26576125a69036906004016133d8565b6044949194356001600160401b0381116123c1576125c89036906004016133d8565b6064929192356001600160401b0381116117c3576125ea9036906004016133d8565b93909263ffffffff6084351660843503612d2e576001600160601b0361012435166101243503612d2e5761014435988915158a03612d2a57610164356001600160401b038111612d26576126429036906004016133d8565b979098338b52600160205260ff600160408d20015460a01c1615612d145760018210610e145760018410610e145760018610610e145760018810610e145760c43560a4351015612d02576101043560e4351015612d0257600160089c8c548d63ffffffff6126b1818416613b5a565b16809263ffffffff19161790558d52600260205260408d209d8e60a4356126d66143f3565b1015612cf45701805460ff191660021790555b151503612cc55760088c01805462ff00001916905560128c0180546bffffffffffffffffffffffff1916610124356001600160601b03161790555b63ffffffff8b541663ffffffff198d5416178c556001600160401b038211612cb157612760828d60016127598183015461396c565b9101613b9e565b8a90601f8311600114612c435761278e92918c9183612c385750508160011b916000199060031b1c19161790565b60018b01555b6001600160401b038211610db0576127bc826127b360028d015461396c565b60028d01613b9e565b8890601f8311600114612bca576127ea92918a9183612bbf5750508160011b916000199060031b1c19161790565b60028901555b6001600160401b038211612bab576128188261280f60048b015461396c565b60048b01613b9e565b8690601f8311600114612b41576128469291889183612b365750508160011b916000199060031b1c19161790565b60048701555b6005860180546001600160a01b031916331790556001600160401b038211612b22576128888261287f600389015461396c565b60038901613b9e565b8490601f8311600114612ab4576128b69291869183612aa95750508160011b916000199060031b1c19161790565b60038501555b60058401805463ffffffff60c01b191660843560c01b63ffffffff60c01b1617905560a435600685015560c435600785015560e435601085015561010435601185015560088401805461ff0019166102001790556129186143f3565b6014850155600f84016001600160401b038211612a95576129438261293d835461396c565b83613b9e565b8382601f8111600114612a325780612970928791612a27575b508160011b916000199060031b1c19161790565b90555b600c546001600160a01b031690813b1561198c579183916129b99383604051809681958294636902622f60e11b8452336004850152604060248501526044840191613be5565b03925af18015612a1c57612a0d575b509063ffffffff82541663ffffffff6005816084351693015460a01c16907fac3c2fbb08f906d92c1b4be6fa025f63708bafa70869110e931d718b9532c4118480a480f35b612a1690613405565b826129c8565b6040513d84823e3d90fd5b90508501358861295c565b50818552602085209083601f198116875b818110612a7a575010612a60575b5050600182811b019055612973565b840135600019600385901b60f8161c191690558580612a51565b87840135855560019094019360209384019387935001612a43565b634e487b7160e01b84526041600452602484fd5b013590508780610b9d565b600387939293018652602086209086935b601f1984168510612b0a576001945083601f19811610612af0575b505050811b0160038501556128bc565b0135600019600384901b60f8161c19169055868080612ae0565b81810135835560209485019460019093019201612ac5565b634e487b7160e01b85526041600452602485fd5b013590508980610b9d565b6004890188526020882091601f198416895b818110612b935750908460019594939210612b79575b505050811b01600487015561284c565b0135600019600384901b60f8161c19169055888080612b69565b91936020600181928787013581550195019201612b53565b634e487b7160e01b87526041600452602487fd5b013590508b80610b9d565b60028b939293018a5260208a20908a935b601f1984168510612c20576001945083601f19811610612c06575b505050811b0160028901556127f0565b0135600019600384901b60f8161c191690558a8080612bf6565b81810135835560209485019460019093019201612bdb565b013590508d80610b9d565b60018d939293018c5260208c20908c935b601f1984168510612c99576001945083601f19811610612c7f575b505050811b0160018b0155612794565b0135600019600384901b60f8161c191690558c8080612c6f565b81810135835560209485019460019093019201612c54565b634e487b7160e01b8b52604160045260248bfd5b60128c0180546bffffffffffffffffffffffff1916905560088c01805462ff0000191662010000179055612724565b01805460ff191690556126e9565b60405163489eca6760e01b8152600490fd5b604051633069384b60e21b8152600490fd5b8980fd5b8880fd5b8780fd5b82346101c35760203660031901126101c357612d4c61330a565b600c54604051632118854760e21b81526001600160a01b03928316600482015291839183916024918391165afa908115612a1c578261033a9392612d99575b50506040519182918261339c565b612dad92503d8091833e61250781836134b6565b8280612d8b565b82346101c35760403660031901126101c35760ff6040602092612dd561330a565b612ddd613349565b6001600160a01b0390911682526005855282822063ffffffff909116825284522054604051911615158152f35b82346101c3576020806003193601126102d45763ffffffff80612e2b613336565b1683526002825260408320908154161561033e57612e4c600e849201613a3c565b60405191838301848452825180915260408401948060408360051b870101940192955b828710612e7c5785850386f35b909192938280600192603f19898203018552875190612ec8612eb66080878060a01b0385511684528585015190808786015284019061335c565b6040840151838203604085015261335c565b916060809101519101529601920196019592919092612e6f565b82346101c35760403660031901126101c357612efc613336565b612f04613349565b90612f0e816143e0565b63ffffffff908181169283855260209260028452612f2f60408720936143e0565b8486526002845260408620612f426143f3565b60078201541061314e575b50338652600384526040862091600884015460ff8160101c1660028110156120535761313c5760ff16612f7f816136ff565b61312a5782546001600160a01b03919033604082901c84160361311857838891881c1603611a2457600384018381541684831680911061310657601390612fd56001600160601b03918260128b0154169061390a565b169661300e60058201612fee8689835460a01c1661393e565b815463ffffffff60a01b191660a09190911b63ffffffff60a01b16179055565b018054908782039182116130f257558361302c82549382851661393e565b16809263ffffffff1916179055156130d2575b600b5460405163a9059cbb60e01b81523360048201526024810186905293918691859160449183918c91165af19283156130c7577f4f6fb365c29f3632d91fcd919dbfdf50155c34cd0ea613bd43e7e76529fec435936130aa575b505416926040519283523392a480f35b6130c090863d8811610f4a57610f3b81836134b6565b508761309a565b6040513d89823e3d90fd5b33875260058552604080882087895286528720805460ff1916905561303f565b634e487b7160e01b8b52601160045260248bfd5b60405163a2ed46e160e01b8152600490fd5b6040516338ebc58960e11b8152600490fd5b604051630738c50360e41b8152600490fd5b6040516380e4469160e01b8152600490fd5b6008018054600160ff8216613162816136ff565b0361316e575b50612f4d565b60019060ff191617905560016131826143f3565b7f9c8ea6489f3baa31d321639e3a41ad67158fa673511a98870906b5a9eced0dd48880a38680613168565b82346101c35760203660031901126101c3576020906003906040906001600160a01b036131d861330a565b16815260018452200154604051908152f35b82346101c357806003193601126101c3576009546132078161389b565b9061321560405192836134b6565b8082526009835260209182810191847f6e1540171b6c0c960b71a7020d9f60077f6af931a8bbf590da0223dacf75c7af845b83831061329a575050505060405192602084019160208552518092526040840192945b8281106132775784840385f35b9091928260c08261328b6001948a516132c1565b0196019101949291909461326a565b6004876001926132ae859b9a98999b6138b2565b8152019201920191909694939596613247565b60a0908163ffffffff91828151168552826020820151166020860152600180831b0360408201511660408601526060810151606086015260808101516080860152015116910152565b600435906001600160a01b03821682036109ec57565b602435906001600160a01b03821682036109ec57565b6004359063ffffffff821682036109ec57565b6024359063ffffffff821682036109ec57565b919082519283825260005b848110613388575050826000602080949584010152601f8019910116010190565b602081830181015184830182015201613367565b602090602060408183019282815285518094520193019160005b8281106133c4575050505090565b8351855293810193928101926001016133b6565b9181601f840112156109ec578235916001600160401b0383116109ec57602083818601950101116109ec57565b6001600160401b03811161341857604052565b634e487b7160e01b600052604160045260246000fd5b60c081019081106001600160401b0382111761341857604052565b604081019081106001600160401b0382111761341857604052565b60a081019081106001600160401b0382111761341857604052565b608081019081106001600160401b0382111761341857604052565b6102e081019081106001600160401b0382111761341857604052565b90601f801991011681019081106001600160401b0382111761341857604052565b6001600160401b03811161341857601f01601f191660200190565b9291926134fe826134d7565b9161350c60405193846134b6565b8294818452818301116109ec578281602093846000960137010152565b9080601f830112156109ec57816020613544933591016134f2565b90565b90815180825260208080930193019160005b828110613567575050505090565b909192938260408261358e60019489516020809160018060a01b0381511684520151910152565b01950193929101613559565b63ffffffff81511682526020906135be8282015160c08486015260c085019061335c565b916135d76040936040840151868203604088015261335c565b916135f06060936060830151878203606089015261335c565b9260a061360b608095608085015189820360808b0152613547565b9201519560a08184039101528551938483528383019184808760051b8601019801966000945b8786106136445750505050505050505090565b9091929394959697988780600192601f198582030189528c5190848060a01b0382511681528780613693613683868601518d888701528d86019061335c565b8a8601518582038c87015261335c565b9301519101529b01960196019497969593929190613631565b906080806136f66136c6855160a0865260a086019061335c565b60018060a01b0360208701511660208601526040860151151560408601526060860151858203606087015261335c565b93015191015290565b6003111561370957565b634e487b7160e01b600052602160045260246000fd5b906102e061378561377361376161374f63ffffffff9485885116875260208801519080602089015287019061335c565b6040870151868203604088015261335c565b6060860151858203606087015261335c565b6080850151848203608086015261335c565b9060018060a01b0360a08501511660a08401528060c08501511660c084015260e08401511660e08301526101008084015190830152610120808401519083015261014080840151906137d6826136ff565b83015261016080840151906137ea826136ff565b83015261018080840151916002831015613709576138319261381d928501526101a080860151908583039086015261359a565b6101c080850151908483039085015261335c565b916101e0808201519083015261020080820151908301526102206001600160601b0381830151169083015261024080820151908301526102608082015190830152610280808201511515908301526102a0808201511515908301526102c080910151151591015290565b6001600160401b0381116134185760051b60200190565b906040516138bf8161342e565b60a08193600381549163ffffffff928381168652838160201c166020870152600180861b039060401c1660408601526001810154606086015260028101546080860152015416910152565b9190916001600160601b038080941691160291821691820361392857565b634e487b7160e01b600052601160045260246000fd5b63ffffffff918216908216039190821161392857565b908160209103126109ec575180151581036109ec5790565b90600182811c9216801561399c575b602083101461398657565b634e487b7160e01b600052602260045260246000fd5b91607f169161397b565b8054600093926139b58261396c565b91828252602093600191600181169081600014613a1d57506001146139dc575b5050505050565b90939495506000929192528360002092846000945b838610613a09575050505001019038808080806139d5565b8054858701830152940193859082016139f1565b60ff19168685015250505090151560051b0101915038808080806139d5565b908154613a488161389b565b92604093613a5960405191826134b6565b82815280946020809201926000526020600020906000935b858510613a8057505050505050565b6004846001928451613a918161347f565b848060a01b0387541681528551613aae816103b781898c016139a6565b838201528551613ac5816103b78160028c016139a6565b8682015260038701546060820152815201930194019391613a71565b60209081818403126109ec578051906001600160401b0382116109ec57019180601f840112156109ec578251613b168161389b565b93613b2460405195866134b6565b818552838086019260051b8201019283116109ec578301905b828210613b4b575050505090565b81518152908301908301613b3d565b90600163ffffffff8093160191821161392857565b91909163ffffffff8080941691160191821161392857565b818110613b92575050565b60008155600101613b87565b9190601f8111613bad57505050565b613bd9926000526020600020906020601f840160051c83019310613bdb575b601f0160051c0190613b87565b565b9091508190613bcc565b908060209392818452848401376000828201840152601f01601f1916010190565b600954811015610dc457600960005260021b7f6e1540171b6c0c960b71a7020d9f60077f6af931a8bbf590da0223dacf75c7af0190600090565b60001981146139285760010190565b8051821015610dc45760209160051b010190565b90808214613d3c57613c75815461396c565b906001600160401b03821161341857613c9282610be9855461396c565b600090601f8311600114613cd157613cc2929160009183613cc65750508160011b916000199060031b1c19161790565b9055565b015490503880610b9d565b815260208082208483528183209291601f1985169083905b828210613d23575050908460019594939210613d0a575b505050811b019055565b015460001960f88460031b161c19169055388080613d00565b8495819295850154815560018091019601940190613ce9565b5050565b9190820180921161392857565b60405190613d5a8261342e565b816000815260a060609182602082015282604082015282808201528260808201520152565b90604051613d8c81613449565b82546001600160a01b031681526001909201546020830152565b908154613db28161389b565b92613dc060405194856134b6565b818452600090815260208082208186015b848410613ddf575050505050565b600283600192613dee85613d7f565b815201920193019290613dd1565b90604051613e098161342e565b60a0613e7e6005839563ffffffff8154168552604051613e30816103b781600186016139a6565b6020860152604051613e49816103b781600286016139a6565b6040860152604051613e62816103b781600386016139a6565b6060860152613e7360048201613da6565b608086015201613a3c565b910152565b90604051613e9081613464565b608060038294604051613ea7816103b781856139a6565b845260018101546001600160a01b038116602086015260a01c60ff16151560408086019190915251613ee0816103b781600286016139a6565b60608501520154910152565b8054821015610dc45760005260206000209060011b0190600090565b8054600160401b81101561341857613f2591600182018155613eec565b919091613f5657805182546001600160a01b0319166001600160a01b03919091161782556020015160019190910155565b634e487b7160e01b600052600060045260246000fd5b818114613d3c57815491600160401b8311613418578154838355808410613ff5575b506000526020600020906000526020600020906000905b838210613fb25750505050565b806001918403613fcd575b6002809101930191019091613fa5565b818060a01b038154166001600160601b0360a01b855416178455818082015490850155613fbd565b60016001600160ff1b0382811683036139285785168503613928576000908460005260206000209260011b8301928660011b015b83811061403857505050613f8e565b808360029255838382015501614029565b614053815461396c565b908161405d575050565b81601f6000931160011461406f575055565b90808391825261408e601f60208420940160051c840160018501613b87565b5555565b818114613d3c57815491600160401b831161341857815483835580841061413b575b506000526020600020906000526020600020906000905b8382106140d85750505050565b8060019184036140f3575b60048091019301910190916140cb565b818060a01b038154166001600160601b0360a01b85541617845561411c82808301908601613c63565b61412c6002808301908601613c63565b600380820154908501556140e3565b60026001600160fe1b0382811683036139285785168503613928576000908460005260206000209260021b8301928660021b015b83811061417e575050506140b4565b80836004925561419060018201614049565b61419b838201614049565b8360038201550161416f565b63ffffffff906141b6816143e0565b1680600052600260205260406000206141cd6143f3565b6010820154111580614244575b156141ee57600801805461ff001916905550565b6141f66143f3565b601182015410614204575050565b600801805461ff00191661010017905561421c6143f3565b907f835839f42ff642197e82f2887491db41a51c32dc7004091799724e9e3d6f2489600080a3565b5061424d6143f3565b601182015410156141da565b604051906142668261349a565b816102c0600091828152606080602083015280604083015280808301528060808301528360a08301528360c08301528360e083015283610100830152836101208301528361014083015283610160830152836101808301526142c6613d4d565b6101a08301526101c0820152826101e08201528261020082015282610220820152826102408201528261026082015282610280820152826102a08201520152565b906143118261389b565b61431e60405191826134b6565b828152809261432f601f199161389b565b019060005b82811061434057505050565b60209061434b614259565b82828501015201614334565b63ffffffff8091169081146139285760010190565b6001600160a01b039081169081156143c7576000805160206144f183398151915280546001600160a01b031981168417909155167f8be0079c531659141344cd1fd0a4f28419497f9722a3daafe3b4186f6b6457e0600080a3565b604051631e4fbdf760e01b815260006004820152602490fd5b63ffffffff80600054169116116102c257565b6103e8804202904282048114421517156139285781018091116139285790565b6000805160206144f1833981519152546001600160a01b0316330361443457565b60405163118cdaa760e01b8152336004820152602490fd5b60ff7ff0c57e16840df040f15088dc2f81fe391c3923bec73e23a9662efc9c229c6a005460401c161561447b57565b604051631afcd79f60e31b8152600490fd5b906144b457508051156144a257805190602001fd5b604051630a12f52160e11b8152600490fd5b815115806144e7575b6144c5575090565b604051639996b31560e01b81526001600160a01b039091166004820152602490fd5b50803b156144bd56fe9016d09d72d40fdae2fd8ceac6b6234c7706214fd39c1cd1e609a0528c199300a26469706673582212204fdccb812136e19a1bf30d9b200f612d067d05f3bbc699b7c92c6dff1418800864736f6c63430008180033",
    "linkReferences": {}
  },
  "methodIdentifiers": {
    "UPGRADE_INTERFACE_VERSION()": "ad3cb1cc",
    "checkContractBalance()": "50312c9e",
    "checkUserBalance(address)": "0a9bfef5",
    "createAccount(string,address,string)": "331ef976",
    "createEvent(string,string,string,string,uint32,uint256,uint256,uint256,uint256,uint96,bool,string)": "22136b6c",
    "createGroup(uint32)": "654a3c6d",
    "getAllEventGroups()": "909fdec9",
    "getAllEvents()": "c27a500d",
    "getAllGroupMessages(uint32)": "1755b97a",
    "getAllTickets()": "03e96fe3",
    "getAllUser()": "47531df8",
    "getEventById(uint32)": "cd71ed35",
    "getEventGroup(uint32)": "3809f6f5",
    "getEventNFTs(uint32)": "277ec3d4",
    "getGroupMember(uint32,uint256)": "85a646c9",
    "getGroupMembers(uint32)": "ec976a0a",
    "getTicket(address)": "4717dea9",
    "getUser(address)": "6f77926b",
    "getUserNFTs_(address)": "1e2cb131",
    "groupChat(uint32,string)": "be7fb5d7",
    "hasPurchasedTicket(address,uint32)": "17f69df6",
    "initialize(address,address,address)": "c0c53b8b",
    "isRegistered(address)": "c3c5a547",
    "joinGroup(uint32)": "eec932f7",
    "mintNFTsForAttendees(uint32)": "48862857",
    "owner()": "8da5cb5b",
    "proxiableUUID()": "52d1902d",
    "purchaseTicket(uint32,uint32)": "3405741d",
    "refundFee(uint32,uint32)": "0f9fcf48",
    "renounceOwnership()": "715018a6",
    "transferOwnership(address)": "f2fde38b",
    "updateEventStatus(uint32)": "a87f86f9",
    "upgradeToAndCall(address,bytes)": "4f1ef286",
    "withdrawEventFee(uint32)": "b33f650e"
  },
  "id": 58
}