{
  "abi": [
    {
      "type": "function",
      "name": "UPGRADE_INTERFACE_VERSION",
      "inputs": [],
      "outputs": [
        {
          "name": "",
          "type": "string",
          "internalType": "string"
        }
      ],
      "stateMutability": "view"
    },
    {
      "type": "function",
      "name": "checkContractBalance",
      "inputs": [],
      "outputs": [
        {
          "name": "bal_",
          "type": "uint256",
          "internalType": "uint256"
        }
      ],
      "stateMutability": "view"
    },
    {
      "type": "function",
      "name": "checkUserBalance",
      "inputs": [
        {
          "name": "_addr",
          "type": "address",
          "internalType": "address"
        }
      ],
      "outputs": [
        {
          "name": "bal_",
          "type": "uint256",
          "internalType": "uint256"
        }
      ],
      "stateMutability": "view"
    },
    {
      "type": "function",
      "name": "createAccount",
      "inputs": [
        {
          "name": "_email",
          "type": "string",
          "internalType": "string"
        },
        {
          "name": "_addr",
          "type": "address",
          "internalType": "address"
        },
        {
          "name": "_avatar",
          "type": "string",
          "internalType": "string"
        }
      ],
      "outputs": [],
      "stateMutability": "nonpayable"
    },
    {
      "type": "function",
      "name": "createEvent",
      "inputs": [
        {
          "name": "_title",
          "type": "string",
          "internalType": "string"
        },
        {
          "name": "_imageUrl",
          "type": "string",
          "internalType": "string"
        },
        {
          "name": "_description",
          "type": "string",
          "internalType": "string"
        },
        {
          "name": "_location",
          "type": "string",
          "internalType": "string"
        },
        {
          "name": "_capacity",
          "type": "uint32",
          "internalType": "uint32"
        },
        {
          "name": "_regStartTime",
          "type": "uint256",
          "internalType": "uint256"
        },
        {
          "name": "_regEndTime",
          "type": "uint256",
          "internalType": "uint256"
        },
        {
          "name": "_eventStartTime",
          "type": "uint256",
          "internalType": "uint256"
        },
        {
          "name": "_eventEndTime",
          "type": "uint256",
          "internalType": "uint256"
        },
        {
          "name": "_ticketPrice",
          "type": "uint96",
          "internalType": "uint96"
        },
        {
          "name": "_isEventPaid",
          "type": "bool",
          "internalType": "bool"
        }
      ],
      "outputs": [],
      "stateMutability": "nonpayable"
    },
    {
      "type": "function",
      "name": "createGroup",
      "inputs": [
        {
          "name": "_eventId",
          "type": "uint32",
          "internalType": "uint32"
        }
      ],
      "outputs": [],
      "stateMutability": "nonpayable"
    },
    {
      "type": "function",
      "name": "getAllEventGroups",
      "inputs": [],
      "outputs": [
        {
          "name": "",
          "type": "tuple[]",
          "internalType": "struct BlumaProtocol.EventGroup[]",
          "components": [
            {
              "name": "eventId",
              "type": "uint32",
              "internalType": "uint32"
            },
            {
              "name": "title",
              "type": "string",
              "internalType": "string"
            },
            {
              "name": "imageUrl",
              "type": "string",
              "internalType": "string"
            },
            {
              "name": "description",
              "type": "string",
              "internalType": "string"
            },
            {
              "name": "members",
              "type": "tuple[]",
              "internalType": "struct BlumaProtocol.Member[]",
              "components": [
                {
                  "name": "user",
                  "type": "address",
                  "internalType": "address"
                },
                {
                  "name": "joinTime",
                  "type": "uint256",
                  "internalType": "uint256"
                }
              ]
            },
            {
              "name": "messages",
              "type": "tuple[]",
              "internalType": "struct BlumaProtocol.Message[]",
              "components": [
                {
                  "name": "sender",
                  "type": "address",
                  "internalType": "address"
                },
                {
                  "name": "email",
                  "type": "string",
                  "internalType": "string"
                },
                {
                  "name": "text",
                  "type": "string",
                  "internalType": "string"
                },
                {
                  "name": "timestamp",
                  "type": "uint256",
                  "internalType": "uint256"
                }
              ]
            }
          ]
        }
      ],
      "stateMutability": "view"
    },
    {
      "type": "function",
      "name": "getAllEvents",
      "inputs": [],
      "outputs": [
        {
          "name": "",
          "type": "tuple[]",
          "internalType": "struct BlumaProtocol.Event[]",
          "components": [
            {
              "name": "eventId",
              "type": "uint32",
              "internalType": "uint32"
            },
            {
              "name": "title",
              "type": "string",
              "internalType": "string"
            },
            {
              "name": "imageUrl",
              "type": "string",
              "internalType": "string"
            },
            {
              "name": "location",
              "type": "string",
              "internalType": "string"
            },
            {
              "name": "description",
              "type": "string",
              "internalType": "string"
            },
            {
              "name": "creator",
              "type": "address",
              "internalType": "address"
            },
            {
              "name": "seats",
              "type": "uint32",
              "internalType": "uint32"
            },
            {
              "name": "capacity",
              "type": "uint32",
              "internalType": "uint32"
            },
            {
              "name": "regStartTime",
              "type": "uint256",
              "internalType": "uint256"
            },
            {
              "name": "regEndTime",
              "type": "uint256",
              "internalType": "uint256"
            },
            {
              "name": "groups",
              "type": "tuple",
              "internalType": "struct BlumaProtocol.EventGroup",
              "components": [
                {
                  "name": "eventId",
                  "type": "uint32",
                  "internalType": "uint32"
                },
                {
                  "name": "title",
                  "type": "string",
                  "internalType": "string"
                },
                {
                  "name": "imageUrl",
                  "type": "string",
                  "internalType": "string"
                },
                {
                  "name": "description",
                  "type": "string",
                  "internalType": "string"
                },
                {
                  "name": "members",
                  "type": "tuple[]",
                  "internalType": "struct BlumaProtocol.Member[]",
                  "components": [
                    {
                      "name": "user",
                      "type": "address",
                      "internalType": "address"
                    },
                    {
                      "name": "joinTime",
                      "type": "uint256",
                      "internalType": "uint256"
                    }
                  ]
                },
                {
                  "name": "messages",
                  "type": "tuple[]",
                  "internalType": "struct BlumaProtocol.Message[]",
                  "components": [
                    {
                      "name": "sender",
                      "type": "address",
                      "internalType": "address"
                    },
                    {
                      "name": "email",
                      "type": "string",
                      "internalType": "string"
                    },
                    {
                      "name": "text",
                      "type": "string",
                      "internalType": "string"
                    },
                    {
                      "name": "timestamp",
                      "type": "uint256",
                      "internalType": "uint256"
                    }
                  ]
                }
              ]
            },
            {
              "name": "regStatus",
              "type": "uint8",
              "internalType": "enum BlumaProtocol.RegStatus"
            },
            {
              "name": "eventStatus",
              "type": "uint8",
              "internalType": "enum BlumaProtocol.EventStatus"
            },
            {
              "name": "eventType",
              "type": "uint8",
              "internalType": "enum BlumaProtocol.EventType"
            },
            {
              "name": "nftUrl",
              "type": "string",
              "internalType": "string"
            },
            {
              "name": "eventStartTime",
              "type": "uint256",
              "internalType": "uint256"
            },
            {
              "name": "eventEndTime",
              "type": "uint256",
              "internalType": "uint256"
            },
            {
              "name": "ticketPrice",
              "type": "uint96",
              "internalType": "uint96"
            },
            {
              "name": "totalSales",
              "type": "uint256",
              "internalType": "uint256"
            },
            {
              "name": "createdAt",
              "type": "uint256",
              "internalType": "uint256"
            },
            {
              "name": "isCreatorPaid",
              "type": "bool",
              "internalType": "bool"
            },
            {
              "name": "hasMinted",
              "type": "bool",
              "internalType": "bool"
            }
          ]
        }
      ],
      "stateMutability": "view"
    },
    {
      "type": "function",
      "name": "getAllGroupMessages",
      "inputs": [
        {
          "name": "_eventId",
          "type": "uint32",
          "internalType": "uint32"
        }
      ],
      "outputs": [
        {
          "name": "",
          "type": "tuple[]",
          "internalType": "struct BlumaProtocol.Message[]",
          "components": [
            {
              "name": "sender",
              "type": "address",
              "internalType": "address"
            },
            {
              "name": "email",
              "type": "string",
              "internalType": "string"
            },
            {
              "name": "text",
              "type": "string",
              "internalType": "string"
            },
            {
              "name": "timestamp",
              "type": "uint256",
              "internalType": "uint256"
            }
          ]
        }
      ],
      "stateMutability": "view"
    },
    {
      "type": "function",
      "name": "getAllTickets",
      "inputs": [],
      "outputs": [
        {
          "name": "_tickets",
          "type": "tuple[]",
          "internalType": "struct BlumaProtocol.Ticket[]",
          "components": [
            {
              "name": "ticketId",
              "type": "uint32",
              "internalType": "uint32"
            },
            {
              "name": "eventId",
              "type": "uint32",
              "internalType": "uint32"
            },
            {
              "name": "owner",
              "type": "address",
              "internalType": "address"
            },
            {
              "name": "ticketCost",
              "type": "uint256",
              "internalType": "uint256"
            },
            {
              "name": "purchaseTime",
              "type": "uint256",
              "internalType": "uint256"
            },
            {
              "name": "numberOfTicket",
              "type": "uint32",
              "internalType": "uint32"
            }
          ]
        }
      ],
      "stateMutability": "view"
    },
    {
      "type": "function",
      "name": "getAllUser",
      "inputs": [],
      "outputs": [
        {
          "name": "",
          "type": "tuple[]",
          "internalType": "struct BlumaProtocol.User[]",
          "components": [
            {
              "name": "email",
              "type": "string",
              "internalType": "string"
            },
            {
              "name": "userAddr",
              "type": "address",
              "internalType": "address"
            },
            {
              "name": "isRegistered",
              "type": "bool",
              "internalType": "bool"
            },
            {
              "name": "avatar",
              "type": "string",
              "internalType": "string"
            },
            {
              "name": "balance",
              "type": "uint256",
              "internalType": "uint256"
            }
          ]
        }
      ],
      "stateMutability": "view"
    },
    {
      "type": "function",
      "name": "getEventById",
      "inputs": [
        {
          "name": "_eventId",
          "type": "uint32",
          "internalType": "uint32"
        }
      ],
      "outputs": [
        {
          "name": "events_",
          "type": "tuple",
          "internalType": "struct BlumaProtocol.Event",
          "components": [
            {
              "name": "eventId",
              "type": "uint32",
              "internalType": "uint32"
            },
            {
              "name": "title",
              "type": "string",
              "internalType": "string"
            },
            {
              "name": "imageUrl",
              "type": "string",
              "internalType": "string"
            },
            {
              "name": "location",
              "type": "string",
              "internalType": "string"
            },
            {
              "name": "description",
              "type": "string",
              "internalType": "string"
            },
            {
              "name": "creator",
              "type": "address",
              "internalType": "address"
            },
            {
              "name": "seats",
              "type": "uint32",
              "internalType": "uint32"
            },
            {
              "name": "capacity",
              "type": "uint32",
              "internalType": "uint32"
            },
            {
              "name": "regStartTime",
              "type": "uint256",
              "internalType": "uint256"
            },
            {
              "name": "regEndTime",
              "type": "uint256",
              "internalType": "uint256"
            },
            {
              "name": "groups",
              "type": "tuple",
              "internalType": "struct BlumaProtocol.EventGroup",
              "components": [
                {
                  "name": "eventId",
                  "type": "uint32",
                  "internalType": "uint32"
                },
                {
                  "name": "title",
                  "type": "string",
                  "internalType": "string"
                },
                {
                  "name": "imageUrl",
                  "type": "string",
                  "internalType": "string"
                },
                {
                  "name": "description",
                  "type": "string",
                  "internalType": "string"
                },
                {
                  "name": "members",
                  "type": "tuple[]",
                  "internalType": "struct BlumaProtocol.Member[]",
                  "components": [
                    {
                      "name": "user",
                      "type": "address",
                      "internalType": "address"
                    },
                    {
                      "name": "joinTime",
                      "type": "uint256",
                      "internalType": "uint256"
                    }
                  ]
                },
                {
                  "name": "messages",
                  "type": "tuple[]",
                  "internalType": "struct BlumaProtocol.Message[]",
                  "components": [
                    {
                      "name": "sender",
                      "type": "address",
                      "internalType": "address"
                    },
                    {
                      "name": "email",
                      "type": "string",
                      "internalType": "string"
                    },
                    {
                      "name": "text",
                      "type": "string",
                      "internalType": "string"
                    },
                    {
                      "name": "timestamp",
                      "type": "uint256",
                      "internalType": "uint256"
                    }
                  ]
                }
              ]
            },
            {
              "name": "regStatus",
              "type": "uint8",
              "internalType": "enum BlumaProtocol.RegStatus"
            },
            {
              "name": "eventStatus",
              "type": "uint8",
              "internalType": "enum BlumaProtocol.EventStatus"
            },
            {
              "name": "eventType",
              "type": "uint8",
              "internalType": "enum BlumaProtocol.EventType"
            },
            {
              "name": "nftUrl",
              "type": "string",
              "internalType": "string"
            },
            {
              "name": "eventStartTime",
              "type": "uint256",
              "internalType": "uint256"
            },
            {
              "name": "eventEndTime",
              "type": "uint256",
              "internalType": "uint256"
            },
            {
              "name": "ticketPrice",
              "type": "uint96",
              "internalType": "uint96"
            },
            {
              "name": "totalSales",
              "type": "uint256",
              "internalType": "uint256"
            },
            {
              "name": "createdAt",
              "type": "uint256",
              "internalType": "uint256"
            },
            {
              "name": "isCreatorPaid",
              "type": "bool",
              "internalType": "bool"
            },
            {
              "name": "hasMinted",
              "type": "bool",
              "internalType": "bool"
            }
          ]
        }
      ],
      "stateMutability": "view"
    },
    {
      "type": "function",
      "name": "getEventGroup",
      "inputs": [
        {
          "name": "_eventId",
          "type": "uint32",
          "internalType": "uint32"
        }
      ],
      "outputs": [
        {
          "name": "",
          "type": "tuple",
          "internalType": "struct BlumaProtocol.EventGroup",
          "components": [
            {
              "name": "eventId",
              "type": "uint32",
              "internalType": "uint32"
            },
            {
              "name": "title",
              "type": "string",
              "internalType": "string"
            },
            {
              "name": "imageUrl",
              "type": "string",
              "internalType": "string"
            },
            {
              "name": "description",
              "type": "string",
              "internalType": "string"
            },
            {
              "name": "members",
              "type": "tuple[]",
              "internalType": "struct BlumaProtocol.Member[]",
              "components": [
                {
                  "name": "user",
                  "type": "address",
                  "internalType": "address"
                },
                {
                  "name": "joinTime",
                  "type": "uint256",
                  "internalType": "uint256"
                }
              ]
            },
            {
              "name": "messages",
              "type": "tuple[]",
              "internalType": "struct BlumaProtocol.Message[]",
              "components": [
                {
                  "name": "sender",
                  "type": "address",
                  "internalType": "address"
                },
                {
                  "name": "email",
                  "type": "string",
                  "internalType": "string"
                },
                {
                  "name": "text",
                  "type": "string",
                  "internalType": "string"
                },
                {
                  "name": "timestamp",
                  "type": "uint256",
                  "internalType": "uint256"
                }
              ]
            }
          ]
        }
      ],
      "stateMutability": "view"
    },
    {
      "type": "function",
      "name": "getEventNFTs",
      "inputs": [
        {
          "name": "_eventId",
          "type": "uint32",
          "internalType": "uint32"
        }
      ],
      "outputs": [
        {
          "name": "",
          "type": "uint256[]",
          "internalType": "uint256[]"
        }
      ],
      "stateMutability": "view"
    },
    {
      "type": "function",
      "name": "getGroupMember",
      "inputs": [
        {
          "name": "_groupId",
          "type": "uint32",
          "internalType": "uint32"
        },
        {
          "name": "_index",
          "type": "uint256",
          "internalType": "uint256"
        }
      ],
      "outputs": [
        {
          "name": "",
          "type": "tuple",
          "internalType": "struct BlumaProtocol.Member",
          "components": [
            {
              "name": "user",
              "type": "address",
              "internalType": "address"
            },
            {
              "name": "joinTime",
              "type": "uint256",
              "internalType": "uint256"
            }
          ]
        }
      ],
      "stateMutability": "view"
    },
    {
      "type": "function",
      "name": "getGroupMembers",
      "inputs": [
        {
          "name": "_eventId",
          "type": "uint32",
          "internalType": "uint32"
        }
      ],
      "outputs": [
        {
          "name": "",
          "type": "tuple[]",
          "internalType": "struct BlumaProtocol.Member[]",
          "components": [
            {
              "name": "user",
              "type": "address",
              "internalType": "address"
            },
            {
              "name": "joinTime",
              "type": "uint256",
              "internalType": "uint256"
            }
          ]
        }
      ],
      "stateMutability": "view"
    },
    {
      "type": "function",
      "name": "getTicket",
      "inputs": [
        {
          "name": "_addr",
          "type": "address",
          "internalType": "address"
        }
      ],
      "outputs": [
        {
          "name": "_ticket",
          "type": "tuple",
          "internalType": "struct BlumaProtocol.Ticket",
          "components": [
            {
              "name": "ticketId",
              "type": "uint32",
              "internalType": "uint32"
            },
            {
              "name": "eventId",
              "type": "uint32",
              "internalType": "uint32"
            },
            {
              "name": "owner",
              "type": "address",
              "internalType": "address"
            },
            {
              "name": "ticketCost",
              "type": "uint256",
              "internalType": "uint256"
            },
            {
              "name": "purchaseTime",
              "type": "uint256",
              "internalType": "uint256"
            },
            {
              "name": "numberOfTicket",
              "type": "uint32",
              "internalType": "uint32"
            }
          ]
        }
      ],
      "stateMutability": "view"
    },
    {
      "type": "function",
      "name": "getUser",
      "inputs": [
        {
          "name": "_addr",
          "type": "address",
          "internalType": "address"
        }
      ],
      "outputs": [
        {
          "name": "_user",
          "type": "tuple",
          "internalType": "struct BlumaProtocol.User",
          "components": [
            {
              "name": "email",
              "type": "string",
              "internalType": "string"
            },
            {
              "name": "userAddr",
              "type": "address",
              "internalType": "address"
            },
            {
              "name": "isRegistered",
              "type": "bool",
              "internalType": "bool"
            },
            {
              "name": "avatar",
              "type": "string",
              "internalType": "string"
            },
            {
              "name": "balance",
              "type": "uint256",
              "internalType": "uint256"
            }
          ]
        }
      ],
      "stateMutability": "view"
    },
    {
      "type": "function",
      "name": "getUserNFTs_",
      "inputs": [
        {
          "name": "_user",
          "type": "address",
          "internalType": "address"
        }
      ],
      "outputs": [
        {
          "name": "",
          "type": "uint256[]",
          "internalType": "uint256[]"
        }
      ],
      "stateMutability": "view"
    },
    {
      "type": "function",
      "name": "groupChat",
      "inputs": [
        {
          "name": "_eventId",
          "type": "uint32",
          "internalType": "uint32"
        },
        {
          "name": "_text",
          "type": "string",
          "internalType": "string"
        }
      ],
      "outputs": [],
      "stateMutability": "nonpayable"
    },
    {
      "type": "function",
      "name": "hasPurchasedTicket",
      "inputs": [
        {
          "name": "_user",
          "type": "address",
          "internalType": "address"
        },
        {
          "name": "_eventId",
          "type": "uint32",
          "internalType": "uint32"
        }
      ],
      "outputs": [
        {
          "name": "",
          "type": "bool",
          "internalType": "bool"
        }
      ],
      "stateMutability": "view"
    },
    {
      "type": "function",
      "name": "initialize",
      "inputs": [
        {
          "name": "initialOwner",
          "type": "address",
          "internalType": "address"
        },
        {
          "name": "_blumaToken",
          "type": "address",
          "internalType": "address"
        },
        {
          "name": "_blumaNFT",
          "type": "address",
          "internalType": "address"
        }
      ],
      "outputs": [],
      "stateMutability": "nonpayable"
    },
    {
      "type": "function",
      "name": "isRegistered",
      "inputs": [
        {
          "name": "_addr",
          "type": "address",
          "internalType": "address"
        }
      ],
      "outputs": [
        {
          "name": "",
          "type": "bool",
          "internalType": "bool"
        }
      ],
      "stateMutability": "view"
    },
    {
      "type": "function",
      "name": "joinGroup",
      "inputs": [
        {
          "name": "_eventId",
          "type": "uint32",
          "internalType": "uint32"
        }
      ],
      "outputs": [],
      "stateMutability": "nonpayable"
    },
    {
      "type": "function",
      "name": "mintNFTsForAttendees",
      "inputs": [
        {
          "name": "_eventId",
          "type": "uint32",
          "internalType": "uint32"
        }
      ],
      "outputs": [],
      "stateMutability": "nonpayable"
    },
    {
      "type": "function",
      "name": "mintNft",
      "inputs": [
        {
          "name": "_eventId",
          "type": "uint32",
          "internalType": "uint32"
        },
        {
          "name": "_nftUrl",
          "type": "string",
          "internalType": "string"
        }
      ],
      "outputs": [],
      "stateMutability": "nonpayable"
    },
    {
      "type": "function",
      "name": "owner",
      "inputs": [],
      "outputs": [
        {
          "name": "",
          "type": "address",
          "internalType": "address"
        }
      ],
      "stateMutability": "view"
    },
    {
      "type": "function",
      "name": "proxiableUUID",
      "inputs": [],
      "outputs": [
        {
          "name": "",
          "type": "bytes32",
          "internalType": "bytes32"
        }
      ],
      "stateMutability": "view"
    },
    {
      "type": "function",
      "name": "purchaseTicket",
      "inputs": [
        {
          "name": "_eventId",
          "type": "uint32",
          "internalType": "uint32"
        },
        {
          "name": "_numberOfTickets",
          "type": "uint32",
          "internalType": "uint32"
        }
      ],
      "outputs": [],
      "stateMutability": "nonpayable"
    },
    {
      "type": "function",
      "name": "refundFee",
      "inputs": [
        {
          "name": "_eventId",
          "type": "uint32",
          "internalType": "uint32"
        },
        {
          "name": "_numberOfTickets",
          "type": "uint32",
          "internalType": "uint32"
        }
      ],
      "outputs": [],
      "stateMutability": "nonpayable"
    },
    {
      "type": "function",
      "name": "renounceOwnership",
      "inputs": [],
      "outputs": [],
      "stateMutability": "nonpayable"
    },
    {
      "type": "function",
      "name": "transferOwnership",
      "inputs": [
        {
          "name": "newOwner",
          "type": "address",
          "internalType": "address"
        }
      ],
      "outputs": [],
      "stateMutability": "nonpayable"
    },
    {
      "type": "function",
      "name": "updateEventStatus",
      "inputs": [
        {
          "name": "_eventId",
          "type": "uint32",
          "internalType": "uint32"
        }
      ],
      "outputs": [],
      "stateMutability": "nonpayable"
    },
    {
      "type": "function",
      "name": "upgradeToAndCall",
      "inputs": [
        {
          "name": "newImplementation",
          "type": "address",
          "internalType": "address"
        },
        {
          "name": "data",
          "type": "bytes",
          "internalType": "bytes"
        }
      ],
      "outputs": [],
      "stateMutability": "payable"
    },
    {
      "type": "function",
      "name": "withdrawEventFee",
      "inputs": [
        {
          "name": "_eventId",
          "type": "uint32",
          "internalType": "uint32"
        }
      ],
      "outputs": [],
      "stateMutability": "nonpayable"
    },
    {
      "type": "event",
      "name": "AttendeesNFTMinted",
      "inputs": [
        {
          "name": "owner",
          "type": "address",
          "indexed": true,
          "internalType": "address"
        },
        {
          "name": "eventId",
          "type": "uint32",
          "indexed": true,
          "internalType": "uint32"
        },
        {
          "name": "numberOfTickets",
          "type": "uint32",
          "indexed": false,
          "internalType": "uint32"
        },
        {
          "name": "tokenId",
          "type": "uint256",
          "indexed": true,
          "internalType": "uint256"
        }
      ],
      "anonymous": false
    },
    {
      "type": "event",
      "name": "EventClosed",
      "inputs": [
        {
          "name": "_eventId",
          "type": "uint32",
          "indexed": true,
          "internalType": "uint32"
        },
        {
          "name": "_currentTime",
          "type": "uint256",
          "indexed": true,
          "internalType": "uint256"
        }
      ],
      "anonymous": false
    },
    {
      "type": "event",
      "name": "EventCreated",
      "inputs": [
        {
          "name": "_totalEventsId",
          "type": "uint32",
          "indexed": true,
          "internalType": "uint32"
        },
        {
          "name": "_seatNumber",
          "type": "uint32",
          "indexed": true,
          "internalType": "uint32"
        },
        {
          "name": "_capacity",
          "type": "uint32",
          "indexed": true,
          "internalType": "uint32"
        }
      ],
      "anonymous": false
    },
    {
      "type": "event",
      "name": "GroupCreated",
      "inputs": [
        {
          "name": "_roomId",
          "type": "uint32",
          "indexed": true,
          "internalType": "uint32"
        },
        {
          "name": "imageUrl",
          "type": "string",
          "indexed": false,
          "internalType": "string"
        },
        {
          "name": "_title",
          "type": "bytes32",
          "indexed": false,
          "internalType": "bytes32"
        }
      ],
      "anonymous": false
    },
    {
      "type": "event",
      "name": "GroupJoinedSuccessfully",
      "inputs": [
        {
          "name": "_sender",
          "type": "address",
          "indexed": true,
          "internalType": "address"
        },
        {
          "name": "_eventId",
          "type": "uint32",
          "indexed": true,
          "internalType": "uint32"
        },
        {
          "name": "_joinedTimw",
          "type": "uint256",
          "indexed": true,
          "internalType": "uint256"
        }
      ],
      "anonymous": false
    },
    {
      "type": "event",
      "name": "Initialized",
      "inputs": [
        {
          "name": "version",
          "type": "uint64",
          "indexed": false,
          "internalType": "uint64"
        }
      ],
      "anonymous": false
    },
    {
      "type": "event",
      "name": "MessageSent",
      "inputs": [
        {
          "name": "sender",
          "type": "address",
          "indexed": true,
          "internalType": "address"
        },
        {
          "name": "groupId",
          "type": "uint32",
          "indexed": true,
          "internalType": "uint32"
        },
        {
          "name": "text",
          "type": "string",
          "indexed": false,
          "internalType": "string"
        },
        {
          "name": "timestamp",
          "type": "uint256",
          "indexed": false,
          "internalType": "uint256"
        }
      ],
      "anonymous": false
    },
    {
      "type": "event",
      "name": "OwnershipTransferred",
      "inputs": [
        {
          "name": "previousOwner",
          "type": "address",
          "indexed": true,
          "internalType": "address"
        },
        {
          "name": "newOwner",
          "type": "address",
          "indexed": true,
          "internalType": "address"
        }
      ],
      "anonymous": false
    },
    {
      "type": "event",
      "name": "RefundIssued",
      "inputs": [
        {
          "name": "buyer",
          "type": "address",
          "indexed": true,
          "internalType": "address"
        },
        {
          "name": "_ticketId",
          "type": "uint32",
          "indexed": true,
          "internalType": "uint32"
        },
        {
          "name": "_eventId",
          "type": "uint32",
          "indexed": true,
          "internalType": "uint32"
        },
        {
          "name": "amount",
          "type": "uint256",
          "indexed": false,
          "internalType": "uint256"
        }
      ],
      "anonymous": false
    },
    {
      "type": "event",
      "name": "RegistrationClose",
      "inputs": [
        {
          "name": "_currentTime",
          "type": "uint256",
          "indexed": true,
          "internalType": "uint256"
        },
        {
          "name": "_status",
          "type": "uint8",
          "indexed": true,
          "internalType": "uint8"
        }
      ],
      "anonymous": false
    },
    {
      "type": "event",
      "name": "TicketPurchased",
      "inputs": [
        {
          "name": "buyer",
          "type": "address",
          "indexed": true,
          "internalType": "address"
        },
        {
          "name": "_eventId",
          "type": "uint32",
          "indexed": true,
          "internalType": "uint32"
        },
        {
          "name": "numberOfTickets",
          "type": "uint32",
          "indexed": false,
          "internalType": "uint32"
        }
      ],
      "anonymous": false
    },
    {
      "type": "event",
      "name": "Upgraded",
      "inputs": [
        {
          "name": "implementation",
          "type": "address",
          "indexed": true,
          "internalType": "address"
        }
      ],
      "anonymous": false
    },
    {
      "type": "error",
      "name": "ALREADY_A_MEMBER",
      "inputs": []
    },
    {
      "type": "error",
      "name": "ALREADY_PAID",
      "inputs": []
    },
    {
      "type": "error",
      "name": "AddressEmptyCode",
      "inputs": [
        {
          "name": "target",
          "type": "address",
          "internalType": "address"
        }
      ]
    },
    {
      "type": "error",
      "name": "EMPTY_INPUT_FIELD",
      "inputs": []
    },
    {
      "type": "error",
      "name": "ERC1967InvalidImplementation",
      "inputs": [
        {
          "name": "implementation",
          "type": "address",
          "internalType": "address"
        }
      ]
    },
    {
      "type": "error",
      "name": "ERC1967NonPayable",
      "inputs": []
    },
    {
      "type": "error",
      "name": "EVENT_NOT_CLOSED",
      "inputs": []
    },
    {
      "type": "error",
      "name": "FailedInnerCall",
      "inputs": []
    },
    {
      "type": "error",
      "name": "GROUP_ALREADY_EXISTS",
      "inputs": []
    },
    {
      "type": "error",
      "name": "INSUFFICIENT_BALANCE",
      "inputs": []
    },
    {
      "type": "error",
      "name": "INSUFFICIENT_TICKET_PURCHASED",
      "inputs": []
    },
    {
      "type": "error",
      "name": "INVALID_EVENT_ID",
      "inputs": []
    },
    {
      "type": "error",
      "name": "INVALID_ID",
      "inputs": []
    },
    {
      "type": "error",
      "name": "INVALID_NOT_AUTHORIZED",
      "inputs": []
    },
    {
      "type": "error",
      "name": "InvalidInitialization",
      "inputs": []
    },
    {
      "type": "error",
      "name": "NFT_ALREADY_MINTED",
      "inputs": []
    },
    {
      "type": "error",
      "name": "NOT_CREATOR",
      "inputs": []
    },
    {
      "type": "error",
      "name": "NOT_ENOUGH_AVAILABLE_SEAT",
      "inputs": []
    },
    {
      "type": "error",
      "name": "NOT_OWNER",
      "inputs": []
    },
    {
      "type": "error",
      "name": "NOT_PAID_EVENT",
      "inputs": []
    },
    {
      "type": "error",
      "name": "NO_ALLOWANCE",
      "inputs": []
    },
    {
      "type": "error",
      "name": "NotInitializing",
      "inputs": []
    },
    {
      "type": "error",
      "name": "OwnableInvalidOwner",
      "inputs": [
        {
          "name": "owner",
          "type": "address",
          "internalType": "address"
        }
      ]
    },
    {
      "type": "error",
      "name": "OwnableUnauthorizedAccount",
      "inputs": [
        {
          "name": "account",
          "type": "address",
          "internalType": "address"
        }
      ]
    },
    {
      "type": "error",
      "name": "REGISTRATION_CLOSE",
      "inputs": []
    },
    {
      "type": "error",
      "name": "REGISTRATION_NOT_CLOSED",
      "inputs": []
    },
    {
      "type": "error",
      "name": "REGISTRATION_NOT_OPEN",
      "inputs": []
    },
    {
      "type": "error",
      "name": "UUPSUnauthorizedCallContext",
      "inputs": []
    },
    {
      "type": "error",
      "name": "UUPSUnsupportedProxiableUUID",
      "inputs": [
        {
          "name": "slot",
          "type": "bytes32",
          "internalType": "bytes32"
        }
      ]
    }
  ],
  "bytecode": {
    "object": "0x60a0806040523461002a57306080526148d1908161003082396080518181816113a101526114e30152f35b600080fdfe6080604052600436101561001257600080fd5b60e060003560e01c90816303e96fe3146133db5781630a9bfef51461339e5781630f9fcf48146130d15781631755b97a14612ff657816317f69df614612f9d5781631e2cb13114612f1c57816325f3724b146123cd578163277ec3d414612248578163331ef97614611f1c5781633405741d14611a935781633809f6f514611a305781634717dea9146119be57816347531df8146118d457816348862857146116c25781634f1ef2861461149457816350312c9e1461140b57816352d1902d1461138e578163654a3c6d1461118b5781636f77926b14611116578163715018a6146110ac57816385a646c91461101c5781638da5cb5b14610fe65781638fd9baca14610e2d578163909fdec914610d43578163a87f86f914610d22578163ad3cb1cc14610cdc578163b33f650e14610b78578163be7fb5d71461099d578163c0c53b8b1461082b578163c27a500d1461056c57508063c3c5a54714610527578063cd71ed351461034e578063ec976a0a146102d5578063eec932f7146101d15763f2fde38b146101a157600080fd5b346101cc5760203660031901126101cc576101ca6101bd6134f2565b6101c561479e565b6146f7565b005b600080fd5b346101cc576020806003193601126101cc576101eb61351e565b906101f58261476b565b63ffffffff809216918260005260028252604060002090815416156102c3573360005260068252604060002083600052825260ff604060002054166102b15761025d90600c61024261477e565b9160405192610250846135ee565b338452858401520161445e565b336000526006815260406000209082600052526040600020600160ff1982541617905561028861477e565b90337ff11404c60069f7d8b6ecebb855f6ac5080f851b85152f4cb855640c49a30c2dd600080a4005b60405163cea6102760e01b8152600490fd5b6040516316a7994d60e21b8152600490fd5b346101cc5760203660031901126101cc576102ee61351e565b6102f78161476b565b63ffffffff80911660005260026020526040600020908154161561033c57610324600c61033892016142fc565b6040519182916020835260208301906136ec565b0390f35b60405163e955b73b60e01b8152600490fd5b346101cc5760203660031901126101cc5761033861036a61351e565b610372613d7d565b5061037c8161476b565b63ffffffff809116600052600260205260ff60156040600020604051936103a28561363f565b8082541685526040516103c3816103bc8160018701613b6a565b038261365b565b60208601526040516103dc816103bc8160028701613b6a565b60408601526040516103f5816103bc8160038701613b6a565b606086015260405161040e816103bc8160048701613b6a565b6080860152600582015460018060a01b03811660a0870152818160a01c1660c087015260c01c1660e08501526006810154610100850152600781015461012085015261045c60088201614352565b6101408501526104a083600e830154818116610477816138fd565b610160880152818160081c1661048c816138fd565b61018088015260101c166101a08601613e24565b6040516104b4816103bc81600f8601613b6a565b6101c085015260108101546101e085015260118101546102008501526001600160601b03601282015416610220850152601381015461024085015260148101546102608501520154818116151561028084015260081c1615156102a0820152604051918291602083526020830190613907565b346101cc5760203660031901126101cc576001600160a01b036105486134f2565b166000526001602052602060ff60016040600020015460a01c166040519015158152f35b346101cc5760003660031901126101cc5763ffffffff9081600054169161059283614692565b9060009060015b8181168681116107825760005260026020908082526040600020908482541692836105d1575b505050506105cc906146e2565b610599565b926105cc9496926103bc6106226107729461077897604051956105f38761363f565b8652604051906106118261060a8160018a01613b6a565b038361365b565b860152604051928380928601613b6a565b604083015260405161063b816103bc8160038601613b6a565b6060830152604051610654816103bc8160048601613b6a565b608083015286600582015460a060018060a01b03821681860152828260c0921c16818601521c168a8301526006810154610100830152600781015461012083015260086106a2818301614352565b6101408401526015600e8301549260ff938481166106bf816138fd565b6101608701528481851c166106d3816138fd565b6101808701526106ed85601092831c166101a08801613e24565b604051610701816103bc81600f8701613b6a565b6101c08701528101546101e086015260118101546102008601526001600160601b036012820154166102208601526013810154610240860152601481015461026086015201549082821615156102808501521c1615156102a08201528583169061076b828a6141d7565b52876141d7565b506146e2565b92908780806105bf565b50508091169161079183614692565b9260005b838116828110156107cc5784916107c4826107b2600194886141d7565b516107bd828b6141d7565b52886141d7565b500116610795565b6040805160208082528851818301819052600093600582901b8401810192808c01929185015b8287106107ff5785850386f35b90919293828061081b600193603f198a82030186528851613907565b96019201960195929190926107f2565b346101cc5760603660031901126101cc576108446134f2565b61084c613508565b6001600160a01b03919060443583811691908290036101cc577ff0c57e16840df040f15088dc2f81fe391c3923bec73e23a9662efc9c229c6a0093845460ff8160401c1615946001600160401b03821680159081610995575b600114908161098b575b159081610982575b506109705767ffffffffffffffff19821660011787556108e89186610951575b506108e06147d7565b6101c56147d7565b6108f06147d7565b6001600160601b0360a01b911681600c541617600c55600d541617600d5561091457005b68ff00000000000000001981541690557fc7f505b2f371ae2175ee4913f4499e1f2633a7b5936321eed1cdaeb6115181d2602060405160018152a1005b68ffffffffffffffffff191668010000000000000001178755876108d7565b60405163f92ee8a960e01b8152600490fd5b905015886108b7565b303b1591506108af565b8791506108a5565b346101cc576109ab366138a4565b916109b58161476b565b60016109c2368585613697565b5110610b665763ffffffff809116928360005260209260028452604060002092835416156102c35760058301546001600160a01b03163314610b3e575b3360005260068452604060002085600052845260ff6040600020541615610b2c5760405192610a2d84613624565b60008452600d8585019160608352604086016060815261060a6060880194600086523360005260018a52610a6b604060002060405193848092613b6a565b52338752610a7a368787613697565b9052610a8461477e565b83520190815491600160401b831015610b165760018301808255831015610b00577fd643c4cb96915f246339ac52f899dfc112f2ccf8254cca6b9cb9d0b8f0276e1095610af493610ae092600052886000209060021b01613fc9565b5191604051936040855260408501916145bf565b938201528033930390a3005b634e487b7160e01b600052603260045260246000fd5b634e487b7160e01b600052604160045260246000fd5b60405163082e385d60e01b8152600490fd5b336000526006845260406000208560005284526040600020600160ff198254161790556109ff565b604051631ee8943b60e21b8152600490fd5b346101cc576020806003193601126101cc57610b9261351e565b610b9b8161476b565b63ffffffff8116600052600282526040600020903360005260018352610bc56040600020916145e0565b600160ff600e84015460081c16610bdb816138fd565b03610cca5760058201546001600160a01b03903390821603610cb857601583019081549060ff8216610ca65760038694610c6494600160136000990195898754975560ff191617905501610c308382546142c8565b9055600c5460405163a9059cbb60e01b81523360048201526024810193909352919485939190921691839182906044820190565b03925af18015610c9a57610c7457005b816101ca92903d10610c93575b610c8b818361365b565b810190613b18565b503d610c81565b6040513d6000823e3d90fd5b60405163d2e53ca760e01b8152600490fd5b604051632cff942760e01b8152600490fd5b604051631988a70d60e01b8152600490fd5b346101cc5760003660031901126101cc57610338604051610cfc816135ee565b60058152640352e302e360dc1b6020820152604051918291602083526020830190613544565b346101cc5760203660031901126101cc576101ca610d3e61351e565b6145e0565b346101cc5760003660031901126101cc57600954610d6081613a75565b90610d6e604051928361365b565b808252602090818301908160096000527f6e1540171b6c0c960b71a7020d9f60077f6af931a8bbf590da0223dacf75c7af6000915b838310610e0a5750505050604051918083019381845251809452604083019360408160051b85010192916000955b828710610dde5785850386f35b909192938280610dfa600193603f198a8203018652885161373f565b9601920196019592919092610dd1565b600686600192610e1c859a999a614352565b815201920192019190959495610da3565b346101cc57610e3b366138a4565b90916001808310610b665763ffffffff80921680600052602090600260205260406000209384541680156102c35760058501546001600160a01b03959086163303610b2c5784610ec191600394600052600760205260406000209363ffffffff1985541617845560028401336001600160601b0360a01b825416179055018583016141eb565b01916001600160401b038511610b16578490610ee782610ee18654613b30565b86613e47565b600092601f8311600114610f7d57505080610f1892600091610f72575b508160011b916000199060031b1c19161790565b90555b600d541691823b156101cc57610f599260009283604051809681958294636902622f60e11b84523360048501526040602485015260448401916145bf565b03925af18015610c9a57610f6957005b6101ca906135db565b905086013587610f04565b91601f939193198116856000526020600020936000905b86838310610fcc5750505010610fb2575b505083811b019055610f1b565b860135600019600387901b60f8161c191690558580610fa5565b8b8601358755909501949384019389935090810190610f94565b346101cc5760003660031901126101cc5760008051602061487c833981519152546040516001600160a01b039091168152602090f35b346101cc5760403660031901126101cc5761103561351e565b63ffffffff602435916000602060405161104e816135ee565b828152015261105c8161476b565b16600052600460205260046040600020019081548110156102c35761108661108c91604093614442565b506142d5565b815181516001600160a01b0316815260209182015191810191909152f35bf35b346101cc5760003660031901126101cc576110c561479e565b60008051602061487c83398151915280546001600160a01b031981169091556000906001600160a01b03167f8be0079c531659141344cd1fd0a4f28419497f9722a3daafe3b4186f6b6457e08280a3005b346101cc5760203660031901126101cc5761112f6134f2565b6000608060405161113f81613609565b60608152826020820152826040820152606080820152015260018060a01b0316600052600160205261033861117760406000206143d9565b604051918291602083526020830190613851565b346101cc5760203660031901126101cc5763ffffffff806111aa61351e565b1660005260026020526040600020818154169182156102c3576005820180546001600160a01b03939084163303610b2c57600881019263ffffffff199586855416178455600982019261120060018401856141eb565b600a83019661121260028501896141eb565b611250600b850197611227600487018a6141eb565b600c860193541661123661477e565b60405191611243836135ee565b825260208201528361445e565b600954600160401b811015610b16576001810180600955811015610b005760069060096000520296877f6e1540171b6c0c960b71a7020d9f60077f6af931a8bbf590da0223dacf75c7af01938785036112a557005b6101ca9961130e600d986113869761135e96611336957f6e1540171b6c0c960b71a7020d9f60077f6af931a8bbf590da0223dacf75c7b49d5416908254161790557f6e1540171b6c0c960b71a7020d9f60077f6af931a8bbf590da0223dacf75c7b08c016141eb565b7f6e1540171b6c0c960b71a7020d9f60077f6af931a8bbf590da0223dacf75c7b18a016141eb565b7f6e1540171b6c0c960b71a7020d9f60077f6af931a8bbf590da0223dacf75c7b288016141eb565b7f6e1540171b6c0c960b71a7020d9f60077f6af931a8bbf590da0223dacf75c7b386016144ab565b019101614525565b346101cc5760003660031901126101cc577f00000000000000000000000000000000000000000000000000000000000000006001600160a01b031630036113f95760206040517f360894a13ba1a3210667c828492db98dca3e2076cc3735a920a3ca505d382bbc8152f35b60405163703e46dd60e11b8152600490fd5b346101cc5760003660031901126101cc57600c546040516370a0823160e01b815230600482015290602090829060249082906001600160a01b03165afa8015610c9a57600090611461575b602090604051908152f35b506020813d60201161148c575b8161147b6020938361365b565b810103126101cc5760209051611456565b3d915061146e565b60403660031901126101cc576114a86134f2565b6024356001600160401b0381116101cc57366023820112156101cc576114d8903690602481600401359101613697565b906001600160a01b037f00000000000000000000000000000000000000000000000000000000000000008116308114908115611694575b506113f95761151c61479e565b6040516352d1902d60e01b8152908216916020918281600481875afa60009181611665575b5061155f57604051634c9c8ce360e01b815260048101859052602490fd5b9284937f360894a13ba1a3210667c828492db98dca3e2076cc3735a920a3ca505d382bbc9081810361164d5750823b156116345780546001600160a01b03191682179055604051907fbc7cd75a20ee27fd9adebab32041f755214dbc6bffa90cc0225b39da2e5c2d3b600080a283511561161a575060008084846101ca96519101845af4903d15611611573d6115f48161367c565b90611602604051928361365b565b8152600081943d92013e614818565b60609250614818565b925050503461162557005b63b398979f60e01b8152600490fd5b604051634c9c8ce360e01b815260048101839052602490fd5b60249060405190632a87526960e21b82526004820152fd5b9091508381813d831161168d575b61167d818361365b565b810103126101cc57519086611541565b503d611673565b9050817f360894a13ba1a3210667c828492db98dca3e2076cc3735a920a3ca505d382bbc541614158461150f565b346101cc576020806003193601126101cc5763ffffffff806116e261351e565b16806000526002835260406000209082825416156118c25761170261477e565b6007830154116118b057601582019260ff845460081c1661189e5760005b600a5481101561188f5782826117358361418e565b5054881c161480611870575b61174e575b600101611720565b600d546040516365507c9560e11b81526001600160a01b0391821692918882600481875afa918215610c9a57600092611841575b508061178d8461418e565b505460401c16843b156101cc57600090604051958691636902622f60e11b83526004830152604060248301528183816117cd8d600f604484019101613b6a565b03925af1908115610c9a576001948792611832575b506117ec8461418e565b505460401c167f66555f994e1af4e5e9289ab0b1a3dd45aa678a9d41cba0aa1f064e78f5d039828a8760036118208861418e565b50015416604051908152a49050611746565b61183b906135db565b8a6117e2565b9091508881813d8311611869575b611859818361365b565b810103126101cc57519089611782565b503d61184f565b5061187a8161418e565b505460401c6001600160a01b03161515611741565b845461ff001916610100178555005b60405163c1d7938360e01b8152600490fd5b604051630f036da960e21b8152600490fd5b60405163b790ffed60e01b8152600490fd5b346101cc5760003660031901126101cc57600b546118f181613a75565b906118ff604051928361365b565b8082526020908183019081600b6000527f0175b7a638427703f0dbe7bb9bbf987a2551717b34e79f33b5b1008d1fa01db96000915b83831061199b5750505050604051918083019381845251809452604083019360408160051b85010192916000955b82871061196f5785850386f35b90919293828061198b600193603f198a82030186528851613851565b9601920196019592919092611962565b6004866001926119ad859a999a6143d9565b815201920192019190959495611934565b346101cc5760203660031901126101cc576119d76134f2565b600060a06040516119e7816135c0565b828152826020820152826040820152826060820152826080820152015260018060a01b0316600052600360205260c0611a236040600020613a8c565b6110aa60405180926134a9565b346101cc5760203660031901126101cc57611a4961351e565b611a51613d4b565b5063ffffffff80911660005260026020526040600020908154161561033c57611a7f60086103389201614352565b60405191829160208352602083019061373f565b346101cc5760403660031901126101cc57611aac61351e565b611ab4613531565b611abd8261476b565b63ffffffff918281169283600052602090600282526040600020600e810160ff815416611ae9816138fd565b611f0a5760058201611b24611b048886845460a01c16613d33565b825463ffffffff60a01b191660a09190911b63ffffffff60a01b16178255565b5483808260c01c169160a01c1611611ef85760005467ffffffff00000000611b4f8583881c16613d1e565b861b169067ffffffff00000000191617600055336000526003845260406000209160ff6000925460101c166002811015611ee25715611d4d575b506000548254600160401b600160e01b031991861c85169190911667ffffffff00000001600160e01b0319909116173360401b600160401b600160e01b031617825563ffffffff1990611c08611bdd61477e565b9660028501978855849067ffffffff0000000082549160201b169067ffffffff000000001916179055565b611c17600184019182546142c8565b8155600383019283548386611c2e8b828516613d33565b169116178455600a54600160401b811015610b1657806001611c539201600a5561418e565b611d37577fc541e3defd92fd2d8306e9c91b36c15f096115c41c7a9a36ac548a487d8891aa978693838303611cb9575b50505050505050336000526005825260406000208560005282526040600020600160ff19825416179055604051931683523392a3005b83548354871690861617808455845467ffffffff0000000019909116908a1c861660201b67ffffffff0000000016178355600393611d1490548454600160401b600160e01b031916600160401b600160e01b03909116178455565b546001830155546002820155019254169082541617905585808281808080611c83565b634e487b7160e01b600052600060045260246000fd5b90506001600160601b03611d6981601284015416858916613ae4565b169060018060a01b03600c5416906040516370a0823160e01b81523360048201528681602481865afa8015610c9a578491600091611eb1575b5010611e9f57604051636eb1769f60e11b81523360048201523060248201528681604481865afa8015610c9a578491600091611e6e575b5010611e5c57856000926064604051809581936323b872dd60e01b83523360048401523060248401528860448401525af1918215610c9a57601392611e3f575b5001611e268282546142c8565b905560018201611e378282546142c8565b905587611b89565b611e5590873d8911610c9357610c8b818361365b565b5089611e19565b60405163ea75ebd560e01b8152600490fd5b809250888092503d8311611e98575b611e87818361365b565b810103126101cc578390518b611dd9565b503d611e7d565b604051632858f9ab60e11b8152600490fd5b809250888092503d8311611edb575b611eca818361365b565b810103126101cc578390518b611da2565b503d611ec0565b634e487b7160e01b600052602160045260246000fd5b6040516374a227cd60e01b8152600490fd5b6040516305fb6d9960e41b8152600490fd5b346101cc5760603660031901126101cc576001600160401b036004358181116101cc57611f4d9036906004016136ce565b90611f56613508565b6044358281116101cc57611f6e9036906004016136ce565b9260019182825110610b665782855110610b665760018060a01b038091169283600052602095818752604060002093805190878211610b1657611fbb82611fb58854613b30565b88613e47565b8890601f83116001146121e657611feb9291600091836121db575b50508160011b916000199060031b1c19161790565b84555b818401956affffffffffffffffffffff60a81b95600160a01b90878954161717875560028501978251918211610b16576120328261202c8b54613b30565b8b613e47565b80601f8311600114612177575081906120619360009261216c5750508160011b916000199060031b1c19161790565b86555b600b5490600160401b821015610b1657810180600b55811015610b0057600b60005260021b94857f0175b7a638427703f0dbe7bb9bbf987a2551717b34e79f33b5b1008d1fa01db901918383036120b757005b7f0175b7a638427703f0dbe7bb9bbf987a2551717b34e79f33b5b1008d1fa01dbc956003956120e986612165966141eb565b7f0175b7a638427703f0dbe7bb9bbf987a2551717b34e79f33b5b1008d1fa01dba89019282541690835492826001600160601b0360a01b851617855560ff8060a01b915460a01c16151560a01b169216171790557f0175b7a638427703f0dbe7bb9bbf987a2551717b34e79f33b5b1008d1fa01dbb86016141eb565b0154910155005b015190508980611fd6565b908493601f1984168b60005283600020936000905b8282106121c257505084116121a9575b505050811b018655612064565b015160001960f88460031b161c1916905588808061219c565b848401518655889790950194938401939081019061218c565b015190508a80611fd6565b849291601f19831691886000528b6000209260005b8d8282106122325750508411612219575b505050811b018455611fee565b015160001960f88460031b161c1916905589808061220c565b83850151865589979095019493840193016121fb565b346101cc576020806003193601126101cc5761226261351e565b600a5460009163ffffffff90811690835b83811061239b575061228484613a75565b93612292604051958661365b565b8085526122a1601f1991613a75565b0136602086013760009460005b8481106122c357604051806103388882613584565b83836122ce8361418e565b5054841c16146122e1575b6001016122ae565b600d546001600160a01b0390811696919592949193906000906123038861418e565b505460401c166024604051809a8193632118854760e21b835260048301525afa968715610c9a57600097612376575b506000975b8751891015612369576123616001916123508b8b6141d7565b5161235b82896141d7565b526141c8565b980197612337565b97509295509290936122d9565b6123949197503d806000833e61238c818361365b565b810190613ca5565b9588612332565b82826123a68361418e565b5054881c16146123b9575b600101612273565b936123c56001916141c8565b9490506123b1565b346101cc576101603660031901126101cc576004356001600160401b0381116101cc576123fe9036906004016136ce565b6024356001600160401b0381116101cc5761241d9036906004016136ce565b6044356001600160401b0381116101cc5761243c9036906004016136ce565b916064356001600160401b0381116101cc5761245c9036906004016136ce565b6084359363ffffffff851685036101cc5761012435936001600160601b03851685036101cc5761014435151561014435036101cc576001845110610b66576001815110610b66576001825110610b66576001835110610b665760c43560a43511610b66576101043560e43511610b66576000549363ffffffff6124e0818716613d1e565b16809563ffffffff1916176000556124f6613d7d565b9560a43561250261477e565b1015612f0f5760026101608801525b6101443515612ef95760006101a08801526001600160601b03166102208701525b8486526020860152604085015260808401523360a0840152606083015263ffffffff831660e083015260a43561010083015260c43561012083015260e4356101e083015261010435610200830152600261018083015261259061477e565b610260830152600052600260205260406000209063ffffffff81511663ffffffff1983541617825560208101519283516001600160401b038111610b16576125e8816125df6001870154613b30565b60018701613e47565b6020601f8211600114612e8a57819061261a93949596600092612d325750508160011b916000199060031b1c19161790565b60018401555b60408201519283516001600160401b038111610b1657612650816126476002850154613b30565b60028501613e47565b6020601f8211600114612e1b57819061268293949596600092612d325750508160011b916000199060031b1c19161790565b60028201555b60608301519283516001600160401b038111610b16576126b8816126af6003860154613b30565b60038601613e47565b6020601f8211600114612dac5781906126ea93949596600092612d325750508160011b916000199060031b1c19161790565b60038301555b60808101519283516001600160401b038111610b1657612720816127176004870154613b30565b60048701613e47565b6020601f8211600114612d3d57819061275293949596600092612d325750508160011b916000199060031b1c19161790565b60048401555b60a08281015160058501805460c08087015160e088015163ffffffff60c01b921b91909116941b63ffffffff60a01b166001600160a01b039093166001600160e01b0319909116179190911791909117905561010082015160068401556101208201516007840155610140820151805160088501805463ffffffff90921663ffffffff1990921691909117905560208101518051906001600160401b038211610b16576128158261280c6009890154613b30565b60098901613e47565b602090601f8311600114612cc057612845929160009183612b025750508160011b916000199060031b1c19161790565b60098501555b60408101518051906001600160401b038211610b165761287b82612872600a890154613b30565b600a8901613e47565b602090601f8311600114612c4e576128ab929160009183612b025750508160011b916000199060031b1c19161790565b600a8501555b60608101518051906001600160401b038211610b16576128e1826128d8600b890154613b30565b600b8901613e47565b602090601f8311600114612bdc57612911929160009183612b025750508160011b916000199060031b1c19161790565b600b8501555b6080810151602081519161292e83600c8901613e8e565b01600c860160005260206000206000915b838310612b9c575050505060a0600d85019101519060208251926129638484613f44565b019060005260206000206000915b838310612b7e575050505061016082015161298b816138fd565b612994816138fd565b600e840154610180840151906129a9826138fd565b6129b2826138fd565b6101a0850151906002821015611ee25760ff62ff000061ff009360101b1694169062ffffff1916179160081b161717600e8401556101c08201519283516001600160401b038111610b1657612a1781612a0e600f850154613b30565b600f8501613e47565b6020601f8211600114612b0d579080612a4b926015959697600092612b025750508160011b916000199060031b1c19161790565b600f8201555b6101e084015160108201556102008401516011820155601281016001600160601b03610220860151166001600160601b031982541617905561024084015160138201556102608401516014820155016102808301511515815460ff61ff006102a0870151151560081b1692169061ffff19161717905563ffffffff60c0818060005416931693015116907fac3c2fbb08f906d92c1b4be6fa025f63708bafa70869110e931d718b9532c411600080a4005b015190508780611fd6565b601f19821695600f840160005260206000209660005b818110612b66575091601595969791846001959410612b4d575b505050811b01600f820155612a51565b015160001960f88460031b161c19169055868080612b3d565b83830151895560019098019760209384019301612b23565b6004602082612b906001945186613fc9565b01920192019190612971565b6002602082612bd06001945186906020600191828060a01b038151166001600160601b0360a01b8554161784550151910155565b0192019201919061293f565b9190600b87016000526020600020906000935b601f1984168510612c33576001945083601f19811610612c1a575b505050811b01600b850155612917565b015160001960f88460031b161c19169055868080612c0a565b81810151835560209485019460019093019290910190612bef565b9190600a87016000526020600020906000935b601f1984168510612ca5576001945083601f19811610612c8c575b505050811b01600a8501556128b1565b015160001960f88460031b161c19169055868080612c7c565b81810151835560209485019460019093019290910190612c61565b9190600987016000526020600020906000935b601f1984168510612d17576001945083601f19811610612cfe575b505050811b01600985015561284b565b015160001960f88460031b161c19169055868080612cee565b81810151835560209485019460019093019290910190612cd3565b015190508680611fd6565b6004850160005260206000209060005b601f1984168110612d94575060019394959683601f19811610612d7b575b505050811b016004840155612758565b015160001960f88460031b161c19169055858080612d6b565b9091602060018192858b015181550193019101612d4d565b6003840160005260206000209060005b601f1984168110612e03575060019394959683601f19811610612dea575b505050811b0160038301556126f0565b015160001960f88460031b161c19169055858080612dda565b9091602060018192858b015181550193019101612dbc565b6002830160005260206000209060005b601f1984168110612e72575060019394959683601f19811610612e59575b505050811b016002820155612688565b015160001960f88460031b161c19169055858080612e49565b9091602060018192858b015181550193019101612e2b565b6001850160005260206000209060005b601f1984168110612ee1575060019394959683601f19811610612ec8575b505050811b016001840155612620565b015160001960f88460031b161c19169055858080612eb8565b9091602060018192858b015181550193019101612e9a565b50600061022087015260016101a0870152612532565b6000610160880152612511565b346101cc5760203660031901126101cc57612f356134f2565b600d54604051632118854760e21b81526001600160a01b0392831660048201529160009183916024918391165afa8015610c9a5761033891600091612f82575b5060405191829182613584565b612f9791503d806000833e61238c818361365b565b82612f75565b346101cc5760403660031901126101cc57612fb66134f2565b612fbe613531565b9060018060a01b0316600052600560205263ffffffff60406000209116600052602052602060ff604060002054166040519015158152f35b346101cc576020806003193601126101cc5763ffffffff8061301661351e565b16600052600282526040600020908154161561033c57600d6130389101613c00565b6040519082820192808352815180945260408301938160408260051b8601019301916000955b82871061306b5785850386f35b909192938280600192603f198982030185528751906130b76130a56080878060a01b03855116845285850151908087860152840190613544565b60408401518382036040850152613544565b91606080910151910152960192019601959291909261305e565b346101cc5760403660031901126101cc576130ea61351e565b6130f2613531565b906130fc8161476b565b63ffffffff9081811692836000526020926002845261311f60406000209361476b565b8460005260028452604060002061313461477e565b60078201541061333e575b503360005260038452604060002091600e84015460ff8160101c166002811015611ee25761332c5760ff16613173816138fd565b61331a5782546001600160a01b03919033604082901c84160361330857838891881c16036118c25760038401838154168483168091106132f6576013906131c96001600160601b03918260128b01541690613ae4565b1696613202600582016131e28689835460a01c16613b02565b815463ffffffff60a01b191660a09190911b63ffffffff60a01b16179055565b018054908782039182116132e0575583613220825493828516613b02565b16809263ffffffff1916179055156132bb575b600c5460405163a9059cbb60e01b8152336004820152602481018690529391869185916044918391600091165af1928315610c9a577f4f6fb365c29f3632d91fcd919dbfdf50155c34cd0ea613bd43e7e76529fec4359361329e575b505416926040519283523392a4005b6132b490863d8811610c9357610c8b818361365b565b508661328f565b33600052600585526040600020866000528552604060002060ff198154169055613233565b634e487b7160e01b600052601160045260246000fd5b60405163a2ed46e160e01b8152600490fd5b6040516338ebc58960e11b8152600490fd5b604051630738c50360e41b8152600490fd5b6040516380e4469160e01b8152600490fd5b600e018054600160ff8216613352816138fd565b0361335e575b5061313f565b60019060ff1916179055600161337261477e565b7f9c8ea6489f3baa31d321639e3a41ad67158fa673511a98870906b5a9eced0dd4600080a38580613358565b346101cc5760203660031901126101cc576001600160a01b036133bf6134f2565b1660005260016020526020600360406000200154604051908152f35b346101cc5760003660031901126101cc57600a546133f881613a75565b613405604051918261365b565b818152602090602081019283600a6000527fc65a7bb8d6351c1cf70c95a316cc6a92839c986682d98bc35f958f4883f9d2a86000915b83831061348c57604080516020808252875190820181905289928201908960005b8281106134695784840385f35b9091928260c08261347d6001948a516134a9565b0196019101949291909461345c565b60048660019261349b85613a8c565b81520192019201919061343b565b60a0908163ffffffff91828151168552826020820151166020860152600180831b0360408201511660408601526060810151606086015260808101516080860152015116910152565b600435906001600160a01b03821682036101cc57565b602435906001600160a01b03821682036101cc57565b6004359063ffffffff821682036101cc57565b6024359063ffffffff821682036101cc57565b919082519283825260005b848110613570575050826000602080949584010152601f8019910116010190565b60208183018101518483018201520161354f565b602090602060408183019282815285518094520193019160005b8281106135ac575050505090565b83518552938101939281019260010161359e565b60c081019081106001600160401b03821117610b1657604052565b6001600160401b038111610b1657604052565b604081019081106001600160401b03821117610b1657604052565b60a081019081106001600160401b03821117610b1657604052565b608081019081106001600160401b03821117610b1657604052565b6102c081019081106001600160401b03821117610b1657604052565b90601f801991011681019081106001600160401b03821117610b1657604052565b6001600160401b038111610b1657601f01601f191660200190565b9291926136a38261367c565b916136b1604051938461365b565b8294818452818301116101cc578281602093846000960137010152565b9080601f830112156101cc578160206136e993359101613697565b90565b90815180825260208080930193019160005b82811061370c575050505090565b909192938260408261373360019489516020809160018060a01b0381511684520151910152565b019501939291016136fe565b63ffffffff81511682526020906137638282015160c08486015260c0850190613544565b9161377c60409360408401518682036040880152613544565b9161379560609360608301518782036060890152613544565b9260a06137b0608095608085015189820360808b01526136ec565b9201519560a08184039101528551938483528383019184808760051b8601019801966000945b8786106137e95750505050505050505090565b9091929394959697988780600192601f198582030189528c5190848060a01b0382511681528780613838613828868601518d888701528d860190613544565b8a8601518582038c870152613544565b9301519101529b019601960194979695939291906137d6565b9060808061389b61386b855160a0865260a0860190613544565b60018060a01b03602087015116602086015260408601511515604086015260608601518582036060870152613544565b93015191015290565b60406003198201126101cc5760043563ffffffff811681036101cc57916024356001600160401b03928382116101cc57806023830112156101cc5781600401359384116101cc57602484830101116101cc576024019190565b60031115611ee257565b906139c46102c061397061395e61394c61393a63ffffffff948589511688526020890151908060208a0152880190613544565b60408801518782036040890152613544565b60608701518682036060880152613544565b60808601518582036080870152613544565b9060018060a01b0360a08601511660a08501528060c08601511660c085015260e08501511660e08401526101008085015190840152610120808501519084015261014080850151908483039085015261373f565b61016080840151906139d5826138fd565b83015261018080840151906139e9826138fd565b8301526101a090818401516002811015611ee257613a18928401526101c0808501519084830390850152613544565b916101e0808201519083015261020080820151908301526102206001600160601b0381830151169083015261024080820151908301526102608082015190830152610280808201511515908301526102a080910151151591015290565b6001600160401b038111610b165760051b60200190565b90604051613a99816135c0565b60a08193600381549163ffffffff928381168652838160201c166020870152600180861b039060401c1660408601526001810154606086015260028101546080860152015416910152565b9190916001600160601b03808094169116029182169182036132e057565b63ffffffff91821690821603919082116132e057565b908160209103126101cc575180151581036101cc5790565b90600182811c92168015613b60575b6020831014613b4a57565b634e487b7160e01b600052602260045260246000fd5b91607f1691613b3f565b805460009392613b7982613b30565b91828252602093600191600181169081600014613be15750600114613ba0575b5050505050565b90939495506000929192528360002092846000945b838610613bcd57505050500101903880808080613b99565b805485870183015294019385908201613bb5565b60ff19168685015250505090151560051b010191503880808080613b99565b908154613c0c81613a75565b92604093613c1d604051918261365b565b82815280946020809201926000526020600020906000935b858510613c4457505050505050565b6004846001928451613c5581613624565b848060a01b0387541681528551613c72816103bc81898c01613b6a565b838201528551613c89816103bc8160028c01613b6a565b8682015260038701546060820152815201930194019391613c35565b60209081818403126101cc578051906001600160401b0382116101cc57019180601f840112156101cc578251613cda81613a75565b93613ce8604051958661365b565b818552838086019260051b8201019283116101cc578301905b828210613d0f575050505090565b81518152908301908301613d01565b90600163ffffffff809316019182116132e057565b91909163ffffffff808094169116019182116132e057565b60405190613d58826135c0565b816000815260a060609182602082015282604082015282808201528260808201520152565b60405190613d8a8261363f565b816102a0600091828152606080602083015280604083015280808301528060808301528360a08301528360c08301528360e08301528361010083015283610120830152613dd5613d4b565b6101408301528361016083015283610180830152836101a08301526101c0820152826101e082015282610200820152826102208201528261024082015282610260820152826102808201520152565b6002821015611ee25752565b818110613e3b575050565b60008155600101613e30565b9190601f8111613e5657505050565b613e82926000526020600020906020601f840160051c83019310613e84575b601f0160051c0190613e30565b565b9091508190613e75565b600160401b8211610b16578054828255808310613eaa57505050565b6001906001600160ff1b0380821682036132e057841684036132e05760009260005260206000209060011b81019360011b015b838110613eea5750505050565b808360029255838382015501613edd565b613f058154613b30565b9081613f0f575050565b81601f60009311600114613f21575055565b908083918252613f40601f60208420940160051c840160018501613e30565b5555565b600160401b8211610b16578054828255808310613f6057505050565b6002906001600160fe1b0380821682036132e057841684036132e05760009260005260206000209060021b81019360021b015b838110613fa05750505050565b808360049255613fb260018201613efb565b613fbd838201613efb565b83600382015501613f93565b9060018060a01b038151166001600160601b0360a01b83541617825560018083016020808401519182516001600160401b0393848211610b1657614017826140118554613b30565b85613e47565b8390601f831160011461412c576140469291600091836140b25750508160011b916000199060031b1c19161790565b90555b60028501926040850151908151938411610b16576140718461406b8754613b30565b87613e47565b82601f85116001146140bd5750508260039593606095936140a8936000926140b25750508160011b916000199060031b1c19161790565b90555b0151910155565b015190503880611fd6565b91601f949391941984168660005283600020936000905b82821061411557505091600397959391856060989694106140fd575b505050811b0190556140ab565b015160001983891b60f8161c191690553880806140f0565b8088869782949787015181550196019401906140d4565b869291601f1983169185600052866000209260005b88828210614178575050841161415f575b505050811b019055614049565b015160001960f88460031b161c19169055388080614152565b8385015186558b97909501949384019301614141565b600a54811015610b0057600a60005260021b7fc65a7bb8d6351c1cf70c95a316cc6a92839c986682d98bc35f958f4883f9d2a80190600090565b60001981146132e05760010190565b8051821015610b005760209160051b010190565b908082146142c4576141fd8154613b30565b906001600160401b038211610b165761421a826140118554613b30565b600090601f83116001146142595761424a92916000918361424e5750508160011b916000199060031b1c19161790565b9055565b015490503880611fd6565b815260208082208483528183209291601f1985169083905b8282106142ab575050908460019594939210614292575b505050811b019055565b015460001960f88460031b161c19169055388080614288565b8495819295850154815560018091019601940190614271565b5050565b919082018092116132e057565b906040516142e2816135ee565b82546001600160a01b031681526001909201546020830152565b90815461430881613a75565b92614316604051948561365b565b818452600090815260208082208186015b848410614335575050505050565b600283600192614344856142d5565b815201920193019290614327565b9060405161435f816135c0565b60a06143d46005839563ffffffff8154168552604051614386816103bc8160018601613b6a565b602086015260405161439f816103bc8160028601613b6a565b60408601526040516143b8816103bc8160038601613b6a565b60608601526143c9600482016142fc565b608086015201613c00565b910152565b906040516143e681613609565b6080600382946040516143fd816103bc8185613b6a565b845260018101546001600160a01b038116602086015260a01c60ff16151560408086019190915251614436816103bc8160028601613b6a565b60608501520154910152565b8054821015610b005760005260206000209060011b0190600090565b8054600160401b811015610b165761447b91600182018155614442565b919091611d3757805182546001600160a01b0319166001600160a01b039190911617825560200151600190910155565b8181146142c4578154916144bf8383613e8e565b6000526020600020906000526020600020906000905b8382106144e25750505050565b8060019184036144fd575b60028091019301910190916144d5565b818060a01b038154166001600160601b0360a01b8554161784558180820154908501556144ed565b8181146142c4578154916145398383613f44565b6000526020600020906000526020600020906000905b83821061455c5750505050565b806001918403614577575b600480910193019101909161454f565b818060a01b038154166001600160601b0360a01b8554161784556145a0828083019086016141eb565b6145b060028083019086016141eb565b60038082015490850155614567565b908060209392818452848401376000828201840152601f01601f1916010190565b63ffffffff906145ef8161476b565b16806000526002602052604060002061460661477e565b601082015411158061467d575b1561462757600e01805461ff001916905550565b61462f61477e565b60118201541061463d575050565b600e01805461ff00191661010017905561465561477e565b907f835839f42ff642197e82f2887491db41a51c32dc7004091799724e9e3d6f2489600080a3565b5061468661477e565b60118201541015614613565b9061469c82613a75565b6146a9604051918261365b565b82815280926146ba601f1991613a75565b019060005b8281106146cb57505050565b6020906146d6613d7d565b828285010152016146bf565b63ffffffff8091169081146132e05760010190565b6001600160a01b039081169081156147525760008051602061487c83398151915280546001600160a01b031981168417909155167f8be0079c531659141344cd1fd0a4f28419497f9722a3daafe3b4186f6b6457e0600080a3565b604051631e4fbdf760e01b815260006004820152602490fd5b63ffffffff80600054169116116102c357565b6103e8804202904282048114421517156132e05781018091116132e05790565b60008051602061487c833981519152546001600160a01b031633036147bf57565b60405163118cdaa760e01b8152336004820152602490fd5b60ff7ff0c57e16840df040f15088dc2f81fe391c3923bec73e23a9662efc9c229c6a005460401c161561480657565b604051631afcd79f60e31b8152600490fd5b9061483f575080511561482d57805190602001fd5b604051630a12f52160e11b8152600490fd5b81511580614872575b614850575090565b604051639996b31560e01b81526001600160a01b039091166004820152602490fd5b50803b1561484856fe9016d09d72d40fdae2fd8ceac6b6234c7706214fd39c1cd1e609a0528c199300a2646970667358221220d570601443a0c7e6530491a0cacc0586a818edb682d227816b9d6ec9c467c3e464736f6c63430008180033",
    "linkReferences": {}
  },
  "methodIdentifiers": {
    "UPGRADE_INTERFACE_VERSION()": "ad3cb1cc",
    "checkContractBalance()": "50312c9e",
    "checkUserBalance(address)": "0a9bfef5",
    "createAccount(string,address,string)": "331ef976",
    "createEvent(string,string,string,string,uint32,uint256,uint256,uint256,uint256,uint96,bool)": "25f3724b",
    "createGroup(uint32)": "654a3c6d",
    "getAllEventGroups()": "909fdec9",
    "getAllEvents()": "c27a500d",
    "getAllGroupMessages(uint32)": "1755b97a",
    "getAllTickets()": "03e96fe3",
    "getAllUser()": "47531df8",
    "getEventById(uint32)": "cd71ed35",
    "getEventGroup(uint32)": "3809f6f5",
    "getEventNFTs(uint32)": "277ec3d4",
    "getGroupMember(uint32,uint256)": "85a646c9",
    "getGroupMembers(uint32)": "ec976a0a",
    "getTicket(address)": "4717dea9",
    "getUser(address)": "6f77926b",
    "getUserNFTs_(address)": "1e2cb131",
    "groupChat(uint32,string)": "be7fb5d7",
    "hasPurchasedTicket(address,uint32)": "17f69df6",
    "initialize(address,address,address)": "c0c53b8b",
    "isRegistered(address)": "c3c5a547",
    "joinGroup(uint32)": "eec932f7",
    "mintNFTsForAttendees(uint32)": "48862857",
    "mintNft(uint32,string)": "8fd9baca",
    "owner()": "8da5cb5b",
    "proxiableUUID()": "52d1902d",
    "purchaseTicket(uint32,uint32)": "3405741d",
    "refundFee(uint32,uint32)": "0f9fcf48",
    "renounceOwnership()": "715018a6",
    "transferOwnership(address)": "f2fde38b",
    "updateEventStatus(uint32)": "a87f86f9",
    "upgradeToAndCall(address,bytes)": "4f1ef286",
    "withdrawEventFee(uint32)": "b33f650e"
  },
  "id": 58
}