{
  "abi": [
    {
      "type": "function",
      "name": "UPGRADE_INTERFACE_VERSION",
      "inputs": [],
      "outputs": [
        {
          "name": "",
          "type": "string",
          "internalType": "string"
        }
      ],
      "stateMutability": "view"
    },
    {
      "type": "function",
      "name": "checkContractBalance",
      "inputs": [],
      "outputs": [
        {
          "name": "bal_",
          "type": "uint256",
          "internalType": "uint256"
        }
      ],
      "stateMutability": "view"
    },
    {
      "type": "function",
      "name": "checkUserBalance",
      "inputs": [
        {
          "name": "_addr",
          "type": "address",
          "internalType": "address"
        }
      ],
      "outputs": [
        {
          "name": "bal_",
          "type": "uint256",
          "internalType": "uint256"
        }
      ],
      "stateMutability": "view"
    },
    {
      "type": "function",
      "name": "createAccount",
      "inputs": [
        {
          "name": "_email",
          "type": "string",
          "internalType": "string"
        },
        {
          "name": "_addr",
          "type": "address",
          "internalType": "address"
        },
        {
          "name": "_avatar",
          "type": "string",
          "internalType": "string"
        }
      ],
      "outputs": [],
      "stateMutability": "nonpayable"
    },
    {
      "type": "function",
      "name": "createEvent",
      "inputs": [
        {
          "name": "_title",
          "type": "bytes32",
          "internalType": "bytes32"
        },
        {
          "name": "_imageUrl",
          "type": "string",
          "internalType": "string"
        },
        {
          "name": "_description",
          "type": "string",
          "internalType": "string"
        },
        {
          "name": "_location",
          "type": "string",
          "internalType": "string"
        },
        {
          "name": "_capacity",
          "type": "uint32",
          "internalType": "uint32"
        },
        {
          "name": "_regStartTime",
          "type": "uint256",
          "internalType": "uint256"
        },
        {
          "name": "_regEndTime",
          "type": "uint256",
          "internalType": "uint256"
        },
        {
          "name": "_eventStartTime",
          "type": "uint256",
          "internalType": "uint256"
        },
        {
          "name": "_eventEndTime",
          "type": "uint256",
          "internalType": "uint256"
        },
        {
          "name": "_ticketPrice",
          "type": "uint96",
          "internalType": "uint96"
        },
        {
          "name": "_isEventPaid",
          "type": "bool",
          "internalType": "bool"
        },
        {
          "name": "_nftUrl",
          "type": "string",
          "internalType": "string"
        }
      ],
      "outputs": [],
      "stateMutability": "nonpayable"
    },
    {
      "type": "function",
      "name": "getAllEventGroups",
      "inputs": [],
      "outputs": [
        {
          "name": "group_",
          "type": "tuple[]",
          "internalType": "struct BlumaProtocol.EventGroup[]",
          "components": [
            {
              "name": "eventId",
              "type": "uint32",
              "internalType": "uint32"
            },
            {
              "name": "title",
              "type": "bytes32",
              "internalType": "bytes32"
            },
            {
              "name": "imageUrl",
              "type": "string",
              "internalType": "string"
            },
            {
              "name": "description",
              "type": "string",
              "internalType": "string"
            },
            {
              "name": "members",
              "type": "tuple[]",
              "internalType": "struct BlumaProtocol.Member[]",
              "components": [
                {
                  "name": "user",
                  "type": "address",
                  "internalType": "address"
                },
                {
                  "name": "joinTime",
                  "type": "uint256",
                  "internalType": "uint256"
                }
              ]
            },
            {
              "name": "messages",
              "type": "tuple[]",
              "internalType": "struct BlumaProtocol.Message[]",
              "components": [
                {
                  "name": "sender",
                  "type": "address",
                  "internalType": "address"
                },
                {
                  "name": "email",
                  "type": "string",
                  "internalType": "string"
                },
                {
                  "name": "text",
                  "type": "string",
                  "internalType": "string"
                },
                {
                  "name": "timestamp",
                  "type": "uint256",
                  "internalType": "uint256"
                }
              ]
            }
          ]
        }
      ],
      "stateMutability": "view"
    },
    {
      "type": "function",
      "name": "getAllEvents",
      "inputs": [],
      "outputs": [
        {
          "name": "",
          "type": "tuple[]",
          "internalType": "struct BlumaProtocol.Event[]",
          "components": [
            {
              "name": "eventId",
              "type": "uint32",
              "internalType": "uint32"
            },
            {
              "name": "title",
              "type": "bytes32",
              "internalType": "bytes32"
            },
            {
              "name": "imageUrl",
              "type": "string",
              "internalType": "string"
            },
            {
              "name": "location",
              "type": "string",
              "internalType": "string"
            },
            {
              "name": "description",
              "type": "string",
              "internalType": "string"
            },
            {
              "name": "creator",
              "type": "address",
              "internalType": "address"
            },
            {
              "name": "seats",
              "type": "uint32",
              "internalType": "uint32"
            },
            {
              "name": "capacity",
              "type": "uint32",
              "internalType": "uint32"
            },
            {
              "name": "regStartTime",
              "type": "uint256",
              "internalType": "uint256"
            },
            {
              "name": "regEndTime",
              "type": "uint256",
              "internalType": "uint256"
            },
            {
              "name": "regStatus",
              "type": "uint8",
              "internalType": "enum BlumaProtocol.RegStatus"
            },
            {
              "name": "eventStatus",
              "type": "uint8",
              "internalType": "enum BlumaProtocol.EventStatus"
            },
            {
              "name": "eventType",
              "type": "uint8",
              "internalType": "enum BlumaProtocol.EventType"
            },
            {
              "name": "nftUrl",
              "type": "string",
              "internalType": "string"
            },
            {
              "name": "eventStartTime",
              "type": "uint256",
              "internalType": "uint256"
            },
            {
              "name": "eventEndTime",
              "type": "uint256",
              "internalType": "uint256"
            },
            {
              "name": "ticketPrice",
              "type": "uint96",
              "internalType": "uint96"
            },
            {
              "name": "totalSales",
              "type": "uint256",
              "internalType": "uint256"
            },
            {
              "name": "createdAt",
              "type": "uint256",
              "internalType": "uint256"
            },
            {
              "name": "isCreatorPaid",
              "type": "bool",
              "internalType": "bool"
            },
            {
              "name": "hasMinted",
              "type": "bool",
              "internalType": "bool"
            }
          ]
        }
      ],
      "stateMutability": "view"
    },
    {
      "type": "function",
      "name": "getAllGroupMessages",
      "inputs": [
        {
          "name": "_groupId",
          "type": "uint32",
          "internalType": "uint32"
        }
      ],
      "outputs": [
        {
          "name": "",
          "type": "tuple[]",
          "internalType": "struct BlumaProtocol.Message[]",
          "components": [
            {
              "name": "sender",
              "type": "address",
              "internalType": "address"
            },
            {
              "name": "email",
              "type": "string",
              "internalType": "string"
            },
            {
              "name": "text",
              "type": "string",
              "internalType": "string"
            },
            {
              "name": "timestamp",
              "type": "uint256",
              "internalType": "uint256"
            }
          ]
        }
      ],
      "stateMutability": "view"
    },
    {
      "type": "function",
      "name": "getAllTickets",
      "inputs": [],
      "outputs": [
        {
          "name": "_tickets",
          "type": "tuple[]",
          "internalType": "struct BlumaProtocol.Ticket[]",
          "components": [
            {
              "name": "ticketId",
              "type": "uint32",
              "internalType": "uint32"
            },
            {
              "name": "eventId",
              "type": "uint32",
              "internalType": "uint32"
            },
            {
              "name": "owner",
              "type": "address",
              "internalType": "address"
            },
            {
              "name": "ticketCost",
              "type": "uint256",
              "internalType": "uint256"
            },
            {
              "name": "purchaseTime",
              "type": "uint256",
              "internalType": "uint256"
            },
            {
              "name": "numberOfTicket",
              "type": "uint32",
              "internalType": "uint32"
            }
          ]
        }
      ],
      "stateMutability": "view"
    },
    {
      "type": "function",
      "name": "getAllUser",
      "inputs": [],
      "outputs": [
        {
          "name": "",
          "type": "tuple[]",
          "internalType": "struct BlumaProtocol.User[]",
          "components": [
            {
              "name": "email",
              "type": "string",
              "internalType": "string"
            },
            {
              "name": "userAddr",
              "type": "address",
              "internalType": "address"
            },
            {
              "name": "isRegistered",
              "type": "bool",
              "internalType": "bool"
            },
            {
              "name": "avatar",
              "type": "string",
              "internalType": "string"
            },
            {
              "name": "balance",
              "type": "uint256",
              "internalType": "uint256"
            }
          ]
        }
      ],
      "stateMutability": "view"
    },
    {
      "type": "function",
      "name": "getEventById",
      "inputs": [
        {
          "name": "_eventId",
          "type": "uint32",
          "internalType": "uint32"
        }
      ],
      "outputs": [
        {
          "name": "events_",
          "type": "tuple",
          "internalType": "struct BlumaProtocol.Event",
          "components": [
            {
              "name": "eventId",
              "type": "uint32",
              "internalType": "uint32"
            },
            {
              "name": "title",
              "type": "bytes32",
              "internalType": "bytes32"
            },
            {
              "name": "imageUrl",
              "type": "string",
              "internalType": "string"
            },
            {
              "name": "location",
              "type": "string",
              "internalType": "string"
            },
            {
              "name": "description",
              "type": "string",
              "internalType": "string"
            },
            {
              "name": "creator",
              "type": "address",
              "internalType": "address"
            },
            {
              "name": "seats",
              "type": "uint32",
              "internalType": "uint32"
            },
            {
              "name": "capacity",
              "type": "uint32",
              "internalType": "uint32"
            },
            {
              "name": "regStartTime",
              "type": "uint256",
              "internalType": "uint256"
            },
            {
              "name": "regEndTime",
              "type": "uint256",
              "internalType": "uint256"
            },
            {
              "name": "regStatus",
              "type": "uint8",
              "internalType": "enum BlumaProtocol.RegStatus"
            },
            {
              "name": "eventStatus",
              "type": "uint8",
              "internalType": "enum BlumaProtocol.EventStatus"
            },
            {
              "name": "eventType",
              "type": "uint8",
              "internalType": "enum BlumaProtocol.EventType"
            },
            {
              "name": "nftUrl",
              "type": "string",
              "internalType": "string"
            },
            {
              "name": "eventStartTime",
              "type": "uint256",
              "internalType": "uint256"
            },
            {
              "name": "eventEndTime",
              "type": "uint256",
              "internalType": "uint256"
            },
            {
              "name": "ticketPrice",
              "type": "uint96",
              "internalType": "uint96"
            },
            {
              "name": "totalSales",
              "type": "uint256",
              "internalType": "uint256"
            },
            {
              "name": "createdAt",
              "type": "uint256",
              "internalType": "uint256"
            },
            {
              "name": "isCreatorPaid",
              "type": "bool",
              "internalType": "bool"
            },
            {
              "name": "hasMinted",
              "type": "bool",
              "internalType": "bool"
            }
          ]
        }
      ],
      "stateMutability": "view"
    },
    {
      "type": "function",
      "name": "getEventGroup",
      "inputs": [
        {
          "name": "_groupId",
          "type": "uint32",
          "internalType": "uint32"
        }
      ],
      "outputs": [
        {
          "name": "group_",
          "type": "tuple",
          "internalType": "struct BlumaProtocol.EventGroup",
          "components": [
            {
              "name": "eventId",
              "type": "uint32",
              "internalType": "uint32"
            },
            {
              "name": "title",
              "type": "bytes32",
              "internalType": "bytes32"
            },
            {
              "name": "imageUrl",
              "type": "string",
              "internalType": "string"
            },
            {
              "name": "description",
              "type": "string",
              "internalType": "string"
            },
            {
              "name": "members",
              "type": "tuple[]",
              "internalType": "struct BlumaProtocol.Member[]",
              "components": [
                {
                  "name": "user",
                  "type": "address",
                  "internalType": "address"
                },
                {
                  "name": "joinTime",
                  "type": "uint256",
                  "internalType": "uint256"
                }
              ]
            },
            {
              "name": "messages",
              "type": "tuple[]",
              "internalType": "struct BlumaProtocol.Message[]",
              "components": [
                {
                  "name": "sender",
                  "type": "address",
                  "internalType": "address"
                },
                {
                  "name": "email",
                  "type": "string",
                  "internalType": "string"
                },
                {
                  "name": "text",
                  "type": "string",
                  "internalType": "string"
                },
                {
                  "name": "timestamp",
                  "type": "uint256",
                  "internalType": "uint256"
                }
              ]
            }
          ]
        }
      ],
      "stateMutability": "view"
    },
    {
      "type": "function",
      "name": "getEventNFTs",
      "inputs": [
        {
          "name": "_eventId",
          "type": "uint32",
          "internalType": "uint32"
        }
      ],
      "outputs": [
        {
          "name": "",
          "type": "uint256[]",
          "internalType": "uint256[]"
        }
      ],
      "stateMutability": "view"
    },
    {
      "type": "function",
      "name": "getGroupMember",
      "inputs": [
        {
          "name": "_groupId",
          "type": "uint32",
          "internalType": "uint32"
        },
        {
          "name": "_index",
          "type": "uint256",
          "internalType": "uint256"
        }
      ],
      "outputs": [
        {
          "name": "",
          "type": "tuple",
          "internalType": "struct BlumaProtocol.Member",
          "components": [
            {
              "name": "user",
              "type": "address",
              "internalType": "address"
            },
            {
              "name": "joinTime",
              "type": "uint256",
              "internalType": "uint256"
            }
          ]
        }
      ],
      "stateMutability": "view"
    },
    {
      "type": "function",
      "name": "getGroupMembers",
      "inputs": [
        {
          "name": "_eventId",
          "type": "uint32",
          "internalType": "uint32"
        }
      ],
      "outputs": [
        {
          "name": "_members",
          "type": "tuple[]",
          "internalType": "struct BlumaProtocol.Member[]",
          "components": [
            {
              "name": "user",
              "type": "address",
              "internalType": "address"
            },
            {
              "name": "joinTime",
              "type": "uint256",
              "internalType": "uint256"
            }
          ]
        }
      ],
      "stateMutability": "view"
    },
    {
      "type": "function",
      "name": "getTicket",
      "inputs": [
        {
          "name": "_addr",
          "type": "address",
          "internalType": "address"
        }
      ],
      "outputs": [
        {
          "name": "_ticket",
          "type": "tuple",
          "internalType": "struct BlumaProtocol.Ticket",
          "components": [
            {
              "name": "ticketId",
              "type": "uint32",
              "internalType": "uint32"
            },
            {
              "name": "eventId",
              "type": "uint32",
              "internalType": "uint32"
            },
            {
              "name": "owner",
              "type": "address",
              "internalType": "address"
            },
            {
              "name": "ticketCost",
              "type": "uint256",
              "internalType": "uint256"
            },
            {
              "name": "purchaseTime",
              "type": "uint256",
              "internalType": "uint256"
            },
            {
              "name": "numberOfTicket",
              "type": "uint32",
              "internalType": "uint32"
            }
          ]
        }
      ],
      "stateMutability": "view"
    },
    {
      "type": "function",
      "name": "getUser",
      "inputs": [
        {
          "name": "_addr",
          "type": "address",
          "internalType": "address"
        }
      ],
      "outputs": [
        {
          "name": "_user",
          "type": "tuple",
          "internalType": "struct BlumaProtocol.User",
          "components": [
            {
              "name": "email",
              "type": "string",
              "internalType": "string"
            },
            {
              "name": "userAddr",
              "type": "address",
              "internalType": "address"
            },
            {
              "name": "isRegistered",
              "type": "bool",
              "internalType": "bool"
            },
            {
              "name": "avatar",
              "type": "string",
              "internalType": "string"
            },
            {
              "name": "balance",
              "type": "uint256",
              "internalType": "uint256"
            }
          ]
        }
      ],
      "stateMutability": "view"
    },
    {
      "type": "function",
      "name": "getUserNFTs_",
      "inputs": [
        {
          "name": "_user",
          "type": "address",
          "internalType": "address"
        }
      ],
      "outputs": [
        {
          "name": "",
          "type": "uint256[]",
          "internalType": "uint256[]"
        }
      ],
      "stateMutability": "view"
    },
    {
      "type": "function",
      "name": "groupChat",
      "inputs": [
        {
          "name": "_groupId",
          "type": "uint32",
          "internalType": "uint32"
        },
        {
          "name": "_text",
          "type": "string",
          "internalType": "string"
        }
      ],
      "outputs": [],
      "stateMutability": "nonpayable"
    },
    {
      "type": "function",
      "name": "hasPurchasedTicket",
      "inputs": [
        {
          "name": "_user",
          "type": "address",
          "internalType": "address"
        },
        {
          "name": "_eventId",
          "type": "uint32",
          "internalType": "uint32"
        }
      ],
      "outputs": [
        {
          "name": "",
          "type": "bool",
          "internalType": "bool"
        }
      ],
      "stateMutability": "view"
    },
    {
      "type": "function",
      "name": "initialize",
      "inputs": [
        {
          "name": "initialOwner",
          "type": "address",
          "internalType": "address"
        },
        {
          "name": "_blumaToken",
          "type": "address",
          "internalType": "address"
        },
        {
          "name": "_blumaNFT",
          "type": "address",
          "internalType": "address"
        }
      ],
      "outputs": [],
      "stateMutability": "nonpayable"
    },
    {
      "type": "function",
      "name": "isRegistered",
      "inputs": [
        {
          "name": "_addr",
          "type": "address",
          "internalType": "address"
        }
      ],
      "outputs": [
        {
          "name": "",
          "type": "bool",
          "internalType": "bool"
        }
      ],
      "stateMutability": "view"
    },
    {
      "type": "function",
      "name": "joinGroup",
      "inputs": [
        {
          "name": "_eventId",
          "type": "uint32",
          "internalType": "uint32"
        }
      ],
      "outputs": [],
      "stateMutability": "nonpayable"
    },
    {
      "type": "function",
      "name": "mintNFTsForAttendees",
      "inputs": [
        {
          "name": "_eventId",
          "type": "uint32",
          "internalType": "uint32"
        }
      ],
      "outputs": [],
      "stateMutability": "nonpayable"
    },
    {
      "type": "function",
      "name": "owner",
      "inputs": [],
      "outputs": [
        {
          "name": "",
          "type": "address",
          "internalType": "address"
        }
      ],
      "stateMutability": "view"
    },
    {
      "type": "function",
      "name": "proxiableUUID",
      "inputs": [],
      "outputs": [
        {
          "name": "",
          "type": "bytes32",
          "internalType": "bytes32"
        }
      ],
      "stateMutability": "view"
    },
    {
      "type": "function",
      "name": "purchaseTicket",
      "inputs": [
        {
          "name": "_eventId",
          "type": "uint32",
          "internalType": "uint32"
        },
        {
          "name": "_numberOfTickets",
          "type": "uint32",
          "internalType": "uint32"
        }
      ],
      "outputs": [],
      "stateMutability": "nonpayable"
    },
    {
      "type": "function",
      "name": "refundFee",
      "inputs": [
        {
          "name": "_eventId",
          "type": "uint32",
          "internalType": "uint32"
        },
        {
          "name": "_numberOfTickets",
          "type": "uint32",
          "internalType": "uint32"
        }
      ],
      "outputs": [],
      "stateMutability": "nonpayable"
    },
    {
      "type": "function",
      "name": "renounceOwnership",
      "inputs": [],
      "outputs": [],
      "stateMutability": "nonpayable"
    },
    {
      "type": "function",
      "name": "transferOwnership",
      "inputs": [
        {
          "name": "newOwner",
          "type": "address",
          "internalType": "address"
        }
      ],
      "outputs": [],
      "stateMutability": "nonpayable"
    },
    {
      "type": "function",
      "name": "updateEventStatus",
      "inputs": [
        {
          "name": "_eventId",
          "type": "uint32",
          "internalType": "uint32"
        }
      ],
      "outputs": [],
      "stateMutability": "nonpayable"
    },
    {
      "type": "function",
      "name": "upgradeToAndCall",
      "inputs": [
        {
          "name": "newImplementation",
          "type": "address",
          "internalType": "address"
        },
        {
          "name": "data",
          "type": "bytes",
          "internalType": "bytes"
        }
      ],
      "outputs": [],
      "stateMutability": "payable"
    },
    {
      "type": "function",
      "name": "withdrawEventFee",
      "inputs": [
        {
          "name": "_eventId",
          "type": "uint32",
          "internalType": "uint32"
        }
      ],
      "outputs": [],
      "stateMutability": "nonpayable"
    },
    {
      "type": "event",
      "name": "AttendeesNFTMinted",
      "inputs": [
        {
          "name": "owner",
          "type": "address",
          "indexed": true,
          "internalType": "address"
        },
        {
          "name": "eventId",
          "type": "uint32",
          "indexed": true,
          "internalType": "uint32"
        },
        {
          "name": "numberOfTickets",
          "type": "uint32",
          "indexed": false,
          "internalType": "uint32"
        },
        {
          "name": "tokenId",
          "type": "uint256",
          "indexed": true,
          "internalType": "uint256"
        }
      ],
      "anonymous": false
    },
    {
      "type": "event",
      "name": "EventClosed",
      "inputs": [
        {
          "name": "_eventId",
          "type": "uint32",
          "indexed": true,
          "internalType": "uint32"
        },
        {
          "name": "_currentTime",
          "type": "uint256",
          "indexed": true,
          "internalType": "uint256"
        }
      ],
      "anonymous": false
    },
    {
      "type": "event",
      "name": "EventCreated",
      "inputs": [
        {
          "name": "_totalEventsId",
          "type": "uint32",
          "indexed": true,
          "internalType": "uint32"
        },
        {
          "name": "_seatNumber",
          "type": "uint32",
          "indexed": true,
          "internalType": "uint32"
        },
        {
          "name": "_capacity",
          "type": "uint32",
          "indexed": true,
          "internalType": "uint32"
        }
      ],
      "anonymous": false
    },
    {
      "type": "event",
      "name": "GroupCreated",
      "inputs": [
        {
          "name": "_roomId",
          "type": "uint32",
          "indexed": true,
          "internalType": "uint32"
        },
        {
          "name": "imageUrl",
          "type": "string",
          "indexed": false,
          "internalType": "string"
        },
        {
          "name": "_title",
          "type": "bytes32",
          "indexed": false,
          "internalType": "bytes32"
        }
      ],
      "anonymous": false
    },
    {
      "type": "event",
      "name": "GroupJoinedSuccessfully",
      "inputs": [
        {
          "name": "_sender",
          "type": "address",
          "indexed": true,
          "internalType": "address"
        },
        {
          "name": "_eventId",
          "type": "uint32",
          "indexed": true,
          "internalType": "uint32"
        },
        {
          "name": "_joinedTimw",
          "type": "uint256",
          "indexed": true,
          "internalType": "uint256"
        }
      ],
      "anonymous": false
    },
    {
      "type": "event",
      "name": "Initialized",
      "inputs": [
        {
          "name": "version",
          "type": "uint64",
          "indexed": false,
          "internalType": "uint64"
        }
      ],
      "anonymous": false
    },
    {
      "type": "event",
      "name": "MessageSent",
      "inputs": [
        {
          "name": "sender",
          "type": "address",
          "indexed": true,
          "internalType": "address"
        },
        {
          "name": "groupId",
          "type": "uint32",
          "indexed": true,
          "internalType": "uint32"
        },
        {
          "name": "text",
          "type": "string",
          "indexed": false,
          "internalType": "string"
        },
        {
          "name": "timestamp",
          "type": "uint256",
          "indexed": false,
          "internalType": "uint256"
        }
      ],
      "anonymous": false
    },
    {
      "type": "event",
      "name": "OwnershipTransferred",
      "inputs": [
        {
          "name": "previousOwner",
          "type": "address",
          "indexed": true,
          "internalType": "address"
        },
        {
          "name": "newOwner",
          "type": "address",
          "indexed": true,
          "internalType": "address"
        }
      ],
      "anonymous": false
    },
    {
      "type": "event",
      "name": "RefundIssued",
      "inputs": [
        {
          "name": "buyer",
          "type": "address",
          "indexed": true,
          "internalType": "address"
        },
        {
          "name": "_ticketId",
          "type": "uint32",
          "indexed": true,
          "internalType": "uint32"
        },
        {
          "name": "_eventId",
          "type": "uint32",
          "indexed": true,
          "internalType": "uint32"
        },
        {
          "name": "amount",
          "type": "uint256",
          "indexed": false,
          "internalType": "uint256"
        }
      ],
      "anonymous": false
    },
    {
      "type": "event",
      "name": "RegistrationClose",
      "inputs": [
        {
          "name": "_currentTime",
          "type": "uint256",
          "indexed": true,
          "internalType": "uint256"
        },
        {
          "name": "_status",
          "type": "uint8",
          "indexed": true,
          "internalType": "uint8"
        }
      ],
      "anonymous": false
    },
    {
      "type": "event",
      "name": "TicketPurchased",
      "inputs": [
        {
          "name": "buyer",
          "type": "address",
          "indexed": true,
          "internalType": "address"
        },
        {
          "name": "_eventId",
          "type": "uint32",
          "indexed": true,
          "internalType": "uint32"
        },
        {
          "name": "numberOfTickets",
          "type": "uint32",
          "indexed": false,
          "internalType": "uint32"
        }
      ],
      "anonymous": false
    },
    {
      "type": "event",
      "name": "Upgraded",
      "inputs": [
        {
          "name": "implementation",
          "type": "address",
          "indexed": true,
          "internalType": "address"
        }
      ],
      "anonymous": false
    },
    {
      "type": "error",
      "name": "ALREADY_A_MEMBER",
      "inputs": []
    },
    {
      "type": "error",
      "name": "ALREADY_PAID",
      "inputs": []
    },
    {
      "type": "error",
      "name": "AddressEmptyCode",
      "inputs": [
        {
          "name": "target",
          "type": "address",
          "internalType": "address"
        }
      ]
    },
    {
      "type": "error",
      "name": "EMPTY_INPUT_FIELD",
      "inputs": []
    },
    {
      "type": "error",
      "name": "ERC1967InvalidImplementation",
      "inputs": [
        {
          "name": "implementation",
          "type": "address",
          "internalType": "address"
        }
      ]
    },
    {
      "type": "error",
      "name": "ERC1967NonPayable",
      "inputs": []
    },
    {
      "type": "error",
      "name": "EVENT_NOT_CLOSED",
      "inputs": []
    },
    {
      "type": "error",
      "name": "FailedInnerCall",
      "inputs": []
    },
    {
      "type": "error",
      "name": "GROUP_ALREADY_EXISTS",
      "inputs": []
    },
    {
      "type": "error",
      "name": "INSUFFICIENT_BALANCE",
      "inputs": []
    },
    {
      "type": "error",
      "name": "INSUFFICIENT_TICKET_PURCHASED",
      "inputs": []
    },
    {
      "type": "error",
      "name": "INVALID_EVENT_ID",
      "inputs": []
    },
    {
      "type": "error",
      "name": "INVALID_ID",
      "inputs": []
    },
    {
      "type": "error",
      "name": "INVALID_NOT_AUTHORIZED",
      "inputs": []
    },
    {
      "type": "error",
      "name": "INVALID_TIME_SET",
      "inputs": []
    },
    {
      "type": "error",
      "name": "InvalidInitialization",
      "inputs": []
    },
    {
      "type": "error",
      "name": "NFT_ALREADY_MINTED",
      "inputs": []
    },
    {
      "type": "error",
      "name": "NOT_CREATOR",
      "inputs": []
    },
    {
      "type": "error",
      "name": "NOT_ENOUGH_AVAILABLE_SEAT",
      "inputs": []
    },
    {
      "type": "error",
      "name": "NOT_OWNER",
      "inputs": []
    },
    {
      "type": "error",
      "name": "NOT_PAID_EVENT",
      "inputs": []
    },
    {
      "type": "error",
      "name": "NO_ALLOWANCE",
      "inputs": []
    },
    {
      "type": "error",
      "name": "NotInitializing",
      "inputs": []
    },
    {
      "type": "error",
      "name": "OwnableInvalidOwner",
      "inputs": [
        {
          "name": "owner",
          "type": "address",
          "internalType": "address"
        }
      ]
    },
    {
      "type": "error",
      "name": "OwnableUnauthorizedAccount",
      "inputs": [
        {
          "name": "account",
          "type": "address",
          "internalType": "address"
        }
      ]
    },
    {
      "type": "error",
      "name": "REGISTRATION_CLOSE",
      "inputs": []
    },
    {
      "type": "error",
      "name": "REGISTRATION_NOT_CLOSED",
      "inputs": []
    },
    {
      "type": "error",
      "name": "REGISTRATION_NOT_OPEN",
      "inputs": []
    },
    {
      "type": "error",
      "name": "USER_NOT_REGISTERED",
      "inputs": []
    },
    {
      "type": "error",
      "name": "UUPSUnauthorizedCallContext",
      "inputs": []
    },
    {
      "type": "error",
      "name": "UUPSUnsupportedProxiableUUID",
      "inputs": [
        {
          "name": "slot",
          "type": "bytes32",
          "internalType": "bytes32"
        }
      ]
    }
  ],
  "bytecode": {
    "object": "0x60a0806040523461002a57306080526142b990816100308239608051818181611b3a0152611c7c0152f35b600080fdfe6080604052600436101561001257600080fd5b60e060003560e01c90816303e96fe31461301f5781630a9bfef514612fe25781630f9fcf4814612d155781631755b97a14612c3c57816317f69df614612be35781631e2cb13114612b62578163277ec3d4146129dd578163331ef976146126bc5781633405741d146122495781633809f6f5146121d05781634717dea91461215e57816347531df8146120745781634886285714611e5b5781634f1ef28614611c2d57816350312c9e14611ba457816352d1902d14611b275781636f77926b14611ab2578163715018a614611a4857816385a646c9146119b85781638da5cb5b14611982578163909fdec914611898578163a87f86f914611877578163ad3cb1cc14611831578163b33f650e146116d9578163be7fb5d714611326578163be85c72f1461093b578163c0c53b8b146107c9578163c27a500d1461053457508063c3c5a547146104ef578063cd71ed351461031a578063ec976a0a146102bf578063eec932f7146101bb5763f2fde38b1461018b57600080fd5b346101b65760203660031901126101b6576101b46101a7613136565b6101af613f28565b613e76565b005b600080fd5b346101b6576020806003193601126101b6576101d5613162565b906101df82613eea565b63ffffffff809216918260005260048252604060002090815416156102ad573360005260068252604060002083600052825260ff6040600020541661029b5761024790600461022c613f08565b916040519261023a8461324d565b3384528584015201613e28565b336000526006815260406000209082600052526040600020600160ff19825416179055610272613f08565b90337ff11404c60069f7d8b6ecebb855f6ac5080f851b85152f4cb855640c49a30c2dd600080a4005b60405163cea6102760e01b8152600490fd5b6040516316a7994d60e21b8152600490fd5b346101b65760203660031901126101b65763ffffffff6102dd613162565b6102e681613eea565b1660005260046020526103166103026004604060002001613b01565b604051918291602083526020830190613330565b0390f35b346101b65760203660031901126101b657610333613162565b61033b613d27565b5061034581613eea565b63ffffffff80911660005260026020526040600020906040519061036882613283565b808354168252600183015460208301526040516103938161038c8160028801613754565b038261329f565b60408301526040516103ac8161038c8160038801613754565b60608301526040516103c58161038c8160048801613754565b6080830152600583015460018060a01b03811660a0840152818160a01c1660c084015260c01c1660e08201526006820154610100820152600782015461012082015260ff600883015481811661041a81613509565b610140840152818160081c1661042f81613509565b61016084015260101c169160028310156104d957600f60ff91610316946101808501526040516104668161038c8160098601613754565b6101a0850152600a8101546101c0850152600b8101546101e08501526001600160601b03600c82015416610200850152600d810154610220850152600e8101546102408501520154818116151561026084015260081c161515610280820152604051918291602083526020830190613513565b634e487b7160e01b600052602160045260246000fd5b346101b65760203660031901126101b6576001600160a01b03610510613136565b166000526001602052602060ff60016040600020015460a01c166040519015158152f35b346101b65760003660031901126101b65763ffffffff9081600054169061055a82613dc3565b9060009060015b8581168581116107215760005260026020908082526040600020888154169283610598575b5050505061059390613e13565b610561565b604051949692936105a886613283565b85526001820154908501526040516105c68161038c81878601613754565b60408501526040516105df8161038c8160038601613754565b60608501526040516105f88161038c8160048601613754565b608085015288600582015460a060018060a01b03821681880152828260c0921c16818801521c1685850152600681015461010085015260078101546101208501526008938482015460ff818180931661065081613509565b6101408501528181891c1661066481613509565b61016085015260101c16948510156104d95761059395600f610711946107179761018086015260405161069e8161038c8160098601613754565b6101a0860152600a8101546101c0860152600b8101546101e08601526001600160601b03600c82015416610200860152600d810154610220860152600e81015461024086015201549082821615156102608501521c1615156102808201528983169061070a828a613951565b5287613951565b50613e13565b9290878080610586565b838716878661072f83613dc3565b9260005b8381168281101561076a5784916107628261075060019488613951565b5161075b828b613951565b5288613951565b500116610733565b6040805160208082528851818301819052600093600582901b8401810192808c01929185015b82871061079d5785850386f35b9091929382806107b9600193603f198a82030186528851613513565b9601920196019592919092610790565b346101b65760603660031901126101b6576107e2613136565b6107ea61314c565b6001600160a01b03919060443583811691908290036101b6577ff0c57e16840df040f15088dc2f81fe391c3923bec73e23a9662efc9c229c6a0093845460ff8160401c1615946001600160401b03821680159081610933575b6001149081610929575b159081610920575b5061090e5767ffffffffffffffff198216600117875561088691866108ef575b5061087e6141bf565b6101af6141bf565b61088e6141bf565b6001600160601b0360a01b911681600b541617600b55600c541617600c556108b257005b68ff00000000000000001981541690557fc7f505b2f371ae2175ee4913f4499e1f2633a7b5936321eed1cdaeb6115181d2602060405160018152a1005b68ffffffffffffffffff19166801000000000000000117875587610875565b60405163f92ee8a960e01b8152600490fd5b90501588610855565b303b15915061084d565b879150610843565b346101b6576101803660031901126101b6576024356001600160401b0381116101b65761096c9036906004016134dc565b906044356001600160401b0381116101b65761098c9036906004016134dc565b6064929192356001600160401b0381116101b6576109ae9036906004016134dc565b9163ffffffff60843516608435036101b65761012435946001600160601b03861686036101b657610144359687151588036101b6576001600160401b0361016435116101b657610a0436610164356004016134dc565b96909733600052600160205260ff60016040600020015460a01c161561131457610a37610a323687876132db565b613efd565b610a45610a32368a8c6132db565b610a53610a323685856132db565b610a61610a323689896132db565b610a6c60a435613f61565b610a7760c435613f61565b610a8260e435613f61565b610a8e61010435613f61565b610aa06001600160601b038216613f61565b600163ffffffff608435161061130257610abf6101043560e435613f6a565b610acd60c43560a435613f6a565b60005463ffffffff610ae0818316613aa0565b16809163ffffffff1916176000556000526002602052600160406000209a60a435610b09613f08565b10156112f15760088c01805460ff191660021790555b1515036112c15760088a0162ff00001981541690556001600160601b03600c8b0191166001600160601b03198254161790555b63ffffffff6000541663ffffffff198a541617895560043560018a01556001600160401b03821161109257610b9782610b8e60028c015461371a565b60028c0161397c565b600090601f831160011461125057610bc8929160009183611245575b50508160011b916000199060031b1c19161790565b60028801555b6001600160401b03821161109257610bf682610bed60048a015461371a565b60048a0161397c565b600090601f83116001146111d457610c269291600091836111c95750508160011b916000199060031b1c19161790565b60048601555b6005850180546001600160a01b031916331790556001600160401b03821161109257610c6882610c5f600388015461371a565b6003880161397c565b600090601f831160011461115857610c9892916000918361114d5750508160011b916000199060031b1c19161790565b60038401555b60058301805463ffffffff60c01b191660843560c01b63ffffffff60c01b1617905560a435600684015560c435600784015560e435600a84015561010435600b84015560088301805461ff001916610200179055610cfa613f08565b600e8401556001600160401b03811161109257610d2781610d1e600986015461371a565b6009860161397c565b600081601f81116001146110e05780610d56926000916110d5575b508160011b916000199060031b1c19161790565b60098401555b600c546001600160a01b031691823b156101b657610da29260009283604051809681958294636902622f60e11b8452336004850152604060248501526044840191613d06565b03925af180156110c9576110ba575b5063ffffffff815416610dc381613eea565b80600052600460205263ffffffff604060002054166110a8578060005260026020526040600020600460205260406000208263ffffffff1982541617815560018201546001820155610e1b60028301600283016139c3565b6003810191610e2d60048201846139c3565b60058101805460048401949190610e69906001600160a01b0316610e4f613f08565b60405191610e5c8361324d565b8252602082015286613e28565b546001600160a01b031660009081526006602090815260408083208884529091529020805460ff1916600117905560085492600160401b84101561109257600184018060085584101561107c577f45881a834c1c2b1081ee9f2063da43f83e3d9f2ba737ca954a4098d94bce97d5946006610f329560086000520291827ff3f7a9fe364faab93b216da50a3214154f22a0a2b415b23a84c8169e8b636ee30190808203610f7f575b50505050506001810154604051928392604084526002604085019101613754565b9060208301520390a263ffffffff6000541663ffffffff6005816084351693015460a01c16907fac3c2fbb08f906d92c1b4be6fa025f63708bafa70869110e931d718b9532c411600080a4005b61106a7ff3f7a9fe364faab93b216da50a3214154f22a0a2b415b23a84c8169e8b636ee8936110426110729760059563ffffffff86541663ffffffff1982541617905560018501547ff3f7a9fe364faab93b216da50a3214154f22a0a2b415b23a84c8169e8b636ee489015561101a600286017ff3f7a9fe364faab93b216da50a3214154f22a0a2b415b23a84c8169e8b636ee58a016139c3565b7ff3f7a9fe364faab93b216da50a3214154f22a0a2b415b23a84c8169e8b636ee688016139c3565b7ff3f7a9fe364faab93b216da50a3214154f22a0a2b415b23a84c8169e8b636ee78601613f84565b0191016140aa565b8580808080610f11565b634e487b7160e01b600052603260045260246000fd5b634e487b7160e01b600052604160045260246000fd5b60405163e955b73b60e01b8152600490fd5b6110c39061321f565b81610db1565b6040513d6000823e3d90fd5b905084013586610d42565b506009840160005260206000209060005b601f1984168110611135575082601f1981161061111b575b5050600181811b016009840155610d5c565b830135600019600384901b60f8161c191690558380611109565b909160206001819285880135815501930191016110f1565b013590508680610bb3565b600386939293016000526020600020906000935b601f19841685106111b1576001945083601f19811610611197575b505050811b016003840155610c9e565b0135600019600384901b60f8161c19169055858080611187565b8181013583556020948501946001909301920161116c565b013590508880610bb3565b600488939293016000526020600020906000935b601f198416851061122d576001945083601f19811610611213575b505050811b016004860155610c2c565b0135600019600384901b60f8161c19169055878080611203565b818101358355602094850194600190930192016111e8565b013590508a80610bb3565b60028a939293016000526020600020906000935b601f19841685106112a9576001945083601f1981161061128f575b505050811b016002880155610bce565b0135600019600384901b60f8161c1916905589808061127f565b81810135835560209485019460019093019201611264565b50600c890180546bffffffffffffffffffffffff1916905560088901805462ff0000191662010000179055610b52565b60088c01805460ff19169055610b1f565b604051631ee8943b60e21b8152600490fd5b604051633069384b60e21b8152600490fd5b346101b65760403660031901126101b65761133f613162565b6024356001600160401b0381116101b65761135e9036906004016134dc565b611369839293613eea565b611377610a323683866132db565b63ffffffff80921692836000526004602052604060002092835416156102ad5733600052600660205260406000208460005260205260ff60406000205416156116c7576040516113c681613268565b600081526005602082019460608652606060408401526000606084015233600052600160205261038c611403604060002060405192838092613754565b86523383526114133686866132db565b6040840152611420613f08565b60608401520190815491600160401b831015611092576001830180825583101561107c5760005260206000209460018060a01b038251166001600160601b0360a01b8460021b88015416178360021b870155518051906001600160401b038211611092576114a88261149a60018760021b8b01015461371a565b60018760021b8b010161397c565b602090601f831160011461164b576114d89291600091836116405750508160011b916000199060031b1c19161790565b60018360021b870101555b600282811b86010160408201518051906001600160401b038211611092576115158261150f855461371a565b8561397c565b602090601f83116001146115ac57936115939593611573846003956060957fd643c4cb96915f246339ac52f899dfc112f2ccf8254cca6b9cb9d0b8f0276e109c9b996000926115a15750508160011b916000199060031b1c19161790565b90555b015196879260021b01015560405192604084526040840191613d06565b9260208201528033930390a3005b015190508e80610bb3565b90601f198316918460005260206000209260005b8181106116285750846060947fd643c4cb96915f246339ac52f899dfc112f2ccf8254cca6b9cb9d0b8f0276e109b9a98946115939a989460039860019510611610575b505050811b019055611576565b015160001983891b60f8161c191690558d8080611603565b929360206001819287860151815501950193016115c0565b015190508980610bb3565b919060018560021b8901016000526020600020906000935b601f19841685106116ac576001945083601f19811610611693575b505050811b0160018360021b870101556114e3565b015160001960f88460031b161c1916905588808061167e565b81810151835560209485019460019093019290910190611663565b60405163082e385d60e01b8152600490fd5b346101b6576020806003193601126101b6576116f3613162565b6116fc81613eea565b63ffffffff8116600052600282526040600020903360005260018352611726604060002091613c54565b600160ff600884015460081c1661173c81613509565b0361181f5760058201546001600160a01b0390339082160361180d57600f83019081549060ff82166117fb57600386946117c5946001600d6000990195898754975560ff191617905501611791838254613acd565b9055600b5460405163a9059cbb60e01b81523360048201526024810193909352919485939190921691839182906044820190565b03925af180156110c9576117d557005b816101b492903d106117f4575b6117ec818361329f565b810190613702565b503d6117e2565b60405163d2e53ca760e01b8152600490fd5b604051632cff942760e01b8152600490fd5b604051631988a70d60e01b8152600490fd5b346101b65760003660031901126101b6576103166040516118518161324d565b60058152640352e302e360dc1b6020820152604051918291602083526020830190613188565b346101b65760203660031901126101b6576101b4611893613162565b613c54565b346101b65760003660031901126101b6576008546118b58161365f565b906118c3604051928361329f565b808252602090818301908160086000527ff3f7a9fe364faab93b216da50a3214154f22a0a2b415b23a84c8169e8b636ee36000915b83831061195f5750505050604051918083019381845251809452604083019360408160051b85010192916000955b8287106119335785850386f35b90919293828061194f600193603f198a82030186528851613383565b9601920196019592919092611926565b600686600192611971859a999a613b57565b8152019201920191909594956118f8565b346101b65760003660031901126101b657600080516020614264833981519152546040516001600160a01b039091168152602090f35b346101b65760403660031901126101b6576119d1613162565b63ffffffff60243591600060206040516119ea8161324d565b82815201526119f881613eea565b16600052600460205260046040600020019081548110156102ad57611a22611a2891604093613c38565b50613ada565b815181516001600160a01b0316815260209182015191810191909152f35bf35b346101b65760003660031901126101b657611a61613f28565b60008051602061426483398151915280546001600160a01b031981169091556000906001600160a01b03167f8be0079c531659141344cd1fd0a4f28419497f9722a3daafe3b4186f6b6457e08280a3005b346101b65760203660031901126101b657611acb613136565b60006080604051611adb81613232565b60608152826020820152826040820152606080820152015260018060a01b03166000526001602052610316611b136040600020613bcf565b604051918291602083526020830190613489565b346101b65760003660031901126101b6577f00000000000000000000000000000000000000000000000000000000000000006001600160a01b03163003611b925760206040517f360894a13ba1a3210667c828492db98dca3e2076cc3735a920a3ca505d382bbc8152f35b60405163703e46dd60e11b8152600490fd5b346101b65760003660031901126101b657600b546040516370a0823160e01b815230600482015290602090829060249082906001600160a01b03165afa80156110c957600090611bfa575b602090604051908152f35b506020813d602011611c25575b81611c146020938361329f565b810103126101b65760209051611bef565b3d9150611c07565b60403660031901126101b657611c41613136565b6024356001600160401b0381116101b657366023820112156101b657611c719036906024816004013591016132db565b906001600160a01b037f00000000000000000000000000000000000000000000000000000000000000008116308114908115611e2d575b50611b9257611cb5613f28565b6040516352d1902d60e01b8152908216916020918281600481875afa60009181611dfe575b50611cf857604051634c9c8ce360e01b815260048101859052602490fd5b9284937f360894a13ba1a3210667c828492db98dca3e2076cc3735a920a3ca505d382bbc90818103611de65750823b15611dcd5780546001600160a01b03191682179055604051907fbc7cd75a20ee27fd9adebab32041f755214dbc6bffa90cc0225b39da2e5c2d3b600080a2835115611db3575060008084846101b496519101845af4903d15611daa573d611d8d816132c0565b90611d9b604051928361329f565b8152600081943d92013e614200565b60609250614200565b9250505034611dbe57005b63b398979f60e01b8152600490fd5b604051634c9c8ce360e01b815260048101839052602490fd5b60249060405190632a87526960e21b82526004820152fd5b9091508381813d8311611e26575b611e16818361329f565b810103126101b657519086611cda565b503d611e0c565b9050817f360894a13ba1a3210667c828492db98dca3e2076cc3735a920a3ca505d382bbc5416141584611ca8565b346101b6576020806003193601126101b65763ffffffff9081611e7c613162565b168060005260028252604060002090838254161561206257611e9c613f08565b60078301541161205057600f82019360ff855460081c1661203e5760005b600990815481101561202f578383611ed183613908565b5054881c161480612010575b611eec575b6001915001611eba565b600c546040516365507c9560e11b81526001600160a01b03918216939091908883600481885afa9283156110c957600093611fe1575b5081611f2d85613908565b505460401c16853b156101b657611f6f95600092838b93604051998a9586948593636902622f60e11b8552600485015260406024850152604484019101613754565b03925af19081156110c9576001948792611fd2575b50611f8e84613908565b505460401c167f66555f994e1af4e5e9289ab0b1a3dd45aa678a9d41cba0aa1f064e78f5d0398289876003611fc288613908565b50015416604051908152a4611ee2565b611fdb9061321f565b8a611f84565b9092508881813d8311612009575b611ff9818361329f565b810103126101b65751918a611f22565b503d611fef565b5061201a81613908565b505460401c6001600160a01b03161515611edd565b865461ff001916610100178755005b60405163c1d7938360e01b8152600490fd5b604051630f036da960e21b8152600490fd5b60405163b790ffed60e01b8152600490fd5b346101b65760003660031901126101b657600a546120918161365f565b9061209f604051928361329f565b8082526020908183019081600a6000527fc65a7bb8d6351c1cf70c95a316cc6a92839c986682d98bc35f958f4883f9d2a86000915b83831061213b5750505050604051918083019381845251809452604083019360408160051b85010192916000955b82871061210f5785850386f35b90919293828061212b600193603f198a82030186528851613489565b9601920196019592919092612102565b60048660019261214d859a999a613bcf565b8152019201920191909594956120d4565b346101b65760203660031901126101b657612177613136565b600060a060405161218781613204565b828152826020820152826040820152826060820152826080820152015260018060a01b0316600052600360205260c06121c36040600020613676565b611a4660405180926130ed565b346101b65760203660031901126101b65763ffffffff6121ee613162565b606060a06040516121fe81613204565b6000815260006020820152826040820152828082015282608082015201521660005260046020526103166122356040600020613b57565b604051918291602083526020830190613383565b346101b65760403660031901126101b657612262613162565b61226a613175565b61227382613eea565b63ffffffff9182811692836000526020906002825260406000206008810160ff81541661229f81613509565b6126aa57600582016122da6122ba8886845460a01c16613ab5565b825463ffffffff60a01b191660a09190911b63ffffffff60a01b16178255565b5483808260c01c169160a01c16116126985760005467ffffffff000000006123058583881c16613aa0565b861b169067ffffffff00000000191617600055336000526003845260406000209160ff6000925460101c1660028110156104d95715612503575b506000548254600160401b600160e01b031991861c85169190911667ffffffff00000001600160e01b0319909116173360401b600160401b600160e01b031617825563ffffffff19906123be612393613f08565b9660028501978855849067ffffffff0000000082549160201b169067ffffffff000000001916179055565b6123cd60018401918254613acd565b81556003830192835483866123e48b828516613ab5565b169116178455600954600160401b811015611092578060016124099201600955613908565b6124ed577fc541e3defd92fd2d8306e9c91b36c15f096115c41c7a9a36ac548a487d8891aa97869383830361246f575b50505050505050336000526005825260406000208560005282526040600020600160ff19825416179055604051931683523392a3005b83548354871690861617808455845467ffffffff0000000019909116908a1c861660201b67ffffffff00000000161783556003936124ca90548454600160401b600160e01b031916600160401b600160e01b03909116178455565b546001830155546002820155019254169082541617905585808281808080612439565b634e487b7160e01b600052600060045260246000fd5b90506001600160601b0361251f81600c840154168589166136ce565b169060018060a01b03600b5416906040516370a0823160e01b81523360048201528681602481865afa80156110c9578491600091612667575b501061265557604051636eb1769f60e11b81523360048201523060248201528681604481865afa80156110c9578491600091612624575b501061261257856000926064604051809581936323b872dd60e01b83523360048401523060248401528860448401525af19182156110c957600d926125f5575b50016125dc828254613acd565b9055600182016125ed828254613acd565b90558761233f565b61260b90873d89116117f4576117ec818361329f565b50896125cf565b60405163ea75ebd560e01b8152600490fd5b809250888092503d831161264e575b61263d818361329f565b810103126101b6578390518b61258f565b503d612633565b604051632858f9ab60e11b8152600490fd5b809250888092503d8311612691575b612680818361329f565b810103126101b6578390518b612558565b503d612676565b6040516374a227cd60e01b8152600490fd5b6040516305fb6d9960e41b8152600490fd5b346101b65760603660031901126101b6576001600160401b036004358181116101b6576126ed903690600401613312565b906126f661314c565b6044358281116101b65761270e903690600401613312565b9261271881613efd565b61272184613efd565b60018060a01b03809216918260005260016020958187526040600020938051908782116110925761275c82612756885461371a565b8861397c565b8890601f831160011461297b5761278b9291600091836129705750508160011b916000199060031b1c19161790565b84555b818401956affffffffffffffffffffff60a81b95600160a01b90878954161717875560028501978251918211611092576127d2826127cc8b5461371a565b8b61397c565b80601f831160011461290c57508190612801936000926116405750508160011b916000199060031b1c19161790565b86555b600a5490600160401b82101561109257810180600a5581101561107c57600a60005260021b94857fc65a7bb8d6351c1cf70c95a316cc6a92839c986682d98bc35f958f4883f9d2a8019183830361285757005b7fc65a7bb8d6351c1cf70c95a316cc6a92839c986682d98bc35f958f4883f9d2ab9560039561288986612905966139c3565b7fc65a7bb8d6351c1cf70c95a316cc6a92839c986682d98bc35f958f4883f9d2a989019282541690835492826001600160601b0360a01b851617855560ff8060a01b915460a01c16151560a01b169216171790557fc65a7bb8d6351c1cf70c95a316cc6a92839c986682d98bc35f958f4883f9d2aa86016139c3565b0154910155005b908493601f1984168b60005283600020936000905b828210612957575050841161293e575b505050811b018655612804565b015160001960f88460031b161c19169055888080612931565b8484015186558897909501949384019390810190612921565b015190508a80610bb3565b849291601f19831691886000528b6000209260005b8d8282106129c757505084116129ae575b505050811b01845561278e565b015160001960f88460031b161c191690558980806129a1565b8385015186558997909501949384019301612990565b346101b6576020806003193601126101b6576129f7613162565b60095460009163ffffffff90811690835b838110612b305750612a198461365f565b93612a27604051958661329f565b808552612a36601f199161365f565b0136602086013760009460005b848110612a58576040518061031688826131c8565b8383612a6383613908565b5054841c1614612a76575b600101612a43565b600c546001600160a01b039081169691959294919390600090612a9888613908565b505460401c166024604051809a8193632118854760e21b835260048301525afa9687156110c957600097612b0b575b506000975b8751891015612afe57612af6600191612ae58b8b613951565b51612af08289613951565b52613942565b980197612acc565b9750929550929093612a6e565b612b299197503d806000833e612b21818361329f565b81019061388f565b9588612ac7565b8282612b3b83613908565b5054881c1614612b4e575b600101612a08565b93612b5a600191613942565b949050612b46565b346101b65760203660031901126101b657612b7b613136565b600c54604051632118854760e21b81526001600160a01b0392831660048201529160009183916024918391165afa80156110c95761031691600091612bc8575b50604051918291826131c8565b612bdd91503d806000833e612b21818361329f565b82612bbb565b346101b65760403660031901126101b657612bfc613136565b612c04613175565b9060018060a01b0316600052600560205263ffffffff60406000209116600052602052602060ff604060002054166040519015158152f35b346101b6576020806003193601126101b65763ffffffff612c5b613162565b612c6481613eea565b1660005260048152612c7c60056040600020016137ea565b6040519082820192808352815180945260408301938160408260051b8601019301916000955b828710612caf5785850386f35b909192938280600192603f19898203018552875190612cfb612ce96080878060a01b03855116845285850151908087860152840190613188565b60408401518382036040850152613188565b916060809101519101529601920196019592919092612ca2565b346101b65760403660031901126101b657612d2e613162565b612d36613175565b90612d4081613eea565b63ffffffff90818116928360005260209260028452612d63604060002093613eea565b84600052600284526040600020612d78613f08565b600782015410612f82575b503360005260038452604060002091600884015460ff8160101c1660028110156104d957612f705760ff16612db781613509565b612f5e5782546001600160a01b03919033604082901c841603612f4c57838891881c1603612062576003840183815416848316809110612f3a57600d90612e0d6001600160601b039182600c8b015416906136ce565b1696612e4660058201612e268689835460a01c166136ec565b815463ffffffff60a01b191660a09190911b63ffffffff60a01b16179055565b01805490878203918211612f24575583612e648254938285166136ec565b16809263ffffffff191617905515612eff575b600b5460405163a9059cbb60e01b8152336004820152602481018690529391869185916044918391600091165af19283156110c9577f4f6fb365c29f3632d91fcd919dbfdf50155c34cd0ea613bd43e7e76529fec43593612ee2575b505416926040519283523392a4005b612ef890863d88116117f4576117ec818361329f565b5086612ed3565b33600052600585526040600020866000528552604060002060ff198154169055612e77565b634e487b7160e01b600052601160045260246000fd5b60405163a2ed46e160e01b8152600490fd5b6040516338ebc58960e11b8152600490fd5b604051630738c50360e41b8152600490fd5b6040516380e4469160e01b8152600490fd5b6008018054600160ff8216612f9681613509565b03612fa2575b50612d83565b60019060ff19161790556001612fb6613f08565b7f9c8ea6489f3baa31d321639e3a41ad67158fa673511a98870906b5a9eced0dd4600080a38580612f9c565b346101b65760203660031901126101b6576001600160a01b03613003613136565b1660005260016020526020600360406000200154604051908152f35b346101b65760003660031901126101b65760095461303c8161365f565b613049604051918261329f565b81815260209060208101928360096000527f6e1540171b6c0c960b71a7020d9f60077f6af931a8bbf590da0223dacf75c7af6000915b8383106130d057604080516020808252875190820181905289928201908960005b8281106130ad5784840385f35b9091928260c0826130c16001948a516130ed565b019601910194929190946130a0565b6004866001926130df85613676565b81520192019201919061307f565b60a0908163ffffffff91828151168552826020820151166020860152600180831b0360408201511660408601526060810151606086015260808101516080860152015116910152565b600435906001600160a01b03821682036101b657565b602435906001600160a01b03821682036101b657565b6004359063ffffffff821682036101b657565b6024359063ffffffff821682036101b657565b919082519283825260005b8481106131b4575050826000602080949584010152601f8019910116010190565b602081830181015184830182015201613193565b602090602060408183019282815285518094520193019160005b8281106131f0575050505090565b8351855293810193928101926001016131e2565b60c081019081106001600160401b0382111761109257604052565b6001600160401b03811161109257604052565b60a081019081106001600160401b0382111761109257604052565b604081019081106001600160401b0382111761109257604052565b608081019081106001600160401b0382111761109257604052565b6102a081019081106001600160401b0382111761109257604052565b90601f801991011681019081106001600160401b0382111761109257604052565b6001600160401b03811161109257601f01601f191660200190565b9291926132e7826132c0565b916132f5604051938461329f565b8294818452818301116101b6578281602093846000960137010152565b9080601f830112156101b65781602061332d933591016132db565b90565b90815180825260208080930193019160005b828110613350575050505090565b909192938260408261337760019489516020809160018060a01b0381511684520151910152565b01950193929101613342565b63ffffffff815116825260209081810151828401526040916133b4604083015160c0604087015260c0860190613188565b916133cd60609360608301518782036060890152613188565b9260a06133e8608095608085015189820360808b0152613330565b9201519560a08184039101528551938483528383019184808760051b8601019801966000945b8786106134215750505050505050505090565b9091929394959697988780600192601f198582030189528c5190848060a01b0382511681528780613470613460868601518d888701528d860190613188565b8a8601518582038c870152613188565b9301519101529b0196019601949796959392919061340e565b906080806134d36134a3855160a0865260a0860190613188565b60018060a01b03602087015116602086015260408601511515604086015260608601518582036060870152613188565b93015191015290565b9181601f840112156101b6578235916001600160401b0383116101b657602083818601950101116101b657565b600311156104d957565b906102a061356e61355c61354a63ffffffff9384875116865260208701516020870152604087015190806040880152860190613188565b60608601518582036060870152613188565b60808501518482036080860152613188565b9060018060a01b0360a08501511660a08401528060c08501511660c084015260e08401511660e08301526101008084015190830152610120808401519083015261014080840151906135bf82613509565b83015261016080840151906135d382613509565b830152610180908184015160028110156104d957613602928401526101a0808501519084830390850152613188565b916101c080820151908301526101e080820151908301526102006001600160601b03818301511690830152610220808201519083015261024080820151908301526102608082015115159083015261028080910151151591015290565b6001600160401b0381116110925760051b60200190565b9060405161368381613204565b60a08193600381549163ffffffff928381168652838160201c166020870152600180861b039060401c1660408601526001810154606086015260028101546080860152015416910152565b9190916001600160601b0380809416911602918216918203612f2457565b63ffffffff9182169082160391908211612f2457565b908160209103126101b6575180151581036101b65790565b90600182811c9216801561374a575b602083101461373457565b634e487b7160e01b600052602260045260246000fd5b91607f1691613729565b8054600093926137638261371a565b918282526020936001916001811690816000146137cb575060011461378a575b5050505050565b90939495506000929192528360002092846000945b8386106137b757505050500101903880808080613783565b80548587018301529401938590820161379f565b60ff19168685015250505090151560051b010191503880808080613783565b9081546137f68161365f565b92604093613807604051918261329f565b82815280946020809201926000526020600020906000935b85851061382e57505050505050565b600484600192845161383f81613268565b848060a01b038754168152855161385c8161038c81898c01613754565b8382015285516138738161038c8160028c01613754565b868201526003870154606082015281520193019401939161381f565b60209081818403126101b6578051906001600160401b0382116101b657019180601f840112156101b65782516138c48161365f565b936138d2604051958661329f565b818552838086019260051b8201019283116101b6578301905b8282106138f9575050505090565b815181529083019083016138eb565b60095481101561107c57600960005260021b7f6e1540171b6c0c960b71a7020d9f60077f6af931a8bbf590da0223dacf75c7af0190600090565b6000198114612f245760010190565b805182101561107c5760209160051b010190565b818110613970575050565b60008155600101613965565b9190601f811161398b57505050565b6139b7926000526020600020906020601f840160051c830193106139b9575b601f0160051c0190613965565b565b90915081906139aa565b90808214613a9c576139d5815461371a565b906001600160401b038211611092576139f28261150f855461371a565b600090601f8311600114613a3157613a22929160009183613a265750508160011b916000199060031b1c19161790565b9055565b015490503880610bb3565b815260208082208483528183209291601f1985169083905b828210613a83575050908460019594939210613a6a575b505050811b019055565b015460001960f88460031b161c19169055388080613a60565b8495819295850154815560018091019601940190613a49565b5050565b90600163ffffffff80931601918211612f2457565b91909163ffffffff80809416911601918211612f2457565b91908201809211612f2457565b90604051613ae78161324d565b82546001600160a01b031681526001909201546020830152565b908154613b0d8161365f565b92613b1b604051948561329f565b818452600090815260208082208186015b848410613b3a575050505050565b600283600192613b4985613ada565b815201920193019290613b2c565b90604051613b6481613204565b60a0613bca6005839563ffffffff815416855260018101546020860152604051613b958161038c8160028601613754565b6040860152604051613bae8161038c8160038601613754565b6060860152613bbf60048201613b01565b6080860152016137ea565b910152565b90604051613bdc81613232565b608060038294604051613bf38161038c8185613754565b845260018101546001600160a01b038116602086015260a01c60ff16151560408086019190915251613c2c8161038c8160028601613754565b60608501520154910152565b805482101561107c5760005260206000209060011b0190600090565b63ffffffff90613c6381613eea565b168060005260026020526040600020613c7a613f08565b600a820154111580613cf1575b15613c9b57600801805461ff001916905550565b613ca3613f08565b600b82015410613cb1575050565b600801805461ff001916610100179055613cc9613f08565b907f835839f42ff642197e82f2887491db41a51c32dc7004091799724e9e3d6f2489600080a3565b50613cfa613f08565b600b8201541015613c87565b908060209392818452848401376000828201840152601f01601f1916010190565b60405190613d3482613283565b8161028060009182815282602082015260606040820152606080820152606060808201528260a08201528260c08201528260e0820152826101008201528261012082015282610140820152826101608201528261018082015260606101a0820152826101c0820152826101e0820152826102008201528261022082015282610240820152826102608201520152565b90613dcd8261365f565b613dda604051918261329f565b8281528092613deb601f199161365f565b019060005b828110613dfc57505050565b602090613e07613d27565b82828501015201613df0565b63ffffffff809116908114612f245760010190565b8054600160401b81101561109257613e4591600182018155613c38565b9190916124ed57805182546001600160a01b0319166001600160a01b03919091161782556020015160019190910155565b6001600160a01b03908116908115613ed15760008051602061426483398151915280546001600160a01b031981168417909155167f8be0079c531659141344cd1fd0a4f28419497f9722a3daafe3b4186f6b6457e0600080a3565b604051631e4fbdf760e01b815260006004820152602490fd5b63ffffffff80600054169116116102ad57565b600190511061130257565b6103e880420290428204811442151715612f24578101809111612f245790565b600080516020614264833981519152546001600160a01b03163303613f4957565b60405163118cdaa760e01b8152336004820152602490fd5b60011161130257565b1015613f7257565b60405163489eca6760e01b8152600490fd5b818114613a9c57815491600160401b831161109257815483835580841061400d575b506000526020600020906000526020600020906000905b838210613fca5750505050565b806001918403613fe5575b6002809101930191019091613fbd565b818060a01b038154166001600160601b0360a01b855416178455818082015490850155613fd5565b60016001600160ff1b038281168303612f245785168503612f24576000908460005260206000209260011b8301928660011b015b83811061405057505050613fa6565b808360029255838382015501614041565b61406b815461371a565b9081614075575050565b81601f60009311600114614087575055565b9080839182526140a6601f60208420940160051c840160018501613965565b5555565b818114613a9c57815491600160401b8311611092578154838355808410614153575b506000526020600020906000526020600020906000905b8382106140f05750505050565b80600191840361410b575b60048091019301910190916140e3565b818060a01b038154166001600160601b0360a01b855416178455614134828083019086016139c3565b61414460028083019086016139c3565b600380820154908501556140fb565b60026001600160fe1b038281168303612f245785168503612f24576000908460005260206000209260021b8301928660021b015b838110614196575050506140cc565b8083600492556141a860018201614061565b6141b3838201614061565b83600382015501614187565b60ff7ff0c57e16840df040f15088dc2f81fe391c3923bec73e23a9662efc9c229c6a005460401c16156141ee57565b604051631afcd79f60e31b8152600490fd5b90614227575080511561421557805190602001fd5b604051630a12f52160e11b8152600490fd5b8151158061425a575b614238575090565b604051639996b31560e01b81526001600160a01b039091166004820152602490fd5b50803b1561423056fe9016d09d72d40fdae2fd8ceac6b6234c7706214fd39c1cd1e609a0528c199300a2646970667358221220f171f32b2ca52c28c601667129738fb452c5449bade8bfc9d17547d7457dcfa964736f6c63430008180033",
    "linkReferences": {}
  },
  "methodIdentifiers": {
    "UPGRADE_INTERFACE_VERSION()": "ad3cb1cc",
    "checkContractBalance()": "50312c9e",
    "checkUserBalance(address)": "0a9bfef5",
    "createAccount(string,address,string)": "331ef976",
    "createEvent(bytes32,string,string,string,uint32,uint256,uint256,uint256,uint256,uint96,bool,string)": "be85c72f",
    "getAllEventGroups()": "909fdec9",
    "getAllEvents()": "c27a500d",
    "getAllGroupMessages(uint32)": "1755b97a",
    "getAllTickets()": "03e96fe3",
    "getAllUser()": "47531df8",
    "getEventById(uint32)": "cd71ed35",
    "getEventGroup(uint32)": "3809f6f5",
    "getEventNFTs(uint32)": "277ec3d4",
    "getGroupMember(uint32,uint256)": "85a646c9",
    "getGroupMembers(uint32)": "ec976a0a",
    "getTicket(address)": "4717dea9",
    "getUser(address)": "6f77926b",
    "getUserNFTs_(address)": "1e2cb131",
    "groupChat(uint32,string)": "be7fb5d7",
    "hasPurchasedTicket(address,uint32)": "17f69df6",
    "initialize(address,address,address)": "c0c53b8b",
    "isRegistered(address)": "c3c5a547",
    "joinGroup(uint32)": "eec932f7",
    "mintNFTsForAttendees(uint32)": "48862857",
    "owner()": "8da5cb5b",
    "proxiableUUID()": "52d1902d",
    "purchaseTicket(uint32,uint32)": "3405741d",
    "refundFee(uint32,uint32)": "0f9fcf48",
    "renounceOwnership()": "715018a6",
    "transferOwnership(address)": "f2fde38b",
    "updateEventStatus(uint32)": "a87f86f9",
    "upgradeToAndCall(address,bytes)": "4f1ef286",
    "withdrawEventFee(uint32)": "b33f650e"
  },
  "id": 56
}