{
  "abi": [
    {
      "type": "function",
      "name": "UPGRADE_INTERFACE_VERSION",
      "inputs": [],
      "outputs": [
        {
          "name": "",
          "type": "string",
          "internalType": "string"
        }
      ],
      "stateMutability": "view"
    },
    {
      "type": "function",
      "name": "checkContractBalance",
      "inputs": [],
      "outputs": [
        {
          "name": "bal_",
          "type": "uint256",
          "internalType": "uint256"
        }
      ],
      "stateMutability": "view"
    },
    {
      "type": "function",
      "name": "checkUserBalance",
      "inputs": [
        {
          "name": "_addr",
          "type": "address",
          "internalType": "address"
        }
      ],
      "outputs": [
        {
          "name": "bal_",
          "type": "uint256",
          "internalType": "uint256"
        }
      ],
      "stateMutability": "view"
    },
    {
      "type": "function",
      "name": "createAccount",
      "inputs": [
        {
          "name": "_email",
          "type": "string",
          "internalType": "string"
        },
        {
          "name": "_addr",
          "type": "address",
          "internalType": "address"
        },
        {
          "name": "_avatar",
          "type": "string",
          "internalType": "string"
        }
      ],
      "outputs": [],
      "stateMutability": "nonpayable"
    },
    {
      "type": "function",
      "name": "createEvent",
      "inputs": [
        {
          "name": "_title",
          "type": "string",
          "internalType": "string"
        },
        {
          "name": "_imageUrl",
          "type": "string",
          "internalType": "string"
        },
        {
          "name": "_description",
          "type": "string",
          "internalType": "string"
        },
        {
          "name": "_location",
          "type": "string",
          "internalType": "string"
        },
        {
          "name": "_capacity",
          "type": "uint32",
          "internalType": "uint32"
        },
        {
          "name": "_regStartTime",
          "type": "uint256",
          "internalType": "uint256"
        },
        {
          "name": "_regEndTime",
          "type": "uint256",
          "internalType": "uint256"
        },
        {
          "name": "_eventStartTime",
          "type": "uint256",
          "internalType": "uint256"
        },
        {
          "name": "_eventEndTime",
          "type": "uint256",
          "internalType": "uint256"
        },
        {
          "name": "_ticketPrice",
          "type": "uint96",
          "internalType": "uint96"
        },
        {
          "name": "_isEventPaid",
          "type": "bool",
          "internalType": "bool"
        }
      ],
      "outputs": [],
      "stateMutability": "nonpayable"
    },
    {
      "type": "function",
      "name": "createGroup",
      "inputs": [
        {
          "name": "_eventId",
          "type": "uint32",
          "internalType": "uint32"
        }
      ],
      "outputs": [],
      "stateMutability": "nonpayable"
    },
    {
      "type": "function",
      "name": "getAllEventGroups",
      "inputs": [],
      "outputs": [
        {
          "name": "",
          "type": "tuple[]",
          "internalType": "struct BlumaProtocol.EventGroup[]",
          "components": [
            {
              "name": "eventId",
              "type": "uint32",
              "internalType": "uint32"
            },
            {
              "name": "title",
              "type": "string",
              "internalType": "string"
            },
            {
              "name": "imageUrl",
              "type": "string",
              "internalType": "string"
            },
            {
              "name": "description",
              "type": "string",
              "internalType": "string"
            },
            {
              "name": "members",
              "type": "tuple[]",
              "internalType": "struct BlumaProtocol.Member[]",
              "components": [
                {
                  "name": "user",
                  "type": "address",
                  "internalType": "address"
                },
                {
                  "name": "joinTime",
                  "type": "uint256",
                  "internalType": "uint256"
                }
              ]
            },
            {
              "name": "messages",
              "type": "tuple[]",
              "internalType": "struct BlumaProtocol.Message[]",
              "components": [
                {
                  "name": "sender",
                  "type": "address",
                  "internalType": "address"
                },
                {
                  "name": "email",
                  "type": "string",
                  "internalType": "string"
                },
                {
                  "name": "text",
                  "type": "string",
                  "internalType": "string"
                },
                {
                  "name": "timestamp",
                  "type": "uint256",
                  "internalType": "uint256"
                }
              ]
            }
          ]
        }
      ],
      "stateMutability": "view"
    },
    {
      "type": "function",
      "name": "getAllEvents",
      "inputs": [],
      "outputs": [
        {
          "name": "",
          "type": "tuple[]",
          "internalType": "struct BlumaProtocol.Event[]",
          "components": [
            {
              "name": "eventId",
              "type": "uint32",
              "internalType": "uint32"
            },
            {
              "name": "title",
              "type": "string",
              "internalType": "string"
            },
            {
              "name": "imageUrl",
              "type": "string",
              "internalType": "string"
            },
            {
              "name": "location",
              "type": "string",
              "internalType": "string"
            },
            {
              "name": "description",
              "type": "string",
              "internalType": "string"
            },
            {
              "name": "creator",
              "type": "address",
              "internalType": "address"
            },
            {
              "name": "seats",
              "type": "uint32",
              "internalType": "uint32"
            },
            {
              "name": "capacity",
              "type": "uint32",
              "internalType": "uint32"
            },
            {
              "name": "regStartTime",
              "type": "uint256",
              "internalType": "uint256"
            },
            {
              "name": "regEndTime",
              "type": "uint256",
              "internalType": "uint256"
            },
            {
              "name": "groups",
              "type": "tuple",
              "internalType": "struct BlumaProtocol.EventGroup",
              "components": [
                {
                  "name": "eventId",
                  "type": "uint32",
                  "internalType": "uint32"
                },
                {
                  "name": "title",
                  "type": "string",
                  "internalType": "string"
                },
                {
                  "name": "imageUrl",
                  "type": "string",
                  "internalType": "string"
                },
                {
                  "name": "description",
                  "type": "string",
                  "internalType": "string"
                },
                {
                  "name": "members",
                  "type": "tuple[]",
                  "internalType": "struct BlumaProtocol.Member[]",
                  "components": [
                    {
                      "name": "user",
                      "type": "address",
                      "internalType": "address"
                    },
                    {
                      "name": "joinTime",
                      "type": "uint256",
                      "internalType": "uint256"
                    }
                  ]
                },
                {
                  "name": "messages",
                  "type": "tuple[]",
                  "internalType": "struct BlumaProtocol.Message[]",
                  "components": [
                    {
                      "name": "sender",
                      "type": "address",
                      "internalType": "address"
                    },
                    {
                      "name": "email",
                      "type": "string",
                      "internalType": "string"
                    },
                    {
                      "name": "text",
                      "type": "string",
                      "internalType": "string"
                    },
                    {
                      "name": "timestamp",
                      "type": "uint256",
                      "internalType": "uint256"
                    }
                  ]
                }
              ]
            },
            {
              "name": "regStatus",
              "type": "uint8",
              "internalType": "enum BlumaProtocol.RegStatus"
            },
            {
              "name": "eventStatus",
              "type": "uint8",
              "internalType": "enum BlumaProtocol.EventStatus"
            },
            {
              "name": "eventType",
              "type": "uint8",
              "internalType": "enum BlumaProtocol.EventType"
            },
            {
              "name": "nftUrl",
              "type": "string",
              "internalType": "string"
            },
            {
              "name": "eventStartTime",
              "type": "uint256",
              "internalType": "uint256"
            },
            {
              "name": "eventEndTime",
              "type": "uint256",
              "internalType": "uint256"
            },
            {
              "name": "ticketPrice",
              "type": "uint96",
              "internalType": "uint96"
            },
            {
              "name": "totalSales",
              "type": "uint256",
              "internalType": "uint256"
            },
            {
              "name": "createdAt",
              "type": "uint256",
              "internalType": "uint256"
            },
            {
              "name": "isCreatorPaid",
              "type": "bool",
              "internalType": "bool"
            },
            {
              "name": "hasMinted",
              "type": "bool",
              "internalType": "bool"
            }
          ]
        }
      ],
      "stateMutability": "view"
    },
    {
      "type": "function",
      "name": "getAllGroupMessages",
      "inputs": [
        {
          "name": "_eventId",
          "type": "uint32",
          "internalType": "uint32"
        }
      ],
      "outputs": [
        {
          "name": "",
          "type": "tuple[]",
          "internalType": "struct BlumaProtocol.Message[]",
          "components": [
            {
              "name": "sender",
              "type": "address",
              "internalType": "address"
            },
            {
              "name": "email",
              "type": "string",
              "internalType": "string"
            },
            {
              "name": "text",
              "type": "string",
              "internalType": "string"
            },
            {
              "name": "timestamp",
              "type": "uint256",
              "internalType": "uint256"
            }
          ]
        }
      ],
      "stateMutability": "view"
    },
    {
      "type": "function",
      "name": "getAllTickets",
      "inputs": [],
      "outputs": [
        {
          "name": "_tickets",
          "type": "tuple[]",
          "internalType": "struct BlumaProtocol.Ticket[]",
          "components": [
            {
              "name": "ticketId",
              "type": "uint32",
              "internalType": "uint32"
            },
            {
              "name": "eventId",
              "type": "uint32",
              "internalType": "uint32"
            },
            {
              "name": "owner",
              "type": "address",
              "internalType": "address"
            },
            {
              "name": "ticketCost",
              "type": "uint256",
              "internalType": "uint256"
            },
            {
              "name": "purchaseTime",
              "type": "uint256",
              "internalType": "uint256"
            },
            {
              "name": "numberOfTicket",
              "type": "uint32",
              "internalType": "uint32"
            }
          ]
        }
      ],
      "stateMutability": "view"
    },
    {
      "type": "function",
      "name": "getAllUser",
      "inputs": [],
      "outputs": [
        {
          "name": "",
          "type": "tuple[]",
          "internalType": "struct BlumaProtocol.User[]",
          "components": [
            {
              "name": "email",
              "type": "string",
              "internalType": "string"
            },
            {
              "name": "userAddr",
              "type": "address",
              "internalType": "address"
            },
            {
              "name": "isRegistered",
              "type": "bool",
              "internalType": "bool"
            },
            {
              "name": "avatar",
              "type": "string",
              "internalType": "string"
            },
            {
              "name": "balance",
              "type": "uint256",
              "internalType": "uint256"
            }
          ]
        }
      ],
      "stateMutability": "view"
    },
    {
      "type": "function",
      "name": "getEventById",
      "inputs": [
        {
          "name": "_eventId",
          "type": "uint32",
          "internalType": "uint32"
        }
      ],
      "outputs": [
        {
          "name": "events_",
          "type": "tuple",
          "internalType": "struct BlumaProtocol.Event",
          "components": [
            {
              "name": "eventId",
              "type": "uint32",
              "internalType": "uint32"
            },
            {
              "name": "title",
              "type": "string",
              "internalType": "string"
            },
            {
              "name": "imageUrl",
              "type": "string",
              "internalType": "string"
            },
            {
              "name": "location",
              "type": "string",
              "internalType": "string"
            },
            {
              "name": "description",
              "type": "string",
              "internalType": "string"
            },
            {
              "name": "creator",
              "type": "address",
              "internalType": "address"
            },
            {
              "name": "seats",
              "type": "uint32",
              "internalType": "uint32"
            },
            {
              "name": "capacity",
              "type": "uint32",
              "internalType": "uint32"
            },
            {
              "name": "regStartTime",
              "type": "uint256",
              "internalType": "uint256"
            },
            {
              "name": "regEndTime",
              "type": "uint256",
              "internalType": "uint256"
            },
            {
              "name": "groups",
              "type": "tuple",
              "internalType": "struct BlumaProtocol.EventGroup",
              "components": [
                {
                  "name": "eventId",
                  "type": "uint32",
                  "internalType": "uint32"
                },
                {
                  "name": "title",
                  "type": "string",
                  "internalType": "string"
                },
                {
                  "name": "imageUrl",
                  "type": "string",
                  "internalType": "string"
                },
                {
                  "name": "description",
                  "type": "string",
                  "internalType": "string"
                },
                {
                  "name": "members",
                  "type": "tuple[]",
                  "internalType": "struct BlumaProtocol.Member[]",
                  "components": [
                    {
                      "name": "user",
                      "type": "address",
                      "internalType": "address"
                    },
                    {
                      "name": "joinTime",
                      "type": "uint256",
                      "internalType": "uint256"
                    }
                  ]
                },
                {
                  "name": "messages",
                  "type": "tuple[]",
                  "internalType": "struct BlumaProtocol.Message[]",
                  "components": [
                    {
                      "name": "sender",
                      "type": "address",
                      "internalType": "address"
                    },
                    {
                      "name": "email",
                      "type": "string",
                      "internalType": "string"
                    },
                    {
                      "name": "text",
                      "type": "string",
                      "internalType": "string"
                    },
                    {
                      "name": "timestamp",
                      "type": "uint256",
                      "internalType": "uint256"
                    }
                  ]
                }
              ]
            },
            {
              "name": "regStatus",
              "type": "uint8",
              "internalType": "enum BlumaProtocol.RegStatus"
            },
            {
              "name": "eventStatus",
              "type": "uint8",
              "internalType": "enum BlumaProtocol.EventStatus"
            },
            {
              "name": "eventType",
              "type": "uint8",
              "internalType": "enum BlumaProtocol.EventType"
            },
            {
              "name": "nftUrl",
              "type": "string",
              "internalType": "string"
            },
            {
              "name": "eventStartTime",
              "type": "uint256",
              "internalType": "uint256"
            },
            {
              "name": "eventEndTime",
              "type": "uint256",
              "internalType": "uint256"
            },
            {
              "name": "ticketPrice",
              "type": "uint96",
              "internalType": "uint96"
            },
            {
              "name": "totalSales",
              "type": "uint256",
              "internalType": "uint256"
            },
            {
              "name": "createdAt",
              "type": "uint256",
              "internalType": "uint256"
            },
            {
              "name": "isCreatorPaid",
              "type": "bool",
              "internalType": "bool"
            },
            {
              "name": "hasMinted",
              "type": "bool",
              "internalType": "bool"
            }
          ]
        }
      ],
      "stateMutability": "view"
    },
    {
      "type": "function",
      "name": "getEventGroup",
      "inputs": [
        {
          "name": "_eventId",
          "type": "uint32",
          "internalType": "uint32"
        }
      ],
      "outputs": [
        {
          "name": "",
          "type": "tuple",
          "internalType": "struct BlumaProtocol.EventGroup",
          "components": [
            {
              "name": "eventId",
              "type": "uint32",
              "internalType": "uint32"
            },
            {
              "name": "title",
              "type": "string",
              "internalType": "string"
            },
            {
              "name": "imageUrl",
              "type": "string",
              "internalType": "string"
            },
            {
              "name": "description",
              "type": "string",
              "internalType": "string"
            },
            {
              "name": "members",
              "type": "tuple[]",
              "internalType": "struct BlumaProtocol.Member[]",
              "components": [
                {
                  "name": "user",
                  "type": "address",
                  "internalType": "address"
                },
                {
                  "name": "joinTime",
                  "type": "uint256",
                  "internalType": "uint256"
                }
              ]
            },
            {
              "name": "messages",
              "type": "tuple[]",
              "internalType": "struct BlumaProtocol.Message[]",
              "components": [
                {
                  "name": "sender",
                  "type": "address",
                  "internalType": "address"
                },
                {
                  "name": "email",
                  "type": "string",
                  "internalType": "string"
                },
                {
                  "name": "text",
                  "type": "string",
                  "internalType": "string"
                },
                {
                  "name": "timestamp",
                  "type": "uint256",
                  "internalType": "uint256"
                }
              ]
            }
          ]
        }
      ],
      "stateMutability": "view"
    },
    {
      "type": "function",
      "name": "getGroupMember",
      "inputs": [
        {
          "name": "_groupId",
          "type": "uint32",
          "internalType": "uint32"
        },
        {
          "name": "_index",
          "type": "uint256",
          "internalType": "uint256"
        }
      ],
      "outputs": [
        {
          "name": "",
          "type": "tuple",
          "internalType": "struct BlumaProtocol.Member",
          "components": [
            {
              "name": "user",
              "type": "address",
              "internalType": "address"
            },
            {
              "name": "joinTime",
              "type": "uint256",
              "internalType": "uint256"
            }
          ]
        }
      ],
      "stateMutability": "view"
    },
    {
      "type": "function",
      "name": "getGroupMembers",
      "inputs": [
        {
          "name": "_eventId",
          "type": "uint32",
          "internalType": "uint32"
        }
      ],
      "outputs": [
        {
          "name": "",
          "type": "tuple[]",
          "internalType": "struct BlumaProtocol.Member[]",
          "components": [
            {
              "name": "user",
              "type": "address",
              "internalType": "address"
            },
            {
              "name": "joinTime",
              "type": "uint256",
              "internalType": "uint256"
            }
          ]
        }
      ],
      "stateMutability": "view"
    },
    {
      "type": "function",
      "name": "getNfts",
      "inputs": [
        {
          "name": "_user",
          "type": "address",
          "internalType": "address"
        }
      ],
      "outputs": [
        {
          "name": "",
          "type": "tuple",
          "internalType": "struct BlumaProtocol.NFT",
          "components": [
            {
              "name": "eventId",
              "type": "uint32",
              "internalType": "uint32"
            },
            {
              "name": "title",
              "type": "string",
              "internalType": "string"
            },
            {
              "name": "owner",
              "type": "address",
              "internalType": "address"
            },
            {
              "name": "nftUrl",
              "type": "string",
              "internalType": "string"
            }
          ]
        }
      ],
      "stateMutability": "view"
    },
    {
      "type": "function",
      "name": "getTicket",
      "inputs": [
        {
          "name": "_addr",
          "type": "address",
          "internalType": "address"
        }
      ],
      "outputs": [
        {
          "name": "_ticket",
          "type": "tuple",
          "internalType": "struct BlumaProtocol.Ticket",
          "components": [
            {
              "name": "ticketId",
              "type": "uint32",
              "internalType": "uint32"
            },
            {
              "name": "eventId",
              "type": "uint32",
              "internalType": "uint32"
            },
            {
              "name": "owner",
              "type": "address",
              "internalType": "address"
            },
            {
              "name": "ticketCost",
              "type": "uint256",
              "internalType": "uint256"
            },
            {
              "name": "purchaseTime",
              "type": "uint256",
              "internalType": "uint256"
            },
            {
              "name": "numberOfTicket",
              "type": "uint32",
              "internalType": "uint32"
            }
          ]
        }
      ],
      "stateMutability": "view"
    },
    {
      "type": "function",
      "name": "getUser",
      "inputs": [
        {
          "name": "_addr",
          "type": "address",
          "internalType": "address"
        }
      ],
      "outputs": [
        {
          "name": "_user",
          "type": "tuple",
          "internalType": "struct BlumaProtocol.User",
          "components": [
            {
              "name": "email",
              "type": "string",
              "internalType": "string"
            },
            {
              "name": "userAddr",
              "type": "address",
              "internalType": "address"
            },
            {
              "name": "isRegistered",
              "type": "bool",
              "internalType": "bool"
            },
            {
              "name": "avatar",
              "type": "string",
              "internalType": "string"
            },
            {
              "name": "balance",
              "type": "uint256",
              "internalType": "uint256"
            }
          ]
        }
      ],
      "stateMutability": "view"
    },
    {
      "type": "function",
      "name": "groupChat",
      "inputs": [
        {
          "name": "_eventId",
          "type": "uint32",
          "internalType": "uint32"
        },
        {
          "name": "_text",
          "type": "string",
          "internalType": "string"
        }
      ],
      "outputs": [],
      "stateMutability": "nonpayable"
    },
    {
      "type": "function",
      "name": "hasPurchasedTicket",
      "inputs": [
        {
          "name": "_user",
          "type": "address",
          "internalType": "address"
        },
        {
          "name": "_eventId",
          "type": "uint32",
          "internalType": "uint32"
        }
      ],
      "outputs": [
        {
          "name": "",
          "type": "bool",
          "internalType": "bool"
        }
      ],
      "stateMutability": "view"
    },
    {
      "type": "function",
      "name": "initialize",
      "inputs": [
        {
          "name": "initialOwner",
          "type": "address",
          "internalType": "address"
        },
        {
          "name": "_blumaToken",
          "type": "address",
          "internalType": "address"
        },
        {
          "name": "_blumaNFT",
          "type": "address",
          "internalType": "address"
        }
      ],
      "outputs": [],
      "stateMutability": "nonpayable"
    },
    {
      "type": "function",
      "name": "isRegistered",
      "inputs": [
        {
          "name": "_addr",
          "type": "address",
          "internalType": "address"
        }
      ],
      "outputs": [
        {
          "name": "",
          "type": "bool",
          "internalType": "bool"
        }
      ],
      "stateMutability": "view"
    },
    {
      "type": "function",
      "name": "joinGroup",
      "inputs": [
        {
          "name": "_eventId",
          "type": "uint32",
          "internalType": "uint32"
        }
      ],
      "outputs": [],
      "stateMutability": "nonpayable"
    },
    {
      "type": "function",
      "name": "mintNFTsForAttendees",
      "inputs": [
        {
          "name": "_eventId",
          "type": "uint32",
          "internalType": "uint32"
        }
      ],
      "outputs": [],
      "stateMutability": "nonpayable"
    },
    {
      "type": "function",
      "name": "mintNft",
      "inputs": [
        {
          "name": "_eventId",
          "type": "uint32",
          "internalType": "uint32"
        },
        {
          "name": "_nftUrl",
          "type": "string",
          "internalType": "string"
        }
      ],
      "outputs": [],
      "stateMutability": "nonpayable"
    },
    {
      "type": "function",
      "name": "owner",
      "inputs": [],
      "outputs": [
        {
          "name": "",
          "type": "address",
          "internalType": "address"
        }
      ],
      "stateMutability": "view"
    },
    {
      "type": "function",
      "name": "proxiableUUID",
      "inputs": [],
      "outputs": [
        {
          "name": "",
          "type": "bytes32",
          "internalType": "bytes32"
        }
      ],
      "stateMutability": "view"
    },
    {
      "type": "function",
      "name": "purchaseTicket",
      "inputs": [
        {
          "name": "_eventId",
          "type": "uint32",
          "internalType": "uint32"
        },
        {
          "name": "_numberOfTickets",
          "type": "uint32",
          "internalType": "uint32"
        }
      ],
      "outputs": [],
      "stateMutability": "nonpayable"
    },
    {
      "type": "function",
      "name": "refundFee",
      "inputs": [
        {
          "name": "_eventId",
          "type": "uint32",
          "internalType": "uint32"
        }
      ],
      "outputs": [],
      "stateMutability": "nonpayable"
    },
    {
      "type": "function",
      "name": "renounceOwnership",
      "inputs": [],
      "outputs": [],
      "stateMutability": "nonpayable"
    },
    {
      "type": "function",
      "name": "transferOwnership",
      "inputs": [
        {
          "name": "newOwner",
          "type": "address",
          "internalType": "address"
        }
      ],
      "outputs": [],
      "stateMutability": "nonpayable"
    },
    {
      "type": "function",
      "name": "updateEventStatus",
      "inputs": [
        {
          "name": "_eventId",
          "type": "uint32",
          "internalType": "uint32"
        }
      ],
      "outputs": [],
      "stateMutability": "nonpayable"
    },
    {
      "type": "function",
      "name": "upgradeToAndCall",
      "inputs": [
        {
          "name": "newImplementation",
          "type": "address",
          "internalType": "address"
        },
        {
          "name": "data",
          "type": "bytes",
          "internalType": "bytes"
        }
      ],
      "outputs": [],
      "stateMutability": "payable"
    },
    {
      "type": "function",
      "name": "withdrawEventFee",
      "inputs": [
        {
          "name": "_eventId",
          "type": "uint32",
          "internalType": "uint32"
        }
      ],
      "outputs": [],
      "stateMutability": "nonpayable"
    },
    {
      "type": "event",
      "name": "AttendeesNFTMinted",
      "inputs": [
        {
          "name": "owner",
          "type": "address",
          "indexed": true,
          "internalType": "address"
        },
        {
          "name": "eventId",
          "type": "uint32",
          "indexed": true,
          "internalType": "uint32"
        },
        {
          "name": "numberOfTickets",
          "type": "uint32",
          "indexed": false,
          "internalType": "uint32"
        },
        {
          "name": "tokenId",
          "type": "uint256",
          "indexed": true,
          "internalType": "uint256"
        }
      ],
      "anonymous": false
    },
    {
      "type": "event",
      "name": "EventClosed",
      "inputs": [
        {
          "name": "_eventId",
          "type": "uint32",
          "indexed": true,
          "internalType": "uint32"
        },
        {
          "name": "_currentTime",
          "type": "uint256",
          "indexed": true,
          "internalType": "uint256"
        }
      ],
      "anonymous": false
    },
    {
      "type": "event",
      "name": "EventCreated",
      "inputs": [
        {
          "name": "_totalEventsId",
          "type": "uint32",
          "indexed": true,
          "internalType": "uint32"
        },
        {
          "name": "_seatNumber",
          "type": "uint32",
          "indexed": true,
          "internalType": "uint32"
        },
        {
          "name": "_capacity",
          "type": "uint32",
          "indexed": true,
          "internalType": "uint32"
        }
      ],
      "anonymous": false
    },
    {
      "type": "event",
      "name": "GroupCreated",
      "inputs": [
        {
          "name": "_roomId",
          "type": "uint32",
          "indexed": true,
          "internalType": "uint32"
        },
        {
          "name": "imageUrl",
          "type": "string",
          "indexed": false,
          "internalType": "string"
        },
        {
          "name": "_title",
          "type": "string",
          "indexed": false,
          "internalType": "string"
        }
      ],
      "anonymous": false
    },
    {
      "type": "event",
      "name": "GroupJoinedSuccessfully",
      "inputs": [
        {
          "name": "_sender",
          "type": "address",
          "indexed": true,
          "internalType": "address"
        },
        {
          "name": "_eventId",
          "type": "uint32",
          "indexed": true,
          "internalType": "uint32"
        },
        {
          "name": "_joinedTimw",
          "type": "uint256",
          "indexed": true,
          "internalType": "uint256"
        }
      ],
      "anonymous": false
    },
    {
      "type": "event",
      "name": "Initialized",
      "inputs": [
        {
          "name": "version",
          "type": "uint64",
          "indexed": false,
          "internalType": "uint64"
        }
      ],
      "anonymous": false
    },
    {
      "type": "event",
      "name": "MessageSent",
      "inputs": [
        {
          "name": "sender",
          "type": "address",
          "indexed": true,
          "internalType": "address"
        },
        {
          "name": "groupId",
          "type": "uint32",
          "indexed": true,
          "internalType": "uint32"
        },
        {
          "name": "text",
          "type": "string",
          "indexed": false,
          "internalType": "string"
        },
        {
          "name": "timestamp",
          "type": "uint256",
          "indexed": false,
          "internalType": "uint256"
        }
      ],
      "anonymous": false
    },
    {
      "type": "event",
      "name": "NftMintedSuccessful",
      "inputs": [
        {
          "name": "sender",
          "type": "address",
          "indexed": true,
          "internalType": "address"
        },
        {
          "name": "nftUrl",
          "type": "string",
          "indexed": true,
          "internalType": "string"
        },
        {
          "name": "eventId",
          "type": "uint32",
          "indexed": true,
          "internalType": "uint32"
        },
        {
          "name": "title",
          "type": "string",
          "indexed": false,
          "internalType": "string"
        }
      ],
      "anonymous": false
    },
    {
      "type": "event",
      "name": "OwnershipTransferred",
      "inputs": [
        {
          "name": "previousOwner",
          "type": "address",
          "indexed": true,
          "internalType": "address"
        },
        {
          "name": "newOwner",
          "type": "address",
          "indexed": true,
          "internalType": "address"
        }
      ],
      "anonymous": false
    },
    {
      "type": "event",
      "name": "RefundIssued",
      "inputs": [
        {
          "name": "buyer",
          "type": "address",
          "indexed": true,
          "internalType": "address"
        },
        {
          "name": "_ticketId",
          "type": "uint32",
          "indexed": true,
          "internalType": "uint32"
        },
        {
          "name": "_eventId",
          "type": "uint32",
          "indexed": true,
          "internalType": "uint32"
        },
        {
          "name": "amount",
          "type": "uint256",
          "indexed": false,
          "internalType": "uint256"
        }
      ],
      "anonymous": false
    },
    {
      "type": "event",
      "name": "RegistrationClose",
      "inputs": [
        {
          "name": "_currentTime",
          "type": "uint256",
          "indexed": true,
          "internalType": "uint256"
        },
        {
          "name": "_status",
          "type": "uint8",
          "indexed": true,
          "internalType": "uint8"
        }
      ],
      "anonymous": false
    },
    {
      "type": "event",
      "name": "TicketPurchased",
      "inputs": [
        {
          "name": "buyer",
          "type": "address",
          "indexed": true,
          "internalType": "address"
        },
        {
          "name": "_eventId",
          "type": "uint32",
          "indexed": true,
          "internalType": "uint32"
        },
        {
          "name": "numberOfTickets",
          "type": "uint32",
          "indexed": false,
          "internalType": "uint32"
        }
      ],
      "anonymous": false
    },
    {
      "type": "event",
      "name": "Upgraded",
      "inputs": [
        {
          "name": "implementation",
          "type": "address",
          "indexed": true,
          "internalType": "address"
        }
      ],
      "anonymous": false
    },
    {
      "type": "error",
      "name": "ALREADY_A_MEMBER",
      "inputs": []
    },
    {
      "type": "error",
      "name": "ALREADY_PAID",
      "inputs": []
    },
    {
      "type": "error",
      "name": "AddressEmptyCode",
      "inputs": [
        {
          "name": "target",
          "type": "address",
          "internalType": "address"
        }
      ]
    },
    {
      "type": "error",
      "name": "EMPTY_INPUT_FIELD",
      "inputs": []
    },
    {
      "type": "error",
      "name": "ERC1967InvalidImplementation",
      "inputs": [
        {
          "name": "implementation",
          "type": "address",
          "internalType": "address"
        }
      ]
    },
    {
      "type": "error",
      "name": "ERC1967NonPayable",
      "inputs": []
    },
    {
      "type": "error",
      "name": "EVENT_NOT_CLOSED",
      "inputs": []
    },
    {
      "type": "error",
      "name": "FailedInnerCall",
      "inputs": []
    },
    {
      "type": "error",
      "name": "GROUP_ALREADY_EXISTS",
      "inputs": []
    },
    {
      "type": "error",
      "name": "INSUFFICIENT_BALANCE",
      "inputs": []
    },
    {
      "type": "error",
      "name": "INSUFFICIENT_TICKET_PURCHASED",
      "inputs": []
    },
    {
      "type": "error",
      "name": "INVALID_EVENT_ID",
      "inputs": []
    },
    {
      "type": "error",
      "name": "INVALID_ID",
      "inputs": []
    },
    {
      "type": "error",
      "name": "INVALID_NOT_AUTHORIZED",
      "inputs": []
    },
    {
      "type": "error",
      "name": "InvalidInitialization",
      "inputs": []
    },
    {
      "type": "error",
      "name": "NFT_ALREADY_MINTED",
      "inputs": []
    },
    {
      "type": "error",
      "name": "NOT_CREATOR",
      "inputs": []
    },
    {
      "type": "error",
      "name": "NOT_ENOUGH_AVAILABLE_SEAT",
      "inputs": []
    },
    {
      "type": "error",
      "name": "NOT_OWNER",
      "inputs": []
    },
    {
      "type": "error",
      "name": "NOT_PAID_EVENT",
      "inputs": []
    },
    {
      "type": "error",
      "name": "NO_ALLOWANCE",
      "inputs": []
    },
    {
      "type": "error",
      "name": "NotInitializing",
      "inputs": []
    },
    {
      "type": "error",
      "name": "OwnableInvalidOwner",
      "inputs": [
        {
          "name": "owner",
          "type": "address",
          "internalType": "address"
        }
      ]
    },
    {
      "type": "error",
      "name": "OwnableUnauthorizedAccount",
      "inputs": [
        {
          "name": "account",
          "type": "address",
          "internalType": "address"
        }
      ]
    },
    {
      "type": "error",
      "name": "REGISTRATION_CLOSE",
      "inputs": []
    },
    {
      "type": "error",
      "name": "REGISTRATION_NOT_CLOSED",
      "inputs": []
    },
    {
      "type": "error",
      "name": "REGISTRATION_NOT_OPEN",
      "inputs": []
    },
    {
      "type": "error",
      "name": "UUPSUnauthorizedCallContext",
      "inputs": []
    },
    {
      "type": "error",
      "name": "UUPSUnsupportedProxiableUUID",
      "inputs": [
        {
          "name": "slot",
          "type": "bytes32",
          "internalType": "bytes32"
        }
      ]
    }
  ],
  "bytecode": {
    "object": "0x60a0806040523461002a57306080526147bb9081610030823960805181818161176e01526118b00152f35b600080fdfe6080604052600436101561001257600080fd5b60e060003560e01c90816303e96fe31461339f5781630a9bfef5146133625781631755b97a1461328757816317f69df61461322e57816325f3724b146126df578163331ef976146123b95781633405741d14611f465781633809f6f514611ee357816344cc2afe14611deb5781634717dea914611d7957816347531df814611c8f5781634886285714611a8f5781634f1ef2861461186157816350312c9e146117d857816352d1902d1461175b578163654a3c6d146114e75781636f77926b14611472578163715018a61461140857816385a646c9146113785781638da5cb5b146113425781638fd9baca146110c0578163909fdec914610fd6578163a87f86f914610fb5578163ad3cb1cc14610f6f578163b33f650e14610e27578163bdacb17a14610b6d578163be7fb5d714610992578163c0c53b8b14610820578163c27a500d1461056157508063c3c5a5471461051c578063cd71ed3514610343578063ec976a0a146102ca578063eec932f7146101c65763f2fde38b1461019657600080fd5b346101c15760203660031901126101c1576101bf6101b26134b6565b6101ba614688565b6145e1565b005b600080fd5b346101c1576020806003193601126101c1576101e06134e2565b906101ea82614675565b63ffffffff809216918260005260028252604060002090815416156102b8573360005260068252604060002083600052825260ff604060002054166102a65761025290600c610237614655565b916040519261024584613591565b3384528584015201614334565b336000526006815260406000209082600052526040600020600160ff1982541617905561027d614655565b90337ff11404c60069f7d8b6ecebb855f6ac5080f851b85152f4cb855640c49a30c2dd600080a4005b60405163cea6102760e01b8152600490fd5b6040516316a7994d60e21b8152600490fd5b346101c15760203660031901126101c1576102e36134e2565b6102ec81614675565b63ffffffff80911660005260026020526040600020908154161561033157610319600c61032d92016141d2565b604051918291602083526020830190613674565b0390f35b60405163e955b73b60e01b8152600490fd5b346101c15760203660031901126101c15761032d61035f6134e2565b610367613c40565b5061037181614675565b63ffffffff809116600052600260205260ff6015604060002060405193610397856135c7565b8082541685526040516103b8816103b18160018701613aa6565b03826135e3565b60208601526040516103d1816103b18160028701613aa6565b60408601526040516103ea816103b18160038701613aa6565b6060860152604051610403816103b18160048701613aa6565b6080860152600582015460018060a01b03811660a0870152818160a01c1660c087015260c01c1660e08501526006810154610100850152600781015461012085015261045160088201614228565b61014085015261049583600e83015481811661046c81613885565b610160880152818160081c1661048181613885565b61018088015260101c166101a08601613ce7565b6040516104a9816103b181600f8601613aa6565b6101c085015260108101546101e085015260118101546102008501526001600160601b03601282015416610220850152601381015461024085015260148101546102608501520154818116151561028084015260081c1615156102a082015260405191829160208352602083019061388f565b346101c15760203660031901126101c1576001600160a01b0361053d6134b6565b166000526001602052602060ff60016040600020015460a01c166040519015158152f35b346101c15760003660031901126101c15763ffffffff9081600054169161058783614568565b9060009060015b8181168681116107775760005260026020908082526040600020908482541692836105c6575b505050506105c1906145b8565b61058e565b926105c19496926103b16106176107679461076d97604051956105e8876135c7565b865260405190610606826105ff8160018a01613aa6565b03836135e3565b860152604051928380928601613aa6565b6040830152604051610630816103b18160038601613aa6565b6060830152604051610649816103b18160048601613aa6565b608083015286600582015460a060018060a01b03821681860152828260c0921c16818601521c168a830152600681015461010083015260078101546101208301526008610697818301614228565b6101408401526015600e8301549260ff938481166106b481613885565b6101608701528481851c166106c881613885565b6101808701526106e285601092831c166101a08801613ce7565b6040516106f6816103b181600f8701613aa6565b6101c08701528101546101e086015260118101546102008601526001600160601b036012820154166102208601526013810154610240860152601481015461026086015201549082821615156102808501521c1615156102a082015285831690610760828a6145cd565b52876145cd565b506145b8565b92908780806105b4565b50508091169161078683614568565b9260005b838116828110156107c15784916107b9826107a7600194886145cd565b516107b2828b6145cd565b52886145cd565b50011661078a565b6040805160208082528851818301819052600093600582901b8401810192808c01929185015b8287106107f45785850386f35b909192938280610810600193603f198a8203018652885161388f565b96019201960195929190926107e7565b346101c15760603660031901126101c1576108396134b6565b6108416134cc565b6001600160a01b03919060443583811691908290036101c1577ff0c57e16840df040f15088dc2f81fe391c3923bec73e23a9662efc9c229c6a0093845460ff8160401c1615946001600160401b0382168015908161098a575b6001149081610980575b159081610977575b506109655767ffffffffffffffff19821660011787556108dd9186610946575b506108d56146c1565b6101ba6146c1565b6108e56146c1565b6001600160601b0360a01b911681600c541617600c55600d541617600d5561090957005b68ff00000000000000001981541690557fc7f505b2f371ae2175ee4913f4499e1f2633a7b5936321eed1cdaeb6115181d2602060405160018152a1005b68ffffffffffffffffff191668010000000000000001178755876108cc565b60405163f92ee8a960e01b8152600490fd5b905015886108ac565b303b1591506108a4565b87915061089a565b346101c1576109a03661382c565b916109aa81614675565b60016109b736858561361f565b5110610b5b5763ffffffff809116928360005260209260028452604060002092835416156102b85760058301546001600160a01b03163314610b33575b3360005260068452604060002085600052845260ff6040600020541615610b215760405192610a2284613548565b60008452600d858501916060835260408601606081526105ff6060880194600086523360005260018a52610a60604060002060405193848092613aa6565b52338752610a6f36878761361f565b9052610a79614655565b83520190815491600160401b831015610b0b5760018301808255831015610af5577fd643c4cb96915f246339ac52f899dfc112f2ccf8254cca6b9cb9d0b8f0276e1095610ae993610ad592600052886000209060021b01613e8c565b519160405193604085526040850191614495565b938201528033930390a3005b634e487b7160e01b600052603260045260246000fd5b634e487b7160e01b600052604160045260246000fd5b60405163082e385d60e01b8152600490fd5b336000526006845260406000208560005284526040600020600160ff198254161790556109f4565b604051631ee8943b60e21b8152600490fd5b346101c1576020806003193601126101c157610b876134e2565b90610b9182614675565b63ffffffff91828116928360005260028352610bb1604060002092614675565b83600052600283526040600020610bc6614655565b600782015410610dc7575b503360005260038352604060002090600e83015460ff8160101c166002811015610db157610d9f5760ff16610c0581613885565b610d8d5781546001600160a01b039033604082901c831603610d7b57828791871c1603610d69578160038401541660018110610d57576001600160601b03610c538160128801541683614168565b1694600581019184835460a01c160391848311610d4157805463ffffffff60a01b191660a09390931b63ffffffff60a01b1692909217909155601301805490858203918211610d415755600c5460405163a9059cbb60e01b8152336004820152602481018690529391869185916044918391600091165af1928315610d35577f4f6fb365c29f3632d91fcd919dbfdf50155c34cd0ea613bd43e7e76529fec43593610d08575b505416926040519283523392a4005b610d2790863d8811610d2e575b610d1f81836135e3565b810190614186565b5086610cf9565b503d610d15565b6040513d6000823e3d90fd5b634e487b7160e01b600052601160045260246000fd5b60405163a2ed46e160e01b8152600490fd5b60405163b790ffed60e01b8152600490fd5b6040516338ebc58960e11b8152600490fd5b604051630738c50360e41b8152600490fd5b6040516380e4469160e01b8152600490fd5b634e487b7160e01b600052602160045260246000fd5b600e018054600160ff8216610ddb81613885565b03610de7575b50610bd1565b60019060ff19161790556001610dfb614655565b7f9c8ea6489f3baa31d321639e3a41ad67158fa673511a98870906b5a9eced0dd4600080a38480610de1565b346101c1576020806003193601126101c157610e416134e2565b610e4a81614675565b63ffffffff8116600052600282526040600020903360005260018352610e746040600020916144b6565b600160ff600e84015460081c16610e8a81613885565b03610f5d5760058201546001600160a01b03903390821603610f4b57601583019081549060ff8216610f395760038694610f1394600160136000990195898754975560ff191617905501610edf83825461419e565b9055600c5460405163a9059cbb60e01b81523360048201526024810193909352919485939190921691839182906044820190565b03925af18015610d3557610f2357005b816101bf92903d10610d2e57610d1f81836135e3565b60405163d2e53ca760e01b8152600490fd5b604051632cff942760e01b8152600490fd5b604051631988a70d60e01b8152600490fd5b346101c15760003660031901126101c15761032d604051610f8f81613591565b60058152640352e302e360dc1b6020820152604051918291602083526020830190613508565b346101c15760203660031901126101c1576101bf610fd16134e2565b6144b6565b346101c15760003660031901126101c157600954610ff3816139fd565b9061100160405192836135e3565b808252602090818301908160096000527f6e1540171b6c0c960b71a7020d9f60077f6af931a8bbf590da0223dacf75c7af6000915b83831061109d5750505050604051918083019381845251809452604083019360408160051b85010192916000955b8287106110715785850386f35b90919293828061108d600193603f198a820301865288516136c7565b9601920196019592919092611064565b6006866001926110af859a999a614228565b815201920192019190959495611036565b346101c1576110ce3661382c565b91600192838110610b5b5763ffffffff80921660005260209160028352604060002093818554169081156102b85760058601546001600160a01b03949085163303610b2157336000526007865260406000209263ffffffff1984541617835560028301336001600160601b0360a01b8254161790556111528880850198018861408b565b60038301946001600160401b038211610b0b57611179826111738854613a6c565b88613d0a565b600082601f81116001146112da57806111a8926000916112cf575b508160011b916000199060031b1c19161790565b86555b600d541691823b156101c1576111e99260009283604051809681958294636902622f60e11b8452336004850152604060248501526044840191614495565b03925af18015610d35576112c0575b505416936040519160009181549161120f83613a6c565b928281169081156112a55750600114611269575b505050817f8c6653ecb56f1604fdb19b4dd01ceb99a9e9fb9699223449f110cbb5accd38d89261126492039020936040519182918583523395830190613aa6565b0390a4005b909192506000528360002090846000925b8484106112935750505090820190508180611264611223565b8054868501529201918590820161127a565b60ff1916865250505080151502820190508180611264611223565b6112c99061357e565b866111f8565b90508501358c611194565b50601f19831690876000528389600020928c8b6000915b838310611329575050501061130f575b50508882811b0186556111ab565b840135600019600385901b60f8161c191690558980611301565b858a013587559095019493840193879350018b8e6112f1565b346101c15760003660031901126101c157600080516020614766833981519152546040516001600160a01b039091168152602090f35b346101c15760403660031901126101c1576113916134e2565b63ffffffff60243591600060206040516113aa81613591565b82815201526113b881614675565b16600052600460205260046040600020019081548110156102b8576113e26113e891604093614318565b506141ab565b815181516001600160a01b0316815260209182015191810191909152f35bf35b346101c15760003660031901126101c157611421614688565b60008051602061476683398151915280546001600160a01b031981169091556000906001600160a01b03167f8be0079c531659141344cd1fd0a4f28419497f9722a3daafe3b4186f6b6457e08280a3005b346101c15760203660031901126101c15761148b6134b6565b6000608060405161149b816135ac565b60608152826020820152826040820152606080820152015260018060a01b0316600052600160205261032d6114d360406000206142af565b6040519182916020835260208301906137d9565b346101c15760203660031901126101c15763ffffffff806115066134e2565b1660005260026020526040600020818154169081156102b85760058101805490926001600160a01b0392909183163303610b2157600881019463ffffffff199283875416178655600982019561155f600184018861408b565b600a830193611571600285018661408b565b6115af600b850196611586600487018961408b565b600c8601985416611595614655565b604051916115a283613591565b8252602082015288614334565b60095496600160401b881015610b0b576001880180600955881015610af557886116519761165f96859460067ffc11613b01ba3b178277748ad3ec5529ed312225618063459881a4d1dad390689c6009600052029488867f6e1540171b6c0c960b71a7020d9f60077f6af931a8bbf590da0223dacf75c7af0194888603611664575b505050505050505050541694604051938493604085526040850190613aa6565b908382036020850152613aa6565b0390a2005b6116c97f6e1540171b6c0c960b71a7020d9f60077f6af931a8bbf590da0223dacf75c7b497600d976117459661171d9561174d9d5416908254161790557f6e1540171b6c0c960b71a7020d9f60077f6af931a8bbf590da0223dacf75c7b08a0161408b565b6116f58d7f6e1540171b6c0c960b71a7020d9f60077f6af931a8bbf590da0223dacf75c7b18a0161408b565b7f6e1540171b6c0c960b71a7020d9f60077f6af931a8bbf590da0223dacf75c7b2880161408b565b7f6e1540171b6c0c960b71a7020d9f60077f6af931a8bbf590da0223dacf75c7b38601614381565b0191016143fb565b808888818080808881611631565b346101c15760003660031901126101c1577f00000000000000000000000000000000000000000000000000000000000000006001600160a01b031630036117c65760206040517f360894a13ba1a3210667c828492db98dca3e2076cc3735a920a3ca505d382bbc8152f35b60405163703e46dd60e11b8152600490fd5b346101c15760003660031901126101c157600c546040516370a0823160e01b815230600482015290602090829060249082906001600160a01b03165afa8015610d355760009061182e575b602090604051908152f35b506020813d602011611859575b81611848602093836135e3565b810103126101c15760209051611823565b3d915061183b565b60403660031901126101c1576118756134b6565b6024356001600160401b0381116101c157366023820112156101c1576118a590369060248160040135910161361f565b906001600160a01b037f00000000000000000000000000000000000000000000000000000000000000008116308114908115611a61575b506117c6576118e9614688565b6040516352d1902d60e01b8152908216916020918281600481875afa60009181611a32575b5061192c57604051634c9c8ce360e01b815260048101859052602490fd5b9284937f360894a13ba1a3210667c828492db98dca3e2076cc3735a920a3ca505d382bbc90818103611a1a5750823b15611a015780546001600160a01b03191682179055604051907fbc7cd75a20ee27fd9adebab32041f755214dbc6bffa90cc0225b39da2e5c2d3b600080a28351156119e7575060008084846101bf96519101845af4903d156119de573d6119c181613604565b906119cf60405192836135e3565b8152600081943d92013e614702565b60609250614702565b92505050346119f257005b63b398979f60e01b8152600490fd5b604051634c9c8ce360e01b815260048101839052602490fd5b60249060405190632a87526960e21b82526004820152fd5b9091508381813d8311611a5a575b611a4a81836135e3565b810103126101c15751908661190e565b503d611a40565b9050817f360894a13ba1a3210667c828492db98dca3e2076cc3735a920a3ca505d382bbc54161415846118dc565b346101c1576020806003193601126101c15763ffffffff80611aaf6134e2565b1680600052600283526040600020908282541615610d6957611acf614655565b600783015411611c7d57601582019260ff845460081c16611c6b5760005b600a54811015611c5c578282611b0283614051565b5054881c161480611c3d575b611b1b575b600101611aed565b600d546040516365507c9560e11b81526001600160a01b0391821692918882600481875afa918215610d3557600092611c0e575b5080611b5a84614051565b505460401c16843b156101c157600090604051958691636902622f60e11b8352600483015260406024830152818381611b9a8d600f604484019101613aa6565b03925af1908115610d35576001948792611bff575b50611bb984614051565b505460401c167f66555f994e1af4e5e9289ab0b1a3dd45aa678a9d41cba0aa1f064e78f5d039828a876003611bed88614051565b50015416604051908152a49050611b13565b611c089061357e565b8a611baf565b9091508881813d8311611c36575b611c2681836135e3565b810103126101c157519089611b4f565b503d611c1c565b50611c4781614051565b505460401c6001600160a01b03161515611b0e565b845461ff001916610100178555005b60405163c1d7938360e01b8152600490fd5b604051630f036da960e21b8152600490fd5b346101c15760003660031901126101c157600b54611cac816139fd565b90611cba60405192836135e3565b8082526020908183019081600b6000527f0175b7a638427703f0dbe7bb9bbf987a2551717b34e79f33b5b1008d1fa01db96000915b838310611d565750505050604051918083019381845251809452604083019360408160051b85010192916000955b828710611d2a5785850386f35b909192938280611d46600193603f198a820301865288516137d9565b9601920196019592919092611d1d565b600486600192611d68859a999a6142af565b815201920192019190959495611cef565b346101c15760203660031901126101c157611d926134b6565b600060a0604051611da281613563565b828152826020820152826040820152826060820152826080820152015260018060a01b0316600052600360205260c0611dde6040600020613a14565b611406604051809261346d565b346101c1576020806003193601126101c157611e056134b6565b606080604051611e1481613548565b60008152818582015260006040820152015260018060a01b038091166000526007825261032d6040600020600360405193611e4e85613548565b611ec963ffffffff9687855416875260405190611e72826105ff8160018a01613aa6565b808801918252611ea1846002880154169660408a01978852611e9a6040518098819301613aa6565b03866135e3565b60608801948552604051988998828a52511690880152516080604088015260a0870190613508565b925116606085015251838203601f19016080850152613508565b346101c15760203660031901126101c157611efc6134e2565b611f04613c0e565b5063ffffffff80911660005260026020526040600020908154161561033157611f32600861032d9201614228565b6040519182916020835260208301906136c7565b346101c15760403660031901126101c157611f5f6134e2565b611f676134f5565b611f7082614675565b63ffffffff918281169283600052602090600282526040600020600e810160ff815416611f9c81613885565b6123a75760058201611fd7611fb78886845460a01c16613bf6565b825463ffffffff60a01b191660a09190911b63ffffffff60a01b16178255565b5483808260c01c169160a01c16116123955760005467ffffffff000000006120028583881c16613be1565b861b169067ffffffff00000000191617600055336000526003845260406000209160ff6000925460101c166002811015610db15715612200575b506000548254600160401b600160e01b031991861c85169190911667ffffffff00000001600160e01b0319909116173360401b600160401b600160e01b031617825563ffffffff19906120bb612090614655565b9660028501978855849067ffffffff0000000082549160201b169067ffffffff000000001916179055565b6120ca6001840191825461419e565b81556003830192835483866120e18b828516613bf6565b169116178455600a54600160401b811015610b0b578060016121069201600a55614051565b6121ea577fc541e3defd92fd2d8306e9c91b36c15f096115c41c7a9a36ac548a487d8891aa97869383830361216c575b50505050505050336000526005825260406000208560005282526040600020600160ff19825416179055604051931683523392a3005b83548354871690861617808455845467ffffffff0000000019909116908a1c861660201b67ffffffff00000000161783556003936121c790548454600160401b600160e01b031916600160401b600160e01b03909116178455565b546001830155546002820155019254169082541617905585808281808080612136565b634e487b7160e01b600052600060045260246000fd5b90506001600160601b0361221c81601284015416858916614168565b169060018060a01b03600c5416906040516370a0823160e01b81523360048201528681602481865afa8015610d35578491600091612364575b501061235257604051636eb1769f60e11b81523360048201523060248201528681604481865afa8015610d35578491600091612321575b501061230f57856000926064604051809581936323b872dd60e01b83523360048401523060248401528860448401525af1918215610d35576013926122f2575b50016122d982825461419e565b9055600182016122ea82825461419e565b90558761203c565b61230890873d8911610d2e57610d1f81836135e3565b50896122cc565b60405163ea75ebd560e01b8152600490fd5b809250888092503d831161234b575b61233a81836135e3565b810103126101c1578390518b61228c565b503d612330565b604051632858f9ab60e11b8152600490fd5b809250888092503d831161238e575b61237d81836135e3565b810103126101c1578390518b612255565b503d612373565b6040516374a227cd60e01b8152600490fd5b6040516305fb6d9960e41b8152600490fd5b346101c15760603660031901126101c1576001600160401b036004358181116101c1576123ea903690600401613656565b906123f36134cc565b6044358281116101c15761240b903690600401613656565b9260019182825110610b5b5782855110610b5b5760018060a01b038091169283600052602095818752604060002093805190878211610b0b57612452826111738854613a6c565b8890601f831160011461267d57612482929160009183612672575b50508160011b916000199060031b1c19161790565b84555b818401956affffffffffffffffffffff60a81b95600160a01b90878954161717875560028501978251918211610b0b576124c9826124c38b54613a6c565b8b613d0a565b80601f831160011461260e575081906124f8936000926126035750508160011b916000199060031b1c19161790565b86555b600b5490600160401b821015610b0b57810180600b55811015610af557600b60005260021b94857f0175b7a638427703f0dbe7bb9bbf987a2551717b34e79f33b5b1008d1fa01db9019183830361254e57005b7f0175b7a638427703f0dbe7bb9bbf987a2551717b34e79f33b5b1008d1fa01dbc95600395612580866125fc9661408b565b7f0175b7a638427703f0dbe7bb9bbf987a2551717b34e79f33b5b1008d1fa01dba89019282541690835492826001600160601b0360a01b851617855560ff8060a01b915460a01c16151560a01b169216171790557f0175b7a638427703f0dbe7bb9bbf987a2551717b34e79f33b5b1008d1fa01dbb860161408b565b0154910155005b01519050898061246d565b908493601f1984168b60005283600020936000905b8282106126595750508411612640575b505050811b0186556124fb565b015160001960f88460031b161c19169055888080612633565b8484015186558897909501949384019390810190612623565b015190508a8061246d565b849291601f19831691886000528b6000209260005b8d8282106126c957505084116126b0575b505050811b018455612485565b015160001960f88460031b161c191690558980806126a3565b8385015186558997909501949384019301612692565b346101c1576101603660031901126101c1576004356001600160401b0381116101c157612710903690600401613656565b6024356001600160401b0381116101c15761272f903690600401613656565b6044356001600160401b0381116101c15761274e903690600401613656565b916064356001600160401b0381116101c15761276e903690600401613656565b6084359363ffffffff851685036101c15761012435936001600160601b03851685036101c15761014435151561014435036101c1576001845110610b5b576001815110610b5b576001825110610b5b576001835110610b5b5760c43560a43511610b5b576101043560e43511610b5b576000549363ffffffff6127f2818716613be1565b16809563ffffffff191617600055612808613c40565b9560a435612814614655565b10156132215760026101608801525b610144351561320b5760006101a08801526001600160601b03166102208701525b8486526020860152604085015260808401523360a0840152606083015263ffffffff831660e083015260a43561010083015260c43561012083015260e4356101e08301526101043561020083015260026101808301526128a2614655565b610260830152600052600260205260406000209063ffffffff81511663ffffffff1983541617825560208101519283516001600160401b038111610b0b576128fa816128f16001870154613a6c565b60018701613d0a565b6020601f821160011461319c57819061292c939495966000926130445750508160011b916000199060031b1c19161790565b60018401555b60408201519283516001600160401b038111610b0b57612962816129596002850154613a6c565b60028501613d0a565b6020601f821160011461312d578190612994939495966000926130445750508160011b916000199060031b1c19161790565b60028201555b60608301519283516001600160401b038111610b0b576129ca816129c16003860154613a6c565b60038601613d0a565b6020601f82116001146130be5781906129fc939495966000926130445750508160011b916000199060031b1c19161790565b60038301555b60808101519283516001600160401b038111610b0b57612a3281612a296004870154613a6c565b60048701613d0a565b6020601f821160011461304f578190612a64939495966000926130445750508160011b916000199060031b1c19161790565b60048401555b60a08281015160058501805460c08087015160e088015163ffffffff60c01b921b91909116941b63ffffffff60a01b166001600160a01b039093166001600160e01b0319909116179190911791909117905561010082015160068401556101208201516007840155610140820151805160088501805463ffffffff90921663ffffffff1990921691909117905560208101518051906001600160401b038211610b0b57612b2782612b1e6009890154613a6c565b60098901613d0a565b602090601f8311600114612fd257612b57929160009183612e145750508160011b916000199060031b1c19161790565b60098501555b60408101518051906001600160401b038211610b0b57612b8d82612b84600a890154613a6c565b600a8901613d0a565b602090601f8311600114612f6057612bbd929160009183612e145750508160011b916000199060031b1c19161790565b600a8501555b60608101518051906001600160401b038211610b0b57612bf382612bea600b890154613a6c565b600b8901613d0a565b602090601f8311600114612eee57612c23929160009183612e145750508160011b916000199060031b1c19161790565b600b8501555b60808101516020815191612c4083600c8901613d51565b01600c860160005260206000206000915b838310612eae575050505060a0600d8501910151906020825192612c758484613e07565b019060005260206000206000915b838310612e905750505050610160820151612c9d81613885565b612ca681613885565b600e84015461018084015190612cbb82613885565b612cc482613885565b6101a0850151906002821015610db15760ff62ff000061ff009360101b1694169062ffffff1916179160081b161717600e8401556101c08201519283516001600160401b038111610b0b57612d2981612d20600f850154613a6c565b600f8501613d0a565b6020601f8211600114612e1f579080612d5d926015959697600092612e145750508160011b916000199060031b1c19161790565b600f8201555b6101e084015160108201556102008401516011820155601281016001600160601b03610220860151166001600160601b031982541617905561024084015160138201556102608401516014820155016102808301511515815460ff61ff006102a0870151151560081b1692169061ffff19161717905563ffffffff60c0818060005416931693015116907fac3c2fbb08f906d92c1b4be6fa025f63708bafa70869110e931d718b9532c411600080a4005b01519050878061246d565b601f19821695600f840160005260206000209660005b818110612e78575091601595969791846001959410612e5f575b505050811b01600f820155612d63565b015160001960f88460031b161c19169055868080612e4f565b83830151895560019098019760209384019301612e35565b6004602082612ea26001945186613e8c565b01920192019190612c83565b6002602082612ee26001945186906020600191828060a01b038151166001600160601b0360a01b8554161784550151910155565b01920192019190612c51565b9190600b87016000526020600020906000935b601f1984168510612f45576001945083601f19811610612f2c575b505050811b01600b850155612c29565b015160001960f88460031b161c19169055868080612f1c565b81810151835560209485019460019093019290910190612f01565b9190600a87016000526020600020906000935b601f1984168510612fb7576001945083601f19811610612f9e575b505050811b01600a850155612bc3565b015160001960f88460031b161c19169055868080612f8e565b81810151835560209485019460019093019290910190612f73565b9190600987016000526020600020906000935b601f1984168510613029576001945083601f19811610613010575b505050811b016009850155612b5d565b015160001960f88460031b161c19169055868080613000565b81810151835560209485019460019093019290910190612fe5565b01519050868061246d565b6004850160005260206000209060005b601f19841681106130a6575060019394959683601f1981161061308d575b505050811b016004840155612a6a565b015160001960f88460031b161c1916905585808061307d565b9091602060018192858b01518155019301910161305f565b6003840160005260206000209060005b601f1984168110613115575060019394959683601f198116106130fc575b505050811b016003830155612a02565b015160001960f88460031b161c191690558580806130ec565b9091602060018192858b0151815501930191016130ce565b6002830160005260206000209060005b601f1984168110613184575060019394959683601f1981161061316b575b505050811b01600282015561299a565b015160001960f88460031b161c1916905585808061315b565b9091602060018192858b01518155019301910161313d565b6001850160005260206000209060005b601f19841681106131f3575060019394959683601f198116106131da575b505050811b016001840155612932565b015160001960f88460031b161c191690558580806131ca565b9091602060018192858b0151815501930191016131ac565b50600061022087015260016101a0870152612844565b6000610160880152612823565b346101c15760403660031901126101c1576132476134b6565b61324f6134f5565b9060018060a01b0316600052600560205263ffffffff60406000209116600052602052602060ff604060002054166040519015158152f35b346101c1576020806003193601126101c15763ffffffff806132a76134e2565b16600052600282526040600020908154161561033157600d6132c99101613b3c565b6040519082820192808352815180945260408301938160408260051b8601019301916000955b8287106132fc5785850386f35b909192938280600192603f198982030185528751906133486133366080878060a01b03855116845285850151908087860152840190613508565b60408401518382036040850152613508565b9160608091015191015296019201960195929190926132ef565b346101c15760203660031901126101c1576001600160a01b036133836134b6565b1660005260016020526020600360406000200154604051908152f35b346101c15760003660031901126101c157600a546133bc816139fd565b6133c960405191826135e3565b818152602090602081019283600a6000527fc65a7bb8d6351c1cf70c95a316cc6a92839c986682d98bc35f958f4883f9d2a86000915b83831061345057604080516020808252875190820181905289928201908960005b82811061342d5784840385f35b9091928260c0826134416001948a5161346d565b01960191019492919094613420565b60048660019261345f85613a14565b8152019201920191906133ff565b60a0908163ffffffff91828151168552826020820151166020860152600180831b0360408201511660408601526060810151606086015260808101516080860152015116910152565b600435906001600160a01b03821682036101c157565b602435906001600160a01b03821682036101c157565b6004359063ffffffff821682036101c157565b6024359063ffffffff821682036101c157565b919082519283825260005b848110613534575050826000602080949584010152601f8019910116010190565b602081830181015184830182015201613513565b608081019081106001600160401b03821117610b0b57604052565b60c081019081106001600160401b03821117610b0b57604052565b6001600160401b038111610b0b57604052565b604081019081106001600160401b03821117610b0b57604052565b60a081019081106001600160401b03821117610b0b57604052565b6102c081019081106001600160401b03821117610b0b57604052565b90601f801991011681019081106001600160401b03821117610b0b57604052565b6001600160401b038111610b0b57601f01601f191660200190565b92919261362b82613604565b9161363960405193846135e3565b8294818452818301116101c1578281602093846000960137010152565b9080601f830112156101c1578160206136719335910161361f565b90565b90815180825260208080930193019160005b828110613694575050505090565b90919293826040826136bb60019489516020809160018060a01b0381511684520151910152565b01950193929101613686565b63ffffffff81511682526020906136eb8282015160c08486015260c0850190613508565b9161370460409360408401518682036040880152613508565b9161371d60609360608301518782036060890152613508565b9260a0613738608095608085015189820360808b0152613674565b9201519560a08184039101528551938483528383019184808760051b8601019801966000945b8786106137715750505050505050505090565b9091929394959697988780600192601f198582030189528c5190848060a01b03825116815287806137c06137b0868601518d888701528d860190613508565b8a8601518582038c870152613508565b9301519101529b0196019601949796959392919061375e565b906080806138236137f3855160a0865260a0860190613508565b60018060a01b03602087015116602086015260408601511515604086015260608601518582036060870152613508565b93015191015290565b60406003198201126101c15760043563ffffffff811681036101c157916024356001600160401b03928382116101c157806023830112156101c15781600401359384116101c157602484830101116101c1576024019190565b60031115610db157565b9061394c6102c06138f86138e66138d46138c263ffffffff948589511688526020890151908060208a0152880190613508565b60408801518782036040890152613508565b60608701518682036060880152613508565b60808601518582036080870152613508565b9060018060a01b0360a08601511660a08501528060c08601511660c085015260e08501511660e0840152610100808501519084015261012080850151908401526101408085015190848303908501526136c7565b610160808401519061395d82613885565b830152610180808401519061397182613885565b8301526101a090818401516002811015610db1576139a0928401526101c0808501519084830390850152613508565b916101e0808201519083015261020080820151908301526102206001600160601b0381830151169083015261024080820151908301526102608082015190830152610280808201511515908301526102a080910151151591015290565b6001600160401b038111610b0b5760051b60200190565b90604051613a2181613563565b60a08193600381549163ffffffff928381168652838160201c166020870152600180861b039060401c1660408601526001810154606086015260028101546080860152015416910152565b90600182811c92168015613a9c575b6020831014613a8657565b634e487b7160e01b600052602260045260246000fd5b91607f1691613a7b565b805460009392613ab582613a6c565b91828252602093600191600181169081600014613b1d5750600114613adc575b5050505050565b90939495506000929192528360002092846000945b838610613b0957505050500101903880808080613ad5565b805485870183015294019385908201613af1565b60ff19168685015250505090151560051b010191503880808080613ad5565b908154613b48816139fd565b92604093613b5960405191826135e3565b82815280946020809201926000526020600020906000935b858510613b8057505050505050565b6004846001928451613b9181613548565b848060a01b0387541681528551613bae816103b181898c01613aa6565b838201528551613bc5816103b18160028c01613aa6565b8682015260038701546060820152815201930194019391613b71565b90600163ffffffff80931601918211610d4157565b91909163ffffffff80809416911601918211610d4157565b60405190613c1b82613563565b816000815260a060609182602082015282604082015282808201528260808201520152565b60405190613c4d826135c7565b816102a0600091828152606080602083015280604083015280808301528060808301528360a08301528360c08301528360e08301528361010083015283610120830152613c98613c0e565b6101408301528361016083015283610180830152836101a08301526101c0820152826101e082015282610200820152826102208201528261024082015282610260820152826102808201520152565b6002821015610db15752565b818110613cfe575050565b60008155600101613cf3565b9190601f8111613d1957505050565b613d45926000526020600020906020601f840160051c83019310613d47575b601f0160051c0190613cf3565b565b9091508190613d38565b600160401b8211610b0b578054828255808310613d6d57505050565b6001906001600160ff1b038082168203610d415784168403610d415760009260005260206000209060011b81019360011b015b838110613dad5750505050565b808360029255838382015501613da0565b613dc88154613a6c565b9081613dd2575050565b81601f60009311600114613de4575055565b908083918252613e03601f60208420940160051c840160018501613cf3565b5555565b600160401b8211610b0b578054828255808310613e2357505050565b6002906001600160fe1b038082168203610d415784168403610d415760009260005260206000209060021b81019360021b015b838110613e635750505050565b808360049255613e7560018201613dbe565b613e80838201613dbe565b83600382015501613e56565b9060018060a01b038151166001600160601b0360a01b83541617825560018083016020808401519182516001600160401b0393848211610b0b57613eda82613ed48554613a6c565b85613d0a565b8390601f8311600114613fef57613f09929160009183613f755750508160011b916000199060031b1c19161790565b90555b60028501926040850151908151938411610b0b57613f3484613f2e8754613a6c565b87613d0a565b82601f8511600114613f80575050826003959360609593613f6b93600092613f755750508160011b916000199060031b1c19161790565b90555b0151910155565b01519050388061246d565b91601f949391941984168660005283600020936000905b828210613fd85750509160039795939185606098969410613fc0575b505050811b019055613f6e565b015160001983891b60f8161c19169055388080613fb3565b808886978294978701518155019601940190613f97565b869291601f1983169185600052866000209260005b8882821061403b5750508411614022575b505050811b019055613f0c565b015160001960f88460031b161c19169055388080614015565b8385015186558b97909501949384019301614004565b600a54811015610af557600a60005260021b7fc65a7bb8d6351c1cf70c95a316cc6a92839c986682d98bc35f958f4883f9d2a80190600090565b908082146141645761409d8154613a6c565b906001600160401b038211610b0b576140ba82613ed48554613a6c565b600090601f83116001146140f9576140ea9291600091836140ee5750508160011b916000199060031b1c19161790565b9055565b01549050388061246d565b815260208082208483528183209291601f1985169083905b82821061414b575050908460019594939210614132575b505050811b019055565b015460001960f88460031b161c19169055388080614128565b8495819295850154815560018091019601940190614111565b5050565b9190916001600160601b0380809416911602918216918203610d4157565b908160209103126101c1575180151581036101c15790565b91908201809211610d4157565b906040516141b881613591565b82546001600160a01b031681526001909201546020830152565b9081546141de816139fd565b926141ec60405194856135e3565b818452600090815260208082208186015b84841061420b575050505050565b60028360019261421a856141ab565b8152019201930192906141fd565b9060405161423581613563565b60a06142aa6005839563ffffffff815416855260405161425c816103b18160018601613aa6565b6020860152604051614275816103b18160028601613aa6565b604086015260405161428e816103b18160038601613aa6565b606086015261429f600482016141d2565b608086015201613b3c565b910152565b906040516142bc816135ac565b6080600382946040516142d3816103b18185613aa6565b845260018101546001600160a01b038116602086015260a01c60ff1615156040808601919091525161430c816103b18160028601613aa6565b60608501520154910152565b8054821015610af55760005260206000209060011b0190600090565b8054600160401b811015610b0b5761435191600182018155614318565b9190916121ea57805182546001600160a01b0319166001600160a01b039190911617825560200151600190910155565b818114614164578154916143958383613d51565b6000526020600020906000526020600020906000905b8382106143b85750505050565b8060019184036143d3575b60028091019301910190916143ab565b818060a01b038154166001600160601b0360a01b8554161784558180820154908501556143c3565b8181146141645781549161440f8383613e07565b6000526020600020906000526020600020906000905b8382106144325750505050565b80600191840361444d575b6004809101930191019091614425565b818060a01b038154166001600160601b0360a01b8554161784556144768280830190860161408b565b614486600280830190860161408b565b6003808201549085015561443d565b908060209392818452848401376000828201840152601f01601f1916010190565b63ffffffff906144c581614675565b1680600052600260205260406000206144dc614655565b6010820154111580614553575b156144fd57600e01805461ff001916905550565b614505614655565b601182015410614513575050565b600e01805461ff00191661010017905561452b614655565b907f835839f42ff642197e82f2887491db41a51c32dc7004091799724e9e3d6f2489600080a3565b5061455c614655565b601182015410156144e9565b90614572826139fd565b61457f60405191826135e3565b8281528092614590601f19916139fd565b019060005b8281106145a157505050565b6020906145ac613c40565b82828501015201614595565b63ffffffff809116908114610d415760010190565b8051821015610af55760209160051b010190565b6001600160a01b0390811690811561463c5760008051602061476683398151915280546001600160a01b031981168417909155167f8be0079c531659141344cd1fd0a4f28419497f9722a3daafe3b4186f6b6457e0600080a3565b604051631e4fbdf760e01b815260006004820152602490fd5b6103e880420290428204811442151715610d41578101809111610d415790565b63ffffffff80600054169116116102b857565b600080516020614766833981519152546001600160a01b031633036146a957565b60405163118cdaa760e01b8152336004820152602490fd5b60ff7ff0c57e16840df040f15088dc2f81fe391c3923bec73e23a9662efc9c229c6a005460401c16156146f057565b604051631afcd79f60e31b8152600490fd5b90614729575080511561471757805190602001fd5b604051630a12f52160e11b8152600490fd5b8151158061475c575b61473a575090565b604051639996b31560e01b81526001600160a01b039091166004820152602490fd5b50803b1561473256fe9016d09d72d40fdae2fd8ceac6b6234c7706214fd39c1cd1e609a0528c199300a2646970667358221220d4e3f9c197a281471eac0d3830b48f6996c370b6f03b8e24a98bc862d77a156364736f6c63430008180033",
    "linkReferences": {}
  },
  "methodIdentifiers": {
    "UPGRADE_INTERFACE_VERSION()": "ad3cb1cc",
    "checkContractBalance()": "50312c9e",
    "checkUserBalance(address)": "0a9bfef5",
    "createAccount(string,address,string)": "331ef976",
    "createEvent(string,string,string,string,uint32,uint256,uint256,uint256,uint256,uint96,bool)": "25f3724b",
    "createGroup(uint32)": "654a3c6d",
    "getAllEventGroups()": "909fdec9",
    "getAllEvents()": "c27a500d",
    "getAllGroupMessages(uint32)": "1755b97a",
    "getAllTickets()": "03e96fe3",
    "getAllUser()": "47531df8",
    "getEventById(uint32)": "cd71ed35",
    "getEventGroup(uint32)": "3809f6f5",
    "getGroupMember(uint32,uint256)": "85a646c9",
    "getGroupMembers(uint32)": "ec976a0a",
    "getNfts(address)": "44cc2afe",
    "getTicket(address)": "4717dea9",
    "getUser(address)": "6f77926b",
    "groupChat(uint32,string)": "be7fb5d7",
    "hasPurchasedTicket(address,uint32)": "17f69df6",
    "initialize(address,address,address)": "c0c53b8b",
    "isRegistered(address)": "c3c5a547",
    "joinGroup(uint32)": "eec932f7",
    "mintNFTsForAttendees(uint32)": "48862857",
    "mintNft(uint32,string)": "8fd9baca",
    "owner()": "8da5cb5b",
    "proxiableUUID()": "52d1902d",
    "purchaseTicket(uint32,uint32)": "3405741d",
    "refundFee(uint32)": "bdacb17a",
    "renounceOwnership()": "715018a6",
    "transferOwnership(address)": "f2fde38b",
    "updateEventStatus(uint32)": "a87f86f9",
    "upgradeToAndCall(address,bytes)": "4f1ef286",
    "withdrawEventFee(uint32)": "b33f650e"
  },
  "id": 53
}