{
  "abi": [
    {
      "type": "function",
      "name": "UPGRADE_INTERFACE_VERSION",
      "inputs": [],
      "outputs": [
        {
          "name": "",
          "type": "string",
          "internalType": "string"
        }
      ],
      "stateMutability": "view"
    },
    {
      "type": "function",
      "name": "checkContractBalance",
      "inputs": [],
      "outputs": [
        {
          "name": "bal_",
          "type": "uint256",
          "internalType": "uint256"
        }
      ],
      "stateMutability": "view"
    },
    {
      "type": "function",
      "name": "checkUserBalance",
      "inputs": [
        {
          "name": "_addr",
          "type": "address",
          "internalType": "address"
        }
      ],
      "outputs": [
        {
          "name": "bal_",
          "type": "uint256",
          "internalType": "uint256"
        }
      ],
      "stateMutability": "view"
    },
    {
      "type": "function",
      "name": "createAccount",
      "inputs": [
        {
          "name": "_email",
          "type": "string",
          "internalType": "string"
        },
        {
          "name": "_addr",
          "type": "address",
          "internalType": "address"
        },
        {
          "name": "_avatar",
          "type": "string",
          "internalType": "string"
        }
      ],
      "outputs": [],
      "stateMutability": "nonpayable"
    },
    {
      "type": "function",
      "name": "createEvent",
      "inputs": [
        {
          "name": "_title",
          "type": "string",
          "internalType": "string"
        },
        {
          "name": "_imageUrl",
          "type": "string",
          "internalType": "string"
        },
        {
          "name": "_description",
          "type": "string",
          "internalType": "string"
        },
        {
          "name": "_location",
          "type": "string",
          "internalType": "string"
        },
        {
          "name": "_capacity",
          "type": "uint32",
          "internalType": "uint32"
        },
        {
          "name": "_regStartTime",
          "type": "uint256",
          "internalType": "uint256"
        },
        {
          "name": "_regEndTime",
          "type": "uint256",
          "internalType": "uint256"
        },
        {
          "name": "_eventStartTime",
          "type": "uint256",
          "internalType": "uint256"
        },
        {
          "name": "_eventEndTime",
          "type": "uint256",
          "internalType": "uint256"
        },
        {
          "name": "_ticketPrice",
          "type": "uint96",
          "internalType": "uint96"
        },
        {
          "name": "_isEventPaid",
          "type": "bool",
          "internalType": "bool"
        },
        {
          "name": "_nftUrl",
          "type": "string",
          "internalType": "string"
        }
      ],
      "outputs": [],
      "stateMutability": "nonpayable"
    },
    {
      "type": "function",
      "name": "createGroup",
      "inputs": [
        {
          "name": "_eventId",
          "type": "uint32",
          "internalType": "uint32"
        }
      ],
      "outputs": [],
      "stateMutability": "nonpayable"
    },
    {
      "type": "function",
      "name": "getAllEventGroups",
      "inputs": [],
      "outputs": [
        {
          "name": "",
          "type": "tuple[]",
          "internalType": "struct BlumaProtocol.EventGroup[]",
          "components": [
            {
              "name": "eventId",
              "type": "uint32",
              "internalType": "uint32"
            },
            {
              "name": "title",
              "type": "string",
              "internalType": "string"
            },
            {
              "name": "imageUrl",
              "type": "string",
              "internalType": "string"
            },
            {
              "name": "description",
              "type": "string",
              "internalType": "string"
            },
            {
              "name": "members",
              "type": "tuple[]",
              "internalType": "struct BlumaProtocol.Member[]",
              "components": [
                {
                  "name": "user",
                  "type": "address",
                  "internalType": "address"
                },
                {
                  "name": "joinTime",
                  "type": "uint256",
                  "internalType": "uint256"
                }
              ]
            },
            {
              "name": "messages",
              "type": "tuple[]",
              "internalType": "struct BlumaProtocol.Message[]",
              "components": [
                {
                  "name": "sender",
                  "type": "address",
                  "internalType": "address"
                },
                {
                  "name": "email",
                  "type": "string",
                  "internalType": "string"
                },
                {
                  "name": "text",
                  "type": "string",
                  "internalType": "string"
                },
                {
                  "name": "timestamp",
                  "type": "uint256",
                  "internalType": "uint256"
                }
              ]
            }
          ]
        }
      ],
      "stateMutability": "view"
    },
    {
      "type": "function",
      "name": "getAllEvents",
      "inputs": [],
      "outputs": [
        {
          "name": "",
          "type": "tuple[]",
          "internalType": "struct BlumaProtocol.Event[]",
          "components": [
            {
              "name": "eventId",
              "type": "uint32",
              "internalType": "uint32"
            },
            {
              "name": "title",
              "type": "string",
              "internalType": "string"
            },
            {
              "name": "imageUrl",
              "type": "string",
              "internalType": "string"
            },
            {
              "name": "location",
              "type": "string",
              "internalType": "string"
            },
            {
              "name": "description",
              "type": "string",
              "internalType": "string"
            },
            {
              "name": "creator",
              "type": "address",
              "internalType": "address"
            },
            {
              "name": "seats",
              "type": "uint32",
              "internalType": "uint32"
            },
            {
              "name": "capacity",
              "type": "uint32",
              "internalType": "uint32"
            },
            {
              "name": "regStartTime",
              "type": "uint256",
              "internalType": "uint256"
            },
            {
              "name": "regEndTime",
              "type": "uint256",
              "internalType": "uint256"
            },
            {
              "name": "groups",
              "type": "tuple",
              "internalType": "struct BlumaProtocol.EventGroup",
              "components": [
                {
                  "name": "eventId",
                  "type": "uint32",
                  "internalType": "uint32"
                },
                {
                  "name": "title",
                  "type": "string",
                  "internalType": "string"
                },
                {
                  "name": "imageUrl",
                  "type": "string",
                  "internalType": "string"
                },
                {
                  "name": "description",
                  "type": "string",
                  "internalType": "string"
                },
                {
                  "name": "members",
                  "type": "tuple[]",
                  "internalType": "struct BlumaProtocol.Member[]",
                  "components": [
                    {
                      "name": "user",
                      "type": "address",
                      "internalType": "address"
                    },
                    {
                      "name": "joinTime",
                      "type": "uint256",
                      "internalType": "uint256"
                    }
                  ]
                },
                {
                  "name": "messages",
                  "type": "tuple[]",
                  "internalType": "struct BlumaProtocol.Message[]",
                  "components": [
                    {
                      "name": "sender",
                      "type": "address",
                      "internalType": "address"
                    },
                    {
                      "name": "email",
                      "type": "string",
                      "internalType": "string"
                    },
                    {
                      "name": "text",
                      "type": "string",
                      "internalType": "string"
                    },
                    {
                      "name": "timestamp",
                      "type": "uint256",
                      "internalType": "uint256"
                    }
                  ]
                }
              ]
            },
            {
              "name": "regStatus",
              "type": "uint8",
              "internalType": "enum BlumaProtocol.RegStatus"
            },
            {
              "name": "eventStatus",
              "type": "uint8",
              "internalType": "enum BlumaProtocol.EventStatus"
            },
            {
              "name": "eventType",
              "type": "uint8",
              "internalType": "enum BlumaProtocol.EventType"
            },
            {
              "name": "nftUrl",
              "type": "string",
              "internalType": "string"
            },
            {
              "name": "eventStartTime",
              "type": "uint256",
              "internalType": "uint256"
            },
            {
              "name": "eventEndTime",
              "type": "uint256",
              "internalType": "uint256"
            },
            {
              "name": "ticketPrice",
              "type": "uint96",
              "internalType": "uint96"
            },
            {
              "name": "totalSales",
              "type": "uint256",
              "internalType": "uint256"
            },
            {
              "name": "createdAt",
              "type": "uint256",
              "internalType": "uint256"
            },
            {
              "name": "isCreatorPaid",
              "type": "bool",
              "internalType": "bool"
            },
            {
              "name": "hasMinted",
              "type": "bool",
              "internalType": "bool"
            }
          ]
        }
      ],
      "stateMutability": "view"
    },
    {
      "type": "function",
      "name": "getAllGroupMessages",
      "inputs": [
        {
          "name": "_eventId",
          "type": "uint32",
          "internalType": "uint32"
        }
      ],
      "outputs": [
        {
          "name": "",
          "type": "tuple[]",
          "internalType": "struct BlumaProtocol.Message[]",
          "components": [
            {
              "name": "sender",
              "type": "address",
              "internalType": "address"
            },
            {
              "name": "email",
              "type": "string",
              "internalType": "string"
            },
            {
              "name": "text",
              "type": "string",
              "internalType": "string"
            },
            {
              "name": "timestamp",
              "type": "uint256",
              "internalType": "uint256"
            }
          ]
        }
      ],
      "stateMutability": "view"
    },
    {
      "type": "function",
      "name": "getAllTickets",
      "inputs": [],
      "outputs": [
        {
          "name": "_tickets",
          "type": "tuple[]",
          "internalType": "struct BlumaProtocol.Ticket[]",
          "components": [
            {
              "name": "ticketId",
              "type": "uint32",
              "internalType": "uint32"
            },
            {
              "name": "eventId",
              "type": "uint32",
              "internalType": "uint32"
            },
            {
              "name": "owner",
              "type": "address",
              "internalType": "address"
            },
            {
              "name": "ticketCost",
              "type": "uint256",
              "internalType": "uint256"
            },
            {
              "name": "purchaseTime",
              "type": "uint256",
              "internalType": "uint256"
            },
            {
              "name": "numberOfTicket",
              "type": "uint32",
              "internalType": "uint32"
            }
          ]
        }
      ],
      "stateMutability": "view"
    },
    {
      "type": "function",
      "name": "getAllUser",
      "inputs": [],
      "outputs": [
        {
          "name": "",
          "type": "tuple[]",
          "internalType": "struct BlumaProtocol.User[]",
          "components": [
            {
              "name": "email",
              "type": "string",
              "internalType": "string"
            },
            {
              "name": "userAddr",
              "type": "address",
              "internalType": "address"
            },
            {
              "name": "isRegistered",
              "type": "bool",
              "internalType": "bool"
            },
            {
              "name": "avatar",
              "type": "string",
              "internalType": "string"
            },
            {
              "name": "balance",
              "type": "uint256",
              "internalType": "uint256"
            }
          ]
        }
      ],
      "stateMutability": "view"
    },
    {
      "type": "function",
      "name": "getEventById",
      "inputs": [
        {
          "name": "_eventId",
          "type": "uint32",
          "internalType": "uint32"
        }
      ],
      "outputs": [
        {
          "name": "events_",
          "type": "tuple",
          "internalType": "struct BlumaProtocol.Event",
          "components": [
            {
              "name": "eventId",
              "type": "uint32",
              "internalType": "uint32"
            },
            {
              "name": "title",
              "type": "string",
              "internalType": "string"
            },
            {
              "name": "imageUrl",
              "type": "string",
              "internalType": "string"
            },
            {
              "name": "location",
              "type": "string",
              "internalType": "string"
            },
            {
              "name": "description",
              "type": "string",
              "internalType": "string"
            },
            {
              "name": "creator",
              "type": "address",
              "internalType": "address"
            },
            {
              "name": "seats",
              "type": "uint32",
              "internalType": "uint32"
            },
            {
              "name": "capacity",
              "type": "uint32",
              "internalType": "uint32"
            },
            {
              "name": "regStartTime",
              "type": "uint256",
              "internalType": "uint256"
            },
            {
              "name": "regEndTime",
              "type": "uint256",
              "internalType": "uint256"
            },
            {
              "name": "groups",
              "type": "tuple",
              "internalType": "struct BlumaProtocol.EventGroup",
              "components": [
                {
                  "name": "eventId",
                  "type": "uint32",
                  "internalType": "uint32"
                },
                {
                  "name": "title",
                  "type": "string",
                  "internalType": "string"
                },
                {
                  "name": "imageUrl",
                  "type": "string",
                  "internalType": "string"
                },
                {
                  "name": "description",
                  "type": "string",
                  "internalType": "string"
                },
                {
                  "name": "members",
                  "type": "tuple[]",
                  "internalType": "struct BlumaProtocol.Member[]",
                  "components": [
                    {
                      "name": "user",
                      "type": "address",
                      "internalType": "address"
                    },
                    {
                      "name": "joinTime",
                      "type": "uint256",
                      "internalType": "uint256"
                    }
                  ]
                },
                {
                  "name": "messages",
                  "type": "tuple[]",
                  "internalType": "struct BlumaProtocol.Message[]",
                  "components": [
                    {
                      "name": "sender",
                      "type": "address",
                      "internalType": "address"
                    },
                    {
                      "name": "email",
                      "type": "string",
                      "internalType": "string"
                    },
                    {
                      "name": "text",
                      "type": "string",
                      "internalType": "string"
                    },
                    {
                      "name": "timestamp",
                      "type": "uint256",
                      "internalType": "uint256"
                    }
                  ]
                }
              ]
            },
            {
              "name": "regStatus",
              "type": "uint8",
              "internalType": "enum BlumaProtocol.RegStatus"
            },
            {
              "name": "eventStatus",
              "type": "uint8",
              "internalType": "enum BlumaProtocol.EventStatus"
            },
            {
              "name": "eventType",
              "type": "uint8",
              "internalType": "enum BlumaProtocol.EventType"
            },
            {
              "name": "nftUrl",
              "type": "string",
              "internalType": "string"
            },
            {
              "name": "eventStartTime",
              "type": "uint256",
              "internalType": "uint256"
            },
            {
              "name": "eventEndTime",
              "type": "uint256",
              "internalType": "uint256"
            },
            {
              "name": "ticketPrice",
              "type": "uint96",
              "internalType": "uint96"
            },
            {
              "name": "totalSales",
              "type": "uint256",
              "internalType": "uint256"
            },
            {
              "name": "createdAt",
              "type": "uint256",
              "internalType": "uint256"
            },
            {
              "name": "isCreatorPaid",
              "type": "bool",
              "internalType": "bool"
            },
            {
              "name": "hasMinted",
              "type": "bool",
              "internalType": "bool"
            }
          ]
        }
      ],
      "stateMutability": "view"
    },
    {
      "type": "function",
      "name": "getEventGroup",
      "inputs": [
        {
          "name": "_eventId",
          "type": "uint32",
          "internalType": "uint32"
        }
      ],
      "outputs": [
        {
          "name": "",
          "type": "tuple",
          "internalType": "struct BlumaProtocol.EventGroup",
          "components": [
            {
              "name": "eventId",
              "type": "uint32",
              "internalType": "uint32"
            },
            {
              "name": "title",
              "type": "string",
              "internalType": "string"
            },
            {
              "name": "imageUrl",
              "type": "string",
              "internalType": "string"
            },
            {
              "name": "description",
              "type": "string",
              "internalType": "string"
            },
            {
              "name": "members",
              "type": "tuple[]",
              "internalType": "struct BlumaProtocol.Member[]",
              "components": [
                {
                  "name": "user",
                  "type": "address",
                  "internalType": "address"
                },
                {
                  "name": "joinTime",
                  "type": "uint256",
                  "internalType": "uint256"
                }
              ]
            },
            {
              "name": "messages",
              "type": "tuple[]",
              "internalType": "struct BlumaProtocol.Message[]",
              "components": [
                {
                  "name": "sender",
                  "type": "address",
                  "internalType": "address"
                },
                {
                  "name": "email",
                  "type": "string",
                  "internalType": "string"
                },
                {
                  "name": "text",
                  "type": "string",
                  "internalType": "string"
                },
                {
                  "name": "timestamp",
                  "type": "uint256",
                  "internalType": "uint256"
                }
              ]
            }
          ]
        }
      ],
      "stateMutability": "view"
    },
    {
      "type": "function",
      "name": "getEventNFTs",
      "inputs": [
        {
          "name": "_eventId",
          "type": "uint32",
          "internalType": "uint32"
        }
      ],
      "outputs": [
        {
          "name": "",
          "type": "uint256[]",
          "internalType": "uint256[]"
        }
      ],
      "stateMutability": "view"
    },
    {
      "type": "function",
      "name": "getGroupMember",
      "inputs": [
        {
          "name": "_groupId",
          "type": "uint32",
          "internalType": "uint32"
        },
        {
          "name": "_index",
          "type": "uint256",
          "internalType": "uint256"
        }
      ],
      "outputs": [
        {
          "name": "",
          "type": "tuple",
          "internalType": "struct BlumaProtocol.Member",
          "components": [
            {
              "name": "user",
              "type": "address",
              "internalType": "address"
            },
            {
              "name": "joinTime",
              "type": "uint256",
              "internalType": "uint256"
            }
          ]
        }
      ],
      "stateMutability": "view"
    },
    {
      "type": "function",
      "name": "getGroupMembers",
      "inputs": [
        {
          "name": "_eventId",
          "type": "uint32",
          "internalType": "uint32"
        }
      ],
      "outputs": [
        {
          "name": "",
          "type": "tuple[]",
          "internalType": "struct BlumaProtocol.Member[]",
          "components": [
            {
              "name": "user",
              "type": "address",
              "internalType": "address"
            },
            {
              "name": "joinTime",
              "type": "uint256",
              "internalType": "uint256"
            }
          ]
        }
      ],
      "stateMutability": "view"
    },
    {
      "type": "function",
      "name": "getTicket",
      "inputs": [
        {
          "name": "_addr",
          "type": "address",
          "internalType": "address"
        }
      ],
      "outputs": [
        {
          "name": "_ticket",
          "type": "tuple",
          "internalType": "struct BlumaProtocol.Ticket",
          "components": [
            {
              "name": "ticketId",
              "type": "uint32",
              "internalType": "uint32"
            },
            {
              "name": "eventId",
              "type": "uint32",
              "internalType": "uint32"
            },
            {
              "name": "owner",
              "type": "address",
              "internalType": "address"
            },
            {
              "name": "ticketCost",
              "type": "uint256",
              "internalType": "uint256"
            },
            {
              "name": "purchaseTime",
              "type": "uint256",
              "internalType": "uint256"
            },
            {
              "name": "numberOfTicket",
              "type": "uint32",
              "internalType": "uint32"
            }
          ]
        }
      ],
      "stateMutability": "view"
    },
    {
      "type": "function",
      "name": "getUser",
      "inputs": [
        {
          "name": "_addr",
          "type": "address",
          "internalType": "address"
        }
      ],
      "outputs": [
        {
          "name": "_user",
          "type": "tuple",
          "internalType": "struct BlumaProtocol.User",
          "components": [
            {
              "name": "email",
              "type": "string",
              "internalType": "string"
            },
            {
              "name": "userAddr",
              "type": "address",
              "internalType": "address"
            },
            {
              "name": "isRegistered",
              "type": "bool",
              "internalType": "bool"
            },
            {
              "name": "avatar",
              "type": "string",
              "internalType": "string"
            },
            {
              "name": "balance",
              "type": "uint256",
              "internalType": "uint256"
            }
          ]
        }
      ],
      "stateMutability": "view"
    },
    {
      "type": "function",
      "name": "getUserNFTs_",
      "inputs": [
        {
          "name": "_user",
          "type": "address",
          "internalType": "address"
        }
      ],
      "outputs": [
        {
          "name": "",
          "type": "uint256[]",
          "internalType": "uint256[]"
        }
      ],
      "stateMutability": "view"
    },
    {
      "type": "function",
      "name": "groupChat",
      "inputs": [
        {
          "name": "_eventId",
          "type": "uint32",
          "internalType": "uint32"
        },
        {
          "name": "_text",
          "type": "string",
          "internalType": "string"
        }
      ],
      "outputs": [],
      "stateMutability": "nonpayable"
    },
    {
      "type": "function",
      "name": "hasPurchasedTicket",
      "inputs": [
        {
          "name": "_user",
          "type": "address",
          "internalType": "address"
        },
        {
          "name": "_eventId",
          "type": "uint32",
          "internalType": "uint32"
        }
      ],
      "outputs": [
        {
          "name": "",
          "type": "bool",
          "internalType": "bool"
        }
      ],
      "stateMutability": "view"
    },
    {
      "type": "function",
      "name": "initialize",
      "inputs": [
        {
          "name": "initialOwner",
          "type": "address",
          "internalType": "address"
        },
        {
          "name": "_blumaToken",
          "type": "address",
          "internalType": "address"
        },
        {
          "name": "_blumaNFT",
          "type": "address",
          "internalType": "address"
        }
      ],
      "outputs": [],
      "stateMutability": "nonpayable"
    },
    {
      "type": "function",
      "name": "isRegistered",
      "inputs": [
        {
          "name": "_addr",
          "type": "address",
          "internalType": "address"
        }
      ],
      "outputs": [
        {
          "name": "",
          "type": "bool",
          "internalType": "bool"
        }
      ],
      "stateMutability": "view"
    },
    {
      "type": "function",
      "name": "joinGroup",
      "inputs": [
        {
          "name": "_eventId",
          "type": "uint32",
          "internalType": "uint32"
        }
      ],
      "outputs": [],
      "stateMutability": "nonpayable"
    },
    {
      "type": "function",
      "name": "mintNFTsForAttendees",
      "inputs": [
        {
          "name": "_eventId",
          "type": "uint32",
          "internalType": "uint32"
        }
      ],
      "outputs": [],
      "stateMutability": "nonpayable"
    },
    {
      "type": "function",
      "name": "mintNft",
      "inputs": [
        {
          "name": "_eventId",
          "type": "uint32",
          "internalType": "uint32"
        }
      ],
      "outputs": [],
      "stateMutability": "nonpayable"
    },
    {
      "type": "function",
      "name": "owner",
      "inputs": [],
      "outputs": [
        {
          "name": "",
          "type": "address",
          "internalType": "address"
        }
      ],
      "stateMutability": "view"
    },
    {
      "type": "function",
      "name": "proxiableUUID",
      "inputs": [],
      "outputs": [
        {
          "name": "",
          "type": "bytes32",
          "internalType": "bytes32"
        }
      ],
      "stateMutability": "view"
    },
    {
      "type": "function",
      "name": "purchaseTicket",
      "inputs": [
        {
          "name": "_eventId",
          "type": "uint32",
          "internalType": "uint32"
        },
        {
          "name": "_numberOfTickets",
          "type": "uint32",
          "internalType": "uint32"
        }
      ],
      "outputs": [],
      "stateMutability": "nonpayable"
    },
    {
      "type": "function",
      "name": "refundFee",
      "inputs": [
        {
          "name": "_eventId",
          "type": "uint32",
          "internalType": "uint32"
        },
        {
          "name": "_numberOfTickets",
          "type": "uint32",
          "internalType": "uint32"
        }
      ],
      "outputs": [],
      "stateMutability": "nonpayable"
    },
    {
      "type": "function",
      "name": "renounceOwnership",
      "inputs": [],
      "outputs": [],
      "stateMutability": "nonpayable"
    },
    {
      "type": "function",
      "name": "transferOwnership",
      "inputs": [
        {
          "name": "newOwner",
          "type": "address",
          "internalType": "address"
        }
      ],
      "outputs": [],
      "stateMutability": "nonpayable"
    },
    {
      "type": "function",
      "name": "updateEventStatus",
      "inputs": [
        {
          "name": "_eventId",
          "type": "uint32",
          "internalType": "uint32"
        }
      ],
      "outputs": [],
      "stateMutability": "nonpayable"
    },
    {
      "type": "function",
      "name": "upgradeToAndCall",
      "inputs": [
        {
          "name": "newImplementation",
          "type": "address",
          "internalType": "address"
        },
        {
          "name": "data",
          "type": "bytes",
          "internalType": "bytes"
        }
      ],
      "outputs": [],
      "stateMutability": "payable"
    },
    {
      "type": "function",
      "name": "withdrawEventFee",
      "inputs": [
        {
          "name": "_eventId",
          "type": "uint32",
          "internalType": "uint32"
        }
      ],
      "outputs": [],
      "stateMutability": "nonpayable"
    },
    {
      "type": "event",
      "name": "AttendeesNFTMinted",
      "inputs": [
        {
          "name": "owner",
          "type": "address",
          "indexed": true,
          "internalType": "address"
        },
        {
          "name": "eventId",
          "type": "uint32",
          "indexed": true,
          "internalType": "uint32"
        },
        {
          "name": "numberOfTickets",
          "type": "uint32",
          "indexed": false,
          "internalType": "uint32"
        },
        {
          "name": "tokenId",
          "type": "uint256",
          "indexed": true,
          "internalType": "uint256"
        }
      ],
      "anonymous": false
    },
    {
      "type": "event",
      "name": "EventClosed",
      "inputs": [
        {
          "name": "_eventId",
          "type": "uint32",
          "indexed": true,
          "internalType": "uint32"
        },
        {
          "name": "_currentTime",
          "type": "uint256",
          "indexed": true,
          "internalType": "uint256"
        }
      ],
      "anonymous": false
    },
    {
      "type": "event",
      "name": "EventCreated",
      "inputs": [
        {
          "name": "_totalEventsId",
          "type": "uint32",
          "indexed": true,
          "internalType": "uint32"
        },
        {
          "name": "_seatNumber",
          "type": "uint32",
          "indexed": true,
          "internalType": "uint32"
        },
        {
          "name": "_capacity",
          "type": "uint32",
          "indexed": true,
          "internalType": "uint32"
        }
      ],
      "anonymous": false
    },
    {
      "type": "event",
      "name": "GroupCreated",
      "inputs": [
        {
          "name": "_roomId",
          "type": "uint32",
          "indexed": true,
          "internalType": "uint32"
        },
        {
          "name": "imageUrl",
          "type": "string",
          "indexed": false,
          "internalType": "string"
        },
        {
          "name": "_title",
          "type": "bytes32",
          "indexed": false,
          "internalType": "bytes32"
        }
      ],
      "anonymous": false
    },
    {
      "type": "event",
      "name": "GroupJoinedSuccessfully",
      "inputs": [
        {
          "name": "_sender",
          "type": "address",
          "indexed": true,
          "internalType": "address"
        },
        {
          "name": "_eventId",
          "type": "uint32",
          "indexed": true,
          "internalType": "uint32"
        },
        {
          "name": "_joinedTimw",
          "type": "uint256",
          "indexed": true,
          "internalType": "uint256"
        }
      ],
      "anonymous": false
    },
    {
      "type": "event",
      "name": "Initialized",
      "inputs": [
        {
          "name": "version",
          "type": "uint64",
          "indexed": false,
          "internalType": "uint64"
        }
      ],
      "anonymous": false
    },
    {
      "type": "event",
      "name": "MessageSent",
      "inputs": [
        {
          "name": "sender",
          "type": "address",
          "indexed": true,
          "internalType": "address"
        },
        {
          "name": "groupId",
          "type": "uint32",
          "indexed": true,
          "internalType": "uint32"
        },
        {
          "name": "text",
          "type": "string",
          "indexed": false,
          "internalType": "string"
        },
        {
          "name": "timestamp",
          "type": "uint256",
          "indexed": false,
          "internalType": "uint256"
        }
      ],
      "anonymous": false
    },
    {
      "type": "event",
      "name": "OwnershipTransferred",
      "inputs": [
        {
          "name": "previousOwner",
          "type": "address",
          "indexed": true,
          "internalType": "address"
        },
        {
          "name": "newOwner",
          "type": "address",
          "indexed": true,
          "internalType": "address"
        }
      ],
      "anonymous": false
    },
    {
      "type": "event",
      "name": "RefundIssued",
      "inputs": [
        {
          "name": "buyer",
          "type": "address",
          "indexed": true,
          "internalType": "address"
        },
        {
          "name": "_ticketId",
          "type": "uint32",
          "indexed": true,
          "internalType": "uint32"
        },
        {
          "name": "_eventId",
          "type": "uint32",
          "indexed": true,
          "internalType": "uint32"
        },
        {
          "name": "amount",
          "type": "uint256",
          "indexed": false,
          "internalType": "uint256"
        }
      ],
      "anonymous": false
    },
    {
      "type": "event",
      "name": "RegistrationClose",
      "inputs": [
        {
          "name": "_currentTime",
          "type": "uint256",
          "indexed": true,
          "internalType": "uint256"
        },
        {
          "name": "_status",
          "type": "uint8",
          "indexed": true,
          "internalType": "uint8"
        }
      ],
      "anonymous": false
    },
    {
      "type": "event",
      "name": "TicketPurchased",
      "inputs": [
        {
          "name": "buyer",
          "type": "address",
          "indexed": true,
          "internalType": "address"
        },
        {
          "name": "_eventId",
          "type": "uint32",
          "indexed": true,
          "internalType": "uint32"
        },
        {
          "name": "numberOfTickets",
          "type": "uint32",
          "indexed": false,
          "internalType": "uint32"
        }
      ],
      "anonymous": false
    },
    {
      "type": "event",
      "name": "Upgraded",
      "inputs": [
        {
          "name": "implementation",
          "type": "address",
          "indexed": true,
          "internalType": "address"
        }
      ],
      "anonymous": false
    },
    {
      "type": "error",
      "name": "ALREADY_A_MEMBER",
      "inputs": []
    },
    {
      "type": "error",
      "name": "ALREADY_PAID",
      "inputs": []
    },
    {
      "type": "error",
      "name": "AddressEmptyCode",
      "inputs": [
        {
          "name": "target",
          "type": "address",
          "internalType": "address"
        }
      ]
    },
    {
      "type": "error",
      "name": "EMPTY_INPUT_FIELD",
      "inputs": []
    },
    {
      "type": "error",
      "name": "ERC1967InvalidImplementation",
      "inputs": [
        {
          "name": "implementation",
          "type": "address",
          "internalType": "address"
        }
      ]
    },
    {
      "type": "error",
      "name": "ERC1967NonPayable",
      "inputs": []
    },
    {
      "type": "error",
      "name": "EVENT_NOT_CLOSED",
      "inputs": []
    },
    {
      "type": "error",
      "name": "FailedInnerCall",
      "inputs": []
    },
    {
      "type": "error",
      "name": "GROUP_ALREADY_EXISTS",
      "inputs": []
    },
    {
      "type": "error",
      "name": "INSUFFICIENT_BALANCE",
      "inputs": []
    },
    {
      "type": "error",
      "name": "INSUFFICIENT_TICKET_PURCHASED",
      "inputs": []
    },
    {
      "type": "error",
      "name": "INVALID_EVENT_ID",
      "inputs": []
    },
    {
      "type": "error",
      "name": "INVALID_ID",
      "inputs": []
    },
    {
      "type": "error",
      "name": "INVALID_NOT_AUTHORIZED",
      "inputs": []
    },
    {
      "type": "error",
      "name": "InvalidInitialization",
      "inputs": []
    },
    {
      "type": "error",
      "name": "NFT_ALREADY_MINTED",
      "inputs": []
    },
    {
      "type": "error",
      "name": "NOT_CREATOR",
      "inputs": []
    },
    {
      "type": "error",
      "name": "NOT_ENOUGH_AVAILABLE_SEAT",
      "inputs": []
    },
    {
      "type": "error",
      "name": "NOT_OWNER",
      "inputs": []
    },
    {
      "type": "error",
      "name": "NOT_PAID_EVENT",
      "inputs": []
    },
    {
      "type": "error",
      "name": "NO_ALLOWANCE",
      "inputs": []
    },
    {
      "type": "error",
      "name": "NotInitializing",
      "inputs": []
    },
    {
      "type": "error",
      "name": "OwnableInvalidOwner",
      "inputs": [
        {
          "name": "owner",
          "type": "address",
          "internalType": "address"
        }
      ]
    },
    {
      "type": "error",
      "name": "OwnableUnauthorizedAccount",
      "inputs": [
        {
          "name": "account",
          "type": "address",
          "internalType": "address"
        }
      ]
    },
    {
      "type": "error",
      "name": "REGISTRATION_CLOSE",
      "inputs": []
    },
    {
      "type": "error",
      "name": "REGISTRATION_NOT_CLOSED",
      "inputs": []
    },
    {
      "type": "error",
      "name": "REGISTRATION_NOT_OPEN",
      "inputs": []
    },
    {
      "type": "error",
      "name": "UUPSUnauthorizedCallContext",
      "inputs": []
    },
    {
      "type": "error",
      "name": "UUPSUnsupportedProxiableUUID",
      "inputs": [
        {
          "name": "slot",
          "type": "bytes32",
          "internalType": "bytes32"
        }
      ]
    }
  ],
  "bytecode": {
    "object": "0x60a0806040523461002a57306080526148469081610030823960805181818161130c015261144e0152f35b600080fdfe6080604052600436101561001257600080fd5b60e060003560e01c90816303e96fe31461337b5781630a9bfef51461333e5781630f9fcf48146130715781631755b97a14612f9657816317f69df614612f3d5781631e2cb13114612ebc57816322136b6c14612331578163277ec3d4146121ac578163331ef97614611e805781633405741d146119f75781633809f6f5146119945781634717dea91461192257816347531df814611838578163488628571461162d5781634f1ef286146113ff57816350312c9e1461137657816352d1902d146112f957816355a1d83f1461120d578163654a3c6d1461100a5781636f77926b14610f95578163715018a614610f2b57816385a646c914610e9b5781638da5cb5b14610e65578163909fdec914610d7b578163a87f86f914610d5a578163ad3cb1cc14610d14578163b33f650e14610bb0578163be7fb5d71461099d578163c0c53b8b1461082b578163c27a500d1461056c57508063c3c5a54714610527578063cd71ed351461034e578063ec976a0a146102d5578063eec932f7146101d15763f2fde38b146101a157600080fd5b346101cc5760203660031901126101cc576101ca6101bd613492565b6101c5614713565b61466c565b005b600080fd5b346101cc576020806003193601126101cc576101eb6134be565b906101f5826146e0565b63ffffffff809216918260005260028252604060002090815416156102c3573360005260068252604060002083600052825260ff604060002054166102b15761025d90600c6102426146f3565b91604051926102508461358e565b33845285840152016143f4565b336000526006815260406000209082600052526040600020600160ff198254161790556102886146f3565b90337ff11404c60069f7d8b6ecebb855f6ac5080f851b85152f4cb855640c49a30c2dd600080a4005b60405163cea6102760e01b8152600490fd5b6040516316a7994d60e21b8152600490fd5b346101cc5760203660031901126101cc576102ee6134be565b6102f7816146e0565b63ffffffff80911660005260026020526040600020908154161561033c57610324600c6103389201614270565b6040519182916020835260208301906136b9565b0390f35b60405163e955b73b60e01b8152600490fd5b346101cc5760203660031901126101cc5761033861036a6134be565b610372613cf1565b5061037c816146e0565b63ffffffff809116600052600260205260ff60156040600020604051936103a2856135df565b8082541685526040516103c3816103bc8160018701613ade565b03826135fb565b60208601526040516103dc816103bc8160028701613ade565b60408601526040516103f5816103bc8160038701613ade565b606086015260405161040e816103bc8160048701613ade565b6080860152600582015460018060a01b03811660a0870152818160a01c1660c087015260c01c1660e08501526006810154610100850152600781015461012085015261045c600882016142c6565b6101408501526104a083600e83015481811661047781613871565b610160880152818160081c1661048c81613871565b61018088015260101c166101a08601613d98565b6040516104b4816103bc81600f8601613ade565b6101c085015260108101546101e085015260118101546102008501526001600160601b03601282015416610220850152601381015461024085015260148101546102608501520154818116151561028084015260081c1615156102a082015260405191829160208352602083019061387b565b346101cc5760203660031901126101cc576001600160a01b03610548613492565b166000526001602052602060ff60016040600020015460a01c166040519015158152f35b346101cc5760003660031901126101cc5763ffffffff9081600054169161059283614607565b9060009060015b8181168681116107825760005260026020908082526040600020908482541692836105d1575b505050506105cc90614657565b610599565b926105cc9496926103bc6106226107729461077897604051956105f3876135df565b8652604051906106118261060a8160018a01613ade565b03836135fb565b860152604051928380928601613ade565b604083015260405161063b816103bc8160038601613ade565b6060830152604051610654816103bc8160048601613ade565b608083015286600582015460a060018060a01b03821681860152828260c0921c16818601521c168a8301526006810154610100830152600781015461012083015260086106a28183016142c6565b6101408401526015600e8301549260ff938481166106bf81613871565b6101608701528481851c166106d381613871565b6101808701526106ed85601092831c166101a08801613d98565b604051610701816103bc81600f8701613ade565b6101c08701528101546101e086015260118101546102008601526001600160601b036012820154166102208601526013810154610240860152601481015461026086015201549082821615156102808501521c1615156102a08201528583169061076b828a61414b565b528761414b565b50614657565b92908780806105bf565b50508091169161079183614607565b9260005b838116828110156107cc5784916107c4826107b26001948861414b565b516107bd828b61414b565b528861414b565b500116610795565b6040805160208082528851818301819052600093600582901b8401810192808c01929185015b8287106107ff5785850386f35b90919293828061081b600193603f198a8203018652885161387b565b96019201960195929190926107f2565b346101cc5760603660031901126101cc57610844613492565b61084c6134a8565b6001600160a01b03919060443583811691908290036101cc577ff0c57e16840df040f15088dc2f81fe391c3923bec73e23a9662efc9c229c6a0093845460ff8160401c1615946001600160401b03821680159081610995575b600114908161098b575b159081610982575b506109705767ffffffffffffffff19821660011787556108e89186610951575b506108e061474c565b6101c561474c565b6108f061474c565b6001600160601b0360a01b911681600c541617600c55600d541617600d5561091457005b68ff00000000000000001981541690557fc7f505b2f371ae2175ee4913f4499e1f2633a7b5936321eed1cdaeb6115181d2602060405160018152a1005b68ffffffffffffffffff191668010000000000000001178755876108d7565b60405163f92ee8a960e01b8152600490fd5b905015886108b7565b303b1591506108af565b8791506108a5565b346101cc5760403660031901126101cc576109b66134be565b6024356001600160401b0381116101cc576109d590369060040161368c565b90916109e0816146e0565b60016109ed368486613637565b5110610b9e5763ffffffff809116928360005260209160028352604060002090815416156102c35760058101546001600160a01b03163314610b76575b3360005260068352604060002085600052835260ff6040600020541615610b645760405192610a58846135c4565b60008452808401600d6060938483526040870185815261060a86890194600086523360005260018752610a95604060002060405193848092613ade565b52338852610aa4368a89613637565b9052610aae6146f3565b835201805495600160401b871015610b4e5760018701808355871015610b38577fd643c4cb96915f246339ac52f899dfc112f2ccf8254cca6b9cb9d0b8f0276e1096610b0592600052846000209060021b01613f3d565b51908560405194604086528160408701528486013760008487018401528301523393601f01601f191682018290030190a3005b634e487b7160e01b600052603260045260246000fd5b634e487b7160e01b600052604160045260246000fd5b60405163082e385d60e01b8152600490fd5b336000526006835260406000208560005283526040600020600160ff19825416179055610a2a565b604051631ee8943b60e21b8152600490fd5b346101cc576020806003193601126101cc57610bca6134be565b610bd3816146e0565b63ffffffff8116600052600282526040600020903360005260018352610bfd604060002091614555565b600160ff600e84015460081c16610c1381613871565b03610d025760058201546001600160a01b03903390821603610cf057601583019081549060ff8216610cde5760038694610c9c94600160136000990195898754975560ff191617905501610c6883825461423c565b9055600c5460405163a9059cbb60e01b81523360048201526024810193909352919485939190921691839182906044820190565b03925af18015610cd257610cac57005b816101ca92903d10610ccb575b610cc381836135fb565b810190613a8c565b503d610cb9565b6040513d6000823e3d90fd5b60405163d2e53ca760e01b8152600490fd5b604051632cff942760e01b8152600490fd5b604051631988a70d60e01b8152600490fd5b346101cc5760003660031901126101cc57610338604051610d348161358e565b60058152640352e302e360dc1b60208201526040519182916020835260208301906134e4565b346101cc5760203660031901126101cc576101ca610d766134be565b614555565b346101cc5760003660031901126101cc57600954610d98816139e9565b90610da660405192836135fb565b808252602090818301908160096000527f6e1540171b6c0c960b71a7020d9f60077f6af931a8bbf590da0223dacf75c7af6000915b838310610e425750505050604051918083019381845251809452604083019360408160051b85010192916000955b828710610e165785850386f35b909192938280610e32600193603f198a8203018652885161370c565b9601920196019592919092610e09565b600686600192610e54859a999a6142c6565b815201920192019190959495610ddb565b346101cc5760003660031901126101cc576000805160206147f1833981519152546040516001600160a01b039091168152602090f35b346101cc5760403660031901126101cc57610eb46134be565b63ffffffff6024359160006020604051610ecd8161358e565b8281520152610edb816146e0565b16600052600460205260046040600020019081548110156102c357610f05610f0b916040936143d8565b50614249565b815181516001600160a01b0316815260209182015191810191909152f35bf35b346101cc5760003660031901126101cc57610f44614713565b6000805160206147f183398151915280546001600160a01b031981169091556000906001600160a01b03167f8be0079c531659141344cd1fd0a4f28419497f9722a3daafe3b4186f6b6457e08280a3005b346101cc5760203660031901126101cc57610fae613492565b60006080604051610fbe816135a9565b60608152826020820152826040820152606080820152015260018060a01b03166000526001602052610338610ff6604060002061434d565b60405191829160208352602083019061381e565b346101cc5760203660031901126101cc5763ffffffff806110296134be565b1660005260026020526040600020818154169182156102c3576005820180546001600160a01b03939084163303610b6457600881019263ffffffff199586855416178455600982019261107f600184018561415f565b600a830196611091600285018961415f565b6110cf600b8501976110a6600487018a61415f565b600c86019354166110b56146f3565b604051916110c28361358e565b82526020820152836143f4565b600954600160401b811015610b4e576001810180600955811015610b385760069060096000520296877f6e1540171b6c0c960b71a7020d9f60077f6af931a8bbf590da0223dacf75c7af019387850361112457005b6101ca9961118d600d98611205976111dd966111b5957f6e1540171b6c0c960b71a7020d9f60077f6af931a8bbf590da0223dacf75c7b49d5416908254161790557f6e1540171b6c0c960b71a7020d9f60077f6af931a8bbf590da0223dacf75c7b08c0161415f565b7f6e1540171b6c0c960b71a7020d9f60077f6af931a8bbf590da0223dacf75c7b18a0161415f565b7f6e1540171b6c0c960b71a7020d9f60077f6af931a8bbf590da0223dacf75c7b2880161415f565b7f6e1540171b6c0c960b71a7020d9f60077f6af931a8bbf590da0223dacf75c7b38601614441565b0191016144bb565b346101cc5760203660031901126101cc5763ffffffff8061122c6134be565b16908160005260026020526040600020908154169081156102c35760058101546001600160a01b03929083163303610b6457600f6112b192600395600052600760205260406000209263ffffffff1984541617835560028301336001600160601b0360a01b8254161790556112a7600182016001850161415f565b019384910161415f565b600d5416803b156101cc57604051636902622f60e11b81529060009082908183816112e08833600484016143b6565b03925af18015610cd2576112f057005b6101ca9061357b565b346101cc5760003660031901126101cc577f00000000000000000000000000000000000000000000000000000000000000006001600160a01b031630036113645760206040517f360894a13ba1a3210667c828492db98dca3e2076cc3735a920a3ca505d382bbc8152f35b60405163703e46dd60e11b8152600490fd5b346101cc5760003660031901126101cc57600c546040516370a0823160e01b815230600482015290602090829060249082906001600160a01b03165afa8015610cd2576000906113cc575b602090604051908152f35b506020813d6020116113f7575b816113e6602093836135fb565b810103126101cc57602090516113c1565b3d91506113d9565b60403660031901126101cc57611413613492565b6024356001600160401b0381116101cc57366023820112156101cc57611443903690602481600401359101613637565b906001600160a01b037f000000000000000000000000000000000000000000000000000000000000000081163081149081156115ff575b5061136457611487614713565b6040516352d1902d60e01b8152908216916020918281600481875afa600091816115d0575b506114ca57604051634c9c8ce360e01b815260048101859052602490fd5b9284937f360894a13ba1a3210667c828492db98dca3e2076cc3735a920a3ca505d382bbc908181036115b85750823b1561159f5780546001600160a01b03191682179055604051907fbc7cd75a20ee27fd9adebab32041f755214dbc6bffa90cc0225b39da2e5c2d3b600080a2835115611585575060008084846101ca96519101845af4903d1561157c573d61155f8161361c565b9061156d60405192836135fb565b8152600081943d92013e61478d565b6060925061478d565b925050503461159057005b63b398979f60e01b8152600490fd5b604051634c9c8ce360e01b815260048101839052602490fd5b60249060405190632a87526960e21b82526004820152fd5b9091508381813d83116115f8575b6115e881836135fb565b810103126101cc575190866114ac565b503d6115de565b9050817f360894a13ba1a3210667c828492db98dca3e2076cc3735a920a3ca505d382bbc541614158461147a565b346101cc576020806003193601126101cc5763ffffffff8061164d6134be565b16806000526002835260406000209082825416156118265761166d6146f3565b60078301541161181457601582019260ff845460081c166118025760005b600a548110156117f35782826116a083614102565b5054881c1614806117d4575b6116b9575b60010161168b565b600d546040516365507c9560e11b81526001600160a01b0391821692918882600481875afa918215610cd2576000926117a5575b50806116f884614102565b505460401c1693803b156101cc57604051636902622f60e11b815294600091869182908490829061173190600f8f0190600484016143b6565b03925af1908115610cd2576001948792611796575b5061175084614102565b505460401c167f66555f994e1af4e5e9289ab0b1a3dd45aa678a9d41cba0aa1f064e78f5d039828a87600361178488614102565b50015416604051908152a490506116b1565b61179f9061357b565b8a611746565b9091508881813d83116117cd575b6117bd81836135fb565b810103126101cc575190896116ed565b503d6117b3565b506117de81614102565b505460401c6001600160a01b031615156116ac565b845461ff001916610100178555005b60405163c1d7938360e01b8152600490fd5b604051630f036da960e21b8152600490fd5b60405163b790ffed60e01b8152600490fd5b346101cc5760003660031901126101cc57600b54611855816139e9565b9061186360405192836135fb565b8082526020908183019081600b6000527f0175b7a638427703f0dbe7bb9bbf987a2551717b34e79f33b5b1008d1fa01db96000915b8383106118ff5750505050604051918083019381845251809452604083019360408160051b85010192916000955b8287106118d35785850386f35b9091929382806118ef600193603f198a8203018652885161381e565b96019201960195929190926118c6565b600486600192611911859a999a61434d565b815201920192019190959495611898565b346101cc5760203660031901126101cc5761193b613492565b600060a060405161194b81613560565b828152826020820152826040820152826060820152826080820152015260018060a01b0316600052600360205260c06119876040600020613a00565b610f296040518092613449565b346101cc5760203660031901126101cc576119ad6134be565b6119b5613cbf565b5063ffffffff80911660005260026020526040600020908154161561033c576119e3600861033892016142c6565b60405191829160208352602083019061370c565b346101cc5760403660031901126101cc57611a106134be565b611a186134d1565b611a21826146e0565b63ffffffff918281169283600052602090600282526040600020600e810160ff815416611a4d81613871565b611e6e5760058201611a88611a688886845460a01c16613ca7565b825463ffffffff60a01b191660a09190911b63ffffffff60a01b16178255565b5483808260c01c169160a01c1611611e5c5760005467ffffffff00000000611ab38583881c16613c92565b861b169067ffffffff00000000191617600055336000526003845260406000209160ff6000925460101c166002811015611e465715611cb1575b506000548254600160401b600160e01b031991861c85169190911667ffffffff00000001600160e01b0319909116173360401b600160401b600160e01b031617825563ffffffff1990611b6c611b416146f3565b9660028501978855849067ffffffff0000000082549160201b169067ffffffff000000001916179055565b611b7b6001840191825461423c565b8155600383019283548386611b928b828516613ca7565b169116178455600a54600160401b811015610b4e57806001611bb79201600a55614102565b611c9b577fc541e3defd92fd2d8306e9c91b36c15f096115c41c7a9a36ac548a487d8891aa978693838303611c1d575b50505050505050336000526005825260406000208560005282526040600020600160ff19825416179055604051931683523392a3005b83548354871690861617808455845467ffffffff0000000019909116908a1c861660201b67ffffffff0000000016178355600393611c7890548454600160401b600160e01b031916600160401b600160e01b03909116178455565b546001830155546002820155019254169082541617905585808281808080611be7565b634e487b7160e01b600052600060045260246000fd5b90506001600160601b03611ccd81601284015416858916613a58565b169060018060a01b03600c5416906040516370a0823160e01b81523360048201528681602481865afa8015610cd2578491600091611e15575b5010611e0357604051636eb1769f60e11b81523360048201523060248201528681604481865afa8015610cd2578491600091611dd2575b5010611dc057856000926064604051809581936323b872dd60e01b83523360048401523060248401528860448401525af1918215610cd257601392611da3575b5001611d8a82825461423c565b905560018201611d9b82825461423c565b905587611aed565b611db990873d8911610ccb57610cc381836135fb565b5089611d7d565b60405163ea75ebd560e01b8152600490fd5b809250888092503d8311611dfc575b611deb81836135fb565b810103126101cc578390518b611d3d565b503d611de1565b604051632858f9ab60e11b8152600490fd5b809250888092503d8311611e3f575b611e2e81836135fb565b810103126101cc578390518b611d06565b503d611e24565b634e487b7160e01b600052602160045260246000fd5b6040516374a227cd60e01b8152600490fd5b6040516305fb6d9960e41b8152600490fd5b346101cc5760603660031901126101cc576001600160401b036004358181116101cc57611eb190369060040161366e565b90611eba6134a8565b6044358281116101cc57611ed290369060040161366e565b9260019182825110610b9e5782855110610b9e5760018060a01b038091169283600052602095818752604060002093805190878211610b4e57611f1f82611f198854613aa4565b88613dbb565b8890601f831160011461214a57611f4f92916000918361213f575b50508160011b916000199060031b1c19161790565b84555b818401956affffffffffffffffffffff60a81b95600160a01b90878954161717875560028501978251918211610b4e57611f9682611f908b54613aa4565b8b613dbb565b80601f83116001146120db57508190611fc5936000926120d05750508160011b916000199060031b1c19161790565b86555b600b5490600160401b821015610b4e57810180600b55811015610b3857600b60005260021b94857f0175b7a638427703f0dbe7bb9bbf987a2551717b34e79f33b5b1008d1fa01db9019183830361201b57005b7f0175b7a638427703f0dbe7bb9bbf987a2551717b34e79f33b5b1008d1fa01dbc9560039561204d866120c99661415f565b7f0175b7a638427703f0dbe7bb9bbf987a2551717b34e79f33b5b1008d1fa01dba89019282541690835492826001600160601b0360a01b851617855560ff8060a01b915460a01c16151560a01b169216171790557f0175b7a638427703f0dbe7bb9bbf987a2551717b34e79f33b5b1008d1fa01dbb860161415f565b0154910155005b015190508980611f3a565b908493601f1984168b60005283600020936000905b828210612126575050841161210d575b505050811b018655611fc8565b015160001960f88460031b161c19169055888080612100565b84840151865588979095019493840193908101906120f0565b015190508a80611f3a565b849291601f19831691886000528b6000209260005b8d828210612196575050841161217d575b505050811b018455611f52565b015160001960f88460031b161c19169055898080612170565b838501518655899790950194938401930161215f565b346101cc576020806003193601126101cc576121c66134be565b600a5460009163ffffffff90811690835b8381106122ff57506121e8846139e9565b936121f660405195866135fb565b808552612205601f19916139e9565b0136602086013760009460005b84811061222757604051806103388882613524565b838361223283614102565b5054841c1614612245575b600101612212565b600d546001600160a01b03908116969195929491939060009061226788614102565b505460401c166024604051809a8193632118854760e21b835260048301525afa968715610cd2576000976122da575b506000975b87518910156122cd576122c56001916122b48b8b61414b565b516122bf828961414b565b5261413c565b98019761229b565b975092955092909361223d565b6122f89197503d806000833e6122f081836135fb565b810190613c19565b9588612296565b828261230a83614102565b5054881c161461231d575b6001016121d7565b9361232960019161413c565b949050612315565b346101cc576101803660031901126101cc576004356001600160401b0381116101cc5761236290369060040161366e565b6024356001600160401b0381116101cc5761238190369060040161366e565b6044356001600160401b0381116101cc576123a090369060040161366e565b916064356001600160401b0381116101cc576123c090369060040161366e565b916084359363ffffffff851685036101cc5761012435936001600160601b03851685036101cc5761014435151561014435036101cc57610164356001600160401b0381116101cc5761241690369060040161368c565b9190926001865110610b9e576001855110610b9e576001815110610b9e576001825110610b9e5760c43560a43511610b9e576101043560e43511610b9e5760018310610b9e57612531946000549663ffffffff612474818a16613c92565b16809863ffffffff19161760005561248a613cf1565b9860a4356124966146f3565b1015612eaf5760026101608b01525b6101443515612e995760006101a08b01526001600160601b03166102208a01525b8789526020890152604088015260808701523360a0870152606086015263ffffffff861660e086015260a43561010086015260c43561012086015260e4356101e08601526101043561020086015260026101808601526125246146f3565b6102608601523691613637565b6101c0830152600052600260205260406000209063ffffffff81511663ffffffff1983541617825560208101519283516001600160401b038111610b4e57612589816125806001870154613aa4565b60018701613dbb565b6020601f8211600114612e2a5781906125bb93949596600092612cd25750508160011b916000199060031b1c19161790565b60018401555b60408201519283516001600160401b038111610b4e576125f1816125e86002850154613aa4565b60028501613dbb565b6020601f8211600114612dbb57819061262393949596600092612cd25750508160011b916000199060031b1c19161790565b60028201555b60608301519283516001600160401b038111610b4e57612659816126506003860154613aa4565b60038601613dbb565b6020601f8211600114612d4c57819061268b93949596600092612cd25750508160011b916000199060031b1c19161790565b60038301555b60808101519283516001600160401b038111610b4e576126c1816126b86004870154613aa4565b60048701613dbb565b6020601f8211600114612cdd5781906126f393949596600092612cd25750508160011b916000199060031b1c19161790565b60048401555b60a08281015160058501805460c08087015160e088015163ffffffff60c01b921b91909116941b63ffffffff60a01b166001600160a01b039093166001600160e01b0319909116179190911791909117905561010082015160068401556101208201516007840155610140820151805160088501805463ffffffff90921663ffffffff1990921691909117905560208101518051906001600160401b038211610b4e576127b6826127ad6009890154613aa4565b60098901613dbb565b602090601f8311600114612c60576127e6929160009183612aa25750508160011b916000199060031b1c19161790565b60098501555b60408101518051906001600160401b038211610b4e5761281c82612813600a890154613aa4565b600a8901613dbb565b602090601f8311600114612bee5761284c929160009183612aa25750508160011b916000199060031b1c19161790565b600a8501555b60608101518051906001600160401b038211610b4e5761288282612879600b890154613aa4565b600b8901613dbb565b602090601f8311600114612b7c576128b2929160009183612aa25750508160011b916000199060031b1c19161790565b600b8501555b600c840160808201519060208251926128d18484613e02565b019060005260206000206000915b838310612b3c575050505060a0600d85019101519060208251926129038484613eb8565b019060005260206000206000915b838310612b1e575050505061016082015161292b81613871565b61293481613871565b600e8401546101808401519061294982613871565b61295282613871565b6101a0850151906002821015611e465760ff62ff000061ff009360101b1694169062ffffff1916179160081b161717600e8401556101c08201519283516001600160401b038111610b4e576129b7816129ae600f850154613aa4565b600f8501613dbb565b6020601f8211600114612aad5790806129eb926015959697600092612aa25750508160011b916000199060031b1c19161790565b600f8201555b6101e084015160108201556102008401516011820155601281016001600160601b03610220860151166001600160601b031982541617905561024084015160138201556102608401516014820155016102808301511515815460ff61ff006102a0870151151560081b1692169061ffff19161717905563ffffffff60c0818060005416931693015116907fac3c2fbb08f906d92c1b4be6fa025f63708bafa70869110e931d718b9532c411600080a4005b015190508780611f3a565b601f19821695600f840160005260206000209660005b818110612b06575091601595969791846001959410612aed575b505050811b01600f8201556129f1565b015160001960f88460031b161c19169055868080612add565b83830151895560019098019760209384019301612ac3565b6004602082612b306001945186613f3d565b01920192019190612911565b6002602082612b706001945186906020600191828060a01b038151166001600160601b0360a01b8554161784550151910155565b019201920191906128df565b9190600b87016000526020600020906000935b601f1984168510612bd3576001945083601f19811610612bba575b505050811b01600b8501556128b8565b015160001960f88460031b161c19169055868080612baa565b81810151835560209485019460019093019290910190612b8f565b9190600a87016000526020600020906000935b601f1984168510612c45576001945083601f19811610612c2c575b505050811b01600a850155612852565b015160001960f88460031b161c19169055868080612c1c565b81810151835560209485019460019093019290910190612c01565b9190600987016000526020600020906000935b601f1984168510612cb7576001945083601f19811610612c9e575b505050811b0160098501556127ec565b015160001960f88460031b161c19169055868080612c8e565b81810151835560209485019460019093019290910190612c73565b015190508680611f3a565b6004850160005260206000209060005b601f1984168110612d34575060019394959683601f19811610612d1b575b505050811b0160048401556126f9565b015160001960f88460031b161c19169055858080612d0b565b9091602060018192858b015181550193019101612ced565b6003840160005260206000209060005b601f1984168110612da3575060019394959683601f19811610612d8a575b505050811b016003830155612691565b015160001960f88460031b161c19169055858080612d7a565b9091602060018192858b015181550193019101612d5c565b6002830160005260206000209060005b601f1984168110612e12575060019394959683601f19811610612df9575b505050811b016002820155612629565b015160001960f88460031b161c19169055858080612de9565b9091602060018192858b015181550193019101612dcb565b6001850160005260206000209060005b601f1984168110612e81575060019394959683601f19811610612e68575b505050811b0160018401556125c1565b015160001960f88460031b161c19169055858080612e58565b9091602060018192858b015181550193019101612e3a565b5060006102208a015260016101a08a01526124c6565b60006101608b01526124a5565b346101cc5760203660031901126101cc57612ed5613492565b600d54604051632118854760e21b81526001600160a01b0392831660048201529160009183916024918391165afa8015610cd25761033891600091612f22575b5060405191829182613524565b612f3791503d806000833e6122f081836135fb565b82612f15565b346101cc5760403660031901126101cc57612f56613492565b612f5e6134d1565b9060018060a01b0316600052600560205263ffffffff60406000209116600052602052602060ff604060002054166040519015158152f35b346101cc576020806003193601126101cc5763ffffffff80612fb66134be565b16600052600282526040600020908154161561033c57600d612fd89101613b74565b6040519082820192808352815180945260408301938160408260051b8601019301916000955b82871061300b5785850386f35b909192938280600192603f198982030185528751906130576130456080878060a01b038551168452858501519080878601528401906134e4565b604084015183820360408501526134e4565b916060809101519101529601920196019592919092612ffe565b346101cc5760403660031901126101cc5761308a6134be565b6130926134d1565b9061309c816146e0565b63ffffffff908181169283600052602092600284526130bf6040600020936146e0565b846000526002845260406000206130d46146f3565b6007820154106132de575b503360005260038452604060002091600e84015460ff8160101c166002811015611e46576132cc5760ff1661311381613871565b6132ba5782546001600160a01b03919033604082901c8416036132a857838891881c1603611826576003840183815416848316809110613296576013906131696001600160601b03918260128b01541690613a58565b16966131a2600582016131828689835460a01c16613a76565b815463ffffffff60a01b191660a09190911b63ffffffff60a01b16179055565b018054908782039182116132805755836131c0825493828516613a76565b16809263ffffffff19161790551561325b575b600c5460405163a9059cbb60e01b8152336004820152602481018690529391869185916044918391600091165af1928315610cd2577f4f6fb365c29f3632d91fcd919dbfdf50155c34cd0ea613bd43e7e76529fec4359361323e575b505416926040519283523392a4005b61325490863d8811610ccb57610cc381836135fb565b508661322f565b33600052600585526040600020866000528552604060002060ff1981541690556131d3565b634e487b7160e01b600052601160045260246000fd5b60405163a2ed46e160e01b8152600490fd5b6040516338ebc58960e11b8152600490fd5b604051630738c50360e41b8152600490fd5b6040516380e4469160e01b8152600490fd5b600e018054600160ff82166132f281613871565b036132fe575b506130df565b60019060ff191617905560016133126146f3565b7f9c8ea6489f3baa31d321639e3a41ad67158fa673511a98870906b5a9eced0dd4600080a385806132f8565b346101cc5760203660031901126101cc576001600160a01b0361335f613492565b1660005260016020526020600360406000200154604051908152f35b346101cc5760003660031901126101cc57600a54613398816139e9565b6133a560405191826135fb565b818152602090602081019283600a6000527fc65a7bb8d6351c1cf70c95a316cc6a92839c986682d98bc35f958f4883f9d2a86000915b83831061342c57604080516020808252875190820181905289928201908960005b8281106134095784840385f35b9091928260c08261341d6001948a51613449565b019601910194929190946133fc565b60048660019261343b85613a00565b8152019201920191906133db565b60a0908163ffffffff91828151168552826020820151166020860152600180831b0360408201511660408601526060810151606086015260808101516080860152015116910152565b600435906001600160a01b03821682036101cc57565b602435906001600160a01b03821682036101cc57565b6004359063ffffffff821682036101cc57565b6024359063ffffffff821682036101cc57565b919082519283825260005b848110613510575050826000602080949584010152601f8019910116010190565b6020818301810151848301820152016134ef565b602090602060408183019282815285518094520193019160005b82811061354c575050505090565b83518552938101939281019260010161353e565b60c081019081106001600160401b03821117610b4e57604052565b6001600160401b038111610b4e57604052565b604081019081106001600160401b03821117610b4e57604052565b60a081019081106001600160401b03821117610b4e57604052565b608081019081106001600160401b03821117610b4e57604052565b6102c081019081106001600160401b03821117610b4e57604052565b90601f801991011681019081106001600160401b03821117610b4e57604052565b6001600160401b038111610b4e57601f01601f191660200190565b9291926136438261361c565b9161365160405193846135fb565b8294818452818301116101cc578281602093846000960137010152565b9080601f830112156101cc5781602061368993359101613637565b90565b9181601f840112156101cc578235916001600160401b0383116101cc57602083818601950101116101cc57565b90815180825260208080930193019160005b8281106136d9575050505090565b909192938260408261370060019489516020809160018060a01b0381511684520151910152565b019501939291016136cb565b63ffffffff81511682526020906137308282015160c08486015260c08501906134e4565b91613749604093604084015186820360408801526134e4565b91613762606093606083015187820360608901526134e4565b9260a061377d608095608085015189820360808b01526136b9565b9201519560a08184039101528551938483528383019184808760051b8601019801966000945b8786106137b65750505050505050505090565b9091929394959697988780600192601f198582030189528c5190848060a01b03825116815287806138056137f5868601518d888701528d8601906134e4565b8a8601518582038c8701526134e4565b9301519101529b019601960194979695939291906137a3565b90608080613868613838855160a0865260a08601906134e4565b60018060a01b036020870151166020860152604086015115156040860152606086015185820360608701526134e4565b93015191015290565b60031115611e4657565b906139386102c06138e46138d26138c06138ae63ffffffff948589511688526020890151908060208a01528801906134e4565b604088015187820360408901526134e4565b606087015186820360608801526134e4565b608086015185820360808701526134e4565b9060018060a01b0360a08601511660a08501528060c08601511660c085015260e08501511660e08401526101008085015190840152610120808501519084015261014080850151908483039085015261370c565b610160808401519061394982613871565b830152610180808401519061395d82613871565b8301526101a090818401516002811015611e465761398c928401526101c08085015190848303908501526134e4565b916101e0808201519083015261020080820151908301526102206001600160601b0381830151169083015261024080820151908301526102608082015190830152610280808201511515908301526102a080910151151591015290565b6001600160401b038111610b4e5760051b60200190565b90604051613a0d81613560565b60a08193600381549163ffffffff928381168652838160201c166020870152600180861b039060401c1660408601526001810154606086015260028101546080860152015416910152565b9190916001600160601b038080941691160291821691820361328057565b63ffffffff918216908216039190821161328057565b908160209103126101cc575180151581036101cc5790565b90600182811c92168015613ad4575b6020831014613abe57565b634e487b7160e01b600052602260045260246000fd5b91607f1691613ab3565b805460009392613aed82613aa4565b91828252602093600191600181169081600014613b555750600114613b14575b5050505050565b90939495506000929192528360002092846000945b838610613b4157505050500101903880808080613b0d565b805485870183015294019385908201613b29565b60ff19168685015250505090151560051b010191503880808080613b0d565b908154613b80816139e9565b92604093613b9160405191826135fb565b82815280946020809201926000526020600020906000935b858510613bb857505050505050565b6004846001928451613bc9816135c4565b848060a01b0387541681528551613be6816103bc81898c01613ade565b838201528551613bfd816103bc8160028c01613ade565b8682015260038701546060820152815201930194019391613ba9565b60209081818403126101cc578051906001600160401b0382116101cc57019180601f840112156101cc578251613c4e816139e9565b93613c5c60405195866135fb565b818552838086019260051b8201019283116101cc578301905b828210613c83575050505090565b81518152908301908301613c75565b90600163ffffffff8093160191821161328057565b91909163ffffffff8080941691160191821161328057565b60405190613ccc82613560565b816000815260a060609182602082015282604082015282808201528260808201520152565b60405190613cfe826135df565b816102a0600091828152606080602083015280604083015280808301528060808301528360a08301528360c08301528360e08301528361010083015283610120830152613d49613cbf565b6101408301528361016083015283610180830152836101a08301526101c0820152826101e082015282610200820152826102208201528261024082015282610260820152826102808201520152565b6002821015611e465752565b818110613daf575050565b60008155600101613da4565b9190601f8111613dca57505050565b613df6926000526020600020906020601f840160051c83019310613df8575b601f0160051c0190613da4565b565b9091508190613de9565b600160401b8211610b4e578054828255808310613e1e57505050565b6001906001600160ff1b03808216820361328057841684036132805760009260005260206000209060011b81019360011b015b838110613e5e5750505050565b808360029255838382015501613e51565b613e798154613aa4565b9081613e83575050565b81601f60009311600114613e95575055565b908083918252613eb4601f60208420940160051c840160018501613da4565b5555565b600160401b8211610b4e578054828255808310613ed457505050565b6002906001600160fe1b03808216820361328057841684036132805760009260005260206000209060021b81019360021b015b838110613f145750505050565b808360049255613f2660018201613e6f565b613f31838201613e6f565b83600382015501613f07565b9060018060a01b038151166001600160601b0360a01b83541617825560018083016020808401519182516001600160401b0393848211610b4e57613f8b82613f858554613aa4565b85613dbb565b8390601f83116001146140a057613fba9291600091836140265750508160011b916000199060031b1c19161790565b90555b60028501926040850151908151938411610b4e57613fe584613fdf8754613aa4565b87613dbb565b82601f851160011461403157505082600395936060959361401c936000926140265750508160011b916000199060031b1c19161790565b90555b0151910155565b015190503880611f3a565b91601f949391941984168660005283600020936000905b8282106140895750509160039795939185606098969410614071575b505050811b01905561401f565b015160001983891b60f8161c19169055388080614064565b808886978294978701518155019601940190614048565b869291601f1983169185600052866000209260005b888282106140ec57505084116140d3575b505050811b019055613fbd565b015160001960f88460031b161c191690553880806140c6565b8385015186558b979095019493840193016140b5565b600a54811015610b3857600a60005260021b7fc65a7bb8d6351c1cf70c95a316cc6a92839c986682d98bc35f958f4883f9d2a80190600090565b60001981146132805760010190565b8051821015610b385760209160051b010190565b90808214614238576141718154613aa4565b906001600160401b038211610b4e5761418e82613f858554613aa4565b600090601f83116001146141cd576141be9291600091836141c25750508160011b916000199060031b1c19161790565b9055565b015490503880611f3a565b815260208082208483528183209291601f1985169083905b82821061421f575050908460019594939210614206575b505050811b019055565b015460001960f88460031b161c191690553880806141fc565b84958192958501548155600180910196019401906141e5565b5050565b9190820180921161328057565b906040516142568161358e565b82546001600160a01b031681526001909201546020830152565b90815461427c816139e9565b9261428a60405194856135fb565b818452600090815260208082208186015b8484106142a9575050505050565b6002836001926142b885614249565b81520192019301929061429b565b906040516142d381613560565b60a06143486005839563ffffffff81541685526040516142fa816103bc8160018601613ade565b6020860152604051614313816103bc8160028601613ade565b604086015260405161432c816103bc8160038601613ade565b606086015261433d60048201614270565b608086015201613b74565b910152565b9060405161435a816135a9565b608060038294604051614371816103bc8185613ade565b845260018101546001600160a01b038116602086015260a01c60ff161515604080860191909152516143aa816103bc8160028601613ade565b60608501520154910152565b6001600160a01b03909116815260406020820181905261368992910190613ade565b8054821015610b385760005260206000209060011b0190600090565b8054600160401b811015610b4e57614411916001820181556143d8565b919091611c9b57805182546001600160a01b0319166001600160a01b039190911617825560200151600190910155565b818114614238578154916144558383613e02565b6000526020600020906000526020600020906000905b8382106144785750505050565b806001918403614493575b600280910193019101909161446b565b818060a01b038154166001600160601b0360a01b855416178455818082015490850155614483565b818114614238578154916144cf8383613eb8565b6000526020600020906000526020600020906000905b8382106144f25750505050565b80600191840361450d575b60048091019301910190916144e5565b818060a01b038154166001600160601b0360a01b8554161784556145368280830190860161415f565b614546600280830190860161415f565b600380820154908501556144fd565b63ffffffff90614564816146e0565b16806000526002602052604060002061457b6146f3565b60108201541115806145f2575b1561459c57600e01805461ff001916905550565b6145a46146f3565b6011820154106145b2575050565b600e01805461ff0019166101001790556145ca6146f3565b907f835839f42ff642197e82f2887491db41a51c32dc7004091799724e9e3d6f2489600080a3565b506145fb6146f3565b60118201541015614588565b90614611826139e9565b61461e60405191826135fb565b828152809261462f601f19916139e9565b019060005b82811061464057505050565b60209061464b613cf1565b82828501015201614634565b63ffffffff8091169081146132805760010190565b6001600160a01b039081169081156146c7576000805160206147f183398151915280546001600160a01b031981168417909155167f8be0079c531659141344cd1fd0a4f28419497f9722a3daafe3b4186f6b6457e0600080a3565b604051631e4fbdf760e01b815260006004820152602490fd5b63ffffffff80600054169116116102c357565b6103e8804202904282048114421517156132805781018091116132805790565b6000805160206147f1833981519152546001600160a01b0316330361473457565b60405163118cdaa760e01b8152336004820152602490fd5b60ff7ff0c57e16840df040f15088dc2f81fe391c3923bec73e23a9662efc9c229c6a005460401c161561477b57565b604051631afcd79f60e31b8152600490fd5b906147b457508051156147a257805190602001fd5b604051630a12f52160e11b8152600490fd5b815115806147e7575b6147c5575090565b604051639996b31560e01b81526001600160a01b039091166004820152602490fd5b50803b156147bd56fe9016d09d72d40fdae2fd8ceac6b6234c7706214fd39c1cd1e609a0528c199300a26469706673582212206dfdd50b85877c2b5e875a9376a8a2eda41e748a8537a2bc0e542442c686f53064736f6c63430008180033",
    "linkReferences": {}
  },
  "methodIdentifiers": {
    "UPGRADE_INTERFACE_VERSION()": "ad3cb1cc",
    "checkContractBalance()": "50312c9e",
    "checkUserBalance(address)": "0a9bfef5",
    "createAccount(string,address,string)": "331ef976",
    "createEvent(string,string,string,string,uint32,uint256,uint256,uint256,uint256,uint96,bool,string)": "22136b6c",
    "createGroup(uint32)": "654a3c6d",
    "getAllEventGroups()": "909fdec9",
    "getAllEvents()": "c27a500d",
    "getAllGroupMessages(uint32)": "1755b97a",
    "getAllTickets()": "03e96fe3",
    "getAllUser()": "47531df8",
    "getEventById(uint32)": "cd71ed35",
    "getEventGroup(uint32)": "3809f6f5",
    "getEventNFTs(uint32)": "277ec3d4",
    "getGroupMember(uint32,uint256)": "85a646c9",
    "getGroupMembers(uint32)": "ec976a0a",
    "getTicket(address)": "4717dea9",
    "getUser(address)": "6f77926b",
    "getUserNFTs_(address)": "1e2cb131",
    "groupChat(uint32,string)": "be7fb5d7",
    "hasPurchasedTicket(address,uint32)": "17f69df6",
    "initialize(address,address,address)": "c0c53b8b",
    "isRegistered(address)": "c3c5a547",
    "joinGroup(uint32)": "eec932f7",
    "mintNFTsForAttendees(uint32)": "48862857",
    "mintNft(uint32)": "55a1d83f",
    "owner()": "8da5cb5b",
    "proxiableUUID()": "52d1902d",
    "purchaseTicket(uint32,uint32)": "3405741d",
    "refundFee(uint32,uint32)": "0f9fcf48",
    "renounceOwnership()": "715018a6",
    "transferOwnership(address)": "f2fde38b",
    "updateEventStatus(uint32)": "a87f86f9",
    "upgradeToAndCall(address,bytes)": "4f1ef286",
    "withdrawEventFee(uint32)": "b33f650e"
  },
  "id": 58
}