{
  "abi": [
    {
      "type": "function",
      "name": "UPGRADE_INTERFACE_VERSION",
      "inputs": [],
      "outputs": [
        {
          "name": "",
          "type": "string",
          "internalType": "string"
        }
      ],
      "stateMutability": "view"
    },
    {
      "type": "function",
      "name": "checkContractBalance",
      "inputs": [],
      "outputs": [
        {
          "name": "bal_",
          "type": "uint256",
          "internalType": "uint256"
        }
      ],
      "stateMutability": "view"
    },
    {
      "type": "function",
      "name": "checkUserBalance",
      "inputs": [
        {
          "name": "_addr",
          "type": "address",
          "internalType": "address"
        }
      ],
      "outputs": [
        {
          "name": "bal_",
          "type": "uint256",
          "internalType": "uint256"
        }
      ],
      "stateMutability": "view"
    },
    {
      "type": "function",
      "name": "createAccount",
      "inputs": [
        {
          "name": "_email",
          "type": "string",
          "internalType": "string"
        },
        {
          "name": "_addr",
          "type": "address",
          "internalType": "address"
        },
        {
          "name": "_avatar",
          "type": "string",
          "internalType": "string"
        }
      ],
      "outputs": [],
      "stateMutability": "nonpayable"
    },
    {
      "type": "function",
      "name": "createEvent",
      "inputs": [
        {
          "name": "_title",
          "type": "string",
          "internalType": "string"
        },
        {
          "name": "_imageUrl",
          "type": "string",
          "internalType": "string"
        },
        {
          "name": "_description",
          "type": "string",
          "internalType": "string"
        },
        {
          "name": "_seatNumber",
          "type": "uint96",
          "internalType": "uint96"
        },
        {
          "name": "_capacity",
          "type": "uint96",
          "internalType": "uint96"
        },
        {
          "name": "_regStartTime",
          "type": "uint256",
          "internalType": "uint256"
        },
        {
          "name": "_regEndTime",
          "type": "uint256",
          "internalType": "uint256"
        },
        {
          "name": "_eventStartTime",
          "type": "uint256",
          "internalType": "uint256"
        },
        {
          "name": "_eventEndTime",
          "type": "uint256",
          "internalType": "uint256"
        },
        {
          "name": "_ticketPrice",
          "type": "uint256",
          "internalType": "uint256"
        },
        {
          "name": "_eventType",
          "type": "uint8",
          "internalType": "enum BlumaProtocol.EventType"
        }
      ],
      "outputs": [],
      "stateMutability": "nonpayable"
    },
    {
      "type": "function",
      "name": "getAllEvents",
      "inputs": [],
      "outputs": [
        {
          "name": "_events",
          "type": "tuple[]",
          "internalType": "struct BlumaProtocol.Event[]",
          "components": [
            {
              "name": "eventId",
              "type": "uint256",
              "internalType": "uint256"
            },
            {
              "name": "title",
              "type": "string",
              "internalType": "string"
            },
            {
              "name": "imageUrl",
              "type": "string",
              "internalType": "string"
            },
            {
              "name": "description",
              "type": "string",
              "internalType": "string"
            },
            {
              "name": "creator",
              "type": "address",
              "internalType": "address"
            },
            {
              "name": "seats",
              "type": "uint96",
              "internalType": "uint96"
            },
            {
              "name": "capacity",
              "type": "uint96",
              "internalType": "uint96"
            },
            {
              "name": "regStartTime",
              "type": "uint256",
              "internalType": "uint256"
            },
            {
              "name": "regEndTime",
              "type": "uint256",
              "internalType": "uint256"
            },
            {
              "name": "regStatus",
              "type": "uint8",
              "internalType": "enum BlumaProtocol.RegStatus"
            },
            {
              "name": "eventStatus",
              "type": "uint8",
              "internalType": "enum BlumaProtocol.EventStatus"
            },
            {
              "name": "eventType",
              "type": "uint8",
              "internalType": "enum BlumaProtocol.EventType"
            },
            {
              "name": "eventStartTime",
              "type": "uint256",
              "internalType": "uint256"
            },
            {
              "name": "eventEndTime",
              "type": "uint256",
              "internalType": "uint256"
            },
            {
              "name": "ticketPrice",
              "type": "uint256",
              "internalType": "uint256"
            },
            {
              "name": "totalSales",
              "type": "uint256",
              "internalType": "uint256"
            },
            {
              "name": "createdAt",
              "type": "uint256",
              "internalType": "uint256"
            },
            {
              "name": "isCreatorPaid",
              "type": "bool",
              "internalType": "bool"
            }
          ]
        }
      ],
      "stateMutability": "view"
    },
    {
      "type": "function",
      "name": "getAllTickets",
      "inputs": [],
      "outputs": [
        {
          "name": "_tickets",
          "type": "tuple[]",
          "internalType": "struct BlumaProtocol.Ticket[]",
          "components": [
            {
              "name": "ticketId",
              "type": "uint256",
              "internalType": "uint256"
            },
            {
              "name": "eventId",
              "type": "uint256",
              "internalType": "uint256"
            },
            {
              "name": "owner",
              "type": "address",
              "internalType": "address"
            },
            {
              "name": "ticketCost",
              "type": "uint256",
              "internalType": "uint256"
            },
            {
              "name": "purchaseTime",
              "type": "uint256",
              "internalType": "uint256"
            },
            {
              "name": "numberOfTicket",
              "type": "uint256",
              "internalType": "uint256"
            }
          ]
        }
      ],
      "stateMutability": "view"
    },
    {
      "type": "function",
      "name": "getEvent",
      "inputs": [
        {
          "name": "_eventId",
          "type": "uint256",
          "internalType": "uint256"
        }
      ],
      "outputs": [
        {
          "name": "_events",
          "type": "tuple",
          "internalType": "struct BlumaProtocol.Event",
          "components": [
            {
              "name": "eventId",
              "type": "uint256",
              "internalType": "uint256"
            },
            {
              "name": "title",
              "type": "string",
              "internalType": "string"
            },
            {
              "name": "imageUrl",
              "type": "string",
              "internalType": "string"
            },
            {
              "name": "description",
              "type": "string",
              "internalType": "string"
            },
            {
              "name": "creator",
              "type": "address",
              "internalType": "address"
            },
            {
              "name": "seats",
              "type": "uint96",
              "internalType": "uint96"
            },
            {
              "name": "capacity",
              "type": "uint96",
              "internalType": "uint96"
            },
            {
              "name": "regStartTime",
              "type": "uint256",
              "internalType": "uint256"
            },
            {
              "name": "regEndTime",
              "type": "uint256",
              "internalType": "uint256"
            },
            {
              "name": "regStatus",
              "type": "uint8",
              "internalType": "enum BlumaProtocol.RegStatus"
            },
            {
              "name": "eventStatus",
              "type": "uint8",
              "internalType": "enum BlumaProtocol.EventStatus"
            },
            {
              "name": "eventType",
              "type": "uint8",
              "internalType": "enum BlumaProtocol.EventType"
            },
            {
              "name": "eventStartTime",
              "type": "uint256",
              "internalType": "uint256"
            },
            {
              "name": "eventEndTime",
              "type": "uint256",
              "internalType": "uint256"
            },
            {
              "name": "ticketPrice",
              "type": "uint256",
              "internalType": "uint256"
            },
            {
              "name": "totalSales",
              "type": "uint256",
              "internalType": "uint256"
            },
            {
              "name": "createdAt",
              "type": "uint256",
              "internalType": "uint256"
            },
            {
              "name": "isCreatorPaid",
              "type": "bool",
              "internalType": "bool"
            }
          ]
        }
      ],
      "stateMutability": "view"
    },
    {
      "type": "function",
      "name": "getGroupMembers",
      "inputs": [
        {
          "name": "_eventId",
          "type": "uint256",
          "internalType": "uint256"
        }
      ],
      "outputs": [
        {
          "name": "_members",
          "type": "address[]",
          "internalType": "address[]"
        }
      ],
      "stateMutability": "view"
    },
    {
      "type": "function",
      "name": "getTicket",
      "inputs": [
        {
          "name": "_addr",
          "type": "address",
          "internalType": "address"
        }
      ],
      "outputs": [
        {
          "name": "_ticket",
          "type": "tuple",
          "internalType": "struct BlumaProtocol.Ticket",
          "components": [
            {
              "name": "ticketId",
              "type": "uint256",
              "internalType": "uint256"
            },
            {
              "name": "eventId",
              "type": "uint256",
              "internalType": "uint256"
            },
            {
              "name": "owner",
              "type": "address",
              "internalType": "address"
            },
            {
              "name": "ticketCost",
              "type": "uint256",
              "internalType": "uint256"
            },
            {
              "name": "purchaseTime",
              "type": "uint256",
              "internalType": "uint256"
            },
            {
              "name": "numberOfTicket",
              "type": "uint256",
              "internalType": "uint256"
            }
          ]
        }
      ],
      "stateMutability": "view"
    },
    {
      "type": "function",
      "name": "getUser",
      "inputs": [],
      "outputs": [
        {
          "name": "_user",
          "type": "tuple",
          "internalType": "struct BlumaProtocol.User",
          "components": [
            {
              "name": "email",
              "type": "string",
              "internalType": "string"
            },
            {
              "name": "userAddr",
              "type": "address",
              "internalType": "address"
            },
            {
              "name": "isRegistered",
              "type": "bool",
              "internalType": "bool"
            },
            {
              "name": "avatar",
              "type": "string",
              "internalType": "string"
            },
            {
              "name": "balance",
              "type": "uint256",
              "internalType": "uint256"
            }
          ]
        }
      ],
      "stateMutability": "view"
    },
    {
      "type": "function",
      "name": "initialize",
      "inputs": [
        {
          "name": "initialOwner",
          "type": "address",
          "internalType": "address"
        }
      ],
      "outputs": [],
      "stateMutability": "nonpayable"
    },
    {
      "type": "function",
      "name": "isRegistered",
      "inputs": [
        {
          "name": "_addr",
          "type": "address",
          "internalType": "address"
        }
      ],
      "outputs": [
        {
          "name": "",
          "type": "bool",
          "internalType": "bool"
        }
      ],
      "stateMutability": "view"
    },
    {
      "type": "function",
      "name": "joinGroup",
      "inputs": [
        {
          "name": "_eventId",
          "type": "uint256",
          "internalType": "uint256"
        }
      ],
      "outputs": [],
      "stateMutability": "nonpayable"
    },
    {
      "type": "function",
      "name": "owner",
      "inputs": [],
      "outputs": [
        {
          "name": "",
          "type": "address",
          "internalType": "address"
        }
      ],
      "stateMutability": "view"
    },
    {
      "type": "function",
      "name": "proxiableUUID",
      "inputs": [],
      "outputs": [
        {
          "name": "",
          "type": "bytes32",
          "internalType": "bytes32"
        }
      ],
      "stateMutability": "view"
    },
    {
      "type": "function",
      "name": "purchaseTicket",
      "inputs": [
        {
          "name": "_eventId",
          "type": "uint256",
          "internalType": "uint256"
        },
        {
          "name": "_numberOfTickets",
          "type": "uint256",
          "internalType": "uint256"
        }
      ],
      "outputs": [],
      "stateMutability": "nonpayable"
    },
    {
      "type": "function",
      "name": "refundFee",
      "inputs": [
        {
          "name": "_eventId",
          "type": "uint256",
          "internalType": "uint256"
        },
        {
          "name": "_numberOfTickets",
          "type": "uint256",
          "internalType": "uint256"
        }
      ],
      "outputs": [],
      "stateMutability": "nonpayable"
    },
    {
      "type": "function",
      "name": "renounceOwnership",
      "inputs": [],
      "outputs": [],
      "stateMutability": "nonpayable"
    },
    {
      "type": "function",
      "name": "transferOwnership",
      "inputs": [
        {
          "name": "newOwner",
          "type": "address",
          "internalType": "address"
        }
      ],
      "outputs": [],
      "stateMutability": "nonpayable"
    },
    {
      "type": "function",
      "name": "updateEventStatus",
      "inputs": [
        {
          "name": "_eventId",
          "type": "uint256",
          "internalType": "uint256"
        }
      ],
      "outputs": [],
      "stateMutability": "nonpayable"
    },
    {
      "type": "function",
      "name": "upgradeToAndCall",
      "inputs": [
        {
          "name": "newImplementation",
          "type": "address",
          "internalType": "address"
        },
        {
          "name": "data",
          "type": "bytes",
          "internalType": "bytes"
        }
      ],
      "outputs": [],
      "stateMutability": "payable"
    },
    {
      "type": "function",
      "name": "withdrawEventFee",
      "inputs": [
        {
          "name": "_eventId",
          "type": "uint256",
          "internalType": "uint256"
        }
      ],
      "outputs": [],
      "stateMutability": "nonpayable"
    },
    {
      "type": "event",
      "name": "EventClosed",
      "inputs": [
        {
          "name": "_eventId",
          "type": "uint256",
          "indexed": true,
          "internalType": "uint256"
        },
        {
          "name": "_currentTime",
          "type": "uint256",
          "indexed": true,
          "internalType": "uint256"
        }
      ],
      "anonymous": false
    },
    {
      "type": "event",
      "name": "EventCreated",
      "inputs": [
        {
          "name": "_totalEventsId",
          "type": "uint256",
          "indexed": true,
          "internalType": "uint256"
        },
        {
          "name": "_seatNumber",
          "type": "uint256",
          "indexed": true,
          "internalType": "uint256"
        },
        {
          "name": "_capacity",
          "type": "uint256",
          "indexed": true,
          "internalType": "uint256"
        }
      ],
      "anonymous": false
    },
    {
      "type": "event",
      "name": "GroupCreated",
      "inputs": [
        {
          "name": "_roomId",
          "type": "uint256",
          "indexed": true,
          "internalType": "uint256"
        },
        {
          "name": "imageUrl",
          "type": "string",
          "indexed": true,
          "internalType": "string"
        },
        {
          "name": "_title",
          "type": "string",
          "indexed": false,
          "internalType": "string"
        }
      ],
      "anonymous": false
    },
    {
      "type": "event",
      "name": "GroupJoinedSuccessfully",
      "inputs": [
        {
          "name": "_sender",
          "type": "address",
          "indexed": true,
          "internalType": "address"
        },
        {
          "name": "_eventId",
          "type": "uint256",
          "indexed": true,
          "internalType": "uint256"
        }
      ],
      "anonymous": false
    },
    {
      "type": "event",
      "name": "Initialized",
      "inputs": [
        {
          "name": "version",
          "type": "uint64",
          "indexed": false,
          "internalType": "uint64"
        }
      ],
      "anonymous": false
    },
    {
      "type": "event",
      "name": "OwnershipTransferred",
      "inputs": [
        {
          "name": "previousOwner",
          "type": "address",
          "indexed": true,
          "internalType": "address"
        },
        {
          "name": "newOwner",
          "type": "address",
          "indexed": true,
          "internalType": "address"
        }
      ],
      "anonymous": false
    },
    {
      "type": "event",
      "name": "RefundIssued",
      "inputs": [
        {
          "name": "buyer",
          "type": "address",
          "indexed": true,
          "internalType": "address"
        },
        {
          "name": "_ticketId",
          "type": "uint256",
          "indexed": true,
          "internalType": "uint256"
        },
        {
          "name": "_eventId",
          "type": "uint256",
          "indexed": true,
          "internalType": "uint256"
        },
        {
          "name": "amount",
          "type": "uint256",
          "indexed": false,
          "internalType": "uint256"
        }
      ],
      "anonymous": false
    },
    {
      "type": "event",
      "name": "RegistrationClose",
      "inputs": [
        {
          "name": "_currentTime",
          "type": "uint256",
          "indexed": true,
          "internalType": "uint256"
        },
        {
          "name": "_status",
          "type": "uint8",
          "indexed": true,
          "internalType": "uint8"
        }
      ],
      "anonymous": false
    },
    {
      "type": "event",
      "name": "TicketPurchased",
      "inputs": [
        {
          "name": "buyer",
          "type": "address",
          "indexed": true,
          "internalType": "address"
        },
        {
          "name": "_eventId",
          "type": "uint256",
          "indexed": true,
          "internalType": "uint256"
        },
        {
          "name": "numberOfTickets",
          "type": "uint256",
          "indexed": false,
          "internalType": "uint256"
        }
      ],
      "anonymous": false
    },
    {
      "type": "event",
      "name": "Upgraded",
      "inputs": [
        {
          "name": "implementation",
          "type": "address",
          "indexed": true,
          "internalType": "address"
        }
      ],
      "anonymous": false
    },
    {
      "type": "error",
      "name": "ALREADY_PAID",
      "inputs": []
    },
    {
      "type": "error",
      "name": "AddressEmptyCode",
      "inputs": [
        {
          "name": "target",
          "type": "address",
          "internalType": "address"
        }
      ]
    },
    {
      "type": "error",
      "name": "EMPTY_INPUT_FIELD",
      "inputs": []
    },
    {
      "type": "error",
      "name": "ERC1967InvalidImplementation",
      "inputs": [
        {
          "name": "implementation",
          "type": "address",
          "internalType": "address"
        }
      ]
    },
    {
      "type": "error",
      "name": "ERC1967NonPayable",
      "inputs": []
    },
    {
      "type": "error",
      "name": "EVENT_NOT_CLOSED",
      "inputs": []
    },
    {
      "type": "error",
      "name": "FailedInnerCall",
      "inputs": []
    },
    {
      "type": "error",
      "name": "GROUP_ALREADY_EXISTS",
      "inputs": []
    },
    {
      "type": "error",
      "name": "INSUFFICIENT_BALANCE",
      "inputs": []
    },
    {
      "type": "error",
      "name": "INSUFFICIENT_TICKET_PURCHASED",
      "inputs": []
    },
    {
      "type": "error",
      "name": "INVALID_EVENT_ID",
      "inputs": []
    },
    {
      "type": "error",
      "name": "INVALID_ID",
      "inputs": []
    },
    {
      "type": "error",
      "name": "INVALID_NOT_AUTHORIZED",
      "inputs": []
    },
    {
      "type": "error",
      "name": "INVALID_TIME_SET",
      "inputs": []
    },
    {
      "type": "error",
      "name": "InvalidInitialization",
      "inputs": []
    },
    {
      "type": "error",
      "name": "NOT_CREATOR",
      "inputs": []
    },
    {
      "type": "error",
      "name": "NOT_ENOUGH_AVAILABLE_SEAT",
      "inputs": []
    },
    {
      "type": "error",
      "name": "NOT_OWNER",
      "inputs": []
    },
    {
      "type": "error",
      "name": "NOT_PAID_EVENT",
      "inputs": []
    },
    {
      "type": "error",
      "name": "NO_ALLOWANCE",
      "inputs": []
    },
    {
      "type": "error",
      "name": "NotInitializing",
      "inputs": []
    },
    {
      "type": "error",
      "name": "OwnableInvalidOwner",
      "inputs": [
        {
          "name": "owner",
          "type": "address",
          "internalType": "address"
        }
      ]
    },
    {
      "type": "error",
      "name": "OwnableUnauthorizedAccount",
      "inputs": [
        {
          "name": "account",
          "type": "address",
          "internalType": "address"
        }
      ]
    },
    {
      "type": "error",
      "name": "REGISTRATION_CLOSE",
      "inputs": []
    },
    {
      "type": "error",
      "name": "REGISTRATION_NOT_OPEN",
      "inputs": []
    },
    {
      "type": "error",
      "name": "UUPSUnauthorizedCallContext",
      "inputs": []
    },
    {
      "type": "error",
      "name": "UUPSUnsupportedProxiableUUID",
      "inputs": [
        {
          "name": "slot",
          "type": "bytes32",
          "internalType": "bytes32"
        }
      ]
    }
  ],
  "bytecode": {
    "object": "0x60a0806040523461002a5730608052612cca908161003082396080518181816119b00152611af20152f35b600080fdfe6080604052600436101561001257600080fd5b60003560e01c806303e96fe3146121f75780630a9bfef5146121ba578063222955581461219e578063331ef97614611f7f57806336cc813014611ebb5780633b68afc214611d7e5780634717dea914611cd15780634f1ef28614611aa357806350312c9e14611a1a57806352d1902d1461199d5780635f82f4cd1461171a5780636d1884e014611650578063715018a6146115e6578063832880e7146114d45780638da5cb5b1461149e578063ad3cb1cc14611442578063bdbbb0cb14610fcb578063c27a500d14610ee1578063c292f123146103d6578063c3c5a54714610391578063c4d66de814610238578063eed02e4b146101495763f2fde38b1461011957600080fd5b34610144576020366003190112610144576101426101356122fe565b61013d612acb565b612a1e565b005b600080fd5b346101445760203660031901126101445760043561016681612a92565b33600052600660205260406000208160005260205260ff6040600020541615610226578060005260056020526004604060002001805490600160401b82101561021057600182018082558210156101fa57600052602060002001336001600160601b0360a01b825416179055337f0f59918e805ed3f8d6f2a54d2dd3e674035d87017dd6de9983321218f767c965600080a3005b634e487b7160e01b600052603260045260246000fd5b634e487b7160e01b600052604160045260246000fd5b60405163082e385d60e01b8152600490fd5b34610144576020366003190112610144576102516122fe565b7ff0c57e16840df040f15088dc2f81fe391c3923bec73e23a9662efc9c229c6a0090815460ff8160401c1615916001600160401b03821680159081610389575b600114908161037f575b159081610376575b506103645767ffffffffffffffff19821660011784556102d49183610345575b506102cc612bd0565b61013d612bd0565b6102dc612bd0565b600a80546001600160a01b031916734cb6cef87d8cadf966b455e8bd58fff32aba49d117905561030857005b68ff00000000000000001981541690557fc7f505b2f371ae2175ee4913f4499e1f2633a7b5936321eed1cdaeb6115181d2602060405160018152a1005b68ffffffffffffffffff191668010000000000000001178455846102c3565b60405163f92ee8a960e01b8152600490fd5b905015856102a3565b303b15915061029b565b849150610291565b34610144576020366003190112610144576001600160a01b036103b26122fe565b166000526002602052602060ff60016040600020015460a01c166040519015158152f35b3461014457610160366003190112610144576004356001600160401b0381116101445761040790369060040161256a565b906024356001600160401b0381116101445761042790369060040161256a565b6044356001600160401b0381116101445761044690369060040161256a565b9290946001600160601b036064351660643503610144576001600160601b0360843516608435036101445760026101443510156101445761049061048b3683886123a2565b612aae565b61049e61048b3686896123a2565b6104ac61048b3685856123a2565b6104b760a435612b04565b6104c260c435612b04565b6104cd60e435612b04565b6104d961010435612b04565b6104e561012435612b04565b6104f0606435612b0d565b6104fb608435612b0d565b61050a6101043560e435612b20565b61051860c43560a435612b20565b610523600054612930565b80600055600052600360205260406000209460a4354210600014610ed05760088601805460ff191660021790555b61014435610eb95761012435600b8701555b60005486556001600160401b0382116102105761059082610587600189015461268d565b600189016126de565b600090601f8311600114610e48576105c1929160009183610e3d575b50508160011b916000199060031b1c19161790565b60018501555b6001600160401b038211610210576105ef826105e6600287015461268d565b600287016126de565b600090601f8311600114610dcc5761061f929160009183610dc15750508160011b916000199060031b1c19161790565b60028301555b6001600160401b0381116102105761064d81610644600385015461268d565b600385016126de565b600092601f8211600114610d525761067e92938291600092610d475750508160011b916000199060031b1c19161790565b60038201555b60643560a01b6001600160a01b031916331760048201556005810180546bffffffffffffffffffffffff19166084356001600160601b031617905560a435600682015560c43560078083019190915560e435600983015561010435600a83015560088201805461ff00191661020017905542600d83015554600160401b8110156102105760018101806007558110156101fa57600f90600760005202807fa66cc928b5edb82af9bd49922954155ab7b0942694bea4ce44661d9a8736c68801828103610a24575b50505461075781612a92565b806000526005602052604060002054610a1257806000526003602052604060002090600560205260406000208181556001830192600182019161079a858461293f565b6002820192600282016107ad858261293f565b6107bd600380850195018561293f565b600854600160401b8110156102105760018101806008558110156101fa5760059060086000520292837ff3f7a9fe364faab93b216da50a3214154f22a0a2b415b23a84c8169e8b636ee301818103610950575b505050505050604051906000908054906108298261268d565b916001811690811561091957506001146108c4575b5050817f9126ce0d3d2a1b2c0f431ecfd2ccc39c9d0b11994994ea5e498c329073bf93409261087f920390209360405191829160208352602083019061276a565b0390a36001600160601b03608435166001600160601b03606435166000547f06168e40fac2576e22d73ab2e9efa79b4e7530dd3dd411ab7d8862d04be798a2600080a4005b90915060005260206000206000905b8282106109055750508101817f9126ce0d3d2a1b2c0f431ecfd2ccc39c9d0b11994994ea5e498c329073bf934061083e565b6001816020925484870152019101906108d3565b60ff1916855250508015150282019050817f9126ce0d3d2a1b2c0f431ecfd2ccc39c9d0b11994994ea5e498c329073bf934061083e565b610a07956109d76004946109af7ff3f7a9fe364faab93b216da50a3214154f22a0a2b415b23a84c8169e8b636ee7976109ff95875490557ff3f7a9fe364faab93b216da50a3214154f22a0a2b415b23a84c8169e8b636ee48a0161293f565b7ff3f7a9fe364faab93b216da50a3214154f22a0a2b415b23a84c8169e8b636ee5880161293f565b7ff3f7a9fe364faab93b216da50a3214154f22a0a2b415b23a84c8169e8b636ee6860161293f565b019101612b3a565b838080808080610810565b60405163e955b73b60e01b8152600490fd5b82549055610a57600183017fa66cc928b5edb82af9bd49922954155ab7b0942694bea4ce44661d9a8736c689830161293f565b610a86600283017fa66cc928b5edb82af9bd49922954155ab7b0942694bea4ce44661d9a8736c68a830161293f565b610ab5600383017fa66cc928b5edb82af9bd49922954155ab7b0942694bea4ce44661d9a8736c68b830161293f565b6004820180547fa66cc928b5edb82af9bd49922954155ab7b0942694bea4ce44661d9a8736c68c830180546001600160a01b03199081166001600160a01b0393909316928317825592549092161790557fa66cc928b5edb82af9bd49922954155ab7b0942694bea4ce44661d9a8736c68d81016001600160601b036005840154166001600160601b031982541617905560068201547fa66cc928b5edb82af9bd49922954155ab7b0942694bea4ce44661d9a8736c68e82015560078201547fa66cc928b5edb82af9bd49922954155ab7b0942694bea4ce44661d9a8736c68f8201557fa66cc928b5edb82af9bd49922954155ab7b0942694bea4ce44661d9a8736c69081019060ff60088401541690610bcd8261244d565b82549260ff19938385821617825561ff006008870154610bf260ff8260081c1661244d565b16808561ffff19841617178355600887015494600260ff8760101c161015610d315762ff00007fa66cc928b5edb82af9bd49922954155ab7b0942694bea4ce44661d9a8736c69696169262ffffff1916171717905560098401547fa66cc928b5edb82af9bd49922954155ab7b0942694bea4ce44661d9a8736c691820155600a8401547fa66cc928b5edb82af9bd49922954155ab7b0942694bea4ce44661d9a8736c692820155600b8401547fa66cc928b5edb82af9bd49922954155ab7b0942694bea4ce44661d9a8736c693820155600c8401547fa66cc928b5edb82af9bd49922954155ab7b0942694bea4ce44661d9a8736c694820155600d8401547fa66cc928b5edb82af9bd49922954155ab7b0942694bea4ce44661d9a8736c695820155019060ff80600e850154161515918354169116179055818061074b565b634e487b7160e01b600052602160045260246000fd5b0135905084806105ac565b600383016000526020600020906000945b601f1984168610610da957600194955083601f19811610610d8f575b505050811b016003820155610684565b0135600019600384901b60f8161c19169055838080610d7f565b91602060018192858501358155019301950194610d63565b0135905086806105ac565b600285939293016000526020600020906000935b601f1984168510610e25576001945083601f19811610610e0b575b505050811b016002830155610625565b0135600019600384901b60f8161c19169055858080610dfb565b81810135835560209485019460019093019201610de0565b0135905088806105ac565b600187939293016000526020600020906000935b601f1984168510610ea1576001945083601f19811610610e87575b505050811b0160018501556105c7565b0135600019600384901b60f8161c19169055878080610e77565b81810135835560209485019460019093019201610e5c565b60016101443503610563576000600b870155610563565b60088601805460ff19169055610551565b3461014457600036600319011261014457600754610efe81612597565b90610f0c6040519283612366565b808252602090818301908160076000527fa66cc928b5edb82af9bd49922954155ab7b0942694bea4ce44661d9a8736c6886000915b838310610fa85750505050604051918083019381845251809452604083019360408160051b85010192916000955b828710610f7c5785850386f35b909192938280610f98600193603f198a82030186528851612457565b9601920196019592919092610f6f565b600f86600192610fba859a999a612800565b815201920192019190959495610f41565b3461014457610fd9366123f7565b610fe282612a92565b816000526020600381526040600020906008820160ff8154166110048161244d565b61143057600483019061101b85835460a01c612725565b916001600160601b0392836005870154161061141e5760019261103e8454612930565b8455336000526004855260406000209560ff6000945460101c166002811015610d315715611276575b50808716825460a01c019081116112605781546001600160a01b031660a09190911b6001600160a01b0319161790558154845560028401936001600160601b0360a01b94338682541617815560048201428155848301938985556110d060038501918254612725565b815560058401926110e28a8554612725565b845560095498600160401b8a101561021057878a01806009558a10156101fa5760067f2a91574e12ad96234e84923e146b0946ecfb871cd8d5534dc1fdcbe87a7c01b39a0296877f6e1540171b6c0c960b71a7020d9f60077f6af931a8bbf590da0223dacf75c7af01878103611185575b8d8d8d8d8d3360005260068252604060002085600052825260406000209060ff198254161790556040519283523392a3005b7f6e1540171b6c0c960b71a7020d9f60077f6af931a8bbf590da0223dacf75c7b497549055547f6e1540171b6c0c960b71a7020d9f60077f6af931a8bbf590da0223dacf75c7b08801557f6e1540171b6c0c960b71a7020d9f60077f6af931a8bbf590da0223dacf75c7b187019160018060a01b0390541690825416179055547f6e1540171b6c0c960b71a7020d9f60077f6af931a8bbf590da0223dacf75c7b2850155547f6e1540171b6c0c960b71a7020d9f60077f6af931a8bbf590da0223dacf75c7b384015554910155858080808080808080611153565b634e487b7160e01b600052601160045260246000fd5b9250611286600b8401548861274a565b600a546040516370a0823160e01b815233600482015291946001600160a01b03909116918781602481865afa801561138c5786916000916113ed575b50106113db57604051636eb1769f60e11b81523360048201523060248201528781604481865afa801561138c5786916000916113aa575b501061139857866000926064604051809581936323b872dd60e01b83523360048401523060248401528a60448401525af191821561138c57600c9261135f575b5001611346848254612725565b905560038601611357848254612725565b905588611067565b61137e90883d8a11611385575b6113768183612366565b810190612732565b508a611339565b503d61136c565b6040513d6000823e3d90fd5b60405163ea75ebd560e01b8152600490fd5b809250898092503d83116113d4575b6113c38183612366565b81010312610144578590518c6112f9565b503d6113b9565b604051632858f9ab60e11b8152600490fd5b809250898092503d8311611417575b6114068183612366565b81010312610144578590518c6112c2565b503d6113fc565b6040516374a227cd60e01b8152600490fd5b6040516305fb6d9960e41b8152600490fd5b346101445760003660031901126101445760405160408101908082106001600160401b038311176102105761149a9160405260058152640352e302e360dc1b602082015260405191829160208352602083019061240d565b0390f35b3461014457600036600319011261014457600080516020612c75833981519152546040516001600160a01b039091168152602090f35b3461014457600036600319011261014457600060806040516114f58161234b565b6060815282602082015282604082015260608082015201523360005260026020526115b960406000206040519061152b8261234b565b6040516115438161153c818561276a565b0382612366565b82526115db600182015460018060a01b03926020850191848116835260ff604087019160a01c161515815260036040519261158c84611585816002850161276a565b0385612366565b6060880193845201549460808701958652604051978897602089525160a060208a015260c089019061240d565b9351166040870152511515606086015251848203601f1901608086015261240d565b905160a08301520390f35b34610144576000366003190112610144576115ff612acb565b600080516020612c7583398151915280546001600160a01b031981169091556000906001600160a01b03167f8be0079c531659141344cd1fd0a4f28419497f9722a3daafe3b4186f6b6457e08280a3005b346101445760203660031901126101445760043560006102206040516116758161232f565b82815260606020820152606060408201526060808201528260808201528260a08201528260c08201528260e08201528261010082015282610120820152826101408201528261016082015282610180820152826101a0820152826101c0820152826101e08201528261020082015201526116ee81612a92565b600052600360205261149a6117066040600020612800565b604051918291602083526020830190612457565b3461014457611728366123f7565b9061173281612a92565b8060005260209060038252604060002061174b82612a92565b8160005260038352604060002060078101544211611944575b503360005260048352604060002090600881015460ff8160101c166002811015610d31576119325760ff166117988161244d565b6119205760028201546001600160a01b039190339083160361190e57836001840154036118fc576005830190868254106118ea576117da600b8201548861274a565b966001600160601b036004830192818316845460a01c039182116112605783546001600160a01b031660a09290921b6001600160a01b0319169190911790925561183591600c0161182c89825461275d565b9055825461275d565b809155156118c5575b600a5460405163a9059cbb60e01b8152336004820152602481018790529291859184916044918391600091165af191821561138c577fa4df187fafb0529fa54f7725b3f0897bda3b4bea7cd0d245609d3e66d0907a12926118a8575b5054926040519283523392a4005b6118be90853d8711611385576113768183612366565b508561189a565b33600052600684526040600020836000528452604060002060ff19815416905561183e565b60405163a2ed46e160e01b8152600490fd5b60405163b790ffed60e01b8152600490fd5b6040516338ebc58960e11b8152600490fd5b604051630738c50360e41b8152600490fd5b6040516380e4469160e01b8152600490fd5b6008018054600160ff82166119588161244d565b03611964575b50611764565b60019060ff19161790556001427f9c8ea6489f3baa31d321639e3a41ad67158fa673511a98870906b5a9eced0dd4600080a3848061195e565b34610144576000366003190112610144577f00000000000000000000000000000000000000000000000000000000000000006001600160a01b03163003611a085760206040517f360894a13ba1a3210667c828492db98dca3e2076cc3735a920a3ca505d382bbc8152f35b60405163703e46dd60e11b8152600490fd5b3461014457600036600319011261014457600a546040516370a0823160e01b815230600482015290602090829060249082906001600160a01b03165afa801561138c57600090611a70575b602090604051908152f35b506020813d602011611a9b575b81611a8a60209383612366565b810103126101445760209051611a65565b3d9150611a7d565b604036600319011261014457611ab76122fe565b6024356001600160401b038111610144573660238201121561014457611ae79036906024816004013591016123a2565b906001600160a01b037f00000000000000000000000000000000000000000000000000000000000000008116308114908115611ca3575b50611a0857611b2b612acb565b6040516352d1902d60e01b8152908216916020918281600481875afa60009181611c74575b50611b6e57604051634c9c8ce360e01b815260048101859052602490fd5b9284937f360894a13ba1a3210667c828492db98dca3e2076cc3735a920a3ca505d382bbc90818103611c5c5750823b15611c435780546001600160a01b03191682179055604051907fbc7cd75a20ee27fd9adebab32041f755214dbc6bffa90cc0225b39da2e5c2d3b600080a2835115611c295750600080848461014296519101845af4903d15611c20573d611c0381612387565b90611c116040519283612366565b8152600081943d92013e612c11565b60609250612c11565b9250505034611c3457005b63b398979f60e01b8152600490fd5b604051634c9c8ce360e01b815260048101839052602490fd5b60249060405190632a87526960e21b82526004820152fd5b9091508381813d8311611c9c575b611c8c8183612366565b8101031261014457519086611b50565b503d611c82565b9050817f360894a13ba1a3210667c828492db98dca3e2076cc3735a920a3ca505d382bbc5416141584611b1e565b3461014457602036600319011261014457611cea6122fe565b600060a0604051611cfa81612314565b828152826020820152826040820152826060820152826080820152015260018060a01b0316600052600460205260c0611d3660406000206125ae565b611d7c604051809260a080918051845260208101516020850152600180831b03604082015116604085015260608101516060850152608081015160808501520151910152565bf35b346101445760208060031936011261014457600435611d9c81612a92565b80600052600382526040600020903360005260028352611dc06040600020916125fd565b600160ff600884015460081c16611dd68161244d565b03611ea95760048201546001600160a01b03903390821603611e9757600e83019081549060ff8216611e855760038694611e5f946001600c6000990195898754975560ff191617905501611e2b838254612725565b9055600a5460405163a9059cbb60e01b81523360048201526024810193909352919485939190921691839182906044820190565b03925af1801561138c57611e6f57005b8161014292903d10611385576113768183612366565b60405163d2e53ca760e01b8152600490fd5b604051632cff942760e01b8152600490fd5b604051631988a70d60e01b8152600490fd5b346101445760208060031936011261014457600435611ed981612a92565b60005260058152600460406000200160405190818382549182815201908192600052846000209060005b86828210611f62578686611f1982880383612366565b604051928392818401908285525180915260408401929160005b828110611f4257505050500390f35b83516001600160a01b031685528695509381019392810192600101611f33565b83546001600160a01b031685529093019260019283019201611f03565b34610144576060366003190112610144576001600160401b0360043581811161014457611fb09036906004016123d9565b6024356001600160a01b03811692908390036101445760443581811161014457611fde9036906004016123d9565b92611fe883612aae565b611ff184612aae565b6000526020600281526040600020928051908382116102105761201e82612018875461268d565b876126de565b8290601f83116001146121375761204d92916000918361212c5750508160011b916000199060031b1c19161790565b83555b6001838101805460ff60a01b1916600160a01b1790558451600294909401939283116102105761208a83612084865461268d565b866126de565b81601f84116001146120ca57505081906120bb93946000926120bf5750508160011b916000199060031b1c19161790565b9055005b0151905084806105ac565b60008581528181209392601f19861692905b83831061211557505050948360019596106120fc575b505050811b019055005b015160001960f88460031b161c191690558380806120f2565b8885015186559485019493810193918101916120dc565b0151905087806105ac565b90601f1983169186600052846000209260005b8682821061218857505090846001959493921061216f575b505050811b018355612050565b015160001960f88460031b161c19169055868080612162565b600185968293968601518155019501930161214a565b34610144576020366003190112610144576101426004356125fd565b34610144576020366003190112610144576001600160a01b036121db6122fe565b1660005260026020526020600360406000200154604051908152f35b346101445760003660031901126101445760095461221481612597565b6122216040519182612366565b81815260209060208101928360096000527f6e1540171b6c0c960b71a7020d9f60077f6af931a8bbf590da0223dacf75c7af6000915b8383106122e157604080516020808252875190820181905289928201908960005b8281106122855784840385f35b9091928260c0826122d26001948a5160a080918051845260208101516020850152600180831b03604082015116604085015260608101516060850152608081015160808501520151910152565b01960191019492919094612278565b6006866001926122f0856125ae565b815201920192019190612257565b600435906001600160a01b038216820361014457565b60c081019081106001600160401b0382111761021057604052565b61024081019081106001600160401b0382111761021057604052565b60a081019081106001600160401b0382111761021057604052565b90601f801991011681019081106001600160401b0382111761021057604052565b6001600160401b03811161021057601f01601f191660200190565b9291926123ae82612387565b916123bc6040519384612366565b829481845281830111610144578281602093846000960137010152565b9080601f83011215610144578160206123f4933591016123a2565b90565b6040906003190112610144576004359060243590565b919082519283825260005b848110612439575050826000602080949584010152601f8019910116010190565b602081830181015184830182015201612418565b60031115610d3157565b906124a061248e61247c6102408551855260208601519080602087015285019061240d565b6040850151848203604086015261240d565b6060840151838203606085015261240d565b9160018060a01b03608082015116608083015260a08101516001600160601b0380911660a084015260c08201511660c083015260e081015160e0830152610100808201519083015261012080820151906124f98261244d565b830152610140808201519061250d8261244d565b83015261016080820151906002821015610d315783015261018080820151908301526101a080820151908301526101c080820151908301526101e08082015190830152610200808201519083015261022080910151151591015290565b9181601f84011215610144578235916001600160401b038311610144576020838186019501011161014457565b6001600160401b0381116102105760051b60200190565b906040516125bb81612314565b825481526001830154602082015260028301546001600160a01b03166040820152600383015460608201526004830154608082015260059092015460a0830152565b61260681612a92565b806000526003602052604060002060098101544210158061267f575b1561263657600801805461ff001916905550565b600a8101544211612646575b5050565b600801805461ff00191661010017905542907f4f3fc803aeb6c66633d2974cf9280c1df8837b69483642c792e199e239245730600080a3565b50600a810154421115612622565b90600182811c921680156126bd575b60208310146126a757565b634e487b7160e01b600052602260045260246000fd5b91607f169161269c565b8181106126d2575050565b600081556001016126c7565b9190601f81116126ed57505050565b612719926000526020600020906020601f840160051c8301931061271b575b601f0160051c01906126c7565b565b909150819061270c565b9190820180921161126057565b90816020910312610144575180151581036101445790565b8181029291811591840414171561126057565b9190820391821161126057565b8054600093926127798261268d565b918282526020936001916001811690816000146127e157506001146127a0575b5050505050565b90939495506000929192528360002092846000945b8386106127cd57505050500101903880808080612799565b8054858701830152940193859082016127b5565b60ff19168685015250505090151560051b010191503880808080612799565b9060405161280d8161232f565b8092805482526040516128278161153c816001860161276a565b60208301526040516128408161153c816002860161276a565b60408301526040516128598161153c816003860161276a565b606083015260048101546001600160a01b038116608084015260a090811c9083015260058101546001600160601b031660c0830152600681015460e08301526007810154610100830152600881015460ff908082166128b78161244d565b610120850152818160081c166128cc8161244d565b61014085015260101c16906002821015610d3157600e60ff91610220936101608601526009810154610180860152600a8101546101a0860152600b8101546101c0860152600c8101546101e0860152600d8101546102008601520154161515910152565b60001981146112605760010190565b9080821461264257612951815461268d565b906001600160401b038211610210576129748261296e855461268d565b856126de565b600090601f83116001146129b3576129a49291600091836129a85750508160011b916000199060031b1c19161790565b9055565b0154905038806105ac565b815260208082208483528183209291601f1985169083905b828210612a055750509084600195949392106129ec575b505050811b019055565b015460001960f88460031b161c191690553880806129e2565b84958192958501548155600180910196019401906129cb565b6001600160a01b03908116908115612a7957600080516020612c7583398151915280546001600160a01b031981168417909155167f8be0079c531659141344cd1fd0a4f28419497f9722a3daafe3b4186f6b6457e0600080a3565b604051631e4fbdf760e01b815260006004820152602490fd5b60005410612a9c57565b6040516316a7994d60e21b8152600490fd5b6001905110612ab957565b604051631ee8943b60e21b8152600490fd5b600080516020612c75833981519152546001600160a01b03163303612aec57565b60405163118cdaa760e01b8152336004820152602490fd5b600111612ab957565b6001600160601b036001911610612ab957565b1015612b2857565b60405163489eca6760e01b8152600490fd5b818114612642578154916001600160401b03831161021057600160401b8311610210578154838355808410612bb2575b5060005260206000209060005260206000208154916000925b848410612b91575050505050565b600191820180546001600160a01b0390921684860155939091019290612b83565b612bca908360005284602060002091820191016126c7565b38612b6a565b60ff7ff0c57e16840df040f15088dc2f81fe391c3923bec73e23a9662efc9c229c6a005460401c1615612bff57565b604051631afcd79f60e31b8152600490fd5b90612c385750805115612c2657805190602001fd5b604051630a12f52160e11b8152600490fd5b81511580612c6b575b612c49575090565b604051639996b31560e01b81526001600160a01b039091166004820152602490fd5b50803b15612c4156fe9016d09d72d40fdae2fd8ceac6b6234c7706214fd39c1cd1e609a0528c199300a2646970667358221220842ae8819d7261592c67d4081ba59b655672af2b25b424ae2679a4bed5d3e5a964736f6c63430008180033",
    "linkReferences": {}
  },
  "methodIdentifiers": {
    "UPGRADE_INTERFACE_VERSION()": "ad3cb1cc",
    "checkContractBalance()": "50312c9e",
    "checkUserBalance(address)": "0a9bfef5",
    "createAccount(string,address,string)": "331ef976",
    "createEvent(string,string,string,uint96,uint96,uint256,uint256,uint256,uint256,uint256,uint8)": "c292f123",
    "getAllEvents()": "c27a500d",
    "getAllTickets()": "03e96fe3",
    "getEvent(uint256)": "6d1884e0",
    "getGroupMembers(uint256)": "36cc8130",
    "getTicket(address)": "4717dea9",
    "getUser()": "832880e7",
    "initialize(address)": "c4d66de8",
    "isRegistered(address)": "c3c5a547",
    "joinGroup(uint256)": "eed02e4b",
    "owner()": "8da5cb5b",
    "proxiableUUID()": "52d1902d",
    "purchaseTicket(uint256,uint256)": "bdbbb0cb",
    "refundFee(uint256,uint256)": "5f82f4cd",
    "renounceOwnership()": "715018a6",
    "transferOwnership(address)": "f2fde38b",
    "updateEventStatus(uint256)": "22295558",
    "upgradeToAndCall(address,bytes)": "4f1ef286",
    "withdrawEventFee(uint256)": "3b68afc2"
  },
  "id": 31
}