{"abi":[{"type":"function","name":"UPGRADE_INTERFACE_VERSION","inputs":[],"outputs":[{"name":"","type":"string","internalType":"string"}],"stateMutability":"view"},{"type":"function","name":"checkContractBalance","inputs":[],"outputs":[{"name":"bal_","type":"uint256","internalType":"uint256"}],"stateMutability":"view"},{"type":"function","name":"checkUserBalance","inputs":[{"name":"_addr","type":"address","internalType":"address"}],"outputs":[{"name":"bal_","type":"uint256","internalType":"uint256"}],"stateMutability":"view"},{"type":"function","name":"createAccount","inputs":[{"name":"_email","type":"string","internalType":"string"},{"name":"_addr","type":"address","internalType":"address"},{"name":"_avatar","type":"string","internalType":"string"}],"outputs":[],"stateMutability":"nonpayable"},{"type":"function","name":"createEvent","inputs":[{"name":"_title","type":"bytes32","internalType":"bytes32"},{"name":"_imageUrl","type":"string","internalType":"string"},{"name":"_description","type":"string","internalType":"string"},{"name":"_capacity","type":"uint32","internalType":"uint32"},{"name":"_regStartTime","type":"uint256","internalType":"uint256"},{"name":"_regEndTime","type":"uint256","internalType":"uint256"},{"name":"_eventStartTime","type":"uint256","internalType":"uint256"},{"name":"_eventEndTime","type":"uint256","internalType":"uint256"},{"name":"_ticketPrice","type":"uint96","internalType":"uint96"},{"name":"_eventType","type":"uint8","internalType":"enum BlumaProtocol.EventType"}],"outputs":[],"stateMutability":"nonpayable"},{"type":"function","name":"getAllEvents","inputs":[],"outputs":[{"name":"_events","type":"tuple[]","internalType":"struct BlumaProtocol.Event[]","components":[{"name":"eventId","type":"uint32","internalType":"uint32"},{"name":"title","type":"bytes32","internalType":"bytes32"},{"name":"imageUrl","type":"string","internalType":"string"},{"name":"description","type":"string","internalType":"string"},{"name":"creator","type":"address","internalType":"address"},{"name":"seats","type":"uint32","internalType":"uint32"},{"name":"capacity","type":"uint32","internalType":"uint32"},{"name":"regStartTime","type":"uint256","internalType":"uint256"},{"name":"regEndTime","type":"uint256","internalType":"uint256"},{"name":"regStatus","type":"uint8","internalType":"enum BlumaProtocol.RegStatus"},{"name":"eventStatus","type":"uint8","internalType":"enum BlumaProtocol.EventStatus"},{"name":"eventType","type":"uint8","internalType":"enum BlumaProtocol.EventType"},{"name":"eventStartTime","type":"uint256","internalType":"uint256"},{"name":"eventEndTime","type":"uint256","internalType":"uint256"},{"name":"ticketPrice","type":"uint96","internalType":"uint96"},{"name":"totalSales","type":"uint256","internalType":"uint256"},{"name":"createdAt","type":"uint256","internalType":"uint256"},{"name":"isCreatorPaid","type":"bool","internalType":"bool"}]}],"stateMutability":"view"},{"type":"function","name":"getAllTickets","inputs":[],"outputs":[{"name":"_tickets","type":"tuple[]","internalType":"struct BlumaProtocol.Ticket[]","components":[{"name":"ticketId","type":"uint32","internalType":"uint32"},{"name":"eventId","type":"uint32","internalType":"uint32"},{"name":"owner","type":"address","internalType":"address"},{"name":"ticketCost","type":"uint256","internalType":"uint256"},{"name":"purchaseTime","type":"uint256","internalType":"uint256"},{"name":"numberOfTicket","type":"uint32","internalType":"uint32"}]}],"stateMutability":"view"},{"type":"function","name":"getEvent","inputs":[{"name":"_eventId","type":"uint32","internalType":"uint32"}],"outputs":[{"name":"_events","type":"tuple","internalType":"struct BlumaProtocol.Event","components":[{"name":"eventId","type":"uint32","internalType":"uint32"},{"name":"title","type":"bytes32","internalType":"bytes32"},{"name":"imageUrl","type":"string","internalType":"string"},{"name":"description","type":"string","internalType":"string"},{"name":"creator","type":"address","internalType":"address"},{"name":"seats","type":"uint32","internalType":"uint32"},{"name":"capacity","type":"uint32","internalType":"uint32"},{"name":"regStartTime","type":"uint256","internalType":"uint256"},{"name":"regEndTime","type":"uint256","internalType":"uint256"},{"name":"regStatus","type":"uint8","internalType":"enum BlumaProtocol.RegStatus"},{"name":"eventStatus","type":"uint8","internalType":"enum BlumaProtocol.EventStatus"},{"name":"eventType","type":"uint8","internalType":"enum BlumaProtocol.EventType"},{"name":"eventStartTime","type":"uint256","internalType":"uint256"},{"name":"eventEndTime","type":"uint256","internalType":"uint256"},{"name":"ticketPrice","type":"uint96","internalType":"uint96"},{"name":"totalSales","type":"uint256","internalType":"uint256"},{"name":"createdAt","type":"uint256","internalType":"uint256"},{"name":"isCreatorPaid","type":"bool","internalType":"bool"}]}],"stateMutability":"view"},{"type":"function","name":"getGroupMembers","inputs":[{"name":"_eventId","type":"uint32","internalType":"uint32"}],"outputs":[{"name":"_members","type":"address[]","internalType":"address[]"}],"stateMutability":"view"},{"type":"function","name":"getTicket","inputs":[{"name":"_addr","type":"address","internalType":"address"}],"outputs":[{"name":"_ticket","type":"tuple","internalType":"struct BlumaProtocol.Ticket","components":[{"name":"ticketId","type":"uint32","internalType":"uint32"},{"name":"eventId","type":"uint32","internalType":"uint32"},{"name":"owner","type":"address","internalType":"address"},{"name":"ticketCost","type":"uint256","internalType":"uint256"},{"name":"purchaseTime","type":"uint256","internalType":"uint256"},{"name":"numberOfTicket","type":"uint32","internalType":"uint32"}]}],"stateMutability":"view"},{"type":"function","name":"getUser","inputs":[{"name":"_addr","type":"address","internalType":"address"}],"outputs":[{"name":"_user","type":"tuple","internalType":"struct BlumaProtocol.User","components":[{"name":"email","type":"string","internalType":"string"},{"name":"userAddr","type":"address","internalType":"address"},{"name":"isRegistered","type":"bool","internalType":"bool"},{"name":"avatar","type":"string","internalType":"string"},{"name":"balance","type":"uint256","internalType":"uint256"}]}],"stateMutability":"view"},{"type":"function","name":"initialize","inputs":[{"name":"initialOwner","type":"address","internalType":"address"}],"outputs":[],"stateMutability":"nonpayable"},{"type":"function","name":"isRegistered","inputs":[{"name":"_addr","type":"address","internalType":"address"}],"outputs":[{"name":"","type":"bool","internalType":"bool"}],"stateMutability":"view"},{"type":"function","name":"owner","inputs":[],"outputs":[{"name":"","type":"address","internalType":"address"}],"stateMutability":"view"},{"type":"function","name":"proxiableUUID","inputs":[],"outputs":[{"name":"","type":"bytes32","internalType":"bytes32"}],"stateMutability":"view"},{"type":"function","name":"purchaseTicket","inputs":[{"name":"_eventId","type":"uint32","internalType":"uint32"},{"name":"_numberOfTickets","type":"uint32","internalType":"uint32"}],"outputs":[],"stateMutability":"nonpayable"},{"type":"function","name":"refundFee","inputs":[{"name":"_eventId","type":"uint32","internalType":"uint32"},{"name":"_numberOfTickets","type":"uint32","internalType":"uint32"}],"outputs":[],"stateMutability":"nonpayable"},{"type":"function","name":"renounceOwnership","inputs":[],"outputs":[],"stateMutability":"nonpayable"},{"type":"function","name":"transferOwnership","inputs":[{"name":"newOwner","type":"address","internalType":"address"}],"outputs":[],"stateMutability":"nonpayable"},{"type":"function","name":"updateEventStatus","inputs":[{"name":"_eventId","type":"uint32","internalType":"uint32"}],"outputs":[],"stateMutability":"nonpayable"},{"type":"function","name":"upgradeToAndCall","inputs":[{"name":"newImplementation","type":"address","internalType":"address"},{"name":"data","type":"bytes","internalType":"bytes"}],"outputs":[],"stateMutability":"payable"},{"type":"function","name":"withdrawEventFee","inputs":[{"name":"_eventId","type":"uint32","internalType":"uint32"}],"outputs":[],"stateMutability":"nonpayable"},{"type":"event","name":"EventClosed","inputs":[{"name":"_eventId","type":"uint32","indexed":true,"internalType":"uint32"},{"name":"_currentTime","type":"uint256","indexed":true,"internalType":"uint256"}],"anonymous":false},{"type":"event","name":"EventCreated","inputs":[{"name":"_totalEventsId","type":"uint32","indexed":true,"internalType":"uint32"},{"name":"_seatNumber","type":"uint32","indexed":true,"internalType":"uint32"},{"name":"_capacity","type":"uint32","indexed":true,"internalType":"uint32"}],"anonymous":false},{"type":"event","name":"GroupCreated","inputs":[{"name":"_roomId","type":"uint32","indexed":true,"internalType":"uint32"},{"name":"imageUrl","type":"string","indexed":false,"internalType":"string"},{"name":"_title","type":"bytes32","indexed":false,"internalType":"bytes32"}],"anonymous":false},{"type":"event","name":"GroupJoinedSuccessfully","inputs":[{"name":"_sender","type":"address","indexed":true,"internalType":"address"},{"name":"_eventId","type":"uint32","indexed":true,"internalType":"uint32"}],"anonymous":false},{"type":"event","name":"Initialized","inputs":[{"name":"version","type":"uint64","indexed":false,"internalType":"uint64"}],"anonymous":false},{"type":"event","name":"OwnershipTransferred","inputs":[{"name":"previousOwner","type":"address","indexed":true,"internalType":"address"},{"name":"newOwner","type":"address","indexed":true,"internalType":"address"}],"anonymous":false},{"type":"event","name":"RefundIssued","inputs":[{"name":"buyer","type":"address","indexed":true,"internalType":"address"},{"name":"_ticketId","type":"uint32","indexed":true,"internalType":"uint32"},{"name":"_eventId","type":"uint32","indexed":true,"internalType":"uint32"},{"name":"amount","type":"uint256","indexed":false,"internalType":"uint256"}],"anonymous":false},{"type":"event","name":"RegistrationClose","inputs":[{"name":"_currentTime","type":"uint256","indexed":true,"internalType":"uint256"},{"name":"_status","type":"uint8","indexed":true,"internalType":"uint8"}],"anonymous":false},{"type":"event","name":"TicketPurchased","inputs":[{"name":"buyer","type":"address","indexed":true,"internalType":"address"},{"name":"_eventId","type":"uint32","indexed":true,"internalType":"uint32"},{"name":"numberOfTickets","type":"uint32","indexed":false,"internalType":"uint32"}],"anonymous":false},{"type":"event","name":"Upgraded","inputs":[{"name":"implementation","type":"address","indexed":true,"internalType":"address"}],"anonymous":false},{"type":"error","name":"ALREADY_PAID","inputs":[]},{"type":"error","name":"AddressEmptyCode","inputs":[{"name":"target","type":"address","internalType":"address"}]},{"type":"error","name":"EMPTY_INPUT_FIELD","inputs":[]},{"type":"error","name":"ERC1967InvalidImplementation","inputs":[{"name":"implementation","type":"address","internalType":"address"}]},{"type":"error","name":"ERC1967NonPayable","inputs":[]},{"type":"error","name":"EVENT_NOT_CLOSED","inputs":[]},{"type":"error","name":"FailedInnerCall","inputs":[]},{"type":"error","name":"GROUP_ALREADY_EXISTS","inputs":[]},{"type":"error","name":"INSUFFICIENT_BALANCE","inputs":[]},{"type":"error","name":"INSUFFICIENT_TICKET_PURCHASED","inputs":[]},{"type":"error","name":"INVALID_EVENT_ID","inputs":[]},{"type":"error","name":"INVALID_ID","inputs":[]},{"type":"error","name":"INVALID_TIME_SET","inputs":[]},{"type":"error","name":"InvalidInitialization","inputs":[]},{"type":"error","name":"NOT_CREATOR","inputs":[]},{"type":"error","name":"NOT_ENOUGH_AVAILABLE_SEAT","inputs":[]},{"type":"error","name":"NOT_OWNER","inputs":[]},{"type":"error","name":"NOT_PAID_EVENT","inputs":[]},{"type":"error","name":"NO_ALLOWANCE","inputs":[]},{"type":"error","name":"NotInitializing","inputs":[]},{"type":"error","name":"OwnableInvalidOwner","inputs":[{"name":"owner","type":"address","internalType":"address"}]},{"type":"error","name":"OwnableUnauthorizedAccount","inputs":[{"name":"account","type":"address","internalType":"address"}]},{"type":"error","name":"REGISTRATION_CLOSE","inputs":[]},{"type":"error","name":"REGISTRATION_NOT_OPEN","inputs":[]},{"type":"error","name":"UUPSUnauthorizedCallContext","inputs":[]},{"type":"error","name":"UUPSUnsupportedProxiableUUID","inputs":[{"name":"slot","type":"bytes32","internalType":"bytes32"}]}],"bytecode":{"object":"0x60a0806040523461002a5730608052612d47908161003082396080518181816112fd015261143f0152f35b600080fdfe6080604052600436101561001257600080fd5b60003560e01c806303e96fe3146120815780630a9bfef5146120445780630f9fcf4814611d93578063331ef97614611b675780633405741d146116925780634717dea91461161e5780634f1ef286146113f057806350312c9e1461136757806352d1902d146112ea5780636f77926b146111d2578063715018a6146111685780638da5cb5b14611132578063a87f86f914611111578063ad3cb1cc146110b9578063b33f650e14610f55578063c27a500d14610e7d578063c3c5a54714610e38578063c4d66de814610cdf578063d88c8e9814610c07578063ec976a0a14610b38578063f2fde38b14610b0d5763fe3a31501461010e57600080fd5b34610b0857610140366003190112610b08576024356001600160401b038111610b085761013f903690600401612412565b906044356001600160401b038111610b085761015f903690600401612412565b909263ffffffff6064351660643503610b085761010435926001600160601b0384168403610b08576002610124351015610b08576101a66101a1368588612262565b612998565b6101b46101a1368484612262565b6101bf6084356129dc565b6101ca60a4356129dc565b6101d560c4356129dc565b6101e060e4356129dc565b6101f26001600160601b0385166129dc565b600163ffffffff6064351610610af65761021060e43560c4356129e5565b61021e60a4356084356129e5565b60005463ffffffff610231818316612592565b16809163ffffffff19161760005560005260026020526040600020936084354210600014610ae55760078501805460ff191660021790555b61012435610abd576001600160601b03600a860191166001600160601b03198254161790555b63ffffffff6000541663ffffffff1985541617845560043560018501556001600160401b0382116105d9576102d4826102cb60028701546124fa565b6002870161254b565b600090601f8311600114610a4c576103059291600091836109d2575b50508160011b916000199060031b1c19161790565b60028301555b6001600160401b0381116105d9576103338161032a60038501546124fa565b6003850161254b565b600092601f82116001146109dd57610364929382916000926109d25750508160011b916000199060031b1c19161790565b60038201555b60048101805463ffffffff60a01b1933166001600160c01b03199091161760643560a01b63ffffffff60a01b1617905560048101805463ffffffff60c01b191660643560c01b63ffffffff60c01b16179055608435600582015560a435600682015560c435600882015560e435600982015561020061ff001960078301541617600782015542600c820155600654600160401b8110156105d95760018101806006558110156105c357600660005281600e8202600080516020612cf28339815191520103610601575b5063ffffffff81541661044581612973565b80600052600460205263ffffffff604060002054166105ef578060005260026020526040600020604051610478816121ef565b604081016060815260036060830160608152606060808501528584526104d26001860195865460208701526002810194604051906104c1826104ba818a6125cc565b0383612226565b526104ba60405180958193016125cc565b528360005260046020526104ea8260406000206129ff565b60075492600160401b8410156105d95760018401806007558410156105c3576105616105769360057f45881a834c1c2b1081ee9f2063da43f83e3d9f2ba737ca954a4098d94bce97d5966007600052027fa66cc928b5edb82af9bd49922954155ab7b0942694bea4ce44661d9a8736c688016129ff565b546040519283926040845260408401906125cc565b9060208301520390a263ffffffff6000541663ffffffff6004816064351693015460a01c16907fac3c2fbb08f906d92c1b4be6fa025f63708bafa70869110e931d718b9532c411600080a4005b634e487b7160e01b600052603260045260246000fd5b634e487b7160e01b600052604160045260246000fd5b60405163e955b73b60e01b8152600490fd5b63ffffffff82541663ffffffff19600e8302600080516020612cf283398151915201541617600e8202600080516020612cf2833981519152015560018201547ff652222313e28459528d920b65115c16c04f3efc82aaedc97be59f3f377c0d40600e83020155610699600283017ff652222313e28459528d920b65115c16c04f3efc82aaedc97be59f3f377c0d41600e840201612894565b6106cb600383017ff652222313e28459528d920b65115c16c04f3efc82aaedc97be59f3f377c0d42600e840201612894565b6004820180547ff652222313e28459528d920b65115c16c04f3efc82aaedc97be59f3f377c0d43600e84020180546001600160a01b039092166001600160a01b0319831681178255925463ffffffff60a01b166001600160c01b0319909216909217178155610755906004840154815463ffffffff60c01b191663ffffffff60c01b909116179055565b60058201547ff652222313e28459528d920b65115c16c04f3efc82aaedc97be59f3f377c0d44600e8302015560068201547ff652222313e28459528d920b65115c16c04f3efc82aaedc97be59f3f377c0d45600e8302015560ff6007830154166107be816122f7565b600e82027ff652222313e28459528d920b65115c16c04f3efc82aaedc97be59f3f377c0d4601805460ff198116831790915560078401549290610807600885901c60ff166122f7565b61ff0084168361ffff19831617177ff652222313e28459528d920b65115c16c04f3efc82aaedc97be59f3f377c0d46600e84020155600785015493600260ff8660101c1610156109bc5761ff00600e9462ff00007ff652222313e28459528d920b65115c16c04f3efc82aaedc97be59f3f377c0d4c97169362ffffff191617911617177ff652222313e28459528d920b65115c16c04f3efc82aaedc97be59f3f377c0d46838302015560088401547ff652222313e28459528d920b65115c16c04f3efc82aaedc97be59f3f377c0d47838302015560098401547ff652222313e28459528d920b65115c16c04f3efc82aaedc97be59f3f377c0d4883830201557ff652222313e28459528d920b65115c16c04f3efc82aaedc97be59f3f377c0d49828202016001600160601b03600a860154166001600160601b0319825416179055600b8401547ff652222313e28459528d920b65115c16c04f3efc82aaedc97be59f3f377c0d4a8383020155600c8401547ff652222313e28459528d920b65115c16c04f3efc82aaedc97be59f3f377c0d4b8383020155020160ff600d83015416151560ff8019835416911617905538610433565b634e487b7160e01b600052602160045260246000fd5b0135905038806102f0565b600383016000526020600020906000945b601f1984168610610a3457600194955083601f19811610610a1a575b505050811b01600382015561036a565b0135600019600384901b60f8161c19169055388080610a0a565b916020600181928585013581550193019501946109ee565b600285939293016000526020600020906000935b601f1984168510610aa5576001945083601f19811610610a8b575b505050811b01600283015561030b565b0135600019600384901b60f8161c19169055388080610a7b565b81810135835560209485019460019093019201610a60565b506001610124350361028f57600a840180546bffffffffffffffffffffffff1916905561028f565b60078501805460ff19169055610269565b604051631ee8943b60e21b8152600490fd5b600080fd5b34610b08576020366003190112610b0857610b36610b29612198565b610b316129a3565b612820565b005b34610b0857602080600319360112610b085763ffffffff610b576121ae565b610b6081612973565b1660005260048152600460406000200160405190818382549182815201908192600052846000209060005b86828210610bea578686610ba182880383612226565b604051928392818401908285525180915260408401929160005b828110610bca57505050500390f35b83516001600160a01b031685528695509381019392810192600101610bbb565b83546001600160a01b031685529093019260019283019201610b8b565b34610b08576020366003190112610b085763ffffffff610c256121ae565b6000610220604051610c368161220a565b828152826020820152606060408201526060808201528260808201528260a08201528260c08201528260e08201528261010082015282610120820152826101408201528261016082015282610180820152826101a0820152826101c0820152826101e0820152826102008201520152610cae81612973565b166000526002602052610cdb610cc760406000206126f9565b604051918291602083526020830190612301565b0390f35b34610b08576020366003190112610b0857610cf8612198565b7ff0c57e16840df040f15088dc2f81fe391c3923bec73e23a9662efc9c229c6a0090815460ff8160401c1615916001600160401b03821680159081610e30575b6001149081610e26575b159081610e1d575b50610e0b5767ffffffffffffffff1982166001178455610d7b9183610dec575b50610d73612c2d565b610b31612c2d565b610d83612c2d565b600980546001600160a01b031916734cb6cef87d8cadf966b455e8bd58fff32aba49d1179055610daf57005b68ff00000000000000001981541690557fc7f505b2f371ae2175ee4913f4499e1f2633a7b5936321eed1cdaeb6115181d2602060405160018152a1005b68ffffffffffffffffff19166801000000000000000117845584610d6a565b60405163f92ee8a960e01b8152600490fd5b90501585610d4a565b303b159150610d42565b849150610d38565b34610b08576020366003190112610b08576001600160a01b03610e59612198565b166000526001602052602060ff60016040600020015460a01c166040519015158152f35b34610b08576000366003190112610b0857600654610e9a8161243f565b90610ea86040519283612226565b80825260209081830190816006600052600080516020612cf28339815191526000915b838310610f325750505050604051918083019381845251809452604083019360408160051b85010192916000955b828710610f065785850386f35b909192938280610f22600193603f198a82030186528851612301565b9601920196019592919092610ef9565b600e86600192610f44859a999a6126f9565b815201920192019190959495610ecb565b34610b0857602080600319360112610b0857610f6f6121ae565b610f7881612973565b63ffffffff8116600052600282526040600020903360005260018352610fa2604060002091612662565b600160ff600784015460081c16610fb8816122f7565b036110a75760048201546001600160a01b0390339082160361109557600d83019081549060ff82166110835760038694611041946001600b6000990195898754975560ff19161790550161100d8382546125bf565b905560095460405163a9059cbb60e01b81523360048201526024810193909352919485939190921691839182906044820190565b03925af180156110775761105157005b81610b3692903d10611070575b6110688183612226565b8101906124e2565b503d61105e565b6040513d6000823e3d90fd5b60405163d2e53ca760e01b8152600490fd5b604051632cff942760e01b8152600490fd5b604051631988a70d60e01b8152600490fd5b34610b08576000366003190112610b085760405160408101908082106001600160401b038311176105d957610cdb9160405260058152640352e302e360dc1b60208201526040519182916020835260208301906122b7565b34610b08576020366003190112610b0857610b3661112d6121ae565b612662565b34610b08576000366003190112610b0857600080516020612cd2833981519152546040516001600160a01b039091168152602090f35b34610b08576000366003190112610b08576111816129a3565b600080516020612cd283398151915280546001600160a01b031981169091556000906001600160a01b03167f8be0079c531659141344cd1fd0a4f28419497f9722a3daafe3b4186f6b6457e08280a3005b34610b0857602080600319360112610b085760a0906111ef612198565b9060006080604051611200816121ef565b6060815282848201528260408201526060808201520152600180841b03809216600052600181526112df6040600020926040519361123d856121ef565b6040516112558161124e81856125cc565b0382612226565b8552600181015484860192808216845260ff6040880192891c16151582526112bd6003604051946112948661128d81600285016125cc565b0387612226565b60608a0195865201549660808901978852604051998a99828b5251918a015260c08901906122b7565b9351166040870152511515606086015251848203601f190160808601526122b7565b905160a08301520390f35b34610b08576000366003190112610b08577f00000000000000000000000000000000000000000000000000000000000000006001600160a01b031630036113555760206040517f360894a13ba1a3210667c828492db98dca3e2076cc3735a920a3ca505d382bbc8152f35b60405163703e46dd60e11b8152600490fd5b34610b08576000366003190112610b08576009546040516370a0823160e01b815230600482015290602090829060249082906001600160a01b03165afa8015611077576000906113bd575b602090604051908152f35b506020813d6020116113e8575b816113d760209383612226565b81010312610b0857602090516113b2565b3d91506113ca565b6040366003190112610b0857611404612198565b6024356001600160401b038111610b085736602382011215610b0857611434903690602481600401359101612262565b906001600160a01b037f000000000000000000000000000000000000000000000000000000000000000081163081149081156115f0575b50611355576114786129a3565b6040516352d1902d60e01b8152908216916020918281600481875afa600091816115c1575b506114bb57604051634c9c8ce360e01b815260048101859052602490fd5b9284937f360894a13ba1a3210667c828492db98dca3e2076cc3735a920a3ca505d382bbc908181036115a95750823b156115905780546001600160a01b03191682179055604051907fbc7cd75a20ee27fd9adebab32041f755214dbc6bffa90cc0225b39da2e5c2d3b600080a283511561157657506000808484610b3696519101845af4903d1561156d573d61155081612247565b9061155e6040519283612226565b8152600081943d92013e612c6e565b60609250612c6e565b925050503461158157005b63b398979f60e01b8152600490fd5b604051634c9c8ce360e01b815260048101839052602490fd5b60249060405190632a87526960e21b82526004820152fd5b9091508381813d83116115e9575b6115d98183612226565b81010312610b085751908661149d565b503d6115cf565b9050817f360894a13ba1a3210667c828492db98dca3e2076cc3735a920a3ca505d382bbc541614158461146b565b34610b08576020366003190112610b0857611637612198565b600060a0604051611647816121d4565b828152826020820152826040820152826060820152826080820152015260018060a01b0316600052600360205260c06116836040600020612456565b611690604051809261214f565bf35b34610b08576040366003190112610b08576116ab6121ae565b6116b36121c1565b6116bc82612973565b63ffffffff9182811692836000526020906002825260406000206007810160ff8154166116e8816122f7565b611b555760048201805484806117038a828560a01c166125a7565b9260c01c16911611611b435760005467ffffffff000000006117288683891c16612592565b871b169067ffffffff00000000191617600055336000526003855260406000209260ff6000935460101c1660028110156109bc57156119a9575b50806117778886611797945460a01c166125a7565b815463ffffffff60a01b191660a09190911b63ffffffff60a01b16179055565b60005482544260028501908155640100000000600160e01b031992871c8616929092166001600160e01b031990911617600160401b600160e01b033360401b161760209690961b67ffffffff000000001695909517825563ffffffff1990611804600184019182546125bf565b815560038301928354838661181b8b8285166125a7565b16911617845560085491600160401b8310156105d95760018301806008558310156105c3577fc541e3defd92fd2d8306e9c91b36c15f096115c41c7a9a36ac548a487d8891aa97869360021b91827ff3f7a9fe364faab93b216da50a3214154f22a0a2b415b23a84c8169e8b636ee301938085036118c8575b8c8c8c8c89336000526005825260406000208560005282526040600020600160ff19825416179055604051931683523392a3005b80548554881690871617808655815467ffffffff0000000019909116908b1c871660201b67ffffffff00000000161785557ff3f7a9fe364faab93b216da50a3214154f22a0a2b415b23a84c8169e8b636ee6946119479154815468010000000000000000600160e01b031916600160401b600160e01b03909116179055565b547ff3f7a9fe364faab93b216da50a3214154f22a0a2b415b23a84c8169e8b636ee4830155547ff3f7a9fe364faab93b216da50a3214154f22a0a2b415b23a84c8169e8b636ee582015501925416908254161790558580828180808080611894565b9091506001600160601b036119c681600a84015416868a166124ae565b169160018060a01b0360095416916040516370a0823160e01b81523360048201528781602481875afa8015611077578591600091611b12575b5010611b0057604051636eb1769f60e11b81523360048201523060248201528781604481875afa8015611077578591600091611acf575b5010611abd57866000936064604051809681936323b872dd60e01b83523360048401523060248401528960448401525af19081156110775761179793600b92611aa0575b5001611a878482546125bf565b905560018401611a988482546125bf565b905590611762565b611ab690893d8b11611070576110688183612226565b508b611a7a565b60405163ea75ebd560e01b8152600490fd5b809250898092503d8311611af9575b611ae88183612226565b81010312610b08578490518c611a36565b503d611ade565b604051632858f9ab60e11b8152600490fd5b809250898092503d8311611b3c575b611b2b8183612226565b81010312610b08578490518c6119ff565b503d611b21565b6040516374a227cd60e01b8152600490fd5b6040516305fb6d9960e41b8152600490fd5b34610b08576060366003190112610b08576001600160401b03600435818111610b0857611b98903690600401612299565b906024356001600160a01b0381169190829003610b0857604435818111610b0857611bc7903690600401612299565b91611bd184612998565b611bda83612998565b806000526001936020918583526040600020918051908582116105d957611c0b82611c0586546124fa565b8661254b565b8490601f8311600114611d2b579180611c3f926002969594600092611d205750508160011b916000199060031b1c19161790565b82555b81870180546001600160a81b031916909117600160a01b1790558451910194909283116105d957611c7d83611c7787546124fa565b8761254b565b81601f8411600114611cbc5750508190611cad93600092611cb15750508160011b916000199060031b1c19161790565b9055005b0151905084806102f0565b91909383601f1981168760005284600020946000905b88838310611d065750505010611ced575b505050811b019055005b015160001960f88460031b161c19169055838080611ce3565b858701518855909601959485019487935090810190611cd2565b015190508a806102f0565b9392918891601f1982169085600052876000209160005b89828210611d7d575050968360029810611d64575b505050811b018255611c42565b015160001960f88460031b161c19169055898080611d57565b838a015185558d96909401939283019201611d42565b34610b08576040366003190112610b0857611dac6121ae565b611db46121c1565b90611dbe81612973565b63ffffffff90818116928360005260209260028452611de1604060002093612973565b8460005260028452604060002060068101544211611feb575b503360005260038452604060002091600784015460ff8160101c1660028110156109bc57611fd95760ff16611e2e816122f7565b611fc75782546001600160a01b03919033604082901c841603611fb557838891881c1603611fa3576003840183815416848316809110611f9157600b90611e846001600160601b039182600a8b015416906124ae565b1696611e9d600482016117778689835460a01c166124cc565b01805490878203918211611f7b575583611ebb8254938285166124cc565b16809263ffffffff191617905515611f56575b60095460405163a9059cbb60e01b8152336004820152602481018690529391869185916044918391600091165af1928315611077577f4f6fb365c29f3632d91fcd919dbfdf50155c34cd0ea613bd43e7e76529fec43593611f39575b505416926040519283523392a4005b611f4f90863d8811611070576110688183612226565b5086611f2a565b33600052600585526040600020866000528552604060002060ff198154169055611ece565b634e487b7160e01b600052601160045260246000fd5b60405163a2ed46e160e01b8152600490fd5b60405163b790ffed60e01b8152600490fd5b6040516338ebc58960e11b8152600490fd5b604051630738c50360e41b8152600490fd5b6040516380e4469160e01b8152600490fd5b6007018054600160ff8216611fff816122f7565b0361200b575b50611dfa565b60019060ff19161790556001427f9c8ea6489f3baa31d321639e3a41ad67158fa673511a98870906b5a9eced0dd4600080a38580612005565b34610b08576020366003190112610b08576001600160a01b03612065612198565b1660005260016020526020600360406000200154604051908152f35b34610b08576000366003190112610b085760085461209e8161243f565b6120ab6040519182612226565b81815260209060208101928360086000527ff3f7a9fe364faab93b216da50a3214154f22a0a2b415b23a84c8169e8b636ee36000915b83831061213257604080516020808252875190820181905289928201908960005b82811061210f5784840385f35b9091928260c0826121236001948a5161214f565b01960191019492919094612102565b60048660019261214185612456565b8152019201920191906120e1565b60a0908163ffffffff91828151168552826020820151166020860152600180831b0360408201511660408601526060810151606086015260808101516080860152015116910152565b600435906001600160a01b0382168203610b0857565b6004359063ffffffff82168203610b0857565b6024359063ffffffff82168203610b0857565b60c081019081106001600160401b038211176105d957604052565b60a081019081106001600160401b038211176105d957604052565b61024081019081106001600160401b038211176105d957604052565b90601f801991011681019081106001600160401b038211176105d957604052565b6001600160401b0381116105d957601f01601f191660200190565b92919261226e82612247565b9161227c6040519384612226565b829481845281830111610b08578281602093846000960137010152565b9080601f83011215610b08578160206122b493359101612262565b90565b919082519283825260005b8481106122e3575050826000602080949584010152601f8019910116010190565b6020818301810151848301820152016122c2565b600311156109bc57565b906102409161234861233663ffffffff94858451168552602084015160208601526040840151908060408701528501906122b7565b606083015184820360608601526122b7565b9260018060a01b0360808301511660808401528060a08301511660a084015260c08201511660c083015260e081015160e083015261010080820151908301526101208082015190612398826122f7565b83015261014080820151906123ac826122f7565b830152610160808201519060028210156109bc5783015261018080820151908301526101a080820151908301526101c06001600160601b038183015116908301526101e08082015190830152610200808201519083015261022080910151151591015290565b9181601f84011215610b08578235916001600160401b038311610b085760208381860195010111610b0857565b6001600160401b0381116105d95760051b60200190565b90604051612463816121d4565b60a08193600381549163ffffffff928381168652838160201c166020870152600180861b039060401c1660408601526001810154606086015260028101546080860152015416910152565b9190916001600160601b0380809416911602918216918203611f7b57565b63ffffffff9182169082160391908211611f7b57565b90816020910312610b0857518015158103610b085790565b90600182811c9216801561252a575b602083101461251457565b634e487b7160e01b600052602260045260246000fd5b91607f1691612509565b81811061253f575050565b60008155600101612534565b9190601f811161255a57505050565b612586926000526020600020906020601f840160051c83019310612588575b601f0160051c0190612534565b565b9091508190612579565b90600163ffffffff80931601918211611f7b57565b91909163ffffffff80809416911601918211611f7b57565b91908201809211611f7b57565b8054600093926125db826124fa565b918282526020936001916001811690816000146126435750600114612602575b5050505050565b90939495506000929192528360002092846000945b83861061262f575050505001019038808080806125fb565b805485870183015294019385908201612617565b60ff19168685015250505090151560051b0101915038808080806125fb565b63ffffffff9061267181612973565b1680600052600260205260406000206008810154421015806126eb575b156126a257600701805461ff001916905550565b600981015442116126b2575b5050565b600701805461ff00191661010017905542907f835839f42ff642197e82f2887491db41a51c32dc7004091799724e9e3d6f2489600080a3565b50600981015442111561268e565b906040516127068161220a565b809263ffffffff808254168352600182015460208401526040516127318161124e81600287016125cc565b604084015260405161274a8161124e81600387016125cc565b6060840152600482015460018060a01b0381166080850152818160a01c1660a085015260c01c1660c0830152600581015460e0830152600681015461010083015260ff600782015481811661279e816122f7565b610120850152818160081c166127b3816122f7565b61014085015260101c169060028210156109bc57600d60ff9161022093610160860152600881015461018086015260098101546101a08601526001600160601b03600a820154166101c0860152600b8101546101e0860152600c8101546102008601520154161515910152565b6001600160a01b0390811690811561287b57600080516020612cd283398151915280546001600160a01b031981168417909155167f8be0079c531659141344cd1fd0a4f28419497f9722a3daafe3b4186f6b6457e0600080a3565b604051631e4fbdf760e01b815260006004820152602490fd5b908082146126ae576128a681546124fa565b906001600160401b0382116105d9576128c9826128c385546124fa565b8561254b565b600090601f8311600114612908576128f99291600091836128fd5750508160011b916000199060031b1c19161790565b9055565b0154905038806102f0565b815260208082208483528183209291601f1985169083905b82821061295a575050908460019594939210612941575b505050811b019055565b015460001960f88460031b161c19169055388080612937565b8495819295850154815560018091019601940190612920565b63ffffffff806000541691161161298657565b6040516316a7994d60e21b8152600490fd5b6001905110610af657565b600080516020612cd2833981519152546001600160a01b031633036129c457565b60405163118cdaa760e01b8152336004820152602490fd5b600111610af657565b10156129ed57565b60405163489eca6760e01b8152600490fd5b63ffffffff82511663ffffffff1982541617815560019160208082015184840155600283019260408301519384516001600160401b03958682116105d957612a4b826128c385546124fa565b8490601f8311600114612bcb57612a7a929160009183612b525750508160011b916000199060031b1c19161790565b90555b6003810160608401518051908682116105d957612a9e826128c385546124fa565b8490601f8311600114612b5d57826080959360049593612ad493600092612b525750508160011b916000199060031b1c19161790565b90555b0192015180519384116105d957600160401b84116105d95781908354858555808610612b35575b500191600052806000209060005b848110612b1b57505050505050565b83516001600160a01b031683820155928101928501612b0c565b612b4c908560005286846000209182019101612534565b38612afe565b0151905038806102f0565b889291601f1983169185600052876000209260005b89828210612bb55750509160809795939185600498969410612b9c575b505050811b019055612ad7565b015160001960f88460031b161c19169055388080612b8f565b8385015186558d97909501949384019301612b72565b889291601f1983169185600052876000209260005b89828210612c175750508411612bfe575b505050811b019055612a7d565b015160001960f88460031b161c19169055388080612bf1565b8385015186558d97909501949384019301612be0565b60ff7ff0c57e16840df040f15088dc2f81fe391c3923bec73e23a9662efc9c229c6a005460401c1615612c5c57565b604051631afcd79f60e31b8152600490fd5b90612c955750805115612c8357805190602001fd5b604051630a12f52160e11b8152600490fd5b81511580612cc8575b612ca6575090565b604051639996b31560e01b81526001600160a01b039091166004820152602490fd5b50803b15612c9e56fe9016d09d72d40fdae2fd8ceac6b6234c7706214fd39c1cd1e609a0528c199300f652222313e28459528d920b65115c16c04f3efc82aaedc97be59f3f377c0d3fa2646970667358221220b0256c68400e525a63f3d66358e4d7707b93f39ac7146231b8f2b59e0a30c80564736f6c63430008180033","linkReferences":{}},"methodIdentifiers":{"UPGRADE_INTERFACE_VERSION()":"ad3cb1cc","checkContractBalance()":"50312c9e","checkUserBalance(address)":"0a9bfef5","createAccount(string,address,string)":"331ef976","createEvent(bytes32,string,string,uint32,uint256,uint256,uint256,uint256,uint96,uint8)":"fe3a3150","getAllEvents()":"c27a500d","getAllTickets()":"03e96fe3","getEvent(uint32)":"d88c8e98","getGroupMembers(uint32)":"ec976a0a","getTicket(address)":"4717dea9","getUser(address)":"6f77926b","initialize(address)":"c4d66de8","isRegistered(address)":"c3c5a547","owner()":"8da5cb5b","proxiableUUID()":"52d1902d","purchaseTicket(uint32,uint32)":"3405741d","refundFee(uint32,uint32)":"0f9fcf48","renounceOwnership()":"715018a6","transferOwnership(address)":"f2fde38b","updateEventStatus(uint32)":"a87f86f9","upgradeToAndCall(address,bytes)":"4f1ef286","withdrawEventFee(uint32)":"b33f650e"},"id":31}