{
  "abi": [
    {
      "type": "function",
      "name": "UPGRADE_INTERFACE_VERSION",
      "inputs": [],
      "outputs": [
        {
          "name": "",
          "type": "string",
          "internalType": "string"
        }
      ],
      "stateMutability": "view"
    },
    {
      "type": "function",
      "name": "checkContractBalance",
      "inputs": [],
      "outputs": [
        {
          "name": "bal_",
          "type": "uint256",
          "internalType": "uint256"
        }
      ],
      "stateMutability": "view"
    },
    {
      "type": "function",
      "name": "checkUserBalance",
      "inputs": [
        {
          "name": "_addr",
          "type": "address",
          "internalType": "address"
        }
      ],
      "outputs": [
        {
          "name": "bal_",
          "type": "uint256",
          "internalType": "uint256"
        }
      ],
      "stateMutability": "view"
    },
    {
      "type": "function",
      "name": "createAccount",
      "inputs": [
        {
          "name": "_email",
          "type": "string",
          "internalType": "string"
        },
        {
          "name": "_addr",
          "type": "address",
          "internalType": "address"
        },
        {
          "name": "_avatar",
          "type": "string",
          "internalType": "string"
        }
      ],
      "outputs": [],
      "stateMutability": "nonpayable"
    },
    {
      "type": "function",
      "name": "createEvent",
      "inputs": [
        {
          "name": "_title",
          "type": "string",
          "internalType": "string"
        },
        {
          "name": "_imageUrl",
          "type": "string",
          "internalType": "string"
        },
        {
          "name": "_description",
          "type": "string",
          "internalType": "string"
        },
        {
          "name": "_location",
          "type": "string",
          "internalType": "string"
        },
        {
          "name": "_capacity",
          "type": "uint32",
          "internalType": "uint32"
        },
        {
          "name": "_regStartTime",
          "type": "uint256",
          "internalType": "uint256"
        },
        {
          "name": "_regEndTime",
          "type": "uint256",
          "internalType": "uint256"
        },
        {
          "name": "_eventStartTime",
          "type": "uint256",
          "internalType": "uint256"
        },
        {
          "name": "_eventEndTime",
          "type": "uint256",
          "internalType": "uint256"
        },
        {
          "name": "_ticketPrice",
          "type": "uint96",
          "internalType": "uint96"
        },
        {
          "name": "_isEventPaid",
          "type": "bool",
          "internalType": "bool"
        },
        {
          "name": "_nftUrl",
          "type": "string",
          "internalType": "string"
        }
      ],
      "outputs": [],
      "stateMutability": "nonpayable"
    },
    {
      "type": "function",
      "name": "createGroup",
      "inputs": [
        {
          "name": "_eventId",
          "type": "uint32",
          "internalType": "uint32"
        }
      ],
      "outputs": [],
      "stateMutability": "nonpayable"
    },
    {
      "type": "function",
      "name": "getAllEventGroups",
      "inputs": [],
      "outputs": [
        {
          "name": "",
          "type": "tuple[]",
          "internalType": "struct BlumaProtocol.EventGroup[]",
          "components": [
            {
              "name": "eventId",
              "type": "uint32",
              "internalType": "uint32"
            },
            {
              "name": "title",
              "type": "string",
              "internalType": "string"
            },
            {
              "name": "imageUrl",
              "type": "string",
              "internalType": "string"
            },
            {
              "name": "description",
              "type": "string",
              "internalType": "string"
            },
            {
              "name": "members",
              "type": "tuple[]",
              "internalType": "struct BlumaProtocol.Member[]",
              "components": [
                {
                  "name": "user",
                  "type": "address",
                  "internalType": "address"
                },
                {
                  "name": "joinTime",
                  "type": "uint256",
                  "internalType": "uint256"
                }
              ]
            },
            {
              "name": "messages",
              "type": "tuple[]",
              "internalType": "struct BlumaProtocol.Message[]",
              "components": [
                {
                  "name": "sender",
                  "type": "address",
                  "internalType": "address"
                },
                {
                  "name": "email",
                  "type": "string",
                  "internalType": "string"
                },
                {
                  "name": "text",
                  "type": "string",
                  "internalType": "string"
                },
                {
                  "name": "timestamp",
                  "type": "uint256",
                  "internalType": "uint256"
                }
              ]
            }
          ]
        }
      ],
      "stateMutability": "view"
    },
    {
      "type": "function",
      "name": "getAllEvents",
      "inputs": [],
      "outputs": [
        {
          "name": "",
          "type": "tuple[]",
          "internalType": "struct BlumaProtocol.Event[]",
          "components": [
            {
              "name": "eventId",
              "type": "uint32",
              "internalType": "uint32"
            },
            {
              "name": "title",
              "type": "string",
              "internalType": "string"
            },
            {
              "name": "imageUrl",
              "type": "string",
              "internalType": "string"
            },
            {
              "name": "location",
              "type": "string",
              "internalType": "string"
            },
            {
              "name": "description",
              "type": "string",
              "internalType": "string"
            },
            {
              "name": "creator",
              "type": "address",
              "internalType": "address"
            },
            {
              "name": "seats",
              "type": "uint32",
              "internalType": "uint32"
            },
            {
              "name": "capacity",
              "type": "uint32",
              "internalType": "uint32"
            },
            {
              "name": "regStartTime",
              "type": "uint256",
              "internalType": "uint256"
            },
            {
              "name": "regEndTime",
              "type": "uint256",
              "internalType": "uint256"
            },
            {
              "name": "regStatus",
              "type": "uint8",
              "internalType": "enum BlumaProtocol.RegStatus"
            },
            {
              "name": "eventStatus",
              "type": "uint8",
              "internalType": "enum BlumaProtocol.EventStatus"
            },
            {
              "name": "eventType",
              "type": "uint8",
              "internalType": "enum BlumaProtocol.EventType"
            },
            {
              "name": "groups",
              "type": "tuple",
              "internalType": "struct BlumaProtocol.EventGroup",
              "components": [
                {
                  "name": "eventId",
                  "type": "uint32",
                  "internalType": "uint32"
                },
                {
                  "name": "title",
                  "type": "string",
                  "internalType": "string"
                },
                {
                  "name": "imageUrl",
                  "type": "string",
                  "internalType": "string"
                },
                {
                  "name": "description",
                  "type": "string",
                  "internalType": "string"
                },
                {
                  "name": "members",
                  "type": "tuple[]",
                  "internalType": "struct BlumaProtocol.Member[]",
                  "components": [
                    {
                      "name": "user",
                      "type": "address",
                      "internalType": "address"
                    },
                    {
                      "name": "joinTime",
                      "type": "uint256",
                      "internalType": "uint256"
                    }
                  ]
                },
                {
                  "name": "messages",
                  "type": "tuple[]",
                  "internalType": "struct BlumaProtocol.Message[]",
                  "components": [
                    {
                      "name": "sender",
                      "type": "address",
                      "internalType": "address"
                    },
                    {
                      "name": "email",
                      "type": "string",
                      "internalType": "string"
                    },
                    {
                      "name": "text",
                      "type": "string",
                      "internalType": "string"
                    },
                    {
                      "name": "timestamp",
                      "type": "uint256",
                      "internalType": "uint256"
                    }
                  ]
                }
              ]
            },
            {
              "name": "nftUrl",
              "type": "string",
              "internalType": "string"
            },
            {
              "name": "eventStartTime",
              "type": "uint256",
              "internalType": "uint256"
            },
            {
              "name": "eventEndTime",
              "type": "uint256",
              "internalType": "uint256"
            },
            {
              "name": "ticketPrice",
              "type": "uint96",
              "internalType": "uint96"
            },
            {
              "name": "totalSales",
              "type": "uint256",
              "internalType": "uint256"
            },
            {
              "name": "createdAt",
              "type": "uint256",
              "internalType": "uint256"
            },
            {
              "name": "isCreatorPaid",
              "type": "bool",
              "internalType": "bool"
            },
            {
              "name": "creatorHasJoin",
              "type": "bool",
              "internalType": "bool"
            },
            {
              "name": "hasMinted",
              "type": "bool",
              "internalType": "bool"
            }
          ]
        }
      ],
      "stateMutability": "view"
    },
    {
      "type": "function",
      "name": "getAllGroupMessages",
      "inputs": [
        {
          "name": "_eventId",
          "type": "uint32",
          "internalType": "uint32"
        }
      ],
      "outputs": [
        {
          "name": "",
          "type": "tuple[]",
          "internalType": "struct BlumaProtocol.Message[]",
          "components": [
            {
              "name": "sender",
              "type": "address",
              "internalType": "address"
            },
            {
              "name": "email",
              "type": "string",
              "internalType": "string"
            },
            {
              "name": "text",
              "type": "string",
              "internalType": "string"
            },
            {
              "name": "timestamp",
              "type": "uint256",
              "internalType": "uint256"
            }
          ]
        }
      ],
      "stateMutability": "view"
    },
    {
      "type": "function",
      "name": "getAllTickets",
      "inputs": [],
      "outputs": [
        {
          "name": "_tickets",
          "type": "tuple[]",
          "internalType": "struct BlumaProtocol.Ticket[]",
          "components": [
            {
              "name": "ticketId",
              "type": "uint32",
              "internalType": "uint32"
            },
            {
              "name": "eventId",
              "type": "uint32",
              "internalType": "uint32"
            },
            {
              "name": "owner",
              "type": "address",
              "internalType": "address"
            },
            {
              "name": "ticketCost",
              "type": "uint256",
              "internalType": "uint256"
            },
            {
              "name": "purchaseTime",
              "type": "uint256",
              "internalType": "uint256"
            },
            {
              "name": "numberOfTicket",
              "type": "uint32",
              "internalType": "uint32"
            }
          ]
        }
      ],
      "stateMutability": "view"
    },
    {
      "type": "function",
      "name": "getAllUser",
      "inputs": [],
      "outputs": [
        {
          "name": "",
          "type": "tuple[]",
          "internalType": "struct BlumaProtocol.User[]",
          "components": [
            {
              "name": "email",
              "type": "string",
              "internalType": "string"
            },
            {
              "name": "userAddr",
              "type": "address",
              "internalType": "address"
            },
            {
              "name": "isRegistered",
              "type": "bool",
              "internalType": "bool"
            },
            {
              "name": "avatar",
              "type": "string",
              "internalType": "string"
            },
            {
              "name": "balance",
              "type": "uint256",
              "internalType": "uint256"
            }
          ]
        }
      ],
      "stateMutability": "view"
    },
    {
      "type": "function",
      "name": "getEventById",
      "inputs": [
        {
          "name": "_eventId",
          "type": "uint32",
          "internalType": "uint32"
        }
      ],
      "outputs": [
        {
          "name": "events_",
          "type": "tuple",
          "internalType": "struct BlumaProtocol.Event",
          "components": [
            {
              "name": "eventId",
              "type": "uint32",
              "internalType": "uint32"
            },
            {
              "name": "title",
              "type": "string",
              "internalType": "string"
            },
            {
              "name": "imageUrl",
              "type": "string",
              "internalType": "string"
            },
            {
              "name": "location",
              "type": "string",
              "internalType": "string"
            },
            {
              "name": "description",
              "type": "string",
              "internalType": "string"
            },
            {
              "name": "creator",
              "type": "address",
              "internalType": "address"
            },
            {
              "name": "seats",
              "type": "uint32",
              "internalType": "uint32"
            },
            {
              "name": "capacity",
              "type": "uint32",
              "internalType": "uint32"
            },
            {
              "name": "regStartTime",
              "type": "uint256",
              "internalType": "uint256"
            },
            {
              "name": "regEndTime",
              "type": "uint256",
              "internalType": "uint256"
            },
            {
              "name": "regStatus",
              "type": "uint8",
              "internalType": "enum BlumaProtocol.RegStatus"
            },
            {
              "name": "eventStatus",
              "type": "uint8",
              "internalType": "enum BlumaProtocol.EventStatus"
            },
            {
              "name": "eventType",
              "type": "uint8",
              "internalType": "enum BlumaProtocol.EventType"
            },
            {
              "name": "groups",
              "type": "tuple",
              "internalType": "struct BlumaProtocol.EventGroup",
              "components": [
                {
                  "name": "eventId",
                  "type": "uint32",
                  "internalType": "uint32"
                },
                {
                  "name": "title",
                  "type": "string",
                  "internalType": "string"
                },
                {
                  "name": "imageUrl",
                  "type": "string",
                  "internalType": "string"
                },
                {
                  "name": "description",
                  "type": "string",
                  "internalType": "string"
                },
                {
                  "name": "members",
                  "type": "tuple[]",
                  "internalType": "struct BlumaProtocol.Member[]",
                  "components": [
                    {
                      "name": "user",
                      "type": "address",
                      "internalType": "address"
                    },
                    {
                      "name": "joinTime",
                      "type": "uint256",
                      "internalType": "uint256"
                    }
                  ]
                },
                {
                  "name": "messages",
                  "type": "tuple[]",
                  "internalType": "struct BlumaProtocol.Message[]",
                  "components": [
                    {
                      "name": "sender",
                      "type": "address",
                      "internalType": "address"
                    },
                    {
                      "name": "email",
                      "type": "string",
                      "internalType": "string"
                    },
                    {
                      "name": "text",
                      "type": "string",
                      "internalType": "string"
                    },
                    {
                      "name": "timestamp",
                      "type": "uint256",
                      "internalType": "uint256"
                    }
                  ]
                }
              ]
            },
            {
              "name": "nftUrl",
              "type": "string",
              "internalType": "string"
            },
            {
              "name": "eventStartTime",
              "type": "uint256",
              "internalType": "uint256"
            },
            {
              "name": "eventEndTime",
              "type": "uint256",
              "internalType": "uint256"
            },
            {
              "name": "ticketPrice",
              "type": "uint96",
              "internalType": "uint96"
            },
            {
              "name": "totalSales",
              "type": "uint256",
              "internalType": "uint256"
            },
            {
              "name": "createdAt",
              "type": "uint256",
              "internalType": "uint256"
            },
            {
              "name": "isCreatorPaid",
              "type": "bool",
              "internalType": "bool"
            },
            {
              "name": "creatorHasJoin",
              "type": "bool",
              "internalType": "bool"
            },
            {
              "name": "hasMinted",
              "type": "bool",
              "internalType": "bool"
            }
          ]
        }
      ],
      "stateMutability": "view"
    },
    {
      "type": "function",
      "name": "getEventGroup",
      "inputs": [
        {
          "name": "_eventId",
          "type": "uint32",
          "internalType": "uint32"
        }
      ],
      "outputs": [
        {
          "name": "",
          "type": "tuple",
          "internalType": "struct BlumaProtocol.EventGroup",
          "components": [
            {
              "name": "eventId",
              "type": "uint32",
              "internalType": "uint32"
            },
            {
              "name": "title",
              "type": "string",
              "internalType": "string"
            },
            {
              "name": "imageUrl",
              "type": "string",
              "internalType": "string"
            },
            {
              "name": "description",
              "type": "string",
              "internalType": "string"
            },
            {
              "name": "members",
              "type": "tuple[]",
              "internalType": "struct BlumaProtocol.Member[]",
              "components": [
                {
                  "name": "user",
                  "type": "address",
                  "internalType": "address"
                },
                {
                  "name": "joinTime",
                  "type": "uint256",
                  "internalType": "uint256"
                }
              ]
            },
            {
              "name": "messages",
              "type": "tuple[]",
              "internalType": "struct BlumaProtocol.Message[]",
              "components": [
                {
                  "name": "sender",
                  "type": "address",
                  "internalType": "address"
                },
                {
                  "name": "email",
                  "type": "string",
                  "internalType": "string"
                },
                {
                  "name": "text",
                  "type": "string",
                  "internalType": "string"
                },
                {
                  "name": "timestamp",
                  "type": "uint256",
                  "internalType": "uint256"
                }
              ]
            }
          ]
        }
      ],
      "stateMutability": "view"
    },
    {
      "type": "function",
      "name": "getEventNFTs",
      "inputs": [
        {
          "name": "_eventId",
          "type": "uint32",
          "internalType": "uint32"
        }
      ],
      "outputs": [
        {
          "name": "",
          "type": "uint256[]",
          "internalType": "uint256[]"
        }
      ],
      "stateMutability": "view"
    },
    {
      "type": "function",
      "name": "getGroupMember",
      "inputs": [
        {
          "name": "_groupId",
          "type": "uint32",
          "internalType": "uint32"
        },
        {
          "name": "_index",
          "type": "uint256",
          "internalType": "uint256"
        }
      ],
      "outputs": [
        {
          "name": "",
          "type": "tuple",
          "internalType": "struct BlumaProtocol.Member",
          "components": [
            {
              "name": "user",
              "type": "address",
              "internalType": "address"
            },
            {
              "name": "joinTime",
              "type": "uint256",
              "internalType": "uint256"
            }
          ]
        }
      ],
      "stateMutability": "view"
    },
    {
      "type": "function",
      "name": "getGroupMembers",
      "inputs": [
        {
          "name": "_eventId",
          "type": "uint32",
          "internalType": "uint32"
        }
      ],
      "outputs": [
        {
          "name": "",
          "type": "tuple[]",
          "internalType": "struct BlumaProtocol.Member[]",
          "components": [
            {
              "name": "user",
              "type": "address",
              "internalType": "address"
            },
            {
              "name": "joinTime",
              "type": "uint256",
              "internalType": "uint256"
            }
          ]
        }
      ],
      "stateMutability": "view"
    },
    {
      "type": "function",
      "name": "getTicket",
      "inputs": [
        {
          "name": "_addr",
          "type": "address",
          "internalType": "address"
        }
      ],
      "outputs": [
        {
          "name": "_ticket",
          "type": "tuple",
          "internalType": "struct BlumaProtocol.Ticket",
          "components": [
            {
              "name": "ticketId",
              "type": "uint32",
              "internalType": "uint32"
            },
            {
              "name": "eventId",
              "type": "uint32",
              "internalType": "uint32"
            },
            {
              "name": "owner",
              "type": "address",
              "internalType": "address"
            },
            {
              "name": "ticketCost",
              "type": "uint256",
              "internalType": "uint256"
            },
            {
              "name": "purchaseTime",
              "type": "uint256",
              "internalType": "uint256"
            },
            {
              "name": "numberOfTicket",
              "type": "uint32",
              "internalType": "uint32"
            }
          ]
        }
      ],
      "stateMutability": "view"
    },
    {
      "type": "function",
      "name": "getUser",
      "inputs": [
        {
          "name": "_addr",
          "type": "address",
          "internalType": "address"
        }
      ],
      "outputs": [
        {
          "name": "_user",
          "type": "tuple",
          "internalType": "struct BlumaProtocol.User",
          "components": [
            {
              "name": "email",
              "type": "string",
              "internalType": "string"
            },
            {
              "name": "userAddr",
              "type": "address",
              "internalType": "address"
            },
            {
              "name": "isRegistered",
              "type": "bool",
              "internalType": "bool"
            },
            {
              "name": "avatar",
              "type": "string",
              "internalType": "string"
            },
            {
              "name": "balance",
              "type": "uint256",
              "internalType": "uint256"
            }
          ]
        }
      ],
      "stateMutability": "view"
    },
    {
      "type": "function",
      "name": "getUserNFTs_",
      "inputs": [
        {
          "name": "_user",
          "type": "address",
          "internalType": "address"
        }
      ],
      "outputs": [
        {
          "name": "",
          "type": "uint256[]",
          "internalType": "uint256[]"
        }
      ],
      "stateMutability": "view"
    },
    {
      "type": "function",
      "name": "groupChat",
      "inputs": [
        {
          "name": "_eventId",
          "type": "uint32",
          "internalType": "uint32"
        },
        {
          "name": "_text",
          "type": "string",
          "internalType": "string"
        }
      ],
      "outputs": [],
      "stateMutability": "nonpayable"
    },
    {
      "type": "function",
      "name": "hasPurchasedTicket",
      "inputs": [
        {
          "name": "_user",
          "type": "address",
          "internalType": "address"
        },
        {
          "name": "_eventId",
          "type": "uint32",
          "internalType": "uint32"
        }
      ],
      "outputs": [
        {
          "name": "",
          "type": "bool",
          "internalType": "bool"
        }
      ],
      "stateMutability": "view"
    },
    {
      "type": "function",
      "name": "initialize",
      "inputs": [
        {
          "name": "initialOwner",
          "type": "address",
          "internalType": "address"
        },
        {
          "name": "_blumaToken",
          "type": "address",
          "internalType": "address"
        },
        {
          "name": "_blumaNFT",
          "type": "address",
          "internalType": "address"
        }
      ],
      "outputs": [],
      "stateMutability": "nonpayable"
    },
    {
      "type": "function",
      "name": "isRegistered",
      "inputs": [
        {
          "name": "_addr",
          "type": "address",
          "internalType": "address"
        }
      ],
      "outputs": [
        {
          "name": "",
          "type": "bool",
          "internalType": "bool"
        }
      ],
      "stateMutability": "view"
    },
    {
      "type": "function",
      "name": "joinGroup",
      "inputs": [
        {
          "name": "_eventId",
          "type": "uint32",
          "internalType": "uint32"
        }
      ],
      "outputs": [],
      "stateMutability": "nonpayable"
    },
    {
      "type": "function",
      "name": "mintNFTsForAttendees",
      "inputs": [
        {
          "name": "_eventId",
          "type": "uint32",
          "internalType": "uint32"
        }
      ],
      "outputs": [],
      "stateMutability": "nonpayable"
    },
    {
      "type": "function",
      "name": "owner",
      "inputs": [],
      "outputs": [
        {
          "name": "",
          "type": "address",
          "internalType": "address"
        }
      ],
      "stateMutability": "view"
    },
    {
      "type": "function",
      "name": "proxiableUUID",
      "inputs": [],
      "outputs": [
        {
          "name": "",
          "type": "bytes32",
          "internalType": "bytes32"
        }
      ],
      "stateMutability": "view"
    },
    {
      "type": "function",
      "name": "purchaseTicket",
      "inputs": [
        {
          "name": "_eventId",
          "type": "uint32",
          "internalType": "uint32"
        },
        {
          "name": "_numberOfTickets",
          "type": "uint32",
          "internalType": "uint32"
        }
      ],
      "outputs": [],
      "stateMutability": "nonpayable"
    },
    {
      "type": "function",
      "name": "refundFee",
      "inputs": [
        {
          "name": "_eventId",
          "type": "uint32",
          "internalType": "uint32"
        },
        {
          "name": "_numberOfTickets",
          "type": "uint32",
          "internalType": "uint32"
        }
      ],
      "outputs": [],
      "stateMutability": "nonpayable"
    },
    {
      "type": "function",
      "name": "renounceOwnership",
      "inputs": [],
      "outputs": [],
      "stateMutability": "nonpayable"
    },
    {
      "type": "function",
      "name": "transferOwnership",
      "inputs": [
        {
          "name": "newOwner",
          "type": "address",
          "internalType": "address"
        }
      ],
      "outputs": [],
      "stateMutability": "nonpayable"
    },
    {
      "type": "function",
      "name": "updateEventStatus",
      "inputs": [
        {
          "name": "_eventId",
          "type": "uint32",
          "internalType": "uint32"
        }
      ],
      "outputs": [],
      "stateMutability": "nonpayable"
    },
    {
      "type": "function",
      "name": "upgradeToAndCall",
      "inputs": [
        {
          "name": "newImplementation",
          "type": "address",
          "internalType": "address"
        },
        {
          "name": "data",
          "type": "bytes",
          "internalType": "bytes"
        }
      ],
      "outputs": [],
      "stateMutability": "payable"
    },
    {
      "type": "function",
      "name": "withdrawEventFee",
      "inputs": [
        {
          "name": "_eventId",
          "type": "uint32",
          "internalType": "uint32"
        }
      ],
      "outputs": [],
      "stateMutability": "nonpayable"
    },
    {
      "type": "event",
      "name": "AttendeesNFTMinted",
      "inputs": [
        {
          "name": "owner",
          "type": "address",
          "indexed": true,
          "internalType": "address"
        },
        {
          "name": "eventId",
          "type": "uint32",
          "indexed": true,
          "internalType": "uint32"
        },
        {
          "name": "numberOfTickets",
          "type": "uint32",
          "indexed": false,
          "internalType": "uint32"
        },
        {
          "name": "tokenId",
          "type": "uint256",
          "indexed": true,
          "internalType": "uint256"
        }
      ],
      "anonymous": false
    },
    {
      "type": "event",
      "name": "EventClosed",
      "inputs": [
        {
          "name": "_eventId",
          "type": "uint32",
          "indexed": true,
          "internalType": "uint32"
        },
        {
          "name": "_currentTime",
          "type": "uint256",
          "indexed": true,
          "internalType": "uint256"
        }
      ],
      "anonymous": false
    },
    {
      "type": "event",
      "name": "EventCreated",
      "inputs": [
        {
          "name": "_totalEventsId",
          "type": "uint32",
          "indexed": true,
          "internalType": "uint32"
        },
        {
          "name": "_seatNumber",
          "type": "uint32",
          "indexed": true,
          "internalType": "uint32"
        },
        {
          "name": "_capacity",
          "type": "uint32",
          "indexed": true,
          "internalType": "uint32"
        }
      ],
      "anonymous": false
    },
    {
      "type": "event",
      "name": "GroupCreated",
      "inputs": [
        {
          "name": "_roomId",
          "type": "uint32",
          "indexed": true,
          "internalType": "uint32"
        },
        {
          "name": "imageUrl",
          "type": "string",
          "indexed": false,
          "internalType": "string"
        },
        {
          "name": "_title",
          "type": "bytes32",
          "indexed": false,
          "internalType": "bytes32"
        }
      ],
      "anonymous": false
    },
    {
      "type": "event",
      "name": "GroupJoinedSuccessfully",
      "inputs": [
        {
          "name": "_sender",
          "type": "address",
          "indexed": true,
          "internalType": "address"
        },
        {
          "name": "_eventId",
          "type": "uint32",
          "indexed": true,
          "internalType": "uint32"
        },
        {
          "name": "_joinedTimw",
          "type": "uint256",
          "indexed": true,
          "internalType": "uint256"
        }
      ],
      "anonymous": false
    },
    {
      "type": "event",
      "name": "Initialized",
      "inputs": [
        {
          "name": "version",
          "type": "uint64",
          "indexed": false,
          "internalType": "uint64"
        }
      ],
      "anonymous": false
    },
    {
      "type": "event",
      "name": "MessageSent",
      "inputs": [
        {
          "name": "sender",
          "type": "address",
          "indexed": true,
          "internalType": "address"
        },
        {
          "name": "groupId",
          "type": "uint32",
          "indexed": true,
          "internalType": "uint32"
        },
        {
          "name": "text",
          "type": "string",
          "indexed": false,
          "internalType": "string"
        },
        {
          "name": "timestamp",
          "type": "uint256",
          "indexed": false,
          "internalType": "uint256"
        }
      ],
      "anonymous": false
    },
    {
      "type": "event",
      "name": "OwnershipTransferred",
      "inputs": [
        {
          "name": "previousOwner",
          "type": "address",
          "indexed": true,
          "internalType": "address"
        },
        {
          "name": "newOwner",
          "type": "address",
          "indexed": true,
          "internalType": "address"
        }
      ],
      "anonymous": false
    },
    {
      "type": "event",
      "name": "RefundIssued",
      "inputs": [
        {
          "name": "buyer",
          "type": "address",
          "indexed": true,
          "internalType": "address"
        },
        {
          "name": "_ticketId",
          "type": "uint32",
          "indexed": true,
          "internalType": "uint32"
        },
        {
          "name": "_eventId",
          "type": "uint32",
          "indexed": true,
          "internalType": "uint32"
        },
        {
          "name": "amount",
          "type": "uint256",
          "indexed": false,
          "internalType": "uint256"
        }
      ],
      "anonymous": false
    },
    {
      "type": "event",
      "name": "RegistrationClose",
      "inputs": [
        {
          "name": "_currentTime",
          "type": "uint256",
          "indexed": true,
          "internalType": "uint256"
        },
        {
          "name": "_status",
          "type": "uint8",
          "indexed": true,
          "internalType": "uint8"
        }
      ],
      "anonymous": false
    },
    {
      "type": "event",
      "name": "TicketPurchased",
      "inputs": [
        {
          "name": "buyer",
          "type": "address",
          "indexed": true,
          "internalType": "address"
        },
        {
          "name": "_eventId",
          "type": "uint32",
          "indexed": true,
          "internalType": "uint32"
        },
        {
          "name": "numberOfTickets",
          "type": "uint32",
          "indexed": false,
          "internalType": "uint32"
        }
      ],
      "anonymous": false
    },
    {
      "type": "event",
      "name": "Upgraded",
      "inputs": [
        {
          "name": "implementation",
          "type": "address",
          "indexed": true,
          "internalType": "address"
        }
      ],
      "anonymous": false
    },
    {
      "type": "error",
      "name": "ALREADY_A_MEMBER",
      "inputs": []
    },
    {
      "type": "error",
      "name": "ALREADY_PAID",
      "inputs": []
    },
    {
      "type": "error",
      "name": "AddressEmptyCode",
      "inputs": [
        {
          "name": "target",
          "type": "address",
          "internalType": "address"
        }
      ]
    },
    {
      "type": "error",
      "name": "EMPTY_INPUT_FIELD",
      "inputs": []
    },
    {
      "type": "error",
      "name": "ERC1967InvalidImplementation",
      "inputs": [
        {
          "name": "implementation",
          "type": "address",
          "internalType": "address"
        }
      ]
    },
    {
      "type": "error",
      "name": "ERC1967NonPayable",
      "inputs": []
    },
    {
      "type": "error",
      "name": "EVENT_NOT_CLOSED",
      "inputs": []
    },
    {
      "type": "error",
      "name": "FailedInnerCall",
      "inputs": []
    },
    {
      "type": "error",
      "name": "GROUP_ALREADY_EXISTS",
      "inputs": []
    },
    {
      "type": "error",
      "name": "INSUFFICIENT_BALANCE",
      "inputs": []
    },
    {
      "type": "error",
      "name": "INSUFFICIENT_TICKET_PURCHASED",
      "inputs": []
    },
    {
      "type": "error",
      "name": "INVALID_EVENT_ID",
      "inputs": []
    },
    {
      "type": "error",
      "name": "INVALID_ID",
      "inputs": []
    },
    {
      "type": "error",
      "name": "INVALID_NOT_AUTHORIZED",
      "inputs": []
    },
    {
      "type": "error",
      "name": "InvalidInitialization",
      "inputs": []
    },
    {
      "type": "error",
      "name": "NFT_ALREADY_MINTED",
      "inputs": []
    },
    {
      "type": "error",
      "name": "NOT_CREATOR",
      "inputs": []
    },
    {
      "type": "error",
      "name": "NOT_ENOUGH_AVAILABLE_SEAT",
      "inputs": []
    },
    {
      "type": "error",
      "name": "NOT_OWNER",
      "inputs": []
    },
    {
      "type": "error",
      "name": "NOT_PAID_EVENT",
      "inputs": []
    },
    {
      "type": "error",
      "name": "NO_ALLOWANCE",
      "inputs": []
    },
    {
      "type": "error",
      "name": "NotInitializing",
      "inputs": []
    },
    {
      "type": "error",
      "name": "OwnableInvalidOwner",
      "inputs": [
        {
          "name": "owner",
          "type": "address",
          "internalType": "address"
        }
      ]
    },
    {
      "type": "error",
      "name": "OwnableUnauthorizedAccount",
      "inputs": [
        {
          "name": "account",
          "type": "address",
          "internalType": "address"
        }
      ]
    },
    {
      "type": "error",
      "name": "REGISTRATION_CLOSE",
      "inputs": []
    },
    {
      "type": "error",
      "name": "REGISTRATION_NOT_CLOSED",
      "inputs": []
    },
    {
      "type": "error",
      "name": "REGISTRATION_NOT_OPEN",
      "inputs": []
    },
    {
      "type": "error",
      "name": "UUPSUnauthorizedCallContext",
      "inputs": []
    },
    {
      "type": "error",
      "name": "UUPSUnsupportedProxiableUUID",
      "inputs": [
        {
          "name": "slot",
          "type": "bytes32",
          "internalType": "bytes32"
        }
      ]
    }
  ],
  "bytecode": {
    "object": "0x60a0806040523461002a5730608052614a979081610030823960805181818161127201526113c00152f35b600080fdfe6080604052600436101561001257600080fd5b600060e0813560e01c90816303e96fe3146135575781630a9bfef51461351a5781630f9fcf481461324f5781631755b97a1461317757816317f69df6146131215781631e2cb1311461309457816322136b6c14612309578163277ec3d41461217b578163331ef97614611e355781633405741d146119975781633809f6f5146119355781634717dea9146118c757816347531df8146117e057816348862857146115a65781634f1ef2861461137157816350312c9e146112dc57816352d1902d1461125f578163654a3c6d146110155781636f77926b14610fa4578163715018a614610f3957816385a646c914610ead5781638da5cb5b14610e77578163909fdec914610d90578163a87f86f914610d6e578163ad3cb1cc14610d28578163b33f650e14610bc0578163be7fb5d7146109c1578163c0c53b8b14610846578163c27a500d1461057e57508063c3c5a54714610539578063cd71ed3514610350578063ec976a0a146102d8578063eec932f7146101c65763f2fde38b1461019757600080fd5b346101c35760203660031901126101c3576101c06101b3613677565b6101bb614964565b6148bd565b80f35b80fd5b50346101c3576020806003193601126102d4576101e16136a3565b906101eb82614931565b63ffffffff80921691828452600282526040842090815416156102c25760ff601582015460081c166102b057338452600682526040842083600052825260ff604060002054166102b05761025e90600d610243614944565b916040519261025184613789565b338452858401520161462f565b33835260068152604083209082600052526040600020600160ff19825416179055610287614944565b90337ff11404c60069f7d8b6ecebb855f6ac5080f851b85152f4cb855640c49a30c2dd8480a480f35b60405163cea6102760e01b8152600490fd5b6040516316a7994d60e21b8152600490fd5b5080fd5b50346101c35760203660031901126101c35760406102f46136a3565b916102fe83614931565b63ffffffff8093168152600260205220908154161561033e57610326600d61033a92016144cd565b6040519182916020835260208301906138b4565b0390f35b60405163e955b73b60e01b8152600490fd5b50346101c35760203660031901126101c35761033a9060406103706136a3565b91610379613f26565b5061038383614931565b63ffffffff8093168152600260205220604051916103a0836137da565b8082541683526040516103c1816103ba8160018701613d13565b03826137f6565b60208401526040516103da816103ba8160028701613d13565b60408401526040516103f3816103ba8160038701613d13565b606084015260405161040c816103ba8160048701613d13565b6080840152600582015460018060a01b03811660a0850152818160a01c1660c085015260c01c1660e083015260068101546101008301526007810154610120830152601560088201549161049260ff848180961661046981613a6c565b610140880152818160081c1661047e81613a6c565b61016088015260101c166101808601613fd4565b61049e60098201614523565b6101a08501526040516104b8816103ba81600f8601613d13565b6101c085015260108101546101e085015260118101546102008501526001600160601b036012820154166102208501526013810154610240850152601481015461026085015201548181161515610280840152818160081c1615156102a084015260101c1615156102c0820152604051918291602083526020830190613a8c565b50346101c35760203660031901126101c35760209060ff906001906040906001600160a01b03610567613677565b16815282855220015460a01c166040519015158152f35b9050346102d457816003193601126102d45763ffffffff9081835416926105a484614858565b928160015b82811687811161079f578252600260209080825260408420908582541692836105df575b505050506105da906148a8565b6105a9565b9260156105da9598936103ba61063261078f956107959860405196610603886137da565b8752604051906106218261061a8160018a01613d13565b03836137f6565b870152604051928380928601613d13565b604084015260405161064b816103ba8160038601613d13565b6060840152604051610664816103ba8160048601613d13565b608084015288600582015460a060018060a01b03821681870152828260c0921c16818701521c168b84015260068101546101008401526007810154610120840152600890818101549060ff9384918284166106be81613a6c565b6101408801528284861c166106d281613a6c565b6101608801526106ec83601095861c166101808901613fd4565b6106f860098201614523565b6101a0880152604051610712816103ba81600f8601613d13565b6101c0880152838101546101e088015260118101546102008801526001600160601b03601282015416610220880152601381015461024088015260148101546102608801520154809382821615156102808801521c1615156102a08501521c1615156102c082015286831690610788828c6143a8565b52896143a8565b506148a8565b93903880806105cd565b5050828216856107ae82614858565b90835b858116848110156107e85786916107e0826107ce600194876143a8565b516107d982896143a8565b52866143a8565b5001166107b1565b60408051602080825286518183018190528993600582901b8401810192808a01929185015b82871061081a5785850386f35b909192938280610836600193603f198a82030186528851613a8c565b960192019601959291909261080d565b82346101c35760603660031901126101c357610860613677565b61086861368d565b6001600160a01b03919060443583811691908290036109bc577ff0c57e16840df040f15088dc2f81fe391c3923bec73e23a9662efc9c229c6a0093845460ff8160401c1615946001600160401b038216801590816109b4575b60011490816109aa575b1590816109a1575b5061098f5767ffffffffffffffff19821660011787556109049186610970575b506108fc61499d565b6101bb61499d565b61090c61499d565b6001600160601b0360a01b911681600b541617600b55600c541617600c55610932575080f35b68ff00000000000000001981541690557fc7f505b2f371ae2175ee4913f4499e1f2633a7b5936321eed1cdaeb6115181d2602060405160018152a180f35b68ffffffffffffffffff191668010000000000000001178755886108f3565b60405163f92ee8a960e01b8152600490fd5b905015896108d3565b303b1591506108cb565b8791506108c1565b600080fd5b82346101c35760403660031901126101c3576109db6136a3565b6024356001600160401b038111610bbc576109fa903690600401613887565b91610a0481614931565b6001610a11368585613832565b5110610baa5763ffffffff80911692838552602092600284526040862092835416156102c25760058301546001600160a01b03163314610b84575b338652600684526040862085600052845260ff6040600020541615610b725760405192610a78846137bf565b868452600e8585019160608352604086016060815261061a60608801948b8652338c5260018a52610ab260408d2060405193848092613d13565b52338752610ac1368787613832565b9052610acb614944565b83520190815491600160401b831015610b5e5760018301808255831015610b48577fd643c4cb96915f246339ac52f899dfc112f2ccf8254cca6b9cb9d0b8f0276e1095610b3b93610b2792600052886000209060021b01614179565b51916040519360408552604085019161433e565b938201528033930390a380f35b634e487b7160e01b600052603260045260246000fd5b634e487b7160e01b89526041600452602489fd5b60405163082e385d60e01b8152600490fd5b33865260068452604086208560005284526040600020600160ff19825416179055610a4c565b604051631ee8943b60e21b8152600490fd5b8280fd5b82346101c3576020806003193601126102d457610bdb6136a3565b610be481614931565b63ffffffff8116835260028252604083209033845260018352610c0a60408520916147a6565b600160ff600884015460081c16610c2081613a6c565b03610d165760058201546001600160a01b03903390821603610d0457601583019081549060ff8216610cf25760038694610ca894600160138b990195898754975560ff191617905501610c74838254614499565b9055600b5460405163a9059cbb60e01b81523360048201526024810193909352919485939190921691839182906044820190565b03925af18015610ce757610cba578280f35b81610cd992903d10610ce0575b610cd181836137f6565b810190613cc1565b5081808280f35b503d610cc7565b6040513d85823e3d90fd5b60405163d2e53ca760e01b8152600490fd5b604051632cff942760e01b8152600490fd5b604051631988a70d60e01b8152600490fd5b82346101c357806003193601126101c35761033a604051610d4881613789565b60058152640352e302e360dc1b60208201526040519182916020835260208301906136c9565b82346101c35760203660031901126101c3576101c0610d8b6136a3565b6147a6565b82346101c357806003193601126101c357600854610dad81613c08565b90610dbb60405192836137f6565b8082526008835260209283830191817ff3f7a9fe364faab93b216da50a3214154f22a0a2b415b23a84c8169e8b636ee3845b838310610e525750505050604051928484019085855251809152604084019460408260051b8601019392955b828710610e265785850386f35b909192938280610e42600193603f198a82030186528851613907565b9601920196019592919092610e19565b600688600192610e65859b9a989b614523565b81520192019201919096939596610ded565b82346101c357806003193601126101c357600080516020614a42833981519152546040516001600160a01b039091168152602090f35b82346101c35760403660031901126101c35760046040610ecb6136a3565b9263ffffffff602435948260208551610ee381613789565b8281520152610ef181614931565b1681528260205220019081548110156102c257610f13610f1991604093614613565b506144a6565b815181516001600160a01b0316815260209182015191810191909152f35bf35b82346101c357806003193601126101c357610f52614964565b600080516020614a4283398151915280546001600160a01b031981169091556000906001600160a01b03167f8be0079c531659141344cd1fd0a4f28419497f9722a3daafe3b4186f6b6457e08280a380f35b82346101c35760203660031901126101c357611001604061033a92610fc7613677565b8160808451610fd5816137a4565b606081528260208201528286820152606080820152015260018060a01b031681526001602052206145aa565b604051918291602083526020830190613a19565b82346101c35760203660031901126101c35763ffffffff806110356136a3565b1682526002602052604082208181541691821561033e576005820180546001600160a01b03939084163303610b7257600981019263ffffffff199586855416178455600a82019261108960018401856143bc565b600b83019661109b60028501896143bc565b6110ea600c8501976110b0600487018a6143bc565b6015860161010061ff0019825416179055600d86019354166110d0614944565b604051916110dd83613789565b825260208201528361462f565b600854600160401b81101561124b5760018101806008558110156112375760069060088b520296877ff3f7a9fe364faab93b216da50a3214154f22a0a2b415b23a84c8169e8b636ee30193878503611140578a80f35b611229996111a9600e98611221976111f9966111d1957ff3f7a9fe364faab93b216da50a3214154f22a0a2b415b23a84c8169e8b636ee89d5416908254161790557ff3f7a9fe364faab93b216da50a3214154f22a0a2b415b23a84c8169e8b636ee48c016143bc565b7ff3f7a9fe364faab93b216da50a3214154f22a0a2b415b23a84c8169e8b636ee58a016143bc565b7ff3f7a9fe364faab93b216da50a3214154f22a0a2b415b23a84c8169e8b636ee688016143bc565b7ff3f7a9fe364faab93b216da50a3214154f22a0a2b415b23a84c8169e8b636ee78601614692565b01910161470c565b818080808080808080808a80f35b634e487b7160e01b8a52603260045260248afd5b634e487b7160e01b8a52604160045260248afd5b82346101c357806003193601126101c3577f00000000000000000000000000000000000000000000000000000000000000006001600160a01b031630036112ca5760206040517f360894a13ba1a3210667c828492db98dca3e2076cc3735a920a3ca505d382bbc8152f35b60405163703e46dd60e11b8152600490fd5b82346101c357806003193601126101c357600b546040516370a0823160e01b81523060048201529190602090839060249082906001600160a01b03165afa9081156113655790611332575b602090604051908152f35b506020813d60201161135d575b8161134c602093836137f6565b810103126109bc5760209051611327565b3d915061133f565b604051903d90823e3d90fd5b8260403660031901126101c357611386613677565b6024356001600160401b038111610bbc5736602382011215610bbc576113b6903690602481600401359101613832565b6001600160a01b037f00000000000000000000000000000000000000000000000000000000000000008116308114908115611578575b506112ca576113f9614964565b6040516352d1902d60e01b8152908316926020918281600481885afa869181611545575b5061143b57604051634c9c8ce360e01b815260048101869052602490fd5b9385947f360894a13ba1a3210667c828492db98dca3e2076cc3735a920a3ca505d382bbc9081810361152d5750823b156115145780546001600160a01b0319168217905560405185917fbc7cd75a20ee27fd9adebab32041f755214dbc6bffa90cc0225b39da2e5c2d3b8380a28451156114f757508084846114ea96519101845af4903d156114ee573d6114ce81613817565b906114dc60405192836137f6565b81528581943d92013e6149de565b5080f35b606092506149de565b935050505034611505575080f35b63b398979f60e01b8152600490fd5b604051634c9c8ce360e01b815260048101839052602490fd5b60249060405190632a87526960e21b82526004820152fd5b9091508381813d8311611571575b61155d81836137f6565b8101031261156d5751908761141d565b8680fd5b503d611553565b9050817f360894a13ba1a3210667c828492db98dca3e2076cc3735a920a3ca505d382bbc54161415856113ec565b82346101c357602090816003193601126101c35763ffffffff806115c86136a3565b1680835260028452604083209180835416156117ce576115e6614944565b6007840154116117bc57601583019360ff855460101c166117aa57805b6009548110156117975783836116188361435f565b5054891c161480611778575b611631575b600101611603565b600c546040516365507c9560e11b8152906001600160a01b039081168983600481845afa92831561173a578593611749575b508161166e8561435f565b505460401c16813b1561174557886116af92879283604051809681958294636902622f60e11b8452600484015260406024840152600f604484019101613d13565b03925af1801561173a5791879186959493611719575b50600194506116d38461435f565b505460401c167f66555f994e1af4e5e9289ab0b1a3dd45aa678a9d41cba0aa1f064e78f5d039828b8860036117078861435f565b50015416604051908152a49050611629565b611727919394959250613745565b6117365790858493928b6116c5565b8380fd5b6040513d87823e3d90fd5b8580fd5b9092508981813d8311611771575b61176181836137f6565b810103126109bc5751918a611663565b503d611757565b506117828161435f565b505460401c6001600160a01b03161515611624565b50845462ff000019166201000017855580f35b60405163c1d7938360e01b8152600490fd5b604051630f036da960e21b8152600490fd5b60405163b790ffed60e01b8152600490fd5b82346101c357806003193601126101c357600a546117fd81613c08565b9061180b60405192836137f6565b808252600a835260209283830191817fc65a7bb8d6351c1cf70c95a316cc6a92839c986682d98bc35f958f4883f9d2a8845b8383106118a25750505050604051928484019085855251809152604084019460408260051b8601019392955b8287106118765785850386f35b909192938280611892600193603f198a82030186528851613a19565b9601920196019592919092611869565b6004886001926118b5859b9a989b6145aa565b8152019201920191909693959661183d565b82346101c35760203660031901126101c357611928604060c0926118e9613677565b8160a084516118f78161376e565b8281528260208201528286820152826060820152826080820152015260018060a01b03168152600360205220613c1f565b610f37604051809261362e565b82346101c35760203660031901126101c35760406119516136a3565b9161195a613ef4565b5063ffffffff8093168152600260205220908154161561033e57611983600961033a9201614523565b604051918291602083526020830190613907565b82346101c35760403660031901126101c3576119b16136a3565b906119ba6136b6565b6119c383614931565b63ffffffff90818416918284526020906002825260408520956008870160ff8154166119ee81613a6c565b611e235760058801611a29611a098786845460a01c16613edc565b825463ffffffff60a01b191660a09190911b63ffffffff60a01b16178255565b5483808260c01c169160a01c1611611e1157865467ffffffff00000000611a538583881c16613ec7565b861b169067ffffffff00000000191617875533875260038452604087209760ff88925460101c166002811015611dfd5715611c51575b5086548854600160401b600160e01b031991861c85169190911667ffffffff00000001600160e01b0319909116173360401b600160401b600160e01b031617885563ffffffff1990611b07611adc614944565b9360028b019485558a9067ffffffff0000000082549160201b169067ffffffff000000001916179055565b611b1660018a01918254614499565b8155600389019283548386611b2d8a828516613edc565b169116178455600954600160401b81101561124b57806001611b52920160095561435f565b929092611c3d57918a9186937fc541e3defd92fd2d8306e9c91b36c15f096115c41c7a9a36ac548a487d8891aa999a9b9c8303611bbf575b5050505050505033865260058252604086208560005282526040600020600160ff19825416179055604051931683523392a380f35b83548354871690861617808455845467ffffffff0000000019909116908a1c861660201b67ffffffff0000000016178355600393611c1a90548454600160401b600160e01b031916600160401b600160e01b03909116178455565b546001830155546002820155019254169082541617905586808281808080611b8a565b634e487b7160e01b8a5260048a905260248afd5b90506001600160601b03611c6d81601284015416858816613c77565b169060018060a01b03600b54166040516370a0823160e01b81523360048201528681602481855afa908115611daf579084918b91611dcc575b5010611dba57604051636eb1769f60e11b81523360048201523060248201528681604481855afa908115611daf579084918b91611d7e575b5010611d6c578589916064604051809481936323b872dd60e01b83523360048401523060248401528860448401525af18015611d61579060139291611d44575b5001611d2b828254614499565b905560018801611d3c828254614499565b905588611a89565b611d5a90873d8911610ce057610cd181836137f6565b508a611d1e565b6040513d8b823e3d90fd5b60405163ea75ebd560e01b8152600490fd5b809250888092503d8311611da8575b611d9781836137f6565b810103126109bc578390518c611cde565b503d611d8d565b6040513d8c823e3d90fd5b604051632858f9ab60e11b8152600490fd5b809250888092503d8311611df6575b611de581836137f6565b810103126109bc578390518c611ca6565b503d611ddb565b634e487b7160e01b89526021600452602489fd5b6040516374a227cd60e01b8152600490fd5b6040516305fb6d9960e41b8152600490fd5b82346101c35760603660031901126101c3576001600160401b03600435818111610bbc57611e67903690600401613869565b90611e7061368d565b60443582811161217757611e88903690600401613869565b9260019182825110610baa5782855110610baa5760018060a01b0380911692838752602095818752604088209380519087821161124b57611ed382611ecd8854613cd9565b88613ff7565b8890601f831160011461211857611f0292918b918361210d575b50508160011b916000199060031b1c19161790565b84555b818401956affffffffffffffffffffff60a81b95600160a01b9087895416171787556002850197825191821161124b57611f4982611f438b54613cd9565b8b613ff7565b80601f83116001146120ac57508190611f77938b926120a15750508160011b916000199060031b1c19161790565b86555b600a5490600160401b82101561208d57810180600a55811015610b4857600a60005260021b94857fc65a7bb8d6351c1cf70c95a316cc6a92839c986682d98bc35f958f4883f9d2a80191838303611fcf578780f35b7fc65a7bb8d6351c1cf70c95a316cc6a92839c986682d98bc35f958f4883f9d2ab956003956120018661207d966143bc565b7fc65a7bb8d6351c1cf70c95a316cc6a92839c986682d98bc35f958f4883f9d2a989019282541690835492826001600160601b0360a01b851617855560ff8060a01b915460a01c16151560a01b169216171790557fc65a7bb8d6351c1cf70c95a316cc6a92839c986682d98bc35f958f4883f9d2aa86016143bc565b0154910155818080808080808780f35b634e487b7160e01b88526041600452602488fd5b015190508a80611eed565b908493601f1984168b8d52838d20938d905b8282106120f457505084116120db575b505050811b018655611f7a565b015160001960f88460031b161c191690558980806120ce565b84840151865588979095019493840193908101906120be565b015190508b80611eed565b868b52898b208593929091601f1984168d5b8d8282106121615750508411612148575b505050811b018455611f05565b015160001960f88460031b161c191690558a808061213b565b838501518655899790950194938401930161212a565b8480fd5b82346101c3576020806003193601126102d4576121966136a3565b8291836009549263ffffffff809116915b8481106122d757506121b885613c08565b946121c660405196876137f6565b8086526121d5601f1991613c08565b013660208701378592865b8581106121f5576040518061033a8982613709565b83836122008361435f565b5054841c1614612213575b6001016121e0565b9490939691959260018060a01b03968388600c5416986122328961435f565b505460401c166024604051809b8193632118854760e21b835260048301525afa9788156122cc5784986122a8575b5083985b88518a10156122965761228e60019161227d8c8c6143a8565b51612288828a6143a8565b52614399565b990198612264565b9398509396509094919390929161220b565b6122c59198503d8086833e6122bd81836137f6565b810190613e4e565b9689612260565b6040513d86823e3d90fd5b82826122e28361435f565b5054861c16146122f5575b6001016121a7565b94612301600191614399565b9590506122ed565b82346101c3576101803660031901126101c3576004356001600160401b0381116102d45761233b903690600401613869565b6024356001600160401b038111610bbc5761235a903690600401613869565b906044356001600160401b0381116117365761237a903690600401613869565b6064356001600160401b03811161217757612399903690600401613869565b926084359263ffffffff841684036117455761012435946001600160601b038616860361156d57610144351515610144350361156d57610164356001600160401b038111613090576123ef903690600401613887565b949093600184511061304b576001815110613006576001825110612fc1576001835110612f7c5760c43560a4351015612f2b576101043560e4351015612ee65788549363ffffffff612442818716613ec7565b16809563ffffffff1916178a55612457613f26565b9860a435612463614944565b1015612eda5760026101408b01525b6101443515612ec5576001600160601b03908b6101808c0152166102208a01525b8489526020890152604088015260808701523360a0870152606086015263ffffffff841660e086015260a43561010086015260c43561012086015260e4356101e08601526101043561020086015260026101608601526124f1614944565b610260860152612502368484613832565b6101c0860152855260026020526040852063ffffffff85511663ffffffff1982541617815560208501518051906001600160401b03821161208d576125578261254e6001860154613cd9565b60018601613ff7565b602090601f8311600114612e56576125869291899183612cfe5750508160011b916000199060031b1c19161790565b60018201555b60408501518051906001600160401b03821161208d576125bc826125b36002860154613cd9565b60028601613ff7565b602090601f8311600114612de7576125eb9291899183612cfe5750508160011b916000199060031b1c19161790565b60028201555b60608501518051906001600160401b03821161208d57612621826126186003860154613cd9565b60038601613ff7565b602090601f8311600114612d78576126509291899183612cfe5750508160011b916000199060031b1c19161790565b60038201555b60808501518051906001600160401b03821161208d576126868261267d6004860154613cd9565b60048601613ff7565b602090601f8311600114612d09576126b59291899183612cfe5750508160011b916000199060031b1c19161790565b60048201555b60a08581015160058301805460c0808a015160e08b0151951b63ffffffff60a01b166001600160a01b039094166001600160e01b031990921691909117929092179290911b63ffffffff60c01b169190911790556101008501516006820155610120850151600782015561014085015161273481613a6c565b61273d81613a6c565b60088201546101608701519061275282613a6c565b61275b82613a6c565b6101808801516002811015612cea579060ff62ff000061ff009360101b1694169062ffffff1916179160081b1617176008820155600981016101a08601519063ffffffff82511663ffffffff1982541617905560208101518051906001600160401b038211610b5e576127de826127d5600a870154613cd9565b600a8701613ff7565b602090601f8311600114612c7b5761280d92918a91836120a15750508160011b916000199060031b1c19161790565b600a8301555b60408101518051906001600160401b038211610b5e576128438261283a600b870154613cd9565b600b8701613ff7565b602090601f8311600114612c115761287292918a91836120a15750508160011b916000199060031b1c19161790565b600b8301555b60608101518051906001600160401b038211610b5e576128a88261289f600c870154613cd9565b600c8701613ff7565b602090601f8311600114612ba2576128d792918a91836120a15750508160011b916000199060031b1c19161790565b600c8301555b600d820160808201519060208251926128f6848461403e565b019089526020892089915b838310612b62575050505060a0600e830191015190602082519261292584846140f4565b019088526020882088915b838310612b4457505050506101c08501518051906001600160401b03821161208d5790829161297182612968600f8c98970154613cd9565b600f8601613ff7565b602090601f8311600114612ad15791806129a49260159594889261210d5750508160011b916000199060031b1c19161790565b600f8201555b6101e087015160108201556102008701516011820155601281016001600160601b03610220890151166001600160601b031982541617905561024087015160138201556102608701516014820155016102808601511515815461ff006102a0890151151560081b169060ff62ff00006102c08b0151151560101b1693169062ffffff1916171717905560018060a01b03600c5416803b15610bbc57612a749383604051809681958294636902622f60e11b845233600485015260406024850152604484019161433e565b03925af180156122cc57612abe575b5063ffffffff60c08180865416931693015116907fac3c2fbb08f906d92c1b4be6fa025f63708bafa70869110e931d718b9532c4118480a480f35b612aca90939193613745565b9183612a83565b90600f840186526020862091865b601f1985168110612b29575091839160019360159695601f19811610612b10575b505050811b01600f8201556129aa565b015160001960f88460031b161c191690558a8080612b00565b8183015184558b975060019093019260209283019201612adf565b6004602082612b566001945186614179565b01920192019190612930565b6002602082612b966001945186906020600191828060a01b038151166001600160601b0360a01b8554161784550151910155565b01920192019190612901565b9190600c85018a5260208a20908a935b601f1984168510612bf6576001945083601f19811610612bdd575b505050811b01600c8301556128dd565b015160001960f88460031b161c19169055898080612bcd565b81810151835560209485019460019093019290910190612bb2565b600b85018a5260208a209190601f1984168b5b818110612c635750908460019594939210612c4a575b505050811b01600b830155612878565b015160001960f88460031b161c19169055898080612c3a565b92936020600181928786015181550195019301612c24565b9190600a85018a5260208a20908a935b601f1984168510612ccf576001945083601f19811610612cb6575b505050811b01600a830155612813565b015160001960f88460031b161c19169055898080612ca6565b81810151835560209485019460019093019290910190612c8b565b634e487b7160e01b8a52602160045260248afd5b015190508980611eed565b9190600484018952602089209089935b601f1984168510612d5d576001945083601f19811610612d44575b505050811b0160048201556126bb565b015160001960f88460031b161c19169055888080612d34565b81810151835560209485019460019093019290910190612d19565b9190600384018952602089209089935b601f1984168510612dcc576001945083601f19811610612db3575b505050811b016003820155612656565b015160001960f88460031b161c19169055888080612da3565b81810151835560209485019460019093019290910190612d88565b9190600284018952602089209089935b601f1984168510612e3b576001945083601f19811610612e22575b505050811b0160028201556125f1565b015160001960f88460031b161c19169055888080612e12565b81810151835560209485019460019093019290910190612df7565b9190600184018952602089209089935b601f1984168510612eaa576001945083601f19811610612e91575b505050811b01600182015561258c565b015160001960f88460031b161c19169055888080612e81565b81810151835560209485019460019093019290910190612e66565b50896102208a015260016101808a0152612493565b8a6101408b0152612472565b60405162461bcd60e51b815260206004820152601c60248201527f494e56414c49445f54494d455f5345543a206576656e742074696d65000000006044820152606490fd5b60405162461bcd60e51b815260206004820152602360248201527f494e56414c49445f54494d455f5345543a20726567697374726174696f6e2074604482015262696d6560e81b6064820152608490fd5b60405162461bcd60e51b815260206004820152601b60248201527f454d5054595f494e5055545f4649454c443a206c6f636174696f6e00000000006044820152606490fd5b60405162461bcd60e51b815260206004820152601e60248201527f454d5054595f494e5055545f4649454c443a206465736372697074696f6e00006044820152606490fd5b60405162461bcd60e51b815260206004820152601b60248201527f454d5054595f494e5055545f4649454c443a20696d61676555726c00000000006044820152606490fd5b60405162461bcd60e51b815260206004820152601860248201527f454d5054595f494e5055545f4649454c443a207469746c6500000000000000006044820152606490fd5b8780fd5b82346101c35760203660031901126101c3576130ae613677565b600c54604051632118854760e21b81526001600160a01b03928316600482015291839183916024918391165afa908115613116578261033a93926130fb575b505060405191829182613709565b61310f92503d8091833e6122bd81836137f6565b82806130ed565b6040513d84823e3d90fd5b82346101c35760403660031901126101c35760ff6040602092613142613677565b61314a6136b6565b6001600160a01b0390911682526005855282822063ffffffff909116825284522054604051911615158152f35b82346101c3576020806003193601126102d45763ffffffff806131986136a3565b1683526002825260408320908154161561033e576131b9600e849201613da9565b60405191838301848452825180915260408401948060408360051b870101940192955b8287106131e95785850386f35b909192938280600192603f198982030185528751906132356132236080878060a01b038551168452858501519080878601528401906136c9565b604084015183820360408501526136c9565b9160608091015191015296019201960195929190926131dc565b82346101c35760403660031901126101c3576132696136a3565b6132716136b6565b9061327b81614931565b63ffffffff90818116928385526020926002845261329c6040872093614931565b84865260028452604086206132af614944565b6007820154106134bb575b50338652600384526040862091600884015460ff8160101c166002811015611dfd576134a95760ff166132ec81613a6c565b6134975782546001600160a01b03919033604082901c84160361348557838891881c16036117ce576003840183815416848316809110613473576013906133426001600160601b03918260128b01541690613c77565b169661337b6005820161335b8689835460a01c16613cab565b815463ffffffff60a01b191660a09190911b63ffffffff60a01b16179055565b0180549087820391821161345f575583613399825493828516613cab565b16809263ffffffff19161790551561343f575b600b5460405163a9059cbb60e01b81523360048201526024810186905293918691859160449183918c91165af1928315613434577f4f6fb365c29f3632d91fcd919dbfdf50155c34cd0ea613bd43e7e76529fec43593613417575b505416926040519283523392a480f35b61342d90863d8811610ce057610cd181836137f6565b5087613407565b6040513d89823e3d90fd5b33875260058552604080882087895286528720805460ff191690556133ac565b634e487b7160e01b8b52601160045260248bfd5b60405163a2ed46e160e01b8152600490fd5b6040516338ebc58960e11b8152600490fd5b604051630738c50360e41b8152600490fd5b6040516380e4469160e01b8152600490fd5b6008018054600160ff82166134cf81613a6c565b036134db575b506132ba565b60019060ff191617905560016134ef614944565b7f9c8ea6489f3baa31d321639e3a41ad67158fa673511a98870906b5a9eced0dd48880a386806134d5565b82346101c35760203660031901126101c3576020906003906040906001600160a01b03613545613677565b16815260018452200154604051908152f35b82346101c357806003193601126101c35760095461357481613c08565b9061358260405192836137f6565b8082526009835260209182810191847f6e1540171b6c0c960b71a7020d9f60077f6af931a8bbf590da0223dacf75c7af845b838310613607575050505060405192602084019160208552518092526040840192945b8281106135e45784840385f35b9091928260c0826135f86001948a5161362e565b019601910194929190946135d7565b60048760019261361b859b9a98999b613c1f565b81520192019201919096949395966135b4565b60a0908163ffffffff91828151168552826020820151166020860152600180831b0360408201511660408601526060810151606086015260808101516080860152015116910152565b600435906001600160a01b03821682036109bc57565b602435906001600160a01b03821682036109bc57565b6004359063ffffffff821682036109bc57565b6024359063ffffffff821682036109bc57565b919082519283825260005b8481106136f5575050826000602080949584010152601f8019910116010190565b6020818301810151848301820152016136d4565b602090602060408183019282815285518094520193019160005b828110613731575050505090565b835185529381019392810192600101613723565b6001600160401b03811161375857604052565b634e487b7160e01b600052604160045260246000fd5b60c081019081106001600160401b0382111761375857604052565b604081019081106001600160401b0382111761375857604052565b60a081019081106001600160401b0382111761375857604052565b608081019081106001600160401b0382111761375857604052565b6102e081019081106001600160401b0382111761375857604052565b90601f801991011681019081106001600160401b0382111761375857604052565b6001600160401b03811161375857601f01601f191660200190565b92919261383e82613817565b9161384c60405193846137f6565b8294818452818301116109bc578281602093846000960137010152565b9080601f830112156109bc5781602061388493359101613832565b90565b9181601f840112156109bc578235916001600160401b0383116109bc57602083818601950101116109bc57565b90815180825260208080930193019160005b8281106138d4575050505090565b90919293826040826138fb60019489516020809160018060a01b0381511684520151910152565b019501939291016138c6565b63ffffffff815116825260209061392b8282015160c08486015260c08501906136c9565b91613944604093604084015186820360408801526136c9565b9161395d606093606083015187820360608901526136c9565b9260a0613978608095608085015189820360808b01526138b4565b9201519560a08184039101528551938483528383019184808760051b8601019801966000945b8786106139b15750505050505050505090565b9091929394959697988780600192601f198582030189528c5190848060a01b0382511681528780613a006139f0868601518d888701528d8601906136c9565b8a8601518582038c8701526136c9565b9301519101529b0196019601949796959392919061399e565b90608080613a63613a33855160a0865260a08601906136c9565b60018060a01b036020870151166020860152604086015115156040860152606086015185820360608701526136c9565b93015191015290565b60031115613a7657565b634e487b7160e01b600052602160045260246000fd5b906102e0613af2613ae0613ace613abc63ffffffff948588511687526020880151908060208901528701906136c9565b604087015186820360408801526136c9565b606086015185820360608701526136c9565b608085015184820360808601526136c9565b9060018060a01b0360a08501511660a08401528060c08501511660c084015260e08401511660e0830152610100808401519083015261012080840151908301526101408084015190613b4382613a6c565b8301526101608084015190613b5782613a6c565b83015261018080840151916002831015613a7657613b9e92613b8a928501526101a0808601519085830390860152613907565b6101c08085015190848303908501526136c9565b916101e0808201519083015261020080820151908301526102206001600160601b0381830151169083015261024080820151908301526102608082015190830152610280808201511515908301526102a0808201511515908301526102c080910151151591015290565b6001600160401b0381116137585760051b60200190565b90604051613c2c8161376e565b60a08193600381549163ffffffff928381168652838160201c166020870152600180861b039060401c1660408601526001810154606086015260028101546080860152015416910152565b9190916001600160601b0380809416911602918216918203613c9557565b634e487b7160e01b600052601160045260246000fd5b63ffffffff9182169082160391908211613c9557565b908160209103126109bc575180151581036109bc5790565b90600182811c92168015613d09575b6020831014613cf357565b634e487b7160e01b600052602260045260246000fd5b91607f1691613ce8565b805460009392613d2282613cd9565b91828252602093600191600181169081600014613d8a5750600114613d49575b5050505050565b90939495506000929192528360002092846000945b838610613d7657505050500101903880808080613d42565b805485870183015294019385908201613d5e565b60ff19168685015250505090151560051b010191503880808080613d42565b908154613db581613c08565b92604093613dc660405191826137f6565b82815280946020809201926000526020600020906000935b858510613ded57505050505050565b6004846001928451613dfe816137bf565b848060a01b0387541681528551613e1b816103ba81898c01613d13565b838201528551613e32816103ba8160028c01613d13565b8682015260038701546060820152815201930194019391613dde565b60209081818403126109bc578051906001600160401b0382116109bc57019180601f840112156109bc578251613e8381613c08565b93613e9160405195866137f6565b818552838086019260051b8201019283116109bc578301905b828210613eb8575050505090565b81518152908301908301613eaa565b90600163ffffffff80931601918211613c9557565b91909163ffffffff80809416911601918211613c9557565b60405190613f018261376e565b816000815260a060609182602082015282604082015282808201528260808201520152565b60405190613f33826137da565b816102c0600091828152606080602083015280604083015280808301528060808301528360a08301528360c08301528360e08301528361010083015283610120830152836101408301528361016083015283610180830152613f93613ef4565b6101a08301526101c0820152826101e08201528261020082015282610220820152826102408201528261026082015282610280820152826102a08201520152565b6002821015613a765752565b818110613feb575050565b60008155600101613fe0565b9190601f811161400657505050565b614032926000526020600020906020601f840160051c83019310614034575b601f0160051c0190613fe0565b565b9091508190614025565b600160401b821161375857805482825580831061405a57505050565b6001906001600160ff1b038082168203613c955784168403613c955760009260005260206000209060011b81019360011b015b83811061409a5750505050565b80836002925583838201550161408d565b6140b58154613cd9565b90816140bf575050565b81601f600093116001146140d1575055565b9080839182526140f0601f60208420940160051c840160018501613fe0565b5555565b600160401b821161375857805482825580831061411057505050565b6002906001600160fe1b038082168203613c955784168403613c955760009260005260206000209060021b81019360021b015b8381106141505750505050565b808360049255614162600182016140ab565b61416d8382016140ab565b83600382015501614143565b9060018060a01b038151166001600160601b0360a01b83541617825560018083016020808401519182516001600160401b0393848211613758576141c7826141c18554613cd9565b85613ff7565b8390601f83116001146142dc576141f69291600091836142625750508160011b916000199060031b1c19161790565b90555b60028501926040850151908151938411613758576142218461421b8754613cd9565b87613ff7565b82601f851160011461426d575050826003959360609593614258936000926142625750508160011b916000199060031b1c19161790565b90555b0151910155565b015190503880611eed565b91601f949391941984168660005283600020936000905b8282106142c557505091600397959391856060989694106142ad575b505050811b01905561425b565b015160001983891b60f8161c191690553880806142a0565b808886978294978701518155019601940190614284565b869291601f1983169185600052866000209260005b88828210614328575050841161430f575b505050811b0190556141f9565b015160001960f88460031b161c19169055388080614302565b8385015186558b979095019493840193016142f1565b908060209392818452848401376000828201840152601f01601f1916010190565b600954811015610b4857600960005260021b7f6e1540171b6c0c960b71a7020d9f60077f6af931a8bbf590da0223dacf75c7af0190600090565b6000198114613c955760010190565b8051821015610b485760209160051b010190565b90808214614495576143ce8154613cd9565b906001600160401b038211613758576143eb826141c18554613cd9565b600090601f831160011461442a5761441b92916000918361441f5750508160011b916000199060031b1c19161790565b9055565b015490503880611eed565b815260208082208483528183209291601f1985169083905b82821061447c575050908460019594939210614463575b505050811b019055565b015460001960f88460031b161c19169055388080614459565b8495819295850154815560018091019601940190614442565b5050565b91908201809211613c9557565b906040516144b381613789565b82546001600160a01b031681526001909201546020830152565b9081546144d981613c08565b926144e760405194856137f6565b818452600090815260208082208186015b848410614506575050505050565b600283600192614515856144a6565b8152019201930192906144f8565b906040516145308161376e565b60a06145a56005839563ffffffff8154168552604051614557816103ba8160018601613d13565b6020860152604051614570816103ba8160028601613d13565b6040860152604051614589816103ba8160038601613d13565b606086015261459a600482016144cd565b608086015201613da9565b910152565b906040516145b7816137a4565b6080600382946040516145ce816103ba8185613d13565b845260018101546001600160a01b038116602086015260a01c60ff16151560408086019190915251614607816103ba8160028601613d13565b60608501520154910152565b8054821015610b485760005260206000209060011b0190600090565b8054600160401b8110156137585761464c91600182018155614613565b91909161467c57805182546001600160a01b0319166001600160a01b039190911617825560200151600190910155565b634e487b7160e01b600052600060045260246000fd5b818114614495578154916146a6838361403e565b6000526020600020906000526020600020906000905b8382106146c95750505050565b8060019184036146e4575b60028091019301910190916146bc565b818060a01b038154166001600160601b0360a01b8554161784558180820154908501556146d4565b8181146144955781549161472083836140f4565b6000526020600020906000526020600020906000905b8382106147435750505050565b80600191840361475e575b6004809101930191019091614736565b818060a01b038154166001600160601b0360a01b855416178455614787828083019086016143bc565b61479760028083019086016143bc565b6003808201549085015561474e565b63ffffffff906147b581614931565b1680600052600260205260406000206147cc614944565b6010820154111580614843575b156147ed57600801805461ff001916905550565b6147f5614944565b601182015410614803575050565b600801805461ff00191661010017905561481b614944565b907f835839f42ff642197e82f2887491db41a51c32dc7004091799724e9e3d6f2489600080a3565b5061484c614944565b601182015410156147d9565b9061486282613c08565b61486f60405191826137f6565b8281528092614880601f1991613c08565b019060005b82811061489157505050565b60209061489c613f26565b82828501015201614885565b63ffffffff809116908114613c955760010190565b6001600160a01b0390811690811561491857600080516020614a4283398151915280546001600160a01b031981168417909155167f8be0079c531659141344cd1fd0a4f28419497f9722a3daafe3b4186f6b6457e0600080a3565b604051631e4fbdf760e01b815260006004820152602490fd5b63ffffffff80600054169116116102c257565b6103e880420290428204811442151715613c95578101809111613c955790565b600080516020614a42833981519152546001600160a01b0316330361498557565b60405163118cdaa760e01b8152336004820152602490fd5b60ff7ff0c57e16840df040f15088dc2f81fe391c3923bec73e23a9662efc9c229c6a005460401c16156149cc57565b604051631afcd79f60e31b8152600490fd5b90614a0557508051156149f357805190602001fd5b604051630a12f52160e11b8152600490fd5b81511580614a38575b614a16575090565b604051639996b31560e01b81526001600160a01b039091166004820152602490fd5b50803b15614a0e56fe9016d09d72d40fdae2fd8ceac6b6234c7706214fd39c1cd1e609a0528c199300a2646970667358221220614b6b922fbedaa5c71b99289095a24c176c4913c6a95ff131ea3a45daf00b0d64736f6c63430008180033",
    "linkReferences": {}
  },
  "methodIdentifiers": {
    "UPGRADE_INTERFACE_VERSION()": "ad3cb1cc",
    "checkContractBalance()": "50312c9e",
    "checkUserBalance(address)": "0a9bfef5",
    "createAccount(string,address,string)": "331ef976",
    "createEvent(string,string,string,string,uint32,uint256,uint256,uint256,uint256,uint96,bool,string)": "22136b6c",
    "createGroup(uint32)": "654a3c6d",
    "getAllEventGroups()": "909fdec9",
    "getAllEvents()": "c27a500d",
    "getAllGroupMessages(uint32)": "1755b97a",
    "getAllTickets()": "03e96fe3",
    "getAllUser()": "47531df8",
    "getEventById(uint32)": "cd71ed35",
    "getEventGroup(uint32)": "3809f6f5",
    "getEventNFTs(uint32)": "277ec3d4",
    "getGroupMember(uint32,uint256)": "85a646c9",
    "getGroupMembers(uint32)": "ec976a0a",
    "getTicket(address)": "4717dea9",
    "getUser(address)": "6f77926b",
    "getUserNFTs_(address)": "1e2cb131",
    "groupChat(uint32,string)": "be7fb5d7",
    "hasPurchasedTicket(address,uint32)": "17f69df6",
    "initialize(address,address,address)": "c0c53b8b",
    "isRegistered(address)": "c3c5a547",
    "joinGroup(uint32)": "eec932f7",
    "mintNFTsForAttendees(uint32)": "48862857",
    "owner()": "8da5cb5b",
    "proxiableUUID()": "52d1902d",
    "purchaseTicket(uint32,uint32)": "3405741d",
    "refundFee(uint32,uint32)": "0f9fcf48",
    "renounceOwnership()": "715018a6",
    "transferOwnership(address)": "f2fde38b",
    "updateEventStatus(uint32)": "a87f86f9",
    "upgradeToAndCall(address,bytes)": "4f1ef286",
    "withdrawEventFee(uint32)": "b33f650e"
  },
  "id": 58
}