{
  "abi": [
    {
      "type": "function",
      "name": "UPGRADE_INTERFACE_VERSION",
      "inputs": [],
      "outputs": [
        {
          "name": "",
          "type": "string",
          "internalType": "string"
        }
      ],
      "stateMutability": "view"
    },
    {
      "type": "function",
      "name": "checkContractBalance",
      "inputs": [],
      "outputs": [
        {
          "name": "bal_",
          "type": "uint256",
          "internalType": "uint256"
        }
      ],
      "stateMutability": "view"
    },
    {
      "type": "function",
      "name": "checkUserBalance",
      "inputs": [
        {
          "name": "_addr",
          "type": "address",
          "internalType": "address"
        }
      ],
      "outputs": [
        {
          "name": "bal_",
          "type": "uint256",
          "internalType": "uint256"
        }
      ],
      "stateMutability": "view"
    },
    {
      "type": "function",
      "name": "createAccount",
      "inputs": [
        {
          "name": "_email",
          "type": "string",
          "internalType": "string"
        },
        {
          "name": "_addr",
          "type": "address",
          "internalType": "address"
        },
        {
          "name": "_avatar",
          "type": "string",
          "internalType": "string"
        }
      ],
      "outputs": [],
      "stateMutability": "nonpayable"
    },
    {
      "type": "function",
      "name": "createEvent",
      "inputs": [
        {
          "name": "_title",
          "type": "bytes32",
          "internalType": "bytes32"
        },
        {
          "name": "_imageUrl",
          "type": "string",
          "internalType": "string"
        },
        {
          "name": "_description",
          "type": "string",
          "internalType": "string"
        },
        {
          "name": "_location",
          "type": "string",
          "internalType": "string"
        },
        {
          "name": "_capacity",
          "type": "uint32",
          "internalType": "uint32"
        },
        {
          "name": "_regStartTime",
          "type": "uint256",
          "internalType": "uint256"
        },
        {
          "name": "_regEndTime",
          "type": "uint256",
          "internalType": "uint256"
        },
        {
          "name": "_eventStartTime",
          "type": "uint256",
          "internalType": "uint256"
        },
        {
          "name": "_eventEndTime",
          "type": "uint256",
          "internalType": "uint256"
        },
        {
          "name": "_ticketPrice",
          "type": "uint96",
          "internalType": "uint96"
        },
        {
          "name": "_isEventPaid",
          "type": "bool",
          "internalType": "bool"
        }
      ],
      "outputs": [],
      "stateMutability": "nonpayable"
    },
    {
      "type": "function",
      "name": "getAllEventGroups",
      "inputs": [],
      "outputs": [
        {
          "name": "group_",
          "type": "tuple[]",
          "internalType": "struct BlumaProtocol.EventGroup[]",
          "components": [
            {
              "name": "eventId",
              "type": "uint32",
              "internalType": "uint32"
            },
            {
              "name": "title",
              "type": "bytes32",
              "internalType": "bytes32"
            },
            {
              "name": "imageUrl",
              "type": "string",
              "internalType": "string"
            },
            {
              "name": "description",
              "type": "string",
              "internalType": "string"
            },
            {
              "name": "members",
              "type": "tuple[]",
              "internalType": "struct BlumaProtocol.Member[]",
              "components": [
                {
                  "name": "user",
                  "type": "address",
                  "internalType": "address"
                },
                {
                  "name": "joinTime",
                  "type": "uint256",
                  "internalType": "uint256"
                }
              ]
            },
            {
              "name": "messages",
              "type": "tuple[]",
              "internalType": "struct BlumaProtocol.Message[]",
              "components": [
                {
                  "name": "sender",
                  "type": "address",
                  "internalType": "address"
                },
                {
                  "name": "email",
                  "type": "string",
                  "internalType": "string"
                },
                {
                  "name": "text",
                  "type": "string",
                  "internalType": "string"
                },
                {
                  "name": "timestamp",
                  "type": "uint256",
                  "internalType": "uint256"
                }
              ]
            }
          ]
        }
      ],
      "stateMutability": "view"
    },
    {
      "type": "function",
      "name": "getAllEvents",
      "inputs": [],
      "outputs": [
        {
          "name": "events_",
          "type": "tuple[]",
          "internalType": "struct BlumaProtocol.Event[]",
          "components": [
            {
              "name": "eventId",
              "type": "uint32",
              "internalType": "uint32"
            },
            {
              "name": "title",
              "type": "bytes32",
              "internalType": "bytes32"
            },
            {
              "name": "imageUrl",
              "type": "string",
              "internalType": "string"
            },
            {
              "name": "location",
              "type": "string",
              "internalType": "string"
            },
            {
              "name": "description",
              "type": "string",
              "internalType": "string"
            },
            {
              "name": "creator",
              "type": "address",
              "internalType": "address"
            },
            {
              "name": "seats",
              "type": "uint32",
              "internalType": "uint32"
            },
            {
              "name": "capacity",
              "type": "uint32",
              "internalType": "uint32"
            },
            {
              "name": "regStartTime",
              "type": "uint256",
              "internalType": "uint256"
            },
            {
              "name": "regEndTime",
              "type": "uint256",
              "internalType": "uint256"
            },
            {
              "name": "regStatus",
              "type": "uint8",
              "internalType": "enum BlumaProtocol.RegStatus"
            },
            {
              "name": "eventStatus",
              "type": "uint8",
              "internalType": "enum BlumaProtocol.EventStatus"
            },
            {
              "name": "eventType",
              "type": "uint8",
              "internalType": "enum BlumaProtocol.EventType"
            },
            {
              "name": "eventStartTime",
              "type": "uint256",
              "internalType": "uint256"
            },
            {
              "name": "eventEndTime",
              "type": "uint256",
              "internalType": "uint256"
            },
            {
              "name": "ticketPrice",
              "type": "uint96",
              "internalType": "uint96"
            },
            {
              "name": "totalSales",
              "type": "uint256",
              "internalType": "uint256"
            },
            {
              "name": "createdAt",
              "type": "uint256",
              "internalType": "uint256"
            },
            {
              "name": "isCreatorPaid",
              "type": "bool",
              "internalType": "bool"
            }
          ]
        }
      ],
      "stateMutability": "view"
    },
    {
      "type": "function",
      "name": "getAllGroupMessages",
      "inputs": [
        {
          "name": "_groupId",
          "type": "uint32",
          "internalType": "uint32"
        }
      ],
      "outputs": [
        {
          "name": "",
          "type": "tuple[]",
          "internalType": "struct BlumaProtocol.Message[]",
          "components": [
            {
              "name": "sender",
              "type": "address",
              "internalType": "address"
            },
            {
              "name": "email",
              "type": "string",
              "internalType": "string"
            },
            {
              "name": "text",
              "type": "string",
              "internalType": "string"
            },
            {
              "name": "timestamp",
              "type": "uint256",
              "internalType": "uint256"
            }
          ]
        }
      ],
      "stateMutability": "view"
    },
    {
      "type": "function",
      "name": "getAllTickets",
      "inputs": [],
      "outputs": [
        {
          "name": "_tickets",
          "type": "tuple[]",
          "internalType": "struct BlumaProtocol.Ticket[]",
          "components": [
            {
              "name": "ticketId",
              "type": "uint32",
              "internalType": "uint32"
            },
            {
              "name": "eventId",
              "type": "uint32",
              "internalType": "uint32"
            },
            {
              "name": "owner",
              "type": "address",
              "internalType": "address"
            },
            {
              "name": "ticketCost",
              "type": "uint256",
              "internalType": "uint256"
            },
            {
              "name": "purchaseTime",
              "type": "uint256",
              "internalType": "uint256"
            },
            {
              "name": "numberOfTicket",
              "type": "uint32",
              "internalType": "uint32"
            }
          ]
        }
      ],
      "stateMutability": "view"
    },
    {
      "type": "function",
      "name": "getEventById",
      "inputs": [
        {
          "name": "_eventId",
          "type": "uint32",
          "internalType": "uint32"
        }
      ],
      "outputs": [
        {
          "name": "events_",
          "type": "tuple",
          "internalType": "struct BlumaProtocol.Event",
          "components": [
            {
              "name": "eventId",
              "type": "uint32",
              "internalType": "uint32"
            },
            {
              "name": "title",
              "type": "bytes32",
              "internalType": "bytes32"
            },
            {
              "name": "imageUrl",
              "type": "string",
              "internalType": "string"
            },
            {
              "name": "location",
              "type": "string",
              "internalType": "string"
            },
            {
              "name": "description",
              "type": "string",
              "internalType": "string"
            },
            {
              "name": "creator",
              "type": "address",
              "internalType": "address"
            },
            {
              "name": "seats",
              "type": "uint32",
              "internalType": "uint32"
            },
            {
              "name": "capacity",
              "type": "uint32",
              "internalType": "uint32"
            },
            {
              "name": "regStartTime",
              "type": "uint256",
              "internalType": "uint256"
            },
            {
              "name": "regEndTime",
              "type": "uint256",
              "internalType": "uint256"
            },
            {
              "name": "regStatus",
              "type": "uint8",
              "internalType": "enum BlumaProtocol.RegStatus"
            },
            {
              "name": "eventStatus",
              "type": "uint8",
              "internalType": "enum BlumaProtocol.EventStatus"
            },
            {
              "name": "eventType",
              "type": "uint8",
              "internalType": "enum BlumaProtocol.EventType"
            },
            {
              "name": "eventStartTime",
              "type": "uint256",
              "internalType": "uint256"
            },
            {
              "name": "eventEndTime",
              "type": "uint256",
              "internalType": "uint256"
            },
            {
              "name": "ticketPrice",
              "type": "uint96",
              "internalType": "uint96"
            },
            {
              "name": "totalSales",
              "type": "uint256",
              "internalType": "uint256"
            },
            {
              "name": "createdAt",
              "type": "uint256",
              "internalType": "uint256"
            },
            {
              "name": "isCreatorPaid",
              "type": "bool",
              "internalType": "bool"
            }
          ]
        }
      ],
      "stateMutability": "view"
    },
    {
      "type": "function",
      "name": "getEventGroup",
      "inputs": [
        {
          "name": "_groupId",
          "type": "uint32",
          "internalType": "uint32"
        }
      ],
      "outputs": [
        {
          "name": "group_",
          "type": "tuple",
          "internalType": "struct BlumaProtocol.EventGroup",
          "components": [
            {
              "name": "eventId",
              "type": "uint32",
              "internalType": "uint32"
            },
            {
              "name": "title",
              "type": "bytes32",
              "internalType": "bytes32"
            },
            {
              "name": "imageUrl",
              "type": "string",
              "internalType": "string"
            },
            {
              "name": "description",
              "type": "string",
              "internalType": "string"
            },
            {
              "name": "members",
              "type": "tuple[]",
              "internalType": "struct BlumaProtocol.Member[]",
              "components": [
                {
                  "name": "user",
                  "type": "address",
                  "internalType": "address"
                },
                {
                  "name": "joinTime",
                  "type": "uint256",
                  "internalType": "uint256"
                }
              ]
            },
            {
              "name": "messages",
              "type": "tuple[]",
              "internalType": "struct BlumaProtocol.Message[]",
              "components": [
                {
                  "name": "sender",
                  "type": "address",
                  "internalType": "address"
                },
                {
                  "name": "email",
                  "type": "string",
                  "internalType": "string"
                },
                {
                  "name": "text",
                  "type": "string",
                  "internalType": "string"
                },
                {
                  "name": "timestamp",
                  "type": "uint256",
                  "internalType": "uint256"
                }
              ]
            }
          ]
        }
      ],
      "stateMutability": "view"
    },
    {
      "type": "function",
      "name": "getGroupMember",
      "inputs": [
        {
          "name": "_groupId",
          "type": "uint32",
          "internalType": "uint32"
        },
        {
          "name": "_index",
          "type": "uint256",
          "internalType": "uint256"
        }
      ],
      "outputs": [
        {
          "name": "",
          "type": "tuple",
          "internalType": "struct BlumaProtocol.Member",
          "components": [
            {
              "name": "user",
              "type": "address",
              "internalType": "address"
            },
            {
              "name": "joinTime",
              "type": "uint256",
              "internalType": "uint256"
            }
          ]
        }
      ],
      "stateMutability": "view"
    },
    {
      "type": "function",
      "name": "getGroupMembers",
      "inputs": [
        {
          "name": "_eventId",
          "type": "uint32",
          "internalType": "uint32"
        }
      ],
      "outputs": [
        {
          "name": "_members",
          "type": "tuple[]",
          "internalType": "struct BlumaProtocol.Member[]",
          "components": [
            {
              "name": "user",
              "type": "address",
              "internalType": "address"
            },
            {
              "name": "joinTime",
              "type": "uint256",
              "internalType": "uint256"
            }
          ]
        }
      ],
      "stateMutability": "view"
    },
    {
      "type": "function",
      "name": "getTicket",
      "inputs": [
        {
          "name": "_addr",
          "type": "address",
          "internalType": "address"
        }
      ],
      "outputs": [
        {
          "name": "_ticket",
          "type": "tuple",
          "internalType": "struct BlumaProtocol.Ticket",
          "components": [
            {
              "name": "ticketId",
              "type": "uint32",
              "internalType": "uint32"
            },
            {
              "name": "eventId",
              "type": "uint32",
              "internalType": "uint32"
            },
            {
              "name": "owner",
              "type": "address",
              "internalType": "address"
            },
            {
              "name": "ticketCost",
              "type": "uint256",
              "internalType": "uint256"
            },
            {
              "name": "purchaseTime",
              "type": "uint256",
              "internalType": "uint256"
            },
            {
              "name": "numberOfTicket",
              "type": "uint32",
              "internalType": "uint32"
            }
          ]
        }
      ],
      "stateMutability": "view"
    },
    {
      "type": "function",
      "name": "getUser",
      "inputs": [
        {
          "name": "_addr",
          "type": "address",
          "internalType": "address"
        }
      ],
      "outputs": [
        {
          "name": "_user",
          "type": "tuple",
          "internalType": "struct BlumaProtocol.User",
          "components": [
            {
              "name": "email",
              "type": "string",
              "internalType": "string"
            },
            {
              "name": "userAddr",
              "type": "address",
              "internalType": "address"
            },
            {
              "name": "isRegistered",
              "type": "bool",
              "internalType": "bool"
            },
            {
              "name": "avatar",
              "type": "string",
              "internalType": "string"
            },
            {
              "name": "balance",
              "type": "uint256",
              "internalType": "uint256"
            }
          ]
        }
      ],
      "stateMutability": "view"
    },
    {
      "type": "function",
      "name": "groupChat",
      "inputs": [
        {
          "name": "_groupId",
          "type": "uint32",
          "internalType": "uint32"
        },
        {
          "name": "_text",
          "type": "string",
          "internalType": "string"
        }
      ],
      "outputs": [],
      "stateMutability": "nonpayable"
    },
    {
      "type": "function",
      "name": "initialize",
      "inputs": [
        {
          "name": "initialOwner",
          "type": "address",
          "internalType": "address"
        }
      ],
      "outputs": [],
      "stateMutability": "nonpayable"
    },
    {
      "type": "function",
      "name": "isRegistered",
      "inputs": [
        {
          "name": "_addr",
          "type": "address",
          "internalType": "address"
        }
      ],
      "outputs": [
        {
          "name": "",
          "type": "bool",
          "internalType": "bool"
        }
      ],
      "stateMutability": "view"
    },
    {
      "type": "function",
      "name": "joinGroup",
      "inputs": [
        {
          "name": "_eventId",
          "type": "uint32",
          "internalType": "uint32"
        }
      ],
      "outputs": [],
      "stateMutability": "nonpayable"
    },
    {
      "type": "function",
      "name": "owner",
      "inputs": [],
      "outputs": [
        {
          "name": "",
          "type": "address",
          "internalType": "address"
        }
      ],
      "stateMutability": "view"
    },
    {
      "type": "function",
      "name": "proxiableUUID",
      "inputs": [],
      "outputs": [
        {
          "name": "",
          "type": "bytes32",
          "internalType": "bytes32"
        }
      ],
      "stateMutability": "view"
    },
    {
      "type": "function",
      "name": "purchaseTicket",
      "inputs": [
        {
          "name": "_eventId",
          "type": "uint32",
          "internalType": "uint32"
        },
        {
          "name": "_numberOfTickets",
          "type": "uint32",
          "internalType": "uint32"
        }
      ],
      "outputs": [],
      "stateMutability": "nonpayable"
    },
    {
      "type": "function",
      "name": "refundFee",
      "inputs": [
        {
          "name": "_eventId",
          "type": "uint32",
          "internalType": "uint32"
        },
        {
          "name": "_numberOfTickets",
          "type": "uint32",
          "internalType": "uint32"
        }
      ],
      "outputs": [],
      "stateMutability": "nonpayable"
    },
    {
      "type": "function",
      "name": "renounceOwnership",
      "inputs": [],
      "outputs": [],
      "stateMutability": "nonpayable"
    },
    {
      "type": "function",
      "name": "transferOwnership",
      "inputs": [
        {
          "name": "newOwner",
          "type": "address",
          "internalType": "address"
        }
      ],
      "outputs": [],
      "stateMutability": "nonpayable"
    },
    {
      "type": "function",
      "name": "updateEventStatus",
      "inputs": [
        {
          "name": "_eventId",
          "type": "uint32",
          "internalType": "uint32"
        }
      ],
      "outputs": [],
      "stateMutability": "nonpayable"
    },
    {
      "type": "function",
      "name": "upgradeToAndCall",
      "inputs": [
        {
          "name": "newImplementation",
          "type": "address",
          "internalType": "address"
        },
        {
          "name": "data",
          "type": "bytes",
          "internalType": "bytes"
        }
      ],
      "outputs": [],
      "stateMutability": "payable"
    },
    {
      "type": "function",
      "name": "withdrawEventFee",
      "inputs": [
        {
          "name": "_eventId",
          "type": "uint32",
          "internalType": "uint32"
        }
      ],
      "outputs": [],
      "stateMutability": "nonpayable"
    },
    {
      "type": "event",
      "name": "EventClosed",
      "inputs": [
        {
          "name": "_eventId",
          "type": "uint32",
          "indexed": true,
          "internalType": "uint32"
        },
        {
          "name": "_currentTime",
          "type": "uint256",
          "indexed": true,
          "internalType": "uint256"
        }
      ],
      "anonymous": false
    },
    {
      "type": "event",
      "name": "EventCreated",
      "inputs": [
        {
          "name": "_totalEventsId",
          "type": "uint32",
          "indexed": true,
          "internalType": "uint32"
        },
        {
          "name": "_seatNumber",
          "type": "uint32",
          "indexed": true,
          "internalType": "uint32"
        },
        {
          "name": "_capacity",
          "type": "uint32",
          "indexed": true,
          "internalType": "uint32"
        }
      ],
      "anonymous": false
    },
    {
      "type": "event",
      "name": "GroupCreated",
      "inputs": [
        {
          "name": "_roomId",
          "type": "uint32",
          "indexed": true,
          "internalType": "uint32"
        },
        {
          "name": "imageUrl",
          "type": "string",
          "indexed": false,
          "internalType": "string"
        },
        {
          "name": "_title",
          "type": "bytes32",
          "indexed": false,
          "internalType": "bytes32"
        }
      ],
      "anonymous": false
    },
    {
      "type": "event",
      "name": "GroupJoinedSuccessfully",
      "inputs": [
        {
          "name": "_sender",
          "type": "address",
          "indexed": true,
          "internalType": "address"
        },
        {
          "name": "_eventId",
          "type": "uint32",
          "indexed": true,
          "internalType": "uint32"
        },
        {
          "name": "_joinedTimw",
          "type": "uint256",
          "indexed": true,
          "internalType": "uint256"
        }
      ],
      "anonymous": false
    },
    {
      "type": "event",
      "name": "Initialized",
      "inputs": [
        {
          "name": "version",
          "type": "uint64",
          "indexed": false,
          "internalType": "uint64"
        }
      ],
      "anonymous": false
    },
    {
      "type": "event",
      "name": "MessageSent",
      "inputs": [
        {
          "name": "sender",
          "type": "address",
          "indexed": true,
          "internalType": "address"
        },
        {
          "name": "groupId",
          "type": "uint32",
          "indexed": true,
          "internalType": "uint32"
        },
        {
          "name": "text",
          "type": "string",
          "indexed": false,
          "internalType": "string"
        },
        {
          "name": "timestamp",
          "type": "uint256",
          "indexed": false,
          "internalType": "uint256"
        }
      ],
      "anonymous": false
    },
    {
      "type": "event",
      "name": "OwnershipTransferred",
      "inputs": [
        {
          "name": "previousOwner",
          "type": "address",
          "indexed": true,
          "internalType": "address"
        },
        {
          "name": "newOwner",
          "type": "address",
          "indexed": true,
          "internalType": "address"
        }
      ],
      "anonymous": false
    },
    {
      "type": "event",
      "name": "RefundIssued",
      "inputs": [
        {
          "name": "buyer",
          "type": "address",
          "indexed": true,
          "internalType": "address"
        },
        {
          "name": "_ticketId",
          "type": "uint32",
          "indexed": true,
          "internalType": "uint32"
        },
        {
          "name": "_eventId",
          "type": "uint32",
          "indexed": true,
          "internalType": "uint32"
        },
        {
          "name": "amount",
          "type": "uint256",
          "indexed": false,
          "internalType": "uint256"
        }
      ],
      "anonymous": false
    },
    {
      "type": "event",
      "name": "RegistrationClose",
      "inputs": [
        {
          "name": "_currentTime",
          "type": "uint256",
          "indexed": true,
          "internalType": "uint256"
        },
        {
          "name": "_status",
          "type": "uint8",
          "indexed": true,
          "internalType": "uint8"
        }
      ],
      "anonymous": false
    },
    {
      "type": "event",
      "name": "TicketPurchased",
      "inputs": [
        {
          "name": "buyer",
          "type": "address",
          "indexed": true,
          "internalType": "address"
        },
        {
          "name": "_eventId",
          "type": "uint32",
          "indexed": true,
          "internalType": "uint32"
        },
        {
          "name": "numberOfTickets",
          "type": "uint32",
          "indexed": false,
          "internalType": "uint32"
        }
      ],
      "anonymous": false
    },
    {
      "type": "event",
      "name": "Upgraded",
      "inputs": [
        {
          "name": "implementation",
          "type": "address",
          "indexed": true,
          "internalType": "address"
        }
      ],
      "anonymous": false
    },
    {
      "type": "error",
      "name": "ALREADY_PAID",
      "inputs": []
    },
    {
      "type": "error",
      "name": "AddressEmptyCode",
      "inputs": [
        {
          "name": "target",
          "type": "address",
          "internalType": "address"
        }
      ]
    },
    {
      "type": "error",
      "name": "EMPTY_INPUT_FIELD",
      "inputs": []
    },
    {
      "type": "error",
      "name": "ERC1967InvalidImplementation",
      "inputs": [
        {
          "name": "implementation",
          "type": "address",
          "internalType": "address"
        }
      ]
    },
    {
      "type": "error",
      "name": "ERC1967NonPayable",
      "inputs": []
    },
    {
      "type": "error",
      "name": "EVENT_NOT_CLOSED",
      "inputs": []
    },
    {
      "type": "error",
      "name": "FailedInnerCall",
      "inputs": []
    },
    {
      "type": "error",
      "name": "GROUP_ALREADY_EXISTS",
      "inputs": []
    },
    {
      "type": "error",
      "name": "INSUFFICIENT_BALANCE",
      "inputs": []
    },
    {
      "type": "error",
      "name": "INSUFFICIENT_TICKET_PURCHASED",
      "inputs": []
    },
    {
      "type": "error",
      "name": "INVALID_EVENT_ID",
      "inputs": []
    },
    {
      "type": "error",
      "name": "INVALID_ID",
      "inputs": []
    },
    {
      "type": "error",
      "name": "INVALID_NOT_AUTHORIZED",
      "inputs": []
    },
    {
      "type": "error",
      "name": "INVALID_TIME_SET",
      "inputs": []
    },
    {
      "type": "error",
      "name": "InvalidInitialization",
      "inputs": []
    },
    {
      "type": "error",
      "name": "NOT_CREATOR",
      "inputs": []
    },
    {
      "type": "error",
      "name": "NOT_ENOUGH_AVAILABLE_SEAT",
      "inputs": []
    },
    {
      "type": "error",
      "name": "NOT_OWNER",
      "inputs": []
    },
    {
      "type": "error",
      "name": "NOT_PAID_EVENT",
      "inputs": []
    },
    {
      "type": "error",
      "name": "NO_ALLOWANCE",
      "inputs": []
    },
    {
      "type": "error",
      "name": "NotInitializing",
      "inputs": []
    },
    {
      "type": "error",
      "name": "OwnableInvalidOwner",
      "inputs": [
        {
          "name": "owner",
          "type": "address",
          "internalType": "address"
        }
      ]
    },
    {
      "type": "error",
      "name": "OwnableUnauthorizedAccount",
      "inputs": [
        {
          "name": "account",
          "type": "address",
          "internalType": "address"
        }
      ]
    },
    {
      "type": "error",
      "name": "REGISTRATION_CLOSE",
      "inputs": []
    },
    {
      "type": "error",
      "name": "REGISTRATION_NOT_OPEN",
      "inputs": []
    },
    {
      "type": "error",
      "name": "USER_NOT_REGISTERED",
      "inputs": []
    },
    {
      "type": "error",
      "name": "UUPSUnauthorizedCallContext",
      "inputs": []
    },
    {
      "type": "error",
      "name": "UUPSUnsupportedProxiableUUID",
      "inputs": [
        {
          "name": "slot",
          "type": "bytes32",
          "internalType": "bytes32"
        }
      ]
    }
  ],
  "bytecode": {
    "object": "0x60a0806040523461002a5730608052613ba99081610030823960805181818161185201526119940152f35b600080fdfe6080604052600436101561001257600080fd5b60003560e01c806303e96fe3146127515780630a9bfef5146127145780630f9fcf48146124555780631755b97a1461237c578063331ef976146121505780633405741d14611c395780633809f6f514611be55780634717dea914611b735780634f1ef2861461194557806350312c9e146118bc57806352d1902d1461183f5780636f77926b1461172e578063715018a6146116c457806385a646c9146116225780638da5cb5b146115ec578063909fdec914611502578063a87f86f9146114e1578063ad3cb1cc1461149b578063b33f650e14611337578063be7fb5d71461118b578063c27a500d146110b3578063c3c5a5471461106e578063c4d66de814610f15578063cd71ed3514610e39578063dbc96e9914610311578063ec976a0a146102b6578063eec932f7146101805763f2fde38b1461015057600080fd5b3461017b57602036600319011261017b5761017961016c612868565b6101746135fd565b61354b565b005b600080fd5b3461017b57602036600319011261017b5761019961287e565b6101a2816135bf565b33600052600560205263ffffffff60406000209116908160005260205260ff60406000205416156102a45780600052600460205260046040600020016101e66135dd565b90604051916101f48361291a565b33835260208301528054600160401b81101561028e57610219916001820181556130a3565b91909161027857805182546001600160a01b0319166001600160a01b03919091161782556020015160019091015561024f6135dd565b90337ff11404c60069f7d8b6ecebb855f6ac5080f851b85152f4cb855640c49a30c2dd600080a4005b634e487b7160e01b600052600060045260246000fd5b634e487b7160e01b600052604160045260246000fd5b60405163082e385d60e01b8152600490fd5b3461017b57602036600319011261017b5763ffffffff6102d461287e565b6102dd816135bf565b16600052600460205261030d6102f96004604060002001612fd5565b6040519182916020835260208301906129fd565b0390f35b3461017b5761016036600319011261017b576024356001600160401b03811161017b57610342903690600401612b56565b906044356001600160401b03811161017b57610362903690600401612b56565b6064356001600160401b03811161017b57610381903690600401612b56565b92909463ffffffff608435166084350361017b5761012435946001600160601b038616860361017b576101443595861515870361017b5733600052600160205260ff60016040600020015460a01c1615610e27576103e86103e33687876129a8565b6135d2565b6103f66103e33685856129a8565b6104046103e336888b6129a8565b61040f60a435613636565b61041a60c435613636565b61042560e435613636565b61043161010435613636565b6104436001600160601b038216613636565b600163ffffffff6084351610610e15576104626101043560e43561363f565b61047060c43560a43561363f565b60005463ffffffff610483818316612f42565b16809163ffffffff1916176000556000526002602052600160406000209760a4356104ac6135dd565b1015610e045760088901805460ff191660021790555b151503610dd4576008870162ff00001981541690556001600160601b03600b880191166001600160601b03198254161790555b63ffffffff6000541663ffffffff1987541617865560043560018701556001600160401b03821161028e5761053a826105316002890154612d6f565b60028901612efb565b600090601f8311600114610d635761056b929160009183610d58575b50508160011b916000199060031b1c19161790565b60028501555b6001600160401b03821161028e57610599826105906004870154612d6f565b60048701612efb565b600090601f8311600114610ce7576105c9929160009183610cdc5750508160011b916000199060031b1c19161790565b60048301555b6005820180546001600160a01b031916331790556001600160401b03811161028e5761060b816106026003850154612d6f565b60038501612efb565b600092601f8211600114610c6d5761063c92938291600092610c625750508160011b916000199060031b1c19161790565b60038201555b60058101805463ffffffff60c01b191660843560c01b63ffffffff60c01b1617905560a435600682015560c435600782015560e435600982015561010435600a82015560088101805461ff00191661020017905561069e6135dd565b600d820155600654600160401b81101561028e57600181018060065581101561085d57600660005281600f8202600080516020613b348339815191520103610885575b5063ffffffff8154166106f3816135bf565b80600052600460205263ffffffff60406000205416610873578060005260026020526040600020610722612f7c565b828152600182019182546020830152600461076860028301926040516107538161074c8188612da9565b038261296c565b604086015261074c6040518094819301612da9565b60608301528360005260046020526107848260406000206136a2565b60075492600160401b84101561028e57600184018060075584101561085d576107fb6108109360067f45881a834c1c2b1081ee9f2063da43f83e3d9f2ba737ca954a4098d94bce97d5966007600052027fa66cc928b5edb82af9bd49922954155ab7b0942694bea4ce44661d9a8736c688016136a2565b54604051928392604084526040840190612da9565b9060208301520390a263ffffffff6000541663ffffffff6005816084351693015460a01c16907fac3c2fbb08f906d92c1b4be6fa025f63708bafa70869110e931d718b9532c411600080a4005b634e487b7160e01b600052603260045260246000fd5b60405163e955b73b60e01b8152600490fd5b63ffffffff82541663ffffffff19600f8302600080516020613b3483398151915201541617600f8202600080516020613b34833981519152015560018201547ff652222313e28459528d920b65115c16c04f3efc82aaedc97be59f3f377c0d40600f8302015561091d600283017ff652222313e28459528d920b65115c16c04f3efc82aaedc97be59f3f377c0d41600f840201613472565b61094f600383017ff652222313e28459528d920b65115c16c04f3efc82aaedc97be59f3f377c0d42600f840201613472565b610981600483017ff652222313e28459528d920b65115c16c04f3efc82aaedc97be59f3f377c0d43600f840201613472565b6005820180547ff652222313e28459528d920b65115c16c04f3efc82aaedc97be59f3f377c0d44600f84020180546001600160a01b039092166001600160a01b0319831681178255925463ffffffff60a01b166001600160c01b0319909216909217178155610a0b906005840154815463ffffffff60c01b191663ffffffff60c01b909116179055565b60068201547ff652222313e28459528d920b65115c16c04f3efc82aaedc97be59f3f377c0d45600f8302015560078201547ff652222313e28459528d920b65115c16c04f3efc82aaedc97be59f3f377c0d46600f8302015560ff600883015416610a7481612b83565b600080516020613b54833981519152600f83020154918160ff19841617600080516020613b54833981519152600f83020155600884015492610abb60ff8560081c16612b83565b61ff0084168361ffff1983161717600080516020613b54833981519152600f84020155600885015493600260ff8660101c161015610c4c5761ff00600f9462ff00007ff652222313e28459528d920b65115c16c04f3efc82aaedc97be59f3f377c0d4d97169362ffffff19161791161717600080516020613b54833981519152838302015560098401547ff652222313e28459528d920b65115c16c04f3efc82aaedc97be59f3f377c0d488383020155600a8401547ff652222313e28459528d920b65115c16c04f3efc82aaedc97be59f3f377c0d4983830201557ff652222313e28459528d920b65115c16c04f3efc82aaedc97be59f3f377c0d4a828202016001600160601b03600b860154166001600160601b0319825416179055600c8401547ff652222313e28459528d920b65115c16c04f3efc82aaedc97be59f3f377c0d4b8383020155600d8401547ff652222313e28459528d920b65115c16c04f3efc82aaedc97be59f3f377c0d4c8383020155020160ff600e83015416151560ff80198354169116179055816106e1565b634e487b7160e01b600052602160045260246000fd5b013590508480610556565b600383016000526020600020906000945b601f1984168610610cc457600194955083601f19811610610caa575b505050811b016003820155610642565b0135600019600384901b60f8161c19169055838080610c9a565b91602060018192858501358155019301950194610c7e565b013590508680610556565b600485939293016000526020600020906000935b601f1984168510610d40576001945083601f19811610610d26575b505050811b0160048301556105cf565b0135600019600384901b60f8161c19169055858080610d16565b81810135835560209485019460019093019201610cfb565b013590508880610556565b600287939293016000526020600020906000935b601f1984168510610dbc576001945083601f19811610610da2575b505050811b016002850155610571565b0135600019600384901b60f8161c19169055878080610d92565b81810135835560209485019460019093019201610d77565b50600b860180546bffffffffffffffffffffffff1916905560088601805462ff00001916620100001790556104f5565b60088901805460ff191690556104c2565b604051631ee8943b60e21b8152600490fd5b604051633069384b60e21b8152600490fd5b3461017b57602036600319011261017b5763ffffffff610e5761287e565b6000610240604051610e6881612950565b82815282602082015260606040820152606080820152606060808201528260a08201528260c08201528260e08201528261010082015282610120820152826101408201528261016082015282610180820152826101a0820152826101c0820152826101e082015282610200820152826102208201520152610ee8816135bf565b16600052600260205261030d610f016040600020613331565b604051918291602083526020830190612b8d565b3461017b57602036600319011261017b57610f2e612868565b7ff0c57e16840df040f15088dc2f81fe391c3923bec73e23a9662efc9c229c6a0090815460ff8160401c1615916001600160401b03821680159081611066575b600114908161105c575b159081611053575b506110415767ffffffffffffffff1982166001178455610fb19183611022575b50610fa9613a6f565b610174613a6f565b610fb9613a6f565b600980546001600160a01b031916734cb6cef87d8cadf966b455e8bd58fff32aba49d1179055610fe557005b68ff00000000000000001981541690557fc7f505b2f371ae2175ee4913f4499e1f2633a7b5936321eed1cdaeb6115181d2602060405160018152a1005b68ffffffffffffffffff19166801000000000000000117845584610fa0565b60405163f92ee8a960e01b8152600490fd5b90501585610f80565b303b159150610f78565b849150610f6e565b3461017b57602036600319011261017b576001600160a01b0361108f612868565b166000526001602052602060ff60016040600020015460a01c166040519015158152f35b3461017b57600036600319011261017b576006546110d081612cb4565b906110de604051928361296c565b80825260209081830190816006600052600080516020613b348339815191526000915b8383106111685750505050604051918083019381845251809452604083019360408160051b85010192916000955b82871061113c5785850386f35b909192938280611158600193603f198a82030186528851612b8d565b960192019601959291909261112f565b600f8660019261117a859a999a613331565b815201920192019190959495611101565b3461017b57604036600319011261017b576111a461287e565b6024356001600160401b03811161017b576111c863ffffffff913690600401612b56565b9190926111d4816135bf565b6111e26103e33685876129a8565b1691826000526004602052604060002090600080600484018054915b828110611306575b505050156102a4576040519161121b83612935565b600083526020830160056060928383526040860184815261125a8588019460008652336000526001602052611261604060002060405193848092612da9565b038361296c565b523387526112703689886129a8565b905261127a6135dd565b835201805494600160401b86101561028e576001860180835586101561085d577fd643c4cb96915f246339ac52f899dfc112f2ccf8254cca6b9cb9d0b8f0276e10956112d29260005260206000209060021b01613172565b5184604051936040855281604086015283850137600083860183015260208301523393601f01601f191682018290030190a3005b61131081836130a3565b50546001600160a01b03163314611329576001016111fe565b505050506001858080611206565b3461017b5760208060031936011261017b5761135161287e565b61135a816135bf565b63ffffffff81166000526002825260406000209033600052600183526113846040600020916130bf565b600160ff600884015460081c1661139a81612b83565b036114895760058201546001600160a01b0390339082160361147757600e83019081549060ff82166114655760038694611423946001600c6000990195898754975560ff1916179055016113ef838254612f6f565b905560095460405163a9059cbb60e01b81523360048201526024810193909352919485939190921691839182906044820190565b03925af180156114595761143357005b8161017992903d10611452575b61144a818361296c565b810190612d57565b503d611440565b6040513d6000823e3d90fd5b60405163d2e53ca760e01b8152600490fd5b604051632cff942760e01b8152600490fd5b604051631988a70d60e01b8152600490fd5b3461017b57600036600319011261017b5761030d6040516114bb8161291a565b60058152640352e302e360dc1b60208201526040519182916020835260208301906128a4565b3461017b57602036600319011261017b576101796114fd61287e565b6130bf565b3461017b57600036600319011261017b5760075461151f81612cb4565b9061152d604051928361296c565b808252602090818301908160076000527fa66cc928b5edb82af9bd49922954155ab7b0942694bea4ce44661d9a8736c6886000915b8383106115c95750505050604051918083019381845251809452604083019360408160051b85010192916000955b82871061159d5785850386f35b9091929382806115b9600193603f198a82030186528851612a50565b9601920196019592919092611590565b6006866001926115db859a999a61302b565b815201920192019190959495611562565b3461017b57600036600319011261017b57600080516020613b14833981519152546040516001600160a01b039091168152602090f35b3461017b57604036600319011261017b5761163b61287e565b63ffffffff60243591600060206040516116548161291a565b8281520152611662816135bf565b16600052600460205260046040600020019081548110156116b25761168c611692916040936130a3565b50612fae565b815181516001600160a01b0316815260209182015191810191909152f35bf35b6040516316a7994d60e21b8152600490fd5b3461017b57600036600319011261017b576116dd6135fd565b600080516020613b1483398151915280546001600160a01b031981169091556000906001600160a01b03167f8be0079c531659141344cd1fd0a4f28419497f9722a3daafe3b4186f6b6457e08280a3005b3461017b5760208060031936011261017b5760a09061174b612868565b906000608060405161175c816128ff565b6060815282848201528260408201526060808201520152600180841b038092166000526001815261183460406000209260405193611799856128ff565b6040516117aa8161074c8185612da9565b8552600181015484860192808216845260ff6040880192891c16151582526118126003604051946117e9866117e28160028501612da9565b038761296c565b60608a0195865201549660808901978852604051998a99828b5251918a015260c08901906128a4565b9351166040870152511515606086015251848203601f190160808601526128a4565b905160a08301520390f35b3461017b57600036600319011261017b577f00000000000000000000000000000000000000000000000000000000000000006001600160a01b031630036118aa5760206040517f360894a13ba1a3210667c828492db98dca3e2076cc3735a920a3ca505d382bbc8152f35b60405163703e46dd60e11b8152600490fd5b3461017b57600036600319011261017b576009546040516370a0823160e01b815230600482015290602090829060249082906001600160a01b03165afa801561145957600090611912575b602090604051908152f35b506020813d60201161193d575b8161192c6020938361296c565b8101031261017b5760209051611907565b3d915061191f565b604036600319011261017b57611959612868565b6024356001600160401b03811161017b573660238201121561017b576119899036906024816004013591016129a8565b906001600160a01b037f00000000000000000000000000000000000000000000000000000000000000008116308114908115611b45575b506118aa576119cd6135fd565b6040516352d1902d60e01b8152908216916020918281600481875afa60009181611b16575b50611a1057604051634c9c8ce360e01b815260048101859052602490fd5b9284937f360894a13ba1a3210667c828492db98dca3e2076cc3735a920a3ca505d382bbc90818103611afe5750823b15611ae55780546001600160a01b03191682179055604051907fbc7cd75a20ee27fd9adebab32041f755214dbc6bffa90cc0225b39da2e5c2d3b600080a2835115611acb5750600080848461017996519101845af4903d15611ac2573d611aa58161298d565b90611ab3604051928361296c565b8152600081943d92013e613ab0565b60609250613ab0565b9250505034611ad657005b63b398979f60e01b8152600490fd5b604051634c9c8ce360e01b815260048101839052602490fd5b60249060405190632a87526960e21b82526004820152fd5b9091508381813d8311611b3e575b611b2e818361296c565b8101031261017b575190866119f2565b503d611b24565b9050817f360894a13ba1a3210667c828492db98dca3e2076cc3735a920a3ca505d382bbc54161415846119c0565b3461017b57602036600319011261017b57611b8c612868565b600060a0604051611b9c816128e4565b828152826020820152826040820152826060820152826080820152015260018060a01b0316600052600360205260c0611bd86040600020612ccb565b6116b0604051809261281f565b3461017b57602036600319011261017b5763ffffffff611c0361287e565b611c0b612f7c565b5016600052600460205261030d611c25604060002061302b565b604051918291602083526020830190612a50565b3461017b57604036600319011261017b57611c5261287e565b611c5a612891565b611c63826135bf565b63ffffffff9182811692836000526020906002825260406000206008810160ff815416611c8f81612b83565b61213e5760058201611cca611caa8886845460a01c16612f57565b825463ffffffff60a01b191660a09190911b63ffffffff60a01b16178255565b805484808260c01c169160a01c161161212c5760005467ffffffff00000000611cf68683891c16612f42565b871b169067ffffffff00000000191617600055336000526003855260406000209260ff6000935460101c166002811015610c4c5715611f92575b5080611d458886611d65945460a01c16612f57565b815463ffffffff60a01b191660a09190911b63ffffffff60a01b16179055565b6000548254600160401b600160e01b031991861c85169190911667ffffffff00000001600160e01b0319909116173360401b600160401b600160e01b031617825563ffffffff1990611de3611db86135dd565b9660028501978855849067ffffffff0000000082549160201b169067ffffffff000000001916179055565b611df260018401918254612f6f565b8155600383019283548386611e098b828516612f57565b16911617845560085491600160401b83101561028e57600183018060085583101561085d577fc541e3defd92fd2d8306e9c91b36c15f096115c41c7a9a36ac548a487d8891aa97869360021b91827ff3f7a9fe364faab93b216da50a3214154f22a0a2b415b23a84c8169e8b636ee30193808503611eb6575b8c8c8c8c89336000526005825260406000208560005282526040600020600160ff19825416179055604051931683523392a3005b80548554881690871617808655815467ffffffff0000000019909116908b1c871660201b67ffffffff00000000161785557ff3f7a9fe364faab93b216da50a3214154f22a0a2b415b23a84c8169e8b636ee694611f3091548154600160401b600160e01b031916600160401b600160e01b03909116179055565b547ff3f7a9fe364faab93b216da50a3214154f22a0a2b415b23a84c8169e8b636ee4830155547ff3f7a9fe364faab93b216da50a3214154f22a0a2b415b23a84c8169e8b636ee582015501925416908254161790558580828180808080611e82565b9091506001600160601b03611faf81600b84015416868a16612d23565b169160018060a01b0360095416916040516370a0823160e01b81523360048201528781602481875afa80156114595785916000916120fb575b50106120e957604051636eb1769f60e11b81523360048201523060248201528781604481875afa80156114595785916000916120b8575b50106120a657866000936064604051809681936323b872dd60e01b83523360048401523060248401528960448401525af190811561145957611d6593600c92612089575b5001612070848254612f6f565b905560018401612081848254612f6f565b905590611d30565b61209f90893d8b116114525761144a818361296c565b508b612063565b60405163ea75ebd560e01b8152600490fd5b809250898092503d83116120e2575b6120d1818361296c565b8101031261017b578490518c61201f565b503d6120c7565b604051632858f9ab60e11b8152600490fd5b809250898092503d8311612125575b612114818361296c565b8101031261017b578490518c611fe8565b503d61210a565b6040516374a227cd60e01b8152600490fd5b6040516305fb6d9960e41b8152600490fd5b3461017b57606036600319011261017b576001600160401b0360043581811161017b576121819036906004016129df565b906024356001600160a01b038116919082900361017b5760443581811161017b576121b09036906004016129df565b916121ba846135d2565b6121c3836135d2565b8060005260019360209185835260406000209180519085821161028e576121f4826121ee8654612d6f565b86612efb565b8490601f83116001146123145791806122289260029695946000926123095750508160011b916000199060031b1c19161790565b82555b81870180546001600160a81b031916909117600160a01b17905584519101949092831161028e57612266836122608754612d6f565b87612efb565b81601f84116001146122a557505081906122969360009261229a5750508160011b916000199060031b1c19161790565b9055005b015190508480610556565b91909383601f1981168760005284600020946000905b888383106122ef57505050106122d6575b505050811b019055005b015160001960f88460031b161c191690558380806122cc565b8587015188559096019594850194879350908101906122bb565b015190508a80610556565b9392918891601f1982169085600052876000209160005b8982821061236657505096836002981061234d575b505050811b01825561222b565b015160001960f88460031b161c19169055898080612340565b838a015185558d9690940193928301920161232b565b3461017b5760208060031936011261017b5763ffffffff61239b61287e565b6123a4816135bf565b16600052600481526123bc6005604060002001612e3f565b6040519082820192808352815180945260408301938160408260051b8601019301916000955b8287106123ef5785850386f35b909192938280600192603f1989820301855287519061243b6124296080878060a01b038551168452858501519080878601528401906128a4565b604084015183820360408501526128a4565b9160608091015191015296019201960195929190926123e2565b3461017b57604036600319011261017b5761246e61287e565b612476612891565b90612480816135bf565b63ffffffff908181169283600052602092600284526124a36040600020936135bf565b846000526002845260406000206124b86135dd565b6007820154106126b4575b503360005260038452604060002091600884015460ff8160101c166002811015610c4c576126a25760ff166124f781612b83565b6126905782546001600160a01b03919033604082901c84160361267e57838891881c160361266c57600384018381541684831680911061265a57600c9061254d6001600160601b039182600b8b01541690612d23565b169661256660058201611d458689835460a01c16612d41565b01805490878203918211612644575583612584825493828516612d41565b16809263ffffffff19161790551561261f575b60095460405163a9059cbb60e01b8152336004820152602481018690529391869185916044918391600091165af1928315611459577f4f6fb365c29f3632d91fcd919dbfdf50155c34cd0ea613bd43e7e76529fec43593612602575b505416926040519283523392a4005b61261890863d88116114525761144a818361296c565b50866125f3565b33600052600585526040600020866000528552604060002060ff198154169055612597565b634e487b7160e01b600052601160045260246000fd5b60405163a2ed46e160e01b8152600490fd5b60405163b790ffed60e01b8152600490fd5b6040516338ebc58960e11b8152600490fd5b604051630738c50360e41b8152600490fd5b6040516380e4469160e01b8152600490fd5b6008018054600160ff82166126c881612b83565b036126d4575b506124c3565b60019060ff191617905560016126e86135dd565b7f9c8ea6489f3baa31d321639e3a41ad67158fa673511a98870906b5a9eced0dd4600080a385806126ce565b3461017b57602036600319011261017b576001600160a01b03612735612868565b1660005260016020526020600360406000200154604051908152f35b3461017b57600036600319011261017b5760085461276e81612cb4565b61277b604051918261296c565b81815260209060208101928360086000527ff3f7a9fe364faab93b216da50a3214154f22a0a2b415b23a84c8169e8b636ee36000915b83831061280257604080516020808252875190820181905289928201908960005b8281106127df5784840385f35b9091928260c0826127f36001948a5161281f565b019601910194929190946127d2565b60048660019261281185612ccb565b8152019201920191906127b1565b60a0908163ffffffff91828151168552826020820151166020860152600180831b0360408201511660408601526060810151606086015260808101516080860152015116910152565b600435906001600160a01b038216820361017b57565b6004359063ffffffff8216820361017b57565b6024359063ffffffff8216820361017b57565b919082519283825260005b8481106128d0575050826000602080949584010152601f8019910116010190565b6020818301810151848301820152016128af565b60c081019081106001600160401b0382111761028e57604052565b60a081019081106001600160401b0382111761028e57604052565b604081019081106001600160401b0382111761028e57604052565b608081019081106001600160401b0382111761028e57604052565b61026081019081106001600160401b0382111761028e57604052565b90601f801991011681019081106001600160401b0382111761028e57604052565b6001600160401b03811161028e57601f01601f191660200190565b9291926129b48261298d565b916129c2604051938461296c565b82948184528183011161017b578281602093846000960137010152565b9080601f8301121561017b578160206129fa933591016129a8565b90565b90815180825260208080930193019160005b828110612a1d575050505090565b9091929382604082612a4460019489516020809160018060a01b0381511684520151910152565b01950193929101612a0f565b63ffffffff81511682526020908181015182840152604091612a81604083015160c0604087015260c08601906128a4565b91612a9a606093606083015187820360608901526128a4565b9260a0612ab5608095608085015189820360808b01526129fd565b9201519560a08184039101528551938483528383019184808760051b8601019801966000945b878610612aee5750505050505050505090565b9091929394959697988780600192601f198582030189528c5190848060a01b0382511681528780612b3d612b2d868601518d888701528d8601906128a4565b8a8601518582038c8701526128a4565b9301519101529b01960196019497969593929190612adb565b9181601f8401121561017b578235916001600160401b03831161017b576020838186019501011161017b57565b60031115610c4c57565b9061026091612be9612bd7612bc563ffffffff95868551168652602085015160208701526040850151908060408801528601906128a4565b606084015185820360608701526128a4565b608083015184820360808601526128a4565b9260018060a01b0360a08301511660a08401528060c08301511660c084015260e08201511660e0830152610100808201519083015261012080820151908301526101408082015190612c3a82612b83565b8301526101608082015190612c4e82612b83565b83015261018080820151906002821015610c4c578301526101a080820151908301526101c080820151908301526101e06001600160601b038183015116908301526102008082015190830152610220808201519083015261024080910151151591015290565b6001600160401b03811161028e5760051b60200190565b90604051612cd8816128e4565b60a08193600381549163ffffffff928381168652838160201c166020870152600180861b039060401c1660408601526001810154606086015260028101546080860152015416910152565b9190916001600160601b038080941691160291821691820361264457565b63ffffffff918216908216039190821161264457565b9081602091031261017b5751801515810361017b5790565b90600182811c92168015612d9f575b6020831014612d8957565b634e487b7160e01b600052602260045260246000fd5b91607f1691612d7e565b805460009392612db882612d6f565b91828252602093600191600181169081600014612e205750600114612ddf575b5050505050565b90939495506000929192528360002092846000945b838610612e0c57505050500101903880808080612dd8565b805485870183015294019385908201612df4565b60ff19168685015250505090151560051b010191503880808080612dd8565b908154612e4b81612cb4565b92604093612e5c604051918261296c565b82815280946020809201926000526020600020906000935b858510612e8357505050505050565b6004846001928451612e9481612935565b848060a01b0387541681528551612eb18161074c81898c01612da9565b838201528551612ec88161074c8160028c01612da9565b8682015260038701546060820152815201930194019391612e74565b818110612eef575050565b60008155600101612ee4565b9190601f8111612f0a57505050565b612f36926000526020600020906020601f840160051c83019310612f38575b601f0160051c0190612ee4565b565b9091508190612f29565b90600163ffffffff8093160191821161264457565b91909163ffffffff8080941691160191821161264457565b9190820180921161264457565b60405190612f89826128e4565b606060a083600081526000602082015282604082015282808201528260808201520152565b90604051612fbb8161291a565b82546001600160a01b031681526001909201546020830152565b908154612fe181612cb4565b92612fef604051948561296c565b818452600090815260208082208186015b84841061300e575050505050565b60028360019261301d85612fae565b815201920193019290613000565b90604051613038816128e4565b60a061309e6005839563ffffffff8154168552600181015460208601526040516130698161074c8160028601612da9565b60408601526040516130828161074c8160038601612da9565b606086015261309360048201612fd5565b608086015201612e3f565b910152565b805482101561085d5760005260206000209060011b0190600090565b63ffffffff906130ce816135bf565b1680600052600260205260406000206130e56135dd565b600982015411158061315d575b1561310657600801805461ff001916905550565b61310e6135dd565b600a8201541061311d575b5050565b600801805461ff0019166101001790556131356135dd565b907f835839f42ff642197e82f2887491db41a51c32dc7004091799724e9e3d6f2489600080a3565b506131666135dd565b600a82015410156130f2565b9060018060a01b038151166001600160601b0360a01b83541617825560018083016020808401519182516001600160401b039384821161028e576131c0826131ba8554612d6f565b85612efb565b8390601f83116001146132cf576131ef9291600091836132555750508160011b916000199060031b1c19161790565b90555b6002850192604085015190815193841161028e57613214846122608754612d6f565b82601f851160011461326057505082600395936060959361324b936000926132555750508160011b916000199060031b1c19161790565b90555b0151910155565b015190503880610556565b91601f949391941984168660005283600020936000905b8282106132b857505091600397959391856060989694106132a0575b505050811b01905561324e565b015160001983891b60f8161c19169055388080613293565b808886978294978701518155019601940190613277565b869291601f1983169185600052866000209260005b8882821061331b5750508411613302575b505050811b0190556131f2565b015160001960f88460031b161c191690553880806132f5565b8385015186558b979095019493840193016132e4565b9060405161333e81612950565b809263ffffffff808254168352600182015460208401526040516133698161074c8160028701612da9565b60408401526040516133828161074c8160038701612da9565b606084015260405161339b8161074c8160048701612da9565b6080840152600582015460018060a01b03811660a0850152818160a01c1660c085015260c01c1660e08301526006810154610100830152600781015461012083015260ff60088201548181166133f081612b83565b610140850152818160081c1661340581612b83565b61016085015260101c16906002821015610c4c57600e60ff916102409361018086015260098101546101a0860152600a8101546101c08601526001600160601b03600b820154166101e0860152600c810154610200860152600d8101546102208601520154161515910152565b90808214613119576134848154612d6f565b906001600160401b03821161028e576134a1826131ba8554612d6f565b600090601f83116001146134e0576134d19291600091836134d55750508160011b916000199060031b1c19161790565b9055565b015490503880610556565b815260208082208483528183209291601f1985169083905b828210613532575050908460019594939210613519575b505050811b019055565b015460001960f88460031b161c1916905538808061350f565b84958192958501548155600180910196019401906134f8565b6001600160a01b039081169081156135a657600080516020613b1483398151915280546001600160a01b031981168417909155167f8be0079c531659141344cd1fd0a4f28419497f9722a3daafe3b4186f6b6457e0600080a3565b604051631e4fbdf760e01b815260006004820152602490fd5b63ffffffff80600054169116116116b257565b6001905110610e1557565b6103e8804202904282048114421517156126445781018091116126445790565b600080516020613b14833981519152546001600160a01b0316330361361e57565b60405163118cdaa760e01b8152336004820152602490fd5b600111610e1557565b101561364757565b60405163489eca6760e01b8152600490fd5b6136638154612d6f565b908161366d575050565b81601f6000931160011461367f575055565b90808391825261369e601f60208420940160051c840160018501612ee4565b5555565b63ffffffff82511663ffffffff19825416178155600191602090818101518484015560029182840160408301519081516001600160401b039283821161028e576136f0826131ba8554612d6f565b8490601f8311600114613a0d5761371f9291600091836132555750508160011b916000199060031b1c19161790565b90555b60039060038601906060850151805191821161028e57613746826131ba8554612d6f565b8490601f83116001146139ab576137759291600091836132555750508160011b916000199060031b1c19161790565b90555b60049384860195608085015196875190600160401b988983116139965786908254848455808510613913575b500190600052856000208a85886000945b8686106138db5750505050505050600560a091019401519182519687116138c65790839291855491888755828910613823575b5050500191600052806000206000925b8584106138085750505050505050565b8483826138178a945186613172565b019201930192906137f8565b92935090916001600160fe1b0380841684036138b1578816880361389c57908493929186600052878560002093821b8401938a831b015b8481106138685750506137e8565b909192939495506000815561387e8b8201613659565b613889838201613659565b600084820155019087869594939261385a565b601187634e487b7160e01b6000525260246000fd5b601188634e487b7160e01b6000525260246000fd5b604186634e487b7160e01b6000525260246000fd5b8051805186546001600160a01b0319166001600160a01b03919091161786556020015160018601550192019201919085888d926137b5565b9091506001600160ff1b038082168203613981578416840361396c5790879183600052868d8460002092811b83019287821b01905b838210613957575050506137a4565b6000808355908201558a94508891018e613948565b60118a634e487b7160e01b6000525260246000fd5b60118b634e487b7160e01b6000525260246000fd5b604189634e487b7160e01b6000525260246000fd5b899291601f1983169185600052876000209260005b898282106139f757505084116139de575b505050811b019055613778565b015160001960f88460031b161c191690553880806139d1565b8385015186558e979095019493840193016139c0565b899291601f1983169185600052876000209260005b89828210613a595750508411613a40575b505050811b019055613722565b015160001960f88460031b161c19169055388080613a33565b8385015186558e97909501949384019301613a22565b60ff7ff0c57e16840df040f15088dc2f81fe391c3923bec73e23a9662efc9c229c6a005460401c1615613a9e57565b604051631afcd79f60e31b8152600490fd5b90613ad75750805115613ac557805190602001fd5b604051630a12f52160e11b8152600490fd5b81511580613b0a575b613ae8575090565b604051639996b31560e01b81526001600160a01b039091166004820152602490fd5b50803b15613ae056fe9016d09d72d40fdae2fd8ceac6b6234c7706214fd39c1cd1e609a0528c199300f652222313e28459528d920b65115c16c04f3efc82aaedc97be59f3f377c0d3ff652222313e28459528d920b65115c16c04f3efc82aaedc97be59f3f377c0d47a264697066735822122034770fc38f9b6f304293abc5b7e0f7cbdedca9bdc2e1e845868da29c7cf80e6064736f6c63430008180033",
    "linkReferences": {}
  },
  "methodIdentifiers": {
    "UPGRADE_INTERFACE_VERSION()": "ad3cb1cc",
    "checkContractBalance()": "50312c9e",
    "checkUserBalance(address)": "0a9bfef5",
    "createAccount(string,address,string)": "331ef976",
    "createEvent(bytes32,string,string,string,uint32,uint256,uint256,uint256,uint256,uint96,bool)": "dbc96e99",
    "getAllEventGroups()": "909fdec9",
    "getAllEvents()": "c27a500d",
    "getAllGroupMessages(uint32)": "1755b97a",
    "getAllTickets()": "03e96fe3",
    "getEventById(uint32)": "cd71ed35",
    "getEventGroup(uint32)": "3809f6f5",
    "getGroupMember(uint32,uint256)": "85a646c9",
    "getGroupMembers(uint32)": "ec976a0a",
    "getTicket(address)": "4717dea9",
    "getUser(address)": "6f77926b",
    "groupChat(uint32,string)": "be7fb5d7",
    "initialize(address)": "c4d66de8",
    "isRegistered(address)": "c3c5a547",
    "joinGroup(uint32)": "eec932f7",
    "owner()": "8da5cb5b",
    "proxiableUUID()": "52d1902d",
    "purchaseTicket(uint32,uint32)": "3405741d",
    "refundFee(uint32,uint32)": "0f9fcf48",
    "renounceOwnership()": "715018a6",
    "transferOwnership(address)": "f2fde38b",
    "updateEventStatus(uint32)": "a87f86f9",
    "upgradeToAndCall(address,bytes)": "4f1ef286",
    "withdrawEventFee(uint32)": "b33f650e"
  },
  "id": 36
}