{
  "abi": [
    {
      "type": "function",
      "name": "UPGRADE_INTERFACE_VERSION",
      "inputs": [],
      "outputs": [
        {
          "name": "",
          "type": "string",
          "internalType": "string"
        }
      ],
      "stateMutability": "view"
    },
    {
      "type": "function",
      "name": "checkContractBalance",
      "inputs": [],
      "outputs": [
        {
          "name": "bal_",
          "type": "uint256",
          "internalType": "uint256"
        }
      ],
      "stateMutability": "view"
    },
    {
      "type": "function",
      "name": "checkUserBalance",
      "inputs": [
        {
          "name": "_addr",
          "type": "address",
          "internalType": "address"
        }
      ],
      "outputs": [
        {
          "name": "bal_",
          "type": "uint256",
          "internalType": "uint256"
        }
      ],
      "stateMutability": "view"
    },
    {
      "type": "function",
      "name": "createAccount",
      "inputs": [
        {
          "name": "_email",
          "type": "string",
          "internalType": "string"
        },
        {
          "name": "_addr",
          "type": "address",
          "internalType": "address"
        },
        {
          "name": "_avatar",
          "type": "string",
          "internalType": "string"
        }
      ],
      "outputs": [],
      "stateMutability": "nonpayable"
    },
    {
      "type": "function",
      "name": "createEvent",
      "inputs": [
        {
          "name": "_title",
          "type": "bytes32",
          "internalType": "bytes32"
        },
        {
          "name": "_imageUrl",
          "type": "string",
          "internalType": "string"
        },
        {
          "name": "_description",
          "type": "string",
          "internalType": "string"
        },
        {
          "name": "_location",
          "type": "string",
          "internalType": "string"
        },
        {
          "name": "_capacity",
          "type": "uint32",
          "internalType": "uint32"
        },
        {
          "name": "_regStartTime",
          "type": "uint256",
          "internalType": "uint256"
        },
        {
          "name": "_regEndTime",
          "type": "uint256",
          "internalType": "uint256"
        },
        {
          "name": "_eventStartTime",
          "type": "uint256",
          "internalType": "uint256"
        },
        {
          "name": "_eventEndTime",
          "type": "uint256",
          "internalType": "uint256"
        },
        {
          "name": "_ticketPrice",
          "type": "uint96",
          "internalType": "uint96"
        },
        {
          "name": "_isEventPaid",
          "type": "bool",
          "internalType": "bool"
        }
      ],
      "outputs": [],
      "stateMutability": "nonpayable"
    },
    {
      "type": "function",
      "name": "getAllEventGroups",
      "inputs": [],
      "outputs": [
        {
          "name": "group_",
          "type": "tuple[]",
          "internalType": "struct BlumaProtocol.EventGroup[]",
          "components": [
            {
              "name": "eventId",
              "type": "uint32",
              "internalType": "uint32"
            },
            {
              "name": "title",
              "type": "bytes32",
              "internalType": "bytes32"
            },
            {
              "name": "imageUrl",
              "type": "string",
              "internalType": "string"
            },
            {
              "name": "description",
              "type": "string",
              "internalType": "string"
            },
            {
              "name": "members",
              "type": "address[]",
              "internalType": "address[]"
            }
          ]
        }
      ],
      "stateMutability": "view"
    },
    {
      "type": "function",
      "name": "getAllEvents",
      "inputs": [],
      "outputs": [
        {
          "name": "events_",
          "type": "tuple[]",
          "internalType": "struct BlumaProtocol.Event[]",
          "components": [
            {
              "name": "eventId",
              "type": "uint32",
              "internalType": "uint32"
            },
            {
              "name": "title",
              "type": "bytes32",
              "internalType": "bytes32"
            },
            {
              "name": "imageUrl",
              "type": "string",
              "internalType": "string"
            },
            {
              "name": "location",
              "type": "string",
              "internalType": "string"
            },
            {
              "name": "description",
              "type": "string",
              "internalType": "string"
            },
            {
              "name": "creator",
              "type": "address",
              "internalType": "address"
            },
            {
              "name": "seats",
              "type": "uint32",
              "internalType": "uint32"
            },
            {
              "name": "capacity",
              "type": "uint32",
              "internalType": "uint32"
            },
            {
              "name": "regStartTime",
              "type": "uint256",
              "internalType": "uint256"
            },
            {
              "name": "regEndTime",
              "type": "uint256",
              "internalType": "uint256"
            },
            {
              "name": "regStatus",
              "type": "uint8",
              "internalType": "enum BlumaProtocol.RegStatus"
            },
            {
              "name": "eventStatus",
              "type": "uint8",
              "internalType": "enum BlumaProtocol.EventStatus"
            },
            {
              "name": "eventType",
              "type": "uint8",
              "internalType": "enum BlumaProtocol.EventType"
            },
            {
              "name": "eventStartTime",
              "type": "uint256",
              "internalType": "uint256"
            },
            {
              "name": "eventEndTime",
              "type": "uint256",
              "internalType": "uint256"
            },
            {
              "name": "ticketPrice",
              "type": "uint96",
              "internalType": "uint96"
            },
            {
              "name": "totalSales",
              "type": "uint256",
              "internalType": "uint256"
            },
            {
              "name": "createdAt",
              "type": "uint256",
              "internalType": "uint256"
            },
            {
              "name": "isCreatorPaid",
              "type": "bool",
              "internalType": "bool"
            }
          ]
        }
      ],
      "stateMutability": "view"
    },
    {
      "type": "function",
      "name": "getAllTickets",
      "inputs": [],
      "outputs": [
        {
          "name": "_tickets",
          "type": "tuple[]",
          "internalType": "struct BlumaProtocol.Ticket[]",
          "components": [
            {
              "name": "ticketId",
              "type": "uint32",
              "internalType": "uint32"
            },
            {
              "name": "eventId",
              "type": "uint32",
              "internalType": "uint32"
            },
            {
              "name": "owner",
              "type": "address",
              "internalType": "address"
            },
            {
              "name": "ticketCost",
              "type": "uint256",
              "internalType": "uint256"
            },
            {
              "name": "purchaseTime",
              "type": "uint256",
              "internalType": "uint256"
            },
            {
              "name": "numberOfTicket",
              "type": "uint32",
              "internalType": "uint32"
            }
          ]
        }
      ],
      "stateMutability": "view"
    },
    {
      "type": "function",
      "name": "getEvent",
      "inputs": [
        {
          "name": "_eventId",
          "type": "uint32",
          "internalType": "uint32"
        }
      ],
      "outputs": [
        {
          "name": "events_",
          "type": "tuple",
          "internalType": "struct BlumaProtocol.Event",
          "components": [
            {
              "name": "eventId",
              "type": "uint32",
              "internalType": "uint32"
            },
            {
              "name": "title",
              "type": "bytes32",
              "internalType": "bytes32"
            },
            {
              "name": "imageUrl",
              "type": "string",
              "internalType": "string"
            },
            {
              "name": "location",
              "type": "string",
              "internalType": "string"
            },
            {
              "name": "description",
              "type": "string",
              "internalType": "string"
            },
            {
              "name": "creator",
              "type": "address",
              "internalType": "address"
            },
            {
              "name": "seats",
              "type": "uint32",
              "internalType": "uint32"
            },
            {
              "name": "capacity",
              "type": "uint32",
              "internalType": "uint32"
            },
            {
              "name": "regStartTime",
              "type": "uint256",
              "internalType": "uint256"
            },
            {
              "name": "regEndTime",
              "type": "uint256",
              "internalType": "uint256"
            },
            {
              "name": "regStatus",
              "type": "uint8",
              "internalType": "enum BlumaProtocol.RegStatus"
            },
            {
              "name": "eventStatus",
              "type": "uint8",
              "internalType": "enum BlumaProtocol.EventStatus"
            },
            {
              "name": "eventType",
              "type": "uint8",
              "internalType": "enum BlumaProtocol.EventType"
            },
            {
              "name": "eventStartTime",
              "type": "uint256",
              "internalType": "uint256"
            },
            {
              "name": "eventEndTime",
              "type": "uint256",
              "internalType": "uint256"
            },
            {
              "name": "ticketPrice",
              "type": "uint96",
              "internalType": "uint96"
            },
            {
              "name": "totalSales",
              "type": "uint256",
              "internalType": "uint256"
            },
            {
              "name": "createdAt",
              "type": "uint256",
              "internalType": "uint256"
            },
            {
              "name": "isCreatorPaid",
              "type": "bool",
              "internalType": "bool"
            }
          ]
        }
      ],
      "stateMutability": "view"
    },
    {
      "type": "function",
      "name": "getEventGroup",
      "inputs": [
        {
          "name": "_groupId",
          "type": "uint32",
          "internalType": "uint32"
        }
      ],
      "outputs": [
        {
          "name": "group_",
          "type": "tuple",
          "internalType": "struct BlumaProtocol.EventGroup",
          "components": [
            {
              "name": "eventId",
              "type": "uint32",
              "internalType": "uint32"
            },
            {
              "name": "title",
              "type": "bytes32",
              "internalType": "bytes32"
            },
            {
              "name": "imageUrl",
              "type": "string",
              "internalType": "string"
            },
            {
              "name": "description",
              "type": "string",
              "internalType": "string"
            },
            {
              "name": "members",
              "type": "address[]",
              "internalType": "address[]"
            }
          ]
        }
      ],
      "stateMutability": "view"
    },
    {
      "type": "function",
      "name": "getGroupMembers",
      "inputs": [
        {
          "name": "_eventId",
          "type": "uint32",
          "internalType": "uint32"
        }
      ],
      "outputs": [
        {
          "name": "_members",
          "type": "address[]",
          "internalType": "address[]"
        }
      ],
      "stateMutability": "view"
    },
    {
      "type": "function",
      "name": "getTicket",
      "inputs": [
        {
          "name": "_addr",
          "type": "address",
          "internalType": "address"
        }
      ],
      "outputs": [
        {
          "name": "_ticket",
          "type": "tuple",
          "internalType": "struct BlumaProtocol.Ticket",
          "components": [
            {
              "name": "ticketId",
              "type": "uint32",
              "internalType": "uint32"
            },
            {
              "name": "eventId",
              "type": "uint32",
              "internalType": "uint32"
            },
            {
              "name": "owner",
              "type": "address",
              "internalType": "address"
            },
            {
              "name": "ticketCost",
              "type": "uint256",
              "internalType": "uint256"
            },
            {
              "name": "purchaseTime",
              "type": "uint256",
              "internalType": "uint256"
            },
            {
              "name": "numberOfTicket",
              "type": "uint32",
              "internalType": "uint32"
            }
          ]
        }
      ],
      "stateMutability": "view"
    },
    {
      "type": "function",
      "name": "getUser",
      "inputs": [
        {
          "name": "_addr",
          "type": "address",
          "internalType": "address"
        }
      ],
      "outputs": [
        {
          "name": "_user",
          "type": "tuple",
          "internalType": "struct BlumaProtocol.User",
          "components": [
            {
              "name": "email",
              "type": "string",
              "internalType": "string"
            },
            {
              "name": "userAddr",
              "type": "address",
              "internalType": "address"
            },
            {
              "name": "isRegistered",
              "type": "bool",
              "internalType": "bool"
            },
            {
              "name": "avatar",
              "type": "string",
              "internalType": "string"
            },
            {
              "name": "balance",
              "type": "uint256",
              "internalType": "uint256"
            }
          ]
        }
      ],
      "stateMutability": "view"
    },
    {
      "type": "function",
      "name": "initialize",
      "inputs": [
        {
          "name": "initialOwner",
          "type": "address",
          "internalType": "address"
        }
      ],
      "outputs": [],
      "stateMutability": "nonpayable"
    },
    {
      "type": "function",
      "name": "isRegistered",
      "inputs": [
        {
          "name": "_addr",
          "type": "address",
          "internalType": "address"
        }
      ],
      "outputs": [
        {
          "name": "",
          "type": "bool",
          "internalType": "bool"
        }
      ],
      "stateMutability": "view"
    },
    {
      "type": "function",
      "name": "owner",
      "inputs": [],
      "outputs": [
        {
          "name": "",
          "type": "address",
          "internalType": "address"
        }
      ],
      "stateMutability": "view"
    },
    {
      "type": "function",
      "name": "proxiableUUID",
      "inputs": [],
      "outputs": [
        {
          "name": "",
          "type": "bytes32",
          "internalType": "bytes32"
        }
      ],
      "stateMutability": "view"
    },
    {
      "type": "function",
      "name": "purchaseTicket",
      "inputs": [
        {
          "name": "_eventId",
          "type": "uint32",
          "internalType": "uint32"
        },
        {
          "name": "_numberOfTickets",
          "type": "uint32",
          "internalType": "uint32"
        }
      ],
      "outputs": [],
      "stateMutability": "nonpayable"
    },
    {
      "type": "function",
      "name": "refundFee",
      "inputs": [
        {
          "name": "_eventId",
          "type": "uint32",
          "internalType": "uint32"
        },
        {
          "name": "_numberOfTickets",
          "type": "uint32",
          "internalType": "uint32"
        }
      ],
      "outputs": [],
      "stateMutability": "nonpayable"
    },
    {
      "type": "function",
      "name": "renounceOwnership",
      "inputs": [],
      "outputs": [],
      "stateMutability": "nonpayable"
    },
    {
      "type": "function",
      "name": "transferOwnership",
      "inputs": [
        {
          "name": "newOwner",
          "type": "address",
          "internalType": "address"
        }
      ],
      "outputs": [],
      "stateMutability": "nonpayable"
    },
    {
      "type": "function",
      "name": "updateEventStatus",
      "inputs": [
        {
          "name": "_eventId",
          "type": "uint32",
          "internalType": "uint32"
        }
      ],
      "outputs": [],
      "stateMutability": "nonpayable"
    },
    {
      "type": "function",
      "name": "upgradeToAndCall",
      "inputs": [
        {
          "name": "newImplementation",
          "type": "address",
          "internalType": "address"
        },
        {
          "name": "data",
          "type": "bytes",
          "internalType": "bytes"
        }
      ],
      "outputs": [],
      "stateMutability": "payable"
    },
    {
      "type": "function",
      "name": "withdrawEventFee",
      "inputs": [
        {
          "name": "_eventId",
          "type": "uint32",
          "internalType": "uint32"
        }
      ],
      "outputs": [],
      "stateMutability": "nonpayable"
    },
    {
      "type": "event",
      "name": "EventClosed",
      "inputs": [
        {
          "name": "_eventId",
          "type": "uint32",
          "indexed": true,
          "internalType": "uint32"
        },
        {
          "name": "_currentTime",
          "type": "uint256",
          "indexed": true,
          "internalType": "uint256"
        }
      ],
      "anonymous": false
    },
    {
      "type": "event",
      "name": "EventCreated",
      "inputs": [
        {
          "name": "_totalEventsId",
          "type": "uint32",
          "indexed": true,
          "internalType": "uint32"
        },
        {
          "name": "_seatNumber",
          "type": "uint32",
          "indexed": true,
          "internalType": "uint32"
        },
        {
          "name": "_capacity",
          "type": "uint32",
          "indexed": true,
          "internalType": "uint32"
        }
      ],
      "anonymous": false
    },
    {
      "type": "event",
      "name": "GroupCreated",
      "inputs": [
        {
          "name": "_roomId",
          "type": "uint32",
          "indexed": true,
          "internalType": "uint32"
        },
        {
          "name": "imageUrl",
          "type": "string",
          "indexed": false,
          "internalType": "string"
        },
        {
          "name": "_title",
          "type": "bytes32",
          "indexed": false,
          "internalType": "bytes32"
        }
      ],
      "anonymous": false
    },
    {
      "type": "event",
      "name": "GroupJoinedSuccessfully",
      "inputs": [
        {
          "name": "_sender",
          "type": "address",
          "indexed": true,
          "internalType": "address"
        },
        {
          "name": "_eventId",
          "type": "uint32",
          "indexed": true,
          "internalType": "uint32"
        }
      ],
      "anonymous": false
    },
    {
      "type": "event",
      "name": "Initialized",
      "inputs": [
        {
          "name": "version",
          "type": "uint64",
          "indexed": false,
          "internalType": "uint64"
        }
      ],
      "anonymous": false
    },
    {
      "type": "event",
      "name": "OwnershipTransferred",
      "inputs": [
        {
          "name": "previousOwner",
          "type": "address",
          "indexed": true,
          "internalType": "address"
        },
        {
          "name": "newOwner",
          "type": "address",
          "indexed": true,
          "internalType": "address"
        }
      ],
      "anonymous": false
    },
    {
      "type": "event",
      "name": "RefundIssued",
      "inputs": [
        {
          "name": "buyer",
          "type": "address",
          "indexed": true,
          "internalType": "address"
        },
        {
          "name": "_ticketId",
          "type": "uint32",
          "indexed": true,
          "internalType": "uint32"
        },
        {
          "name": "_eventId",
          "type": "uint32",
          "indexed": true,
          "internalType": "uint32"
        },
        {
          "name": "amount",
          "type": "uint256",
          "indexed": false,
          "internalType": "uint256"
        }
      ],
      "anonymous": false
    },
    {
      "type": "event",
      "name": "RegistrationClose",
      "inputs": [
        {
          "name": "_currentTime",
          "type": "uint256",
          "indexed": true,
          "internalType": "uint256"
        },
        {
          "name": "_status",
          "type": "uint8",
          "indexed": true,
          "internalType": "uint8"
        }
      ],
      "anonymous": false
    },
    {
      "type": "event",
      "name": "TicketPurchased",
      "inputs": [
        {
          "name": "buyer",
          "type": "address",
          "indexed": true,
          "internalType": "address"
        },
        {
          "name": "_eventId",
          "type": "uint32",
          "indexed": true,
          "internalType": "uint32"
        },
        {
          "name": "numberOfTickets",
          "type": "uint32",
          "indexed": false,
          "internalType": "uint32"
        }
      ],
      "anonymous": false
    },
    {
      "type": "event",
      "name": "Upgraded",
      "inputs": [
        {
          "name": "implementation",
          "type": "address",
          "indexed": true,
          "internalType": "address"
        }
      ],
      "anonymous": false
    },
    {
      "type": "error",
      "name": "ALREADY_PAID",
      "inputs": []
    },
    {
      "type": "error",
      "name": "AddressEmptyCode",
      "inputs": [
        {
          "name": "target",
          "type": "address",
          "internalType": "address"
        }
      ]
    },
    {
      "type": "error",
      "name": "EMPTY_INPUT_FIELD",
      "inputs": []
    },
    {
      "type": "error",
      "name": "ERC1967InvalidImplementation",
      "inputs": [
        {
          "name": "implementation",
          "type": "address",
          "internalType": "address"
        }
      ]
    },
    {
      "type": "error",
      "name": "ERC1967NonPayable",
      "inputs": []
    },
    {
      "type": "error",
      "name": "EVENT_NOT_CLOSED",
      "inputs": []
    },
    {
      "type": "error",
      "name": "FailedInnerCall",
      "inputs": []
    },
    {
      "type": "error",
      "name": "GROUP_ALREADY_EXISTS",
      "inputs": []
    },
    {
      "type": "error",
      "name": "INSUFFICIENT_BALANCE",
      "inputs": []
    },
    {
      "type": "error",
      "name": "INSUFFICIENT_TICKET_PURCHASED",
      "inputs": []
    },
    {
      "type": "error",
      "name": "INVALID_EVENT_ID",
      "inputs": []
    },
    {
      "type": "error",
      "name": "INVALID_ID",
      "inputs": []
    },
    {
      "type": "error",
      "name": "INVALID_TIME_SET",
      "inputs": []
    },
    {
      "type": "error",
      "name": "InvalidInitialization",
      "inputs": []
    },
    {
      "type": "error",
      "name": "NOT_CREATOR",
      "inputs": []
    },
    {
      "type": "error",
      "name": "NOT_ENOUGH_AVAILABLE_SEAT",
      "inputs": []
    },
    {
      "type": "error",
      "name": "NOT_OWNER",
      "inputs": []
    },
    {
      "type": "error",
      "name": "NOT_PAID_EVENT",
      "inputs": []
    },
    {
      "type": "error",
      "name": "NO_ALLOWANCE",
      "inputs": []
    },
    {
      "type": "error",
      "name": "NotInitializing",
      "inputs": []
    },
    {
      "type": "error",
      "name": "OwnableInvalidOwner",
      "inputs": [
        {
          "name": "owner",
          "type": "address",
          "internalType": "address"
        }
      ]
    },
    {
      "type": "error",
      "name": "OwnableUnauthorizedAccount",
      "inputs": [
        {
          "name": "account",
          "type": "address",
          "internalType": "address"
        }
      ]
    },
    {
      "type": "error",
      "name": "REGISTRATION_CLOSE",
      "inputs": []
    },
    {
      "type": "error",
      "name": "REGISTRATION_NOT_OPEN",
      "inputs": []
    },
    {
      "type": "error",
      "name": "USER_NOT_REGISTERED",
      "inputs": []
    },
    {
      "type": "error",
      "name": "UUPSUnauthorizedCallContext",
      "inputs": []
    },
    {
      "type": "error",
      "name": "UUPSUnsupportedProxiableUUID",
      "inputs": [
        {
          "name": "slot",
          "type": "bytes32",
          "internalType": "bytes32"
        }
      ]
    }
  ],
  "bytecode": {
    "object": "0x60a0806040523461002a57306080526131ae908161003082396080518181816114e601526116280152f35b600080fdfe6080604052600436101561001257600080fd5b60003560e01c806303e96fe3146122e75780630a9bfef5146122aa5780630f9fcf4814611feb578063331ef97614611dbf5780633405741d146118cf5780633809f6f51461187b5780634717dea9146118075780634f1ef286146115d957806350312c9e1461155057806352d1902d146114d35780636f77926b146113c2578063715018a6146113585780638da5cb5b14611322578063909fdec914611238578063a87f86f914611217578063ad3cb1cc146111bf578063b33f650e1461105b578063c27a500d14610f83578063c3c5a54714610f3e578063c4d66de814610de5578063d88c8e9814610d09578063dbc96e99146101af578063ec976a0a146101545763f2fde38b1461012457600080fd5b3461014f57602036600319011261014f5761014d6101406123fe565b610148612dea565b612d26565b005b600080fd5b3461014f57602036600319011261014f5763ffffffff610172612414565b61017b81612d9a565b1660005260046020526101ab61019760046040600020016129a0565b60405191829160208352602083019061255d565b0390f35b3461014f5761016036600319011261014f576024356001600160401b03811161014f576101e0903690600401612724565b906044356001600160401b03811161014f57610200903690600401612724565b6064356001600160401b03811161014f5761021f903690600401612724565b92909463ffffffff608435166084350361014f5761012435946001600160601b038616860361014f576101443595861515870361014f5733600052600160205260ff60016040600020015460a01c1615610cf7576102866102813687876124c8565b612dbf565b6102946102813685856124c8565b6102a261028136888b6124c8565b6102ad60a435612e23565b6102b860c435612e23565b6102c360e435612e23565b6102cf61010435612e23565b6102e16001600160601b038216612e23565b600163ffffffff6084351610610ce5576103006101043560e435612e2c565b61030e60c43560a435612e2c565b60005463ffffffff6103218183166128a4565b16809163ffffffff1916176000556000526002602052600160406000209760a43561034a612dca565b1015610cd45760088901805460ff191660021790555b151503610ca4576008870162ff00001981541690556001600160601b03600b880191166001600160601b03198254161790555b63ffffffff6000541663ffffffff1987541617865560043560018701556001600160401b03821161072d576103d8826103cf600289015461280c565b6002890161285d565b600090601f8311600114610c3357610409929160009183610c28575b50508160011b916000199060031b1c19161790565b60028501555b6001600160401b03821161072d576104378261042e600487015461280c565b6004870161285d565b600090601f8311600114610bb757610467929160009183610bac5750508160011b916000199060031b1c19161790565b60048301555b60058201805463ffffffff60a01b1933166001600160c01b03199091161760843560a01b63ffffffff60a01b161790556001600160401b03811161072d576104c5816104bc600385015461280c565b6003850161285d565b600092601f8211600114610b3d576104f692938291600092610b325750508160011b916000199060031b1c19161790565b60038201555b60058101805463ffffffff60c01b191660843560c01b63ffffffff60c01b1617905560a435600682015560c435600782015560e435600982015561010435600a82015560088101805461ff001916610200179055610558612dca565b600d820155600654600160401b81101561072d57600181018060065581101561071757600660005281600f82026000805160206131398339815191520103610755575b5063ffffffff8154166105ad81612d9a565b80600052600460205263ffffffff604060002054166107435780600052600260205260406000206105dc6128de565b8281526001820191825460208301526004610622600283019260405161060d81610606818861290a565b038261248c565b6040860152610606604051809481930161290a565b606083015283600052600460205261063e826040600020612e46565b60075492600160401b84101561072d576001840180600755841015610717576106b56106ca9360057f45881a834c1c2b1081ee9f2063da43f83e3d9f2ba737ca954a4098d94bce97d5966007600052027fa66cc928b5edb82af9bd49922954155ab7b0942694bea4ce44661d9a8736c68801612e46565b5460405192839260408452604084019061290a565b9060208301520390a263ffffffff6000541663ffffffff6005816084351693015460a01c16907fac3c2fbb08f906d92c1b4be6fa025f63708bafa70869110e931d718b9532c411600080a4005b634e487b7160e01b600052603260045260246000fd5b634e487b7160e01b600052604160045260246000fd5b60405163e955b73b60e01b8152600490fd5b63ffffffff82541663ffffffff19600f830260008051602061313983398151915201541617600f8202600080516020613139833981519152015560018201547ff652222313e28459528d920b65115c16c04f3efc82aaedc97be59f3f377c0d40600f830201556107ed600283017ff652222313e28459528d920b65115c16c04f3efc82aaedc97be59f3f377c0d41600f840201612c47565b61081f600383017ff652222313e28459528d920b65115c16c04f3efc82aaedc97be59f3f377c0d42600f840201612c47565b610851600483017ff652222313e28459528d920b65115c16c04f3efc82aaedc97be59f3f377c0d43600f840201612c47565b6005820180547ff652222313e28459528d920b65115c16c04f3efc82aaedc97be59f3f377c0d44600f84020180546001600160a01b039092166001600160a01b0319831681178255925463ffffffff60a01b166001600160c01b03199092169092171781556108db906005840154815463ffffffff60c01b191663ffffffff60c01b909116179055565b60068201547ff652222313e28459528d920b65115c16c04f3efc82aaedc97be59f3f377c0d45600f8302015560078201547ff652222313e28459528d920b65115c16c04f3efc82aaedc97be59f3f377c0d46600f8302015560ff600883015416610944816125f3565b600080516020613159833981519152600f83020154918160ff19841617600080516020613159833981519152600f8302015560088401549261098b60ff8560081c166125f3565b61ff0084168361ffff1983161717600080516020613159833981519152600f84020155600885015493600260ff8660101c161015610b1c5761ff00600f9462ff00007ff652222313e28459528d920b65115c16c04f3efc82aaedc97be59f3f377c0d4d97169362ffffff19161791161717600080516020613159833981519152838302015560098401547ff652222313e28459528d920b65115c16c04f3efc82aaedc97be59f3f377c0d488383020155600a8401547ff652222313e28459528d920b65115c16c04f3efc82aaedc97be59f3f377c0d4983830201557ff652222313e28459528d920b65115c16c04f3efc82aaedc97be59f3f377c0d4a828202016001600160601b03600b860154166001600160601b0319825416179055600c8401547ff652222313e28459528d920b65115c16c04f3efc82aaedc97be59f3f377c0d4b8383020155600d8401547ff652222313e28459528d920b65115c16c04f3efc82aaedc97be59f3f377c0d4c8383020155020160ff600e83015416151560ff801983541691161790558161059b565b634e487b7160e01b600052602160045260246000fd5b0135905084806103f4565b600383016000526020600020906000945b601f1984168610610b9457600194955083601f19811610610b7a575b505050811b0160038201556104fc565b0135600019600384901b60f8161c19169055838080610b6a565b91602060018192858501358155019301950194610b4e565b0135905086806103f4565b600485939293016000526020600020906000935b601f1984168510610c10576001945083601f19811610610bf6575b505050811b01600483015561046d565b0135600019600384901b60f8161c19169055858080610be6565b81810135835560209485019460019093019201610bcb565b0135905088806103f4565b600287939293016000526020600020906000935b601f1984168510610c8c576001945083601f19811610610c72575b505050811b01600285015561040f565b0135600019600384901b60f8161c19169055878080610c62565b81810135835560209485019460019093019201610c47565b50600b860180546bffffffffffffffffffffffff1916905560088601805462ff0000191662010000179055610393565b60088901805460ff19169055610360565b604051631ee8943b60e21b8152600490fd5b604051633069384b60e21b8152600490fd5b3461014f57602036600319011261014f5763ffffffff610d27612414565b6000610240604051610d3881612470565b82815282602082015260606040820152606080820152606060808201528260a08201528260c08201528260e08201528261010082015282610120820152826101408201528261016082015282610180820152826101a0820152826101c0820152826101e082015282610200820152826102208201520152610db881612d9a565b1660005260026020526101ab610dd16040600020612b06565b6040519182916020835260208301906125fd565b3461014f57602036600319011261014f57610dfe6123fe565b7ff0c57e16840df040f15088dc2f81fe391c3923bec73e23a9662efc9c229c6a0090815460ff8160401c1615916001600160401b03821680159081610f36575b6001149081610f2c575b159081610f23575b50610f115767ffffffffffffffff1982166001178455610e819183610ef2575b50610e79613074565b610148613074565b610e89613074565b600980546001600160a01b031916734cb6cef87d8cadf966b455e8bd58fff32aba49d1179055610eb557005b68ff00000000000000001981541690557fc7f505b2f371ae2175ee4913f4499e1f2633a7b5936321eed1cdaeb6115181d2602060405160018152a1005b68ffffffffffffffffff19166801000000000000000117845584610e70565b60405163f92ee8a960e01b8152600490fd5b90501585610e50565b303b159150610e48565b849150610e3e565b3461014f57602036600319011261014f576001600160a01b03610f5f6123fe565b166000526001602052602060ff60016040600020015460a01c166040519015158152f35b3461014f57600036600319011261014f57600654610fa081612751565b90610fae604051928361248c565b808252602090818301908160066000526000805160206131398339815191526000915b8383106110385750505050604051918083019381845251809452604083019360408160051b85010192916000955b82871061100c5785850386f35b909192938280611028600193603f198a820301865288516125fd565b9601920196019592919092610fff565b600f8660019261104a859a999a612b06565b815201920192019190959495610fd1565b3461014f5760208060031936011261014f57611075612414565b61107e81612d9a565b63ffffffff81166000526002825260406000209033600052600183526110a8604060002091612a61565b600160ff600884015460081c166110be816125f3565b036111ad5760058201546001600160a01b0390339082160361119b57600e83019081549060ff82166111895760038694611147946001600c6000990195898754975560ff1916179055016111138382546128d1565b905560095460405163a9059cbb60e01b81523360048201526024810193909352919485939190921691839182906044820190565b03925af1801561117d5761115757005b8161014d92903d10611176575b61116e818361248c565b8101906127f4565b503d611164565b6040513d6000823e3d90fd5b60405163d2e53ca760e01b8152600490fd5b604051632cff942760e01b8152600490fd5b604051631988a70d60e01b8152600490fd5b3461014f57600036600319011261014f5760405160408101908082106001600160401b0383111761072d576101ab9160405260058152640352e302e360dc1b602082015260405191829160208352602083019061251d565b3461014f57602036600319011261014f5761014d611233612414565b612a61565b3461014f57600036600319011261014f5760075461125581612751565b90611263604051928361248c565b808252602090818301908160076000527fa66cc928b5edb82af9bd49922954155ab7b0942694bea4ce44661d9a8736c6886000915b8383106112ff5750505050604051918083019381845251809452604083019360408160051b85010192916000955b8287106112d35785850386f35b9091929382806112ef600193603f198a8203018652885161259a565b96019201960195929190926112c6565b600586600192611311859a999a6129fa565b815201920192019190959495611298565b3461014f57600036600319011261014f57600080516020613119833981519152546040516001600160a01b039091168152602090f35b3461014f57600036600319011261014f57611371612dea565b60008051602061311983398151915280546001600160a01b031981169091556000906001600160a01b03167f8be0079c531659141344cd1fd0a4f28419497f9722a3daafe3b4186f6b6457e08280a3005b3461014f5760208060031936011261014f5760a0906113df6123fe565b90600060806040516113f081612455565b6060815282848201528260408201526060808201520152600180841b03809216600052600181526114c86040600020926040519361142d85612455565b60405161143e81610606818561290a565b8552600181015484860192808216845260ff6040880192891c16151582526114a660036040519461147d86611476816002850161290a565b038761248c565b60608a0195865201549660808901978852604051998a99828b5251918a015260c089019061251d565b9351166040870152511515606086015251848203601f1901608086015261251d565b905160a08301520390f35b3461014f57600036600319011261014f577f00000000000000000000000000000000000000000000000000000000000000006001600160a01b0316300361153e5760206040517f360894a13ba1a3210667c828492db98dca3e2076cc3735a920a3ca505d382bbc8152f35b60405163703e46dd60e11b8152600490fd5b3461014f57600036600319011261014f576009546040516370a0823160e01b815230600482015290602090829060249082906001600160a01b03165afa801561117d576000906115a6575b602090604051908152f35b506020813d6020116115d1575b816115c06020938361248c565b8101031261014f576020905161159b565b3d91506115b3565b604036600319011261014f576115ed6123fe565b6024356001600160401b03811161014f573660238201121561014f5761161d9036906024816004013591016124c8565b906001600160a01b037f000000000000000000000000000000000000000000000000000000000000000081163081149081156117d9575b5061153e57611661612dea565b6040516352d1902d60e01b8152908216916020918281600481875afa600091816117aa575b506116a457604051634c9c8ce360e01b815260048101859052602490fd5b9284937f360894a13ba1a3210667c828492db98dca3e2076cc3735a920a3ca505d382bbc908181036117925750823b156117795780546001600160a01b03191682179055604051907fbc7cd75a20ee27fd9adebab32041f755214dbc6bffa90cc0225b39da2e5c2d3b600080a283511561175f5750600080848461014d96519101845af4903d15611756573d611739816124ad565b90611747604051928361248c565b8152600081943d92013e6130b5565b606092506130b5565b925050503461176a57005b63b398979f60e01b8152600490fd5b604051634c9c8ce360e01b815260048101839052602490fd5b60249060405190632a87526960e21b82526004820152fd5b9091508381813d83116117d2575b6117c2818361248c565b8101031261014f57519086611686565b503d6117b8565b9050817f360894a13ba1a3210667c828492db98dca3e2076cc3735a920a3ca505d382bbc5416141584611654565b3461014f57602036600319011261014f576118206123fe565b600060a06040516118308161243a565b828152826020820152826040820152826060820152826080820152015260018060a01b0316600052600360205260c061186c6040600020612768565b61187960405180926123b5565bf35b3461014f57602036600319011261014f5763ffffffff611899612414565b6118a16128de565b501660005260046020526101ab6118bb60406000206129fa565b60405191829160208352602083019061259a565b3461014f57604036600319011261014f576118e8612414565b6118f0612427565b6118f982612d9a565b63ffffffff9182811692836000526020906002825260406000206008810160ff815416611925816125f3565b611dad5760058201805484806119408a828560a01c166128b9565b9260c01c16911611611d9b5760005467ffffffff000000006119658683891c166128a4565b871b169067ffffffff00000000191617600055336000526003855260406000209260ff6000935460101c166002811015610b1c5715611c01575b50806119b488866119d4945460a01c166128b9565b815463ffffffff60a01b191660a09190911b63ffffffff60a01b16179055565b6000548254600160401b600160e01b031991861c85169190911667ffffffff00000001600160e01b0319909116173360401b600160401b600160e01b031617825563ffffffff1990611a52611a27612dca565b9660028501978855849067ffffffff0000000082549160201b169067ffffffff000000001916179055565b611a61600184019182546128d1565b8155600383019283548386611a788b8285166128b9565b16911617845560085491600160401b83101561072d576001830180600855831015610717577fc541e3defd92fd2d8306e9c91b36c15f096115c41c7a9a36ac548a487d8891aa97869360021b91827ff3f7a9fe364faab93b216da50a3214154f22a0a2b415b23a84c8169e8b636ee30193808503611b25575b8c8c8c8c89336000526005825260406000208560005282526040600020600160ff19825416179055604051931683523392a3005b80548554881690871617808655815467ffffffff0000000019909116908b1c871660201b67ffffffff00000000161785557ff3f7a9fe364faab93b216da50a3214154f22a0a2b415b23a84c8169e8b636ee694611b9f91548154600160401b600160e01b031916600160401b600160e01b03909116179055565b547ff3f7a9fe364faab93b216da50a3214154f22a0a2b415b23a84c8169e8b636ee4830155547ff3f7a9fe364faab93b216da50a3214154f22a0a2b415b23a84c8169e8b636ee582015501925416908254161790558580828180808080611af1565b9091506001600160601b03611c1e81600b84015416868a166127c0565b169160018060a01b0360095416916040516370a0823160e01b81523360048201528781602481875afa801561117d578591600091611d6a575b5010611d5857604051636eb1769f60e11b81523360048201523060248201528781604481875afa801561117d578591600091611d27575b5010611d1557866000936064604051809681936323b872dd60e01b83523360048401523060248401528960448401525af190811561117d576119d493600c92611cf8575b5001611cdf8482546128d1565b905560018401611cf08482546128d1565b90559061199f565b611d0e90893d8b116111765761116e818361248c565b508b611cd2565b60405163ea75ebd560e01b8152600490fd5b809250898092503d8311611d51575b611d40818361248c565b8101031261014f578490518c611c8e565b503d611d36565b604051632858f9ab60e11b8152600490fd5b809250898092503d8311611d94575b611d83818361248c565b8101031261014f578490518c611c57565b503d611d79565b6040516374a227cd60e01b8152600490fd5b6040516305fb6d9960e41b8152600490fd5b3461014f57606036600319011261014f576001600160401b0360043581811161014f57611df09036906004016124ff565b906024356001600160a01b038116919082900361014f5760443581811161014f57611e1f9036906004016124ff565b91611e2984612dbf565b611e3283612dbf565b8060005260019360209185835260406000209180519085821161072d57611e6382611e5d865461280c565b8661285d565b8490601f8311600114611f83579180611e97926002969594600092611f785750508160011b916000199060031b1c19161790565b82555b81870180546001600160a81b031916909117600160a01b17905584519101949092831161072d57611ed583611ecf875461280c565b8761285d565b81601f8411600114611f145750508190611f0593600092611f095750508160011b916000199060031b1c19161790565b9055005b0151905084806103f4565b91909383601f1981168760005284600020946000905b88838310611f5e5750505010611f45575b505050811b019055005b015160001960f88460031b161c19169055838080611f3b565b858701518855909601959485019487935090810190611f2a565b015190508a806103f4565b9392918891601f1982169085600052876000209160005b89828210611fd5575050968360029810611fbc575b505050811b018255611e9a565b015160001960f88460031b161c19169055898080611faf565b838a015185558d96909401939283019201611f9a565b3461014f57604036600319011261014f57612004612414565b61200c612427565b9061201681612d9a565b63ffffffff90818116928360005260209260028452612039604060002093612d9a565b8460005260028452604060002061204e612dca565b60078201541061224a575b503360005260038452604060002091600884015460ff8160101c166002811015610b1c576122385760ff1661208d816125f3565b6122265782546001600160a01b03919033604082901c84160361221457838891881c16036122025760038401838154168483168091106121f057600c906120e36001600160601b039182600b8b015416906127c0565b16966120fc600582016119b48689835460a01c166127de565b018054908782039182116121da57558361211a8254938285166127de565b16809263ffffffff1916179055156121b5575b60095460405163a9059cbb60e01b8152336004820152602481018690529391869185916044918391600091165af192831561117d577f4f6fb365c29f3632d91fcd919dbfdf50155c34cd0ea613bd43e7e76529fec43593612198575b505416926040519283523392a4005b6121ae90863d88116111765761116e818361248c565b5086612189565b33600052600585526040600020866000528552604060002060ff19815416905561212d565b634e487b7160e01b600052601160045260246000fd5b60405163a2ed46e160e01b8152600490fd5b60405163b790ffed60e01b8152600490fd5b6040516338ebc58960e11b8152600490fd5b604051630738c50360e41b8152600490fd5b6040516380e4469160e01b8152600490fd5b6008018054600160ff821661225e816125f3565b0361226a575b50612059565b60019060ff1916179055600161227e612dca565b7f9c8ea6489f3baa31d321639e3a41ad67158fa673511a98870906b5a9eced0dd4600080a38580612264565b3461014f57602036600319011261014f576001600160a01b036122cb6123fe565b1660005260016020526020600360406000200154604051908152f35b3461014f57600036600319011261014f5760085461230481612751565b612311604051918261248c565b81815260209060208101928360086000527ff3f7a9fe364faab93b216da50a3214154f22a0a2b415b23a84c8169e8b636ee36000915b83831061239857604080516020808252875190820181905289928201908960005b8281106123755784840385f35b9091928260c0826123896001948a516123b5565b01960191019492919094612368565b6004866001926123a785612768565b815201920192019190612347565b60a0908163ffffffff91828151168552826020820151166020860152600180831b0360408201511660408601526060810151606086015260808101516080860152015116910152565b600435906001600160a01b038216820361014f57565b6004359063ffffffff8216820361014f57565b6024359063ffffffff8216820361014f57565b60c081019081106001600160401b0382111761072d57604052565b60a081019081106001600160401b0382111761072d57604052565b61026081019081106001600160401b0382111761072d57604052565b90601f801991011681019081106001600160401b0382111761072d57604052565b6001600160401b03811161072d57601f01601f191660200190565b9291926124d4826124ad565b916124e2604051938461248c565b82948184528183011161014f578281602093846000960137010152565b9080601f8301121561014f5781602061251a933591016124c8565b90565b919082519283825260005b848110612549575050826000602080949584010152601f8019910116010190565b602081830181015184830182015201612528565b90815180825260208080930193019160005b82811061257d575050505090565b83516001600160a01b03168552938101939281019260010161256f565b61251a9163ffffffff82511681526020820151602082015260806125e26125d0604085015160a0604086015260a085019061251d565b6060850151848203606086015261251d565b92015190608081840391015261255d565b60031115610b1c57565b906102609161265961264761263563ffffffff958685511686526020850151602087015260408501519080604088015286019061251d565b6060840151858203606087015261251d565b6080830151848203608086015261251d565b9260018060a01b0360a08301511660a08401528060c08301511660c084015260e08201511660e08301526101008082015190830152610120808201519083015261014080820151906126aa826125f3565b83015261016080820151906126be826125f3565b83015261018080820151906002821015610b1c578301526101a080820151908301526101c080820151908301526101e06001600160601b038183015116908301526102008082015190830152610220808201519083015261024080910151151591015290565b9181601f8401121561014f578235916001600160401b03831161014f576020838186019501011161014f57565b6001600160401b03811161072d5760051b60200190565b906040516127758161243a565b60a08193600381549163ffffffff928381168652838160201c166020870152600180861b039060401c1660408601526001810154606086015260028101546080860152015416910152565b9190916001600160601b03808094169116029182169182036121da57565b63ffffffff91821690821603919082116121da57565b9081602091031261014f5751801515810361014f5790565b90600182811c9216801561283c575b602083101461282657565b634e487b7160e01b600052602260045260246000fd5b91607f169161281b565b818110612851575050565b60008155600101612846565b9190601f811161286c57505050565b612898926000526020600020906020601f840160051c8301931061289a575b601f0160051c0190612846565b565b909150819061288b565b90600163ffffffff809316019182116121da57565b91909163ffffffff808094169116019182116121da57565b919082018092116121da57565b604051906128eb82612455565b6060608083600081526000602082015282604082015282808201520152565b8054600093926129198261280c565b918282526020936001916001811690816000146129815750600114612940575b5050505050565b90939495506000929192528360002092846000945b83861061296d57505050500101903880808080612939565b805485870183015294019385908201612955565b60ff19168685015250505090151560051b010191503880808080612939565b90604051918281549182825260209260208301916000526020600020936000905b8282106129d7575050506128989250038361248c565b85546001600160a01b0316845260019586019588955093810193909101906129c1565b90604051612a0781612455565b6080612a5c6004839563ffffffff815416855260018101546020860152604051612a3881610606816002860161290a565b6040860152604051612a5181610606816003860161290a565b6060860152016129a0565b910152565b63ffffffff90612a7081612d9a565b168060005260026020526040600020612a87612dca565b6009820154111580612af1575b15612aa857600801805461ff001916905550565b600a8101544211612ab8575b5050565b600801805461ff00191661010017905542907f835839f42ff642197e82f2887491db41a51c32dc7004091799724e9e3d6f2489600080a3565b50612afa612dca565b600a8201541015612a94565b90604051612b1381612470565b809263ffffffff80825416835260018201546020840152604051612b3e81610606816002870161290a565b6040840152604051612b5781610606816003870161290a565b6060840152604051612b7081610606816004870161290a565b6080840152600582015460018060a01b03811660a0850152818160a01c1660c085015260c01c1660e08301526006810154610100830152600781015461012083015260ff6008820154818116612bc5816125f3565b610140850152818160081c16612bda816125f3565b61016085015260101c16906002821015610b1c57600e60ff916102409361018086015260098101546101a0860152600a8101546101c08601526001600160601b03600b820154166101e0860152600c810154610200860152600d8101546102208601520154161515910152565b90808214612ab457612c59815461280c565b906001600160401b03821161072d57612c7c82612c76855461280c565b8561285d565b600090601f8311600114612cbb57612cac929160009183612cb05750508160011b916000199060031b1c19161790565b9055565b0154905038806103f4565b815260208082208483528183209291601f1985169083905b828210612d0d575050908460019594939210612cf4575b505050811b019055565b015460001960f88460031b161c19169055388080612cea565b8495819295850154815560018091019601940190612cd3565b6001600160a01b03908116908115612d815760008051602061311983398151915280546001600160a01b031981168417909155167f8be0079c531659141344cd1fd0a4f28419497f9722a3daafe3b4186f6b6457e0600080a3565b604051631e4fbdf760e01b815260006004820152602490fd5b63ffffffff8060005416911611612dad57565b6040516316a7994d60e21b8152600490fd5b6001905110610ce557565b6103e8804202904282048114421517156121da5781018091116121da5790565b600080516020613119833981519152546001600160a01b03163303612e0b57565b60405163118cdaa760e01b8152336004820152602490fd5b600111610ce557565b1015612e3457565b60405163489eca6760e01b8152600490fd5b63ffffffff82511663ffffffff1982541617815560019160208082015184840155600283019260408301519384516001600160401b039586821161072d57612e9282612c76855461280c565b8490601f831160011461301257612ec1929160009183612f995750508160011b916000199060031b1c19161790565b90555b60038101606084015180519086821161072d57612ee582612c76855461280c565b8490601f8311600114612fa457826080959360049593612f1b93600092612f995750508160011b916000199060031b1c19161790565b90555b01920151805193841161072d57600160401b841161072d5781908354858555808610612f7c575b500191600052806000209060005b848110612f6257505050505050565b83516001600160a01b031683820155928101928501612f53565b612f93908560005286846000209182019101612846565b38612f45565b0151905038806103f4565b889291601f1983169185600052876000209260005b89828210612ffc5750509160809795939185600498969410612fe3575b505050811b019055612f1e565b015160001960f88460031b161c19169055388080612fd6565b8385015186558d97909501949384019301612fb9565b889291601f1983169185600052876000209260005b8982821061305e5750508411613045575b505050811b019055612ec4565b015160001960f88460031b161c19169055388080613038565b8385015186558d97909501949384019301613027565b60ff7ff0c57e16840df040f15088dc2f81fe391c3923bec73e23a9662efc9c229c6a005460401c16156130a357565b604051631afcd79f60e31b8152600490fd5b906130dc57508051156130ca57805190602001fd5b604051630a12f52160e11b8152600490fd5b8151158061310f575b6130ed575090565b604051639996b31560e01b81526001600160a01b039091166004820152602490fd5b50803b156130e556fe9016d09d72d40fdae2fd8ceac6b6234c7706214fd39c1cd1e609a0528c199300f652222313e28459528d920b65115c16c04f3efc82aaedc97be59f3f377c0d3ff652222313e28459528d920b65115c16c04f3efc82aaedc97be59f3f377c0d47a264697066735822122074c46779b0ff955b79665854175bcca4a13a42188ecad50896fa68ee5b216ce464736f6c63430008180033",
    "linkReferences": {}
  },
  "methodIdentifiers": {
    "UPGRADE_INTERFACE_VERSION()": "ad3cb1cc",
    "checkContractBalance()": "50312c9e",
    "checkUserBalance(address)": "0a9bfef5",
    "createAccount(string,address,string)": "331ef976",
    "createEvent(bytes32,string,string,string,uint32,uint256,uint256,uint256,uint256,uint96,bool)": "dbc96e99",
    "getAllEventGroups()": "909fdec9",
    "getAllEvents()": "c27a500d",
    "getAllTickets()": "03e96fe3",
    "getEvent(uint32)": "d88c8e98",
    "getEventGroup(uint32)": "3809f6f5",
    "getGroupMembers(uint32)": "ec976a0a",
    "getTicket(address)": "4717dea9",
    "getUser(address)": "6f77926b",
    "initialize(address)": "c4d66de8",
    "isRegistered(address)": "c3c5a547",
    "owner()": "8da5cb5b",
    "proxiableUUID()": "52d1902d",
    "purchaseTicket(uint32,uint32)": "3405741d",
    "refundFee(uint32,uint32)": "0f9fcf48",
    "renounceOwnership()": "715018a6",
    "transferOwnership(address)": "f2fde38b",
    "updateEventStatus(uint32)": "a87f86f9",
    "upgradeToAndCall(address,bytes)": "4f1ef286",
    "withdrawEventFee(uint32)": "b33f650e"
  },
  "id": 36
}