{
  "abi": [
    {
      "type": "function",
      "name": "UPGRADE_INTERFACE_VERSION",
      "inputs": [],
      "outputs": [
        {
          "name": "",
          "type": "string",
          "internalType": "string"
        }
      ],
      "stateMutability": "view"
    },
    {
      "type": "function",
      "name": "checkContractBalance",
      "inputs": [],
      "outputs": [
        {
          "name": "bal_",
          "type": "uint256",
          "internalType": "uint256"
        }
      ],
      "stateMutability": "view"
    },
    {
      "type": "function",
      "name": "checkUserBalance",
      "inputs": [
        {
          "name": "_addr",
          "type": "address",
          "internalType": "address"
        }
      ],
      "outputs": [
        {
          "name": "bal_",
          "type": "uint256",
          "internalType": "uint256"
        }
      ],
      "stateMutability": "view"
    },
    {
      "type": "function",
      "name": "createAccount",
      "inputs": [
        {
          "name": "_email",
          "type": "string",
          "internalType": "string"
        },
        {
          "name": "_addr",
          "type": "address",
          "internalType": "address"
        },
        {
          "name": "_avatar",
          "type": "string",
          "internalType": "string"
        }
      ],
      "outputs": [],
      "stateMutability": "nonpayable"
    },
    {
      "type": "function",
      "name": "createEvent",
      "inputs": [
        {
          "name": "_title",
          "type": "bytes32",
          "internalType": "bytes32"
        },
        {
          "name": "_imageUrl",
          "type": "string",
          "internalType": "string"
        },
        {
          "name": "_description",
          "type": "string",
          "internalType": "string"
        },
        {
          "name": "_location",
          "type": "string",
          "internalType": "string"
        },
        {
          "name": "_capacity",
          "type": "uint32",
          "internalType": "uint32"
        },
        {
          "name": "_regStartTime",
          "type": "uint256",
          "internalType": "uint256"
        },
        {
          "name": "_regEndTime",
          "type": "uint256",
          "internalType": "uint256"
        },
        {
          "name": "_eventStartTime",
          "type": "uint256",
          "internalType": "uint256"
        },
        {
          "name": "_eventEndTime",
          "type": "uint256",
          "internalType": "uint256"
        },
        {
          "name": "_ticketPrice",
          "type": "uint96",
          "internalType": "uint96"
        },
        {
          "name": "_isEventPaid",
          "type": "bool",
          "internalType": "bool"
        }
      ],
      "outputs": [],
      "stateMutability": "nonpayable"
    },
    {
      "type": "function",
      "name": "getAllEventGroups",
      "inputs": [],
      "outputs": [
        {
          "name": "group_",
          "type": "tuple[]",
          "internalType": "struct BlumaProtocol.EventGroup[]",
          "components": [
            {
              "name": "eventId",
              "type": "uint32",
              "internalType": "uint32"
            },
            {
              "name": "title",
              "type": "bytes32",
              "internalType": "bytes32"
            },
            {
              "name": "imageUrl",
              "type": "string",
              "internalType": "string"
            },
            {
              "name": "description",
              "type": "string",
              "internalType": "string"
            },
            {
              "name": "members",
              "type": "tuple[]",
              "internalType": "struct BlumaProtocol.Member[]",
              "components": [
                {
                  "name": "user",
                  "type": "address",
                  "internalType": "address"
                },
                {
                  "name": "joinTime",
                  "type": "uint256",
                  "internalType": "uint256"
                }
              ]
            },
            {
              "name": "messages",
              "type": "tuple[]",
              "internalType": "struct BlumaProtocol.Message[]",
              "components": [
                {
                  "name": "sender",
                  "type": "address",
                  "internalType": "address"
                },
                {
                  "name": "email",
                  "type": "string",
                  "internalType": "string"
                },
                {
                  "name": "text",
                  "type": "string",
                  "internalType": "string"
                },
                {
                  "name": "timestamp",
                  "type": "uint256",
                  "internalType": "uint256"
                }
              ]
            }
          ]
        }
      ],
      "stateMutability": "view"
    },
    {
      "type": "function",
      "name": "getAllEvents",
      "inputs": [],
      "outputs": [
        {
          "name": "",
          "type": "tuple[]",
          "internalType": "struct BlumaProtocol.Event[]",
          "components": [
            {
              "name": "eventId",
              "type": "uint32",
              "internalType": "uint32"
            },
            {
              "name": "title",
              "type": "bytes32",
              "internalType": "bytes32"
            },
            {
              "name": "imageUrl",
              "type": "string",
              "internalType": "string"
            },
            {
              "name": "location",
              "type": "string",
              "internalType": "string"
            },
            {
              "name": "description",
              "type": "string",
              "internalType": "string"
            },
            {
              "name": "creator",
              "type": "address",
              "internalType": "address"
            },
            {
              "name": "seats",
              "type": "uint32",
              "internalType": "uint32"
            },
            {
              "name": "capacity",
              "type": "uint32",
              "internalType": "uint32"
            },
            {
              "name": "regStartTime",
              "type": "uint256",
              "internalType": "uint256"
            },
            {
              "name": "regEndTime",
              "type": "uint256",
              "internalType": "uint256"
            },
            {
              "name": "regStatus",
              "type": "uint8",
              "internalType": "enum BlumaProtocol.RegStatus"
            },
            {
              "name": "eventStatus",
              "type": "uint8",
              "internalType": "enum BlumaProtocol.EventStatus"
            },
            {
              "name": "eventType",
              "type": "uint8",
              "internalType": "enum BlumaProtocol.EventType"
            },
            {
              "name": "eventStartTime",
              "type": "uint256",
              "internalType": "uint256"
            },
            {
              "name": "eventEndTime",
              "type": "uint256",
              "internalType": "uint256"
            },
            {
              "name": "ticketPrice",
              "type": "uint96",
              "internalType": "uint96"
            },
            {
              "name": "totalSales",
              "type": "uint256",
              "internalType": "uint256"
            },
            {
              "name": "createdAt",
              "type": "uint256",
              "internalType": "uint256"
            },
            {
              "name": "isCreatorPaid",
              "type": "bool",
              "internalType": "bool"
            }
          ]
        }
      ],
      "stateMutability": "view"
    },
    {
      "type": "function",
      "name": "getAllGroupMessages",
      "inputs": [
        {
          "name": "_groupId",
          "type": "uint32",
          "internalType": "uint32"
        }
      ],
      "outputs": [
        {
          "name": "",
          "type": "tuple[]",
          "internalType": "struct BlumaProtocol.Message[]",
          "components": [
            {
              "name": "sender",
              "type": "address",
              "internalType": "address"
            },
            {
              "name": "email",
              "type": "string",
              "internalType": "string"
            },
            {
              "name": "text",
              "type": "string",
              "internalType": "string"
            },
            {
              "name": "timestamp",
              "type": "uint256",
              "internalType": "uint256"
            }
          ]
        }
      ],
      "stateMutability": "view"
    },
    {
      "type": "function",
      "name": "getAllTickets",
      "inputs": [],
      "outputs": [
        {
          "name": "_tickets",
          "type": "tuple[]",
          "internalType": "struct BlumaProtocol.Ticket[]",
          "components": [
            {
              "name": "ticketId",
              "type": "uint32",
              "internalType": "uint32"
            },
            {
              "name": "eventId",
              "type": "uint32",
              "internalType": "uint32"
            },
            {
              "name": "owner",
              "type": "address",
              "internalType": "address"
            },
            {
              "name": "ticketCost",
              "type": "uint256",
              "internalType": "uint256"
            },
            {
              "name": "purchaseTime",
              "type": "uint256",
              "internalType": "uint256"
            },
            {
              "name": "numberOfTicket",
              "type": "uint32",
              "internalType": "uint32"
            }
          ]
        }
      ],
      "stateMutability": "view"
    },
    {
      "type": "function",
      "name": "getAllUser",
      "inputs": [],
      "outputs": [
        {
          "name": "",
          "type": "tuple[]",
          "internalType": "struct BlumaProtocol.User[]",
          "components": [
            {
              "name": "email",
              "type": "string",
              "internalType": "string"
            },
            {
              "name": "userAddr",
              "type": "address",
              "internalType": "address"
            },
            {
              "name": "isRegistered",
              "type": "bool",
              "internalType": "bool"
            },
            {
              "name": "avatar",
              "type": "string",
              "internalType": "string"
            },
            {
              "name": "balance",
              "type": "uint256",
              "internalType": "uint256"
            }
          ]
        }
      ],
      "stateMutability": "view"
    },
    {
      "type": "function",
      "name": "getEventById",
      "inputs": [
        {
          "name": "_eventId",
          "type": "uint32",
          "internalType": "uint32"
        }
      ],
      "outputs": [
        {
          "name": "events_",
          "type": "tuple",
          "internalType": "struct BlumaProtocol.Event",
          "components": [
            {
              "name": "eventId",
              "type": "uint32",
              "internalType": "uint32"
            },
            {
              "name": "title",
              "type": "bytes32",
              "internalType": "bytes32"
            },
            {
              "name": "imageUrl",
              "type": "string",
              "internalType": "string"
            },
            {
              "name": "location",
              "type": "string",
              "internalType": "string"
            },
            {
              "name": "description",
              "type": "string",
              "internalType": "string"
            },
            {
              "name": "creator",
              "type": "address",
              "internalType": "address"
            },
            {
              "name": "seats",
              "type": "uint32",
              "internalType": "uint32"
            },
            {
              "name": "capacity",
              "type": "uint32",
              "internalType": "uint32"
            },
            {
              "name": "regStartTime",
              "type": "uint256",
              "internalType": "uint256"
            },
            {
              "name": "regEndTime",
              "type": "uint256",
              "internalType": "uint256"
            },
            {
              "name": "regStatus",
              "type": "uint8",
              "internalType": "enum BlumaProtocol.RegStatus"
            },
            {
              "name": "eventStatus",
              "type": "uint8",
              "internalType": "enum BlumaProtocol.EventStatus"
            },
            {
              "name": "eventType",
              "type": "uint8",
              "internalType": "enum BlumaProtocol.EventType"
            },
            {
              "name": "eventStartTime",
              "type": "uint256",
              "internalType": "uint256"
            },
            {
              "name": "eventEndTime",
              "type": "uint256",
              "internalType": "uint256"
            },
            {
              "name": "ticketPrice",
              "type": "uint96",
              "internalType": "uint96"
            },
            {
              "name": "totalSales",
              "type": "uint256",
              "internalType": "uint256"
            },
            {
              "name": "createdAt",
              "type": "uint256",
              "internalType": "uint256"
            },
            {
              "name": "isCreatorPaid",
              "type": "bool",
              "internalType": "bool"
            }
          ]
        }
      ],
      "stateMutability": "view"
    },
    {
      "type": "function",
      "name": "getEventGroup",
      "inputs": [
        {
          "name": "_groupId",
          "type": "uint32",
          "internalType": "uint32"
        }
      ],
      "outputs": [
        {
          "name": "group_",
          "type": "tuple",
          "internalType": "struct BlumaProtocol.EventGroup",
          "components": [
            {
              "name": "eventId",
              "type": "uint32",
              "internalType": "uint32"
            },
            {
              "name": "title",
              "type": "bytes32",
              "internalType": "bytes32"
            },
            {
              "name": "imageUrl",
              "type": "string",
              "internalType": "string"
            },
            {
              "name": "description",
              "type": "string",
              "internalType": "string"
            },
            {
              "name": "members",
              "type": "tuple[]",
              "internalType": "struct BlumaProtocol.Member[]",
              "components": [
                {
                  "name": "user",
                  "type": "address",
                  "internalType": "address"
                },
                {
                  "name": "joinTime",
                  "type": "uint256",
                  "internalType": "uint256"
                }
              ]
            },
            {
              "name": "messages",
              "type": "tuple[]",
              "internalType": "struct BlumaProtocol.Message[]",
              "components": [
                {
                  "name": "sender",
                  "type": "address",
                  "internalType": "address"
                },
                {
                  "name": "email",
                  "type": "string",
                  "internalType": "string"
                },
                {
                  "name": "text",
                  "type": "string",
                  "internalType": "string"
                },
                {
                  "name": "timestamp",
                  "type": "uint256",
                  "internalType": "uint256"
                }
              ]
            }
          ]
        }
      ],
      "stateMutability": "view"
    },
    {
      "type": "function",
      "name": "getGroupMember",
      "inputs": [
        {
          "name": "_groupId",
          "type": "uint32",
          "internalType": "uint32"
        },
        {
          "name": "_index",
          "type": "uint256",
          "internalType": "uint256"
        }
      ],
      "outputs": [
        {
          "name": "",
          "type": "tuple",
          "internalType": "struct BlumaProtocol.Member",
          "components": [
            {
              "name": "user",
              "type": "address",
              "internalType": "address"
            },
            {
              "name": "joinTime",
              "type": "uint256",
              "internalType": "uint256"
            }
          ]
        }
      ],
      "stateMutability": "view"
    },
    {
      "type": "function",
      "name": "getGroupMembers",
      "inputs": [
        {
          "name": "_eventId",
          "type": "uint32",
          "internalType": "uint32"
        }
      ],
      "outputs": [
        {
          "name": "_members",
          "type": "tuple[]",
          "internalType": "struct BlumaProtocol.Member[]",
          "components": [
            {
              "name": "user",
              "type": "address",
              "internalType": "address"
            },
            {
              "name": "joinTime",
              "type": "uint256",
              "internalType": "uint256"
            }
          ]
        }
      ],
      "stateMutability": "view"
    },
    {
      "type": "function",
      "name": "getTicket",
      "inputs": [
        {
          "name": "_addr",
          "type": "address",
          "internalType": "address"
        }
      ],
      "outputs": [
        {
          "name": "_ticket",
          "type": "tuple",
          "internalType": "struct BlumaProtocol.Ticket",
          "components": [
            {
              "name": "ticketId",
              "type": "uint32",
              "internalType": "uint32"
            },
            {
              "name": "eventId",
              "type": "uint32",
              "internalType": "uint32"
            },
            {
              "name": "owner",
              "type": "address",
              "internalType": "address"
            },
            {
              "name": "ticketCost",
              "type": "uint256",
              "internalType": "uint256"
            },
            {
              "name": "purchaseTime",
              "type": "uint256",
              "internalType": "uint256"
            },
            {
              "name": "numberOfTicket",
              "type": "uint32",
              "internalType": "uint32"
            }
          ]
        }
      ],
      "stateMutability": "view"
    },
    {
      "type": "function",
      "name": "getUser",
      "inputs": [
        {
          "name": "_addr",
          "type": "address",
          "internalType": "address"
        }
      ],
      "outputs": [
        {
          "name": "_user",
          "type": "tuple",
          "internalType": "struct BlumaProtocol.User",
          "components": [
            {
              "name": "email",
              "type": "string",
              "internalType": "string"
            },
            {
              "name": "userAddr",
              "type": "address",
              "internalType": "address"
            },
            {
              "name": "isRegistered",
              "type": "bool",
              "internalType": "bool"
            },
            {
              "name": "avatar",
              "type": "string",
              "internalType": "string"
            },
            {
              "name": "balance",
              "type": "uint256",
              "internalType": "uint256"
            }
          ]
        }
      ],
      "stateMutability": "view"
    },
    {
      "type": "function",
      "name": "groupChat",
      "inputs": [
        {
          "name": "_groupId",
          "type": "uint32",
          "internalType": "uint32"
        },
        {
          "name": "_text",
          "type": "string",
          "internalType": "string"
        }
      ],
      "outputs": [],
      "stateMutability": "nonpayable"
    },
    {
      "type": "function",
      "name": "initialize",
      "inputs": [
        {
          "name": "initialOwner",
          "type": "address",
          "internalType": "address"
        }
      ],
      "outputs": [],
      "stateMutability": "nonpayable"
    },
    {
      "type": "function",
      "name": "isRegistered",
      "inputs": [
        {
          "name": "_addr",
          "type": "address",
          "internalType": "address"
        }
      ],
      "outputs": [
        {
          "name": "",
          "type": "bool",
          "internalType": "bool"
        }
      ],
      "stateMutability": "view"
    },
    {
      "type": "function",
      "name": "joinGroup",
      "inputs": [
        {
          "name": "_eventId",
          "type": "uint32",
          "internalType": "uint32"
        }
      ],
      "outputs": [],
      "stateMutability": "nonpayable"
    },
    {
      "type": "function",
      "name": "owner",
      "inputs": [],
      "outputs": [
        {
          "name": "",
          "type": "address",
          "internalType": "address"
        }
      ],
      "stateMutability": "view"
    },
    {
      "type": "function",
      "name": "proxiableUUID",
      "inputs": [],
      "outputs": [
        {
          "name": "",
          "type": "bytes32",
          "internalType": "bytes32"
        }
      ],
      "stateMutability": "view"
    },
    {
      "type": "function",
      "name": "purchaseTicket",
      "inputs": [
        {
          "name": "_eventId",
          "type": "uint32",
          "internalType": "uint32"
        },
        {
          "name": "_numberOfTickets",
          "type": "uint32",
          "internalType": "uint32"
        }
      ],
      "outputs": [],
      "stateMutability": "nonpayable"
    },
    {
      "type": "function",
      "name": "refundFee",
      "inputs": [
        {
          "name": "_eventId",
          "type": "uint32",
          "internalType": "uint32"
        },
        {
          "name": "_numberOfTickets",
          "type": "uint32",
          "internalType": "uint32"
        }
      ],
      "outputs": [],
      "stateMutability": "nonpayable"
    },
    {
      "type": "function",
      "name": "renounceOwnership",
      "inputs": [],
      "outputs": [],
      "stateMutability": "nonpayable"
    },
    {
      "type": "function",
      "name": "transferOwnership",
      "inputs": [
        {
          "name": "newOwner",
          "type": "address",
          "internalType": "address"
        }
      ],
      "outputs": [],
      "stateMutability": "nonpayable"
    },
    {
      "type": "function",
      "name": "updateEventStatus",
      "inputs": [
        {
          "name": "_eventId",
          "type": "uint32",
          "internalType": "uint32"
        }
      ],
      "outputs": [],
      "stateMutability": "nonpayable"
    },
    {
      "type": "function",
      "name": "upgradeToAndCall",
      "inputs": [
        {
          "name": "newImplementation",
          "type": "address",
          "internalType": "address"
        },
        {
          "name": "data",
          "type": "bytes",
          "internalType": "bytes"
        }
      ],
      "outputs": [],
      "stateMutability": "payable"
    },
    {
      "type": "function",
      "name": "withdrawEventFee",
      "inputs": [
        {
          "name": "_eventId",
          "type": "uint32",
          "internalType": "uint32"
        }
      ],
      "outputs": [],
      "stateMutability": "nonpayable"
    },
    {
      "type": "event",
      "name": "EventClosed",
      "inputs": [
        {
          "name": "_eventId",
          "type": "uint32",
          "indexed": true,
          "internalType": "uint32"
        },
        {
          "name": "_currentTime",
          "type": "uint256",
          "indexed": true,
          "internalType": "uint256"
        }
      ],
      "anonymous": false
    },
    {
      "type": "event",
      "name": "EventCreated",
      "inputs": [
        {
          "name": "_totalEventsId",
          "type": "uint32",
          "indexed": true,
          "internalType": "uint32"
        },
        {
          "name": "_seatNumber",
          "type": "uint32",
          "indexed": true,
          "internalType": "uint32"
        },
        {
          "name": "_capacity",
          "type": "uint32",
          "indexed": true,
          "internalType": "uint32"
        }
      ],
      "anonymous": false
    },
    {
      "type": "event",
      "name": "GroupCreated",
      "inputs": [
        {
          "name": "_roomId",
          "type": "uint32",
          "indexed": true,
          "internalType": "uint32"
        },
        {
          "name": "imageUrl",
          "type": "string",
          "indexed": false,
          "internalType": "string"
        },
        {
          "name": "_title",
          "type": "bytes32",
          "indexed": false,
          "internalType": "bytes32"
        }
      ],
      "anonymous": false
    },
    {
      "type": "event",
      "name": "GroupJoinedSuccessfully",
      "inputs": [
        {
          "name": "_sender",
          "type": "address",
          "indexed": true,
          "internalType": "address"
        },
        {
          "name": "_eventId",
          "type": "uint32",
          "indexed": true,
          "internalType": "uint32"
        },
        {
          "name": "_joinedTimw",
          "type": "uint256",
          "indexed": true,
          "internalType": "uint256"
        }
      ],
      "anonymous": false
    },
    {
      "type": "event",
      "name": "Initialized",
      "inputs": [
        {
          "name": "version",
          "type": "uint64",
          "indexed": false,
          "internalType": "uint64"
        }
      ],
      "anonymous": false
    },
    {
      "type": "event",
      "name": "MessageSent",
      "inputs": [
        {
          "name": "sender",
          "type": "address",
          "indexed": true,
          "internalType": "address"
        },
        {
          "name": "groupId",
          "type": "uint32",
          "indexed": true,
          "internalType": "uint32"
        },
        {
          "name": "text",
          "type": "string",
          "indexed": false,
          "internalType": "string"
        },
        {
          "name": "timestamp",
          "type": "uint256",
          "indexed": false,
          "internalType": "uint256"
        }
      ],
      "anonymous": false
    },
    {
      "type": "event",
      "name": "OwnershipTransferred",
      "inputs": [
        {
          "name": "previousOwner",
          "type": "address",
          "indexed": true,
          "internalType": "address"
        },
        {
          "name": "newOwner",
          "type": "address",
          "indexed": true,
          "internalType": "address"
        }
      ],
      "anonymous": false
    },
    {
      "type": "event",
      "name": "RefundIssued",
      "inputs": [
        {
          "name": "buyer",
          "type": "address",
          "indexed": true,
          "internalType": "address"
        },
        {
          "name": "_ticketId",
          "type": "uint32",
          "indexed": true,
          "internalType": "uint32"
        },
        {
          "name": "_eventId",
          "type": "uint32",
          "indexed": true,
          "internalType": "uint32"
        },
        {
          "name": "amount",
          "type": "uint256",
          "indexed": false,
          "internalType": "uint256"
        }
      ],
      "anonymous": false
    },
    {
      "type": "event",
      "name": "RegistrationClose",
      "inputs": [
        {
          "name": "_currentTime",
          "type": "uint256",
          "indexed": true,
          "internalType": "uint256"
        },
        {
          "name": "_status",
          "type": "uint8",
          "indexed": true,
          "internalType": "uint8"
        }
      ],
      "anonymous": false
    },
    {
      "type": "event",
      "name": "TicketPurchased",
      "inputs": [
        {
          "name": "buyer",
          "type": "address",
          "indexed": true,
          "internalType": "address"
        },
        {
          "name": "_eventId",
          "type": "uint32",
          "indexed": true,
          "internalType": "uint32"
        },
        {
          "name": "numberOfTickets",
          "type": "uint32",
          "indexed": false,
          "internalType": "uint32"
        }
      ],
      "anonymous": false
    },
    {
      "type": "event",
      "name": "Upgraded",
      "inputs": [
        {
          "name": "implementation",
          "type": "address",
          "indexed": true,
          "internalType": "address"
        }
      ],
      "anonymous": false
    },
    {
      "type": "error",
      "name": "ALREADY_A_MEMBER",
      "inputs": []
    },
    {
      "type": "error",
      "name": "ALREADY_PAID",
      "inputs": []
    },
    {
      "type": "error",
      "name": "AddressEmptyCode",
      "inputs": [
        {
          "name": "target",
          "type": "address",
          "internalType": "address"
        }
      ]
    },
    {
      "type": "error",
      "name": "EMPTY_INPUT_FIELD",
      "inputs": []
    },
    {
      "type": "error",
      "name": "ERC1967InvalidImplementation",
      "inputs": [
        {
          "name": "implementation",
          "type": "address",
          "internalType": "address"
        }
      ]
    },
    {
      "type": "error",
      "name": "ERC1967NonPayable",
      "inputs": []
    },
    {
      "type": "error",
      "name": "EVENT_NOT_CLOSED",
      "inputs": []
    },
    {
      "type": "error",
      "name": "FailedInnerCall",
      "inputs": []
    },
    {
      "type": "error",
      "name": "GROUP_ALREADY_EXISTS",
      "inputs": []
    },
    {
      "type": "error",
      "name": "INSUFFICIENT_BALANCE",
      "inputs": []
    },
    {
      "type": "error",
      "name": "INSUFFICIENT_TICKET_PURCHASED",
      "inputs": []
    },
    {
      "type": "error",
      "name": "INVALID_EVENT_ID",
      "inputs": []
    },
    {
      "type": "error",
      "name": "INVALID_ID",
      "inputs": []
    },
    {
      "type": "error",
      "name": "INVALID_NOT_AUTHORIZED",
      "inputs": []
    },
    {
      "type": "error",
      "name": "INVALID_TIME_SET",
      "inputs": []
    },
    {
      "type": "error",
      "name": "InvalidInitialization",
      "inputs": []
    },
    {
      "type": "error",
      "name": "NOT_CREATOR",
      "inputs": []
    },
    {
      "type": "error",
      "name": "NOT_ENOUGH_AVAILABLE_SEAT",
      "inputs": []
    },
    {
      "type": "error",
      "name": "NOT_OWNER",
      "inputs": []
    },
    {
      "type": "error",
      "name": "NOT_PAID_EVENT",
      "inputs": []
    },
    {
      "type": "error",
      "name": "NO_ALLOWANCE",
      "inputs": []
    },
    {
      "type": "error",
      "name": "NotInitializing",
      "inputs": []
    },
    {
      "type": "error",
      "name": "OwnableInvalidOwner",
      "inputs": [
        {
          "name": "owner",
          "type": "address",
          "internalType": "address"
        }
      ]
    },
    {
      "type": "error",
      "name": "OwnableUnauthorizedAccount",
      "inputs": [
        {
          "name": "account",
          "type": "address",
          "internalType": "address"
        }
      ]
    },
    {
      "type": "error",
      "name": "REGISTRATION_CLOSE",
      "inputs": []
    },
    {
      "type": "error",
      "name": "REGISTRATION_NOT_OPEN",
      "inputs": []
    },
    {
      "type": "error",
      "name": "USER_NOT_REGISTERED",
      "inputs": []
    },
    {
      "type": "error",
      "name": "UUPSUnauthorizedCallContext",
      "inputs": []
    },
    {
      "type": "error",
      "name": "UUPSUnsupportedProxiableUUID",
      "inputs": [
        {
          "name": "slot",
          "type": "bytes32",
          "internalType": "bytes32"
        }
      ]
    }
  ],
  "bytecode": {
    "object": "0x60a0806040523461002a5730608052613b14908161003082396080518181816118e70152611a290152f35b600080fdfe6080604052600436101561001257600080fd5b60e060003560e01c90816303e96fe3146129e05781630a9bfef5146129a35781630f9fcf48146126c45781631755b97a146125eb578163331ef976146122ba5781633405741d14611ddd5781633809f6f514611d645781634717dea914611cf257816347531df814611c085781634f1ef286146119da57816350312c9e1461195157816352d1902d146118d45781636f77926b1461185f578163715018a6146117f557816385a646c9146117655781638da5cb5b1461172f578163909fdec914611645578163a87f86f914611624578163ad3cb1cc146115de578163b33f650e1461147a578163be7fb5d714611113578163c27a500d14610ea357508063c3c5a54714610e5e578063c4d66de814610d05578063cd71ed3514610b58578063dbc96e99146102ee578063ec976a0a14610293578063eec932f71461018f5763f2fde38b1461015f57600080fd5b3461018a57602036600319011261018a5761018861017b612af7565b610183613783565b6136d1565b005b600080fd5b3461018a5760208060031936011261018a576101a9612b0d565b906101b382613745565b63ffffffff80921691826000526004825260406000209081541615610281573360005260068252604060002083600052825260ff6040600020541661026f5761021b906004610200613763565b916040519261020e84612ba9565b338452858401520161366d565b336000526006815260406000209082600052526040600020600160ff19825416179055610246613763565b90337ff11404c60069f7d8b6ecebb855f6ac5080f851b85152f4cb855640c49a30c2dd600080a4005b60405163cea6102760e01b8152600490fd5b6040516316a7994d60e21b8152600490fd5b3461018a57602036600319011261018a5763ffffffff6102b1612b0d565b6102ba81613745565b1660005260046020526102ea6102d66004604060002001613362565b604051918291602083526020830190612c8c565b0390f35b3461018a5761016036600319011261018a576024356001600160401b03811161018a5761031f903690600401612e38565b906044356001600160401b03811161018a5761033f903690600401612e38565b6064356001600160401b03811161018a5761035e903690600401612e38565b92909463ffffffff608435166084350361018a5761012435946001600160601b038616860361018a576101443595861515870361018a5733600052600160205260ff60016040600020015460a01c1615610b46576103c56103c0368787612c37565b613758565b6103d36103c0368585612c37565b6103e16103c036888b612c37565b6103ec60a4356137bc565b6103f760c4356137bc565b61040260e4356137bc565b61040e610104356137bc565b6104206001600160601b0382166137bc565b600163ffffffff6084351610610b345761043f6101043560e4356137c5565b61044d60c43560a4356137c5565b60005463ffffffff610460818316613301565b16809163ffffffff1916176000556000526002602052600160406000209760a435610489613763565b1015610b235760088901805460ff191660021790555b151503610af3576008870162ff00001981541690556001600160601b03600b880191166001600160601b03198254161790555b63ffffffff6000541663ffffffff1987541617865560043560018701556001600160401b038211610959576105178261050e6002890154613051565b600289016131dd565b600090601f8311600114610a8257610548929160009183610a77575b50508160011b916000199060031b1c19161790565b60028501555b6001600160401b038211610959576105768261056d6004870154613051565b600487016131dd565b600090601f8311600114610a06576105a69291600091836109fb5750508160011b916000199060031b1c19161790565b60048301555b6005820180546001600160a01b031916331790556001600160401b038111610959576105e8816105df6003850154613051565b600385016131dd565b600092601f821160011461098c57610619929382916000926109815750508160011b916000199060031b1c19161790565b60038201555b60058101805463ffffffff60c01b191660843560c01b63ffffffff60c01b1617905560a435600682015560c435600782015560e435600982015561010435600a82015560088101805461ff00191661020017905561067b613763565b600d82015563ffffffff81541661069181613745565b80600052600460205263ffffffff6040600020541661096f578060005260026020526040600020600460205260406000208263ffffffff19825416178155600182015460018201556106e96002830160028301613224565b60038101916106fb6004820184613224565b6005810180546004840194916001600160a01b039161073890831661071e613763565b6040519161072b83612ba9565b825260208201528761366d565b541660005260066020526040600020856000526020526040600020600160ff1982541617905560085492600160401b841015610959576001840180600855841015610943577f45881a834c1c2b1081ee9f2063da43f83e3d9f2ba737ca954a4098d94bce97d59460066107f99560086000520291827ff3f7a9fe364faab93b216da50a3214154f22a0a2b415b23a84c8169e8b636ee30190808203610846575b5050505050600181015460405192839260408452600260408501910161308b565b9060208301520390a263ffffffff6000541663ffffffff6005816084351693015460a01c16907fac3c2fbb08f906d92c1b4be6fa025f63708bafa70869110e931d718b9532c411600080a4005b6109317ff3f7a9fe364faab93b216da50a3214154f22a0a2b415b23a84c8169e8b636ee8936109096109399760059563ffffffff86541663ffffffff1982541617905560018501547ff3f7a9fe364faab93b216da50a3214154f22a0a2b415b23a84c8169e8b636ee48901556108e1600286017ff3f7a9fe364faab93b216da50a3214154f22a0a2b415b23a84c8169e8b636ee58a01613224565b7ff3f7a9fe364faab93b216da50a3214154f22a0a2b415b23a84c8169e8b636ee68801613224565b7ff3f7a9fe364faab93b216da50a3214154f22a0a2b415b23a84c8169e8b636ee786016137df565b019101613905565b85808080806107d8565b634e487b7160e01b600052603260045260246000fd5b634e487b7160e01b600052604160045260246000fd5b60405163e955b73b60e01b8152600490fd5b013590508480610533565b600383016000526020600020906000945b601f19841686106109e357600194955083601f198116106109c9575b505050811b01600382015561061f565b0135600019600384901b60f8161c191690558380806109b9565b9160206001819285850135815501930195019461099d565b013590508680610533565b600485939293016000526020600020906000935b601f1984168510610a5f576001945083601f19811610610a45575b505050811b0160048301556105ac565b0135600019600384901b60f8161c19169055858080610a35565b81810135835560209485019460019093019201610a1a565b013590508880610533565b600287939293016000526020600020906000935b601f1984168510610adb576001945083601f19811610610ac1575b505050811b01600285015561054e565b0135600019600384901b60f8161c19169055878080610ab1565b81810135835560209485019460019093019201610a96565b50600b860180546bffffffffffffffffffffffff1916905560088601805462ff00001916620100001790556104d2565b60088901805460ff1916905561049f565b604051631ee8943b60e21b8152600490fd5b604051633069384b60e21b8152600490fd5b3461018a57602036600319011261018a57610b71612b0d565b610b79613567565b50610b8381613745565b63ffffffff809116600052600260205260406000209060405190610ba682612bdf565b80835416825260018301546020830152604051610bd181610bca816002880161308b565b0382612bfb565b6040830152604051610bea81610bca816003880161308b565b6060830152604051610c0381610bca816004880161308b565b6080830152600583015460018060a01b03811660a0840152818160a01c1660c084015260c01c1660e08201526006820154610100820152600782015461012082015260ff6008830154818116610c5881612e65565b610140840152818160081c16610c6d81612e65565b61016084015260101c16916002831015610cef57600e60ff916102ea9461018085015260098101546101a0850152600a8101546101c08501526001600160601b03600b820154166101e0850152600c810154610200850152600d8101546102208501520154161515610240820152604051918291602083526020830190612e6f565b634e487b7160e01b600052602160045260246000fd5b3461018a57602036600319011261018a57610d1e612af7565b7ff0c57e16840df040f15088dc2f81fe391c3923bec73e23a9662efc9c229c6a0090815460ff8160401c1615916001600160401b03821680159081610e56575b6001149081610e4c575b159081610e43575b50610e315767ffffffffffffffff1982166001178455610da19183610e12575b50610d99613a1a565b610183613a1a565b610da9613a1a565b600b80546001600160a01b031916734cb6cef87d8cadf966b455e8bd58fff32aba49d1179055610dd557005b68ff00000000000000001981541690557fc7f505b2f371ae2175ee4913f4499e1f2633a7b5936321eed1cdaeb6115181d2602060405160018152a1005b68ffffffffffffffffff19166801000000000000000117845584610d90565b60405163f92ee8a960e01b8152600490fd5b90501585610d70565b303b159150610d68565b849150610d5e565b3461018a57602036600319011261018a576001600160a01b03610e7f612af7565b166000526001602052602060ff60016040600020015460a01c166040519015158152f35b3461018a57600036600319011261018a5763ffffffff90816000541690610ec9826135f4565b9060009060015b85811685811161106b5760005260026020908082526040600020888154169283610f07575b50505050610f0290613644565b610ed0565b60405194969293610f1786612bdf565b8552600182015490850152604051610f3581610bca8187860161308b565b6040850152604051610f4e81610bca816003860161308b565b6060850152604051610f6781610bca816004860161308b565b608085015288600582015460a060018060a01b03821681880152828260c0921c16818801521c16858501526006810154610100850152600781015461012085015260089384820154948560ff8181989382809516610fc481612e65565b6101408701521c16610fd581612e65565b61016084015260101c1693841015610cef57610f0294600e61105b936110619661018085015260098101546101a0850152600a8101546101c08501526001600160601b03600b820154166101e0850152600c810154610200850152600d810154610220850152015416151561024082015289831690611054828a613659565b5287613659565b50613644565b9290878080610ef5565b8387168786611079836135f4565b9260005b838116828110156110b45784916110ac8261109a60019488613659565b516110a5828b613659565b5288613659565b50011661107d565b6040805160208082528851818301819052600093600582901b8401810192808c01929185015b8287106110e75785850386f35b909192938280611103600193603f198a82030186528851612e6f565b96019201960195929190926110da565b3461018a57604036600319011261018a5761112c612b0d565b6001600160401b0360243581811161018a5761114c903690600401612e38565b9061115684613745565b6111646103c0368484612c37565b63ffffffff80941692836000526020946004865260406000209081541615610281573360005260068652604060002085600052865260ff604060002054161561146857604051906111b482612bc4565b600082528682019060609384835260408401918583528585019360008552336000526005600192838d52610bca6111f560406000206040519283809261308b565b8352338852611205368c8c612c37565b865261120f613763565b875201805490600160401b82101561095957838201808255821015610943576000528b6000209060021b019560018060a01b039051166001600160601b0360a01b8754161786558186019051805184811161095957611278816112728554613051565b856131dd565b8c8d601f8311600114611404575081906112a8936000926113f95750508160011b916000199060031b1c19161790565b90555b6002850192518051928311610959576112ce836112c88654613051565b866131dd565b8a91601f841160011461136d5750827fd643c4cb96915f246339ac52f899dfc112f2ccf8254cca6b9cb9d0b8f0276e10999a9b95936003979593611328936000926113625750508160011b916000199060031b1c19161790565b90555b5192839101558560405194604086528160408701528486013760008487018401528301523393601f01601f191682018290030190a3005b015190508d80610533565b9291601f19831691856000528c6000209260005b8181106113e45750917fd643c4cb96915f246339ac52f899dfc112f2ccf8254cca6b9cb9d0b8f0276e109b9c9d979593918560039a989694106113cc575b505050811b01905561132b565b0151600019838a1b60f8161c191690558c80806113bf565b82840151855593860193928e01928e01611381565b015190508e80610533565b908593601f1984168660005283600020936000905b82821061144f5750508411611436575b505050811b0190556112ab565b015160001960f88460031b161c191690558d8080611429565b8484015186558997909501949384019390810190611419565b60405163082e385d60e01b8152600490fd5b3461018a5760208060031936011261018a57611494612b0d565b61149d81613745565b63ffffffff81166000526002825260406000209033600052600183526114c76040600020916134b5565b600160ff600884015460081c166114dd81612e65565b036115cc5760058201546001600160a01b039033908216036115ba57600e83019081549060ff82166115a85760038694611566946001600c6000990195898754975560ff19161790550161153283825461332e565b9055600b5460405163a9059cbb60e01b81523360048201526024810193909352919485939190921691839182906044820190565b03925af1801561159c5761157657005b8161018892903d10611595575b61158d8183612bfb565b810190613039565b503d611583565b6040513d6000823e3d90fd5b60405163d2e53ca760e01b8152600490fd5b604051632cff942760e01b8152600490fd5b604051631988a70d60e01b8152600490fd5b3461018a57600036600319011261018a576102ea6040516115fe81612ba9565b60058152640352e302e360dc1b6020820152604051918291602083526020830190612b33565b3461018a57602036600319011261018a57610188611640612b0d565b6134b5565b3461018a57600036600319011261018a5760085461166281612f96565b906116706040519283612bfb565b808252602090818301908160086000527ff3f7a9fe364faab93b216da50a3214154f22a0a2b415b23a84c8169e8b636ee36000915b83831061170c5750505050604051918083019381845251809452604083019360408160051b85010192916000955b8287106116e05785850386f35b9091929382806116fc600193603f198a82030186528851612cdf565b96019201960195929190926116d3565b60068660019261171e859a999a6133b8565b8152019201920191909594956116a5565b3461018a57600036600319011261018a57600080516020613abf833981519152546040516001600160a01b039091168152602090f35b3461018a57604036600319011261018a5761177e612b0d565b63ffffffff602435916000602060405161179781612ba9565b82815201526117a581613745565b1660005260046020526004604060002001908154811015610281576117cf6117d591604093613499565b5061333b565b815181516001600160a01b0316815260209182015191810191909152f35bf35b3461018a57600036600319011261018a5761180e613783565b600080516020613abf83398151915280546001600160a01b031981169091556000906001600160a01b03167f8be0079c531659141344cd1fd0a4f28419497f9722a3daafe3b4186f6b6457e08280a3005b3461018a57602036600319011261018a57611878612af7565b6000608060405161188881612b8e565b60608152826020820152826040820152606080820152015260018060a01b031660005260016020526102ea6118c06040600020613430565b604051918291602083526020830190612de5565b3461018a57600036600319011261018a577f00000000000000000000000000000000000000000000000000000000000000006001600160a01b0316300361193f5760206040517f360894a13ba1a3210667c828492db98dca3e2076cc3735a920a3ca505d382bbc8152f35b60405163703e46dd60e11b8152600490fd5b3461018a57600036600319011261018a57600b546040516370a0823160e01b815230600482015290602090829060249082906001600160a01b03165afa801561159c576000906119a7575b602090604051908152f35b506020813d6020116119d2575b816119c160209383612bfb565b8101031261018a576020905161199c565b3d91506119b4565b604036600319011261018a576119ee612af7565b6024356001600160401b03811161018a573660238201121561018a57611a1e903690602481600401359101612c37565b906001600160a01b037f00000000000000000000000000000000000000000000000000000000000000008116308114908115611bda575b5061193f57611a62613783565b6040516352d1902d60e01b8152908216916020918281600481875afa60009181611bab575b50611aa557604051634c9c8ce360e01b815260048101859052602490fd5b9284937f360894a13ba1a3210667c828492db98dca3e2076cc3735a920a3ca505d382bbc90818103611b935750823b15611b7a5780546001600160a01b03191682179055604051907fbc7cd75a20ee27fd9adebab32041f755214dbc6bffa90cc0225b39da2e5c2d3b600080a2835115611b605750600080848461018896519101845af4903d15611b57573d611b3a81612c1c565b90611b486040519283612bfb565b8152600081943d92013e613a5b565b60609250613a5b565b9250505034611b6b57005b63b398979f60e01b8152600490fd5b604051634c9c8ce360e01b815260048101839052602490fd5b60249060405190632a87526960e21b82526004820152fd5b9091508381813d8311611bd3575b611bc38183612bfb565b8101031261018a57519086611a87565b503d611bb9565b9050817f360894a13ba1a3210667c828492db98dca3e2076cc3735a920a3ca505d382bbc5416141584611a55565b3461018a57600036600319011261018a57600a54611c2581612f96565b90611c336040519283612bfb565b8082526020908183019081600a6000527fc65a7bb8d6351c1cf70c95a316cc6a92839c986682d98bc35f958f4883f9d2a86000915b838310611ccf5750505050604051918083019381845251809452604083019360408160051b85010192916000955b828710611ca35785850386f35b909192938280611cbf600193603f198a82030186528851612de5565b9601920196019592919092611c96565b600486600192611ce1859a999a613430565b815201920192019190959495611c68565b3461018a57602036600319011261018a57611d0b612af7565b600060a0604051611d1b81612b73565b828152826020820152826040820152826060820152826080820152015260018060a01b0316600052600360205260c0611d576040600020612fad565b6117f36040518092612aae565b3461018a57602036600319011261018a5763ffffffff611d82612b0d565b606060a0604051611d9281612b73565b6000815260006020820152826040820152828082015282608082015201521660005260046020526102ea611dc960406000206133b8565b604051918291602083526020830190612cdf565b3461018a57604036600319011261018a57611df6612b0d565b611dfe612b20565b611e0782613745565b63ffffffff9182811692836000526020906002825260406000206008810160ff815416611e3381612e65565b6122a85760058201611e6e611e4e8886845460a01c16613316565b825463ffffffff60a01b191660a09190911b63ffffffff60a01b16178255565b5483808260c01c169160a01c16116122965760005467ffffffff00000000611e998583881c16613301565b861b169067ffffffff00000000191617600055336000526003845260406000209160ff6000925460101c166002811015610cef5715612101575b506000548254600160401b600160e01b031991861c85169190911667ffffffff00000001600160e01b0319909116173360401b600160401b600160e01b031617825563ffffffff1990611f52611f27613763565b9660028501978855849067ffffffff0000000082549160201b169067ffffffff000000001916179055565b611f616001840191825461332e565b8155600383019283548386611f788b828516613316565b16911617845560095491600160401b831015610959576001830180600955831015610943577fc541e3defd92fd2d8306e9c91b36c15f096115c41c7a9a36ac548a487d8891aa97869360021b91827f6e1540171b6c0c960b71a7020d9f60077f6af931a8bbf590da0223dacf75c7af0193808503612025575b8c8c8c8c89336000526005825260406000208560005282526040600020600160ff19825416179055604051931683523392a3005b80548554881690871617808655815467ffffffff0000000019909116908b1c871660201b67ffffffff00000000161785557f6e1540171b6c0c960b71a7020d9f60077f6af931a8bbf590da0223dacf75c7b29461209f91548154600160401b600160e01b031916600160401b600160e01b03909116179055565b547f6e1540171b6c0c960b71a7020d9f60077f6af931a8bbf590da0223dacf75c7b0830155547f6e1540171b6c0c960b71a7020d9f60077f6af931a8bbf590da0223dacf75c7b182015501925416908254161790558580828180808080611ff1565b90506001600160601b0361211d81600b84015416858916613005565b169060018060a01b03600b5416906040516370a0823160e01b81523360048201528681602481865afa801561159c578491600091612265575b501061225357604051636eb1769f60e11b81523360048201523060248201528681604481865afa801561159c578491600091612222575b501061221057856000926064604051809581936323b872dd60e01b83523360048401523060248401528860448401525af191821561159c57600c926121f3575b50016121da82825461332e565b9055600182016121eb82825461332e565b905587611ed3565b61220990873d89116115955761158d8183612bfb565b50896121cd565b60405163ea75ebd560e01b8152600490fd5b809250888092503d831161224c575b61223b8183612bfb565b8101031261018a578390518b61218d565b503d612231565b604051632858f9ab60e11b8152600490fd5b809250888092503d831161228f575b61227e8183612bfb565b8101031261018a578390518b612156565b503d612274565b6040516374a227cd60e01b8152600490fd5b6040516305fb6d9960e41b8152600490fd5b3461018a57606036600319011261018a576001600160401b0360043581811161018a576122eb903690600401612c6e565b6001600160a01b039190602435838116919082900361018a5760443583811161018a5761231c903690600401612c6e565b9361232682613758565b61232f85613758565b8260005260016020958187526040600020938051908782116109595761235f826123598854613051565b886131dd565b8890601f83116001146125895761238e92916000918361257e5750508160011b916000199060031b1c19161790565b84555b818401956affffffffffffffffffffff60a81b95600160a01b90878954161717875560028501978251918211610959576123d5826123cf8b54613051565b8b6131dd565b80601f831160011461251a575081906124049360009261250f5750508160011b916000199060031b1c19161790565b86555b600a5490600160401b82101561095957810180600a5581101561094357600a60005260021b94857fc65a7bb8d6351c1cf70c95a316cc6a92839c986682d98bc35f958f4883f9d2a8019183830361245a57005b7fc65a7bb8d6351c1cf70c95a316cc6a92839c986682d98bc35f958f4883f9d2ab9560039561248c8661250896613224565b7fc65a7bb8d6351c1cf70c95a316cc6a92839c986682d98bc35f958f4883f9d2a989019282541690835492826001600160601b0360a01b851617855560ff8060a01b915460a01c16151560a01b169216171790557fc65a7bb8d6351c1cf70c95a316cc6a92839c986682d98bc35f958f4883f9d2aa8601613224565b0154910155005b015190508980610533565b908493601f1984168b60005283600020936000905b828210612565575050841161254c575b505050811b018655612407565b015160001960f88460031b161c1916905588808061253f565b848401518655889790950194938401939081019061252f565b015190508a80610533565b849291601f19831691886000528b6000209260005b8d8282106125d557505084116125bc575b505050811b018455612391565b015160001960f88460031b161c191690558980806125af565b838501518655899790950194938401930161259e565b3461018a5760208060031936011261018a5763ffffffff61260a612b0d565b61261381613745565b166000526004815261262b6005604060002001613121565b6040519082820192808352815180945260408301938160408260051b8601019301916000955b82871061265e5785850386f35b909192938280600192603f198982030185528751906126aa6126986080878060a01b03855116845285850151908087860152840190612b33565b60408401518382036040850152612b33565b916060809101519101529601920196019592919092612651565b3461018a57604036600319011261018a576126dd612b0d565b6126e5612b20565b906126ef81613745565b63ffffffff90818116928360005260209260028452612712604060002093613745565b84600052600284526040600020612727613763565b600782015410612943575b503360005260038452604060002091600884015460ff8160101c166002811015610cef576129315760ff1661276681612e65565b61291f5782546001600160a01b03919033604082901c84160361290d57838891881c16036128fb5760038401838154168483168091106128e957600c906127bc6001600160601b039182600b8b01541690613005565b16966127f5600582016127d58689835460a01c16613023565b815463ffffffff60a01b191660a09190911b63ffffffff60a01b16179055565b018054908782039182116128d3575583612813825493828516613023565b16809263ffffffff1916179055156128ae575b600b5460405163a9059cbb60e01b8152336004820152602481018690529391869185916044918391600091165af192831561159c577f4f6fb365c29f3632d91fcd919dbfdf50155c34cd0ea613bd43e7e76529fec43593612891575b505416926040519283523392a4005b6128a790863d88116115955761158d8183612bfb565b5086612882565b33600052600585526040600020866000528552604060002060ff198154169055612826565b634e487b7160e01b600052601160045260246000fd5b60405163a2ed46e160e01b8152600490fd5b60405163b790ffed60e01b8152600490fd5b6040516338ebc58960e11b8152600490fd5b604051630738c50360e41b8152600490fd5b6040516380e4469160e01b8152600490fd5b6008018054600160ff821661295781612e65565b03612963575b50612732565b60019060ff19161790556001612977613763565b7f9c8ea6489f3baa31d321639e3a41ad67158fa673511a98870906b5a9eced0dd4600080a3858061295d565b3461018a57602036600319011261018a576001600160a01b036129c4612af7565b1660005260016020526020600360406000200154604051908152f35b3461018a57600036600319011261018a576009546129fd81612f96565b612a0a6040519182612bfb565b81815260209060208101928360096000527f6e1540171b6c0c960b71a7020d9f60077f6af931a8bbf590da0223dacf75c7af6000915b838310612a9157604080516020808252875190820181905289928201908960005b828110612a6e5784840385f35b9091928260c082612a826001948a51612aae565b01960191019492919094612a61565b600486600192612aa085612fad565b815201920192019190612a40565b60a0908163ffffffff91828151168552826020820151166020860152600180831b0360408201511660408601526060810151606086015260808101516080860152015116910152565b600435906001600160a01b038216820361018a57565b6004359063ffffffff8216820361018a57565b6024359063ffffffff8216820361018a57565b919082519283825260005b848110612b5f575050826000602080949584010152601f8019910116010190565b602081830181015184830182015201612b3e565b60c081019081106001600160401b0382111761095957604052565b60a081019081106001600160401b0382111761095957604052565b604081019081106001600160401b0382111761095957604052565b608081019081106001600160401b0382111761095957604052565b61026081019081106001600160401b0382111761095957604052565b90601f801991011681019081106001600160401b0382111761095957604052565b6001600160401b03811161095957601f01601f191660200190565b929192612c4382612c1c565b91612c516040519384612bfb565b82948184528183011161018a578281602093846000960137010152565b9080601f8301121561018a57816020612c8993359101612c37565b90565b90815180825260208080930193019160005b828110612cac575050505090565b9091929382604082612cd360019489516020809160018060a01b0381511684520151910152565b01950193929101612c9e565b63ffffffff81511682526020908181015182840152604091612d10604083015160c0604087015260c0860190612b33565b91612d2960609360608301518782036060890152612b33565b9260a0612d44608095608085015189820360808b0152612c8c565b9201519560a08184039101528551938483528383019184808760051b8601019801966000945b878610612d7d5750505050505050505090565b9091929394959697988780600192601f198582030189528c5190848060a01b0382511681528780612dcc612dbc868601518d888701528d860190612b33565b8a8601518582038c870152612b33565b9301519101529b01960196019497969593929190612d6a565b90608080612e2f612dff855160a0865260a0860190612b33565b60018060a01b03602087015116602086015260408601511515604086015260608601518582036060870152612b33565b93015191015290565b9181601f8401121561018a578235916001600160401b03831161018a576020838186019501011161018a57565b60031115610cef57565b9061026091612ecb612eb9612ea763ffffffff9586855116865260208501516020870152604085015190806040880152860190612b33565b60608401518582036060870152612b33565b60808301518482036080860152612b33565b9260018060a01b0360a08301511660a08401528060c08301511660c084015260e08201511660e0830152610100808201519083015261012080820151908301526101408082015190612f1c82612e65565b8301526101608082015190612f3082612e65565b83015261018080820151906002821015610cef578301526101a080820151908301526101c080820151908301526101e06001600160601b038183015116908301526102008082015190830152610220808201519083015261024080910151151591015290565b6001600160401b0381116109595760051b60200190565b90604051612fba81612b73565b60a08193600381549163ffffffff928381168652838160201c166020870152600180861b039060401c1660408601526001810154606086015260028101546080860152015416910152565b9190916001600160601b03808094169116029182169182036128d357565b63ffffffff91821690821603919082116128d357565b9081602091031261018a5751801515810361018a5790565b90600182811c92168015613081575b602083101461306b57565b634e487b7160e01b600052602260045260246000fd5b91607f1691613060565b80546000939261309a82613051565b9182825260209360019160018116908160001461310257506001146130c1575b5050505050565b90939495506000929192528360002092846000945b8386106130ee575050505001019038808080806130ba565b8054858701830152940193859082016130d6565b60ff19168685015250505090151560051b0101915038808080806130ba565b90815461312d81612f96565b9260409361313e6040519182612bfb565b82815280946020809201926000526020600020906000935b85851061316557505050505050565b600484600192845161317681612bc4565b848060a01b038754168152855161319381610bca81898c0161308b565b8382015285516131aa81610bca8160028c0161308b565b8682015260038701546060820152815201930194019391613156565b8181106131d1575050565b600081556001016131c6565b9190601f81116131ec57505050565b613218926000526020600020906020601f840160051c8301931061321a575b601f0160051c01906131c6565b565b909150819061320b565b908082146132fd576132368154613051565b906001600160401b03821161095957613253826112728554613051565b600090601f8311600114613292576132839291600091836132875750508160011b916000199060031b1c19161790565b9055565b015490503880610533565b815260208082208483528183209291601f1985169083905b8282106132e45750509084600195949392106132cb575b505050811b019055565b015460001960f88460031b161c191690553880806132c1565b84958192958501548155600180910196019401906132aa565b5050565b90600163ffffffff809316019182116128d357565b91909163ffffffff808094169116019182116128d357565b919082018092116128d357565b9060405161334881612ba9565b82546001600160a01b031681526001909201546020830152565b90815461336e81612f96565b9261337c6040519485612bfb565b818452600090815260208082208186015b84841061339b575050505050565b6002836001926133aa8561333b565b81520192019301929061338d565b906040516133c581612b73565b60a061342b6005839563ffffffff8154168552600181015460208601526040516133f681610bca816002860161308b565b604086015260405161340f81610bca816003860161308b565b606086015261342060048201613362565b608086015201613121565b910152565b9060405161343d81612b8e565b60806003829460405161345481610bca818561308b565b845260018101546001600160a01b038116602086015260a01c60ff1615156040808601919091525161348d81610bca816002860161308b565b60608501520154910152565b80548210156109435760005260206000209060011b0190600090565b63ffffffff906134c481613745565b1680600052600260205260406000206134db613763565b6009820154111580613552575b156134fc57600801805461ff001916905550565b613504613763565b600a82015410613512575050565b600801805461ff00191661010017905561352a613763565b907f835839f42ff642197e82f2887491db41a51c32dc7004091799724e9e3d6f2489600080a3565b5061355b613763565b600a82015410156134e8565b6040519061357482612bdf565b8161024060009182815282602082015260606040820152606080820152606060808201528260a08201528260c08201528260e08201528261010082015282610120820152826101408201528261016082015282610180820152826101a0820152826101c0820152826101e082015282610200820152826102208201520152565b906135fe82612f96565b61360b6040519182612bfb565b828152809261361c601f1991612f96565b019060005b82811061362d57505050565b602090613638613567565b82828501015201613621565b63ffffffff8091169081146128d35760010190565b80518210156109435760209160051b010190565b8054600160401b8110156109595761368a91600182018155613499565b9190916136bb57805182546001600160a01b0319166001600160a01b03919091161782556020015160019190910155565b634e487b7160e01b600052600060045260246000fd5b6001600160a01b0390811690811561372c57600080516020613abf83398151915280546001600160a01b031981168417909155167f8be0079c531659141344cd1fd0a4f28419497f9722a3daafe3b4186f6b6457e0600080a3565b604051631e4fbdf760e01b815260006004820152602490fd5b63ffffffff806000541691161161028157565b6001905110610b3457565b6103e8804202904282048114421517156128d35781018091116128d35790565b600080516020613abf833981519152546001600160a01b031633036137a457565b60405163118cdaa760e01b8152336004820152602490fd5b600111610b3457565b10156137cd57565b60405163489eca6760e01b8152600490fd5b8181146132fd57815491600160401b8311610959578154838355808410613868575b506000526020600020906000526020600020906000905b8382106138255750505050565b806001918403613840575b6002809101930191019091613818565b818060a01b038154166001600160601b0360a01b855416178455818082015490850155613830565b60016001600160ff1b0382811683036128d357851685036128d3576000908460005260206000209260011b8301928660011b015b8381106138ab57505050613801565b80836002925583838201550161389c565b6138c68154613051565b90816138d0575050565b81601f600093116001146138e2575055565b908083918252613901601f60208420940160051c8401600185016131c6565b5555565b8181146132fd57815491600160401b83116109595781548383558084106139ae575b506000526020600020906000526020600020906000905b83821061394b5750505050565b806001918403613966575b600480910193019101909161393e565b818060a01b038154166001600160601b0360a01b85541617845561398f82808301908601613224565b61399f6002808301908601613224565b60038082015490850155613956565b60026001600160fe1b0382811683036128d357851685036128d3576000908460005260206000209260021b8301928660021b015b8381106139f157505050613927565b808360049255613a03600182016138bc565b613a0e8382016138bc565b836003820155016139e2565b60ff7ff0c57e16840df040f15088dc2f81fe391c3923bec73e23a9662efc9c229c6a005460401c1615613a4957565b604051631afcd79f60e31b8152600490fd5b90613a825750805115613a7057805190602001fd5b604051630a12f52160e11b8152600490fd5b81511580613ab5575b613a93575090565b604051639996b31560e01b81526001600160a01b039091166004820152602490fd5b50803b15613a8b56fe9016d09d72d40fdae2fd8ceac6b6234c7706214fd39c1cd1e609a0528c199300a2646970667358221220edff41cb85d68bbf89e4da07e74937d5660424874cc0c79c6adb2eed1667184d64736f6c63430008180033",
    "linkReferences": {}
  },
  "methodIdentifiers": {
    "UPGRADE_INTERFACE_VERSION()": "ad3cb1cc",
    "checkContractBalance()": "50312c9e",
    "checkUserBalance(address)": "0a9bfef5",
    "createAccount(string,address,string)": "331ef976",
    "createEvent(bytes32,string,string,string,uint32,uint256,uint256,uint256,uint256,uint96,bool)": "dbc96e99",
    "getAllEventGroups()": "909fdec9",
    "getAllEvents()": "c27a500d",
    "getAllGroupMessages(uint32)": "1755b97a",
    "getAllTickets()": "03e96fe3",
    "getAllUser()": "47531df8",
    "getEventById(uint32)": "cd71ed35",
    "getEventGroup(uint32)": "3809f6f5",
    "getGroupMember(uint32,uint256)": "85a646c9",
    "getGroupMembers(uint32)": "ec976a0a",
    "getTicket(address)": "4717dea9",
    "getUser(address)": "6f77926b",
    "groupChat(uint32,string)": "be7fb5d7",
    "initialize(address)": "c4d66de8",
    "isRegistered(address)": "c3c5a547",
    "joinGroup(uint32)": "eec932f7",
    "owner()": "8da5cb5b",
    "proxiableUUID()": "52d1902d",
    "purchaseTicket(uint32,uint32)": "3405741d",
    "refundFee(uint32,uint32)": "0f9fcf48",
    "renounceOwnership()": "715018a6",
    "transferOwnership(address)": "f2fde38b",
    "updateEventStatus(uint32)": "a87f86f9",
    "upgradeToAndCall(address,bytes)": "4f1ef286",
    "withdrawEventFee(uint32)": "b33f650e"
  },
  "id": 42
}