{
  "abi": [
    {
      "type": "constructor",
      "inputs": [],
      "stateMutability": "nonpayable"
    },
    {
      "type": "function",
      "name": "MAX_TOTAL_SUPPLY",
      "inputs": [],
      "outputs": [
        {
          "name": "",
          "type": "uint256",
          "internalType": "uint256"
        }
      ],
      "stateMutability": "view"
    },
    {
      "type": "function",
      "name": "MINT_AMOUNT",
      "inputs": [],
      "outputs": [
        {
          "name": "",
          "type": "uint256",
          "internalType": "uint256"
        }
      ],
      "stateMutability": "view"
    },
    {
      "type": "function",
      "name": "adminMint",
      "inputs": [
        {
          "name": "to",
          "type": "address",
          "internalType": "address"
        },
        {
          "name": "amount",
          "type": "uint256",
          "internalType": "uint256"
        }
      ],
      "outputs": [],
      "stateMutability": "nonpayable"
    },
    {
      "type": "function",
      "name": "allowance",
      "inputs": [
        {
          "name": "owner",
          "type": "address",
          "internalType": "address"
        },
        {
          "name": "spender",
          "type": "address",
          "internalType": "address"
        }
      ],
      "outputs": [
        {
          "name": "",
          "type": "uint256",
          "internalType": "uint256"
        }
      ],
      "stateMutability": "view"
    },
    {
      "type": "function",
      "name": "approval",
      "inputs": [
        {
          "name": "_spender",
          "type": "address",
          "internalType": "address"
        },
        {
          "name": "_value",
          "type": "uint256",
          "internalType": "uint256"
        }
      ],
      "outputs": [
        {
          "name": "",
          "type": "bool",
          "internalType": "bool"
        }
      ],
      "stateMutability": "nonpayable"
    },
    {
      "type": "function",
      "name": "approve",
      "inputs": [
        {
          "name": "spender",
          "type": "address",
          "internalType": "address"
        },
        {
          "name": "value",
          "type": "uint256",
          "internalType": "uint256"
        }
      ],
      "outputs": [
        {
          "name": "",
          "type": "bool",
          "internalType": "bool"
        }
      ],
      "stateMutability": "nonpayable"
    },
    {
      "type": "function",
      "name": "balanceOf",
      "inputs": [
        {
          "name": "account",
          "type": "address",
          "internalType": "address"
        }
      ],
      "outputs": [
        {
          "name": "",
          "type": "uint256",
          "internalType": "uint256"
        }
      ],
      "stateMutability": "view"
    },
    {
      "type": "function",
      "name": "decimals",
      "inputs": [],
      "outputs": [
        {
          "name": "",
          "type": "uint8",
          "internalType": "uint8"
        }
      ],
      "stateMutability": "view"
    },
    {
      "type": "function",
      "name": "getUserBalance",
      "inputs": [
        {
          "name": "_user",
          "type": "address",
          "internalType": "address"
        }
      ],
      "outputs": [
        {
          "name": "",
          "type": "uint256",
          "internalType": "uint256"
        }
      ],
      "stateMutability": "view"
    },
    {
      "type": "function",
      "name": "hasMinted_",
      "inputs": [
        {
          "name": "_user",
          "type": "address",
          "internalType": "address"
        }
      ],
      "outputs": [
        {
          "name": "",
          "type": "bool",
          "internalType": "bool"
        }
      ],
      "stateMutability": "view"
    },
    {
      "type": "function",
      "name": "mint",
      "inputs": [
        {
          "name": "_user",
          "type": "address",
          "internalType": "address"
        },
        {
          "name": "_amount",
          "type": "uint256",
          "internalType": "uint256"
        }
      ],
      "outputs": [],
      "stateMutability": "nonpayable"
    },
    {
      "type": "function",
      "name": "name",
      "inputs": [],
      "outputs": [
        {
          "name": "",
          "type": "string",
          "internalType": "string"
        }
      ],
      "stateMutability": "view"
    },
    {
      "type": "function",
      "name": "owner",
      "inputs": [],
      "outputs": [
        {
          "name": "",
          "type": "address",
          "internalType": "address"
        }
      ],
      "stateMutability": "view"
    },
    {
      "type": "function",
      "name": "remainingSupply",
      "inputs": [],
      "outputs": [
        {
          "name": "balance_",
          "type": "uint256",
          "internalType": "uint256"
        }
      ],
      "stateMutability": "view"
    },
    {
      "type": "function",
      "name": "renounceOwnership",
      "inputs": [],
      "outputs": [],
      "stateMutability": "nonpayable"
    },
    {
      "type": "function",
      "name": "symbol",
      "inputs": [],
      "outputs": [
        {
          "name": "",
          "type": "string",
          "internalType": "string"
        }
      ],
      "stateMutability": "view"
    },
    {
      "type": "function",
      "name": "totalMinted",
      "inputs": [],
      "outputs": [
        {
          "name": "",
          "type": "uint256",
          "internalType": "uint256"
        }
      ],
      "stateMutability": "view"
    },
    {
      "type": "function",
      "name": "totalSupply",
      "inputs": [],
      "outputs": [
        {
          "name": "",
          "type": "uint256",
          "internalType": "uint256"
        }
      ],
      "stateMutability": "view"
    },
    {
      "type": "function",
      "name": "totalSupplys",
      "inputs": [],
      "outputs": [
        {
          "name": "",
          "type": "uint256",
          "internalType": "uint256"
        }
      ],
      "stateMutability": "view"
    },
    {
      "type": "function",
      "name": "transfer",
      "inputs": [
        {
          "name": "to",
          "type": "address",
          "internalType": "address"
        },
        {
          "name": "value",
          "type": "uint256",
          "internalType": "uint256"
        }
      ],
      "outputs": [
        {
          "name": "",
          "type": "bool",
          "internalType": "bool"
        }
      ],
      "stateMutability": "nonpayable"
    },
    {
      "type": "function",
      "name": "transferFrom",
      "inputs": [
        {
          "name": "from",
          "type": "address",
          "internalType": "address"
        },
        {
          "name": "to",
          "type": "address",
          "internalType": "address"
        },
        {
          "name": "value",
          "type": "uint256",
          "internalType": "uint256"
        }
      ],
      "outputs": [
        {
          "name": "",
          "type": "bool",
          "internalType": "bool"
        }
      ],
      "stateMutability": "nonpayable"
    },
    {
      "type": "function",
      "name": "transferOwnership",
      "inputs": [
        {
          "name": "newOwner",
          "type": "address",
          "internalType": "address"
        }
      ],
      "outputs": [],
      "stateMutability": "nonpayable"
    },
    {
      "type": "event",
      "name": "Approval",
      "inputs": [
        {
          "name": "owner",
          "type": "address",
          "indexed": true,
          "internalType": "address"
        },
        {
          "name": "spender",
          "type": "address",
          "indexed": true,
          "internalType": "address"
        },
        {
          "name": "value",
          "type": "uint256",
          "indexed": false,
          "internalType": "uint256"
        }
      ],
      "anonymous": false
    },
    {
      "type": "event",
      "name": "OwnershipTransferred",
      "inputs": [
        {
          "name": "previousOwner",
          "type": "address",
          "indexed": true,
          "internalType": "address"
        },
        {
          "name": "newOwner",
          "type": "address",
          "indexed": true,
          "internalType": "address"
        }
      ],
      "anonymous": false
    },
    {
      "type": "event",
      "name": "Transfer",
      "inputs": [
        {
          "name": "from",
          "type": "address",
          "indexed": true,
          "internalType": "address"
        },
        {
          "name": "to",
          "type": "address",
          "indexed": true,
          "internalType": "address"
        },
        {
          "name": "value",
          "type": "uint256",
          "indexed": false,
          "internalType": "uint256"
        }
      ],
      "anonymous": false
    },
    {
      "type": "event",
      "name": "TransferSuccessful",
      "inputs": [
        {
          "name": "_user",
          "type": "address",
          "indexed": true,
          "internalType": "address"
        },
        {
          "name": "_amount",
          "type": "uint256",
          "indexed": true,
          "internalType": "uint256"
        }
      ],
      "anonymous": false
    },
    {
      "type": "error",
      "name": "ERC20InsufficientAllowance",
      "inputs": [
        {
          "name": "spender",
          "type": "address",
          "internalType": "address"
        },
        {
          "name": "allowance",
          "type": "uint256",
          "internalType": "uint256"
        },
        {
          "name": "needed",
          "type": "uint256",
          "internalType": "uint256"
        }
      ]
    },
    {
      "type": "error",
      "name": "ERC20InsufficientBalance",
      "inputs": [
        {
          "name": "sender",
          "type": "address",
          "internalType": "address"
        },
        {
          "name": "balance",
          "type": "uint256",
          "internalType": "uint256"
        },
        {
          "name": "needed",
          "type": "uint256",
          "internalType": "uint256"
        }
      ]
    },
    {
      "type": "error",
      "name": "ERC20InvalidApprover",
      "inputs": [
        {
          "name": "approver",
          "type": "address",
          "internalType": "address"
        }
      ]
    },
    {
      "type": "error",
      "name": "ERC20InvalidReceiver",
      "inputs": [
        {
          "name": "receiver",
          "type": "address",
          "internalType": "address"
        }
      ]
    },
    {
      "type": "error",
      "name": "ERC20InvalidSender",
      "inputs": [
        {
          "name": "sender",
          "type": "address",
          "internalType": "address"
        }
      ]
    },
    {
      "type": "error",
      "name": "ERC20InvalidSpender",
      "inputs": [
        {
          "name": "spender",
          "type": "address",
          "internalType": "address"
        }
      ]
    },
    {
      "type": "error",
      "name": "EXCEED_TOTAL_AMOUNT_MINTED",
      "inputs": []
    },
    {
      "type": "error",
      "name": "OwnableInvalidOwner",
      "inputs": [
        {
          "name": "owner",
          "type": "address",
          "internalType": "address"
        }
      ]
    },
    {
      "type": "error",
      "name": "OwnableUnauthorizedAccount",
      "inputs": [
        {
          "name": "account",
          "type": "address",
          "internalType": "address"
        }
      ]
    },
    {
      "type": "error",
      "name": "USER_ALREADY_EXCEED_LIMIT",
      "inputs": []
    }
  ],
  "bytecode": {
    "object": "0x608034620003a2576040906001600160401b0390808301828111828210176200038c578352600a81526020916921363ab6b0aa37b5b2b760b11b83830152835192848401848110838211176200038c57855260049384815263424c554d60e01b8282015283519083821162000377576003928354926001968785811c951680156200036c575b8386101462000357578190601f9586811162000301575b5083908683116001146200029a576000926200028e575b505060001982871b1c191690871b1784555b8151948511620002795786548681811c911680156200026e575b8282101462000259578381116200020e575b5080928511600114620001a0575093839491849260009562000194575b50501b92600019911b1c19161781555b33156200017e575060058054336001600160a01b0319821681179092559151916001600160a01b03167f8be0079c531659141344cd1fd0a4f28419497f9722a3daafe3b4186f6b6457e0600080a36000600655610cd89081620003a88239f35b60006024925191631e4fbdf760e01b8352820152fd5b0151935038806200010e565b92919084601f1981168860005285600020956000905b89838310620001f35750505010620001d8575b50505050811b0181556200011e565b01519060f884600019921b161c1916905538808080620001c9565b858701518955909701969485019488935090810190620001b6565b87600052816000208480880160051c8201928489106200024f575b0160051c019087905b82811062000242575050620000f1565b6000815501879062000232565b9250819262000229565b602288634e487b7160e01b6000525260246000fd5b90607f1690620000df565b604187634e487b7160e01b6000525260246000fd5b015190503880620000b3565b90899350601f1983169188600052856000209260005b87828210620002ea5750508411620002d1575b505050811b018455620000c5565b015160001983891b60f8161c19169055388080620002c3565b8385015186558d97909501949384019301620002b0565b90915086600052836000208680850160051c8201928686106200034d575b918b91869594930160051c01915b8281106200033d5750506200009c565b600081558594508b91016200032d565b925081926200031f565b602289634e487b7160e01b6000525260246000fd5b94607f169462000085565b604186634e487b7160e01b6000525260246000fd5b634e487b7160e01b600052604160045260246000fd5b600080fdfe6080604081815260048036101561001557600080fd5b600092833560e01c90816306fdde03146108f657508063095ea7b3146104c95780630ce65eac146108b857806318160ddd146107a657806323b872dd146107c55780632ae21615146107a6578063313ce5671461078a57806333039d3d1461076357806340c10f19146105c157806347734892146105895780635427789c1461056557806370a082311461052e578063715018a6146104ce57806375247a58146104c95780638da5cb5b146104a057806395d89b411461037e578063a2309ff81461035f578063a9059cbb1461032e578063da0239a614610299578063dd62ed3e14610250578063e58306f9146101a75763f2fde38b1461011557600080fd5b346101a35760203660031901126101a35761012e610a36565b90610137610c76565b6001600160a01b0391821692831561018d575050600554826bffffffffffffffffffffffff60a01b821617600555167f8be0079c531659141344cd1fd0a4f28419497f9722a3daafe3b4186f6b6457e08380a380f35b51631e4fbdf760e01b8152908101849052602490fd5b8280fd5b5082903461024c578260031936011261024c576101c2610a36565b602435916101ce610c76565b600654906b204fce5e3e250261100000006101e98584610b17565b116102095750906101fe836102069493610b17565b600655610c18565b80f35b606490602087519162461bcd60e51b8352820152601860248201527f4578636565647320746f74616c20737570706c792063617000000000000000006044820152fd5b5080fd5b50503461024c578060031936011261024c578060209261026e610a36565b610276610a51565b6001600160a01b0391821683526001865283832091168252845220549051908152f35b5091903461024c578160031936011261024c57600654916b204fce5e3e25026110000000928381116102eb5783039283116102d8576020838351908152f35b634e487b7160e01b815260118452602490fd5b825162461bcd60e51b8152602081870152601f60248201527f546f74616c206d696e7465642065786365656473206d617820737570706c79006044820152606490fd5b50503461024c578060031936011261024c5760209061035861034e610a36565b6024359033610b3a565b5160018152f35b50503461024c578160031936011261024c576020906006549051908152f35b5091903461024c578160031936011261024c5780519082845460018160011c9060018316928315610496575b6020938484108114610483578388529081156104675750600114610412575b505050829003601f01601f191682019267ffffffffffffffff8411838510176103ff57508291826103fb9252826109ed565b0390f35b634e487b7160e01b815260418552602490fd5b8787529192508591837f8a35acfbc15ff81a39ae7d344fd709f28e8600b4aa8c65c6b64bfe7fe36bd19b5b83851061045357505050508301013880806103c9565b80548886018301529301928490820161043d565b60ff1916878501525050151560051b84010190503880806103c9565b634e487b7160e01b895260228a52602489fd5b91607f16916103aa565b50503461024c578160031936011261024c5760055490516001600160a01b039091168152602090f35b610a67565b833461052b578060031936011261052b576104e7610c76565b600580546001600160a01b0319811690915581906001600160a01b03167f8be0079c531659141344cd1fd0a4f28419497f9722a3daafe3b4186f6b6457e08280a380f35b80fd5b50503461024c57602036600319011261024c5760209181906001600160a01b03610556610a36565b16815280845220549051908152f35b50503461024c578160031936011261024c5760209051686c6b935b8bbd4000008152f35b50503461024c57602036600319011261024c5760209181906001600160a01b036105b1610a36565b1681526008845220549051908152f35b5090346101a357806003193601126101a3576105db610a36565b9060243591686c6b935b8bbd40000090818411610720576001600160a01b03811680875260076020528387205490949060ff166106d25761062790858852600860205284882054610b17565b948286116106c4576b204fce5e3e2502611000000061064887600654610b17565b116106b657508461066c91858852600860205281858920556101fe82600654610b17565b831461069b575b507fc05aa721a8d88be57c93f6d0d3c44b71dda42835b8dd02592dd1d38fd7e63eaa8380a380f35b81845260076020528320805460ff1916600117905538610673565b8351630f78a4e160e11b8152fd5b8351632f7998db60e21b8152fd5b835162461bcd60e51b8152602081880152602260248201527f5573657220616c7265616479206d696e746564206d6178696d756d20616d6f756044820152611b9d60f21b6064820152608490fd5b825162461bcd60e51b8152602081870152601960248201527f416d6f756e742065786365656473206d696e74206c696d6974000000000000006044820152606490fd5b50503461024c578160031936011261024c57602090516b204fce5e3e250261100000008152f35b50503461024c578160031936011261024c576020905160128152f35b50503461024c578160031936011261024c576020906002549051908152f35b50823461052b57606036600319011261052b576107e0610a36565b6107e8610a51565b916044359360018060a01b038316808352600160205286832033845260205286832054916000198303610824575b602088610358898989610b3a565b86831061088c57811561087557331561085e5750825260016020908152868320338452815291869020908590039055829061035887610816565b8751634a1406b160e11b8152908101849052602490fd5b875163e602df0560e01b8152908101849052602490fd5b8751637dc7a0d960e11b8152339181019182526020820193909352604081018790528291506060010390fd5b50503461024c57602036600319011261024c5760209160ff9082906001600160a01b036108e3610a36565b1681526007855220541690519015158152f35b84915083346101a357826003193601126101a3578260035460018160011c90600183169283156109e3575b6020938484108114610483578388529081156109c7575060011461097157505050829003601f01601f191682019267ffffffffffffffff8411838510176103ff57508291826103fb9252826109ed565b600387529192508591837fc2575a0e9e593c00f959f8c92f12db2869c3395a3b0502d05e2516446f71f85b5b8385106109b357505050508301018580806103c9565b80548886018301529301928490820161099d565b60ff1916878501525050151560051b84010190508580806103c9565b91607f1691610921565b6020808252825181830181905290939260005b828110610a2257505060409293506000838284010152601f8019910116010190565b818101860151848201604001528501610a00565b600435906001600160a01b0382168203610a4c57565b600080fd5b602435906001600160a01b0382168203610a4c57565b34610a4c57604080600319360112610a4c57610a81610a36565b90602435913315610aff576001600160a01b03168015610ae75760209233600052600184528260002082600052845280836000205582519081527f8c5be1e5ebec7d5bd14f71427d1e84f3dd0314c0f7b2291e5b200ac8c7c3b925843392a35160018152f35b8151634a1406b160e11b815260006004820152602490fd5b815163e602df0560e01b815260006004820152602490fd5b91908201809211610b2457565b634e487b7160e01b600052601160045260246000fd5b916001600160a01b03808416928315610bff5716928315610be65760009083825281602052604082205490838210610bb4575091604082827fddf252ad1be2c89b69c2b068fc378daa952ba7f163c4a11628f55a4df523b3ef958760209652828652038282205586815220818154019055604051908152a3565b60405163391434e360e21b81526001600160a01b03919091166004820152602481019190915260448101839052606490fd5b60405163ec442f0560e01b815260006004820152602490fd5b604051634b637e8f60e11b815260006004820152602490fd5b6001600160a01b0316908115610be6577fddf252ad1be2c89b69c2b068fc378daa952ba7f163c4a11628f55a4df523b3ef602082610c5a600094600254610b17565b60025584845283825260408420818154019055604051908152a3565b6005546001600160a01b03163303610c8a57565b60405163118cdaa760e01b8152336004820152602490fdfea26469706673582212202a0abfde574669e4562854d5ba350e1425c1f3d171dc267b7e670bd39175875c64736f6c63430008180033",
    "linkReferences": {}
  },
  "methodIdentifiers": {
    "MAX_TOTAL_SUPPLY()": "33039d3d",
    "MINT_AMOUNT()": "5427789c",
    "adminMint(address,uint256)": "e58306f9",
    "allowance(address,address)": "dd62ed3e",
    "approval(address,uint256)": "75247a58",
    "approve(address,uint256)": "095ea7b3",
    "balanceOf(address)": "70a08231",
    "decimals()": "313ce567",
    "getUserBalance(address)": "47734892",
    "hasMinted_(address)": "0ce65eac",
    "mint(address,uint256)": "40c10f19",
    "name()": "06fdde03",
    "owner()": "8da5cb5b",
    "remainingSupply()": "da0239a6",
    "renounceOwnership()": "715018a6",
    "symbol()": "95d89b41",
    "totalMinted()": "a2309ff8",
    "totalSupply()": "18160ddd",
    "totalSupplys()": "2ae21615",
    "transfer(address,uint256)": "a9059cbb",
    "transferFrom(address,address,uint256)": "23b872dd",
    "transferOwnership(address)": "f2fde38b"
  },
  "id": 59
}