{"abi":[{"type":"constructor","inputs":[],"stateMutability":"nonpayable"},{"type":"function","name":"MAX_TOTAL_SUPPLY","inputs":[],"outputs":[{"name":"","type":"uint256","internalType":"uint256"}],"stateMutability":"view"},{"type":"function","name":"MINT_AMOUNT","inputs":[],"outputs":[{"name":"","type":"uint256","internalType":"uint256"}],"stateMutability":"view"},{"type":"function","name":"adminMint","inputs":[{"name":"to","type":"address","internalType":"address"},{"name":"amount","type":"uint256","internalType":"uint256"}],"outputs":[],"stateMutability":"nonpayable"},{"type":"function","name":"allowance","inputs":[{"name":"owner","type":"address","internalType":"address"},{"name":"spender","type":"address","internalType":"address"}],"outputs":[{"name":"","type":"uint256","internalType":"uint256"}],"stateMutability":"view"},{"type":"function","name":"approval","inputs":[{"name":"_spender","type":"address","internalType":"address"},{"name":"_value","type":"uint256","internalType":"uint256"}],"outputs":[{"name":"","type":"bool","internalType":"bool"}],"stateMutability":"nonpayable"},{"type":"function","name":"approve","inputs":[{"name":"spender","type":"address","internalType":"address"},{"name":"value","type":"uint256","internalType":"uint256"}],"outputs":[{"name":"","type":"bool","internalType":"bool"}],"stateMutability":"nonpayable"},{"type":"function","name":"balanceOf","inputs":[{"name":"account","type":"address","internalType":"address"}],"outputs":[{"name":"","type":"uint256","internalType":"uint256"}],"stateMutability":"view"},{"type":"function","name":"decimals","inputs":[],"outputs":[{"name":"","type":"uint8","internalType":"uint8"}],"stateMutability":"view"},{"type":"function","name":"getUserBalance","inputs":[{"name":"_user","type":"address","internalType":"address"}],"outputs":[{"name":"","type":"uint256","internalType":"uint256"}],"stateMutability":"view"},{"type":"function","name":"hasMinted_","inputs":[{"name":"_user","type":"address","internalType":"address"}],"outputs":[{"name":"","type":"bool","internalType":"bool"}],"stateMutability":"view"},{"type":"function","name":"mint","inputs":[{"name":"_user","type":"address","internalType":"address"},{"name":"_amount","type":"uint256","internalType":"uint256"}],"outputs":[],"stateMutability":"nonpayable"},{"type":"function","name":"name","inputs":[],"outputs":[{"name":"","type":"string","internalType":"string"}],"stateMutability":"view"},{"type":"function","name":"owner","inputs":[],"outputs":[{"name":"","type":"address","internalType":"address"}],"stateMutability":"view"},{"type":"function","name":"remainingSupply","inputs":[],"outputs":[{"name":"balance_","type":"uint256","internalType":"uint256"}],"stateMutability":"view"},{"type":"function","name":"renounceOwnership","inputs":[],"outputs":[],"stateMutability":"nonpayable"},{"type":"function","name":"symbol","inputs":[],"outputs":[{"name":"","type":"string","internalType":"string"}],"stateMutability":"view"},{"type":"function","name":"totalMinted","inputs":[],"outputs":[{"name":"","type":"uint256","internalType":"uint256"}],"stateMutability":"view"},{"type":"function","name":"totalSupply","inputs":[],"outputs":[{"name":"","type":"uint256","internalType":"uint256"}],"stateMutability":"view"},{"type":"function","name":"totalSupplys","inputs":[],"outputs":[{"name":"","type":"uint256","internalType":"uint256"}],"stateMutability":"view"},{"type":"function","name":"transfer","inputs":[{"name":"to","type":"address","internalType":"address"},{"name":"value","type":"uint256","internalType":"uint256"}],"outputs":[{"name":"","type":"bool","internalType":"bool"}],"stateMutability":"nonpayable"},{"type":"function","name":"transferFrom","inputs":[{"name":"from","type":"address","internalType":"address"},{"name":"to","type":"address","internalType":"address"},{"name":"value","type":"uint256","internalType":"uint256"}],"outputs":[{"name":"","type":"bool","internalType":"bool"}],"stateMutability":"nonpayable"},{"type":"function","name":"transferOwnership","inputs":[{"name":"newOwner","type":"address","internalType":"address"}],"outputs":[],"stateMutability":"nonpayable"},{"type":"event","name":"Approval","inputs":[{"name":"owner","type":"address","indexed":true,"internalType":"address"},{"name":"spender","type":"address","indexed":true,"internalType":"address"},{"name":"value","type":"uint256","indexed":false,"internalType":"uint256"}],"anonymous":false},{"type":"event","name":"OwnershipTransferred","inputs":[{"name":"previousOwner","type":"address","indexed":true,"internalType":"address"},{"name":"newOwner","type":"address","indexed":true,"internalType":"address"}],"anonymous":false},{"type":"event","name":"Transfer","inputs":[{"name":"from","type":"address","indexed":true,"internalType":"address"},{"name":"to","type":"address","indexed":true,"internalType":"address"},{"name":"value","type":"uint256","indexed":false,"internalType":"uint256"}],"anonymous":false},{"type":"event","name":"TransferSuccessful","inputs":[{"name":"_user","type":"address","indexed":true,"internalType":"address"},{"name":"_amount","type":"uint256","indexed":true,"internalType":"uint256"}],"anonymous":false},{"type":"error","name":"ERC20InsufficientAllowance","inputs":[{"name":"spender","type":"address","internalType":"address"},{"name":"allowance","type":"uint256","internalType":"uint256"},{"name":"needed","type":"uint256","internalType":"uint256"}]},{"type":"error","name":"ERC20InsufficientBalance","inputs":[{"name":"sender","type":"address","internalType":"address"},{"name":"balance","type":"uint256","internalType":"uint256"},{"name":"needed","type":"uint256","internalType":"uint256"}]},{"type":"error","name":"ERC20InvalidApprover","inputs":[{"name":"approver","type":"address","internalType":"address"}]},{"type":"error","name":"ERC20InvalidReceiver","inputs":[{"name":"receiver","type":"address","internalType":"address"}]},{"type":"error","name":"ERC20InvalidSender","inputs":[{"name":"sender","type":"address","internalType":"address"}]},{"type":"error","name":"ERC20InvalidSpender","inputs":[{"name":"spender","type":"address","internalType":"address"}]},{"type":"error","name":"EXCEED_TOTAL_AMOUNT_MINTED","inputs":[]},{"type":"error","name":"OwnableInvalidOwner","inputs":[{"name":"owner","type":"address","internalType":"address"}]},{"type":"error","name":"OwnableUnauthorizedAccount","inputs":[{"name":"account","type":"address","internalType":"address"}]},{"type":"error","name":"USER_ALREADY_EXCEED_LIMIT","inputs":[]}],"bytecode":{"object":"0x60803462000405576040906001600160401b039080830182811182821017620003ef578352600a81526020906921363ab6b0aa37b5b2b760b11b8282015283519284840184811082821117620003ef57855260049384815263424c554d60e01b848201528251828111620003da576003918254916001958684811c94168015620003cf575b88851014620003ba578190601f9485811162000364575b508890858311600114620002fd57600092620002f1575b505060001982861b1c191690861b1783555b8051938411620002dc5786548581811c91168015620002d1575b87821014620002bc5782811162000271575b50859184116001146200020657938394918492600095620001fa575b50501b92600019911b1c19161782555b3315620001e35760058054336001600160a01b0319821681179092556001600160a01b03167f8be0079c531659141344cd1fd0a4f28419497f9722a3daafe3b4186f6b6457e0600080a36002546402540be40092838201809211620001ce575060025533600052600081528260002082815401905560007fddf252ad1be2c89b69c2b068fc378daa952ba7f163c4a11628f55a4df523b3ef8451928484523393a360065551610bba90816200040b8239f35b601190634e487b7160e01b6000525260246000fd5b5060006024925191631e4fbdf760e01b8352820152fd5b0151935038806200010c565b9190601f198416928760005284876000209460005b89898383106200025957505050106200023e575b50505050811b0182556200011c565b01519060f884600019921b161c19169055388080806200022f565b8686015189559097019694850194889350016200021b565b87600052866000208380870160051c820192898810620002b2575b0160051c019086905b828110620002a5575050620000f0565b6000815501869062000295565b925081926200028c565b602288634e487b7160e01b6000525260246000fd5b90607f1690620000de565b604187634e487b7160e01b6000525260246000fd5b015190503880620000b2565b90889350601f19831691876000528a6000209260005b8c8282106200034d575050841162000334575b505050811b018355620000c4565b015160001983881b60f8161c1916905538808062000326565b8385015186558c9790950194938401930162000313565b90915085600052886000208580850160051c8201928b8610620003b0575b918a91869594930160051c01915b828110620003a05750506200009b565b600081558594508a910162000390565b9250819262000382565b602289634e487b7160e01b6000525260246000fd5b93607f169362000084565b604186634e487b7160e01b6000525260246000fd5b634e487b7160e01b600052604160045260246000fd5b600080fdfe6080604081815260048036101561001557600080fd5b600092833560e01c90816306fdde03146107d857508063095ea7b3146104715780630ce65eac1461079a57806318160ddd1461068857806323b872dd146106a75780632ae2161514610688578063313ce5671461066c57806333039d3d1461064c57806340c10f1914610562578063477348921461052a5780635427789c1461050d57806370a08231146104d6578063715018a61461047657806375247a58146104715780638da5cb5b1461044857806395d89b4114610326578063a2309ff814610307578063a9059cbb146102d6578063da0239a614610292578063dd62ed3e14610249578063e58306f9146101a75763f2fde38b1461011557600080fd5b346101a35760203660031901126101a35761012e610918565b90610137610b58565b6001600160a01b0391821692831561018d575050600554826bffffffffffffffffffffffff60a01b821617600555167f8be0079c531659141344cd1fd0a4f28419497f9722a3daafe3b4186f6b6457e08380a380f35b51631e4fbdf760e01b8152908101849052602490fd5b8280fd5b508290346102455782600319360112610245576101c2610918565b602435916101ce610b58565b600654906402540be4006101e285846109f9565b116102025750906101f7836101ff94936109f9565b600655610afa565b80f35b606490602087519162461bcd60e51b8352820152601860248201527f4578636565647320746f74616c20737570706c792063617000000000000000006044820152fd5b5080fd5b50503461024557806003193601126102455780602092610267610918565b61026f610933565b6001600160a01b0391821683526001865283832091168252845220549051908152f35b50919034610245578160031936011261024557600654916402540be4009283039283116102c3576020838351908152f35b634e487b7160e01b815260118452602490fd5b5050346102455780600319360112610245576020906103006102f6610918565b6024359033610a1c565b5160018152f35b5050346102455781600319360112610245576020906006549051908152f35b5091903461024557816003193601126102455780519082845460018160011c906001831692831561043e575b602093848410811461042b5783885290811561040f57506001146103ba575b505050829003601f01601f191682019267ffffffffffffffff8411838510176103a757508291826103a39252826108cf565b0390f35b634e487b7160e01b815260418552602490fd5b8787529192508591837f8a35acfbc15ff81a39ae7d344fd709f28e8600b4aa8c65c6b64bfe7fe36bd19b5b8385106103fb5750505050830101388080610371565b8054888601830152930192849082016103e5565b60ff1916878501525050151560051b8401019050388080610371565b634e487b7160e01b895260228a52602489fd5b91607f1691610352565b50503461024557816003193601126102455760055490516001600160a01b039091168152602090f35b610949565b83346104d357806003193601126104d35761048f610b58565b600580546001600160a01b0319811690915581906001600160a01b03167f8be0079c531659141344cd1fd0a4f28419497f9722a3daafe3b4186f6b6457e08280a380f35b80fd5b5050346102455760203660031901126102455760209181906001600160a01b036104fe610918565b16815280845220549051908152f35b505034610245578160031936011261024557602090516107d08152f35b5050346102455760203660031901126102455760209181906001600160a01b03610552610918565b1681526008845220549051908152f35b5090346101a357806003193601126101a35761057c610918565b6001600160a01b03811680855260076020528285205490929060ff1661063d5782855260086020526105b3602435828720546109f9565b936107d0851180610622575b61061457506105ed918491848752600860205286206105df8382546109f9565b90556101f7826006546109f9565b7fc05aa721a8d88be57c93f6d0d3c44b71dda42835b8dd02592dd1d38fd7e63eaa8380a380f35b9051630f78a4e160e11b8152fd5b8487526007602052828720805460ff191660011790556105bf565b51632f7998db60e21b81528390fd5b505034610245578160031936011261024557602090516402540be4008152f35b5050346102455781600319360112610245576020905160128152f35b5050346102455781600319360112610245576020906002549051908152f35b5082346104d35760603660031901126104d3576106c2610918565b6106ca610933565b916044359360018060a01b038316808352600160205286832033845260205286832054916000198303610706575b602088610300898989610a1c565b86831061076e57811561075757331561074057508252600160209081528683203384528152918690209085900390558290610300876106f8565b8751634a1406b160e11b8152908101849052602490fd5b875163e602df0560e01b8152908101849052602490fd5b8751637dc7a0d960e11b8152339181019182526020820193909352604081018790528291506060010390fd5b5050346102455760203660031901126102455760209160ff9082906001600160a01b036107c5610918565b1681526007855220541690519015158152f35b84915083346101a357826003193601126101a3578260035460018160011c90600183169283156108c5575b602093848410811461042b578388529081156108a9575060011461085357505050829003601f01601f191682019267ffffffffffffffff8411838510176103a757508291826103a39252826108cf565b600387529192508591837fc2575a0e9e593c00f959f8c92f12db2869c3395a3b0502d05e2516446f71f85b5b8385106108955750505050830101858080610371565b80548886018301529301928490820161087f565b60ff1916878501525050151560051b8401019050858080610371565b91607f1691610803565b6020808252825181830181905290939260005b82811061090457505060409293506000838284010152601f8019910116010190565b8181018601518482016040015285016108e2565b600435906001600160a01b038216820361092e57565b600080fd5b602435906001600160a01b038216820361092e57565b3461092e5760408060031936011261092e57610963610918565b906024359133156109e1576001600160a01b031680156109c95760209233600052600184528260002082600052845280836000205582519081527f8c5be1e5ebec7d5bd14f71427d1e84f3dd0314c0f7b2291e5b200ac8c7c3b925843392a35160018152f35b8151634a1406b160e11b815260006004820152602490fd5b815163e602df0560e01b815260006004820152602490fd5b91908201809211610a0657565b634e487b7160e01b600052601160045260246000fd5b916001600160a01b03808416928315610ae15716928315610ac85760009083825281602052604082205490838210610a96575091604082827fddf252ad1be2c89b69c2b068fc378daa952ba7f163c4a11628f55a4df523b3ef958760209652828652038282205586815220818154019055604051908152a3565b60405163391434e360e21b81526001600160a01b03919091166004820152602481019190915260448101839052606490fd5b60405163ec442f0560e01b815260006004820152602490fd5b604051634b637e8f60e11b815260006004820152602490fd5b6001600160a01b0316908115610ac8577fddf252ad1be2c89b69c2b068fc378daa952ba7f163c4a11628f55a4df523b3ef602082610b3c6000946002546109f9565b60025584845283825260408420818154019055604051908152a3565b6005546001600160a01b03163303610b6c57565b60405163118cdaa760e01b8152336004820152602490fdfea2646970667358221220b4b90780045e6d00b9a906b35a3c2f81d6ac53d1378abfbfa83dbe042932054364736f6c63430008180033","linkReferences":{}},"methodIdentifiers":{"MAX_TOTAL_SUPPLY()":"33039d3d","MINT_AMOUNT()":"5427789c","adminMint(address,uint256)":"e58306f9","allowance(address,address)":"dd62ed3e","approval(address,uint256)":"75247a58","approve(address,uint256)":"095ea7b3","balanceOf(address)":"70a08231","decimals()":"313ce567","getUserBalance(address)":"47734892","hasMinted_(address)":"0ce65eac","mint(address,uint256)":"40c10f19","name()":"06fdde03","owner()":"8da5cb5b","remainingSupply()":"da0239a6","renounceOwnership()":"715018a6","symbol()":"95d89b41","totalMinted()":"a2309ff8","totalSupply()":"18160ddd","totalSupplys()":"2ae21615","transfer(address,uint256)":"a9059cbb","transferFrom(address,address,uint256)":"23b872dd","transferOwnership(address)":"f2fde38b"},"id":59}