{
  "abi": [
    {
      "type": "constructor",
      "inputs": [],
      "stateMutability": "nonpayable"
    },
    {
      "type": "function",
      "name": "approve",
      "inputs": [
        {
          "name": "to",
          "type": "address",
          "internalType": "address"
        },
        {
          "name": "tokenId",
          "type": "uint256",
          "internalType": "uint256"
        }
      ],
      "outputs": [],
      "stateMutability": "nonpayable"
    },
    {
      "type": "function",
      "name": "balanceOf",
      "inputs": [
        {
          "name": "owner",
          "type": "address",
          "internalType": "address"
        }
      ],
      "outputs": [
        {
          "name": "",
          "type": "uint256",
          "internalType": "uint256"
        }
      ],
      "stateMutability": "view"
    },
    {
      "type": "function",
      "name": "getApproved",
      "inputs": [
        {
          "name": "tokenId",
          "type": "uint256",
          "internalType": "uint256"
        }
      ],
      "outputs": [
        {
          "name": "",
          "type": "address",
          "internalType": "address"
        }
      ],
      "stateMutability": "view"
    },
    {
      "type": "function",
      "name": "getNextTokenId",
      "inputs": [],
      "outputs": [
        {
          "name": "",
          "type": "uint256",
          "internalType": "uint256"
        }
      ],
      "stateMutability": "view"
    },
    {
      "type": "function",
      "name": "isApprovedForAll",
      "inputs": [
        {
          "name": "owner",
          "type": "address",
          "internalType": "address"
        },
        {
          "name": "operator",
          "type": "address",
          "internalType": "address"
        }
      ],
      "outputs": [
        {
          "name": "",
          "type": "bool",
          "internalType": "bool"
        }
      ],
      "stateMutability": "view"
    },
    {
      "type": "function",
      "name": "name",
      "inputs": [],
      "outputs": [
        {
          "name": "",
          "type": "string",
          "internalType": "string"
        }
      ],
      "stateMutability": "view"
    },
    {
      "type": "function",
      "name": "ownerOf",
      "inputs": [
        {
          "name": "tokenId",
          "type": "uint256",
          "internalType": "uint256"
        }
      ],
      "outputs": [
        {
          "name": "",
          "type": "address",
          "internalType": "address"
        }
      ],
      "stateMutability": "view"
    },
    {
      "type": "function",
      "name": "safeMint",
      "inputs": [
        {
          "name": "to",
          "type": "address",
          "internalType": "address"
        },
        {
          "name": "uri",
          "type": "string",
          "internalType": "string"
        }
      ],
      "outputs": [],
      "stateMutability": "nonpayable"
    },
    {
      "type": "function",
      "name": "safeTransferFrom",
      "inputs": [
        {
          "name": "from",
          "type": "address",
          "internalType": "address"
        },
        {
          "name": "to",
          "type": "address",
          "internalType": "address"
        },
        {
          "name": "tokenId",
          "type": "uint256",
          "internalType": "uint256"
        }
      ],
      "outputs": [],
      "stateMutability": "nonpayable"
    },
    {
      "type": "function",
      "name": "safeTransferFrom",
      "inputs": [
        {
          "name": "from",
          "type": "address",
          "internalType": "address"
        },
        {
          "name": "to",
          "type": "address",
          "internalType": "address"
        },
        {
          "name": "tokenId",
          "type": "uint256",
          "internalType": "uint256"
        },
        {
          "name": "data",
          "type": "bytes",
          "internalType": "bytes"
        }
      ],
      "outputs": [],
      "stateMutability": "nonpayable"
    },
    {
      "type": "function",
      "name": "setApprovalForAll",
      "inputs": [
        {
          "name": "operator",
          "type": "address",
          "internalType": "address"
        },
        {
          "name": "approved",
          "type": "bool",
          "internalType": "bool"
        }
      ],
      "outputs": [],
      "stateMutability": "nonpayable"
    },
    {
      "type": "function",
      "name": "supportsInterface",
      "inputs": [
        {
          "name": "interfaceId",
          "type": "bytes4",
          "internalType": "bytes4"
        }
      ],
      "outputs": [
        {
          "name": "",
          "type": "bool",
          "internalType": "bool"
        }
      ],
      "stateMutability": "view"
    },
    {
      "type": "function",
      "name": "symbol",
      "inputs": [],
      "outputs": [
        {
          "name": "",
          "type": "string",
          "internalType": "string"
        }
      ],
      "stateMutability": "view"
    },
    {
      "type": "function",
      "name": "tokenURI",
      "inputs": [
        {
          "name": "tokenId",
          "type": "uint256",
          "internalType": "uint256"
        }
      ],
      "outputs": [
        {
          "name": "",
          "type": "string",
          "internalType": "string"
        }
      ],
      "stateMutability": "view"
    },
    {
      "type": "function",
      "name": "tokensOfOwner",
      "inputs": [
        {
          "name": "owner",
          "type": "address",
          "internalType": "address"
        }
      ],
      "outputs": [
        {
          "name": "",
          "type": "uint256[]",
          "internalType": "uint256[]"
        }
      ],
      "stateMutability": "view"
    },
    {
      "type": "function",
      "name": "transferFrom",
      "inputs": [
        {
          "name": "from",
          "type": "address",
          "internalType": "address"
        },
        {
          "name": "to",
          "type": "address",
          "internalType": "address"
        },
        {
          "name": "tokenId",
          "type": "uint256",
          "internalType": "uint256"
        }
      ],
      "outputs": [],
      "stateMutability": "nonpayable"
    },
    {
      "type": "event",
      "name": "Approval",
      "inputs": [
        {
          "name": "owner",
          "type": "address",
          "indexed": true,
          "internalType": "address"
        },
        {
          "name": "approved",
          "type": "address",
          "indexed": true,
          "internalType": "address"
        },
        {
          "name": "tokenId",
          "type": "uint256",
          "indexed": true,
          "internalType": "uint256"
        }
      ],
      "anonymous": false
    },
    {
      "type": "event",
      "name": "ApprovalForAll",
      "inputs": [
        {
          "name": "owner",
          "type": "address",
          "indexed": true,
          "internalType": "address"
        },
        {
          "name": "operator",
          "type": "address",
          "indexed": true,
          "internalType": "address"
        },
        {
          "name": "approved",
          "type": "bool",
          "indexed": false,
          "internalType": "bool"
        }
      ],
      "anonymous": false
    },
    {
      "type": "event",
      "name": "BatchMetadataUpdate",
      "inputs": [
        {
          "name": "_fromTokenId",
          "type": "uint256",
          "indexed": false,
          "internalType": "uint256"
        },
        {
          "name": "_toTokenId",
          "type": "uint256",
          "indexed": false,
          "internalType": "uint256"
        }
      ],
      "anonymous": false
    },
    {
      "type": "event",
      "name": "MetadataUpdate",
      "inputs": [
        {
          "name": "_tokenId",
          "type": "uint256",
          "indexed": false,
          "internalType": "uint256"
        }
      ],
      "anonymous": false
    },
    {
      "type": "event",
      "name": "Transfer",
      "inputs": [
        {
          "name": "from",
          "type": "address",
          "indexed": true,
          "internalType": "address"
        },
        {
          "name": "to",
          "type": "address",
          "indexed": true,
          "internalType": "address"
        },
        {
          "name": "tokenId",
          "type": "uint256",
          "indexed": true,
          "internalType": "uint256"
        }
      ],
      "anonymous": false
    },
    {
      "type": "error",
      "name": "ERC721IncorrectOwner",
      "inputs": [
        {
          "name": "sender",
          "type": "address",
          "internalType": "address"
        },
        {
          "name": "tokenId",
          "type": "uint256",
          "internalType": "uint256"
        },
        {
          "name": "owner",
          "type": "address",
          "internalType": "address"
        }
      ]
    },
    {
      "type": "error",
      "name": "ERC721InsufficientApproval",
      "inputs": [
        {
          "name": "operator",
          "type": "address",
          "internalType": "address"
        },
        {
          "name": "tokenId",
          "type": "uint256",
          "internalType": "uint256"
        }
      ]
    },
    {
      "type": "error",
      "name": "ERC721InvalidApprover",
      "inputs": [
        {
          "name": "approver",
          "type": "address",
          "internalType": "address"
        }
      ]
    },
    {
      "type": "error",
      "name": "ERC721InvalidOperator",
      "inputs": [
        {
          "name": "operator",
          "type": "address",
          "internalType": "address"
        }
      ]
    },
    {
      "type": "error",
      "name": "ERC721InvalidOwner",
      "inputs": [
        {
          "name": "owner",
          "type": "address",
          "internalType": "address"
        }
      ]
    },
    {
      "type": "error",
      "name": "ERC721InvalidReceiver",
      "inputs": [
        {
          "name": "receiver",
          "type": "address",
          "internalType": "address"
        }
      ]
    },
    {
      "type": "error",
      "name": "ERC721InvalidSender",
      "inputs": [
        {
          "name": "sender",
          "type": "address",
          "internalType": "address"
        }
      ]
    },
    {
      "type": "error",
      "name": "ERC721NonexistentToken",
      "inputs": [
        {
          "name": "tokenId",
          "type": "uint256",
          "internalType": "uint256"
        }
      ]
    },
    {
      "type": "error",
      "name": "NO_TOKEN_ID_FOUND",
      "inputs": []
    }
  ],
  "bytecode": {
    "object": "0x6080346200030d576001600160401b039060409080820183811182821017620002f75782526008815260209267109b1d5b5853919560c21b84830152825183810181811083821117620002f75784526005815264424c554d4160d81b85820152825190828211620002f75760008054926001958685811c95168015620002ec575b89861014620002d8578190601f9586811162000285575b5089908683116001146200022157849262000215575b5050600019600383901b1c191690861b1781555b8151938411620002015784548581811c91168015620001f6575b88821014620001e2578381116200019a575b5086928411600114620001345783949596509262000128575b5050600019600383901b1c191690821b1790555b516111a79081620003138239f35b01519050388062000106565b9190601f1984169685845280842093905b88821062000182575050838596971062000168575b505050811b0190556200011a565b015160001960f88460031b161c191690553880806200015a565b80878596829496860151815501950193019062000145565b8582528782208480870160051c8201928a8810620001d8575b0160051c019086905b828110620001cc575050620000ed565b838155018690620001bc565b92508192620001b3565b634e487b7160e01b82526022600452602482fd5b90607f1690620000db565b634e487b7160e01b81526041600452602490fd5b015190503880620000ad565b8480528a85208994509190601f198416865b8d8282106200026e575050841162000254575b505050811b018155620000c1565b015160001960f88460031b161c1916905538808062000246565b8385015186558c9790950194938401930162000233565b9091508380528984208680850160051c8201928c8610620002ce575b918a91869594930160051c01915b828110620002bf57505062000097565b8681558594508a9101620002af565b92508192620002a1565b634e487b7160e01b83526022600452602483fd5b94607f169462000080565b634e487b7160e01b600052604160045260246000fd5b600080fdfe608060408181526004918236101561001657600080fd5b600092833560e01c91826301ffc9a714610b175750816306fdde0314610a66578163081812fc14610a2a578163095ea7b31461094d57816323b872dd1461093557816342842e0e146109065781636352211e146108d557816370a08231146108a85781638462151c1461084357816395d89b4114610755578163a22cb465146106b3578163b88d4fde14610645578163c87b56dd1461054a578163caa0f92a1461052b578163d204c45e14610125575063e985e9c5146100d557600080fd5b3461012157806003193601126101215760ff816020936100f3610bdc565b6100fb610bf7565b6001600160a01b0391821683526005875283832091168252855220549151911615158152f35b5080fd5b83833461012157806003193601126101215761013f610bdc565b9060249081359467ffffffffffffffff9586811161052757366023820112156105275761017490369085818501359101610cb2565b600754946001958681018091116105155780600755845161019481610c42565b8881526001600160a01b03838116939084156104ff57908392918a9695948c5283858d60209d8e94600286528d83205416918d831515967fddf252ad1be2c89b69c2b068fc378daa952ba7f163c4a11628f55a4df523b3ef93600292896104cc575b87855260038352842080549091019055868352528d812080546001600160a01b0319168517905580a46104b6573b610390575b5050506007549485885260068752848820938251998a1161037f5750506102508354610ce9565b601f8111610339575b508590601f89116001146102bb579780928192899a7ff8e1a15aba9398e019f0b49df1a4fde98ee17ae345cb5f6b5e2c27f5033e8ce79a946102b0575b50501b916000199060031b1c19161790555b51908152a180f35b015192508a80610296565b838852868820909891601f198316895b818110610324575099837ff8e1a15aba9398e019f0b49df1a4fde98ee17ae345cb5f6b5e2c27f5033e8ce79a9b1061030b575b505050811b0190556102a8565b015160001960f88460031b161c191690558880806102fe565b8b8301518455928501929189019189016102cb565b838852868820601f8a0160051c810191888b10610375575b601f0160051c019083905b82811061036a575050610259565b89815501839061035c565b9091508190610351565b634e487b7160e01b89526041905287fd5b90888a896103d3899d99958b9c9f9998979d9b519586948594630a85bd0160e11b998a875233908701528501526044840152608060648401526084830190610b9c565b0381898d5af1869181610472575b5061043b5750505050503d600014610433573d6103fd81610c96565b9061040a85519283610c74565b81528091833d92013e5b80519182610430575050505191633250574960e11b8352820152fd5b01fd5b506060610414565b63ffffffff60e09b9897999394959b9a969a1b160361045d5750888080610229565b838691865191633250574960e11b8352820152fd5b9091508781813d83116104af575b61048a8183610c74565b810103126104ab57516001600160e01b0319811681036104ab57908c6103e1565b8680fd5b503d610480565b87516339e3563760e11b81528088018c90528990fd5b600089815260046020526040902080546001600160a01b03191690558685526003835280852080546000190190556101f6565b8751633250574960e11b81528088018c90528990fd5b634e487b7160e01b8852601184528588fd5b8580fd5b5050346101215781600319360112610121576020906007549051908152f35b91905034610641576020918260031936011261063d573561056a81610fb9565b5083526006825280832092815180948290805461058681610ce9565b91828552600191886001821691826000146106165750506001146105d8575b5050506105d49392916105b9910386610c74565b81516105c481610c42565b5251928284938452830190610b9c565b0390f35b8552868520879350859291905b8284106105fe57505050820101816105b96105d46105a5565b8054848b0186015289955088949093019281016105e5565b60ff19168782015293151560051b860190930193508492506105b991506105d490506105a5565b8380fd5b8280fd5b83903461012157608036600319011261012157610660610bdc565b610668610bf7565b6044359060643567ffffffffffffffff81116105275736602382011215610527576106b09481602461069f93369301359101610cb2565b926106ab838383610d23565b61102d565b80f35b919050346106415780600319360112610641576106ce610bdc565b9060243591821515809303610751576001600160a01b031692831561073c5750338452600560205280842083855260205280842060ff1981541660ff8416179055519081527f17307eab39ab6107e8899845ad3d59bd9653f200f220920489ca2b5937696c3160203392a380f35b836024925191630b61174360e31b8352820152fd5b8480fd5b82843461084057806003193601126108405781519182826001936001549461077c86610ce9565b91828552602096876001821691826000146108195750506001146107bd575b5050506105d492916107ae910385610c74565b51928284938452830190610b9c565b9190869350600183527fb10e2d527612073b26eecdfd717e6a320cf44b4afac2b0732d9fcbe2b7fa0cf65b82841061080157505050820101816107ae6105d461079b565b8054848a0186015288955087949093019281016107e8565b60ff19168782015293151560051b860190930193508492506107ae91506105d4905061079b565b80fd5b50503461012157602090816003193601126106415791610869610864610bdc565b610eda565b9083519383808695860192818752855180945286019401925b82811061089157505050500390f35b835185528695509381019392810192600101610882565b505034610121576020366003190112610121576020906108ce6108c9610bdc565b610ff4565b9051908152f35b82843461084057602036600319011261084057506108f560209235610fb9565b90516001600160a01b039091168152f35b505034610121576106b09061091a36610c0d565b9192519261092784610c42565b8584526106ab838383610d23565b8334610840576106b061094736610c0d565b91610d23565b91905034610641578060031936011261064157610968610bdc565b9160243561097581610fb9565b33151580610a17575b806109ee575b6109d8576001600160a01b039485169482918691167f8c5be1e5ebec7d5bd14f71427d1e84f3dd0314c0f7b2291e5b200ac8c7c3b9258880a48452602052822080546001600160a01b031916909117905580f35b835163a9fbf51f60e01b81523381850152602490fd5b506001600160a01b03811686526005602090815284872033885290528386205460ff1615610984565b506001600160a01b03811633141561097e565b90503461064157602036600319011261064157918260209335610a4c81610fb9565b50825283528190205490516001600160a01b039091168152f35b82843461084057806003193601126108405781519182828354610a8881610ce9565b9081845260209560019187600182169182600014610819575050600114610abc575050506105d492916107ae910385610c74565b91908693508280527f290decd9548b62a8d60345a988386fc84ba6bc95484008f6362f93160ef3e5635b828410610aff57505050820101816107ae6105d461079b565b8054848a018601528895508794909301928101610ae6565b849134610641576020366003190112610641573563ffffffff60e01b81168091036106415760209250632483248360e11b8114908115610b59575b5015158152f35b6380ac58cd60e01b811491508115610b8b575b8115610b7a575b5083610b52565b6301ffc9a760e01b14905083610b73565b635b5e139f60e01b81149150610b6c565b919082519283825260005b848110610bc8575050826000602080949584010152601f8019910116010190565b602081830181015184830182015201610ba7565b600435906001600160a01b0382168203610bf257565b600080fd5b602435906001600160a01b0382168203610bf257565b6060906003190112610bf2576001600160a01b03906004358281168103610bf257916024359081168103610bf2579060443590565b6020810190811067ffffffffffffffff821117610c5e57604052565b634e487b7160e01b600052604160045260246000fd5b90601f8019910116810190811067ffffffffffffffff821117610c5e57604052565b67ffffffffffffffff8111610c5e57601f01601f191660200190565b929192610cbe82610c96565b91610ccc6040519384610c74565b829481845281830111610bf2578281602093846000960137010152565b90600182811c92168015610d19575b6020831014610d0357565b634e487b7160e01b600052602260045260246000fd5b91607f1691610cf8565b6001600160a01b039182169290918315610ea957600092828452826020956002875260409684888820541696879133151580610e13575b509060027fddf252ad1be2c89b69c2b068fc378daa952ba7f163c4a11628f55a4df523b3ef9284610de0575b858352600381528b8320805460010190558683525289812080546001600160a01b0319168517905580a41692838303610dbf5750505050565b6064945051926364283d7b60e01b8452600484015260248301526044820152fd5b600087815260046020526040902080546001600160a01b0319169055848352600381528b83208054600019019055610d86565b91939450915080610e68575b15610e2f57859291879138610d5a565b878688610e4c576024915190637e27328960e01b82526004820152fd5b604491519063177e802f60e01b82523360048301526024820152fd5b503387148015610e8d575b80610e1f5750858252600481523385898420541614610e1f565b5086825260058152878220338352815260ff8883205416610e73565b604051633250574960e11b815260006004820152602490fd5b67ffffffffffffffff8111610c5e5760051b60200190565b610ee381610ff4565b9081610efb576040516369b9a7f960e01b8152600490fd5b610f1d610f0783610ec2565b92610f156040519485610c74565b808452610ec2565b60209190601f190136848401376000918291600754925b838110610f4357505050505090565b610f4c81610fb9565b6001600160a01b03838116911614610f67575b600101610f34565b938551811015610fa35784838260051b880101526000198114610f8d5760010193610f5f565b634e487b7160e01b600052601160045260246000fd5b634e487b7160e01b600052603260045260246000fd5b6000818152600260205260409020546001600160a01b0316908115610fdc575090565b60249060405190637e27328960e01b82526004820152fd5b6001600160a01b0316801561101457600052600360205260406000205490565b6040516322718ad960e21b815260006004820152602490fd5b813b61103a575b50505050565b604051630a85bd0160e11b8082523360048301526001600160a01b03928316602483015260448201949094526080606482015260209592909116939092908390611088906084830190610b9c565b039285816000958187895af1849181611131575b506110fc575050503d6000146110f4573d6110b681610c96565b906110c46040519283610c74565b81528091843d92013e5b805192836110ef57604051633250574960e11b815260048101849052602490fd5b019050fd5b5060606110ce565b919450915063ffffffff60e01b1603611119575038808080611034565b60249060405190633250574960e11b82526004820152fd5b9091508681813d831161116a575b6111498183610c74565b8101031261075157516001600160e01b03198116810361075157903861109c565b503d61113f56fea26469706673582212203ec0476f945a11ffb3a87814413f1fe5418aab21f24759d0046a853165d901c364736f6c63430008180033",
    "linkReferences": {}
  },
  "methodIdentifiers": {
    "approve(address,uint256)": "095ea7b3",
    "balanceOf(address)": "70a08231",
    "getApproved(uint256)": "081812fc",
    "getNextTokenId()": "caa0f92a",
    "isApprovedForAll(address,address)": "e985e9c5",
    "name()": "06fdde03",
    "ownerOf(uint256)": "6352211e",
    "safeMint(address,string)": "d204c45e",
    "safeTransferFrom(address,address,uint256)": "42842e0e",
    "safeTransferFrom(address,address,uint256,bytes)": "b88d4fde",
    "setApprovalForAll(address,bool)": "a22cb465",
    "supportsInterface(bytes4)": "01ffc9a7",
    "symbol()": "95d89b41",
    "tokenURI(uint256)": "c87b56dd",
    "tokensOfOwner(address)": "8462151c",
    "transferFrom(address,address,uint256)": "23b872dd"
  },
  "id": 57
}